{
	"Contract  ^0.8.8/TestContract.sol": {
		"Test": {
			"abi": [
				{
					"inputs": [],
					"name": "getConversionRate",
					"outputs": [],
					"stateMutability": "nonpayable",
					"type": "function"
				},
				{
					"inputs": [],
					"name": "mytest",
					"outputs": [
						{
							"internalType": "uint256",
							"name": "hello",
							"type": "uint256"
						},
						{
							"internalType": "uint8",
							"name": "decimalNum",
							"type": "uint8"
						}
					],
					"stateMutability": "view",
					"type": "function"
				},
				{
					"inputs": [],
					"name": "setMytest",
					"outputs": [
						{
							"internalType": "uint256",
							"name": "",
							"type": "uint256"
						}
					],
					"stateMutability": "view",
					"type": "function"
				}
			],
			"devdoc": {
				"kind": "dev",
				"methods": {},
				"version": 1
			},
			"evm": {
				"assembly": "    /* \"Contract  ^0.8.8/TestContract.sol\":133:1590  contract Test{... */\n  mstore(0x40, 0x80)\n  callvalue\n  dup1\n  iszero\n  tag_1\n  jumpi\n  0x00\n  dup1\n  revert\ntag_1:\n  pop\n  dataSize(sub_0)\n  dup1\n  dataOffset(sub_0)\n  0x00\n  codecopy\n  0x00\n  return\nstop\n\nsub_0: assembly {\n        /* \"Contract  ^0.8.8/TestContract.sol\":133:1590  contract Test{... */\n      mstore(0x40, 0x80)\n      callvalue\n      dup1\n      iszero\n      tag_1\n      jumpi\n      0x00\n      dup1\n      revert\n    tag_1:\n      pop\n      jumpi(tag_2, lt(calldatasize, 0x04))\n      shr(0xe0, calldataload(0x00))\n      dup1\n      0x76e55338\n      eq\n      tag_3\n      jumpi\n      dup1\n      0xe465b7e6\n      eq\n      tag_4\n      jumpi\n      dup1\n      0xf36089ec\n      eq\n      tag_5\n      jumpi\n    tag_2:\n      0x00\n      dup1\n      revert\n        /* \"Contract  ^0.8.8/TestContract.sol\":328:347  Price public mytest */\n    tag_3:\n      tag_6\n      tag_7\n      jump\t// in\n    tag_6:\n      mload(0x40)\n      tag_8\n      swap3\n      swap2\n      swap1\n      tag_9\n      jump\t// in\n    tag_8:\n      mload(0x40)\n      dup1\n      swap2\n      sub\n      swap1\n      return\n        /* \"Contract  ^0.8.8/TestContract.sol\":1004:1540  function setMytest() public view returns (uint256) {... */\n    tag_4:\n      tag_10\n      tag_11\n      jump\t// in\n    tag_10:\n      mload(0x40)\n      tag_12\n      swap2\n      swap1\n      tag_13\n      jump\t// in\n    tag_12:\n      mload(0x40)\n      dup1\n      swap2\n      sub\n      swap1\n      return\n        /* \"Contract  ^0.8.8/TestContract.sol\":1545:1588  function getConversionRate() public{... */\n    tag_5:\n      tag_14\n      tag_15\n      jump\t// in\n    tag_14:\n      stop\n        /* \"Contract  ^0.8.8/TestContract.sol\":328:347  Price public mytest */\n    tag_7:\n      0x00\n      dup1\n      0x00\n      add\n      sload\n      swap1\n      dup1\n      0x01\n      add\n      0x00\n      swap1\n      sload\n      swap1\n      0x0100\n      exp\n      swap1\n      div\n      0xff\n      and\n      swap1\n      pop\n      dup3\n      jump\t// out\n        /* \"Contract  ^0.8.8/TestContract.sol\":1004:1540  function setMytest() public view returns (uint256) {... */\n    tag_11:\n        /* \"Contract  ^0.8.8/TestContract.sol\":1046:1053  uint256 */\n      0x00\n        /* \"Contract  ^0.8.8/TestContract.sol\":1067:1079  int256 price */\n      dup1\n        /* \"Contract  ^0.8.8/TestContract.sol\":1107:1149  0x8A753747A1Fa494EC906cE90E9f37563A8AF630e */\n      0x8a753747a1fa494ec906ce90e9f37563a8af630e\n        /* \"Contract  ^0.8.8/TestContract.sol\":1085:1166  AggregatorV3Interface(0x8A753747A1Fa494EC906cE90E9f37563A8AF630e).latestRoundData */\n      0xffffffffffffffffffffffffffffffffffffffff\n      and\n      0xfeaf968c\n        /* \"Contract  ^0.8.8/TestContract.sol\":1085:1168  AggregatorV3Interface(0x8A753747A1Fa494EC906cE90E9f37563A8AF630e).latestRoundData() */\n      mload(0x40)\n      dup2\n      0xffffffff\n      and\n      0xe0\n      shl\n      dup2\n      mstore\n      0x04\n      add\n      0xa0\n      mload(0x40)\n      dup1\n      dup4\n      sub\n      dup2\n      dup7\n      dup1\n      extcodesize\n      iszero\n      dup1\n      iszero\n      tag_17\n      jumpi\n      0x00\n      dup1\n      revert\n    tag_17:\n      pop\n      gas\n      staticcall\n      iszero\n      dup1\n      iszero\n      tag_19\n      jumpi\n      returndatasize\n      0x00\n      dup1\n      returndatacopy\n      revert(0x00, returndatasize)\n    tag_19:\n      pop\n      pop\n      pop\n      pop\n      mload(0x40)\n      returndatasize\n      not(0x1f)\n      0x1f\n      dup3\n      add\n      and\n      dup3\n      add\n      dup1\n      0x40\n      mstore\n      pop\n      dup2\n      add\n      swap1\n      tag_20\n      swap2\n      swap1\n      tag_21\n      jump\t// in\n    tag_20:\n        /* \"Contract  ^0.8.8/TestContract.sol\":1065:1168  (,int256 price,,,) =AggregatorV3Interface(0x8A753747A1Fa494EC906cE90E9f37563A8AF630e).latestRoundData() */\n      pop\n      pop\n      pop\n      swap2\n      pop\n      pop\n        /* \"Contract  ^0.8.8/TestContract.sol\":1478:1520  0x8A753747A1Fa494EC906cE90E9f37563A8AF630e */\n      0x8a753747a1fa494ec906ce90e9f37563a8af630e\n        /* \"Contract  ^0.8.8/TestContract.sol\":1456:1530  AggregatorV3Interface(0x8A753747A1Fa494EC906cE90E9f37563A8AF630e).decimals */\n      0xffffffffffffffffffffffffffffffffffffffff\n      and\n      0x313ce567\n        /* \"Contract  ^0.8.8/TestContract.sol\":1456:1532  AggregatorV3Interface(0x8A753747A1Fa494EC906cE90E9f37563A8AF630e).decimals() */\n      mload(0x40)\n      dup2\n      0xffffffff\n      and\n      0xe0\n      shl\n      dup2\n      mstore\n      0x04\n      add\n      0x20\n      mload(0x40)\n      dup1\n      dup4\n      sub\n      dup2\n      dup7\n      dup1\n      extcodesize\n      iszero\n      dup1\n      iszero\n      tag_22\n      jumpi\n      0x00\n      dup1\n      revert\n    tag_22:\n      pop\n      gas\n      staticcall\n      iszero\n      dup1\n      iszero\n      tag_24\n      jumpi\n      returndatasize\n      0x00\n      dup1\n      returndatacopy\n      revert(0x00, returndatasize)\n    tag_24:\n      pop\n      pop\n      pop\n      pop\n      mload(0x40)\n      returndatasize\n      not(0x1f)\n      0x1f\n      dup3\n      add\n      and\n      dup3\n      add\n      dup1\n      0x40\n      mstore\n      pop\n      dup2\n      add\n      swap1\n      tag_25\n      swap2\n      swap1\n      tag_26\n      jump\t// in\n    tag_25:\n        /* \"Contract  ^0.8.8/TestContract.sol\":1453:1455  18 */\n      0x12\n        /* \"Contract  ^0.8.8/TestContract.sol\":1453:1532  18-AggregatorV3Interface(0x8A753747A1Fa494EC906cE90E9f37563A8AF630e).decimals() */\n      tag_27\n      swap2\n      swap1\n      tag_28\n      jump\t// in\n    tag_27:\n        /* \"Contract  ^0.8.8/TestContract.sol\":1449:1450  1 */\n      0x01\n        /* \"Contract  ^0.8.8/TestContract.sol\":1449:1533  1**(18-AggregatorV3Interface(0x8A753747A1Fa494EC906cE90E9f37563A8AF630e).decimals()) */\n      tag_29\n      swap2\n      swap1\n      tag_30\n      jump\t// in\n    tag_29:\n        /* \"Contract  ^0.8.8/TestContract.sol\":1440:1445  price */\n      dup2\n        /* \"Contract  ^0.8.8/TestContract.sol\":1432:1533  uint256(price) * 1**(18-AggregatorV3Interface(0x8A753747A1Fa494EC906cE90E9f37563A8AF630e).decimals()) */\n      tag_31\n      swap2\n      swap1\n      tag_32\n      jump\t// in\n    tag_31:\n        /* \"Contract  ^0.8.8/TestContract.sol\":1425:1533  return uint256(price) * 1**(18-AggregatorV3Interface(0x8A753747A1Fa494EC906cE90E9f37563A8AF630e).decimals()) */\n      swap2\n      pop\n      pop\n        /* \"Contract  ^0.8.8/TestContract.sol\":1004:1540  function setMytest() public view returns (uint256) {... */\n      swap1\n      jump\t// out\n        /* \"Contract  ^0.8.8/TestContract.sol\":1545:1588  function getConversionRate() public{... */\n    tag_15:\n      jump\t// out\n        /* \"#utility.yul\":7:84   */\n    tag_34:\n        /* \"#utility.yul\":44:51   */\n      0x00\n        /* \"#utility.yul\":73:78   */\n      dup2\n        /* \"#utility.yul\":62:78   */\n      swap1\n      pop\n        /* \"#utility.yul\":7:84   */\n      swap2\n      swap1\n      pop\n      jump\t// out\n        /* \"#utility.yul\":90:208   */\n    tag_35:\n        /* \"#utility.yul\":177:201   */\n      tag_58\n        /* \"#utility.yul\":195:200   */\n      dup2\n        /* \"#utility.yul\":177:201   */\n      tag_34\n      jump\t// in\n    tag_58:\n        /* \"#utility.yul\":172:175   */\n      dup3\n        /* \"#utility.yul\":165:202   */\n      mstore\n        /* \"#utility.yul\":90:208   */\n      pop\n      pop\n      jump\t// out\n        /* \"#utility.yul\":214:300   */\n    tag_36:\n        /* \"#utility.yul\":249:256   */\n      0x00\n        /* \"#utility.yul\":289:293   */\n      0xff\n        /* \"#utility.yul\":282:287   */\n      dup3\n        /* \"#utility.yul\":278:294   */\n      and\n        /* \"#utility.yul\":267:294   */\n      swap1\n      pop\n        /* \"#utility.yul\":214:300   */\n      swap2\n      swap1\n      pop\n      jump\t// out\n        /* \"#utility.yul\":306:418   */\n    tag_37:\n        /* \"#utility.yul\":389:411   */\n      tag_61\n        /* \"#utility.yul\":405:410   */\n      dup2\n        /* \"#utility.yul\":389:411   */\n      tag_36\n      jump\t// in\n    tag_61:\n        /* \"#utility.yul\":384:387   */\n      dup3\n        /* \"#utility.yul\":377:412   */\n      mstore\n        /* \"#utility.yul\":306:418   */\n      pop\n      pop\n      jump\t// out\n        /* \"#utility.yul\":424:748   */\n    tag_9:\n        /* \"#utility.yul\":541:545   */\n      0x00\n        /* \"#utility.yul\":579:581   */\n      0x40\n        /* \"#utility.yul\":568:577   */\n      dup3\n        /* \"#utility.yul\":564:582   */\n      add\n        /* \"#utility.yul\":556:582   */\n      swap1\n      pop\n        /* \"#utility.yul\":592:663   */\n      tag_63\n        /* \"#utility.yul\":660:661   */\n      0x00\n        /* \"#utility.yul\":649:658   */\n      dup4\n        /* \"#utility.yul\":645:662   */\n      add\n        /* \"#utility.yul\":636:642   */\n      dup6\n        /* \"#utility.yul\":592:663   */\n      tag_35\n      jump\t// in\n    tag_63:\n        /* \"#utility.yul\":673:741   */\n      tag_64\n        /* \"#utility.yul\":737:739   */\n      0x20\n        /* \"#utility.yul\":726:735   */\n      dup4\n        /* \"#utility.yul\":722:740   */\n      add\n        /* \"#utility.yul\":713:719   */\n      dup5\n        /* \"#utility.yul\":673:741   */\n      tag_37\n      jump\t// in\n    tag_64:\n        /* \"#utility.yul\":424:748   */\n      swap4\n      swap3\n      pop\n      pop\n      pop\n      jump\t// out\n        /* \"#utility.yul\":754:976   */\n    tag_13:\n        /* \"#utility.yul\":847:851   */\n      0x00\n        /* \"#utility.yul\":885:887   */\n      0x20\n        /* \"#utility.yul\":874:883   */\n      dup3\n        /* \"#utility.yul\":870:888   */\n      add\n        /* \"#utility.yul\":862:888   */\n      swap1\n      pop\n        /* \"#utility.yul\":898:969   */\n      tag_66\n        /* \"#utility.yul\":966:967   */\n      0x00\n        /* \"#utility.yul\":955:964   */\n      dup4\n        /* \"#utility.yul\":951:968   */\n      add\n        /* \"#utility.yul\":942:948   */\n      dup5\n        /* \"#utility.yul\":898:969   */\n      tag_35\n      jump\t// in\n    tag_66:\n        /* \"#utility.yul\":754:976   */\n      swap3\n      swap2\n      pop\n      pop\n      jump\t// out\n        /* \"#utility.yul\":1063:1180   */\n    tag_39:\n        /* \"#utility.yul\":1172:1173   */\n      0x00\n        /* \"#utility.yul\":1169:1170   */\n      dup1\n        /* \"#utility.yul\":1162:1174   */\n      revert\n        /* \"#utility.yul\":1309:1414   */\n    tag_41:\n        /* \"#utility.yul\":1345:1352   */\n      0x00\n        /* \"#utility.yul\":1385:1407   */\n      0xffffffffffffffffffff\n        /* \"#utility.yul\":1378:1383   */\n      dup3\n        /* \"#utility.yul\":1374:1408   */\n      and\n        /* \"#utility.yul\":1363:1408   */\n      swap1\n      pop\n        /* \"#utility.yul\":1309:1414   */\n      swap2\n      swap1\n      pop\n      jump\t// out\n        /* \"#utility.yul\":1420:1540   */\n    tag_42:\n        /* \"#utility.yul\":1492:1515   */\n      tag_72\n        /* \"#utility.yul\":1509:1514   */\n      dup2\n        /* \"#utility.yul\":1492:1515   */\n      tag_41\n      jump\t// in\n    tag_72:\n        /* \"#utility.yul\":1485:1490   */\n      dup2\n        /* \"#utility.yul\":1482:1516   */\n      eq\n        /* \"#utility.yul\":1472:1534   */\n      tag_73\n      jumpi\n        /* \"#utility.yul\":1530:1531   */\n      0x00\n        /* \"#utility.yul\":1527:1528   */\n      dup1\n        /* \"#utility.yul\":1520:1532   */\n      revert\n        /* \"#utility.yul\":1472:1534   */\n    tag_73:\n        /* \"#utility.yul\":1420:1540   */\n      pop\n      jump\t// out\n        /* \"#utility.yul\":1546:1687   */\n    tag_43:\n        /* \"#utility.yul\":1602:1607   */\n      0x00\n        /* \"#utility.yul\":1633:1639   */\n      dup2\n        /* \"#utility.yul\":1627:1640   */\n      mload\n        /* \"#utility.yul\":1618:1640   */\n      swap1\n      pop\n        /* \"#utility.yul\":1649:1681   */\n      tag_75\n        /* \"#utility.yul\":1675:1680   */\n      dup2\n        /* \"#utility.yul\":1649:1681   */\n      tag_42\n      jump\t// in\n    tag_75:\n        /* \"#utility.yul\":1546:1687   */\n      swap3\n      swap2\n      pop\n      pop\n      jump\t// out\n        /* \"#utility.yul\":1693:1769   */\n    tag_44:\n        /* \"#utility.yul\":1729:1736   */\n      0x00\n        /* \"#utility.yul\":1758:1763   */\n      dup2\n        /* \"#utility.yul\":1747:1763   */\n      swap1\n      pop\n        /* \"#utility.yul\":1693:1769   */\n      swap2\n      swap1\n      pop\n      jump\t// out\n        /* \"#utility.yul\":1775:1895   */\n    tag_45:\n        /* \"#utility.yul\":1847:1870   */\n      tag_78\n        /* \"#utility.yul\":1864:1869   */\n      dup2\n        /* \"#utility.yul\":1847:1870   */\n      tag_44\n      jump\t// in\n    tag_78:\n        /* \"#utility.yul\":1840:1845   */\n      dup2\n        /* \"#utility.yul\":1837:1871   */\n      eq\n        /* \"#utility.yul\":1827:1889   */\n      tag_79\n      jumpi\n        /* \"#utility.yul\":1885:1886   */\n      0x00\n        /* \"#utility.yul\":1882:1883   */\n      dup1\n        /* \"#utility.yul\":1875:1887   */\n      revert\n        /* \"#utility.yul\":1827:1889   */\n    tag_79:\n        /* \"#utility.yul\":1775:1895   */\n      pop\n      jump\t// out\n        /* \"#utility.yul\":1901:2042   */\n    tag_46:\n        /* \"#utility.yul\":1957:1962   */\n      0x00\n        /* \"#utility.yul\":1988:1994   */\n      dup2\n        /* \"#utility.yul\":1982:1995   */\n      mload\n        /* \"#utility.yul\":1973:1995   */\n      swap1\n      pop\n        /* \"#utility.yul\":2004:2036   */\n      tag_81\n        /* \"#utility.yul\":2030:2035   */\n      dup2\n        /* \"#utility.yul\":2004:2036   */\n      tag_45\n      jump\t// in\n    tag_81:\n        /* \"#utility.yul\":1901:2042   */\n      swap3\n      swap2\n      pop\n      pop\n      jump\t// out\n        /* \"#utility.yul\":2048:2170   */\n    tag_47:\n        /* \"#utility.yul\":2121:2145   */\n      tag_83\n        /* \"#utility.yul\":2139:2144   */\n      dup2\n        /* \"#utility.yul\":2121:2145   */\n      tag_34\n      jump\t// in\n    tag_83:\n        /* \"#utility.yul\":2114:2119   */\n      dup2\n        /* \"#utility.yul\":2111:2146   */\n      eq\n        /* \"#utility.yul\":2101:2164   */\n      tag_84\n      jumpi\n        /* \"#utility.yul\":2160:2161   */\n      0x00\n        /* \"#utility.yul\":2157:2158   */\n      dup1\n        /* \"#utility.yul\":2150:2162   */\n      revert\n        /* \"#utility.yul\":2101:2164   */\n    tag_84:\n        /* \"#utility.yul\":2048:2170   */\n      pop\n      jump\t// out\n        /* \"#utility.yul\":2176:2319   */\n    tag_48:\n        /* \"#utility.yul\":2233:2238   */\n      0x00\n        /* \"#utility.yul\":2264:2270   */\n      dup2\n        /* \"#utility.yul\":2258:2271   */\n      mload\n        /* \"#utility.yul\":2249:2271   */\n      swap1\n      pop\n        /* \"#utility.yul\":2280:2313   */\n      tag_86\n        /* \"#utility.yul\":2307:2312   */\n      dup2\n        /* \"#utility.yul\":2280:2313   */\n      tag_47\n      jump\t// in\n    tag_86:\n        /* \"#utility.yul\":2176:2319   */\n      swap3\n      swap2\n      pop\n      pop\n      jump\t// out\n        /* \"#utility.yul\":2325:3296   */\n    tag_21:\n        /* \"#utility.yul\":2428:2434   */\n      0x00\n        /* \"#utility.yul\":2436:2442   */\n      dup1\n        /* \"#utility.yul\":2444:2450   */\n      0x00\n        /* \"#utility.yul\":2452:2458   */\n      dup1\n        /* \"#utility.yul\":2460:2466   */\n      0x00\n        /* \"#utility.yul\":2509:2512   */\n      0xa0\n        /* \"#utility.yul\":2497:2506   */\n      dup7\n        /* \"#utility.yul\":2488:2495   */\n      dup9\n        /* \"#utility.yul\":2484:2507   */\n      sub\n        /* \"#utility.yul\":2480:2513   */\n      slt\n        /* \"#utility.yul\":2477:2597   */\n      iszero\n      tag_88\n      jumpi\n        /* \"#utility.yul\":2516:2595   */\n      tag_89\n      tag_39\n      jump\t// in\n    tag_89:\n        /* \"#utility.yul\":2477:2597   */\n    tag_88:\n        /* \"#utility.yul\":2636:2637   */\n      0x00\n        /* \"#utility.yul\":2661:2724   */\n      tag_90\n        /* \"#utility.yul\":2716:2723   */\n      dup9\n        /* \"#utility.yul\":2707:2713   */\n      dup3\n        /* \"#utility.yul\":2696:2705   */\n      dup10\n        /* \"#utility.yul\":2692:2714   */\n      add\n        /* \"#utility.yul\":2661:2724   */\n      tag_43\n      jump\t// in\n    tag_90:\n        /* \"#utility.yul\":2651:2724   */\n      swap6\n      pop\n        /* \"#utility.yul\":2607:2734   */\n      pop\n        /* \"#utility.yul\":2773:2775   */\n      0x20\n        /* \"#utility.yul\":2799:2862   */\n      tag_91\n        /* \"#utility.yul\":2854:2861   */\n      dup9\n        /* \"#utility.yul\":2845:2851   */\n      dup3\n        /* \"#utility.yul\":2834:2843   */\n      dup10\n        /* \"#utility.yul\":2830:2852   */\n      add\n        /* \"#utility.yul\":2799:2862   */\n      tag_46\n      jump\t// in\n    tag_91:\n        /* \"#utility.yul\":2789:2862   */\n      swap5\n      pop\n        /* \"#utility.yul\":2744:2872   */\n      pop\n        /* \"#utility.yul\":2911:2913   */\n      0x40\n        /* \"#utility.yul\":2937:3001   */\n      tag_92\n        /* \"#utility.yul\":2993:3000   */\n      dup9\n        /* \"#utility.yul\":2984:2990   */\n      dup3\n        /* \"#utility.yul\":2973:2982   */\n      dup10\n        /* \"#utility.yul\":2969:2991   */\n      add\n        /* \"#utility.yul\":2937:3001   */\n      tag_48\n      jump\t// in\n    tag_92:\n        /* \"#utility.yul\":2927:3001   */\n      swap4\n      pop\n        /* \"#utility.yul\":2882:3011   */\n      pop\n        /* \"#utility.yul\":3050:3052   */\n      0x60\n        /* \"#utility.yul\":3076:3140   */\n      tag_93\n        /* \"#utility.yul\":3132:3139   */\n      dup9\n        /* \"#utility.yul\":3123:3129   */\n      dup3\n        /* \"#utility.yul\":3112:3121   */\n      dup10\n        /* \"#utility.yul\":3108:3130   */\n      add\n        /* \"#utility.yul\":3076:3140   */\n      tag_48\n      jump\t// in\n    tag_93:\n        /* \"#utility.yul\":3066:3140   */\n      swap3\n      pop\n        /* \"#utility.yul\":3021:3150   */\n      pop\n        /* \"#utility.yul\":3189:3192   */\n      0x80\n        /* \"#utility.yul\":3216:3279   */\n      tag_94\n        /* \"#utility.yul\":3271:3278   */\n      dup9\n        /* \"#utility.yul\":3262:3268   */\n      dup3\n        /* \"#utility.yul\":3251:3260   */\n      dup10\n        /* \"#utility.yul\":3247:3269   */\n      add\n        /* \"#utility.yul\":3216:3279   */\n      tag_43\n      jump\t// in\n    tag_94:\n        /* \"#utility.yul\":3206:3279   */\n      swap2\n      pop\n        /* \"#utility.yul\":3160:3289   */\n      pop\n        /* \"#utility.yul\":2325:3296   */\n      swap3\n      swap6\n      pop\n      swap3\n      swap6\n      swap1\n      swap4\n      pop\n      jump\t// out\n        /* \"#utility.yul\":3302:3420   */\n    tag_49:\n        /* \"#utility.yul\":3373:3395   */\n      tag_96\n        /* \"#utility.yul\":3389:3394   */\n      dup2\n        /* \"#utility.yul\":3373:3395   */\n      tag_36\n      jump\t// in\n    tag_96:\n        /* \"#utility.yul\":3366:3371   */\n      dup2\n        /* \"#utility.yul\":3363:3396   */\n      eq\n        /* \"#utility.yul\":3353:3414   */\n      tag_97\n      jumpi\n        /* \"#utility.yul\":3410:3411   */\n      0x00\n        /* \"#utility.yul\":3407:3408   */\n      dup1\n        /* \"#utility.yul\":3400:3412   */\n      revert\n        /* \"#utility.yul\":3353:3414   */\n    tag_97:\n        /* \"#utility.yul\":3302:3420   */\n      pop\n      jump\t// out\n        /* \"#utility.yul\":3426:3565   */\n    tag_50:\n        /* \"#utility.yul\":3481:3486   */\n      0x00\n        /* \"#utility.yul\":3512:3518   */\n      dup2\n        /* \"#utility.yul\":3506:3519   */\n      mload\n        /* \"#utility.yul\":3497:3519   */\n      swap1\n      pop\n        /* \"#utility.yul\":3528:3559   */\n      tag_99\n        /* \"#utility.yul\":3553:3558   */\n      dup2\n        /* \"#utility.yul\":3528:3559   */\n      tag_49\n      jump\t// in\n    tag_99:\n        /* \"#utility.yul\":3426:3565   */\n      swap3\n      swap2\n      pop\n      pop\n      jump\t// out\n        /* \"#utility.yul\":3571:3918   */\n    tag_26:\n        /* \"#utility.yul\":3639:3645   */\n      0x00\n        /* \"#utility.yul\":3688:3690   */\n      0x20\n        /* \"#utility.yul\":3676:3685   */\n      dup3\n        /* \"#utility.yul\":3667:3674   */\n      dup5\n        /* \"#utility.yul\":3663:3686   */\n      sub\n        /* \"#utility.yul\":3659:3691   */\n      slt\n        /* \"#utility.yul\":3656:3775   */\n      iszero\n      tag_101\n      jumpi\n        /* \"#utility.yul\":3694:3773   */\n      tag_102\n      tag_39\n      jump\t// in\n    tag_102:\n        /* \"#utility.yul\":3656:3775   */\n    tag_101:\n        /* \"#utility.yul\":3814:3815   */\n      0x00\n        /* \"#utility.yul\":3839:3901   */\n      tag_103\n        /* \"#utility.yul\":3893:3900   */\n      dup5\n        /* \"#utility.yul\":3884:3890   */\n      dup3\n        /* \"#utility.yul\":3873:3882   */\n      dup6\n        /* \"#utility.yul\":3869:3891   */\n      add\n        /* \"#utility.yul\":3839:3901   */\n      tag_50\n      jump\t// in\n    tag_103:\n        /* \"#utility.yul\":3829:3901   */\n      swap2\n      pop\n        /* \"#utility.yul\":3785:3911   */\n      pop\n        /* \"#utility.yul\":3571:3918   */\n      swap3\n      swap2\n      pop\n      pop\n      jump\t// out\n        /* \"#utility.yul\":3924:4104   */\n    tag_51:\n        /* \"#utility.yul\":3972:4049   */\n      0x4e487b7100000000000000000000000000000000000000000000000000000000\n        /* \"#utility.yul\":3969:3970   */\n      0x00\n        /* \"#utility.yul\":3962:4050   */\n      mstore\n        /* \"#utility.yul\":4069:4073   */\n      0x11\n        /* \"#utility.yul\":4066:4067   */\n      0x04\n        /* \"#utility.yul\":4059:4074   */\n      mstore\n        /* \"#utility.yul\":4093:4097   */\n      0x24\n        /* \"#utility.yul\":4090:4091   */\n      0x00\n        /* \"#utility.yul\":4083:4098   */\n      revert\n        /* \"#utility.yul\":4110:4295   */\n    tag_28:\n        /* \"#utility.yul\":4148:4152   */\n      0x00\n        /* \"#utility.yul\":4168:4186   */\n      tag_106\n        /* \"#utility.yul\":4184:4185   */\n      dup3\n        /* \"#utility.yul\":4168:4186   */\n      tag_36\n      jump\t// in\n    tag_106:\n        /* \"#utility.yul\":4163:4186   */\n      swap2\n      pop\n        /* \"#utility.yul\":4200:4218   */\n      tag_107\n        /* \"#utility.yul\":4216:4217   */\n      dup4\n        /* \"#utility.yul\":4200:4218   */\n      tag_36\n      jump\t// in\n    tag_107:\n        /* \"#utility.yul\":4195:4218   */\n      swap3\n      pop\n        /* \"#utility.yul\":4237:4238   */\n      dup3\n        /* \"#utility.yul\":4234:4235   */\n      dup3\n        /* \"#utility.yul\":4231:4239   */\n      lt\n        /* \"#utility.yul\":4228:4262   */\n      iszero\n      tag_108\n      jumpi\n        /* \"#utility.yul\":4242:4260   */\n      tag_109\n      tag_51\n      jump\t// in\n    tag_109:\n        /* \"#utility.yul\":4228:4262   */\n    tag_108:\n        /* \"#utility.yul\":4287:4288   */\n      dup3\n        /* \"#utility.yul\":4284:4285   */\n      dup3\n        /* \"#utility.yul\":4280:4289   */\n      sub\n        /* \"#utility.yul\":4272:4289   */\n      swap1\n      pop\n        /* \"#utility.yul\":4110:4295   */\n      swap3\n      swap2\n      pop\n      pop\n      jump\t// out\n        /* \"#utility.yul\":4301:4403   */\n    tag_52:\n        /* \"#utility.yul\":4343:4351   */\n      0x00\n        /* \"#utility.yul\":4390:4395   */\n      dup2\n        /* \"#utility.yul\":4387:4388   */\n      0x01\n        /* \"#utility.yul\":4383:4396   */\n      shr\n        /* \"#utility.yul\":4362:4396   */\n      swap1\n      pop\n        /* \"#utility.yul\":4301:4403   */\n      swap2\n      swap1\n      pop\n      jump\t// out\n        /* \"#utility.yul\":4409:5257   */\n    tag_53:\n        /* \"#utility.yul\":4470:4475   */\n      0x00\n        /* \"#utility.yul\":4477:4481   */\n      dup1\n        /* \"#utility.yul\":4501:4507   */\n      dup3\n        /* \"#utility.yul\":4492:4507   */\n      swap2\n      pop\n        /* \"#utility.yul\":4525:4530   */\n      dup4\n        /* \"#utility.yul\":4516:4530   */\n      swap1\n      pop\n        /* \"#utility.yul\":4539:5251   */\n    tag_112:\n        /* \"#utility.yul\":4560:4561   */\n      0x01\n        /* \"#utility.yul\":4550:4558   */\n      dup6\n        /* \"#utility.yul\":4547:4562   */\n      gt\n        /* \"#utility.yul\":4539:5251   */\n      iszero\n      tag_114\n      jumpi\n        /* \"#utility.yul\":4655:4659   */\n      dup1\n        /* \"#utility.yul\":4650:4653   */\n      dup7\n        /* \"#utility.yul\":4646:4660   */\n      div\n        /* \"#utility.yul\":4640:4644   */\n      dup2\n        /* \"#utility.yul\":4637:4661   */\n      gt\n        /* \"#utility.yul\":4634:4684   */\n      iszero\n      tag_115\n      jumpi\n        /* \"#utility.yul\":4664:4682   */\n      tag_116\n      tag_51\n      jump\t// in\n    tag_116:\n        /* \"#utility.yul\":4634:4684   */\n    tag_115:\n        /* \"#utility.yul\":4714:4715   */\n      0x01\n        /* \"#utility.yul\":4704:4712   */\n      dup6\n        /* \"#utility.yul\":4700:4716   */\n      and\n        /* \"#utility.yul\":4697:5148   */\n      iszero\n      tag_117\n      jumpi\n        /* \"#utility.yul\":5129:5133   */\n      dup1\n        /* \"#utility.yul\":5122:5127   */\n      dup3\n        /* \"#utility.yul\":5118:5134   */\n      mul\n        /* \"#utility.yul\":5109:5134   */\n      swap2\n      pop\n        /* \"#utility.yul\":4697:5148   */\n    tag_117:\n        /* \"#utility.yul\":5179:5183   */\n      dup1\n        /* \"#utility.yul\":5173:5177   */\n      dup2\n        /* \"#utility.yul\":5169:5184   */\n      mul\n        /* \"#utility.yul\":5161:5184   */\n      swap1\n      pop\n        /* \"#utility.yul\":5209:5241   */\n      tag_118\n        /* \"#utility.yul\":5232:5240   */\n      dup6\n        /* \"#utility.yul\":5209:5241   */\n      tag_52\n      jump\t// in\n    tag_118:\n        /* \"#utility.yul\":5197:5241   */\n      swap5\n      pop\n        /* \"#utility.yul\":4539:5251   */\n      jump(tag_112)\n    tag_114:\n        /* \"#utility.yul\":4409:5257   */\n      swap5\n      pop\n      swap5\n      swap3\n      pop\n      pop\n      pop\n      jump\t// out\n        /* \"#utility.yul\":5263:6336   */\n    tag_54:\n        /* \"#utility.yul\":5317:5322   */\n      0x00\n        /* \"#utility.yul\":5508:5516   */\n      dup3\n        /* \"#utility.yul\":5498:5538   */\n      tag_120\n      jumpi\n        /* \"#utility.yul\":5529:5530   */\n      0x01\n        /* \"#utility.yul\":5520:5530   */\n      swap1\n      pop\n        /* \"#utility.yul\":5531:5536   */\n      jump(tag_119)\n        /* \"#utility.yul\":5498:5538   */\n    tag_120:\n        /* \"#utility.yul\":5557:5561   */\n      dup2\n        /* \"#utility.yul\":5547:5583   */\n      tag_121\n      jumpi\n        /* \"#utility.yul\":5574:5575   */\n      0x00\n        /* \"#utility.yul\":5565:5575   */\n      swap1\n      pop\n        /* \"#utility.yul\":5576:5581   */\n      jump(tag_119)\n        /* \"#utility.yul\":5547:5583   */\n    tag_121:\n        /* \"#utility.yul\":5643:5647   */\n      dup2\n        /* \"#utility.yul\":5691:5692   */\n      0x01\n        /* \"#utility.yul\":5686:5713   */\n      dup2\n      eq\n      tag_123\n      jumpi\n        /* \"#utility.yul\":5727:5728   */\n      0x02\n        /* \"#utility.yul\":5722:5913   */\n      dup2\n      eq\n      tag_124\n      jumpi\n        /* \"#utility.yul\":5636:5913   */\n      jump(tag_122)\n        /* \"#utility.yul\":5686:5713   */\n    tag_123:\n        /* \"#utility.yul\":5704:5705   */\n      0x01\n        /* \"#utility.yul\":5695:5705   */\n      swap2\n      pop\n        /* \"#utility.yul\":5706:5711   */\n      pop\n      jump(tag_119)\n        /* \"#utility.yul\":5722:5913   */\n    tag_124:\n        /* \"#utility.yul\":5767:5770   */\n      0xff\n        /* \"#utility.yul\":5757:5765   */\n      dup5\n        /* \"#utility.yul\":5754:5771   */\n      gt\n        /* \"#utility.yul\":5751:5794   */\n      iszero\n      tag_125\n      jumpi\n        /* \"#utility.yul\":5774:5792   */\n      tag_126\n      tag_51\n      jump\t// in\n    tag_126:\n        /* \"#utility.yul\":5751:5794   */\n    tag_125:\n        /* \"#utility.yul\":5823:5831   */\n      dup4\n        /* \"#utility.yul\":5820:5821   */\n      0x02\n        /* \"#utility.yul\":5816:5832   */\n      exp\n        /* \"#utility.yul\":5807:5832   */\n      swap2\n      pop\n        /* \"#utility.yul\":5858:5861   */\n      dup5\n        /* \"#utility.yul\":5851:5856   */\n      dup3\n        /* \"#utility.yul\":5848:5862   */\n      gt\n        /* \"#utility.yul\":5845:5885   */\n      iszero\n      tag_127\n      jumpi\n        /* \"#utility.yul\":5865:5883   */\n      tag_128\n      tag_51\n      jump\t// in\n    tag_128:\n        /* \"#utility.yul\":5845:5885   */\n    tag_127:\n        /* \"#utility.yul\":5898:5903   */\n      pop\n      jump(tag_119)\n        /* \"#utility.yul\":5636:5913   */\n    tag_122:\n      pop\n        /* \"#utility.yul\":6022:6024   */\n      0x20\n        /* \"#utility.yul\":6012:6020   */\n      dup4\n        /* \"#utility.yul\":6009:6025   */\n      lt\n        /* \"#utility.yul\":6003:6006   */\n      0x0133\n        /* \"#utility.yul\":5997:6001   */\n      dup4\n        /* \"#utility.yul\":5994:6007   */\n      lt\n        /* \"#utility.yul\":5990:6026   */\n      and\n        /* \"#utility.yul\":5972:5974   */\n      0x4e\n        /* \"#utility.yul\":5962:5970   */\n      dup5\n        /* \"#utility.yul\":5959:5975   */\n      lt\n        /* \"#utility.yul\":5954:5956   */\n      0x0b\n        /* \"#utility.yul\":5948:5952   */\n      dup5\n        /* \"#utility.yul\":5945:5957   */\n      lt\n        /* \"#utility.yul\":5941:5976   */\n      and\n        /* \"#utility.yul\":5925:6036   */\n      or\n        /* \"#utility.yul\":5922:6168   */\n      iszero\n      tag_129\n      jumpi\n        /* \"#utility.yul\":6078:6086   */\n      dup3\n        /* \"#utility.yul\":6072:6076   */\n      dup3\n        /* \"#utility.yul\":6068:6087   */\n      exp\n        /* \"#utility.yul\":6059:6087   */\n      swap1\n      pop\n        /* \"#utility.yul\":6113:6116   */\n      dup4\n        /* \"#utility.yul\":6106:6111   */\n      dup2\n        /* \"#utility.yul\":6103:6117   */\n      gt\n        /* \"#utility.yul\":6100:6140   */\n      iszero\n      tag_130\n      jumpi\n        /* \"#utility.yul\":6120:6138   */\n      tag_131\n      tag_51\n      jump\t// in\n    tag_131:\n        /* \"#utility.yul\":6100:6140   */\n    tag_130:\n        /* \"#utility.yul\":6153:6158   */\n      jump(tag_119)\n        /* \"#utility.yul\":5922:6168   */\n    tag_129:\n        /* \"#utility.yul\":6193:6235   */\n      tag_132\n        /* \"#utility.yul\":6231:6234   */\n      dup5\n        /* \"#utility.yul\":6221:6229   */\n      dup5\n        /* \"#utility.yul\":6215:6219   */\n      dup5\n        /* \"#utility.yul\":6212:6213   */\n      0x01\n        /* \"#utility.yul\":6193:6235   */\n      tag_53\n      jump\t// in\n    tag_132:\n        /* \"#utility.yul\":6178:6235   */\n      swap3\n      pop\n      swap1\n      pop\n        /* \"#utility.yul\":6267:6271   */\n      dup2\n        /* \"#utility.yul\":6262:6265   */\n      dup5\n        /* \"#utility.yul\":6258:6272   */\n      div\n        /* \"#utility.yul\":6251:6256   */\n      dup2\n        /* \"#utility.yul\":6248:6273   */\n      gt\n        /* \"#utility.yul\":6245:6296   */\n      iszero\n      tag_133\n      jumpi\n        /* \"#utility.yul\":6276:6294   */\n      tag_134\n      tag_51\n      jump\t// in\n    tag_134:\n        /* \"#utility.yul\":6245:6296   */\n    tag_133:\n        /* \"#utility.yul\":6325:6329   */\n      dup2\n        /* \"#utility.yul\":6318:6323   */\n      dup2\n        /* \"#utility.yul\":6314:6330   */\n      mul\n        /* \"#utility.yul\":6305:6330   */\n      swap1\n      pop\n        /* \"#utility.yul\":5263:6336   */\n    tag_119:\n      swap4\n      swap3\n      pop\n      pop\n      pop\n      jump\t// out\n        /* \"#utility.yul\":6342:6623   */\n    tag_30:\n        /* \"#utility.yul\":6400:6405   */\n      0x00\n        /* \"#utility.yul\":6424:6447   */\n      tag_136\n        /* \"#utility.yul\":6442:6446   */\n      dup3\n        /* \"#utility.yul\":6424:6447   */\n      tag_34\n      jump\t// in\n    tag_136:\n        /* \"#utility.yul\":6416:6447   */\n      swap2\n      pop\n        /* \"#utility.yul\":6468:6493   */\n      tag_137\n        /* \"#utility.yul\":6484:6492   */\n      dup4\n        /* \"#utility.yul\":6468:6493   */\n      tag_36\n      jump\t// in\n    tag_137:\n        /* \"#utility.yul\":6456:6493   */\n      swap3\n      pop\n        /* \"#utility.yul\":6512:6616   */\n      tag_138\n        /* \"#utility.yul\":6549:6615   */\n      0xffffffffffffffffffffffffffffffffffffffffffffffffffffffffffffffff\n        /* \"#utility.yul\":6539:6547   */\n      dup5\n        /* \"#utility.yul\":6533:6537   */\n      dup5\n        /* \"#utility.yul\":6512:6616   */\n      tag_54\n      jump\t// in\n    tag_138:\n        /* \"#utility.yul\":6503:6616   */\n      swap1\n      pop\n        /* \"#utility.yul\":6342:6623   */\n      swap3\n      swap2\n      pop\n      pop\n      jump\t// out\n        /* \"#utility.yul\":6629:6977   */\n    tag_32:\n        /* \"#utility.yul\":6669:6676   */\n      0x00\n        /* \"#utility.yul\":6692:6712   */\n      tag_140\n        /* \"#utility.yul\":6710:6711   */\n      dup3\n        /* \"#utility.yul\":6692:6712   */\n      tag_34\n      jump\t// in\n    tag_140:\n        /* \"#utility.yul\":6687:6712   */\n      swap2\n      pop\n        /* \"#utility.yul\":6726:6746   */\n      tag_141\n        /* \"#utility.yul\":6744:6745   */\n      dup4\n        /* \"#utility.yul\":6726:6746   */\n      tag_34\n      jump\t// in\n    tag_141:\n        /* \"#utility.yul\":6721:6746   */\n      swap3\n      pop\n        /* \"#utility.yul\":6914:6915   */\n      dup2\n        /* \"#utility.yul\":6846:6912   */\n      0xffffffffffffffffffffffffffffffffffffffffffffffffffffffffffffffff\n        /* \"#utility.yul\":6842:6916   */\n      div\n        /* \"#utility.yul\":6839:6840   */\n      dup4\n        /* \"#utility.yul\":6836:6917   */\n      gt\n        /* \"#utility.yul\":6831:6832   */\n      dup3\n        /* \"#utility.yul\":6824:6833   */\n      iszero\n        /* \"#utility.yul\":6817:6834   */\n      iszero\n        /* \"#utility.yul\":6813:6918   */\n      and\n        /* \"#utility.yul\":6810:6941   */\n      iszero\n      tag_142\n      jumpi\n        /* \"#utility.yul\":6921:6939   */\n      tag_143\n      tag_51\n      jump\t// in\n    tag_143:\n        /* \"#utility.yul\":6810:6941   */\n    tag_142:\n        /* \"#utility.yul\":6969:6970   */\n      dup3\n        /* \"#utility.yul\":6966:6967   */\n      dup3\n        /* \"#utility.yul\":6962:6971   */\n      mul\n        /* \"#utility.yul\":6951:6971   */\n      swap1\n      pop\n        /* \"#utility.yul\":6629:6977   */\n      swap3\n      swap2\n      pop\n      pop\n      jump\t// out\n\n    auxdata: 0xa2646970667358221220f2c8f86181a9bd9cc8c5a6bc2d73559355752bc2e8e3f75a7e652739810f8e3564736f6c63430008080033\n}\n",
				"bytecode": {
					"linkReferences": {},
					"object": "608060405234801561001057600080fd5b5061066b806100206000396000f3fe608060405234801561001057600080fd5b50600436106100415760003560e01c806376e5533814610046578063e465b7e614610065578063f36089ec14610083575b600080fd5b61004e61008d565b60405161005c929190610239565b60405180910390f35b61006d6100ac565b60405161007a9190610262565b60405180910390f35b61008b610202565b005b60008060000154908060010160009054906101000a900460ff16905082565b600080738a753747a1fa494ec906ce90e9f37563a8af630e73ffffffffffffffffffffffffffffffffffffffff1663feaf968c6040518163ffffffff1660e01b815260040160a06040518083038186803b15801561010957600080fd5b505afa15801561011d573d6000803e3d6000fd5b505050506040513d601f19601f820116820180604052508101906101419190610326565b505050915050738a753747a1fa494ec906ce90e9f37563a8af630e73ffffffffffffffffffffffffffffffffffffffff1663313ce5676040518163ffffffff1660e01b815260040160206040518083038186803b1580156101a157600080fd5b505afa1580156101b5573d6000803e3d6000fd5b505050506040513d601f19601f820116820180604052508101906101d991906103cd565b60126101e59190610429565b60016101f19190610590565b816101fc91906105db565b91505090565b565b6000819050919050565b61021781610204565b82525050565b600060ff82169050919050565b6102338161021d565b82525050565b600060408201905061024e600083018561020e565b61025b602083018461022a565b9392505050565b6000602082019050610277600083018461020e565b92915050565b600080fd5b600069ffffffffffffffffffff82169050919050565b6102a181610282565b81146102ac57600080fd5b50565b6000815190506102be81610298565b92915050565b6000819050919050565b6102d7816102c4565b81146102e257600080fd5b50565b6000815190506102f4816102ce565b92915050565b61030381610204565b811461030e57600080fd5b50565b600081519050610320816102fa565b92915050565b600080600080600060a086880312156103425761034161027d565b5b6000610350888289016102af565b9550506020610361888289016102e5565b945050604061037288828901610311565b935050606061038388828901610311565b9250506080610394888289016102af565b9150509295509295909350565b6103aa8161021d565b81146103b557600080fd5b50565b6000815190506103c7816103a1565b92915050565b6000602082840312156103e3576103e261027d565b5b60006103f1848285016103b8565b91505092915050565b7f4e487b7100000000000000000000000000000000000000000000000000000000600052601160045260246000fd5b60006104348261021d565b915061043f8361021d565b925082821015610452576104516103fa565b5b828203905092915050565b60008160011c9050919050565b6000808291508390505b60018511156104b4578086048111156104905761048f6103fa565b5b600185161561049f5780820291505b80810290506104ad8561045d565b9450610474565b94509492505050565b6000826104cd5760019050610589565b816104db5760009050610589565b81600181146104f157600281146104fb5761052a565b6001915050610589565b60ff84111561050d5761050c6103fa565b5b8360020a915084821115610524576105236103fa565b5b50610589565b5060208310610133831016604e8410600b841016171561055f5782820a90508381111561055a576105596103fa565b5b610589565b61056c848484600161046a565b92509050818404811115610583576105826103fa565b5b81810290505b9392505050565b600061059b82610204565b91506105a68361021d565b92506105d37fffffffffffffffffffffffffffffffffffffffffffffffffffffffffffffffff84846104bd565b905092915050565b60006105e682610204565b91506105f183610204565b9250817fffffffffffffffffffffffffffffffffffffffffffffffffffffffffffffffff048311821515161561062a576106296103fa565b5b82820290509291505056fea2646970667358221220f2c8f86181a9bd9cc8c5a6bc2d73559355752bc2e8e3f75a7e652739810f8e3564736f6c63430008080033",
					"opcodes": "PUSH1 0x80 PUSH1 0x40 MSTORE CALLVALUE DUP1 ISZERO PUSH2 0x10 JUMPI PUSH1 0x0 DUP1 REVERT JUMPDEST POP PUSH2 0x66B DUP1 PUSH2 0x20 PUSH1 0x0 CODECOPY PUSH1 0x0 RETURN INVALID PUSH1 0x80 PUSH1 0x40 MSTORE CALLVALUE DUP1 ISZERO PUSH2 0x10 JUMPI PUSH1 0x0 DUP1 REVERT JUMPDEST POP PUSH1 0x4 CALLDATASIZE LT PUSH2 0x41 JUMPI PUSH1 0x0 CALLDATALOAD PUSH1 0xE0 SHR DUP1 PUSH4 0x76E55338 EQ PUSH2 0x46 JUMPI DUP1 PUSH4 0xE465B7E6 EQ PUSH2 0x65 JUMPI DUP1 PUSH4 0xF36089EC EQ PUSH2 0x83 JUMPI JUMPDEST PUSH1 0x0 DUP1 REVERT JUMPDEST PUSH2 0x4E PUSH2 0x8D JUMP JUMPDEST PUSH1 0x40 MLOAD PUSH2 0x5C SWAP3 SWAP2 SWAP1 PUSH2 0x239 JUMP JUMPDEST PUSH1 0x40 MLOAD DUP1 SWAP2 SUB SWAP1 RETURN JUMPDEST PUSH2 0x6D PUSH2 0xAC JUMP JUMPDEST PUSH1 0x40 MLOAD PUSH2 0x7A SWAP2 SWAP1 PUSH2 0x262 JUMP JUMPDEST PUSH1 0x40 MLOAD DUP1 SWAP2 SUB SWAP1 RETURN JUMPDEST PUSH2 0x8B PUSH2 0x202 JUMP JUMPDEST STOP JUMPDEST PUSH1 0x0 DUP1 PUSH1 0x0 ADD SLOAD SWAP1 DUP1 PUSH1 0x1 ADD PUSH1 0x0 SWAP1 SLOAD SWAP1 PUSH2 0x100 EXP SWAP1 DIV PUSH1 0xFF AND SWAP1 POP DUP3 JUMP JUMPDEST PUSH1 0x0 DUP1 PUSH20 0x8A753747A1FA494EC906CE90E9F37563A8AF630E PUSH20 0xFFFFFFFFFFFFFFFFFFFFFFFFFFFFFFFFFFFFFFFF AND PUSH4 0xFEAF968C PUSH1 0x40 MLOAD DUP2 PUSH4 0xFFFFFFFF AND PUSH1 0xE0 SHL DUP2 MSTORE PUSH1 0x4 ADD PUSH1 0xA0 PUSH1 0x40 MLOAD DUP1 DUP4 SUB DUP2 DUP7 DUP1 EXTCODESIZE ISZERO DUP1 ISZERO PUSH2 0x109 JUMPI PUSH1 0x0 DUP1 REVERT JUMPDEST POP GAS STATICCALL ISZERO DUP1 ISZERO PUSH2 0x11D JUMPI RETURNDATASIZE PUSH1 0x0 DUP1 RETURNDATACOPY RETURNDATASIZE PUSH1 0x0 REVERT JUMPDEST POP POP POP POP PUSH1 0x40 MLOAD RETURNDATASIZE PUSH1 0x1F NOT PUSH1 0x1F DUP3 ADD AND DUP3 ADD DUP1 PUSH1 0x40 MSTORE POP DUP2 ADD SWAP1 PUSH2 0x141 SWAP2 SWAP1 PUSH2 0x326 JUMP JUMPDEST POP POP POP SWAP2 POP POP PUSH20 0x8A753747A1FA494EC906CE90E9F37563A8AF630E PUSH20 0xFFFFFFFFFFFFFFFFFFFFFFFFFFFFFFFFFFFFFFFF AND PUSH4 0x313CE567 PUSH1 0x40 MLOAD DUP2 PUSH4 0xFFFFFFFF AND PUSH1 0xE0 SHL DUP2 MSTORE PUSH1 0x4 ADD PUSH1 0x20 PUSH1 0x40 MLOAD DUP1 DUP4 SUB DUP2 DUP7 DUP1 EXTCODESIZE ISZERO DUP1 ISZERO PUSH2 0x1A1 JUMPI PUSH1 0x0 DUP1 REVERT JUMPDEST POP GAS STATICCALL ISZERO DUP1 ISZERO PUSH2 0x1B5 JUMPI RETURNDATASIZE PUSH1 0x0 DUP1 RETURNDATACOPY RETURNDATASIZE PUSH1 0x0 REVERT JUMPDEST POP POP POP POP PUSH1 0x40 MLOAD RETURNDATASIZE PUSH1 0x1F NOT PUSH1 0x1F DUP3 ADD AND DUP3 ADD DUP1 PUSH1 0x40 MSTORE POP DUP2 ADD SWAP1 PUSH2 0x1D9 SWAP2 SWAP1 PUSH2 0x3CD JUMP JUMPDEST PUSH1 0x12 PUSH2 0x1E5 SWAP2 SWAP1 PUSH2 0x429 JUMP JUMPDEST PUSH1 0x1 PUSH2 0x1F1 SWAP2 SWAP1 PUSH2 0x590 JUMP JUMPDEST DUP2 PUSH2 0x1FC SWAP2 SWAP1 PUSH2 0x5DB JUMP JUMPDEST SWAP2 POP POP SWAP1 JUMP JUMPDEST JUMP JUMPDEST PUSH1 0x0 DUP2 SWAP1 POP SWAP2 SWAP1 POP JUMP JUMPDEST PUSH2 0x217 DUP2 PUSH2 0x204 JUMP JUMPDEST DUP3 MSTORE POP POP JUMP JUMPDEST PUSH1 0x0 PUSH1 0xFF DUP3 AND SWAP1 POP SWAP2 SWAP1 POP JUMP JUMPDEST PUSH2 0x233 DUP2 PUSH2 0x21D JUMP JUMPDEST DUP3 MSTORE POP POP JUMP JUMPDEST PUSH1 0x0 PUSH1 0x40 DUP3 ADD SWAP1 POP PUSH2 0x24E PUSH1 0x0 DUP4 ADD DUP6 PUSH2 0x20E JUMP JUMPDEST PUSH2 0x25B PUSH1 0x20 DUP4 ADD DUP5 PUSH2 0x22A JUMP JUMPDEST SWAP4 SWAP3 POP POP POP JUMP JUMPDEST PUSH1 0x0 PUSH1 0x20 DUP3 ADD SWAP1 POP PUSH2 0x277 PUSH1 0x0 DUP4 ADD DUP5 PUSH2 0x20E JUMP JUMPDEST SWAP3 SWAP2 POP POP JUMP JUMPDEST PUSH1 0x0 DUP1 REVERT JUMPDEST PUSH1 0x0 PUSH10 0xFFFFFFFFFFFFFFFFFFFF DUP3 AND SWAP1 POP SWAP2 SWAP1 POP JUMP JUMPDEST PUSH2 0x2A1 DUP2 PUSH2 0x282 JUMP JUMPDEST DUP2 EQ PUSH2 0x2AC JUMPI PUSH1 0x0 DUP1 REVERT JUMPDEST POP JUMP JUMPDEST PUSH1 0x0 DUP2 MLOAD SWAP1 POP PUSH2 0x2BE DUP2 PUSH2 0x298 JUMP JUMPDEST SWAP3 SWAP2 POP POP JUMP JUMPDEST PUSH1 0x0 DUP2 SWAP1 POP SWAP2 SWAP1 POP JUMP JUMPDEST PUSH2 0x2D7 DUP2 PUSH2 0x2C4 JUMP JUMPDEST DUP2 EQ PUSH2 0x2E2 JUMPI PUSH1 0x0 DUP1 REVERT JUMPDEST POP JUMP JUMPDEST PUSH1 0x0 DUP2 MLOAD SWAP1 POP PUSH2 0x2F4 DUP2 PUSH2 0x2CE JUMP JUMPDEST SWAP3 SWAP2 POP POP JUMP JUMPDEST PUSH2 0x303 DUP2 PUSH2 0x204 JUMP JUMPDEST DUP2 EQ PUSH2 0x30E JUMPI PUSH1 0x0 DUP1 REVERT JUMPDEST POP JUMP JUMPDEST PUSH1 0x0 DUP2 MLOAD SWAP1 POP PUSH2 0x320 DUP2 PUSH2 0x2FA JUMP JUMPDEST SWAP3 SWAP2 POP POP JUMP JUMPDEST PUSH1 0x0 DUP1 PUSH1 0x0 DUP1 PUSH1 0x0 PUSH1 0xA0 DUP7 DUP9 SUB SLT ISZERO PUSH2 0x342 JUMPI PUSH2 0x341 PUSH2 0x27D JUMP JUMPDEST JUMPDEST PUSH1 0x0 PUSH2 0x350 DUP9 DUP3 DUP10 ADD PUSH2 0x2AF JUMP JUMPDEST SWAP6 POP POP PUSH1 0x20 PUSH2 0x361 DUP9 DUP3 DUP10 ADD PUSH2 0x2E5 JUMP JUMPDEST SWAP5 POP POP PUSH1 0x40 PUSH2 0x372 DUP9 DUP3 DUP10 ADD PUSH2 0x311 JUMP JUMPDEST SWAP4 POP POP PUSH1 0x60 PUSH2 0x383 DUP9 DUP3 DUP10 ADD PUSH2 0x311 JUMP JUMPDEST SWAP3 POP POP PUSH1 0x80 PUSH2 0x394 DUP9 DUP3 DUP10 ADD PUSH2 0x2AF JUMP JUMPDEST SWAP2 POP POP SWAP3 SWAP6 POP SWAP3 SWAP6 SWAP1 SWAP4 POP JUMP JUMPDEST PUSH2 0x3AA DUP2 PUSH2 0x21D JUMP JUMPDEST DUP2 EQ PUSH2 0x3B5 JUMPI PUSH1 0x0 DUP1 REVERT JUMPDEST POP JUMP JUMPDEST PUSH1 0x0 DUP2 MLOAD SWAP1 POP PUSH2 0x3C7 DUP2 PUSH2 0x3A1 JUMP JUMPDEST SWAP3 SWAP2 POP POP JUMP JUMPDEST PUSH1 0x0 PUSH1 0x20 DUP3 DUP5 SUB SLT ISZERO PUSH2 0x3E3 JUMPI PUSH2 0x3E2 PUSH2 0x27D JUMP JUMPDEST JUMPDEST PUSH1 0x0 PUSH2 0x3F1 DUP5 DUP3 DUP6 ADD PUSH2 0x3B8 JUMP JUMPDEST SWAP2 POP POP SWAP3 SWAP2 POP POP JUMP JUMPDEST PUSH32 0x4E487B7100000000000000000000000000000000000000000000000000000000 PUSH1 0x0 MSTORE PUSH1 0x11 PUSH1 0x4 MSTORE PUSH1 0x24 PUSH1 0x0 REVERT JUMPDEST PUSH1 0x0 PUSH2 0x434 DUP3 PUSH2 0x21D JUMP JUMPDEST SWAP2 POP PUSH2 0x43F DUP4 PUSH2 0x21D JUMP JUMPDEST SWAP3 POP DUP3 DUP3 LT ISZERO PUSH2 0x452 JUMPI PUSH2 0x451 PUSH2 0x3FA JUMP JUMPDEST JUMPDEST DUP3 DUP3 SUB SWAP1 POP SWAP3 SWAP2 POP POP JUMP JUMPDEST PUSH1 0x0 DUP2 PUSH1 0x1 SHR SWAP1 POP SWAP2 SWAP1 POP JUMP JUMPDEST PUSH1 0x0 DUP1 DUP3 SWAP2 POP DUP4 SWAP1 POP JUMPDEST PUSH1 0x1 DUP6 GT ISZERO PUSH2 0x4B4 JUMPI DUP1 DUP7 DIV DUP2 GT ISZERO PUSH2 0x490 JUMPI PUSH2 0x48F PUSH2 0x3FA JUMP JUMPDEST JUMPDEST PUSH1 0x1 DUP6 AND ISZERO PUSH2 0x49F JUMPI DUP1 DUP3 MUL SWAP2 POP JUMPDEST DUP1 DUP2 MUL SWAP1 POP PUSH2 0x4AD DUP6 PUSH2 0x45D JUMP JUMPDEST SWAP5 POP PUSH2 0x474 JUMP JUMPDEST SWAP5 POP SWAP5 SWAP3 POP POP POP JUMP JUMPDEST PUSH1 0x0 DUP3 PUSH2 0x4CD JUMPI PUSH1 0x1 SWAP1 POP PUSH2 0x589 JUMP JUMPDEST DUP2 PUSH2 0x4DB JUMPI PUSH1 0x0 SWAP1 POP PUSH2 0x589 JUMP JUMPDEST DUP2 PUSH1 0x1 DUP2 EQ PUSH2 0x4F1 JUMPI PUSH1 0x2 DUP2 EQ PUSH2 0x4FB JUMPI PUSH2 0x52A JUMP JUMPDEST PUSH1 0x1 SWAP2 POP POP PUSH2 0x589 JUMP JUMPDEST PUSH1 0xFF DUP5 GT ISZERO PUSH2 0x50D JUMPI PUSH2 0x50C PUSH2 0x3FA JUMP JUMPDEST JUMPDEST DUP4 PUSH1 0x2 EXP SWAP2 POP DUP5 DUP3 GT ISZERO PUSH2 0x524 JUMPI PUSH2 0x523 PUSH2 0x3FA JUMP JUMPDEST JUMPDEST POP PUSH2 0x589 JUMP JUMPDEST POP PUSH1 0x20 DUP4 LT PUSH2 0x133 DUP4 LT AND PUSH1 0x4E DUP5 LT PUSH1 0xB DUP5 LT AND OR ISZERO PUSH2 0x55F JUMPI DUP3 DUP3 EXP SWAP1 POP DUP4 DUP2 GT ISZERO PUSH2 0x55A JUMPI PUSH2 0x559 PUSH2 0x3FA JUMP JUMPDEST JUMPDEST PUSH2 0x589 JUMP JUMPDEST PUSH2 0x56C DUP5 DUP5 DUP5 PUSH1 0x1 PUSH2 0x46A JUMP JUMPDEST SWAP3 POP SWAP1 POP DUP2 DUP5 DIV DUP2 GT ISZERO PUSH2 0x583 JUMPI PUSH2 0x582 PUSH2 0x3FA JUMP JUMPDEST JUMPDEST DUP2 DUP2 MUL SWAP1 POP JUMPDEST SWAP4 SWAP3 POP POP POP JUMP JUMPDEST PUSH1 0x0 PUSH2 0x59B DUP3 PUSH2 0x204 JUMP JUMPDEST SWAP2 POP PUSH2 0x5A6 DUP4 PUSH2 0x21D JUMP JUMPDEST SWAP3 POP PUSH2 0x5D3 PUSH32 0xFFFFFFFFFFFFFFFFFFFFFFFFFFFFFFFFFFFFFFFFFFFFFFFFFFFFFFFFFFFFFFFF DUP5 DUP5 PUSH2 0x4BD JUMP JUMPDEST SWAP1 POP SWAP3 SWAP2 POP POP JUMP JUMPDEST PUSH1 0x0 PUSH2 0x5E6 DUP3 PUSH2 0x204 JUMP JUMPDEST SWAP2 POP PUSH2 0x5F1 DUP4 PUSH2 0x204 JUMP JUMPDEST SWAP3 POP DUP2 PUSH32 0xFFFFFFFFFFFFFFFFFFFFFFFFFFFFFFFFFFFFFFFFFFFFFFFFFFFFFFFFFFFFFFFF DIV DUP4 GT DUP3 ISZERO ISZERO AND ISZERO PUSH2 0x62A JUMPI PUSH2 0x629 PUSH2 0x3FA JUMP JUMPDEST JUMPDEST DUP3 DUP3 MUL SWAP1 POP SWAP3 SWAP2 POP POP JUMP INVALID LOG2 PUSH5 0x6970667358 0x22 SLT KECCAK256 CALLCODE 0xC8 0xF8 PUSH2 0x81A9 0xBD SWAP13 0xC8 0xC5 0xA6 0xBC 0x2D PUSH20 0x559355752BC2E8E3F75A7E652739810F8E356473 PUSH16 0x6C634300080800330000000000000000 "
				},
				"gasEstimates": {
					"creation": {
						"codeDepositCost": "328600",
						"executionCost": "368",
						"totalCost": "328968"
					},
					"external": {
						"getConversionRate()": "166",
						"mytest()": "4675",
						"setMytest()": "infinite"
					}
				},
				"methodIdentifiers": {
					"getConversionRate()": "f36089ec",
					"mytest()": "76e55338",
					"setMytest()": "e465b7e6"
				}
			},
			"storageLayout": {
				"storage": [
					{
						"astId": 56,
						"contract": "Contract  ^0.8.8/TestContract.sol:Test",
						"label": "mytest",
						"offset": 0,
						"slot": "0",
						"type": "t_struct(Price)53_storage"
					}
				],
				"types": {
					"t_struct(Price)53_storage": {
						"encoding": "inplace",
						"label": "struct Test.Price",
						"members": [
							{
								"astId": 50,
								"contract": "Contract  ^0.8.8/TestContract.sol:Test",
								"label": "hello",
								"offset": 0,
								"slot": "0",
								"type": "t_uint256"
							},
							{
								"astId": 52,
								"contract": "Contract  ^0.8.8/TestContract.sol:Test",
								"label": "decimalNum",
								"offset": 0,
								"slot": "1",
								"type": "t_uint8"
							}
						],
						"numberOfBytes": "64"
					},
					"t_uint256": {
						"encoding": "inplace",
						"label": "uint256",
						"numberOfBytes": "32"
					},
					"t_uint8": {
						"encoding": "inplace",
						"label": "uint8",
						"numberOfBytes": "1"
					}
				}
			},
			"userdoc": {
				"kind": "user",
				"methods": {},
				"version": 1
			}
		}
	}
}