{
	"Contract  ^0.8.8/TestContract.sol": {
		"Test": {
			"abi": [
				{
					"inputs": [],
					"name": "mytest",
					"outputs": [
						{
							"internalType": "int256",
							"name": "hello",
							"type": "int256"
						}
					],
					"stateMutability": "view",
					"type": "function"
				},
				{
					"inputs": [
						{
							"internalType": "uint256",
							"name": "_val",
							"type": "uint256"
						}
					],
					"name": "setMytest",
					"outputs": [],
					"stateMutability": "nonpayable",
					"type": "function"
				}
			],
			"devdoc": {
				"kind": "dev",
				"methods": {},
				"version": 1
			},
			"evm": {
				"assembly": "    /* \"Contract  ^0.8.8/TestContract.sol\":133:387  contract Test{... */\n  mstore(0x40, 0x80)\n  callvalue\n  dup1\n  iszero\n  tag_1\n  jumpi\n  0x00\n  dup1\n  revert\ntag_1:\n  pop\n  dataSize(sub_0)\n  dup1\n  dataOffset(sub_0)\n  0x00\n  codecopy\n  0x00\n  return\nstop\n\nsub_0: assembly {\n        /* \"Contract  ^0.8.8/TestContract.sol\":133:387  contract Test{... */\n      mstore(0x40, 0x80)\n      callvalue\n      dup1\n      iszero\n      tag_1\n      jumpi\n      0x00\n      dup1\n      revert\n    tag_1:\n      pop\n      jumpi(tag_2, lt(calldatasize, 0x04))\n      shr(0xe0, calldataload(0x00))\n      dup1\n      0x76e55338\n      eq\n      tag_3\n      jumpi\n      dup1\n      0xb800f756\n      eq\n      tag_4\n      jumpi\n    tag_2:\n      0x00\n      dup1\n      revert\n        /* \"Contract  ^0.8.8/TestContract.sol\":200:220  Person public mytest */\n    tag_3:\n      tag_5\n      tag_6\n      jump\t// in\n    tag_5:\n      mload(0x40)\n      tag_7\n      swap2\n      swap1\n      tag_8\n      jump\t// in\n    tag_7:\n      mload(0x40)\n      dup1\n      swap2\n      sub\n      swap1\n      return\n        /* \"Contract  ^0.8.8/TestContract.sol\":226:385  function setMytest(uint256 _val) public{... */\n    tag_4:\n      tag_9\n      0x04\n      dup1\n      calldatasize\n      sub\n      dup2\n      add\n      swap1\n      tag_10\n      swap2\n      swap1\n      tag_11\n      jump\t// in\n    tag_10:\n      tag_12\n      jump\t// in\n    tag_9:\n      stop\n        /* \"Contract  ^0.8.8/TestContract.sol\":200:220  Person public mytest */\n    tag_6:\n      0x00\n      dup1\n      0x00\n      add\n      sload\n      swap1\n      pop\n      dup2\n      jump\t// out\n        /* \"Contract  ^0.8.8/TestContract.sol\":226:385  function setMytest(uint256 _val) public{... */\n    tag_12:\n        /* \"Contract  ^0.8.8/TestContract.sol\":317:359  0x8A753747A1Fa494EC906cE90E9f37563A8AF630e */\n      0x8a753747a1fa494ec906ce90e9f37563a8af630e\n        /* \"Contract  ^0.8.8/TestContract.sol\":295:376  AggregatorV3Interface(0x8A753747A1Fa494EC906cE90E9f37563A8AF630e).latestRoundData */\n      0xffffffffffffffffffffffffffffffffffffffff\n      and\n      0xfeaf968c\n        /* \"Contract  ^0.8.8/TestContract.sol\":295:378  AggregatorV3Interface(0x8A753747A1Fa494EC906cE90E9f37563A8AF630e).latestRoundData() */\n      mload(0x40)\n      dup2\n      0xffffffff\n      and\n      0xe0\n      shl\n      dup2\n      mstore\n      0x04\n      add\n      0xa0\n      mload(0x40)\n      dup1\n      dup4\n      sub\n      dup2\n      dup7\n      dup1\n      extcodesize\n      iszero\n      dup1\n      iszero\n      tag_14\n      jumpi\n      0x00\n      dup1\n      revert\n    tag_14:\n      pop\n      gas\n      staticcall\n      iszero\n      dup1\n      iszero\n      tag_16\n      jumpi\n      returndatasize\n      0x00\n      dup1\n      returndatacopy\n      revert(0x00, returndatasize)\n    tag_16:\n      pop\n      pop\n      pop\n      pop\n      mload(0x40)\n      returndatasize\n      not(0x1f)\n      0x1f\n      dup3\n      add\n      and\n      dup3\n      add\n      dup1\n      0x40\n      mstore\n      pop\n      dup2\n      add\n      swap1\n      tag_17\n      swap2\n      swap1\n      tag_18\n      jump\t// in\n    tag_17:\n        /* \"Contract  ^0.8.8/TestContract.sol\":275:378  (,mytest.hello,,,) =AggregatorV3Interface(0x8A753747A1Fa494EC906cE90E9f37563A8AF630e).latestRoundData() */\n      swap1\n      swap2\n      swap3\n      swap4\n      pop\n      swap1\n      swap2\n      pop\n      swap1\n      pop\n      pop\n        /* \"Contract  ^0.8.8/TestContract.sol\":277:283  mytest */\n      0x00\n        /* \"Contract  ^0.8.8/TestContract.sol\":277:289  mytest.hello */\n      dup1\n      add\n      0x00\n        /* \"Contract  ^0.8.8/TestContract.sol\":275:378  (,mytest.hello,,,) =AggregatorV3Interface(0x8A753747A1Fa494EC906cE90E9f37563A8AF630e).latestRoundData() */\n      dup3\n      swap2\n      swap1\n      pop\n      sstore\n      pop\n        /* \"Contract  ^0.8.8/TestContract.sol\":226:385  function setMytest(uint256 _val) public{... */\n      pop\n      jump\t// out\n        /* \"#utility.yul\":7:83   */\n    tag_19:\n        /* \"#utility.yul\":43:50   */\n      0x00\n        /* \"#utility.yul\":72:77   */\n      dup2\n        /* \"#utility.yul\":61:77   */\n      swap1\n      pop\n        /* \"#utility.yul\":7:83   */\n      swap2\n      swap1\n      pop\n      jump\t// out\n        /* \"#utility.yul\":89:204   */\n    tag_20:\n        /* \"#utility.yul\":174:197   */\n      tag_36\n        /* \"#utility.yul\":191:196   */\n      dup2\n        /* \"#utility.yul\":174:197   */\n      tag_19\n      jump\t// in\n    tag_36:\n        /* \"#utility.yul\":169:172   */\n      dup3\n        /* \"#utility.yul\":162:198   */\n      mstore\n        /* \"#utility.yul\":89:204   */\n      pop\n      pop\n      jump\t// out\n        /* \"#utility.yul\":210:428   */\n    tag_8:\n        /* \"#utility.yul\":301:305   */\n      0x00\n        /* \"#utility.yul\":339:341   */\n      0x20\n        /* \"#utility.yul\":328:337   */\n      dup3\n        /* \"#utility.yul\":324:342   */\n      add\n        /* \"#utility.yul\":316:342   */\n      swap1\n      pop\n        /* \"#utility.yul\":352:421   */\n      tag_38\n        /* \"#utility.yul\":418:419   */\n      0x00\n        /* \"#utility.yul\":407:416   */\n      dup4\n        /* \"#utility.yul\":403:420   */\n      add\n        /* \"#utility.yul\":394:400   */\n      dup5\n        /* \"#utility.yul\":352:421   */\n      tag_20\n      jump\t// in\n    tag_38:\n        /* \"#utility.yul\":210:428   */\n      swap3\n      swap2\n      pop\n      pop\n      jump\t// out\n        /* \"#utility.yul\":515:632   */\n    tag_22:\n        /* \"#utility.yul\":624:625   */\n      0x00\n        /* \"#utility.yul\":621:622   */\n      dup1\n        /* \"#utility.yul\":614:626   */\n      revert\n        /* \"#utility.yul\":761:838   */\n    tag_24:\n        /* \"#utility.yul\":798:805   */\n      0x00\n        /* \"#utility.yul\":827:832   */\n      dup2\n        /* \"#utility.yul\":816:832   */\n      swap1\n      pop\n        /* \"#utility.yul\":761:838   */\n      swap2\n      swap1\n      pop\n      jump\t// out\n        /* \"#utility.yul\":844:966   */\n    tag_25:\n        /* \"#utility.yul\":917:941   */\n      tag_44\n        /* \"#utility.yul\":935:940   */\n      dup2\n        /* \"#utility.yul\":917:941   */\n      tag_24\n      jump\t// in\n    tag_44:\n        /* \"#utility.yul\":910:915   */\n      dup2\n        /* \"#utility.yul\":907:942   */\n      eq\n        /* \"#utility.yul\":897:960   */\n      tag_45\n      jumpi\n        /* \"#utility.yul\":956:957   */\n      0x00\n        /* \"#utility.yul\":953:954   */\n      dup1\n        /* \"#utility.yul\":946:958   */\n      revert\n        /* \"#utility.yul\":897:960   */\n    tag_45:\n        /* \"#utility.yul\":844:966   */\n      pop\n      jump\t// out\n        /* \"#utility.yul\":972:1111   */\n    tag_26:\n        /* \"#utility.yul\":1018:1023   */\n      0x00\n        /* \"#utility.yul\":1056:1062   */\n      dup2\n        /* \"#utility.yul\":1043:1063   */\n      calldataload\n        /* \"#utility.yul\":1034:1063   */\n      swap1\n      pop\n        /* \"#utility.yul\":1072:1105   */\n      tag_47\n        /* \"#utility.yul\":1099:1104   */\n      dup2\n        /* \"#utility.yul\":1072:1105   */\n      tag_25\n      jump\t// in\n    tag_47:\n        /* \"#utility.yul\":972:1111   */\n      swap3\n      swap2\n      pop\n      pop\n      jump\t// out\n        /* \"#utility.yul\":1117:1446   */\n    tag_11:\n        /* \"#utility.yul\":1176:1182   */\n      0x00\n        /* \"#utility.yul\":1225:1227   */\n      0x20\n        /* \"#utility.yul\":1213:1222   */\n      dup3\n        /* \"#utility.yul\":1204:1211   */\n      dup5\n        /* \"#utility.yul\":1200:1223   */\n      sub\n        /* \"#utility.yul\":1196:1228   */\n      slt\n        /* \"#utility.yul\":1193:1312   */\n      iszero\n      tag_49\n      jumpi\n        /* \"#utility.yul\":1231:1310   */\n      tag_50\n      tag_22\n      jump\t// in\n    tag_50:\n        /* \"#utility.yul\":1193:1312   */\n    tag_49:\n        /* \"#utility.yul\":1351:1352   */\n      0x00\n        /* \"#utility.yul\":1376:1429   */\n      tag_51\n        /* \"#utility.yul\":1421:1428   */\n      dup5\n        /* \"#utility.yul\":1412:1418   */\n      dup3\n        /* \"#utility.yul\":1401:1410   */\n      dup6\n        /* \"#utility.yul\":1397:1419   */\n      add\n        /* \"#utility.yul\":1376:1429   */\n      tag_26\n      jump\t// in\n    tag_51:\n        /* \"#utility.yul\":1366:1429   */\n      swap2\n      pop\n        /* \"#utility.yul\":1322:1439   */\n      pop\n        /* \"#utility.yul\":1117:1446   */\n      swap3\n      swap2\n      pop\n      pop\n      jump\t// out\n        /* \"#utility.yul\":1452:1557   */\n    tag_27:\n        /* \"#utility.yul\":1488:1495   */\n      0x00\n        /* \"#utility.yul\":1528:1550   */\n      0xffffffffffffffffffff\n        /* \"#utility.yul\":1521:1526   */\n      dup3\n        /* \"#utility.yul\":1517:1551   */\n      and\n        /* \"#utility.yul\":1506:1551   */\n      swap1\n      pop\n        /* \"#utility.yul\":1452:1557   */\n      swap2\n      swap1\n      pop\n      jump\t// out\n        /* \"#utility.yul\":1563:1683   */\n    tag_28:\n        /* \"#utility.yul\":1635:1658   */\n      tag_54\n        /* \"#utility.yul\":1652:1657   */\n      dup2\n        /* \"#utility.yul\":1635:1658   */\n      tag_27\n      jump\t// in\n    tag_54:\n        /* \"#utility.yul\":1628:1633   */\n      dup2\n        /* \"#utility.yul\":1625:1659   */\n      eq\n        /* \"#utility.yul\":1615:1677   */\n      tag_55\n      jumpi\n        /* \"#utility.yul\":1673:1674   */\n      0x00\n        /* \"#utility.yul\":1670:1671   */\n      dup1\n        /* \"#utility.yul\":1663:1675   */\n      revert\n        /* \"#utility.yul\":1615:1677   */\n    tag_55:\n        /* \"#utility.yul\":1563:1683   */\n      pop\n      jump\t// out\n        /* \"#utility.yul\":1689:1830   */\n    tag_29:\n        /* \"#utility.yul\":1745:1750   */\n      0x00\n        /* \"#utility.yul\":1776:1782   */\n      dup2\n        /* \"#utility.yul\":1770:1783   */\n      mload\n        /* \"#utility.yul\":1761:1783   */\n      swap1\n      pop\n        /* \"#utility.yul\":1792:1824   */\n      tag_57\n        /* \"#utility.yul\":1818:1823   */\n      dup2\n        /* \"#utility.yul\":1792:1824   */\n      tag_28\n      jump\t// in\n    tag_57:\n        /* \"#utility.yul\":1689:1830   */\n      swap3\n      swap2\n      pop\n      pop\n      jump\t// out\n        /* \"#utility.yul\":1836:1956   */\n    tag_30:\n        /* \"#utility.yul\":1908:1931   */\n      tag_59\n        /* \"#utility.yul\":1925:1930   */\n      dup2\n        /* \"#utility.yul\":1908:1931   */\n      tag_19\n      jump\t// in\n    tag_59:\n        /* \"#utility.yul\":1901:1906   */\n      dup2\n        /* \"#utility.yul\":1898:1932   */\n      eq\n        /* \"#utility.yul\":1888:1950   */\n      tag_60\n      jumpi\n        /* \"#utility.yul\":1946:1947   */\n      0x00\n        /* \"#utility.yul\":1943:1944   */\n      dup1\n        /* \"#utility.yul\":1936:1948   */\n      revert\n        /* \"#utility.yul\":1888:1950   */\n    tag_60:\n        /* \"#utility.yul\":1836:1956   */\n      pop\n      jump\t// out\n        /* \"#utility.yul\":1962:2103   */\n    tag_31:\n        /* \"#utility.yul\":2018:2023   */\n      0x00\n        /* \"#utility.yul\":2049:2055   */\n      dup2\n        /* \"#utility.yul\":2043:2056   */\n      mload\n        /* \"#utility.yul\":2034:2056   */\n      swap1\n      pop\n        /* \"#utility.yul\":2065:2097   */\n      tag_62\n        /* \"#utility.yul\":2091:2096   */\n      dup2\n        /* \"#utility.yul\":2065:2097   */\n      tag_30\n      jump\t// in\n    tag_62:\n        /* \"#utility.yul\":1962:2103   */\n      swap3\n      swap2\n      pop\n      pop\n      jump\t// out\n        /* \"#utility.yul\":2109:2252   */\n    tag_32:\n        /* \"#utility.yul\":2166:2171   */\n      0x00\n        /* \"#utility.yul\":2197:2203   */\n      dup2\n        /* \"#utility.yul\":2191:2204   */\n      mload\n        /* \"#utility.yul\":2182:2204   */\n      swap1\n      pop\n        /* \"#utility.yul\":2213:2246   */\n      tag_64\n        /* \"#utility.yul\":2240:2245   */\n      dup2\n        /* \"#utility.yul\":2213:2246   */\n      tag_25\n      jump\t// in\n    tag_64:\n        /* \"#utility.yul\":2109:2252   */\n      swap3\n      swap2\n      pop\n      pop\n      jump\t// out\n        /* \"#utility.yul\":2258:3229   */\n    tag_18:\n        /* \"#utility.yul\":2361:2367   */\n      0x00\n        /* \"#utility.yul\":2369:2375   */\n      dup1\n        /* \"#utility.yul\":2377:2383   */\n      0x00\n        /* \"#utility.yul\":2385:2391   */\n      dup1\n        /* \"#utility.yul\":2393:2399   */\n      0x00\n        /* \"#utility.yul\":2442:2445   */\n      0xa0\n        /* \"#utility.yul\":2430:2439   */\n      dup7\n        /* \"#utility.yul\":2421:2428   */\n      dup9\n        /* \"#utility.yul\":2417:2440   */\n      sub\n        /* \"#utility.yul\":2413:2446   */\n      slt\n        /* \"#utility.yul\":2410:2530   */\n      iszero\n      tag_66\n      jumpi\n        /* \"#utility.yul\":2449:2528   */\n      tag_67\n      tag_22\n      jump\t// in\n    tag_67:\n        /* \"#utility.yul\":2410:2530   */\n    tag_66:\n        /* \"#utility.yul\":2569:2570   */\n      0x00\n        /* \"#utility.yul\":2594:2657   */\n      tag_68\n        /* \"#utility.yul\":2649:2656   */\n      dup9\n        /* \"#utility.yul\":2640:2646   */\n      dup3\n        /* \"#utility.yul\":2629:2638   */\n      dup10\n        /* \"#utility.yul\":2625:2647   */\n      add\n        /* \"#utility.yul\":2594:2657   */\n      tag_29\n      jump\t// in\n    tag_68:\n        /* \"#utility.yul\":2584:2657   */\n      swap6\n      pop\n        /* \"#utility.yul\":2540:2667   */\n      pop\n        /* \"#utility.yul\":2706:2708   */\n      0x20\n        /* \"#utility.yul\":2732:2795   */\n      tag_69\n        /* \"#utility.yul\":2787:2794   */\n      dup9\n        /* \"#utility.yul\":2778:2784   */\n      dup3\n        /* \"#utility.yul\":2767:2776   */\n      dup10\n        /* \"#utility.yul\":2763:2785   */\n      add\n        /* \"#utility.yul\":2732:2795   */\n      tag_31\n      jump\t// in\n    tag_69:\n        /* \"#utility.yul\":2722:2795   */\n      swap5\n      pop\n        /* \"#utility.yul\":2677:2805   */\n      pop\n        /* \"#utility.yul\":2844:2846   */\n      0x40\n        /* \"#utility.yul\":2870:2934   */\n      tag_70\n        /* \"#utility.yul\":2926:2933   */\n      dup9\n        /* \"#utility.yul\":2917:2923   */\n      dup3\n        /* \"#utility.yul\":2906:2915   */\n      dup10\n        /* \"#utility.yul\":2902:2924   */\n      add\n        /* \"#utility.yul\":2870:2934   */\n      tag_32\n      jump\t// in\n    tag_70:\n        /* \"#utility.yul\":2860:2934   */\n      swap4\n      pop\n        /* \"#utility.yul\":2815:2944   */\n      pop\n        /* \"#utility.yul\":2983:2985   */\n      0x60\n        /* \"#utility.yul\":3009:3073   */\n      tag_71\n        /* \"#utility.yul\":3065:3072   */\n      dup9\n        /* \"#utility.yul\":3056:3062   */\n      dup3\n        /* \"#utility.yul\":3045:3054   */\n      dup10\n        /* \"#utility.yul\":3041:3063   */\n      add\n        /* \"#utility.yul\":3009:3073   */\n      tag_32\n      jump\t// in\n    tag_71:\n        /* \"#utility.yul\":2999:3073   */\n      swap3\n      pop\n        /* \"#utility.yul\":2954:3083   */\n      pop\n        /* \"#utility.yul\":3122:3125   */\n      0x80\n        /* \"#utility.yul\":3149:3212   */\n      tag_72\n        /* \"#utility.yul\":3204:3211   */\n      dup9\n        /* \"#utility.yul\":3195:3201   */\n      dup3\n        /* \"#utility.yul\":3184:3193   */\n      dup10\n        /* \"#utility.yul\":3180:3202   */\n      add\n        /* \"#utility.yul\":3149:3212   */\n      tag_29\n      jump\t// in\n    tag_72:\n        /* \"#utility.yul\":3139:3212   */\n      swap2\n      pop\n        /* \"#utility.yul\":3093:3222   */\n      pop\n        /* \"#utility.yul\":2258:3229   */\n      swap3\n      swap6\n      pop\n      swap3\n      swap6\n      swap1\n      swap4\n      pop\n      jump\t// out\n\n    auxdata: 0xa264697066735822122070915ff37548d7c35d578e2d867b36e410f5864d202043301b9712f131a1170c64736f6c63430008080033\n}\n",
				"bytecode": {
					"linkReferences": {},
					"object": "608060405234801561001057600080fd5b506102fd806100206000396000f3fe608060405234801561001057600080fd5b50600436106100365760003560e01c806376e553381461003b578063b800f75614610059575b600080fd5b610043610075565b6040516100509190610146565b60405180910390f35b610073600480360381019061006e919061019c565b610081565b005b60008060000154905081565b738a753747a1fa494ec906ce90e9f37563a8af630e73ffffffffffffffffffffffffffffffffffffffff1663feaf968c6040518163ffffffff1660e01b815260040160a06040518083038186803b1580156100db57600080fd5b505afa1580156100ef573d6000803e3d6000fd5b505050506040513d601f19601f82011682018060405250810190610113919061024c565b909192935090915090505060008001600082919050555050565b6000819050919050565b6101408161012d565b82525050565b600060208201905061015b6000830184610137565b92915050565b600080fd5b6000819050919050565b61017981610166565b811461018457600080fd5b50565b60008135905061019681610170565b92915050565b6000602082840312156101b2576101b1610161565b5b60006101c084828501610187565b91505092915050565b600069ffffffffffffffffffff82169050919050565b6101e8816101c9565b81146101f357600080fd5b50565b600081519050610205816101df565b92915050565b6102148161012d565b811461021f57600080fd5b50565b6000815190506102318161020b565b92915050565b60008151905061024681610170565b92915050565b600080600080600060a0868803121561026857610267610161565b5b6000610276888289016101f6565b955050602061028788828901610222565b945050604061029888828901610237565b93505060606102a988828901610237565b92505060806102ba888289016101f6565b915050929550929590935056fea264697066735822122070915ff37548d7c35d578e2d867b36e410f5864d202043301b9712f131a1170c64736f6c63430008080033",
					"opcodes": "PUSH1 0x80 PUSH1 0x40 MSTORE CALLVALUE DUP1 ISZERO PUSH2 0x10 JUMPI PUSH1 0x0 DUP1 REVERT JUMPDEST POP PUSH2 0x2FD DUP1 PUSH2 0x20 PUSH1 0x0 CODECOPY PUSH1 0x0 RETURN INVALID PUSH1 0x80 PUSH1 0x40 MSTORE CALLVALUE DUP1 ISZERO PUSH2 0x10 JUMPI PUSH1 0x0 DUP1 REVERT JUMPDEST POP PUSH1 0x4 CALLDATASIZE LT PUSH2 0x36 JUMPI PUSH1 0x0 CALLDATALOAD PUSH1 0xE0 SHR DUP1 PUSH4 0x76E55338 EQ PUSH2 0x3B JUMPI DUP1 PUSH4 0xB800F756 EQ PUSH2 0x59 JUMPI JUMPDEST PUSH1 0x0 DUP1 REVERT JUMPDEST PUSH2 0x43 PUSH2 0x75 JUMP JUMPDEST PUSH1 0x40 MLOAD PUSH2 0x50 SWAP2 SWAP1 PUSH2 0x146 JUMP JUMPDEST PUSH1 0x40 MLOAD DUP1 SWAP2 SUB SWAP1 RETURN JUMPDEST PUSH2 0x73 PUSH1 0x4 DUP1 CALLDATASIZE SUB DUP2 ADD SWAP1 PUSH2 0x6E SWAP2 SWAP1 PUSH2 0x19C JUMP JUMPDEST PUSH2 0x81 JUMP JUMPDEST STOP JUMPDEST PUSH1 0x0 DUP1 PUSH1 0x0 ADD SLOAD SWAP1 POP DUP2 JUMP JUMPDEST PUSH20 0x8A753747A1FA494EC906CE90E9F37563A8AF630E PUSH20 0xFFFFFFFFFFFFFFFFFFFFFFFFFFFFFFFFFFFFFFFF AND PUSH4 0xFEAF968C PUSH1 0x40 MLOAD DUP2 PUSH4 0xFFFFFFFF AND PUSH1 0xE0 SHL DUP2 MSTORE PUSH1 0x4 ADD PUSH1 0xA0 PUSH1 0x40 MLOAD DUP1 DUP4 SUB DUP2 DUP7 DUP1 EXTCODESIZE ISZERO DUP1 ISZERO PUSH2 0xDB JUMPI PUSH1 0x0 DUP1 REVERT JUMPDEST POP GAS STATICCALL ISZERO DUP1 ISZERO PUSH2 0xEF JUMPI RETURNDATASIZE PUSH1 0x0 DUP1 RETURNDATACOPY RETURNDATASIZE PUSH1 0x0 REVERT JUMPDEST POP POP POP POP PUSH1 0x40 MLOAD RETURNDATASIZE PUSH1 0x1F NOT PUSH1 0x1F DUP3 ADD AND DUP3 ADD DUP1 PUSH1 0x40 MSTORE POP DUP2 ADD SWAP1 PUSH2 0x113 SWAP2 SWAP1 PUSH2 0x24C JUMP JUMPDEST SWAP1 SWAP2 SWAP3 SWAP4 POP SWAP1 SWAP2 POP SWAP1 POP POP PUSH1 0x0 DUP1 ADD PUSH1 0x0 DUP3 SWAP2 SWAP1 POP SSTORE POP POP JUMP JUMPDEST PUSH1 0x0 DUP2 SWAP1 POP SWAP2 SWAP1 POP JUMP JUMPDEST PUSH2 0x140 DUP2 PUSH2 0x12D JUMP JUMPDEST DUP3 MSTORE POP POP JUMP JUMPDEST PUSH1 0x0 PUSH1 0x20 DUP3 ADD SWAP1 POP PUSH2 0x15B PUSH1 0x0 DUP4 ADD DUP5 PUSH2 0x137 JUMP JUMPDEST SWAP3 SWAP2 POP POP JUMP JUMPDEST PUSH1 0x0 DUP1 REVERT JUMPDEST PUSH1 0x0 DUP2 SWAP1 POP SWAP2 SWAP1 POP JUMP JUMPDEST PUSH2 0x179 DUP2 PUSH2 0x166 JUMP JUMPDEST DUP2 EQ PUSH2 0x184 JUMPI PUSH1 0x0 DUP1 REVERT JUMPDEST POP JUMP JUMPDEST PUSH1 0x0 DUP2 CALLDATALOAD SWAP1 POP PUSH2 0x196 DUP2 PUSH2 0x170 JUMP JUMPDEST SWAP3 SWAP2 POP POP JUMP JUMPDEST PUSH1 0x0 PUSH1 0x20 DUP3 DUP5 SUB SLT ISZERO PUSH2 0x1B2 JUMPI PUSH2 0x1B1 PUSH2 0x161 JUMP JUMPDEST JUMPDEST PUSH1 0x0 PUSH2 0x1C0 DUP5 DUP3 DUP6 ADD PUSH2 0x187 JUMP JUMPDEST SWAP2 POP POP SWAP3 SWAP2 POP POP JUMP JUMPDEST PUSH1 0x0 PUSH10 0xFFFFFFFFFFFFFFFFFFFF DUP3 AND SWAP1 POP SWAP2 SWAP1 POP JUMP JUMPDEST PUSH2 0x1E8 DUP2 PUSH2 0x1C9 JUMP JUMPDEST DUP2 EQ PUSH2 0x1F3 JUMPI PUSH1 0x0 DUP1 REVERT JUMPDEST POP JUMP JUMPDEST PUSH1 0x0 DUP2 MLOAD SWAP1 POP PUSH2 0x205 DUP2 PUSH2 0x1DF JUMP JUMPDEST SWAP3 SWAP2 POP POP JUMP JUMPDEST PUSH2 0x214 DUP2 PUSH2 0x12D JUMP JUMPDEST DUP2 EQ PUSH2 0x21F JUMPI PUSH1 0x0 DUP1 REVERT JUMPDEST POP JUMP JUMPDEST PUSH1 0x0 DUP2 MLOAD SWAP1 POP PUSH2 0x231 DUP2 PUSH2 0x20B JUMP JUMPDEST SWAP3 SWAP2 POP POP JUMP JUMPDEST PUSH1 0x0 DUP2 MLOAD SWAP1 POP PUSH2 0x246 DUP2 PUSH2 0x170 JUMP JUMPDEST SWAP3 SWAP2 POP POP JUMP JUMPDEST PUSH1 0x0 DUP1 PUSH1 0x0 DUP1 PUSH1 0x0 PUSH1 0xA0 DUP7 DUP9 SUB SLT ISZERO PUSH2 0x268 JUMPI PUSH2 0x267 PUSH2 0x161 JUMP JUMPDEST JUMPDEST PUSH1 0x0 PUSH2 0x276 DUP9 DUP3 DUP10 ADD PUSH2 0x1F6 JUMP JUMPDEST SWAP6 POP POP PUSH1 0x20 PUSH2 0x287 DUP9 DUP3 DUP10 ADD PUSH2 0x222 JUMP JUMPDEST SWAP5 POP POP PUSH1 0x40 PUSH2 0x298 DUP9 DUP3 DUP10 ADD PUSH2 0x237 JUMP JUMPDEST SWAP4 POP POP PUSH1 0x60 PUSH2 0x2A9 DUP9 DUP3 DUP10 ADD PUSH2 0x237 JUMP JUMPDEST SWAP3 POP POP PUSH1 0x80 PUSH2 0x2BA DUP9 DUP3 DUP10 ADD PUSH2 0x1F6 JUMP JUMPDEST SWAP2 POP POP SWAP3 SWAP6 POP SWAP3 SWAP6 SWAP1 SWAP4 POP JUMP INVALID LOG2 PUSH5 0x6970667358 0x22 SLT KECCAK256 PUSH17 0x915FF37548D7C35D578E2D867B36E410F5 DUP7 0x4D KECCAK256 KECCAK256 NUMBER ADDRESS SHL SWAP8 SLT CALL BALANCE LOG1 OR 0xC PUSH5 0x736F6C6343 STOP ADDMOD ADDMOD STOP CALLER "
				},
				"gasEstimates": {
					"creation": {
						"codeDepositCost": "153000",
						"executionCost": "196",
						"totalCost": "153196"
					},
					"external": {
						"mytest()": "2421",
						"setMytest(uint256)": "infinite"
					}
				},
				"methodIdentifiers": {
					"mytest()": "76e55338",
					"setMytest(uint256)": "b800f756"
				}
			},
			"storageLayout": {
				"storage": [
					{
						"astId": 54,
						"contract": "Contract  ^0.8.8/TestContract.sol:Test",
						"label": "mytest",
						"offset": 0,
						"slot": "0",
						"type": "t_struct(Person)51_storage"
					}
				],
				"types": {
					"t_int256": {
						"encoding": "inplace",
						"label": "int256",
						"numberOfBytes": "32"
					},
					"t_struct(Person)51_storage": {
						"encoding": "inplace",
						"label": "struct Test.Person",
						"members": [
							{
								"astId": 50,
								"contract": "Contract  ^0.8.8/TestContract.sol:Test",
								"label": "hello",
								"offset": 0,
								"slot": "0",
								"type": "t_int256"
							}
						],
						"numberOfBytes": "32"
					}
				}
			},
			"userdoc": {
				"kind": "user",
				"methods": {},
				"version": 1
			}
		}
	}
}