{
	"Contract  ^0.8.8/Charity.sol": {
		"Charity": {
			"abi": [
				{
					"inputs": [],
					"stateMutability": "payable",
					"type": "constructor"
				},
				{
					"anonymous": false,
					"inputs": [
						{
							"indexed": false,
							"internalType": "uint256",
							"name": "amount",
							"type": "uint256"
						},
						{
							"indexed": false,
							"internalType": "uint256",
							"name": "gas",
							"type": "uint256"
						}
					],
					"name": "Log",
					"type": "event"
				},
				{
					"inputs": [],
					"name": "getBalance",
					"outputs": [
						{
							"internalType": "uint256",
							"name": "",
							"type": "uint256"
						}
					],
					"stateMutability": "view",
					"type": "function"
				},
				{
					"inputs": [],
					"name": "owner",
					"outputs": [
						{
							"internalType": "address",
							"name": "",
							"type": "address"
						}
					],
					"stateMutability": "view",
					"type": "function"
				},
				{
					"inputs": [
						{
							"internalType": "address payable",
							"name": "_to",
							"type": "address"
						},
						{
							"internalType": "uint256",
							"name": "_amount",
							"type": "uint256"
						}
					],
					"name": "sendViaCall",
					"outputs": [],
					"stateMutability": "payable",
					"type": "function"
				},
				{
					"stateMutability": "payable",
					"type": "receive"
				}
			],
			"devdoc": {
				"kind": "dev",
				"methods": {},
				"version": 1
			},
			"evm": {
				"assembly": "    /* \"Contract  ^0.8.8/Charity.sol\":56:774  contract Charity{... */\n  mstore(0x40, 0x80)\n    /* \"Contract  ^0.8.8/Charity.sol\":190:200  msg.sender */\n  caller\n    /* \"Contract  ^0.8.8/Charity.sol\":184:189  owner */\n  0x00\n  dup1\n    /* \"Contract  ^0.8.8/Charity.sol\":184:200  owner=msg.sender */\n  0x0100\n  exp\n  dup2\n  sload\n  dup2\n  0xffffffffffffffffffffffffffffffffffffffff\n  mul\n  not\n  and\n  swap1\n  dup4\n  0xffffffffffffffffffffffffffffffffffffffff\n  and\n  mul\n  or\n  swap1\n  sstore\n  pop\n    /* \"Contract  ^0.8.8/Charity.sol\":56:774  contract Charity{... */\n  dataSize(sub_0)\n  dup1\n  dataOffset(sub_0)\n  0x00\n  codecopy\n  0x00\n  return\nstop\n\nsub_0: assembly {\n        /* \"Contract  ^0.8.8/Charity.sol\":56:774  contract Charity{... */\n      mstore(0x40, 0x80)\n      jumpi(tag_1, lt(calldatasize, 0x04))\n      shr(0xe0, calldataload(0x00))\n      dup1\n      0x12065fe0\n      eq\n      tag_3\n      jumpi\n      dup1\n      0x8da5cb5b\n      eq\n      tag_4\n      jumpi\n      dup1\n      0xe4dc4f55\n      eq\n      tag_5\n      jumpi\n      jump(tag_2)\n    tag_1:\n      jumpi(tag_2, calldatasize)\n        /* \"Contract  ^0.8.8/Charity.sol\":330:354  Log(msg.value,gasleft()) */\n      0xbd0faddf87043dd749c1b9d4dca8a12589b8cb5e2106832111ce23f219b14367\n        /* \"Contract  ^0.8.8/Charity.sol\":334:343  msg.value */\n      callvalue\n        /* \"Contract  ^0.8.8/Charity.sol\":344:353  gasleft() */\n      gas\n        /* \"Contract  ^0.8.8/Charity.sol\":330:354  Log(msg.value,gasleft()) */\n      mload(0x40)\n      tag_8\n      swap3\n      swap2\n      swap1\n      tag_9\n      jump\t// in\n    tag_8:\n      mload(0x40)\n      dup1\n      swap2\n      sub\n      swap1\n      log1\n        /* \"Contract  ^0.8.8/Charity.sol\":56:774  contract Charity{... */\n      stop\n    tag_2:\n      0x00\n      dup1\n      revert\n        /* \"Contract  ^0.8.8/Charity.sol\":470:565  function getBalance() public view returns(uint256){... */\n    tag_3:\n      callvalue\n      dup1\n      iszero\n      tag_10\n      jumpi\n      0x00\n      dup1\n      revert\n    tag_10:\n      pop\n      tag_11\n      tag_12\n      jump\t// in\n    tag_11:\n      mload(0x40)\n      tag_13\n      swap2\n      swap1\n      tag_14\n      jump\t// in\n    tag_13:\n      mload(0x40)\n      dup1\n      swap2\n      sub\n      swap1\n      return\n        /* \"Contract  ^0.8.8/Charity.sol\":107:127  address public owner */\n    tag_4:\n      callvalue\n      dup1\n      iszero\n      tag_15\n      jumpi\n      0x00\n      dup1\n      revert\n    tag_15:\n      pop\n      tag_16\n      tag_17\n      jump\t// in\n    tag_16:\n      mload(0x40)\n      tag_18\n      swap2\n      swap1\n      tag_19\n      jump\t// in\n    tag_18:\n      mload(0x40)\n      dup1\n      swap2\n      sub\n      swap1\n      return\n        /* \"Contract  ^0.8.8/Charity.sol\":574:772  function sendViaCall(address payable _to, uint256 _amount) public payable OnlyOwner(msg.sender){... */\n    tag_5:\n      tag_20\n      0x04\n      dup1\n      calldatasize\n      sub\n      dup2\n      add\n      swap1\n      tag_21\n      swap2\n      swap1\n      tag_22\n      jump\t// in\n    tag_21:\n      tag_23\n      jump\t// in\n    tag_20:\n      stop\n        /* \"Contract  ^0.8.8/Charity.sol\":470:565  function getBalance() public view returns(uint256){... */\n    tag_12:\n        /* \"Contract  ^0.8.8/Charity.sol\":512:519  uint256 */\n      0x00\n        /* \"Contract  ^0.8.8/Charity.sol\":537:558  address(this).balance */\n      selfbalance\n        /* \"Contract  ^0.8.8/Charity.sol\":530:558  return address(this).balance */\n      swap1\n      pop\n        /* \"Contract  ^0.8.8/Charity.sol\":470:565  function getBalance() public view returns(uint256){... */\n      swap1\n      jump\t// out\n        /* \"Contract  ^0.8.8/Charity.sol\":107:127  address public owner */\n    tag_17:\n      0x00\n      dup1\n      sload\n      swap1\n      0x0100\n      exp\n      swap1\n      div\n      0xffffffffffffffffffffffffffffffffffffffff\n      and\n      dup2\n      jump\t// out\n        /* \"Contract  ^0.8.8/Charity.sol\":574:772  function sendViaCall(address payable _to, uint256 _amount) public payable OnlyOwner(msg.sender){... */\n    tag_23:\n        /* \"Contract  ^0.8.8/Charity.sol\":658:668  msg.sender */\n      caller\n        /* \"Contract  ^0.8.8/Charity.sol\":428:433  owner */\n      0x00\n      dup1\n      sload\n      swap1\n      0x0100\n      exp\n      swap1\n      div\n      0xffffffffffffffffffffffffffffffffffffffff\n      and\n        /* \"Contract  ^0.8.8/Charity.sol\":416:433  msg.sender==owner */\n      0xffffffffffffffffffffffffffffffffffffffff\n      and\n        /* \"Contract  ^0.8.8/Charity.sol\":416:426  msg.sender */\n      caller\n        /* \"Contract  ^0.8.8/Charity.sol\":416:433  msg.sender==owner */\n      0xffffffffffffffffffffffffffffffffffffffff\n      and\n      eq\n        /* \"Contract  ^0.8.8/Charity.sol\":408:447  require(msg.sender==owner,\"Only owner\") */\n      tag_26\n      jumpi\n      mload(0x40)\n      0x08c379a000000000000000000000000000000000000000000000000000000000\n      dup2\n      mstore\n      0x04\n      add\n      tag_27\n      swap1\n      tag_28\n      jump\t// in\n    tag_27:\n      mload(0x40)\n      dup1\n      swap2\n      sub\n      swap1\n      revert\n    tag_26:\n        /* \"Contract  ^0.8.8/Charity.sol\":680:692  bool success */\n      0x00\n        /* \"Contract  ^0.8.8/Charity.sol\":697:700  _to */\n      dup4\n        /* \"Contract  ^0.8.8/Charity.sol\":697:705  _to.call */\n      0xffffffffffffffffffffffffffffffffffffffff\n      and\n        /* \"Contract  ^0.8.8/Charity.sol\":712:719  _amount */\n      dup4\n        /* \"Contract  ^0.8.8/Charity.sol\":697:724  _to.call{value:_amount}(\"\") */\n      mload(0x40)\n      tag_30\n      swap1\n      tag_31\n      jump\t// in\n    tag_30:\n      0x00\n      mload(0x40)\n      dup1\n      dup4\n      sub\n      dup2\n      dup6\n      dup8\n      gas\n      call\n      swap3\n      pop\n      pop\n      pop\n      returndatasize\n      dup1\n      0x00\n      dup2\n      eq\n      tag_34\n      jumpi\n      mload(0x40)\n      swap2\n      pop\n      and(add(returndatasize, 0x3f), not(0x1f))\n      dup3\n      add\n      0x40\n      mstore\n      returndatasize\n      dup3\n      mstore\n      returndatasize\n      0x00\n      0x20\n      dup5\n      add\n      returndatacopy\n      jump(tag_33)\n    tag_34:\n      0x60\n      swap2\n      pop\n    tag_33:\n      pop\n        /* \"Contract  ^0.8.8/Charity.sol\":679:724  (bool success, )= _to.call{value:_amount}(\"\") */\n      pop\n      swap1\n      pop\n        /* \"Contract  ^0.8.8/Charity.sol\":742:749  success */\n      dup1\n        /* \"Contract  ^0.8.8/Charity.sol\":734:765  require(success, \"call failed\") */\n      tag_35\n      jumpi\n      mload(0x40)\n      0x08c379a000000000000000000000000000000000000000000000000000000000\n      dup2\n      mstore\n      0x04\n      add\n      tag_36\n      swap1\n      tag_37\n      jump\t// in\n    tag_36:\n      mload(0x40)\n      dup1\n      swap2\n      sub\n      swap1\n      revert\n    tag_35:\n        /* \"Contract  ^0.8.8/Charity.sol\":669:772  {... */\n      pop\n        /* \"Contract  ^0.8.8/Charity.sol\":574:772  function sendViaCall(address payable _to, uint256 _amount) public payable OnlyOwner(msg.sender){... */\n      pop\n      pop\n      pop\n      jump\t// out\n        /* \"#utility.yul\":7:84   */\n    tag_38:\n        /* \"#utility.yul\":44:51   */\n      0x00\n        /* \"#utility.yul\":73:78   */\n      dup2\n        /* \"#utility.yul\":62:78   */\n      swap1\n      pop\n        /* \"#utility.yul\":7:84   */\n      swap2\n      swap1\n      pop\n      jump\t// out\n        /* \"#utility.yul\":90:208   */\n    tag_39:\n        /* \"#utility.yul\":177:201   */\n      tag_62\n        /* \"#utility.yul\":195:200   */\n      dup2\n        /* \"#utility.yul\":177:201   */\n      tag_38\n      jump\t// in\n    tag_62:\n        /* \"#utility.yul\":172:175   */\n      dup3\n        /* \"#utility.yul\":165:202   */\n      mstore\n        /* \"#utility.yul\":90:208   */\n      pop\n      pop\n      jump\t// out\n        /* \"#utility.yul\":214:546   */\n    tag_9:\n        /* \"#utility.yul\":335:339   */\n      0x00\n        /* \"#utility.yul\":373:375   */\n      0x40\n        /* \"#utility.yul\":362:371   */\n      dup3\n        /* \"#utility.yul\":358:376   */\n      add\n        /* \"#utility.yul\":350:376   */\n      swap1\n      pop\n        /* \"#utility.yul\":386:457   */\n      tag_64\n        /* \"#utility.yul\":454:455   */\n      0x00\n        /* \"#utility.yul\":443:452   */\n      dup4\n        /* \"#utility.yul\":439:456   */\n      add\n        /* \"#utility.yul\":430:436   */\n      dup6\n        /* \"#utility.yul\":386:457   */\n      tag_39\n      jump\t// in\n    tag_64:\n        /* \"#utility.yul\":467:539   */\n      tag_65\n        /* \"#utility.yul\":535:537   */\n      0x20\n        /* \"#utility.yul\":524:533   */\n      dup4\n        /* \"#utility.yul\":520:538   */\n      add\n        /* \"#utility.yul\":511:517   */\n      dup5\n        /* \"#utility.yul\":467:539   */\n      tag_39\n      jump\t// in\n    tag_65:\n        /* \"#utility.yul\":214:546   */\n      swap4\n      swap3\n      pop\n      pop\n      pop\n      jump\t// out\n        /* \"#utility.yul\":552:774   */\n    tag_14:\n        /* \"#utility.yul\":645:649   */\n      0x00\n        /* \"#utility.yul\":683:685   */\n      0x20\n        /* \"#utility.yul\":672:681   */\n      dup3\n        /* \"#utility.yul\":668:686   */\n      add\n        /* \"#utility.yul\":660:686   */\n      swap1\n      pop\n        /* \"#utility.yul\":696:767   */\n      tag_67\n        /* \"#utility.yul\":764:765   */\n      0x00\n        /* \"#utility.yul\":753:762   */\n      dup4\n        /* \"#utility.yul\":749:766   */\n      add\n        /* \"#utility.yul\":740:746   */\n      dup5\n        /* \"#utility.yul\":696:767   */\n      tag_39\n      jump\t// in\n    tag_67:\n        /* \"#utility.yul\":552:774   */\n      swap3\n      swap2\n      pop\n      pop\n      jump\t// out\n        /* \"#utility.yul\":780:906   */\n    tag_40:\n        /* \"#utility.yul\":817:824   */\n      0x00\n        /* \"#utility.yul\":857:899   */\n      0xffffffffffffffffffffffffffffffffffffffff\n        /* \"#utility.yul\":850:855   */\n      dup3\n        /* \"#utility.yul\":846:900   */\n      and\n        /* \"#utility.yul\":835:900   */\n      swap1\n      pop\n        /* \"#utility.yul\":780:906   */\n      swap2\n      swap1\n      pop\n      jump\t// out\n        /* \"#utility.yul\":912:1008   */\n    tag_41:\n        /* \"#utility.yul\":949:956   */\n      0x00\n        /* \"#utility.yul\":978:1002   */\n      tag_70\n        /* \"#utility.yul\":996:1001   */\n      dup3\n        /* \"#utility.yul\":978:1002   */\n      tag_40\n      jump\t// in\n    tag_70:\n        /* \"#utility.yul\":967:1002   */\n      swap1\n      pop\n        /* \"#utility.yul\":912:1008   */\n      swap2\n      swap1\n      pop\n      jump\t// out\n        /* \"#utility.yul\":1014:1132   */\n    tag_42:\n        /* \"#utility.yul\":1101:1125   */\n      tag_72\n        /* \"#utility.yul\":1119:1124   */\n      dup2\n        /* \"#utility.yul\":1101:1125   */\n      tag_41\n      jump\t// in\n    tag_72:\n        /* \"#utility.yul\":1096:1099   */\n      dup3\n        /* \"#utility.yul\":1089:1126   */\n      mstore\n        /* \"#utility.yul\":1014:1132   */\n      pop\n      pop\n      jump\t// out\n        /* \"#utility.yul\":1138:1360   */\n    tag_19:\n        /* \"#utility.yul\":1231:1235   */\n      0x00\n        /* \"#utility.yul\":1269:1271   */\n      0x20\n        /* \"#utility.yul\":1258:1267   */\n      dup3\n        /* \"#utility.yul\":1254:1272   */\n      add\n        /* \"#utility.yul\":1246:1272   */\n      swap1\n      pop\n        /* \"#utility.yul\":1282:1353   */\n      tag_74\n        /* \"#utility.yul\":1350:1351   */\n      0x00\n        /* \"#utility.yul\":1339:1348   */\n      dup4\n        /* \"#utility.yul\":1335:1352   */\n      add\n        /* \"#utility.yul\":1326:1332   */\n      dup5\n        /* \"#utility.yul\":1282:1353   */\n      tag_42\n      jump\t// in\n    tag_74:\n        /* \"#utility.yul\":1138:1360   */\n      swap3\n      swap2\n      pop\n      pop\n      jump\t// out\n        /* \"#utility.yul\":1447:1564   */\n    tag_44:\n        /* \"#utility.yul\":1556:1557   */\n      0x00\n        /* \"#utility.yul\":1553:1554   */\n      dup1\n        /* \"#utility.yul\":1546:1558   */\n      revert\n        /* \"#utility.yul\":1693:1797   */\n    tag_46:\n        /* \"#utility.yul\":1738:1745   */\n      0x00\n        /* \"#utility.yul\":1767:1791   */\n      tag_79\n        /* \"#utility.yul\":1785:1790   */\n      dup3\n        /* \"#utility.yul\":1767:1791   */\n      tag_40\n      jump\t// in\n    tag_79:\n        /* \"#utility.yul\":1756:1791   */\n      swap1\n      pop\n        /* \"#utility.yul\":1693:1797   */\n      swap2\n      swap1\n      pop\n      jump\t// out\n        /* \"#utility.yul\":1803:1941   */\n    tag_47:\n        /* \"#utility.yul\":1884:1916   */\n      tag_81\n        /* \"#utility.yul\":1910:1915   */\n      dup2\n        /* \"#utility.yul\":1884:1916   */\n      tag_46\n      jump\t// in\n    tag_81:\n        /* \"#utility.yul\":1877:1882   */\n      dup2\n        /* \"#utility.yul\":1874:1917   */\n      eq\n        /* \"#utility.yul\":1864:1935   */\n      tag_82\n      jumpi\n        /* \"#utility.yul\":1931:1932   */\n      0x00\n        /* \"#utility.yul\":1928:1929   */\n      dup1\n        /* \"#utility.yul\":1921:1933   */\n      revert\n        /* \"#utility.yul\":1864:1935   */\n    tag_82:\n        /* \"#utility.yul\":1803:1941   */\n      pop\n      jump\t// out\n        /* \"#utility.yul\":1947:2102   */\n    tag_48:\n        /* \"#utility.yul\":2001:2006   */\n      0x00\n        /* \"#utility.yul\":2039:2045   */\n      dup2\n        /* \"#utility.yul\":2026:2046   */\n      calldataload\n        /* \"#utility.yul\":2017:2046   */\n      swap1\n      pop\n        /* \"#utility.yul\":2055:2096   */\n      tag_84\n        /* \"#utility.yul\":2090:2095   */\n      dup2\n        /* \"#utility.yul\":2055:2096   */\n      tag_47\n      jump\t// in\n    tag_84:\n        /* \"#utility.yul\":1947:2102   */\n      swap3\n      swap2\n      pop\n      pop\n      jump\t// out\n        /* \"#utility.yul\":2108:2230   */\n    tag_49:\n        /* \"#utility.yul\":2181:2205   */\n      tag_86\n        /* \"#utility.yul\":2199:2204   */\n      dup2\n        /* \"#utility.yul\":2181:2205   */\n      tag_38\n      jump\t// in\n    tag_86:\n        /* \"#utility.yul\":2174:2179   */\n      dup2\n        /* \"#utility.yul\":2171:2206   */\n      eq\n        /* \"#utility.yul\":2161:2224   */\n      tag_87\n      jumpi\n        /* \"#utility.yul\":2220:2221   */\n      0x00\n        /* \"#utility.yul\":2217:2218   */\n      dup1\n        /* \"#utility.yul\":2210:2222   */\n      revert\n        /* \"#utility.yul\":2161:2224   */\n    tag_87:\n        /* \"#utility.yul\":2108:2230   */\n      pop\n      jump\t// out\n        /* \"#utility.yul\":2236:2375   */\n    tag_50:\n        /* \"#utility.yul\":2282:2287   */\n      0x00\n        /* \"#utility.yul\":2320:2326   */\n      dup2\n        /* \"#utility.yul\":2307:2327   */\n      calldataload\n        /* \"#utility.yul\":2298:2327   */\n      swap1\n      pop\n        /* \"#utility.yul\":2336:2369   */\n      tag_89\n        /* \"#utility.yul\":2363:2368   */\n      dup2\n        /* \"#utility.yul\":2336:2369   */\n      tag_49\n      jump\t// in\n    tag_89:\n        /* \"#utility.yul\":2236:2375   */\n      swap3\n      swap2\n      pop\n      pop\n      jump\t// out\n        /* \"#utility.yul\":2381:2871   */\n    tag_22:\n        /* \"#utility.yul\":2457:2463   */\n      0x00\n        /* \"#utility.yul\":2465:2471   */\n      dup1\n        /* \"#utility.yul\":2514:2516   */\n      0x40\n        /* \"#utility.yul\":2502:2511   */\n      dup4\n        /* \"#utility.yul\":2493:2500   */\n      dup6\n        /* \"#utility.yul\":2489:2512   */\n      sub\n        /* \"#utility.yul\":2485:2517   */\n      slt\n        /* \"#utility.yul\":2482:2601   */\n      iszero\n      tag_91\n      jumpi\n        /* \"#utility.yul\":2520:2599   */\n      tag_92\n      tag_44\n      jump\t// in\n    tag_92:\n        /* \"#utility.yul\":2482:2601   */\n    tag_91:\n        /* \"#utility.yul\":2640:2641   */\n      0x00\n        /* \"#utility.yul\":2665:2726   */\n      tag_93\n        /* \"#utility.yul\":2718:2725   */\n      dup6\n        /* \"#utility.yul\":2709:2715   */\n      dup3\n        /* \"#utility.yul\":2698:2707   */\n      dup7\n        /* \"#utility.yul\":2694:2716   */\n      add\n        /* \"#utility.yul\":2665:2726   */\n      tag_48\n      jump\t// in\n    tag_93:\n        /* \"#utility.yul\":2655:2726   */\n      swap3\n      pop\n        /* \"#utility.yul\":2611:2736   */\n      pop\n        /* \"#utility.yul\":2775:2777   */\n      0x20\n        /* \"#utility.yul\":2801:2854   */\n      tag_94\n        /* \"#utility.yul\":2846:2853   */\n      dup6\n        /* \"#utility.yul\":2837:2843   */\n      dup3\n        /* \"#utility.yul\":2826:2835   */\n      dup7\n        /* \"#utility.yul\":2822:2844   */\n      add\n        /* \"#utility.yul\":2801:2854   */\n      tag_50\n      jump\t// in\n    tag_94:\n        /* \"#utility.yul\":2791:2854   */\n      swap2\n      pop\n        /* \"#utility.yul\":2746:2864   */\n      pop\n        /* \"#utility.yul\":2381:2871   */\n      swap3\n      pop\n      swap3\n      swap1\n      pop\n      jump\t// out\n        /* \"#utility.yul\":2877:3046   */\n    tag_51:\n        /* \"#utility.yul\":2961:2972   */\n      0x00\n        /* \"#utility.yul\":2995:3001   */\n      dup3\n        /* \"#utility.yul\":2990:2993   */\n      dup3\n        /* \"#utility.yul\":2983:3002   */\n      mstore\n        /* \"#utility.yul\":3035:3039   */\n      0x20\n        /* \"#utility.yul\":3030:3033   */\n      dup3\n        /* \"#utility.yul\":3026:3040   */\n      add\n        /* \"#utility.yul\":3011:3040   */\n      swap1\n      pop\n        /* \"#utility.yul\":2877:3046   */\n      swap3\n      swap2\n      pop\n      pop\n      jump\t// out\n        /* \"#utility.yul\":3052:3212   */\n    tag_52:\n        /* \"#utility.yul\":3192:3204   */\n      0x4f6e6c79206f776e657200000000000000000000000000000000000000000000\n        /* \"#utility.yul\":3188:3189   */\n      0x00\n        /* \"#utility.yul\":3180:3186   */\n      dup3\n        /* \"#utility.yul\":3176:3190   */\n      add\n        /* \"#utility.yul\":3169:3205   */\n      mstore\n        /* \"#utility.yul\":3052:3212   */\n      pop\n      jump\t// out\n        /* \"#utility.yul\":3218:3584   */\n    tag_53:\n        /* \"#utility.yul\":3360:3363   */\n      0x00\n        /* \"#utility.yul\":3381:3448   */\n      tag_98\n        /* \"#utility.yul\":3445:3447   */\n      0x0a\n        /* \"#utility.yul\":3440:3443   */\n      dup4\n        /* \"#utility.yul\":3381:3448   */\n      tag_51\n      jump\t// in\n    tag_98:\n        /* \"#utility.yul\":3374:3448   */\n      swap2\n      pop\n        /* \"#utility.yul\":3457:3550   */\n      tag_99\n        /* \"#utility.yul\":3546:3549   */\n      dup3\n        /* \"#utility.yul\":3457:3550   */\n      tag_52\n      jump\t// in\n    tag_99:\n        /* \"#utility.yul\":3575:3577   */\n      0x20\n        /* \"#utility.yul\":3570:3573   */\n      dup3\n        /* \"#utility.yul\":3566:3578   */\n      add\n        /* \"#utility.yul\":3559:3578   */\n      swap1\n      pop\n        /* \"#utility.yul\":3218:3584   */\n      swap2\n      swap1\n      pop\n      jump\t// out\n        /* \"#utility.yul\":3590:4009   */\n    tag_28:\n        /* \"#utility.yul\":3756:3760   */\n      0x00\n        /* \"#utility.yul\":3794:3796   */\n      0x20\n        /* \"#utility.yul\":3783:3792   */\n      dup3\n        /* \"#utility.yul\":3779:3797   */\n      add\n        /* \"#utility.yul\":3771:3797   */\n      swap1\n      pop\n        /* \"#utility.yul\":3843:3852   */\n      dup2\n        /* \"#utility.yul\":3837:3841   */\n      dup2\n        /* \"#utility.yul\":3833:3853   */\n      sub\n        /* \"#utility.yul\":3829:3830   */\n      0x00\n        /* \"#utility.yul\":3818:3827   */\n      dup4\n        /* \"#utility.yul\":3814:3831   */\n      add\n        /* \"#utility.yul\":3807:3854   */\n      mstore\n        /* \"#utility.yul\":3871:4002   */\n      tag_101\n        /* \"#utility.yul\":3997:4001   */\n      dup2\n        /* \"#utility.yul\":3871:4002   */\n      tag_53\n      jump\t// in\n    tag_101:\n        /* \"#utility.yul\":3863:4002   */\n      swap1\n      pop\n        /* \"#utility.yul\":3590:4009   */\n      swap2\n      swap1\n      pop\n      jump\t// out\n        /* \"#utility.yul\":4015:4162   */\n    tag_54:\n        /* \"#utility.yul\":4116:4127   */\n      0x00\n        /* \"#utility.yul\":4153:4156   */\n      dup2\n        /* \"#utility.yul\":4138:4156   */\n      swap1\n      pop\n        /* \"#utility.yul\":4015:4162   */\n      swap3\n      swap2\n      pop\n      pop\n      jump\t// out\n        /* \"#utility.yul\":4168:4282   */\n    tag_55:\n      pop\n      jump\t// out\n        /* \"#utility.yul\":4288:4686   */\n    tag_56:\n        /* \"#utility.yul\":4447:4450   */\n      0x00\n        /* \"#utility.yul\":4468:4551   */\n      tag_105\n        /* \"#utility.yul\":4549:4550   */\n      0x00\n        /* \"#utility.yul\":4544:4547   */\n      dup4\n        /* \"#utility.yul\":4468:4551   */\n      tag_54\n      jump\t// in\n    tag_105:\n        /* \"#utility.yul\":4461:4551   */\n      swap2\n      pop\n        /* \"#utility.yul\":4560:4653   */\n      tag_106\n        /* \"#utility.yul\":4649:4652   */\n      dup3\n        /* \"#utility.yul\":4560:4653   */\n      tag_55\n      jump\t// in\n    tag_106:\n        /* \"#utility.yul\":4678:4679   */\n      0x00\n        /* \"#utility.yul\":4673:4676   */\n      dup3\n        /* \"#utility.yul\":4669:4680   */\n      add\n        /* \"#utility.yul\":4662:4680   */\n      swap1\n      pop\n        /* \"#utility.yul\":4288:4686   */\n      swap2\n      swap1\n      pop\n      jump\t// out\n        /* \"#utility.yul\":4692:5071   */\n    tag_31:\n        /* \"#utility.yul\":4876:4879   */\n      0x00\n        /* \"#utility.yul\":4898:5045   */\n      tag_108\n        /* \"#utility.yul\":5041:5044   */\n      dup3\n        /* \"#utility.yul\":4898:5045   */\n      tag_56\n      jump\t// in\n    tag_108:\n        /* \"#utility.yul\":4891:5045   */\n      swap2\n      pop\n        /* \"#utility.yul\":5062:5065   */\n      dup2\n        /* \"#utility.yul\":5055:5065   */\n      swap1\n      pop\n        /* \"#utility.yul\":4692:5071   */\n      swap2\n      swap1\n      pop\n      jump\t// out\n        /* \"#utility.yul\":5077:5238   */\n    tag_57:\n        /* \"#utility.yul\":5217:5230   */\n      0x63616c6c206661696c6564000000000000000000000000000000000000000000\n        /* \"#utility.yul\":5213:5214   */\n      0x00\n        /* \"#utility.yul\":5205:5211   */\n      dup3\n        /* \"#utility.yul\":5201:5215   */\n      add\n        /* \"#utility.yul\":5194:5231   */\n      mstore\n        /* \"#utility.yul\":5077:5238   */\n      pop\n      jump\t// out\n        /* \"#utility.yul\":5244:5610   */\n    tag_58:\n        /* \"#utility.yul\":5386:5389   */\n      0x00\n        /* \"#utility.yul\":5407:5474   */\n      tag_111\n        /* \"#utility.yul\":5471:5473   */\n      0x0b\n        /* \"#utility.yul\":5466:5469   */\n      dup4\n        /* \"#utility.yul\":5407:5474   */\n      tag_51\n      jump\t// in\n    tag_111:\n        /* \"#utility.yul\":5400:5474   */\n      swap2\n      pop\n        /* \"#utility.yul\":5483:5576   */\n      tag_112\n        /* \"#utility.yul\":5572:5575   */\n      dup3\n        /* \"#utility.yul\":5483:5576   */\n      tag_57\n      jump\t// in\n    tag_112:\n        /* \"#utility.yul\":5601:5603   */\n      0x20\n        /* \"#utility.yul\":5596:5599   */\n      dup3\n        /* \"#utility.yul\":5592:5604   */\n      add\n        /* \"#utility.yul\":5585:5604   */\n      swap1\n      pop\n        /* \"#utility.yul\":5244:5610   */\n      swap2\n      swap1\n      pop\n      jump\t// out\n        /* \"#utility.yul\":5616:6035   */\n    tag_37:\n        /* \"#utility.yul\":5782:5786   */\n      0x00\n        /* \"#utility.yul\":5820:5822   */\n      0x20\n        /* \"#utility.yul\":5809:5818   */\n      dup3\n        /* \"#utility.yul\":5805:5823   */\n      add\n        /* \"#utility.yul\":5797:5823   */\n      swap1\n      pop\n        /* \"#utility.yul\":5869:5878   */\n      dup2\n        /* \"#utility.yul\":5863:5867   */\n      dup2\n        /* \"#utility.yul\":5859:5879   */\n      sub\n        /* \"#utility.yul\":5855:5856   */\n      0x00\n        /* \"#utility.yul\":5844:5853   */\n      dup4\n        /* \"#utility.yul\":5840:5857   */\n      add\n        /* \"#utility.yul\":5833:5880   */\n      mstore\n        /* \"#utility.yul\":5897:6028   */\n      tag_114\n        /* \"#utility.yul\":6023:6027   */\n      dup2\n        /* \"#utility.yul\":5897:6028   */\n      tag_58\n      jump\t// in\n    tag_114:\n        /* \"#utility.yul\":5889:6028   */\n      swap1\n      pop\n        /* \"#utility.yul\":5616:6035   */\n      swap2\n      swap1\n      pop\n      jump\t// out\n\n    auxdata: 0xa2646970667358221220f364acb65869d8c920f68740548e603db7a8fe9b05446d24ec1f93cbf34f525d64736f6c63430008080033\n}\n",
				"bytecode": {
					"linkReferences": {},
					"object": "6080604052336000806101000a81548173ffffffffffffffffffffffffffffffffffffffff021916908373ffffffffffffffffffffffffffffffffffffffff160217905550610529806100536000396000f3fe6080604052600436106100385760003560e01c806312065fe01461007d5780638da5cb5b146100a8578063e4dc4f55146100d357610078565b36610078577fbd0faddf87043dd749c1b9d4dca8a12589b8cb5e2106832111ce23f219b14367345a60405161006e929190610275565b60405180910390a1005b600080fd5b34801561008957600080fd5b506100926100ef565b60405161009f919061029e565b60405180910390f35b3480156100b457600080fd5b506100bd6100f7565b6040516100ca91906102fa565b60405180910390f35b6100ed60048036038101906100e89190610384565b61011b565b005b600047905090565b60008054906101000a900473ffffffffffffffffffffffffffffffffffffffff1681565b3360008054906101000a900473ffffffffffffffffffffffffffffffffffffffff1673ffffffffffffffffffffffffffffffffffffffff163373ffffffffffffffffffffffffffffffffffffffff16146101aa576040517f08c379a00000000000000000000000000000000000000000000000000000000081526004016101a190610421565b60405180910390fd5b60008373ffffffffffffffffffffffffffffffffffffffff16836040516101d090610472565b60006040518083038185875af1925050503d806000811461020d576040519150601f19603f3d011682016040523d82523d6000602084013e610212565b606091505b5050905080610256576040517f08c379a000000000000000000000000000000000000000000000000000000000815260040161024d906104d3565b60405180910390fd5b50505050565b6000819050919050565b61026f8161025c565b82525050565b600060408201905061028a6000830185610266565b6102976020830184610266565b9392505050565b60006020820190506102b36000830184610266565b92915050565b600073ffffffffffffffffffffffffffffffffffffffff82169050919050565b60006102e4826102b9565b9050919050565b6102f4816102d9565b82525050565b600060208201905061030f60008301846102eb565b92915050565b600080fd5b6000610325826102b9565b9050919050565b6103358161031a565b811461034057600080fd5b50565b6000813590506103528161032c565b92915050565b6103618161025c565b811461036c57600080fd5b50565b60008135905061037e81610358565b92915050565b6000806040838503121561039b5761039a610315565b5b60006103a985828601610343565b92505060206103ba8582860161036f565b9150509250929050565b600082825260208201905092915050565b7f4f6e6c79206f776e657200000000000000000000000000000000000000000000600082015250565b600061040b600a836103c4565b9150610416826103d5565b602082019050919050565b6000602082019050818103600083015261043a816103fe565b9050919050565b600081905092915050565b50565b600061045c600083610441565b91506104678261044c565b600082019050919050565b600061047d8261044f565b9150819050919050565b7f63616c6c206661696c6564000000000000000000000000000000000000000000600082015250565b60006104bd600b836103c4565b91506104c882610487565b602082019050919050565b600060208201905081810360008301526104ec816104b0565b905091905056fea2646970667358221220f364acb65869d8c920f68740548e603db7a8fe9b05446d24ec1f93cbf34f525d64736f6c63430008080033",
					"opcodes": "PUSH1 0x80 PUSH1 0x40 MSTORE CALLER PUSH1 0x0 DUP1 PUSH2 0x100 EXP DUP2 SLOAD DUP2 PUSH20 0xFFFFFFFFFFFFFFFFFFFFFFFFFFFFFFFFFFFFFFFF MUL NOT AND SWAP1 DUP4 PUSH20 0xFFFFFFFFFFFFFFFFFFFFFFFFFFFFFFFFFFFFFFFF AND MUL OR SWAP1 SSTORE POP PUSH2 0x529 DUP1 PUSH2 0x53 PUSH1 0x0 CODECOPY PUSH1 0x0 RETURN INVALID PUSH1 0x80 PUSH1 0x40 MSTORE PUSH1 0x4 CALLDATASIZE LT PUSH2 0x38 JUMPI PUSH1 0x0 CALLDATALOAD PUSH1 0xE0 SHR DUP1 PUSH4 0x12065FE0 EQ PUSH2 0x7D JUMPI DUP1 PUSH4 0x8DA5CB5B EQ PUSH2 0xA8 JUMPI DUP1 PUSH4 0xE4DC4F55 EQ PUSH2 0xD3 JUMPI PUSH2 0x78 JUMP JUMPDEST CALLDATASIZE PUSH2 0x78 JUMPI PUSH32 0xBD0FADDF87043DD749C1B9D4DCA8A12589B8CB5E2106832111CE23F219B14367 CALLVALUE GAS PUSH1 0x40 MLOAD PUSH2 0x6E SWAP3 SWAP2 SWAP1 PUSH2 0x275 JUMP JUMPDEST PUSH1 0x40 MLOAD DUP1 SWAP2 SUB SWAP1 LOG1 STOP JUMPDEST PUSH1 0x0 DUP1 REVERT JUMPDEST CALLVALUE DUP1 ISZERO PUSH2 0x89 JUMPI PUSH1 0x0 DUP1 REVERT JUMPDEST POP PUSH2 0x92 PUSH2 0xEF JUMP JUMPDEST PUSH1 0x40 MLOAD PUSH2 0x9F SWAP2 SWAP1 PUSH2 0x29E JUMP JUMPDEST PUSH1 0x40 MLOAD DUP1 SWAP2 SUB SWAP1 RETURN JUMPDEST CALLVALUE DUP1 ISZERO PUSH2 0xB4 JUMPI PUSH1 0x0 DUP1 REVERT JUMPDEST POP PUSH2 0xBD PUSH2 0xF7 JUMP JUMPDEST PUSH1 0x40 MLOAD PUSH2 0xCA SWAP2 SWAP1 PUSH2 0x2FA JUMP JUMPDEST PUSH1 0x40 MLOAD DUP1 SWAP2 SUB SWAP1 RETURN JUMPDEST PUSH2 0xED PUSH1 0x4 DUP1 CALLDATASIZE SUB DUP2 ADD SWAP1 PUSH2 0xE8 SWAP2 SWAP1 PUSH2 0x384 JUMP JUMPDEST PUSH2 0x11B JUMP JUMPDEST STOP JUMPDEST PUSH1 0x0 SELFBALANCE SWAP1 POP SWAP1 JUMP JUMPDEST PUSH1 0x0 DUP1 SLOAD SWAP1 PUSH2 0x100 EXP SWAP1 DIV PUSH20 0xFFFFFFFFFFFFFFFFFFFFFFFFFFFFFFFFFFFFFFFF AND DUP2 JUMP JUMPDEST CALLER PUSH1 0x0 DUP1 SLOAD SWAP1 PUSH2 0x100 EXP SWAP1 DIV PUSH20 0xFFFFFFFFFFFFFFFFFFFFFFFFFFFFFFFFFFFFFFFF AND PUSH20 0xFFFFFFFFFFFFFFFFFFFFFFFFFFFFFFFFFFFFFFFF AND CALLER PUSH20 0xFFFFFFFFFFFFFFFFFFFFFFFFFFFFFFFFFFFFFFFF AND EQ PUSH2 0x1AA JUMPI PUSH1 0x40 MLOAD PUSH32 0x8C379A000000000000000000000000000000000000000000000000000000000 DUP2 MSTORE PUSH1 0x4 ADD PUSH2 0x1A1 SWAP1 PUSH2 0x421 JUMP JUMPDEST PUSH1 0x40 MLOAD DUP1 SWAP2 SUB SWAP1 REVERT JUMPDEST PUSH1 0x0 DUP4 PUSH20 0xFFFFFFFFFFFFFFFFFFFFFFFFFFFFFFFFFFFFFFFF AND DUP4 PUSH1 0x40 MLOAD PUSH2 0x1D0 SWAP1 PUSH2 0x472 JUMP JUMPDEST PUSH1 0x0 PUSH1 0x40 MLOAD DUP1 DUP4 SUB DUP2 DUP6 DUP8 GAS CALL SWAP3 POP POP POP RETURNDATASIZE DUP1 PUSH1 0x0 DUP2 EQ PUSH2 0x20D JUMPI PUSH1 0x40 MLOAD SWAP2 POP PUSH1 0x1F NOT PUSH1 0x3F RETURNDATASIZE ADD AND DUP3 ADD PUSH1 0x40 MSTORE RETURNDATASIZE DUP3 MSTORE RETURNDATASIZE PUSH1 0x0 PUSH1 0x20 DUP5 ADD RETURNDATACOPY PUSH2 0x212 JUMP JUMPDEST PUSH1 0x60 SWAP2 POP JUMPDEST POP POP SWAP1 POP DUP1 PUSH2 0x256 JUMPI PUSH1 0x40 MLOAD PUSH32 0x8C379A000000000000000000000000000000000000000000000000000000000 DUP2 MSTORE PUSH1 0x4 ADD PUSH2 0x24D SWAP1 PUSH2 0x4D3 JUMP JUMPDEST PUSH1 0x40 MLOAD DUP1 SWAP2 SUB SWAP1 REVERT JUMPDEST POP POP POP POP JUMP JUMPDEST PUSH1 0x0 DUP2 SWAP1 POP SWAP2 SWAP1 POP JUMP JUMPDEST PUSH2 0x26F DUP2 PUSH2 0x25C JUMP JUMPDEST DUP3 MSTORE POP POP JUMP JUMPDEST PUSH1 0x0 PUSH1 0x40 DUP3 ADD SWAP1 POP PUSH2 0x28A PUSH1 0x0 DUP4 ADD DUP6 PUSH2 0x266 JUMP JUMPDEST PUSH2 0x297 PUSH1 0x20 DUP4 ADD DUP5 PUSH2 0x266 JUMP JUMPDEST SWAP4 SWAP3 POP POP POP JUMP JUMPDEST PUSH1 0x0 PUSH1 0x20 DUP3 ADD SWAP1 POP PUSH2 0x2B3 PUSH1 0x0 DUP4 ADD DUP5 PUSH2 0x266 JUMP JUMPDEST SWAP3 SWAP2 POP POP JUMP JUMPDEST PUSH1 0x0 PUSH20 0xFFFFFFFFFFFFFFFFFFFFFFFFFFFFFFFFFFFFFFFF DUP3 AND SWAP1 POP SWAP2 SWAP1 POP JUMP JUMPDEST PUSH1 0x0 PUSH2 0x2E4 DUP3 PUSH2 0x2B9 JUMP JUMPDEST SWAP1 POP SWAP2 SWAP1 POP JUMP JUMPDEST PUSH2 0x2F4 DUP2 PUSH2 0x2D9 JUMP JUMPDEST DUP3 MSTORE POP POP JUMP JUMPDEST PUSH1 0x0 PUSH1 0x20 DUP3 ADD SWAP1 POP PUSH2 0x30F PUSH1 0x0 DUP4 ADD DUP5 PUSH2 0x2EB JUMP JUMPDEST SWAP3 SWAP2 POP POP JUMP JUMPDEST PUSH1 0x0 DUP1 REVERT JUMPDEST PUSH1 0x0 PUSH2 0x325 DUP3 PUSH2 0x2B9 JUMP JUMPDEST SWAP1 POP SWAP2 SWAP1 POP JUMP JUMPDEST PUSH2 0x335 DUP2 PUSH2 0x31A JUMP JUMPDEST DUP2 EQ PUSH2 0x340 JUMPI PUSH1 0x0 DUP1 REVERT JUMPDEST POP JUMP JUMPDEST PUSH1 0x0 DUP2 CALLDATALOAD SWAP1 POP PUSH2 0x352 DUP2 PUSH2 0x32C JUMP JUMPDEST SWAP3 SWAP2 POP POP JUMP JUMPDEST PUSH2 0x361 DUP2 PUSH2 0x25C JUMP JUMPDEST DUP2 EQ PUSH2 0x36C JUMPI PUSH1 0x0 DUP1 REVERT JUMPDEST POP JUMP JUMPDEST PUSH1 0x0 DUP2 CALLDATALOAD SWAP1 POP PUSH2 0x37E DUP2 PUSH2 0x358 JUMP JUMPDEST SWAP3 SWAP2 POP POP JUMP JUMPDEST PUSH1 0x0 DUP1 PUSH1 0x40 DUP4 DUP6 SUB SLT ISZERO PUSH2 0x39B JUMPI PUSH2 0x39A PUSH2 0x315 JUMP JUMPDEST JUMPDEST PUSH1 0x0 PUSH2 0x3A9 DUP6 DUP3 DUP7 ADD PUSH2 0x343 JUMP JUMPDEST SWAP3 POP POP PUSH1 0x20 PUSH2 0x3BA DUP6 DUP3 DUP7 ADD PUSH2 0x36F JUMP JUMPDEST SWAP2 POP POP SWAP3 POP SWAP3 SWAP1 POP JUMP JUMPDEST PUSH1 0x0 DUP3 DUP3 MSTORE PUSH1 0x20 DUP3 ADD SWAP1 POP SWAP3 SWAP2 POP POP JUMP JUMPDEST PUSH32 0x4F6E6C79206F776E657200000000000000000000000000000000000000000000 PUSH1 0x0 DUP3 ADD MSTORE POP JUMP JUMPDEST PUSH1 0x0 PUSH2 0x40B PUSH1 0xA DUP4 PUSH2 0x3C4 JUMP JUMPDEST SWAP2 POP PUSH2 0x416 DUP3 PUSH2 0x3D5 JUMP JUMPDEST PUSH1 0x20 DUP3 ADD SWAP1 POP SWAP2 SWAP1 POP JUMP JUMPDEST PUSH1 0x0 PUSH1 0x20 DUP3 ADD SWAP1 POP DUP2 DUP2 SUB PUSH1 0x0 DUP4 ADD MSTORE PUSH2 0x43A DUP2 PUSH2 0x3FE JUMP JUMPDEST SWAP1 POP SWAP2 SWAP1 POP JUMP JUMPDEST PUSH1 0x0 DUP2 SWAP1 POP SWAP3 SWAP2 POP POP JUMP JUMPDEST POP JUMP JUMPDEST PUSH1 0x0 PUSH2 0x45C PUSH1 0x0 DUP4 PUSH2 0x441 JUMP JUMPDEST SWAP2 POP PUSH2 0x467 DUP3 PUSH2 0x44C JUMP JUMPDEST PUSH1 0x0 DUP3 ADD SWAP1 POP SWAP2 SWAP1 POP JUMP JUMPDEST PUSH1 0x0 PUSH2 0x47D DUP3 PUSH2 0x44F JUMP JUMPDEST SWAP2 POP DUP2 SWAP1 POP SWAP2 SWAP1 POP JUMP JUMPDEST PUSH32 0x63616C6C206661696C6564000000000000000000000000000000000000000000 PUSH1 0x0 DUP3 ADD MSTORE POP JUMP JUMPDEST PUSH1 0x0 PUSH2 0x4BD PUSH1 0xB DUP4 PUSH2 0x3C4 JUMP JUMPDEST SWAP2 POP PUSH2 0x4C8 DUP3 PUSH2 0x487 JUMP JUMPDEST PUSH1 0x20 DUP3 ADD SWAP1 POP SWAP2 SWAP1 POP JUMP JUMPDEST PUSH1 0x0 PUSH1 0x20 DUP3 ADD SWAP1 POP DUP2 DUP2 SUB PUSH1 0x0 DUP4 ADD MSTORE PUSH2 0x4EC DUP2 PUSH2 0x4B0 JUMP JUMPDEST SWAP1 POP SWAP2 SWAP1 POP JUMP INVALID LOG2 PUSH5 0x6970667358 0x22 SLT KECCAK256 RETURN PUSH5 0xACB65869D8 0xC9 KECCAK256 0xF6 DUP8 BLOCKHASH SLOAD DUP15 PUSH1 0x3D 0xB7 0xA8 INVALID SWAP12 SDIV DIFFICULTY PUSH14 0x24EC1F93CBF34F525D64736F6C63 NUMBER STOP ADDMOD ADDMOD STOP CALLER "
				},
				"gasEstimates": {
					"creation": {
						"codeDepositCost": "264200",
						"executionCost": "24548",
						"totalCost": "288748"
					},
					"external": {
						"getBalance()": "317",
						"owner()": "2511",
						"sendViaCall(address,uint256)": "infinite"
					}
				},
				"methodIdentifiers": {
					"getBalance()": "12065fe0",
					"owner()": "8da5cb5b",
					"sendViaCall(address,uint256)": "e4dc4f55"
				}
			},
			"storageLayout": {
				"storage": [
					{
						"astId": 3,
						"contract": "Contract  ^0.8.8/Charity.sol:Charity",
						"label": "owner",
						"offset": 0,
						"slot": "0",
						"type": "t_address"
					}
				],
				"types": {
					"t_address": {
						"encoding": "inplace",
						"label": "address",
						"numberOfBytes": "20"
					}
				}
			},
			"userdoc": {
				"kind": "user",
				"methods": {},
				"version": 1
			}
		}
	}
}