{
	"Contract  ^0.8.8/TestContract.sol": {
		"Test1": {
			"abi": [
				{
					"inputs": [],
					"stateMutability": "payable",
					"type": "constructor"
				},
				{
					"anonymous": false,
					"inputs": [
						{
							"indexed": false,
							"internalType": "uint256",
							"name": "amount",
							"type": "uint256"
						},
						{
							"indexed": false,
							"internalType": "uint256",
							"name": "gas",
							"type": "uint256"
						}
					],
					"name": "Log",
					"type": "event"
				},
				{
					"inputs": [],
					"name": "getBalance",
					"outputs": [
						{
							"internalType": "uint256",
							"name": "",
							"type": "uint256"
						}
					],
					"stateMutability": "view",
					"type": "function"
				},
				{
					"inputs": [],
					"name": "owner",
					"outputs": [
						{
							"internalType": "address",
							"name": "",
							"type": "address"
						}
					],
					"stateMutability": "view",
					"type": "function"
				},
				{
					"inputs": [
						{
							"internalType": "address payable",
							"name": "_to",
							"type": "address"
						}
					],
					"name": "sendViaCall",
					"outputs": [],
					"stateMutability": "payable",
					"type": "function"
				},
				{
					"stateMutability": "payable",
					"type": "receive"
				}
			],
			"devdoc": {
				"kind": "dev",
				"methods": {},
				"version": 1
			},
			"evm": {
				"assembly": "    /* \"Contract  ^0.8.8/TestContract.sol\":133:830  contract Test1{... */\n  mstore(0x40, 0x80)\n    /* \"Contract  ^0.8.8/TestContract.sol\":264:274  msg.sender */\n  caller\n    /* \"Contract  ^0.8.8/TestContract.sol\":258:263  owner */\n  0x00\n  dup1\n    /* \"Contract  ^0.8.8/TestContract.sol\":258:274  owner=msg.sender */\n  0x0100\n  exp\n  dup2\n  sload\n  dup2\n  0xffffffffffffffffffffffffffffffffffffffff\n  mul\n  not\n  and\n  swap1\n  dup4\n  0xffffffffffffffffffffffffffffffffffffffff\n  and\n  mul\n  or\n  swap1\n  sstore\n  pop\n    /* \"Contract  ^0.8.8/TestContract.sol\":133:830  contract Test1{... */\n  dataSize(sub_0)\n  dup1\n  dataOffset(sub_0)\n  0x00\n  codecopy\n  0x00\n  return\nstop\n\nsub_0: assembly {\n        /* \"Contract  ^0.8.8/TestContract.sol\":133:830  contract Test1{... */\n      mstore(0x40, 0x80)\n      jumpi(tag_1, lt(calldatasize, 0x04))\n      shr(0xe0, calldataload(0x00))\n      dup1\n      0x12065fe0\n      eq\n      tag_3\n      jumpi\n      dup1\n      0x830c29ae\n      eq\n      tag_4\n      jumpi\n      dup1\n      0x8da5cb5b\n      eq\n      tag_5\n      jumpi\n      jump(tag_2)\n    tag_1:\n      jumpi(tag_2, calldatasize)\n        /* \"Contract  ^0.8.8/TestContract.sol\":404:428  Log(msg.value,gasleft()) */\n      0xbd0faddf87043dd749c1b9d4dca8a12589b8cb5e2106832111ce23f219b14367\n        /* \"Contract  ^0.8.8/TestContract.sol\":408:417  msg.value */\n      callvalue\n        /* \"Contract  ^0.8.8/TestContract.sol\":418:427  gasleft() */\n      gas\n        /* \"Contract  ^0.8.8/TestContract.sol\":404:428  Log(msg.value,gasleft()) */\n      mload(0x40)\n      tag_8\n      swap3\n      swap2\n      swap1\n      tag_9\n      jump\t// in\n    tag_8:\n      mload(0x40)\n      dup1\n      swap2\n      sub\n      swap1\n      log1\n        /* \"Contract  ^0.8.8/TestContract.sol\":133:830  contract Test1{... */\n      stop\n    tag_2:\n      0x00\n      dup1\n      revert\n        /* \"Contract  ^0.8.8/TestContract.sol\":544:639  function getBalance() public view returns(uint256){... */\n    tag_3:\n      callvalue\n      dup1\n      iszero\n      tag_10\n      jumpi\n      0x00\n      dup1\n      revert\n    tag_10:\n      pop\n      tag_11\n      tag_12\n      jump\t// in\n    tag_11:\n      mload(0x40)\n      tag_13\n      swap2\n      swap1\n      tag_14\n      jump\t// in\n    tag_13:\n      mload(0x40)\n      dup1\n      swap2\n      sub\n      swap1\n      return\n        /* \"Contract  ^0.8.8/TestContract.sol\":648:823  function sendViaCall(address payable _to) public payable OnlyOwner(msg.sender){... */\n    tag_4:\n      tag_15\n      0x04\n      dup1\n      calldatasize\n      sub\n      dup2\n      add\n      swap1\n      tag_16\n      swap2\n      swap1\n      tag_17\n      jump\t// in\n    tag_16:\n      tag_18\n      jump\t// in\n    tag_15:\n      stop\n        /* \"Contract  ^0.8.8/TestContract.sol\":181:201  address public owner */\n    tag_5:\n      callvalue\n      dup1\n      iszero\n      tag_19\n      jumpi\n      0x00\n      dup1\n      revert\n    tag_19:\n      pop\n      tag_20\n      tag_21\n      jump\t// in\n    tag_20:\n      mload(0x40)\n      tag_22\n      swap2\n      swap1\n      tag_23\n      jump\t// in\n    tag_22:\n      mload(0x40)\n      dup1\n      swap2\n      sub\n      swap1\n      return\n        /* \"Contract  ^0.8.8/TestContract.sol\":544:639  function getBalance() public view returns(uint256){... */\n    tag_12:\n        /* \"Contract  ^0.8.8/TestContract.sol\":586:593  uint256 */\n      0x00\n        /* \"Contract  ^0.8.8/TestContract.sol\":611:632  address(this).balance */\n      selfbalance\n        /* \"Contract  ^0.8.8/TestContract.sol\":604:632  return address(this).balance */\n      swap1\n      pop\n        /* \"Contract  ^0.8.8/TestContract.sol\":544:639  function getBalance() public view returns(uint256){... */\n      swap1\n      jump\t// out\n        /* \"Contract  ^0.8.8/TestContract.sol\":648:823  function sendViaCall(address payable _to) public payable OnlyOwner(msg.sender){... */\n    tag_18:\n        /* \"Contract  ^0.8.8/TestContract.sol\":715:725  msg.sender */\n      caller\n        /* \"Contract  ^0.8.8/TestContract.sol\":502:507  owner */\n      0x00\n      dup1\n      sload\n      swap1\n      0x0100\n      exp\n      swap1\n      div\n      0xffffffffffffffffffffffffffffffffffffffff\n      and\n        /* \"Contract  ^0.8.8/TestContract.sol\":490:507  msg.sender==owner */\n      0xffffffffffffffffffffffffffffffffffffffff\n      and\n        /* \"Contract  ^0.8.8/TestContract.sol\":490:500  msg.sender */\n      caller\n        /* \"Contract  ^0.8.8/TestContract.sol\":490:507  msg.sender==owner */\n      0xffffffffffffffffffffffffffffffffffffffff\n      and\n      eq\n        /* \"Contract  ^0.8.8/TestContract.sol\":482:521  require(msg.sender==owner,\"Only owner\") */\n      tag_26\n      jumpi\n      mload(0x40)\n      0x08c379a000000000000000000000000000000000000000000000000000000000\n      dup2\n      mstore\n      0x04\n      add\n      tag_27\n      swap1\n      tag_28\n      jump\t// in\n    tag_27:\n      mload(0x40)\n      dup1\n      swap2\n      sub\n      swap1\n      revert\n    tag_26:\n        /* \"Contract  ^0.8.8/TestContract.sol\":737:749  bool success */\n      0x00\n        /* \"Contract  ^0.8.8/TestContract.sol\":754:757  _to */\n      dup3\n        /* \"Contract  ^0.8.8/TestContract.sol\":754:762  _to.call */\n      0xffffffffffffffffffffffffffffffffffffffff\n      and\n        /* \"Contract  ^0.8.8/TestContract.sol\":769:770  1 */\n      0x01\n        /* \"Contract  ^0.8.8/TestContract.sol\":754:775  _to.call{value:1}(\"\") */\n      mload(0x40)\n      tag_30\n      swap1\n      tag_31\n      jump\t// in\n    tag_30:\n      0x00\n      mload(0x40)\n      dup1\n      dup4\n      sub\n      dup2\n      dup6\n      dup8\n      gas\n      call\n      swap3\n      pop\n      pop\n      pop\n      returndatasize\n      dup1\n      0x00\n      dup2\n      eq\n      tag_34\n      jumpi\n      mload(0x40)\n      swap2\n      pop\n      and(add(returndatasize, 0x3f), not(0x1f))\n      dup3\n      add\n      0x40\n      mstore\n      returndatasize\n      dup3\n      mstore\n      returndatasize\n      0x00\n      0x20\n      dup5\n      add\n      returndatacopy\n      jump(tag_33)\n    tag_34:\n      0x60\n      swap2\n      pop\n    tag_33:\n      pop\n        /* \"Contract  ^0.8.8/TestContract.sol\":736:775  (bool success, )= _to.call{value:1}(\"\") */\n      pop\n      swap1\n      pop\n        /* \"Contract  ^0.8.8/TestContract.sol\":793:800  success */\n      dup1\n        /* \"Contract  ^0.8.8/TestContract.sol\":785:816  require(success, \"call failed\") */\n      tag_35\n      jumpi\n      mload(0x40)\n      0x08c379a000000000000000000000000000000000000000000000000000000000\n      dup2\n      mstore\n      0x04\n      add\n      tag_36\n      swap1\n      tag_37\n      jump\t// in\n    tag_36:\n      mload(0x40)\n      dup1\n      swap2\n      sub\n      swap1\n      revert\n    tag_35:\n        /* \"Contract  ^0.8.8/TestContract.sol\":726:823  {... */\n      pop\n        /* \"Contract  ^0.8.8/TestContract.sol\":648:823  function sendViaCall(address payable _to) public payable OnlyOwner(msg.sender){... */\n      pop\n      pop\n      jump\t// out\n        /* \"Contract  ^0.8.8/TestContract.sol\":181:201  address public owner */\n    tag_21:\n      0x00\n      dup1\n      sload\n      swap1\n      0x0100\n      exp\n      swap1\n      div\n      0xffffffffffffffffffffffffffffffffffffffff\n      and\n      dup2\n      jump\t// out\n        /* \"#utility.yul\":7:84   */\n    tag_38:\n        /* \"#utility.yul\":44:51   */\n      0x00\n        /* \"#utility.yul\":73:78   */\n      dup2\n        /* \"#utility.yul\":62:78   */\n      swap1\n      pop\n        /* \"#utility.yul\":7:84   */\n      swap2\n      swap1\n      pop\n      jump\t// out\n        /* \"#utility.yul\":90:208   */\n    tag_39:\n        /* \"#utility.yul\":177:201   */\n      tag_60\n        /* \"#utility.yul\":195:200   */\n      dup2\n        /* \"#utility.yul\":177:201   */\n      tag_38\n      jump\t// in\n    tag_60:\n        /* \"#utility.yul\":172:175   */\n      dup3\n        /* \"#utility.yul\":165:202   */\n      mstore\n        /* \"#utility.yul\":90:208   */\n      pop\n      pop\n      jump\t// out\n        /* \"#utility.yul\":214:546   */\n    tag_9:\n        /* \"#utility.yul\":335:339   */\n      0x00\n        /* \"#utility.yul\":373:375   */\n      0x40\n        /* \"#utility.yul\":362:371   */\n      dup3\n        /* \"#utility.yul\":358:376   */\n      add\n        /* \"#utility.yul\":350:376   */\n      swap1\n      pop\n        /* \"#utility.yul\":386:457   */\n      tag_62\n        /* \"#utility.yul\":454:455   */\n      0x00\n        /* \"#utility.yul\":443:452   */\n      dup4\n        /* \"#utility.yul\":439:456   */\n      add\n        /* \"#utility.yul\":430:436   */\n      dup6\n        /* \"#utility.yul\":386:457   */\n      tag_39\n      jump\t// in\n    tag_62:\n        /* \"#utility.yul\":467:539   */\n      tag_63\n        /* \"#utility.yul\":535:537   */\n      0x20\n        /* \"#utility.yul\":524:533   */\n      dup4\n        /* \"#utility.yul\":520:538   */\n      add\n        /* \"#utility.yul\":511:517   */\n      dup5\n        /* \"#utility.yul\":467:539   */\n      tag_39\n      jump\t// in\n    tag_63:\n        /* \"#utility.yul\":214:546   */\n      swap4\n      swap3\n      pop\n      pop\n      pop\n      jump\t// out\n        /* \"#utility.yul\":552:774   */\n    tag_14:\n        /* \"#utility.yul\":645:649   */\n      0x00\n        /* \"#utility.yul\":683:685   */\n      0x20\n        /* \"#utility.yul\":672:681   */\n      dup3\n        /* \"#utility.yul\":668:686   */\n      add\n        /* \"#utility.yul\":660:686   */\n      swap1\n      pop\n        /* \"#utility.yul\":696:767   */\n      tag_65\n        /* \"#utility.yul\":764:765   */\n      0x00\n        /* \"#utility.yul\":753:762   */\n      dup4\n        /* \"#utility.yul\":749:766   */\n      add\n        /* \"#utility.yul\":740:746   */\n      dup5\n        /* \"#utility.yul\":696:767   */\n      tag_39\n      jump\t// in\n    tag_65:\n        /* \"#utility.yul\":552:774   */\n      swap3\n      swap2\n      pop\n      pop\n      jump\t// out\n        /* \"#utility.yul\":861:978   */\n    tag_41:\n        /* \"#utility.yul\":970:971   */\n      0x00\n        /* \"#utility.yul\":967:968   */\n      dup1\n        /* \"#utility.yul\":960:972   */\n      revert\n        /* \"#utility.yul\":1107:1233   */\n    tag_43:\n        /* \"#utility.yul\":1144:1151   */\n      0x00\n        /* \"#utility.yul\":1184:1226   */\n      0xffffffffffffffffffffffffffffffffffffffff\n        /* \"#utility.yul\":1177:1182   */\n      dup3\n        /* \"#utility.yul\":1173:1227   */\n      and\n        /* \"#utility.yul\":1162:1227   */\n      swap1\n      pop\n        /* \"#utility.yul\":1107:1233   */\n      swap2\n      swap1\n      pop\n      jump\t// out\n        /* \"#utility.yul\":1239:1343   */\n    tag_44:\n        /* \"#utility.yul\":1284:1291   */\n      0x00\n        /* \"#utility.yul\":1313:1337   */\n      tag_71\n        /* \"#utility.yul\":1331:1336   */\n      dup3\n        /* \"#utility.yul\":1313:1337   */\n      tag_43\n      jump\t// in\n    tag_71:\n        /* \"#utility.yul\":1302:1337   */\n      swap1\n      pop\n        /* \"#utility.yul\":1239:1343   */\n      swap2\n      swap1\n      pop\n      jump\t// out\n        /* \"#utility.yul\":1349:1487   */\n    tag_45:\n        /* \"#utility.yul\":1430:1462   */\n      tag_73\n        /* \"#utility.yul\":1456:1461   */\n      dup2\n        /* \"#utility.yul\":1430:1462   */\n      tag_44\n      jump\t// in\n    tag_73:\n        /* \"#utility.yul\":1423:1428   */\n      dup2\n        /* \"#utility.yul\":1420:1463   */\n      eq\n        /* \"#utility.yul\":1410:1481   */\n      tag_74\n      jumpi\n        /* \"#utility.yul\":1477:1478   */\n      0x00\n        /* \"#utility.yul\":1474:1475   */\n      dup1\n        /* \"#utility.yul\":1467:1479   */\n      revert\n        /* \"#utility.yul\":1410:1481   */\n    tag_74:\n        /* \"#utility.yul\":1349:1487   */\n      pop\n      jump\t// out\n        /* \"#utility.yul\":1493:1648   */\n    tag_46:\n        /* \"#utility.yul\":1547:1552   */\n      0x00\n        /* \"#utility.yul\":1585:1591   */\n      dup2\n        /* \"#utility.yul\":1572:1592   */\n      calldataload\n        /* \"#utility.yul\":1563:1592   */\n      swap1\n      pop\n        /* \"#utility.yul\":1601:1642   */\n      tag_76\n        /* \"#utility.yul\":1636:1641   */\n      dup2\n        /* \"#utility.yul\":1601:1642   */\n      tag_45\n      jump\t// in\n    tag_76:\n        /* \"#utility.yul\":1493:1648   */\n      swap3\n      swap2\n      pop\n      pop\n      jump\t// out\n        /* \"#utility.yul\":1654:1999   */\n    tag_17:\n        /* \"#utility.yul\":1721:1727   */\n      0x00\n        /* \"#utility.yul\":1770:1772   */\n      0x20\n        /* \"#utility.yul\":1758:1767   */\n      dup3\n        /* \"#utility.yul\":1749:1756   */\n      dup5\n        /* \"#utility.yul\":1745:1768   */\n      sub\n        /* \"#utility.yul\":1741:1773   */\n      slt\n        /* \"#utility.yul\":1738:1857   */\n      iszero\n      tag_78\n      jumpi\n        /* \"#utility.yul\":1776:1855   */\n      tag_79\n      tag_41\n      jump\t// in\n    tag_79:\n        /* \"#utility.yul\":1738:1857   */\n    tag_78:\n        /* \"#utility.yul\":1896:1897   */\n      0x00\n        /* \"#utility.yul\":1921:1982   */\n      tag_80\n        /* \"#utility.yul\":1974:1981   */\n      dup5\n        /* \"#utility.yul\":1965:1971   */\n      dup3\n        /* \"#utility.yul\":1954:1963   */\n      dup6\n        /* \"#utility.yul\":1950:1972   */\n      add\n        /* \"#utility.yul\":1921:1982   */\n      tag_46\n      jump\t// in\n    tag_80:\n        /* \"#utility.yul\":1911:1982   */\n      swap2\n      pop\n        /* \"#utility.yul\":1867:1992   */\n      pop\n        /* \"#utility.yul\":1654:1999   */\n      swap3\n      swap2\n      pop\n      pop\n      jump\t// out\n        /* \"#utility.yul\":2005:2101   */\n    tag_47:\n        /* \"#utility.yul\":2042:2049   */\n      0x00\n        /* \"#utility.yul\":2071:2095   */\n      tag_82\n        /* \"#utility.yul\":2089:2094   */\n      dup3\n        /* \"#utility.yul\":2071:2095   */\n      tag_43\n      jump\t// in\n    tag_82:\n        /* \"#utility.yul\":2060:2095   */\n      swap1\n      pop\n        /* \"#utility.yul\":2005:2101   */\n      swap2\n      swap1\n      pop\n      jump\t// out\n        /* \"#utility.yul\":2107:2225   */\n    tag_48:\n        /* \"#utility.yul\":2194:2218   */\n      tag_84\n        /* \"#utility.yul\":2212:2217   */\n      dup2\n        /* \"#utility.yul\":2194:2218   */\n      tag_47\n      jump\t// in\n    tag_84:\n        /* \"#utility.yul\":2189:2192   */\n      dup3\n        /* \"#utility.yul\":2182:2219   */\n      mstore\n        /* \"#utility.yul\":2107:2225   */\n      pop\n      pop\n      jump\t// out\n        /* \"#utility.yul\":2231:2453   */\n    tag_23:\n        /* \"#utility.yul\":2324:2328   */\n      0x00\n        /* \"#utility.yul\":2362:2364   */\n      0x20\n        /* \"#utility.yul\":2351:2360   */\n      dup3\n        /* \"#utility.yul\":2347:2365   */\n      add\n        /* \"#utility.yul\":2339:2365   */\n      swap1\n      pop\n        /* \"#utility.yul\":2375:2446   */\n      tag_86\n        /* \"#utility.yul\":2443:2444   */\n      0x00\n        /* \"#utility.yul\":2432:2441   */\n      dup4\n        /* \"#utility.yul\":2428:2445   */\n      add\n        /* \"#utility.yul\":2419:2425   */\n      dup5\n        /* \"#utility.yul\":2375:2446   */\n      tag_48\n      jump\t// in\n    tag_86:\n        /* \"#utility.yul\":2231:2453   */\n      swap3\n      swap2\n      pop\n      pop\n      jump\t// out\n        /* \"#utility.yul\":2459:2628   */\n    tag_49:\n        /* \"#utility.yul\":2543:2554   */\n      0x00\n        /* \"#utility.yul\":2577:2583   */\n      dup3\n        /* \"#utility.yul\":2572:2575   */\n      dup3\n        /* \"#utility.yul\":2565:2584   */\n      mstore\n        /* \"#utility.yul\":2617:2621   */\n      0x20\n        /* \"#utility.yul\":2612:2615   */\n      dup3\n        /* \"#utility.yul\":2608:2622   */\n      add\n        /* \"#utility.yul\":2593:2622   */\n      swap1\n      pop\n        /* \"#utility.yul\":2459:2628   */\n      swap3\n      swap2\n      pop\n      pop\n      jump\t// out\n        /* \"#utility.yul\":2634:2794   */\n    tag_50:\n        /* \"#utility.yul\":2774:2786   */\n      0x4f6e6c79206f776e657200000000000000000000000000000000000000000000\n        /* \"#utility.yul\":2770:2771   */\n      0x00\n        /* \"#utility.yul\":2762:2768   */\n      dup3\n        /* \"#utility.yul\":2758:2772   */\n      add\n        /* \"#utility.yul\":2751:2787   */\n      mstore\n        /* \"#utility.yul\":2634:2794   */\n      pop\n      jump\t// out\n        /* \"#utility.yul\":2800:3166   */\n    tag_51:\n        /* \"#utility.yul\":2942:2945   */\n      0x00\n        /* \"#utility.yul\":2963:3030   */\n      tag_90\n        /* \"#utility.yul\":3027:3029   */\n      0x0a\n        /* \"#utility.yul\":3022:3025   */\n      dup4\n        /* \"#utility.yul\":2963:3030   */\n      tag_49\n      jump\t// in\n    tag_90:\n        /* \"#utility.yul\":2956:3030   */\n      swap2\n      pop\n        /* \"#utility.yul\":3039:3132   */\n      tag_91\n        /* \"#utility.yul\":3128:3131   */\n      dup3\n        /* \"#utility.yul\":3039:3132   */\n      tag_50\n      jump\t// in\n    tag_91:\n        /* \"#utility.yul\":3157:3159   */\n      0x20\n        /* \"#utility.yul\":3152:3155   */\n      dup3\n        /* \"#utility.yul\":3148:3160   */\n      add\n        /* \"#utility.yul\":3141:3160   */\n      swap1\n      pop\n        /* \"#utility.yul\":2800:3166   */\n      swap2\n      swap1\n      pop\n      jump\t// out\n        /* \"#utility.yul\":3172:3591   */\n    tag_28:\n        /* \"#utility.yul\":3338:3342   */\n      0x00\n        /* \"#utility.yul\":3376:3378   */\n      0x20\n        /* \"#utility.yul\":3365:3374   */\n      dup3\n        /* \"#utility.yul\":3361:3379   */\n      add\n        /* \"#utility.yul\":3353:3379   */\n      swap1\n      pop\n        /* \"#utility.yul\":3425:3434   */\n      dup2\n        /* \"#utility.yul\":3419:3423   */\n      dup2\n        /* \"#utility.yul\":3415:3435   */\n      sub\n        /* \"#utility.yul\":3411:3412   */\n      0x00\n        /* \"#utility.yul\":3400:3409   */\n      dup4\n        /* \"#utility.yul\":3396:3413   */\n      add\n        /* \"#utility.yul\":3389:3436   */\n      mstore\n        /* \"#utility.yul\":3453:3584   */\n      tag_93\n        /* \"#utility.yul\":3579:3583   */\n      dup2\n        /* \"#utility.yul\":3453:3584   */\n      tag_51\n      jump\t// in\n    tag_93:\n        /* \"#utility.yul\":3445:3584   */\n      swap1\n      pop\n        /* \"#utility.yul\":3172:3591   */\n      swap2\n      swap1\n      pop\n      jump\t// out\n        /* \"#utility.yul\":3597:3744   */\n    tag_52:\n        /* \"#utility.yul\":3698:3709   */\n      0x00\n        /* \"#utility.yul\":3735:3738   */\n      dup2\n        /* \"#utility.yul\":3720:3738   */\n      swap1\n      pop\n        /* \"#utility.yul\":3597:3744   */\n      swap3\n      swap2\n      pop\n      pop\n      jump\t// out\n        /* \"#utility.yul\":3750:3864   */\n    tag_53:\n      pop\n      jump\t// out\n        /* \"#utility.yul\":3870:4268   */\n    tag_54:\n        /* \"#utility.yul\":4029:4032   */\n      0x00\n        /* \"#utility.yul\":4050:4133   */\n      tag_97\n        /* \"#utility.yul\":4131:4132   */\n      0x00\n        /* \"#utility.yul\":4126:4129   */\n      dup4\n        /* \"#utility.yul\":4050:4133   */\n      tag_52\n      jump\t// in\n    tag_97:\n        /* \"#utility.yul\":4043:4133   */\n      swap2\n      pop\n        /* \"#utility.yul\":4142:4235   */\n      tag_98\n        /* \"#utility.yul\":4231:4234   */\n      dup3\n        /* \"#utility.yul\":4142:4235   */\n      tag_53\n      jump\t// in\n    tag_98:\n        /* \"#utility.yul\":4260:4261   */\n      0x00\n        /* \"#utility.yul\":4255:4258   */\n      dup3\n        /* \"#utility.yul\":4251:4262   */\n      add\n        /* \"#utility.yul\":4244:4262   */\n      swap1\n      pop\n        /* \"#utility.yul\":3870:4268   */\n      swap2\n      swap1\n      pop\n      jump\t// out\n        /* \"#utility.yul\":4274:4653   */\n    tag_31:\n        /* \"#utility.yul\":4458:4461   */\n      0x00\n        /* \"#utility.yul\":4480:4627   */\n      tag_100\n        /* \"#utility.yul\":4623:4626   */\n      dup3\n        /* \"#utility.yul\":4480:4627   */\n      tag_54\n      jump\t// in\n    tag_100:\n        /* \"#utility.yul\":4473:4627   */\n      swap2\n      pop\n        /* \"#utility.yul\":4644:4647   */\n      dup2\n        /* \"#utility.yul\":4637:4647   */\n      swap1\n      pop\n        /* \"#utility.yul\":4274:4653   */\n      swap2\n      swap1\n      pop\n      jump\t// out\n        /* \"#utility.yul\":4659:4820   */\n    tag_55:\n        /* \"#utility.yul\":4799:4812   */\n      0x63616c6c206661696c6564000000000000000000000000000000000000000000\n        /* \"#utility.yul\":4795:4796   */\n      0x00\n        /* \"#utility.yul\":4787:4793   */\n      dup3\n        /* \"#utility.yul\":4783:4797   */\n      add\n        /* \"#utility.yul\":4776:4813   */\n      mstore\n        /* \"#utility.yul\":4659:4820   */\n      pop\n      jump\t// out\n        /* \"#utility.yul\":4826:5192   */\n    tag_56:\n        /* \"#utility.yul\":4968:4971   */\n      0x00\n        /* \"#utility.yul\":4989:5056   */\n      tag_103\n        /* \"#utility.yul\":5053:5055   */\n      0x0b\n        /* \"#utility.yul\":5048:5051   */\n      dup4\n        /* \"#utility.yul\":4989:5056   */\n      tag_49\n      jump\t// in\n    tag_103:\n        /* \"#utility.yul\":4982:5056   */\n      swap2\n      pop\n        /* \"#utility.yul\":5065:5158   */\n      tag_104\n        /* \"#utility.yul\":5154:5157   */\n      dup3\n        /* \"#utility.yul\":5065:5158   */\n      tag_55\n      jump\t// in\n    tag_104:\n        /* \"#utility.yul\":5183:5185   */\n      0x20\n        /* \"#utility.yul\":5178:5181   */\n      dup3\n        /* \"#utility.yul\":5174:5186   */\n      add\n        /* \"#utility.yul\":5167:5186   */\n      swap1\n      pop\n        /* \"#utility.yul\":4826:5192   */\n      swap2\n      swap1\n      pop\n      jump\t// out\n        /* \"#utility.yul\":5198:5617   */\n    tag_37:\n        /* \"#utility.yul\":5364:5368   */\n      0x00\n        /* \"#utility.yul\":5402:5404   */\n      0x20\n        /* \"#utility.yul\":5391:5400   */\n      dup3\n        /* \"#utility.yul\":5387:5405   */\n      add\n        /* \"#utility.yul\":5379:5405   */\n      swap1\n      pop\n        /* \"#utility.yul\":5451:5460   */\n      dup2\n        /* \"#utility.yul\":5445:5449   */\n      dup2\n        /* \"#utility.yul\":5441:5461   */\n      sub\n        /* \"#utility.yul\":5437:5438   */\n      0x00\n        /* \"#utility.yul\":5426:5435   */\n      dup4\n        /* \"#utility.yul\":5422:5439   */\n      add\n        /* \"#utility.yul\":5415:5462   */\n      mstore\n        /* \"#utility.yul\":5479:5610   */\n      tag_106\n        /* \"#utility.yul\":5605:5609   */\n      dup2\n        /* \"#utility.yul\":5479:5610   */\n      tag_56\n      jump\t// in\n    tag_106:\n        /* \"#utility.yul\":5471:5610   */\n      swap1\n      pop\n        /* \"#utility.yul\":5198:5617   */\n      swap2\n      swap1\n      pop\n      jump\t// out\n\n    auxdata: 0xa264697066735822122028ba17487a08a7c3a1ee8b465eef5b0538df6ddd59c75220f359fcf484b1ddf364736f6c63430008080033\n}\n",
				"bytecode": {
					"linkReferences": {},
					"object": "6080604052336000806101000a81548173ffffffffffffffffffffffffffffffffffffffff021916908373ffffffffffffffffffffffffffffffffffffffff1602179055506104ea806100536000396000f3fe6080604052600436106100385760003560e01c806312065fe01461007d578063830c29ae146100a85780638da5cb5b146100c457610078565b36610078577fbd0faddf87043dd749c1b9d4dca8a12589b8cb5e2106832111ce23f219b14367345a60405161006e929190610275565b60405180910390a1005b600080fd5b34801561008957600080fd5b506100926100ef565b60405161009f919061029e565b60405180910390f35b6100c260048036038101906100bd919061031c565b6100f7565b005b3480156100d057600080fd5b506100d9610238565b6040516100e6919061036a565b60405180910390f35b600047905090565b3360008054906101000a900473ffffffffffffffffffffffffffffffffffffffff1673ffffffffffffffffffffffffffffffffffffffff163373ffffffffffffffffffffffffffffffffffffffff1614610186576040517f08c379a000000000000000000000000000000000000000000000000000000000815260040161017d906103e2565b60405180910390fd5b60008273ffffffffffffffffffffffffffffffffffffffff1660016040516101ad90610433565b60006040518083038185875af1925050503d80600081146101ea576040519150601f19603f3d011682016040523d82523d6000602084013e6101ef565b606091505b5050905080610233576040517f08c379a000000000000000000000000000000000000000000000000000000000815260040161022a90610494565b60405180910390fd5b505050565b60008054906101000a900473ffffffffffffffffffffffffffffffffffffffff1681565b6000819050919050565b61026f8161025c565b82525050565b600060408201905061028a6000830185610266565b6102976020830184610266565b9392505050565b60006020820190506102b36000830184610266565b92915050565b600080fd5b600073ffffffffffffffffffffffffffffffffffffffff82169050919050565b60006102e9826102be565b9050919050565b6102f9816102de565b811461030457600080fd5b50565b600081359050610316816102f0565b92915050565b600060208284031215610332576103316102b9565b5b600061034084828501610307565b91505092915050565b6000610354826102be565b9050919050565b61036481610349565b82525050565b600060208201905061037f600083018461035b565b92915050565b600082825260208201905092915050565b7f4f6e6c79206f776e657200000000000000000000000000000000000000000000600082015250565b60006103cc600a83610385565b91506103d782610396565b602082019050919050565b600060208201905081810360008301526103fb816103bf565b9050919050565b600081905092915050565b50565b600061041d600083610402565b91506104288261040d565b600082019050919050565b600061043e82610410565b9150819050919050565b7f63616c6c206661696c6564000000000000000000000000000000000000000000600082015250565b600061047e600b83610385565b915061048982610448565b602082019050919050565b600060208201905081810360008301526104ad81610471565b905091905056fea264697066735822122028ba17487a08a7c3a1ee8b465eef5b0538df6ddd59c75220f359fcf484b1ddf364736f6c63430008080033",
					"opcodes": "PUSH1 0x80 PUSH1 0x40 MSTORE CALLER PUSH1 0x0 DUP1 PUSH2 0x100 EXP DUP2 SLOAD DUP2 PUSH20 0xFFFFFFFFFFFFFFFFFFFFFFFFFFFFFFFFFFFFFFFF MUL NOT AND SWAP1 DUP4 PUSH20 0xFFFFFFFFFFFFFFFFFFFFFFFFFFFFFFFFFFFFFFFF AND MUL OR SWAP1 SSTORE POP PUSH2 0x4EA DUP1 PUSH2 0x53 PUSH1 0x0 CODECOPY PUSH1 0x0 RETURN INVALID PUSH1 0x80 PUSH1 0x40 MSTORE PUSH1 0x4 CALLDATASIZE LT PUSH2 0x38 JUMPI PUSH1 0x0 CALLDATALOAD PUSH1 0xE0 SHR DUP1 PUSH4 0x12065FE0 EQ PUSH2 0x7D JUMPI DUP1 PUSH4 0x830C29AE EQ PUSH2 0xA8 JUMPI DUP1 PUSH4 0x8DA5CB5B EQ PUSH2 0xC4 JUMPI PUSH2 0x78 JUMP JUMPDEST CALLDATASIZE PUSH2 0x78 JUMPI PUSH32 0xBD0FADDF87043DD749C1B9D4DCA8A12589B8CB5E2106832111CE23F219B14367 CALLVALUE GAS PUSH1 0x40 MLOAD PUSH2 0x6E SWAP3 SWAP2 SWAP1 PUSH2 0x275 JUMP JUMPDEST PUSH1 0x40 MLOAD DUP1 SWAP2 SUB SWAP1 LOG1 STOP JUMPDEST PUSH1 0x0 DUP1 REVERT JUMPDEST CALLVALUE DUP1 ISZERO PUSH2 0x89 JUMPI PUSH1 0x0 DUP1 REVERT JUMPDEST POP PUSH2 0x92 PUSH2 0xEF JUMP JUMPDEST PUSH1 0x40 MLOAD PUSH2 0x9F SWAP2 SWAP1 PUSH2 0x29E JUMP JUMPDEST PUSH1 0x40 MLOAD DUP1 SWAP2 SUB SWAP1 RETURN JUMPDEST PUSH2 0xC2 PUSH1 0x4 DUP1 CALLDATASIZE SUB DUP2 ADD SWAP1 PUSH2 0xBD SWAP2 SWAP1 PUSH2 0x31C JUMP JUMPDEST PUSH2 0xF7 JUMP JUMPDEST STOP JUMPDEST CALLVALUE DUP1 ISZERO PUSH2 0xD0 JUMPI PUSH1 0x0 DUP1 REVERT JUMPDEST POP PUSH2 0xD9 PUSH2 0x238 JUMP JUMPDEST PUSH1 0x40 MLOAD PUSH2 0xE6 SWAP2 SWAP1 PUSH2 0x36A JUMP JUMPDEST PUSH1 0x40 MLOAD DUP1 SWAP2 SUB SWAP1 RETURN JUMPDEST PUSH1 0x0 SELFBALANCE SWAP1 POP SWAP1 JUMP JUMPDEST CALLER PUSH1 0x0 DUP1 SLOAD SWAP1 PUSH2 0x100 EXP SWAP1 DIV PUSH20 0xFFFFFFFFFFFFFFFFFFFFFFFFFFFFFFFFFFFFFFFF AND PUSH20 0xFFFFFFFFFFFFFFFFFFFFFFFFFFFFFFFFFFFFFFFF AND CALLER PUSH20 0xFFFFFFFFFFFFFFFFFFFFFFFFFFFFFFFFFFFFFFFF AND EQ PUSH2 0x186 JUMPI PUSH1 0x40 MLOAD PUSH32 0x8C379A000000000000000000000000000000000000000000000000000000000 DUP2 MSTORE PUSH1 0x4 ADD PUSH2 0x17D SWAP1 PUSH2 0x3E2 JUMP JUMPDEST PUSH1 0x40 MLOAD DUP1 SWAP2 SUB SWAP1 REVERT JUMPDEST PUSH1 0x0 DUP3 PUSH20 0xFFFFFFFFFFFFFFFFFFFFFFFFFFFFFFFFFFFFFFFF AND PUSH1 0x1 PUSH1 0x40 MLOAD PUSH2 0x1AD SWAP1 PUSH2 0x433 JUMP JUMPDEST PUSH1 0x0 PUSH1 0x40 MLOAD DUP1 DUP4 SUB DUP2 DUP6 DUP8 GAS CALL SWAP3 POP POP POP RETURNDATASIZE DUP1 PUSH1 0x0 DUP2 EQ PUSH2 0x1EA JUMPI PUSH1 0x40 MLOAD SWAP2 POP PUSH1 0x1F NOT PUSH1 0x3F RETURNDATASIZE ADD AND DUP3 ADD PUSH1 0x40 MSTORE RETURNDATASIZE DUP3 MSTORE RETURNDATASIZE PUSH1 0x0 PUSH1 0x20 DUP5 ADD RETURNDATACOPY PUSH2 0x1EF JUMP JUMPDEST PUSH1 0x60 SWAP2 POP JUMPDEST POP POP SWAP1 POP DUP1 PUSH2 0x233 JUMPI PUSH1 0x40 MLOAD PUSH32 0x8C379A000000000000000000000000000000000000000000000000000000000 DUP2 MSTORE PUSH1 0x4 ADD PUSH2 0x22A SWAP1 PUSH2 0x494 JUMP JUMPDEST PUSH1 0x40 MLOAD DUP1 SWAP2 SUB SWAP1 REVERT JUMPDEST POP POP POP JUMP JUMPDEST PUSH1 0x0 DUP1 SLOAD SWAP1 PUSH2 0x100 EXP SWAP1 DIV PUSH20 0xFFFFFFFFFFFFFFFFFFFFFFFFFFFFFFFFFFFFFFFF AND DUP2 JUMP JUMPDEST PUSH1 0x0 DUP2 SWAP1 POP SWAP2 SWAP1 POP JUMP JUMPDEST PUSH2 0x26F DUP2 PUSH2 0x25C JUMP JUMPDEST DUP3 MSTORE POP POP JUMP JUMPDEST PUSH1 0x0 PUSH1 0x40 DUP3 ADD SWAP1 POP PUSH2 0x28A PUSH1 0x0 DUP4 ADD DUP6 PUSH2 0x266 JUMP JUMPDEST PUSH2 0x297 PUSH1 0x20 DUP4 ADD DUP5 PUSH2 0x266 JUMP JUMPDEST SWAP4 SWAP3 POP POP POP JUMP JUMPDEST PUSH1 0x0 PUSH1 0x20 DUP3 ADD SWAP1 POP PUSH2 0x2B3 PUSH1 0x0 DUP4 ADD DUP5 PUSH2 0x266 JUMP JUMPDEST SWAP3 SWAP2 POP POP JUMP JUMPDEST PUSH1 0x0 DUP1 REVERT JUMPDEST PUSH1 0x0 PUSH20 0xFFFFFFFFFFFFFFFFFFFFFFFFFFFFFFFFFFFFFFFF DUP3 AND SWAP1 POP SWAP2 SWAP1 POP JUMP JUMPDEST PUSH1 0x0 PUSH2 0x2E9 DUP3 PUSH2 0x2BE JUMP JUMPDEST SWAP1 POP SWAP2 SWAP1 POP JUMP JUMPDEST PUSH2 0x2F9 DUP2 PUSH2 0x2DE JUMP JUMPDEST DUP2 EQ PUSH2 0x304 JUMPI PUSH1 0x0 DUP1 REVERT JUMPDEST POP JUMP JUMPDEST PUSH1 0x0 DUP2 CALLDATALOAD SWAP1 POP PUSH2 0x316 DUP2 PUSH2 0x2F0 JUMP JUMPDEST SWAP3 SWAP2 POP POP JUMP JUMPDEST PUSH1 0x0 PUSH1 0x20 DUP3 DUP5 SUB SLT ISZERO PUSH2 0x332 JUMPI PUSH2 0x331 PUSH2 0x2B9 JUMP JUMPDEST JUMPDEST PUSH1 0x0 PUSH2 0x340 DUP5 DUP3 DUP6 ADD PUSH2 0x307 JUMP JUMPDEST SWAP2 POP POP SWAP3 SWAP2 POP POP JUMP JUMPDEST PUSH1 0x0 PUSH2 0x354 DUP3 PUSH2 0x2BE JUMP JUMPDEST SWAP1 POP SWAP2 SWAP1 POP JUMP JUMPDEST PUSH2 0x364 DUP2 PUSH2 0x349 JUMP JUMPDEST DUP3 MSTORE POP POP JUMP JUMPDEST PUSH1 0x0 PUSH1 0x20 DUP3 ADD SWAP1 POP PUSH2 0x37F PUSH1 0x0 DUP4 ADD DUP5 PUSH2 0x35B JUMP JUMPDEST SWAP3 SWAP2 POP POP JUMP JUMPDEST PUSH1 0x0 DUP3 DUP3 MSTORE PUSH1 0x20 DUP3 ADD SWAP1 POP SWAP3 SWAP2 POP POP JUMP JUMPDEST PUSH32 0x4F6E6C79206F776E657200000000000000000000000000000000000000000000 PUSH1 0x0 DUP3 ADD MSTORE POP JUMP JUMPDEST PUSH1 0x0 PUSH2 0x3CC PUSH1 0xA DUP4 PUSH2 0x385 JUMP JUMPDEST SWAP2 POP PUSH2 0x3D7 DUP3 PUSH2 0x396 JUMP JUMPDEST PUSH1 0x20 DUP3 ADD SWAP1 POP SWAP2 SWAP1 POP JUMP JUMPDEST PUSH1 0x0 PUSH1 0x20 DUP3 ADD SWAP1 POP DUP2 DUP2 SUB PUSH1 0x0 DUP4 ADD MSTORE PUSH2 0x3FB DUP2 PUSH2 0x3BF JUMP JUMPDEST SWAP1 POP SWAP2 SWAP1 POP JUMP JUMPDEST PUSH1 0x0 DUP2 SWAP1 POP SWAP3 SWAP2 POP POP JUMP JUMPDEST POP JUMP JUMPDEST PUSH1 0x0 PUSH2 0x41D PUSH1 0x0 DUP4 PUSH2 0x402 JUMP JUMPDEST SWAP2 POP PUSH2 0x428 DUP3 PUSH2 0x40D JUMP JUMPDEST PUSH1 0x0 DUP3 ADD SWAP1 POP SWAP2 SWAP1 POP JUMP JUMPDEST PUSH1 0x0 PUSH2 0x43E DUP3 PUSH2 0x410 JUMP JUMPDEST SWAP2 POP DUP2 SWAP1 POP SWAP2 SWAP1 POP JUMP JUMPDEST PUSH32 0x63616C6C206661696C6564000000000000000000000000000000000000000000 PUSH1 0x0 DUP3 ADD MSTORE POP JUMP JUMPDEST PUSH1 0x0 PUSH2 0x47E PUSH1 0xB DUP4 PUSH2 0x385 JUMP JUMPDEST SWAP2 POP PUSH2 0x489 DUP3 PUSH2 0x448 JUMP JUMPDEST PUSH1 0x20 DUP3 ADD SWAP1 POP SWAP2 SWAP1 POP JUMP JUMPDEST PUSH1 0x0 PUSH1 0x20 DUP3 ADD SWAP1 POP DUP2 DUP2 SUB PUSH1 0x0 DUP4 ADD MSTORE PUSH2 0x4AD DUP2 PUSH2 0x471 JUMP JUMPDEST SWAP1 POP SWAP2 SWAP1 POP JUMP INVALID LOG2 PUSH5 0x6970667358 0x22 SLT KECCAK256 0x28 0xBA OR BASEFEE PUSH27 0x8A7C3A1EE8B465EEF5B0538DF6DDD59C75220F359FCF484B1DDF3 PUSH5 0x736F6C6343 STOP ADDMOD ADDMOD STOP CALLER "
				},
				"gasEstimates": {
					"creation": {
						"codeDepositCost": "251600",
						"executionCost": "24536",
						"totalCost": "276136"
					},
					"external": {
						"getBalance()": "317",
						"owner()": "2533",
						"sendViaCall(address)": "infinite"
					}
				},
				"methodIdentifiers": {
					"getBalance()": "12065fe0",
					"owner()": "8da5cb5b",
					"sendViaCall(address)": "830c29ae"
				}
			},
			"storageLayout": {
				"storage": [
					{
						"astId": 50,
						"contract": "Contract  ^0.8.8/TestContract.sol:Test1",
						"label": "owner",
						"offset": 0,
						"slot": "0",
						"type": "t_address"
					}
				],
				"types": {
					"t_address": {
						"encoding": "inplace",
						"label": "address",
						"numberOfBytes": "20"
					}
				}
			},
			"userdoc": {
				"kind": "user",
				"methods": {},
				"version": 1
			}
		}
	}
}