{
	"Contract  ^0.8.8/TestContract.sol": {
		"Test": {
			"abi": [
				{
					"inputs": [],
					"name": "getConversionRate",
					"outputs": [],
					"stateMutability": "nonpayable",
					"type": "function"
				},
				{
					"inputs": [],
					"name": "mytest",
					"outputs": [
						{
							"internalType": "uint256",
							"name": "hello",
							"type": "uint256"
						},
						{
							"internalType": "uint8",
							"name": "decimalNum",
							"type": "uint8"
						}
					],
					"stateMutability": "view",
					"type": "function"
				},
				{
					"inputs": [],
					"name": "setMytest",
					"outputs": [],
					"stateMutability": "nonpayable",
					"type": "function"
				}
			],
			"devdoc": {
				"kind": "dev",
				"methods": {},
				"version": 1
			},
			"evm": {
				"assembly": "    /* \"Contract  ^0.8.8/TestContract.sol\":133:1316  contract Test{... */\n  mstore(0x40, 0x80)\n  callvalue\n  dup1\n  iszero\n  tag_1\n  jumpi\n  0x00\n  dup1\n  revert\ntag_1:\n  pop\n  dataSize(sub_0)\n  dup1\n  dataOffset(sub_0)\n  0x00\n  codecopy\n  0x00\n  return\nstop\n\nsub_0: assembly {\n        /* \"Contract  ^0.8.8/TestContract.sol\":133:1316  contract Test{... */\n      mstore(0x40, 0x80)\n      callvalue\n      dup1\n      iszero\n      tag_1\n      jumpi\n      0x00\n      dup1\n      revert\n    tag_1:\n      pop\n      jumpi(tag_2, lt(calldatasize, 0x04))\n      shr(0xe0, calldataload(0x00))\n      dup1\n      0x76e55338\n      eq\n      tag_3\n      jumpi\n      dup1\n      0xe465b7e6\n      eq\n      tag_4\n      jumpi\n      dup1\n      0xf36089ec\n      eq\n      tag_5\n      jumpi\n    tag_2:\n      0x00\n      dup1\n      revert\n        /* \"Contract  ^0.8.8/TestContract.sol\":328:347  Price public mytest */\n    tag_3:\n      tag_6\n      tag_7\n      jump\t// in\n    tag_6:\n      mload(0x40)\n      tag_8\n      swap3\n      swap2\n      swap1\n      tag_9\n      jump\t// in\n    tag_8:\n      mload(0x40)\n      dup1\n      swap2\n      sub\n      swap1\n      return\n        /* \"Contract  ^0.8.8/TestContract.sol\":949:1266  function setMytest() public{... */\n    tag_4:\n      tag_10\n      tag_11\n      jump\t// in\n    tag_10:\n      stop\n        /* \"Contract  ^0.8.8/TestContract.sol\":1271:1314  function getConversionRate() public{... */\n    tag_5:\n      tag_12\n      tag_13\n      jump\t// in\n    tag_12:\n      stop\n        /* \"Contract  ^0.8.8/TestContract.sol\":328:347  Price public mytest */\n    tag_7:\n      0x00\n      dup1\n      0x00\n      add\n      sload\n      swap1\n      dup1\n      0x01\n      add\n      0x00\n      swap1\n      sload\n      swap1\n      0x0100\n      exp\n      swap1\n      div\n      0xff\n      and\n      swap1\n      pop\n      dup3\n      jump\t// out\n        /* \"Contract  ^0.8.8/TestContract.sol\":949:1266  function setMytest() public{... */\n    tag_11:\n        /* \"Contract  ^0.8.8/TestContract.sol\":988:1000  int256 price */\n      0x00\n        /* \"Contract  ^0.8.8/TestContract.sol\":1028:1070  0x8A753747A1Fa494EC906cE90E9f37563A8AF630e */\n      0x8a753747a1fa494ec906ce90e9f37563a8af630e\n        /* \"Contract  ^0.8.8/TestContract.sol\":1006:1087  AggregatorV3Interface(0x8A753747A1Fa494EC906cE90E9f37563A8AF630e).latestRoundData */\n      0xffffffffffffffffffffffffffffffffffffffff\n      and\n      0xfeaf968c\n        /* \"Contract  ^0.8.8/TestContract.sol\":1006:1089  AggregatorV3Interface(0x8A753747A1Fa494EC906cE90E9f37563A8AF630e).latestRoundData() */\n      mload(0x40)\n      dup2\n      0xffffffff\n      and\n      0xe0\n      shl\n      dup2\n      mstore\n      0x04\n      add\n      0xa0\n      mload(0x40)\n      dup1\n      dup4\n      sub\n      dup2\n      dup7\n      dup1\n      extcodesize\n      iszero\n      dup1\n      iszero\n      tag_15\n      jumpi\n      0x00\n      dup1\n      revert\n    tag_15:\n      pop\n      gas\n      staticcall\n      iszero\n      dup1\n      iszero\n      tag_17\n      jumpi\n      returndatasize\n      0x00\n      dup1\n      returndatacopy\n      revert(0x00, returndatasize)\n    tag_17:\n      pop\n      pop\n      pop\n      pop\n      mload(0x40)\n      returndatasize\n      not(0x1f)\n      0x1f\n      dup3\n      add\n      and\n      dup3\n      add\n      dup1\n      0x40\n      mstore\n      pop\n      dup2\n      add\n      swap1\n      tag_18\n      swap2\n      swap1\n      tag_19\n      jump\t// in\n    tag_18:\n        /* \"Contract  ^0.8.8/TestContract.sol\":986:1089  (,int256 price,,,) =AggregatorV3Interface(0x8A753747A1Fa494EC906cE90E9f37563A8AF630e).latestRoundData() */\n      pop\n      pop\n      pop\n      swap2\n      pop\n      pop\n        /* \"Contract  ^0.8.8/TestContract.sol\":1099:1113  uint8 decimals */\n      0x00\n        /* \"Contract  ^0.8.8/TestContract.sol\":1137:1179  0x8A753747A1Fa494EC906cE90E9f37563A8AF630e */\n      0x8a753747a1fa494ec906ce90e9f37563a8af630e\n        /* \"Contract  ^0.8.8/TestContract.sol\":1115:1189  AggregatorV3Interface(0x8A753747A1Fa494EC906cE90E9f37563A8AF630e).decimals */\n      0xffffffffffffffffffffffffffffffffffffffff\n      and\n      0x313ce567\n        /* \"Contract  ^0.8.8/TestContract.sol\":1115:1191  AggregatorV3Interface(0x8A753747A1Fa494EC906cE90E9f37563A8AF630e).decimals() */\n      mload(0x40)\n      dup2\n      0xffffffff\n      and\n      0xe0\n      shl\n      dup2\n      mstore\n      0x04\n      add\n      0x20\n      mload(0x40)\n      dup1\n      dup4\n      sub\n      dup2\n      dup7\n      dup1\n      extcodesize\n      iszero\n      dup1\n      iszero\n      tag_20\n      jumpi\n      0x00\n      dup1\n      revert\n    tag_20:\n      pop\n      gas\n      staticcall\n      iszero\n      dup1\n      iszero\n      tag_22\n      jumpi\n      returndatasize\n      0x00\n      dup1\n      returndatacopy\n      revert(0x00, returndatasize)\n    tag_22:\n      pop\n      pop\n      pop\n      pop\n      mload(0x40)\n      returndatasize\n      not(0x1f)\n      0x1f\n      dup3\n      add\n      and\n      dup3\n      add\n      dup1\n      0x40\n      mstore\n      pop\n      dup2\n      add\n      swap1\n      tag_23\n      swap2\n      swap1\n      tag_24\n      jump\t// in\n    tag_23:\n        /* \"Contract  ^0.8.8/TestContract.sol\":1099:1191  uint8 decimals =AggregatorV3Interface(0x8A753747A1Fa494EC906cE90E9f37563A8AF630e).decimals() */\n      swap1\n      pop\n        /* \"Contract  ^0.8.8/TestContract.sol\":1249:1257  decimals */\n      dup1\n        /* \"Contract  ^0.8.8/TestContract.sol\":1246:1248  18 */\n      0x12\n        /* \"Contract  ^0.8.8/TestContract.sol\":1246:1257  18-decimals */\n      tag_25\n      swap2\n      swap1\n      tag_26\n      jump\t// in\n    tag_25:\n        /* \"Contract  ^0.8.8/TestContract.sol\":1242:1243  1 */\n      0x01\n        /* \"Contract  ^0.8.8/TestContract.sol\":1242:1258  1**(18-decimals) */\n      tag_27\n      swap2\n      swap1\n      tag_28\n      jump\t// in\n    tag_27:\n        /* \"Contract  ^0.8.8/TestContract.sol\":1233:1238  price */\n      dup3\n        /* \"Contract  ^0.8.8/TestContract.sol\":1225:1258  uint256(price) * 1**(18-decimals) */\n      tag_29\n      swap2\n      swap1\n      tag_30\n      jump\t// in\n    tag_29:\n        /* \"Contract  ^0.8.8/TestContract.sol\":1202:1208  mytest */\n      0x00\n        /* \"Contract  ^0.8.8/TestContract.sol\":1202:1214  mytest.hello */\n      dup1\n      add\n        /* \"Contract  ^0.8.8/TestContract.sol\":1202:1259  mytest.hello = uint256(uint256(price) * 1**(18-decimals)) */\n      dup2\n      swap1\n      sstore\n      pop\n        /* \"Contract  ^0.8.8/TestContract.sol\":976:1266  {... */\n      pop\n      pop\n        /* \"Contract  ^0.8.8/TestContract.sol\":949:1266  function setMytest() public{... */\n      jump\t// out\n        /* \"Contract  ^0.8.8/TestContract.sol\":1271:1314  function getConversionRate() public{... */\n    tag_13:\n      jump\t// out\n        /* \"#utility.yul\":7:84   */\n    tag_32:\n        /* \"#utility.yul\":44:51   */\n      0x00\n        /* \"#utility.yul\":73:78   */\n      dup2\n        /* \"#utility.yul\":62:78   */\n      swap1\n      pop\n        /* \"#utility.yul\":7:84   */\n      swap2\n      swap1\n      pop\n      jump\t// out\n        /* \"#utility.yul\":90:208   */\n    tag_33:\n        /* \"#utility.yul\":177:201   */\n      tag_56\n        /* \"#utility.yul\":195:200   */\n      dup2\n        /* \"#utility.yul\":177:201   */\n      tag_32\n      jump\t// in\n    tag_56:\n        /* \"#utility.yul\":172:175   */\n      dup3\n        /* \"#utility.yul\":165:202   */\n      mstore\n        /* \"#utility.yul\":90:208   */\n      pop\n      pop\n      jump\t// out\n        /* \"#utility.yul\":214:300   */\n    tag_34:\n        /* \"#utility.yul\":249:256   */\n      0x00\n        /* \"#utility.yul\":289:293   */\n      0xff\n        /* \"#utility.yul\":282:287   */\n      dup3\n        /* \"#utility.yul\":278:294   */\n      and\n        /* \"#utility.yul\":267:294   */\n      swap1\n      pop\n        /* \"#utility.yul\":214:300   */\n      swap2\n      swap1\n      pop\n      jump\t// out\n        /* \"#utility.yul\":306:418   */\n    tag_35:\n        /* \"#utility.yul\":389:411   */\n      tag_59\n        /* \"#utility.yul\":405:410   */\n      dup2\n        /* \"#utility.yul\":389:411   */\n      tag_34\n      jump\t// in\n    tag_59:\n        /* \"#utility.yul\":384:387   */\n      dup3\n        /* \"#utility.yul\":377:412   */\n      mstore\n        /* \"#utility.yul\":306:418   */\n      pop\n      pop\n      jump\t// out\n        /* \"#utility.yul\":424:748   */\n    tag_9:\n        /* \"#utility.yul\":541:545   */\n      0x00\n        /* \"#utility.yul\":579:581   */\n      0x40\n        /* \"#utility.yul\":568:577   */\n      dup3\n        /* \"#utility.yul\":564:582   */\n      add\n        /* \"#utility.yul\":556:582   */\n      swap1\n      pop\n        /* \"#utility.yul\":592:663   */\n      tag_61\n        /* \"#utility.yul\":660:661   */\n      0x00\n        /* \"#utility.yul\":649:658   */\n      dup4\n        /* \"#utility.yul\":645:662   */\n      add\n        /* \"#utility.yul\":636:642   */\n      dup6\n        /* \"#utility.yul\":592:663   */\n      tag_33\n      jump\t// in\n    tag_61:\n        /* \"#utility.yul\":673:741   */\n      tag_62\n        /* \"#utility.yul\":737:739   */\n      0x20\n        /* \"#utility.yul\":726:735   */\n      dup4\n        /* \"#utility.yul\":722:740   */\n      add\n        /* \"#utility.yul\":713:719   */\n      dup5\n        /* \"#utility.yul\":673:741   */\n      tag_35\n      jump\t// in\n    tag_62:\n        /* \"#utility.yul\":424:748   */\n      swap4\n      swap3\n      pop\n      pop\n      pop\n      jump\t// out\n        /* \"#utility.yul\":835:952   */\n    tag_37:\n        /* \"#utility.yul\":944:945   */\n      0x00\n        /* \"#utility.yul\":941:942   */\n      dup1\n        /* \"#utility.yul\":934:946   */\n      revert\n        /* \"#utility.yul\":1081:1186   */\n    tag_39:\n        /* \"#utility.yul\":1117:1124   */\n      0x00\n        /* \"#utility.yul\":1157:1179   */\n      0xffffffffffffffffffff\n        /* \"#utility.yul\":1150:1155   */\n      dup3\n        /* \"#utility.yul\":1146:1180   */\n      and\n        /* \"#utility.yul\":1135:1180   */\n      swap1\n      pop\n        /* \"#utility.yul\":1081:1186   */\n      swap2\n      swap1\n      pop\n      jump\t// out\n        /* \"#utility.yul\":1192:1312   */\n    tag_40:\n        /* \"#utility.yul\":1264:1287   */\n      tag_68\n        /* \"#utility.yul\":1281:1286   */\n      dup2\n        /* \"#utility.yul\":1264:1287   */\n      tag_39\n      jump\t// in\n    tag_68:\n        /* \"#utility.yul\":1257:1262   */\n      dup2\n        /* \"#utility.yul\":1254:1288   */\n      eq\n        /* \"#utility.yul\":1244:1306   */\n      tag_69\n      jumpi\n        /* \"#utility.yul\":1302:1303   */\n      0x00\n        /* \"#utility.yul\":1299:1300   */\n      dup1\n        /* \"#utility.yul\":1292:1304   */\n      revert\n        /* \"#utility.yul\":1244:1306   */\n    tag_69:\n        /* \"#utility.yul\":1192:1312   */\n      pop\n      jump\t// out\n        /* \"#utility.yul\":1318:1459   */\n    tag_41:\n        /* \"#utility.yul\":1374:1379   */\n      0x00\n        /* \"#utility.yul\":1405:1411   */\n      dup2\n        /* \"#utility.yul\":1399:1412   */\n      mload\n        /* \"#utility.yul\":1390:1412   */\n      swap1\n      pop\n        /* \"#utility.yul\":1421:1453   */\n      tag_71\n        /* \"#utility.yul\":1447:1452   */\n      dup2\n        /* \"#utility.yul\":1421:1453   */\n      tag_40\n      jump\t// in\n    tag_71:\n        /* \"#utility.yul\":1318:1459   */\n      swap3\n      swap2\n      pop\n      pop\n      jump\t// out\n        /* \"#utility.yul\":1465:1541   */\n    tag_42:\n        /* \"#utility.yul\":1501:1508   */\n      0x00\n        /* \"#utility.yul\":1530:1535   */\n      dup2\n        /* \"#utility.yul\":1519:1535   */\n      swap1\n      pop\n        /* \"#utility.yul\":1465:1541   */\n      swap2\n      swap1\n      pop\n      jump\t// out\n        /* \"#utility.yul\":1547:1667   */\n    tag_43:\n        /* \"#utility.yul\":1619:1642   */\n      tag_74\n        /* \"#utility.yul\":1636:1641   */\n      dup2\n        /* \"#utility.yul\":1619:1642   */\n      tag_42\n      jump\t// in\n    tag_74:\n        /* \"#utility.yul\":1612:1617   */\n      dup2\n        /* \"#utility.yul\":1609:1643   */\n      eq\n        /* \"#utility.yul\":1599:1661   */\n      tag_75\n      jumpi\n        /* \"#utility.yul\":1657:1658   */\n      0x00\n        /* \"#utility.yul\":1654:1655   */\n      dup1\n        /* \"#utility.yul\":1647:1659   */\n      revert\n        /* \"#utility.yul\":1599:1661   */\n    tag_75:\n        /* \"#utility.yul\":1547:1667   */\n      pop\n      jump\t// out\n        /* \"#utility.yul\":1673:1814   */\n    tag_44:\n        /* \"#utility.yul\":1729:1734   */\n      0x00\n        /* \"#utility.yul\":1760:1766   */\n      dup2\n        /* \"#utility.yul\":1754:1767   */\n      mload\n        /* \"#utility.yul\":1745:1767   */\n      swap1\n      pop\n        /* \"#utility.yul\":1776:1808   */\n      tag_77\n        /* \"#utility.yul\":1802:1807   */\n      dup2\n        /* \"#utility.yul\":1776:1808   */\n      tag_43\n      jump\t// in\n    tag_77:\n        /* \"#utility.yul\":1673:1814   */\n      swap3\n      swap2\n      pop\n      pop\n      jump\t// out\n        /* \"#utility.yul\":1820:1942   */\n    tag_45:\n        /* \"#utility.yul\":1893:1917   */\n      tag_79\n        /* \"#utility.yul\":1911:1916   */\n      dup2\n        /* \"#utility.yul\":1893:1917   */\n      tag_32\n      jump\t// in\n    tag_79:\n        /* \"#utility.yul\":1886:1891   */\n      dup2\n        /* \"#utility.yul\":1883:1918   */\n      eq\n        /* \"#utility.yul\":1873:1936   */\n      tag_80\n      jumpi\n        /* \"#utility.yul\":1932:1933   */\n      0x00\n        /* \"#utility.yul\":1929:1930   */\n      dup1\n        /* \"#utility.yul\":1922:1934   */\n      revert\n        /* \"#utility.yul\":1873:1936   */\n    tag_80:\n        /* \"#utility.yul\":1820:1942   */\n      pop\n      jump\t// out\n        /* \"#utility.yul\":1948:2091   */\n    tag_46:\n        /* \"#utility.yul\":2005:2010   */\n      0x00\n        /* \"#utility.yul\":2036:2042   */\n      dup2\n        /* \"#utility.yul\":2030:2043   */\n      mload\n        /* \"#utility.yul\":2021:2043   */\n      swap1\n      pop\n        /* \"#utility.yul\":2052:2085   */\n      tag_82\n        /* \"#utility.yul\":2079:2084   */\n      dup2\n        /* \"#utility.yul\":2052:2085   */\n      tag_45\n      jump\t// in\n    tag_82:\n        /* \"#utility.yul\":1948:2091   */\n      swap3\n      swap2\n      pop\n      pop\n      jump\t// out\n        /* \"#utility.yul\":2097:3068   */\n    tag_19:\n        /* \"#utility.yul\":2200:2206   */\n      0x00\n        /* \"#utility.yul\":2208:2214   */\n      dup1\n        /* \"#utility.yul\":2216:2222   */\n      0x00\n        /* \"#utility.yul\":2224:2230   */\n      dup1\n        /* \"#utility.yul\":2232:2238   */\n      0x00\n        /* \"#utility.yul\":2281:2284   */\n      0xa0\n        /* \"#utility.yul\":2269:2278   */\n      dup7\n        /* \"#utility.yul\":2260:2267   */\n      dup9\n        /* \"#utility.yul\":2256:2279   */\n      sub\n        /* \"#utility.yul\":2252:2285   */\n      slt\n        /* \"#utility.yul\":2249:2369   */\n      iszero\n      tag_84\n      jumpi\n        /* \"#utility.yul\":2288:2367   */\n      tag_85\n      tag_37\n      jump\t// in\n    tag_85:\n        /* \"#utility.yul\":2249:2369   */\n    tag_84:\n        /* \"#utility.yul\":2408:2409   */\n      0x00\n        /* \"#utility.yul\":2433:2496   */\n      tag_86\n        /* \"#utility.yul\":2488:2495   */\n      dup9\n        /* \"#utility.yul\":2479:2485   */\n      dup3\n        /* \"#utility.yul\":2468:2477   */\n      dup10\n        /* \"#utility.yul\":2464:2486   */\n      add\n        /* \"#utility.yul\":2433:2496   */\n      tag_41\n      jump\t// in\n    tag_86:\n        /* \"#utility.yul\":2423:2496   */\n      swap6\n      pop\n        /* \"#utility.yul\":2379:2506   */\n      pop\n        /* \"#utility.yul\":2545:2547   */\n      0x20\n        /* \"#utility.yul\":2571:2634   */\n      tag_87\n        /* \"#utility.yul\":2626:2633   */\n      dup9\n        /* \"#utility.yul\":2617:2623   */\n      dup3\n        /* \"#utility.yul\":2606:2615   */\n      dup10\n        /* \"#utility.yul\":2602:2624   */\n      add\n        /* \"#utility.yul\":2571:2634   */\n      tag_44\n      jump\t// in\n    tag_87:\n        /* \"#utility.yul\":2561:2634   */\n      swap5\n      pop\n        /* \"#utility.yul\":2516:2644   */\n      pop\n        /* \"#utility.yul\":2683:2685   */\n      0x40\n        /* \"#utility.yul\":2709:2773   */\n      tag_88\n        /* \"#utility.yul\":2765:2772   */\n      dup9\n        /* \"#utility.yul\":2756:2762   */\n      dup3\n        /* \"#utility.yul\":2745:2754   */\n      dup10\n        /* \"#utility.yul\":2741:2763   */\n      add\n        /* \"#utility.yul\":2709:2773   */\n      tag_46\n      jump\t// in\n    tag_88:\n        /* \"#utility.yul\":2699:2773   */\n      swap4\n      pop\n        /* \"#utility.yul\":2654:2783   */\n      pop\n        /* \"#utility.yul\":2822:2824   */\n      0x60\n        /* \"#utility.yul\":2848:2912   */\n      tag_89\n        /* \"#utility.yul\":2904:2911   */\n      dup9\n        /* \"#utility.yul\":2895:2901   */\n      dup3\n        /* \"#utility.yul\":2884:2893   */\n      dup10\n        /* \"#utility.yul\":2880:2902   */\n      add\n        /* \"#utility.yul\":2848:2912   */\n      tag_46\n      jump\t// in\n    tag_89:\n        /* \"#utility.yul\":2838:2912   */\n      swap3\n      pop\n        /* \"#utility.yul\":2793:2922   */\n      pop\n        /* \"#utility.yul\":2961:2964   */\n      0x80\n        /* \"#utility.yul\":2988:3051   */\n      tag_90\n        /* \"#utility.yul\":3043:3050   */\n      dup9\n        /* \"#utility.yul\":3034:3040   */\n      dup3\n        /* \"#utility.yul\":3023:3032   */\n      dup10\n        /* \"#utility.yul\":3019:3041   */\n      add\n        /* \"#utility.yul\":2988:3051   */\n      tag_41\n      jump\t// in\n    tag_90:\n        /* \"#utility.yul\":2978:3051   */\n      swap2\n      pop\n        /* \"#utility.yul\":2932:3061   */\n      pop\n        /* \"#utility.yul\":2097:3068   */\n      swap3\n      swap6\n      pop\n      swap3\n      swap6\n      swap1\n      swap4\n      pop\n      jump\t// out\n        /* \"#utility.yul\":3074:3192   */\n    tag_47:\n        /* \"#utility.yul\":3145:3167   */\n      tag_92\n        /* \"#utility.yul\":3161:3166   */\n      dup2\n        /* \"#utility.yul\":3145:3167   */\n      tag_34\n      jump\t// in\n    tag_92:\n        /* \"#utility.yul\":3138:3143   */\n      dup2\n        /* \"#utility.yul\":3135:3168   */\n      eq\n        /* \"#utility.yul\":3125:3186   */\n      tag_93\n      jumpi\n        /* \"#utility.yul\":3182:3183   */\n      0x00\n        /* \"#utility.yul\":3179:3180   */\n      dup1\n        /* \"#utility.yul\":3172:3184   */\n      revert\n        /* \"#utility.yul\":3125:3186   */\n    tag_93:\n        /* \"#utility.yul\":3074:3192   */\n      pop\n      jump\t// out\n        /* \"#utility.yul\":3198:3337   */\n    tag_48:\n        /* \"#utility.yul\":3253:3258   */\n      0x00\n        /* \"#utility.yul\":3284:3290   */\n      dup2\n        /* \"#utility.yul\":3278:3291   */\n      mload\n        /* \"#utility.yul\":3269:3291   */\n      swap1\n      pop\n        /* \"#utility.yul\":3300:3331   */\n      tag_95\n        /* \"#utility.yul\":3325:3330   */\n      dup2\n        /* \"#utility.yul\":3300:3331   */\n      tag_47\n      jump\t// in\n    tag_95:\n        /* \"#utility.yul\":3198:3337   */\n      swap3\n      swap2\n      pop\n      pop\n      jump\t// out\n        /* \"#utility.yul\":3343:3690   */\n    tag_24:\n        /* \"#utility.yul\":3411:3417   */\n      0x00\n        /* \"#utility.yul\":3460:3462   */\n      0x20\n        /* \"#utility.yul\":3448:3457   */\n      dup3\n        /* \"#utility.yul\":3439:3446   */\n      dup5\n        /* \"#utility.yul\":3435:3458   */\n      sub\n        /* \"#utility.yul\":3431:3463   */\n      slt\n        /* \"#utility.yul\":3428:3547   */\n      iszero\n      tag_97\n      jumpi\n        /* \"#utility.yul\":3466:3545   */\n      tag_98\n      tag_37\n      jump\t// in\n    tag_98:\n        /* \"#utility.yul\":3428:3547   */\n    tag_97:\n        /* \"#utility.yul\":3586:3587   */\n      0x00\n        /* \"#utility.yul\":3611:3673   */\n      tag_99\n        /* \"#utility.yul\":3665:3672   */\n      dup5\n        /* \"#utility.yul\":3656:3662   */\n      dup3\n        /* \"#utility.yul\":3645:3654   */\n      dup6\n        /* \"#utility.yul\":3641:3663   */\n      add\n        /* \"#utility.yul\":3611:3673   */\n      tag_48\n      jump\t// in\n    tag_99:\n        /* \"#utility.yul\":3601:3673   */\n      swap2\n      pop\n        /* \"#utility.yul\":3557:3683   */\n      pop\n        /* \"#utility.yul\":3343:3690   */\n      swap3\n      swap2\n      pop\n      pop\n      jump\t// out\n        /* \"#utility.yul\":3696:3876   */\n    tag_49:\n        /* \"#utility.yul\":3744:3821   */\n      0x4e487b7100000000000000000000000000000000000000000000000000000000\n        /* \"#utility.yul\":3741:3742   */\n      0x00\n        /* \"#utility.yul\":3734:3822   */\n      mstore\n        /* \"#utility.yul\":3841:3845   */\n      0x11\n        /* \"#utility.yul\":3838:3839   */\n      0x04\n        /* \"#utility.yul\":3831:3846   */\n      mstore\n        /* \"#utility.yul\":3865:3869   */\n      0x24\n        /* \"#utility.yul\":3862:3863   */\n      0x00\n        /* \"#utility.yul\":3855:3870   */\n      revert\n        /* \"#utility.yul\":3882:4067   */\n    tag_26:\n        /* \"#utility.yul\":3920:3924   */\n      0x00\n        /* \"#utility.yul\":3940:3958   */\n      tag_102\n        /* \"#utility.yul\":3956:3957   */\n      dup3\n        /* \"#utility.yul\":3940:3958   */\n      tag_34\n      jump\t// in\n    tag_102:\n        /* \"#utility.yul\":3935:3958   */\n      swap2\n      pop\n        /* \"#utility.yul\":3972:3990   */\n      tag_103\n        /* \"#utility.yul\":3988:3989   */\n      dup4\n        /* \"#utility.yul\":3972:3990   */\n      tag_34\n      jump\t// in\n    tag_103:\n        /* \"#utility.yul\":3967:3990   */\n      swap3\n      pop\n        /* \"#utility.yul\":4009:4010   */\n      dup3\n        /* \"#utility.yul\":4006:4007   */\n      dup3\n        /* \"#utility.yul\":4003:4011   */\n      lt\n        /* \"#utility.yul\":4000:4034   */\n      iszero\n      tag_104\n      jumpi\n        /* \"#utility.yul\":4014:4032   */\n      tag_105\n      tag_49\n      jump\t// in\n    tag_105:\n        /* \"#utility.yul\":4000:4034   */\n    tag_104:\n        /* \"#utility.yul\":4059:4060   */\n      dup3\n        /* \"#utility.yul\":4056:4057   */\n      dup3\n        /* \"#utility.yul\":4052:4061   */\n      sub\n        /* \"#utility.yul\":4044:4061   */\n      swap1\n      pop\n        /* \"#utility.yul\":3882:4067   */\n      swap3\n      swap2\n      pop\n      pop\n      jump\t// out\n        /* \"#utility.yul\":4073:4175   */\n    tag_50:\n        /* \"#utility.yul\":4115:4123   */\n      0x00\n        /* \"#utility.yul\":4162:4167   */\n      dup2\n        /* \"#utility.yul\":4159:4160   */\n      0x01\n        /* \"#utility.yul\":4155:4168   */\n      shr\n        /* \"#utility.yul\":4134:4168   */\n      swap1\n      pop\n        /* \"#utility.yul\":4073:4175   */\n      swap2\n      swap1\n      pop\n      jump\t// out\n        /* \"#utility.yul\":4181:5029   */\n    tag_51:\n        /* \"#utility.yul\":4242:4247   */\n      0x00\n        /* \"#utility.yul\":4249:4253   */\n      dup1\n        /* \"#utility.yul\":4273:4279   */\n      dup3\n        /* \"#utility.yul\":4264:4279   */\n      swap2\n      pop\n        /* \"#utility.yul\":4297:4302   */\n      dup4\n        /* \"#utility.yul\":4288:4302   */\n      swap1\n      pop\n        /* \"#utility.yul\":4311:5023   */\n    tag_108:\n        /* \"#utility.yul\":4332:4333   */\n      0x01\n        /* \"#utility.yul\":4322:4330   */\n      dup6\n        /* \"#utility.yul\":4319:4334   */\n      gt\n        /* \"#utility.yul\":4311:5023   */\n      iszero\n      tag_110\n      jumpi\n        /* \"#utility.yul\":4427:4431   */\n      dup1\n        /* \"#utility.yul\":4422:4425   */\n      dup7\n        /* \"#utility.yul\":4418:4432   */\n      div\n        /* \"#utility.yul\":4412:4416   */\n      dup2\n        /* \"#utility.yul\":4409:4433   */\n      gt\n        /* \"#utility.yul\":4406:4456   */\n      iszero\n      tag_111\n      jumpi\n        /* \"#utility.yul\":4436:4454   */\n      tag_112\n      tag_49\n      jump\t// in\n    tag_112:\n        /* \"#utility.yul\":4406:4456   */\n    tag_111:\n        /* \"#utility.yul\":4486:4487   */\n      0x01\n        /* \"#utility.yul\":4476:4484   */\n      dup6\n        /* \"#utility.yul\":4472:4488   */\n      and\n        /* \"#utility.yul\":4469:4920   */\n      iszero\n      tag_113\n      jumpi\n        /* \"#utility.yul\":4901:4905   */\n      dup1\n        /* \"#utility.yul\":4894:4899   */\n      dup3\n        /* \"#utility.yul\":4890:4906   */\n      mul\n        /* \"#utility.yul\":4881:4906   */\n      swap2\n      pop\n        /* \"#utility.yul\":4469:4920   */\n    tag_113:\n        /* \"#utility.yul\":4951:4955   */\n      dup1\n        /* \"#utility.yul\":4945:4949   */\n      dup2\n        /* \"#utility.yul\":4941:4956   */\n      mul\n        /* \"#utility.yul\":4933:4956   */\n      swap1\n      pop\n        /* \"#utility.yul\":4981:5013   */\n      tag_114\n        /* \"#utility.yul\":5004:5012   */\n      dup6\n        /* \"#utility.yul\":4981:5013   */\n      tag_50\n      jump\t// in\n    tag_114:\n        /* \"#utility.yul\":4969:5013   */\n      swap5\n      pop\n        /* \"#utility.yul\":4311:5023   */\n      jump(tag_108)\n    tag_110:\n        /* \"#utility.yul\":4181:5029   */\n      swap5\n      pop\n      swap5\n      swap3\n      pop\n      pop\n      pop\n      jump\t// out\n        /* \"#utility.yul\":5035:6108   */\n    tag_52:\n        /* \"#utility.yul\":5089:5094   */\n      0x00\n        /* \"#utility.yul\":5280:5288   */\n      dup3\n        /* \"#utility.yul\":5270:5310   */\n      tag_116\n      jumpi\n        /* \"#utility.yul\":5301:5302   */\n      0x01\n        /* \"#utility.yul\":5292:5302   */\n      swap1\n      pop\n        /* \"#utility.yul\":5303:5308   */\n      jump(tag_115)\n        /* \"#utility.yul\":5270:5310   */\n    tag_116:\n        /* \"#utility.yul\":5329:5333   */\n      dup2\n        /* \"#utility.yul\":5319:5355   */\n      tag_117\n      jumpi\n        /* \"#utility.yul\":5346:5347   */\n      0x00\n        /* \"#utility.yul\":5337:5347   */\n      swap1\n      pop\n        /* \"#utility.yul\":5348:5353   */\n      jump(tag_115)\n        /* \"#utility.yul\":5319:5355   */\n    tag_117:\n        /* \"#utility.yul\":5415:5419   */\n      dup2\n        /* \"#utility.yul\":5463:5464   */\n      0x01\n        /* \"#utility.yul\":5458:5485   */\n      dup2\n      eq\n      tag_119\n      jumpi\n        /* \"#utility.yul\":5499:5500   */\n      0x02\n        /* \"#utility.yul\":5494:5685   */\n      dup2\n      eq\n      tag_120\n      jumpi\n        /* \"#utility.yul\":5408:5685   */\n      jump(tag_118)\n        /* \"#utility.yul\":5458:5485   */\n    tag_119:\n        /* \"#utility.yul\":5476:5477   */\n      0x01\n        /* \"#utility.yul\":5467:5477   */\n      swap2\n      pop\n        /* \"#utility.yul\":5478:5483   */\n      pop\n      jump(tag_115)\n        /* \"#utility.yul\":5494:5685   */\n    tag_120:\n        /* \"#utility.yul\":5539:5542   */\n      0xff\n        /* \"#utility.yul\":5529:5537   */\n      dup5\n        /* \"#utility.yul\":5526:5543   */\n      gt\n        /* \"#utility.yul\":5523:5566   */\n      iszero\n      tag_121\n      jumpi\n        /* \"#utility.yul\":5546:5564   */\n      tag_122\n      tag_49\n      jump\t// in\n    tag_122:\n        /* \"#utility.yul\":5523:5566   */\n    tag_121:\n        /* \"#utility.yul\":5595:5603   */\n      dup4\n        /* \"#utility.yul\":5592:5593   */\n      0x02\n        /* \"#utility.yul\":5588:5604   */\n      exp\n        /* \"#utility.yul\":5579:5604   */\n      swap2\n      pop\n        /* \"#utility.yul\":5630:5633   */\n      dup5\n        /* \"#utility.yul\":5623:5628   */\n      dup3\n        /* \"#utility.yul\":5620:5634   */\n      gt\n        /* \"#utility.yul\":5617:5657   */\n      iszero\n      tag_123\n      jumpi\n        /* \"#utility.yul\":5637:5655   */\n      tag_124\n      tag_49\n      jump\t// in\n    tag_124:\n        /* \"#utility.yul\":5617:5657   */\n    tag_123:\n        /* \"#utility.yul\":5670:5675   */\n      pop\n      jump(tag_115)\n        /* \"#utility.yul\":5408:5685   */\n    tag_118:\n      pop\n        /* \"#utility.yul\":5794:5796   */\n      0x20\n        /* \"#utility.yul\":5784:5792   */\n      dup4\n        /* \"#utility.yul\":5781:5797   */\n      lt\n        /* \"#utility.yul\":5775:5778   */\n      0x0133\n        /* \"#utility.yul\":5769:5773   */\n      dup4\n        /* \"#utility.yul\":5766:5779   */\n      lt\n        /* \"#utility.yul\":5762:5798   */\n      and\n        /* \"#utility.yul\":5744:5746   */\n      0x4e\n        /* \"#utility.yul\":5734:5742   */\n      dup5\n        /* \"#utility.yul\":5731:5747   */\n      lt\n        /* \"#utility.yul\":5726:5728   */\n      0x0b\n        /* \"#utility.yul\":5720:5724   */\n      dup5\n        /* \"#utility.yul\":5717:5729   */\n      lt\n        /* \"#utility.yul\":5713:5748   */\n      and\n        /* \"#utility.yul\":5697:5808   */\n      or\n        /* \"#utility.yul\":5694:5940   */\n      iszero\n      tag_125\n      jumpi\n        /* \"#utility.yul\":5850:5858   */\n      dup3\n        /* \"#utility.yul\":5844:5848   */\n      dup3\n        /* \"#utility.yul\":5840:5859   */\n      exp\n        /* \"#utility.yul\":5831:5859   */\n      swap1\n      pop\n        /* \"#utility.yul\":5885:5888   */\n      dup4\n        /* \"#utility.yul\":5878:5883   */\n      dup2\n        /* \"#utility.yul\":5875:5889   */\n      gt\n        /* \"#utility.yul\":5872:5912   */\n      iszero\n      tag_126\n      jumpi\n        /* \"#utility.yul\":5892:5910   */\n      tag_127\n      tag_49\n      jump\t// in\n    tag_127:\n        /* \"#utility.yul\":5872:5912   */\n    tag_126:\n        /* \"#utility.yul\":5925:5930   */\n      jump(tag_115)\n        /* \"#utility.yul\":5694:5940   */\n    tag_125:\n        /* \"#utility.yul\":5965:6007   */\n      tag_128\n        /* \"#utility.yul\":6003:6006   */\n      dup5\n        /* \"#utility.yul\":5993:6001   */\n      dup5\n        /* \"#utility.yul\":5987:5991   */\n      dup5\n        /* \"#utility.yul\":5984:5985   */\n      0x01\n        /* \"#utility.yul\":5965:6007   */\n      tag_51\n      jump\t// in\n    tag_128:\n        /* \"#utility.yul\":5950:6007   */\n      swap3\n      pop\n      swap1\n      pop\n        /* \"#utility.yul\":6039:6043   */\n      dup2\n        /* \"#utility.yul\":6034:6037   */\n      dup5\n        /* \"#utility.yul\":6030:6044   */\n      div\n        /* \"#utility.yul\":6023:6028   */\n      dup2\n        /* \"#utility.yul\":6020:6045   */\n      gt\n        /* \"#utility.yul\":6017:6068   */\n      iszero\n      tag_129\n      jumpi\n        /* \"#utility.yul\":6048:6066   */\n      tag_130\n      tag_49\n      jump\t// in\n    tag_130:\n        /* \"#utility.yul\":6017:6068   */\n    tag_129:\n        /* \"#utility.yul\":6097:6101   */\n      dup2\n        /* \"#utility.yul\":6090:6095   */\n      dup2\n        /* \"#utility.yul\":6086:6102   */\n      mul\n        /* \"#utility.yul\":6077:6102   */\n      swap1\n      pop\n        /* \"#utility.yul\":5035:6108   */\n    tag_115:\n      swap4\n      swap3\n      pop\n      pop\n      pop\n      jump\t// out\n        /* \"#utility.yul\":6114:6395   */\n    tag_28:\n        /* \"#utility.yul\":6172:6177   */\n      0x00\n        /* \"#utility.yul\":6196:6219   */\n      tag_132\n        /* \"#utility.yul\":6214:6218   */\n      dup3\n        /* \"#utility.yul\":6196:6219   */\n      tag_32\n      jump\t// in\n    tag_132:\n        /* \"#utility.yul\":6188:6219   */\n      swap2\n      pop\n        /* \"#utility.yul\":6240:6265   */\n      tag_133\n        /* \"#utility.yul\":6256:6264   */\n      dup4\n        /* \"#utility.yul\":6240:6265   */\n      tag_34\n      jump\t// in\n    tag_133:\n        /* \"#utility.yul\":6228:6265   */\n      swap3\n      pop\n        /* \"#utility.yul\":6284:6388   */\n      tag_134\n        /* \"#utility.yul\":6321:6387   */\n      0xffffffffffffffffffffffffffffffffffffffffffffffffffffffffffffffff\n        /* \"#utility.yul\":6311:6319   */\n      dup5\n        /* \"#utility.yul\":6305:6309   */\n      dup5\n        /* \"#utility.yul\":6284:6388   */\n      tag_52\n      jump\t// in\n    tag_134:\n        /* \"#utility.yul\":6275:6388   */\n      swap1\n      pop\n        /* \"#utility.yul\":6114:6395   */\n      swap3\n      swap2\n      pop\n      pop\n      jump\t// out\n        /* \"#utility.yul\":6401:6749   */\n    tag_30:\n        /* \"#utility.yul\":6441:6448   */\n      0x00\n        /* \"#utility.yul\":6464:6484   */\n      tag_136\n        /* \"#utility.yul\":6482:6483   */\n      dup3\n        /* \"#utility.yul\":6464:6484   */\n      tag_32\n      jump\t// in\n    tag_136:\n        /* \"#utility.yul\":6459:6484   */\n      swap2\n      pop\n        /* \"#utility.yul\":6498:6518   */\n      tag_137\n        /* \"#utility.yul\":6516:6517   */\n      dup4\n        /* \"#utility.yul\":6498:6518   */\n      tag_32\n      jump\t// in\n    tag_137:\n        /* \"#utility.yul\":6493:6518   */\n      swap3\n      pop\n        /* \"#utility.yul\":6686:6687   */\n      dup2\n        /* \"#utility.yul\":6618:6684   */\n      0xffffffffffffffffffffffffffffffffffffffffffffffffffffffffffffffff\n        /* \"#utility.yul\":6614:6688   */\n      div\n        /* \"#utility.yul\":6611:6612   */\n      dup4\n        /* \"#utility.yul\":6608:6689   */\n      gt\n        /* \"#utility.yul\":6603:6604   */\n      dup3\n        /* \"#utility.yul\":6596:6605   */\n      iszero\n        /* \"#utility.yul\":6589:6606   */\n      iszero\n        /* \"#utility.yul\":6585:6690   */\n      and\n        /* \"#utility.yul\":6582:6713   */\n      iszero\n      tag_138\n      jumpi\n        /* \"#utility.yul\":6693:6711   */\n      tag_139\n      tag_49\n      jump\t// in\n    tag_139:\n        /* \"#utility.yul\":6582:6713   */\n    tag_138:\n        /* \"#utility.yul\":6741:6742   */\n      dup3\n        /* \"#utility.yul\":6738:6739   */\n      dup3\n        /* \"#utility.yul\":6734:6743   */\n      mul\n        /* \"#utility.yul\":6723:6743   */\n      swap1\n      pop\n        /* \"#utility.yul\":6401:6749   */\n      swap3\n      swap2\n      pop\n      pop\n      jump\t// out\n\n    auxdata: 0xa2646970667358221220db19595b8d408094187f37847e63ae809b7e49b8aced9f84002b26b658d19b6964736f6c63430008080033\n}\n",
				"bytecode": {
					"linkReferences": {},
					"object": "608060405234801561001057600080fd5b50610646806100206000396000f3fe608060405234801561001057600080fd5b50600436106100415760003560e01c806376e5533814610046578063e465b7e614610065578063f36089ec1461006f575b600080fd5b61004e610079565b60405161005c92919061022f565b60405180910390f35b61006d610098565b005b6100776101f8565b005b60008060000154908060010160009054906101000a900460ff16905082565b6000738a753747a1fa494ec906ce90e9f37563a8af630e73ffffffffffffffffffffffffffffffffffffffff1663feaf968c6040518163ffffffff1660e01b815260040160a06040518083038186803b1580156100f457600080fd5b505afa158015610108573d6000803e3d6000fd5b505050506040513d601f19601f8201168201806040525081019061012c9190610301565b5050509150506000738a753747a1fa494ec906ce90e9f37563a8af630e73ffffffffffffffffffffffffffffffffffffffff1663313ce5676040518163ffffffff1660e01b815260040160206040518083038186803b15801561018e57600080fd5b505afa1580156101a2573d6000803e3d6000fd5b505050506040513d601f19601f820116820180604052508101906101c691906103a8565b90508060126101d59190610404565b60016101e1919061056b565b826101ec91906105b6565b60008001819055505050565b565b6000819050919050565b61020d816101fa565b82525050565b600060ff82169050919050565b61022981610213565b82525050565b60006040820190506102446000830185610204565b6102516020830184610220565b9392505050565b600080fd5b600069ffffffffffffffffffff82169050919050565b61027c8161025d565b811461028757600080fd5b50565b60008151905061029981610273565b92915050565b6000819050919050565b6102b28161029f565b81146102bd57600080fd5b50565b6000815190506102cf816102a9565b92915050565b6102de816101fa565b81146102e957600080fd5b50565b6000815190506102fb816102d5565b92915050565b600080600080600060a0868803121561031d5761031c610258565b5b600061032b8882890161028a565b955050602061033c888289016102c0565b945050604061034d888289016102ec565b935050606061035e888289016102ec565b925050608061036f8882890161028a565b9150509295509295909350565b61038581610213565b811461039057600080fd5b50565b6000815190506103a28161037c565b92915050565b6000602082840312156103be576103bd610258565b5b60006103cc84828501610393565b91505092915050565b7f4e487b7100000000000000000000000000000000000000000000000000000000600052601160045260246000fd5b600061040f82610213565b915061041a83610213565b92508282101561042d5761042c6103d5565b5b828203905092915050565b60008160011c9050919050565b6000808291508390505b600185111561048f5780860481111561046b5761046a6103d5565b5b600185161561047a5780820291505b808102905061048885610438565b945061044f565b94509492505050565b6000826104a85760019050610564565b816104b65760009050610564565b81600181146104cc57600281146104d657610505565b6001915050610564565b60ff8411156104e8576104e76103d5565b5b8360020a9150848211156104ff576104fe6103d5565b5b50610564565b5060208310610133831016604e8410600b841016171561053a5782820a905083811115610535576105346103d5565b5b610564565b6105478484846001610445565b9250905081840481111561055e5761055d6103d5565b5b81810290505b9392505050565b6000610576826101fa565b915061058183610213565b92506105ae7fffffffffffffffffffffffffffffffffffffffffffffffffffffffffffffffff8484610498565b905092915050565b60006105c1826101fa565b91506105cc836101fa565b9250817fffffffffffffffffffffffffffffffffffffffffffffffffffffffffffffffff0483118215151615610605576106046103d5565b5b82820290509291505056fea2646970667358221220db19595b8d408094187f37847e63ae809b7e49b8aced9f84002b26b658d19b6964736f6c63430008080033",
					"opcodes": "PUSH1 0x80 PUSH1 0x40 MSTORE CALLVALUE DUP1 ISZERO PUSH2 0x10 JUMPI PUSH1 0x0 DUP1 REVERT JUMPDEST POP PUSH2 0x646 DUP1 PUSH2 0x20 PUSH1 0x0 CODECOPY PUSH1 0x0 RETURN INVALID PUSH1 0x80 PUSH1 0x40 MSTORE CALLVALUE DUP1 ISZERO PUSH2 0x10 JUMPI PUSH1 0x0 DUP1 REVERT JUMPDEST POP PUSH1 0x4 CALLDATASIZE LT PUSH2 0x41 JUMPI PUSH1 0x0 CALLDATALOAD PUSH1 0xE0 SHR DUP1 PUSH4 0x76E55338 EQ PUSH2 0x46 JUMPI DUP1 PUSH4 0xE465B7E6 EQ PUSH2 0x65 JUMPI DUP1 PUSH4 0xF36089EC EQ PUSH2 0x6F JUMPI JUMPDEST PUSH1 0x0 DUP1 REVERT JUMPDEST PUSH2 0x4E PUSH2 0x79 JUMP JUMPDEST PUSH1 0x40 MLOAD PUSH2 0x5C SWAP3 SWAP2 SWAP1 PUSH2 0x22F JUMP JUMPDEST PUSH1 0x40 MLOAD DUP1 SWAP2 SUB SWAP1 RETURN JUMPDEST PUSH2 0x6D PUSH2 0x98 JUMP JUMPDEST STOP JUMPDEST PUSH2 0x77 PUSH2 0x1F8 JUMP JUMPDEST STOP JUMPDEST PUSH1 0x0 DUP1 PUSH1 0x0 ADD SLOAD SWAP1 DUP1 PUSH1 0x1 ADD PUSH1 0x0 SWAP1 SLOAD SWAP1 PUSH2 0x100 EXP SWAP1 DIV PUSH1 0xFF AND SWAP1 POP DUP3 JUMP JUMPDEST PUSH1 0x0 PUSH20 0x8A753747A1FA494EC906CE90E9F37563A8AF630E PUSH20 0xFFFFFFFFFFFFFFFFFFFFFFFFFFFFFFFFFFFFFFFF AND PUSH4 0xFEAF968C PUSH1 0x40 MLOAD DUP2 PUSH4 0xFFFFFFFF AND PUSH1 0xE0 SHL DUP2 MSTORE PUSH1 0x4 ADD PUSH1 0xA0 PUSH1 0x40 MLOAD DUP1 DUP4 SUB DUP2 DUP7 DUP1 EXTCODESIZE ISZERO DUP1 ISZERO PUSH2 0xF4 JUMPI PUSH1 0x0 DUP1 REVERT JUMPDEST POP GAS STATICCALL ISZERO DUP1 ISZERO PUSH2 0x108 JUMPI RETURNDATASIZE PUSH1 0x0 DUP1 RETURNDATACOPY RETURNDATASIZE PUSH1 0x0 REVERT JUMPDEST POP POP POP POP PUSH1 0x40 MLOAD RETURNDATASIZE PUSH1 0x1F NOT PUSH1 0x1F DUP3 ADD AND DUP3 ADD DUP1 PUSH1 0x40 MSTORE POP DUP2 ADD SWAP1 PUSH2 0x12C SWAP2 SWAP1 PUSH2 0x301 JUMP JUMPDEST POP POP POP SWAP2 POP POP PUSH1 0x0 PUSH20 0x8A753747A1FA494EC906CE90E9F37563A8AF630E PUSH20 0xFFFFFFFFFFFFFFFFFFFFFFFFFFFFFFFFFFFFFFFF AND PUSH4 0x313CE567 PUSH1 0x40 MLOAD DUP2 PUSH4 0xFFFFFFFF AND PUSH1 0xE0 SHL DUP2 MSTORE PUSH1 0x4 ADD PUSH1 0x20 PUSH1 0x40 MLOAD DUP1 DUP4 SUB DUP2 DUP7 DUP1 EXTCODESIZE ISZERO DUP1 ISZERO PUSH2 0x18E JUMPI PUSH1 0x0 DUP1 REVERT JUMPDEST POP GAS STATICCALL ISZERO DUP1 ISZERO PUSH2 0x1A2 JUMPI RETURNDATASIZE PUSH1 0x0 DUP1 RETURNDATACOPY RETURNDATASIZE PUSH1 0x0 REVERT JUMPDEST POP POP POP POP PUSH1 0x40 MLOAD RETURNDATASIZE PUSH1 0x1F NOT PUSH1 0x1F DUP3 ADD AND DUP3 ADD DUP1 PUSH1 0x40 MSTORE POP DUP2 ADD SWAP1 PUSH2 0x1C6 SWAP2 SWAP1 PUSH2 0x3A8 JUMP JUMPDEST SWAP1 POP DUP1 PUSH1 0x12 PUSH2 0x1D5 SWAP2 SWAP1 PUSH2 0x404 JUMP JUMPDEST PUSH1 0x1 PUSH2 0x1E1 SWAP2 SWAP1 PUSH2 0x56B JUMP JUMPDEST DUP3 PUSH2 0x1EC SWAP2 SWAP1 PUSH2 0x5B6 JUMP JUMPDEST PUSH1 0x0 DUP1 ADD DUP2 SWAP1 SSTORE POP POP POP JUMP JUMPDEST JUMP JUMPDEST PUSH1 0x0 DUP2 SWAP1 POP SWAP2 SWAP1 POP JUMP JUMPDEST PUSH2 0x20D DUP2 PUSH2 0x1FA JUMP JUMPDEST DUP3 MSTORE POP POP JUMP JUMPDEST PUSH1 0x0 PUSH1 0xFF DUP3 AND SWAP1 POP SWAP2 SWAP1 POP JUMP JUMPDEST PUSH2 0x229 DUP2 PUSH2 0x213 JUMP JUMPDEST DUP3 MSTORE POP POP JUMP JUMPDEST PUSH1 0x0 PUSH1 0x40 DUP3 ADD SWAP1 POP PUSH2 0x244 PUSH1 0x0 DUP4 ADD DUP6 PUSH2 0x204 JUMP JUMPDEST PUSH2 0x251 PUSH1 0x20 DUP4 ADD DUP5 PUSH2 0x220 JUMP JUMPDEST SWAP4 SWAP3 POP POP POP JUMP JUMPDEST PUSH1 0x0 DUP1 REVERT JUMPDEST PUSH1 0x0 PUSH10 0xFFFFFFFFFFFFFFFFFFFF DUP3 AND SWAP1 POP SWAP2 SWAP1 POP JUMP JUMPDEST PUSH2 0x27C DUP2 PUSH2 0x25D JUMP JUMPDEST DUP2 EQ PUSH2 0x287 JUMPI PUSH1 0x0 DUP1 REVERT JUMPDEST POP JUMP JUMPDEST PUSH1 0x0 DUP2 MLOAD SWAP1 POP PUSH2 0x299 DUP2 PUSH2 0x273 JUMP JUMPDEST SWAP3 SWAP2 POP POP JUMP JUMPDEST PUSH1 0x0 DUP2 SWAP1 POP SWAP2 SWAP1 POP JUMP JUMPDEST PUSH2 0x2B2 DUP2 PUSH2 0x29F JUMP JUMPDEST DUP2 EQ PUSH2 0x2BD JUMPI PUSH1 0x0 DUP1 REVERT JUMPDEST POP JUMP JUMPDEST PUSH1 0x0 DUP2 MLOAD SWAP1 POP PUSH2 0x2CF DUP2 PUSH2 0x2A9 JUMP JUMPDEST SWAP3 SWAP2 POP POP JUMP JUMPDEST PUSH2 0x2DE DUP2 PUSH2 0x1FA JUMP JUMPDEST DUP2 EQ PUSH2 0x2E9 JUMPI PUSH1 0x0 DUP1 REVERT JUMPDEST POP JUMP JUMPDEST PUSH1 0x0 DUP2 MLOAD SWAP1 POP PUSH2 0x2FB DUP2 PUSH2 0x2D5 JUMP JUMPDEST SWAP3 SWAP2 POP POP JUMP JUMPDEST PUSH1 0x0 DUP1 PUSH1 0x0 DUP1 PUSH1 0x0 PUSH1 0xA0 DUP7 DUP9 SUB SLT ISZERO PUSH2 0x31D JUMPI PUSH2 0x31C PUSH2 0x258 JUMP JUMPDEST JUMPDEST PUSH1 0x0 PUSH2 0x32B DUP9 DUP3 DUP10 ADD PUSH2 0x28A JUMP JUMPDEST SWAP6 POP POP PUSH1 0x20 PUSH2 0x33C DUP9 DUP3 DUP10 ADD PUSH2 0x2C0 JUMP JUMPDEST SWAP5 POP POP PUSH1 0x40 PUSH2 0x34D DUP9 DUP3 DUP10 ADD PUSH2 0x2EC JUMP JUMPDEST SWAP4 POP POP PUSH1 0x60 PUSH2 0x35E DUP9 DUP3 DUP10 ADD PUSH2 0x2EC JUMP JUMPDEST SWAP3 POP POP PUSH1 0x80 PUSH2 0x36F DUP9 DUP3 DUP10 ADD PUSH2 0x28A JUMP JUMPDEST SWAP2 POP POP SWAP3 SWAP6 POP SWAP3 SWAP6 SWAP1 SWAP4 POP JUMP JUMPDEST PUSH2 0x385 DUP2 PUSH2 0x213 JUMP JUMPDEST DUP2 EQ PUSH2 0x390 JUMPI PUSH1 0x0 DUP1 REVERT JUMPDEST POP JUMP JUMPDEST PUSH1 0x0 DUP2 MLOAD SWAP1 POP PUSH2 0x3A2 DUP2 PUSH2 0x37C JUMP JUMPDEST SWAP3 SWAP2 POP POP JUMP JUMPDEST PUSH1 0x0 PUSH1 0x20 DUP3 DUP5 SUB SLT ISZERO PUSH2 0x3BE JUMPI PUSH2 0x3BD PUSH2 0x258 JUMP JUMPDEST JUMPDEST PUSH1 0x0 PUSH2 0x3CC DUP5 DUP3 DUP6 ADD PUSH2 0x393 JUMP JUMPDEST SWAP2 POP POP SWAP3 SWAP2 POP POP JUMP JUMPDEST PUSH32 0x4E487B7100000000000000000000000000000000000000000000000000000000 PUSH1 0x0 MSTORE PUSH1 0x11 PUSH1 0x4 MSTORE PUSH1 0x24 PUSH1 0x0 REVERT JUMPDEST PUSH1 0x0 PUSH2 0x40F DUP3 PUSH2 0x213 JUMP JUMPDEST SWAP2 POP PUSH2 0x41A DUP4 PUSH2 0x213 JUMP JUMPDEST SWAP3 POP DUP3 DUP3 LT ISZERO PUSH2 0x42D JUMPI PUSH2 0x42C PUSH2 0x3D5 JUMP JUMPDEST JUMPDEST DUP3 DUP3 SUB SWAP1 POP SWAP3 SWAP2 POP POP JUMP JUMPDEST PUSH1 0x0 DUP2 PUSH1 0x1 SHR SWAP1 POP SWAP2 SWAP1 POP JUMP JUMPDEST PUSH1 0x0 DUP1 DUP3 SWAP2 POP DUP4 SWAP1 POP JUMPDEST PUSH1 0x1 DUP6 GT ISZERO PUSH2 0x48F JUMPI DUP1 DUP7 DIV DUP2 GT ISZERO PUSH2 0x46B JUMPI PUSH2 0x46A PUSH2 0x3D5 JUMP JUMPDEST JUMPDEST PUSH1 0x1 DUP6 AND ISZERO PUSH2 0x47A JUMPI DUP1 DUP3 MUL SWAP2 POP JUMPDEST DUP1 DUP2 MUL SWAP1 POP PUSH2 0x488 DUP6 PUSH2 0x438 JUMP JUMPDEST SWAP5 POP PUSH2 0x44F JUMP JUMPDEST SWAP5 POP SWAP5 SWAP3 POP POP POP JUMP JUMPDEST PUSH1 0x0 DUP3 PUSH2 0x4A8 JUMPI PUSH1 0x1 SWAP1 POP PUSH2 0x564 JUMP JUMPDEST DUP2 PUSH2 0x4B6 JUMPI PUSH1 0x0 SWAP1 POP PUSH2 0x564 JUMP JUMPDEST DUP2 PUSH1 0x1 DUP2 EQ PUSH2 0x4CC JUMPI PUSH1 0x2 DUP2 EQ PUSH2 0x4D6 JUMPI PUSH2 0x505 JUMP JUMPDEST PUSH1 0x1 SWAP2 POP POP PUSH2 0x564 JUMP JUMPDEST PUSH1 0xFF DUP5 GT ISZERO PUSH2 0x4E8 JUMPI PUSH2 0x4E7 PUSH2 0x3D5 JUMP JUMPDEST JUMPDEST DUP4 PUSH1 0x2 EXP SWAP2 POP DUP5 DUP3 GT ISZERO PUSH2 0x4FF JUMPI PUSH2 0x4FE PUSH2 0x3D5 JUMP JUMPDEST JUMPDEST POP PUSH2 0x564 JUMP JUMPDEST POP PUSH1 0x20 DUP4 LT PUSH2 0x133 DUP4 LT AND PUSH1 0x4E DUP5 LT PUSH1 0xB DUP5 LT AND OR ISZERO PUSH2 0x53A JUMPI DUP3 DUP3 EXP SWAP1 POP DUP4 DUP2 GT ISZERO PUSH2 0x535 JUMPI PUSH2 0x534 PUSH2 0x3D5 JUMP JUMPDEST JUMPDEST PUSH2 0x564 JUMP JUMPDEST PUSH2 0x547 DUP5 DUP5 DUP5 PUSH1 0x1 PUSH2 0x445 JUMP JUMPDEST SWAP3 POP SWAP1 POP DUP2 DUP5 DIV DUP2 GT ISZERO PUSH2 0x55E JUMPI PUSH2 0x55D PUSH2 0x3D5 JUMP JUMPDEST JUMPDEST DUP2 DUP2 MUL SWAP1 POP JUMPDEST SWAP4 SWAP3 POP POP POP JUMP JUMPDEST PUSH1 0x0 PUSH2 0x576 DUP3 PUSH2 0x1FA JUMP JUMPDEST SWAP2 POP PUSH2 0x581 DUP4 PUSH2 0x213 JUMP JUMPDEST SWAP3 POP PUSH2 0x5AE PUSH32 0xFFFFFFFFFFFFFFFFFFFFFFFFFFFFFFFFFFFFFFFFFFFFFFFFFFFFFFFFFFFFFFFF DUP5 DUP5 PUSH2 0x498 JUMP JUMPDEST SWAP1 POP SWAP3 SWAP2 POP POP JUMP JUMPDEST PUSH1 0x0 PUSH2 0x5C1 DUP3 PUSH2 0x1FA JUMP JUMPDEST SWAP2 POP PUSH2 0x5CC DUP4 PUSH2 0x1FA JUMP JUMPDEST SWAP3 POP DUP2 PUSH32 0xFFFFFFFFFFFFFFFFFFFFFFFFFFFFFFFFFFFFFFFFFFFFFFFFFFFFFFFFFFFFFFFF DIV DUP4 GT DUP3 ISZERO ISZERO AND ISZERO PUSH2 0x605 JUMPI PUSH2 0x604 PUSH2 0x3D5 JUMP JUMPDEST JUMPDEST DUP3 DUP3 MUL SWAP1 POP SWAP3 SWAP2 POP POP JUMP INVALID LOG2 PUSH5 0x6970667358 0x22 SLT KECCAK256 0xDB NOT MSIZE JUMPDEST DUP14 BLOCKHASH DUP1 SWAP5 XOR PUSH32 0x37847E63AE809B7E49B8ACED9F84002B26B658D19B6964736F6C634300080800 CALLER "
				},
				"gasEstimates": {
					"creation": {
						"codeDepositCost": "321200",
						"executionCost": "362",
						"totalCost": "321562"
					},
					"external": {
						"getConversionRate()": "166",
						"mytest()": "4675",
						"setMytest()": "infinite"
					}
				},
				"methodIdentifiers": {
					"getConversionRate()": "f36089ec",
					"mytest()": "76e55338",
					"setMytest()": "e465b7e6"
				}
			},
			"storageLayout": {
				"storage": [
					{
						"astId": 56,
						"contract": "Contract  ^0.8.8/TestContract.sol:Test",
						"label": "mytest",
						"offset": 0,
						"slot": "0",
						"type": "t_struct(Price)53_storage"
					}
				],
				"types": {
					"t_struct(Price)53_storage": {
						"encoding": "inplace",
						"label": "struct Test.Price",
						"members": [
							{
								"astId": 50,
								"contract": "Contract  ^0.8.8/TestContract.sol:Test",
								"label": "hello",
								"offset": 0,
								"slot": "0",
								"type": "t_uint256"
							},
							{
								"astId": 52,
								"contract": "Contract  ^0.8.8/TestContract.sol:Test",
								"label": "decimalNum",
								"offset": 0,
								"slot": "1",
								"type": "t_uint8"
							}
						],
						"numberOfBytes": "64"
					},
					"t_uint256": {
						"encoding": "inplace",
						"label": "uint256",
						"numberOfBytes": "32"
					},
					"t_uint8": {
						"encoding": "inplace",
						"label": "uint8",
						"numberOfBytes": "1"
					}
				}
			},
			"userdoc": {
				"kind": "user",
				"methods": {},
				"version": 1
			}
		}
	}
}