{
	"Contract  ^0.8.8/TestContract.sol": {
		"Test1": {
			"abi": [
				{
					"stateMutability": "payable",
					"type": "fallback"
				},
				{
					"inputs": [],
					"name": "val",
					"outputs": [
						{
							"internalType": "uint256",
							"name": "",
							"type": "uint256"
						}
					],
					"stateMutability": "view",
					"type": "function"
				},
				{
					"stateMutability": "payable",
					"type": "receive"
				}
			],
			"devdoc": {
				"kind": "dev",
				"methods": {},
				"version": 1
			},
			"evm": {
				"assembly": "    /* \"Contract  ^0.8.8/TestContract.sol\":57:233  contract Test1{... */\n  mstore(0x40, 0x80)\n  callvalue\n  dup1\n  iszero\n  tag_1\n  jumpi\n  0x00\n  dup1\n  revert\ntag_1:\n  pop\n  dataSize(sub_0)\n  dup1\n  dataOffset(sub_0)\n  0x00\n  codecopy\n  0x00\n  return\nstop\n\nsub_0: assembly {\n        /* \"Contract  ^0.8.8/TestContract.sol\":57:233  contract Test1{... */\n      mstore(0x40, 0x80)\n      jumpi(tag_1, lt(calldatasize, 0x04))\n      shr(0xe0, calldataload(0x00))\n      dup1\n      0x3c6bb436\n      eq\n      tag_3\n      jumpi\n      jump(tag_2)\n    tag_1:\n      jumpi(tag_2, calldatasize)\n        /* \"Contract  ^0.8.8/TestContract.sol\":138:139  1 */\n      0x01\n        /* \"Contract  ^0.8.8/TestContract.sol\":134:137  val */\n      0x00\n        /* \"Contract  ^0.8.8/TestContract.sol\":134:139  val=1 */\n      dup2\n      swap1\n      sstore\n      pop\n        /* \"Contract  ^0.8.8/TestContract.sol\":57:233  contract Test1{... */\n      stop\n    tag_2:\n        /* \"Contract  ^0.8.8/TestContract.sol\":190:203  bytes32 value */\n      0x00\n        /* \"Contract  ^0.8.8/TestContract.sol\":214:222  msg.data */\n      dup1\n      calldatasize\n        /* \"Contract  ^0.8.8/TestContract.sol\":206:223  bytes32(msg.data) */\n      swap1\n      tag_8\n      swap2\n      swap1\n      tag_9\n      jump\t// in\n    tag_8:\n        /* \"Contract  ^0.8.8/TestContract.sol\":190:223  bytes32 value = bytes32(msg.data) */\n      swap1\n      pop\n        /* \"Contract  ^0.8.8/TestContract.sol\":180:230  {... */\n      pop\n        /* \"Contract  ^0.8.8/TestContract.sol\":57:233  contract Test1{... */\n      stop\n        /* \"Contract  ^0.8.8/TestContract.sol\":77:92  uint public val */\n    tag_3:\n      callvalue\n      dup1\n      iszero\n      tag_10\n      jumpi\n      0x00\n      dup1\n      revert\n    tag_10:\n      pop\n      tag_11\n      tag_12\n      jump\t// in\n    tag_11:\n      mload(0x40)\n      tag_13\n      swap2\n      swap1\n      tag_14\n      jump\t// in\n    tag_13:\n      mload(0x40)\n      dup1\n      swap2\n      sub\n      swap1\n      return\n    tag_12:\n      sload(0x00)\n      dup2\n      jump\t// out\n        /* \"#utility.yul\":7:103   */\n    tag_15:\n        /* \"#utility.yul\":65:71   */\n      0x00\n        /* \"#utility.yul\":93:96   */\n      dup3\n        /* \"#utility.yul\":83:96   */\n      swap1\n      pop\n        /* \"#utility.yul\":7:103   */\n      swap3\n      swap2\n      pop\n      pop\n      jump\t// out\n        /* \"#utility.yul\":201:278   */\n    tag_17:\n        /* \"#utility.yul\":238:245   */\n      0x00\n        /* \"#utility.yul\":267:272   */\n      dup2\n        /* \"#utility.yul\":256:272   */\n      swap1\n      pop\n        /* \"#utility.yul\":201:278   */\n      swap2\n      swap1\n      pop\n      jump\t// out\n        /* \"#utility.yul\":284:391   */\n    tag_18:\n        /* \"#utility.yul\":328:336   */\n      0x00\n        /* \"#utility.yul\":378:383   */\n      dup3\n        /* \"#utility.yul\":372:376   */\n      dup3\n        /* \"#utility.yul\":368:384   */\n      shl\n        /* \"#utility.yul\":347:384   */\n      swap1\n      pop\n        /* \"#utility.yul\":284:391   */\n      swap3\n      swap2\n      pop\n      pop\n      jump\t// out\n        /* \"#utility.yul\":397:949   */\n    tag_9:\n        /* \"#utility.yul\":488:493   */\n      0x00\n        /* \"#utility.yul\":519:564   */\n      tag_27\n        /* \"#utility.yul\":560:563   */\n      dup4\n        /* \"#utility.yul\":553:558   */\n      dup4\n        /* \"#utility.yul\":519:564   */\n      tag_15\n      jump\t// in\n    tag_27:\n        /* \"#utility.yul\":589:594   */\n      dup3\n        /* \"#utility.yul\":613:654   */\n      tag_28\n        /* \"#utility.yul\":644:652   */\n      dup2\n        /* \"#utility.yul\":631:653   */\n      calldataload\n        /* \"#utility.yul\":613:654   */\n      tag_17\n      jump\t// in\n    tag_28:\n        /* \"#utility.yul\":604:654   */\n      swap3\n      pop\n        /* \"#utility.yul\":678:680   */\n      0x20\n        /* \"#utility.yul\":670:676   */\n      dup3\n        /* \"#utility.yul\":667:681   */\n      lt\n        /* \"#utility.yul\":664:942   */\n      iszero\n      tag_29\n      jumpi\n        /* \"#utility.yul\":749:918   */\n      tag_30\n        /* \"#utility.yul\":834:900   */\n      0xffffffffffffffffffffffffffffffffffffffffffffffffffffffffffffffff\n        /* \"#utility.yul\":804:810   */\n      dup4\n        /* \"#utility.yul\":800:802   */\n      0x20\n        /* \"#utility.yul\":796:811   */\n      sub\n        /* \"#utility.yul\":793:794   */\n      0x08\n        /* \"#utility.yul\":789:812   */\n      mul\n        /* \"#utility.yul\":749:918   */\n      tag_18\n      jump\t// in\n    tag_30:\n        /* \"#utility.yul\":726:731   */\n      dup4\n        /* \"#utility.yul\":705:932   */\n      and\n        /* \"#utility.yul\":696:932   */\n      swap3\n      pop\n        /* \"#utility.yul\":664:942   */\n    tag_29:\n        /* \"#utility.yul\":494:949   */\n      pop\n      pop\n        /* \"#utility.yul\":397:949   */\n      swap3\n      swap2\n      pop\n      pop\n      jump\t// out\n        /* \"#utility.yul\":955:1032   */\n    tag_19:\n        /* \"#utility.yul\":992:999   */\n      0x00\n        /* \"#utility.yul\":1021:1026   */\n      dup2\n        /* \"#utility.yul\":1010:1026   */\n      swap1\n      pop\n        /* \"#utility.yul\":955:1032   */\n      swap2\n      swap1\n      pop\n      jump\t// out\n        /* \"#utility.yul\":1038:1156   */\n    tag_20:\n        /* \"#utility.yul\":1125:1149   */\n      tag_33\n        /* \"#utility.yul\":1143:1148   */\n      dup2\n        /* \"#utility.yul\":1125:1149   */\n      tag_19\n      jump\t// in\n    tag_33:\n        /* \"#utility.yul\":1120:1123   */\n      dup3\n        /* \"#utility.yul\":1113:1150   */\n      mstore\n        /* \"#utility.yul\":1038:1156   */\n      pop\n      pop\n      jump\t// out\n        /* \"#utility.yul\":1162:1384   */\n    tag_14:\n        /* \"#utility.yul\":1255:1259   */\n      0x00\n        /* \"#utility.yul\":1293:1295   */\n      0x20\n        /* \"#utility.yul\":1282:1291   */\n      dup3\n        /* \"#utility.yul\":1278:1296   */\n      add\n        /* \"#utility.yul\":1270:1296   */\n      swap1\n      pop\n        /* \"#utility.yul\":1306:1377   */\n      tag_35\n        /* \"#utility.yul\":1374:1375   */\n      0x00\n        /* \"#utility.yul\":1363:1372   */\n      dup4\n        /* \"#utility.yul\":1359:1376   */\n      add\n        /* \"#utility.yul\":1350:1356   */\n      dup5\n        /* \"#utility.yul\":1306:1377   */\n      tag_20\n      jump\t// in\n    tag_35:\n        /* \"#utility.yul\":1162:1384   */\n      swap3\n      swap2\n      pop\n      pop\n      jump\t// out\n\n    auxdata: 0xa26469706673582212207f62b9729377dc593851137e4df5bee5bcbd9f5b63929519e5775b9291824f7d64736f6c63430008080033\n}\n",
				"bytecode": {
					"linkReferences": {},
					"object": "608060405234801561001057600080fd5b50610161806100206000396000f3fe6080604052600436106100225760003560e01c80633c6bb4361461004557610031565b36610031576001600081905550005b60008036906100409190610098565b905050005b34801561005157600080fd5b5061005a610070565b6040516100679190610110565b60405180910390f35b60005481565b600082905092915050565b6000819050919050565b600082821b905092915050565b60006100a48383610076565b826100af8135610081565b925060208210156100ef576100ea7fffffffffffffffffffffffffffffffffffffffffffffffffffffffffffffffff8360200360080261008b565b831692505b505092915050565b6000819050919050565b61010a816100f7565b82525050565b60006020820190506101256000830184610101565b9291505056fea26469706673582212207f62b9729377dc593851137e4df5bee5bcbd9f5b63929519e5775b9291824f7d64736f6c63430008080033",
					"opcodes": "PUSH1 0x80 PUSH1 0x40 MSTORE CALLVALUE DUP1 ISZERO PUSH2 0x10 JUMPI PUSH1 0x0 DUP1 REVERT JUMPDEST POP PUSH2 0x161 DUP1 PUSH2 0x20 PUSH1 0x0 CODECOPY PUSH1 0x0 RETURN INVALID PUSH1 0x80 PUSH1 0x40 MSTORE PUSH1 0x4 CALLDATASIZE LT PUSH2 0x22 JUMPI PUSH1 0x0 CALLDATALOAD PUSH1 0xE0 SHR DUP1 PUSH4 0x3C6BB436 EQ PUSH2 0x45 JUMPI PUSH2 0x31 JUMP JUMPDEST CALLDATASIZE PUSH2 0x31 JUMPI PUSH1 0x1 PUSH1 0x0 DUP2 SWAP1 SSTORE POP STOP JUMPDEST PUSH1 0x0 DUP1 CALLDATASIZE SWAP1 PUSH2 0x40 SWAP2 SWAP1 PUSH2 0x98 JUMP JUMPDEST SWAP1 POP POP STOP JUMPDEST CALLVALUE DUP1 ISZERO PUSH2 0x51 JUMPI PUSH1 0x0 DUP1 REVERT JUMPDEST POP PUSH2 0x5A PUSH2 0x70 JUMP JUMPDEST PUSH1 0x40 MLOAD PUSH2 0x67 SWAP2 SWAP1 PUSH2 0x110 JUMP JUMPDEST PUSH1 0x40 MLOAD DUP1 SWAP2 SUB SWAP1 RETURN JUMPDEST PUSH1 0x0 SLOAD DUP2 JUMP JUMPDEST PUSH1 0x0 DUP3 SWAP1 POP SWAP3 SWAP2 POP POP JUMP JUMPDEST PUSH1 0x0 DUP2 SWAP1 POP SWAP2 SWAP1 POP JUMP JUMPDEST PUSH1 0x0 DUP3 DUP3 SHL SWAP1 POP SWAP3 SWAP2 POP POP JUMP JUMPDEST PUSH1 0x0 PUSH2 0xA4 DUP4 DUP4 PUSH2 0x76 JUMP JUMPDEST DUP3 PUSH2 0xAF DUP2 CALLDATALOAD PUSH2 0x81 JUMP JUMPDEST SWAP3 POP PUSH1 0x20 DUP3 LT ISZERO PUSH2 0xEF JUMPI PUSH2 0xEA PUSH32 0xFFFFFFFFFFFFFFFFFFFFFFFFFFFFFFFFFFFFFFFFFFFFFFFFFFFFFFFFFFFFFFFF DUP4 PUSH1 0x20 SUB PUSH1 0x8 MUL PUSH2 0x8B JUMP JUMPDEST DUP4 AND SWAP3 POP JUMPDEST POP POP SWAP3 SWAP2 POP POP JUMP JUMPDEST PUSH1 0x0 DUP2 SWAP1 POP SWAP2 SWAP1 POP JUMP JUMPDEST PUSH2 0x10A DUP2 PUSH2 0xF7 JUMP JUMPDEST DUP3 MSTORE POP POP JUMP JUMPDEST PUSH1 0x0 PUSH1 0x20 DUP3 ADD SWAP1 POP PUSH2 0x125 PUSH1 0x0 DUP4 ADD DUP5 PUSH2 0x101 JUMP JUMPDEST SWAP3 SWAP2 POP POP JUMP INVALID LOG2 PUSH5 0x6970667358 0x22 SLT KECCAK256 PUSH32 0x62B9729377DC593851137E4DF5BEE5BCBD9F5B63929519E5775B9291824F7D64 PUSH20 0x6F6C634300080800330000000000000000000000 "
				},
				"gasEstimates": {
					"creation": {
						"codeDepositCost": "70600",
						"executionCost": "123",
						"totalCost": "70723"
					},
					"external": {
						"": "366",
						"val()": "2407"
					}
				},
				"methodIdentifiers": {
					"val()": "3c6bb436"
				}
			},
			"storageLayout": {
				"storage": [
					{
						"astId": 3,
						"contract": "Contract  ^0.8.8/TestContract.sol:Test1",
						"label": "val",
						"offset": 0,
						"slot": "0",
						"type": "t_uint256"
					}
				],
				"types": {
					"t_uint256": {
						"encoding": "inplace",
						"label": "uint256",
						"numberOfBytes": "32"
					}
				}
			},
			"userdoc": {
				"kind": "user",
				"methods": {},
				"version": 1
			}
		}
	}
}