{
  "_format": "hh-sol-artifact-1",
  "contractName": "Reverse2",
  "sourceName": "contracts/reverse2.sol",
  "abi": [
    {
      "inputs": [
        {
          "internalType": "address",
          "name": "_contractAdd",
          "type": "address"
        }
      ],
      "stateMutability": "nonpayable",
      "type": "constructor"
    },
    {
      "inputs": [],
      "name": "Failed",
      "type": "error"
    },
    {
      "inputs": [],
      "name": "LowBalance",
      "type": "error"
    },
    {
      "inputs": [],
      "name": "Unauthorized",
      "type": "error"
    },
    {
      "inputs": [],
      "name": "beginFailed",
      "type": "error"
    },
    {
      "inputs": [],
      "name": "addFund",
      "outputs": [],
      "stateMutability": "payable",
      "type": "function"
    },
    {
      "inputs": [],
      "name": "begin",
      "outputs": [],
      "stateMutability": "nonpayable",
      "type": "function"
    },
    {
      "inputs": [],
      "name": "showBalance",
      "outputs": [
        {
          "internalType": "uint256",
          "name": "",
          "type": "uint256"
        }
      ],
      "stateMutability": "view",
      "type": "function"
    },
    {
      "stateMutability": "payable",
      "type": "receive"
    }
  ],
  "bytecode": "0x60c060405234801561001057600080fd5b506040516104d53803806104d583398181016040528101906100329190610109565b3373ffffffffffffffffffffffffffffffffffffffff1660808173ffffffffffffffffffffffffffffffffffffffff1660601b815250508073ffffffffffffffffffffffffffffffffffffffff1660a08173ffffffffffffffffffffffffffffffffffffffff1660601b8152505050610136565b600080fd5b600073ffffffffffffffffffffffffffffffffffffffff82169050919050565b60006100d6826100ab565b9050919050565b6100e6816100cb565b81146100f157600080fd5b50565b600081519050610103816100dd565b92915050565b60006020828403121561011f5761011e6100a6565b5b600061012d848285016100f4565b91505092915050565b60805160601c60a05160601c61037461016160003960006101f80152600061018801526103746000f3fe6080604052600436106100385760003560e01c80631bce6ff31461012357806381b2d07b1461013a578063a2f09dfa146101655761011e565b3661011e576000471415610078576040517ffe382aa700000000000000000000000000000000000000000000000000000000815260040160405180910390fd5b60003373ffffffffffffffffffffffffffffffffffffffff164760405161009e906102f5565b60006040518083038185875af1925050503d80600081146100db576040519150601f19603f3d011682016040523d82523d6000602084013e6100e0565b606091505b505090508061011b576040517f625a40e600000000000000000000000000000000000000000000000000000000815260040160405180910390fd5b50005b600080fd5b34801561012f57600080fd5b5061013861016f565b005b34801561014657600080fd5b5061014f6102ba565b60405161015c9190610323565b60405180910390f35b61016d6102c2565b005b3373ffffffffffffffffffffffffffffffffffffffff167f000000000000000000000000000000000000000000000000000000000000000073ffffffffffffffffffffffffffffffffffffffff16146101f4576040517f82b4290000000000000000000000000000000000000000000000000000000000815260040160405180910390fd5b60007f000000000000000000000000000000000000000000000000000000000000000073ffffffffffffffffffffffffffffffffffffffff164760405161023a906102f5565b60006040518083038185875af1925050503d8060008114610277576040519150601f19603f3d011682016040523d82523d6000602084013e61027c565b606091505b50509050806102b7576040517f0bc45f8600000000000000000000000000000000000000000000000000000000815260040160405180910390fd5b50565b600047905090565b565b600081905092915050565b50565b60006102df6000836102c4565b91506102ea826102cf565b600082019050919050565b6000610300826102d2565b9150819050919050565b6000819050919050565b61031d8161030a565b82525050565b60006020820190506103386000830184610314565b9291505056fea26469706673582212204f2d8d259d994e8c34c739b4b39beb3951cc99402aa034952804b6024149d9bc64736f6c63430008080033",
  "linkReferences": {},
  "deployedLinkReferences": {}
}