{
	"Learning Contrats v0.4.0/CourseraProject/Pgu7q1LYEeiDhgqYR-Lxvg_3e270bc052d811e8905939ab43f94f38_Auction.sol": {
		"Auction": {
			"abi": [
				{
					"constant": false,
					"inputs": [],
					"name": "register",
					"outputs": [],
					"payable": true,
					"stateMutability": "payable",
					"type": "function"
				},
				{
					"constant": true,
					"inputs": [],
					"name": "beneficiary",
					"outputs": [
						{
							"name": "",
							"type": "address"
						}
					],
					"payable": false,
					"stateMutability": "view",
					"type": "function"
				},
				{
					"constant": false,
					"inputs": [
						{
							"name": "_itemId",
							"type": "uint256"
						},
						{
							"name": "_count",
							"type": "uint256"
						}
					],
					"name": "bid",
					"outputs": [],
					"payable": true,
					"stateMutability": "payable",
					"type": "function"
				},
				{
					"constant": true,
					"inputs": [
						{
							"name": "id",
							"type": "uint256"
						}
					],
					"name": "getPersonDetails",
					"outputs": [
						{
							"name": "",
							"type": "uint256"
						},
						{
							"name": "",
							"type": "uint256"
						},
						{
							"name": "",
							"type": "address"
						}
					],
					"payable": false,
					"stateMutability": "view",
					"type": "function"
				},
				{
					"constant": false,
					"inputs": [],
					"name": "revealWinners",
					"outputs": [],
					"payable": false,
					"stateMutability": "nonpayable",
					"type": "function"
				},
				{
					"constant": true,
					"inputs": [
						{
							"name": "",
							"type": "uint256"
						}
					],
					"name": "winners",
					"outputs": [
						{
							"name": "",
							"type": "address"
						}
					],
					"payable": false,
					"stateMutability": "view",
					"type": "function"
				},
				{
					"constant": true,
					"inputs": [
						{
							"name": "",
							"type": "uint256"
						}
					],
					"name": "items",
					"outputs": [
						{
							"name": "itemId",
							"type": "uint256"
						}
					],
					"payable": false,
					"stateMutability": "view",
					"type": "function"
				},
				{
					"inputs": [],
					"payable": true,
					"stateMutability": "payable",
					"type": "constructor"
				}
			],
			"devdoc": {
				"methods": {}
			},
			"evm": {
				"assembly": "    /* \"Learning Contrats v0.4.0/CourseraProject/Pgu7q1LYEeiDhgqYR-Lxvg_3e270bc052d811e8905939ab43f94f38_Auction.sol\":25:5706  contract Auction {... */\n  mstore(0x40, 0x60)\n    /* \"Learning Contrats v0.4.0/CourseraProject/Pgu7q1LYEeiDhgqYR-Lxvg_3e270bc052d811e8905939ab43f94f38_Auction.sol\":819:820  0 */\n  0x0\n    /* \"Learning Contrats v0.4.0/CourseraProject/Pgu7q1LYEeiDhgqYR-Lxvg_3e270bc052d811e8905939ab43f94f38_Auction.sol\":802:820  uint bidderCount=0 */\n  0x17\n  sstore\n    /* \"Learning Contrats v0.4.0/CourseraProject/Pgu7q1LYEeiDhgqYR-Lxvg_3e270bc052d811e8905939ab43f94f38_Auction.sol\":1223:1247  uint[] memory emptyArray */\n  tag_2\n  jump\t// in(tag_3)\ntag_2:\n    /* \"Learning Contrats v0.4.0/CourseraProject/Pgu7q1LYEeiDhgqYR-Lxvg_3e270bc052d811e8905939ab43f94f38_Auction.sol\":1169:1179  msg.sender */\n  caller\n    /* \"Learning Contrats v0.4.0/CourseraProject/Pgu7q1LYEeiDhgqYR-Lxvg_3e270bc052d811e8905939ab43f94f38_Auction.sol\":1157:1168  beneficiary */\n  0x16\n  0x0\n    /* \"Learning Contrats v0.4.0/CourseraProject/Pgu7q1LYEeiDhgqYR-Lxvg_3e270bc052d811e8905939ab43f94f38_Auction.sol\":1157:1179  beneficiary=msg.sender */\n  0x100\n  exp\n  dup2\n  sload\n  dup2\n  0xffffffffffffffffffffffffffffffffffffffff\n  mul\n  not\n  and\n  swap1\n  dup4\n  0xffffffffffffffffffffffffffffffffffffffff\n  and\n  mul\n  or\n  swap1\n  sstore\n  pop\n    /* \"Learning Contrats v0.4.0/CourseraProject/Pgu7q1LYEeiDhgqYR-Lxvg_3e270bc052d811e8905939ab43f94f38_Auction.sol\":1268:1306  Item({itemId:0,itemTokens:emptyArray}) */\n  0x40\n  dup1\n  mload\n  swap1\n  dup2\n  add\n  0x40\n  mstore\n  dup1\n    /* \"Learning Contrats v0.4.0/CourseraProject/Pgu7q1LYEeiDhgqYR-Lxvg_3e270bc052d811e8905939ab43f94f38_Auction.sol\":1281:1282  0 */\n  0x0\n    /* \"Learning Contrats v0.4.0/CourseraProject/Pgu7q1LYEeiDhgqYR-Lxvg_3e270bc052d811e8905939ab43f94f38_Auction.sol\":1268:1306  Item({itemId:0,itemTokens:emptyArray}) */\n  dup2\n  mstore\n  0x20\n  add\n    /* \"Learning Contrats v0.4.0/CourseraProject/Pgu7q1LYEeiDhgqYR-Lxvg_3e270bc052d811e8905939ab43f94f38_Auction.sol\":1294:1304  emptyArray */\n  dup3\n    /* \"Learning Contrats v0.4.0/CourseraProject/Pgu7q1LYEeiDhgqYR-Lxvg_3e270bc052d811e8905939ab43f94f38_Auction.sol\":1268:1306  Item({itemId:0,itemTokens:emptyArray}) */\n  dup2\n  mstore\n  pop\n    /* \"Learning Contrats v0.4.0/CourseraProject/Pgu7q1LYEeiDhgqYR-Lxvg_3e270bc052d811e8905939ab43f94f38_Auction.sol\":1257:1262  items */\n  0xd\n    /* \"Learning Contrats v0.4.0/CourseraProject/Pgu7q1LYEeiDhgqYR-Lxvg_3e270bc052d811e8905939ab43f94f38_Auction.sol\":1263:1264  0 */\n  0x0\n    /* \"Learning Contrats v0.4.0/CourseraProject/Pgu7q1LYEeiDhgqYR-Lxvg_3e270bc052d811e8905939ab43f94f38_Auction.sol\":1257:1265  items[0] */\n  0x3\n  dup2\n  lt\n  iszero\n  iszero\n  tag_5\n  jumpi\n  invalid\ntag_5:\n  0x2\n  mul\n  add\n    /* \"Learning Contrats v0.4.0/CourseraProject/Pgu7q1LYEeiDhgqYR-Lxvg_3e270bc052d811e8905939ab43f94f38_Auction.sol\":1257:1306  items[0] = Item({itemId:0,itemTokens:emptyArray}) */\n  0x0\n  dup3\n  add\n  mload\n  dup2\n  0x0\n  add\n  sstore\n  0x20\n  dup3\n  add\n  mload\n  dup2\n  0x1\n  add\n  swap1\n  dup1\n  mload\n  swap1\n  0x20\n  add\n  swap1\n  tag_7\n  swap3\n  swap2\n  swap1\n  jump\t// in(tag_8)\ntag_7:\n  pop\n  swap1\n  pop\n  pop\n    /* \"Learning Contrats v0.4.0/CourseraProject/Pgu7q1LYEeiDhgqYR-Lxvg_3e270bc052d811e8905939ab43f94f38_Auction.sol\":1465:1503  Item({itemId:1,itemTokens:emptyArray}) */\n  0x40\n  dup1\n  mload\n  swap1\n  dup2\n  add\n  0x40\n  mstore\n  dup1\n    /* \"Learning Contrats v0.4.0/CourseraProject/Pgu7q1LYEeiDhgqYR-Lxvg_3e270bc052d811e8905939ab43f94f38_Auction.sol\":1478:1479  1 */\n  0x1\n    /* \"Learning Contrats v0.4.0/CourseraProject/Pgu7q1LYEeiDhgqYR-Lxvg_3e270bc052d811e8905939ab43f94f38_Auction.sol\":1465:1503  Item({itemId:1,itemTokens:emptyArray}) */\n  dup2\n  mstore\n  0x20\n  add\n    /* \"Learning Contrats v0.4.0/CourseraProject/Pgu7q1LYEeiDhgqYR-Lxvg_3e270bc052d811e8905939ab43f94f38_Auction.sol\":1491:1501  emptyArray */\n  dup3\n    /* \"Learning Contrats v0.4.0/CourseraProject/Pgu7q1LYEeiDhgqYR-Lxvg_3e270bc052d811e8905939ab43f94f38_Auction.sol\":1465:1503  Item({itemId:1,itemTokens:emptyArray}) */\n  dup2\n  mstore\n  pop\n    /* \"Learning Contrats v0.4.0/CourseraProject/Pgu7q1LYEeiDhgqYR-Lxvg_3e270bc052d811e8905939ab43f94f38_Auction.sol\":1454:1459  items */\n  0xd\n    /* \"Learning Contrats v0.4.0/CourseraProject/Pgu7q1LYEeiDhgqYR-Lxvg_3e270bc052d811e8905939ab43f94f38_Auction.sol\":1460:1461  1 */\n  0x1\n    /* \"Learning Contrats v0.4.0/CourseraProject/Pgu7q1LYEeiDhgqYR-Lxvg_3e270bc052d811e8905939ab43f94f38_Auction.sol\":1454:1462  items[1] */\n  0x3\n  dup2\n  lt\n  iszero\n  iszero\n  tag_9\n  jumpi\n  invalid\ntag_9:\n  0x2\n  mul\n  add\n    /* \"Learning Contrats v0.4.0/CourseraProject/Pgu7q1LYEeiDhgqYR-Lxvg_3e270bc052d811e8905939ab43f94f38_Auction.sol\":1454:1503  items[1] = Item({itemId:1,itemTokens:emptyArray}) */\n  0x0\n  dup3\n  add\n  mload\n  dup2\n  0x0\n  add\n  sstore\n  0x20\n  dup3\n  add\n  mload\n  dup2\n  0x1\n  add\n  swap1\n  dup1\n  mload\n  swap1\n  0x20\n  add\n  swap1\n  tag_11\n  swap3\n  swap2\n  swap1\n  jump\t// in(tag_8)\ntag_11:\n  pop\n  swap1\n  pop\n  pop\n    /* \"Learning Contrats v0.4.0/CourseraProject/Pgu7q1LYEeiDhgqYR-Lxvg_3e270bc052d811e8905939ab43f94f38_Auction.sol\":1525:1563  Item({itemId:2,itemTokens:emptyArray}) */\n  0x40\n  dup1\n  mload\n  swap1\n  dup2\n  add\n  0x40\n  mstore\n  dup1\n    /* \"Learning Contrats v0.4.0/CourseraProject/Pgu7q1LYEeiDhgqYR-Lxvg_3e270bc052d811e8905939ab43f94f38_Auction.sol\":1538:1539  2 */\n  0x2\n    /* \"Learning Contrats v0.4.0/CourseraProject/Pgu7q1LYEeiDhgqYR-Lxvg_3e270bc052d811e8905939ab43f94f38_Auction.sol\":1525:1563  Item({itemId:2,itemTokens:emptyArray}) */\n  dup2\n  mstore\n  0x20\n  add\n    /* \"Learning Contrats v0.4.0/CourseraProject/Pgu7q1LYEeiDhgqYR-Lxvg_3e270bc052d811e8905939ab43f94f38_Auction.sol\":1551:1561  emptyArray */\n  dup3\n    /* \"Learning Contrats v0.4.0/CourseraProject/Pgu7q1LYEeiDhgqYR-Lxvg_3e270bc052d811e8905939ab43f94f38_Auction.sol\":1525:1563  Item({itemId:2,itemTokens:emptyArray}) */\n  dup2\n  mstore\n  pop\n    /* \"Learning Contrats v0.4.0/CourseraProject/Pgu7q1LYEeiDhgqYR-Lxvg_3e270bc052d811e8905939ab43f94f38_Auction.sol\":1514:1519  items */\n  0xd\n    /* \"Learning Contrats v0.4.0/CourseraProject/Pgu7q1LYEeiDhgqYR-Lxvg_3e270bc052d811e8905939ab43f94f38_Auction.sol\":1520:1521  2 */\n  0x2\n    /* \"Learning Contrats v0.4.0/CourseraProject/Pgu7q1LYEeiDhgqYR-Lxvg_3e270bc052d811e8905939ab43f94f38_Auction.sol\":1514:1522  items[2] */\n  0x3\n  dup2\n  lt\n  iszero\n  iszero\n  tag_12\n  jumpi\n  invalid\ntag_12:\n  0x2\n  mul\n  add\n    /* \"Learning Contrats v0.4.0/CourseraProject/Pgu7q1LYEeiDhgqYR-Lxvg_3e270bc052d811e8905939ab43f94f38_Auction.sol\":1514:1563  items[2] = Item({itemId:2,itemTokens:emptyArray}) */\n  0x0\n  dup3\n  add\n  mload\n  dup2\n  0x0\n  add\n  sstore\n  0x20\n  dup3\n  add\n  mload\n  dup2\n  0x1\n  add\n  swap1\n  dup1\n  mload\n  swap1\n  0x20\n  add\n  swap1\n  tag_14\n  swap3\n  swap2\n  swap1\n  jump\t// in(tag_8)\ntag_14:\n  pop\n  swap1\n  pop\n  pop\n    /* \"Learning Contrats v0.4.0/CourseraProject/Pgu7q1LYEeiDhgqYR-Lxvg_3e270bc052d811e8905939ab43f94f38_Auction.sol\":857:1601  function Auction() public payable{    //constructor... */\n  pop\n    /* \"Learning Contrats v0.4.0/CourseraProject/Pgu7q1LYEeiDhgqYR-Lxvg_3e270bc052d811e8905939ab43f94f38_Auction.sol\":25:5706  contract Auction {... */\n  jump(tag_15)\ntag_3:\n  0x20\n  mload(0x40)\n  swap1\n  dup2\n  add\n  0x40\n  mstore\n  dup1\n  0x0\n  dup2\n  mstore\n  pop\n  swap1\n  jump\t// out\ntag_8:\n  dup3\n  dup1\n  sload\n  dup3\n  dup3\n  sstore\n  swap1\n  0x0\n  mstore\n  keccak256(0x0, 0x20)\n  swap1\n  dup2\n  add\n  swap3\n  dup3\n  iszero\n  tag_16\n  jumpi\n  swap2\n  0x20\n  mul\n  dup3\n  add\ntag_17:\n  dup3\n  dup2\n  gt\n  iszero\n  tag_18\n  jumpi\n  dup3\n  mload\n  dup3\n  sstore\n  swap2\n  0x20\n  add\n  swap2\n  swap1\n  0x1\n  add\n  swap1\n  jump(tag_17)\ntag_18:\ntag_16:\n  pop\n  swap1\n  pop\n  tag_19\n  swap2\n  swap1\n  jump\t// in(tag_20)\ntag_19:\n  pop\n  swap1\n  jump\t// out\ntag_20:\n  tag_21\n  swap2\n  swap1\ntag_22:\n  dup1\n  dup3\n  gt\n  iszero\n  tag_23\n  jumpi\n  0x0\n  dup2\n  0x0\n  swap1\n  sstore\n  pop\n  0x1\n  add\n  jump(tag_22)\ntag_23:\n  pop\n  swap1\n  jump\ntag_21:\n  swap1\n  jump\t// out\ntag_15:\n  dataSize(sub_0)\n  dup1\n  dataOffset(sub_0)\n  0x0\n  codecopy\n  0x0\n  return\nstop\n\nsub_0: assembly {\n        /* \"Learning Contrats v0.4.0/CourseraProject/Pgu7q1LYEeiDhgqYR-Lxvg_3e270bc052d811e8905939ab43f94f38_Auction.sol\":25:5706  contract Auction {... */\n      mstore(0x40, 0x60)\n      jumpi(tag_1, iszero(calldatasize))\n      calldataload(0x0)\n      0x100000000000000000000000000000000000000000000000000000000\n      swap1\n      div\n      0xffffffff\n      and\n      dup1\n      0x1aa3a008\n      eq\n      tag_2\n      jumpi\n      dup1\n      0x38af3eed\n      eq\n      tag_3\n      jumpi\n      dup1\n      0x598647f8\n      eq\n      tag_4\n      jumpi\n      dup1\n      0x60981705\n      eq\n      tag_5\n      jumpi\n      dup1\n      0x952587d6\n      eq\n      tag_6\n      jumpi\n      dup1\n      0xa2fb1175\n      eq\n      tag_7\n      jumpi\n      dup1\n      0xbfb231d2\n      eq\n      tag_8\n      jumpi\n    tag_1:\n      0x0\n      dup1\n      revert\n        /* \"Learning Contrats v0.4.0/CourseraProject/Pgu7q1LYEeiDhgqYR-Lxvg_3e270bc052d811e8905939ab43f94f38_Auction.sol\":1612:2192  function register() public payable{... */\n    tag_2:\n      tag_9\n      jump(tag_10)\n    tag_9:\n      stop\n        /* \"Learning Contrats v0.4.0/CourseraProject/Pgu7q1LYEeiDhgqYR-Lxvg_3e270bc052d811e8905939ab43f94f38_Auction.sol\":736:762  address public beneficiary */\n    tag_3:\n      jumpi(tag_11, iszero(callvalue))\n      0x0\n      dup1\n      revert\n    tag_11:\n      tag_12\n      jump(tag_13)\n    tag_12:\n      mload(0x40)\n      dup1\n      dup3\n      0xffffffffffffffffffffffffffffffffffffffff\n      and\n      0xffffffffffffffffffffffffffffffffffffffff\n      and\n      dup2\n      mstore\n      0x20\n      add\n      swap2\n      pop\n      pop\n      mload(0x40)\n      dup1\n      swap2\n      sub\n      swap1\n      return\n        /* \"Learning Contrats v0.4.0/CourseraProject/Pgu7q1LYEeiDhgqYR-Lxvg_3e270bc052d811e8905939ab43f94f38_Auction.sol\":2202:3965  function bid(uint _itemId, uint _count) public payable{... */\n    tag_4:\n      tag_14\n      0x4\n      dup1\n      dup1\n      calldataload\n      swap1\n      0x20\n      add\n      swap1\n      swap2\n      swap1\n      dup1\n      calldataload\n      swap1\n      0x20\n      add\n      swap1\n      swap2\n      swap1\n      pop\n      pop\n      jump(tag_15)\n    tag_14:\n      stop\n        /* \"Learning Contrats v0.4.0/CourseraProject/Pgu7q1LYEeiDhgqYR-Lxvg_3e270bc052d811e8905939ab43f94f38_Auction.sol\":5535:5703  function getPersonDetails(uint id) public constant returns(uint,uint,address){... */\n    tag_5:\n      jumpi(tag_16, iszero(callvalue))\n      0x0\n      dup1\n      revert\n    tag_16:\n      tag_17\n      0x4\n      dup1\n      dup1\n      calldataload\n      swap1\n      0x20\n      add\n      swap1\n      swap2\n      swap1\n      pop\n      pop\n      jump(tag_18)\n    tag_17:\n      mload(0x40)\n      dup1\n      dup5\n      dup2\n      mstore\n      0x20\n      add\n      dup4\n      dup2\n      mstore\n      0x20\n      add\n      dup3\n      0xffffffffffffffffffffffffffffffffffffffff\n      and\n      0xffffffffffffffffffffffffffffffffffffffff\n      and\n      dup2\n      mstore\n      0x20\n      add\n      swap4\n      pop\n      pop\n      pop\n      pop\n      mload(0x40)\n      dup1\n      swap2\n      sub\n      swap1\n      return\n        /* \"Learning Contrats v0.4.0/CourseraProject/Pgu7q1LYEeiDhgqYR-Lxvg_3e270bc052d811e8905939ab43f94f38_Auction.sol\":4354:5433  function revealWinners() public onlyOwner{... */\n    tag_6:\n      jumpi(tag_19, iszero(callvalue))\n      0x0\n      dup1\n      revert\n    tag_19:\n      tag_20\n      jump(tag_21)\n    tag_20:\n      stop\n        /* \"Learning Contrats v0.4.0/CourseraProject/Pgu7q1LYEeiDhgqYR-Lxvg_3e270bc052d811e8905939ab43f94f38_Auction.sol\":675:700  address[3] public winners */\n    tag_7:\n      jumpi(tag_22, iszero(callvalue))\n      0x0\n      dup1\n      revert\n    tag_22:\n      tag_23\n      0x4\n      dup1\n      dup1\n      calldataload\n      swap1\n      0x20\n      add\n      swap1\n      swap2\n      swap1\n      pop\n      pop\n      jump(tag_24)\n    tag_23:\n      mload(0x40)\n      dup1\n      dup3\n      0xffffffffffffffffffffffffffffffffffffffff\n      and\n      0xffffffffffffffffffffffffffffffffffffffff\n      and\n      dup2\n      mstore\n      0x20\n      add\n      swap2\n      pop\n      pop\n      mload(0x40)\n      dup1\n      swap2\n      sub\n      swap1\n      return\n        /* \"Learning Contrats v0.4.0/CourseraProject/Pgu7q1LYEeiDhgqYR-Lxvg_3e270bc052d811e8905939ab43f94f38_Auction.sol\":615:636  Item [3] public items */\n    tag_8:\n      jumpi(tag_25, iszero(callvalue))\n      0x0\n      dup1\n      revert\n    tag_25:\n      tag_26\n      0x4\n      dup1\n      dup1\n      calldataload\n      swap1\n      0x20\n      add\n      swap1\n      swap2\n      swap1\n      pop\n      pop\n      jump(tag_27)\n    tag_26:\n      mload(0x40)\n      dup1\n      dup3\n      dup2\n      mstore\n      0x20\n      add\n      swap2\n      pop\n      pop\n      mload(0x40)\n      dup1\n      swap2\n      sub\n      swap1\n      return\n        /* \"Learning Contrats v0.4.0/CourseraProject/Pgu7q1LYEeiDhgqYR-Lxvg_3e270bc052d811e8905939ab43f94f38_Auction.sol\":1612:2192  function register() public payable{... */\n    tag_10:\n        /* \"Learning Contrats v0.4.0/CourseraProject/Pgu7q1LYEeiDhgqYR-Lxvg_3e270bc052d811e8905939ab43f94f38_Auction.sol\":1706:1717  bidderCount */\n      sload(0x17)\n        /* \"Learning Contrats v0.4.0/CourseraProject/Pgu7q1LYEeiDhgqYR-Lxvg_3e270bc052d811e8905939ab43f94f38_Auction.sol\":1674:1681  bidders */\n      0x1\n        /* \"Learning Contrats v0.4.0/CourseraProject/Pgu7q1LYEeiDhgqYR-Lxvg_3e270bc052d811e8905939ab43f94f38_Auction.sol\":1682:1693  bidderCount */\n      sload(0x17)\n        /* \"Learning Contrats v0.4.0/CourseraProject/Pgu7q1LYEeiDhgqYR-Lxvg_3e270bc052d811e8905939ab43f94f38_Auction.sol\":1674:1694  bidders[bidderCount] */\n      0x4\n      dup2\n      lt\n      iszero\n      iszero\n      tag_29\n      jumpi\n      invalid\n    tag_29:\n      0x3\n      mul\n      add\n        /* \"Learning Contrats v0.4.0/CourseraProject/Pgu7q1LYEeiDhgqYR-Lxvg_3e270bc052d811e8905939ab43f94f38_Auction.sol\":1674:1703  bidders[bidderCount].personId */\n      0x1\n      add\n        /* \"Learning Contrats v0.4.0/CourseraProject/Pgu7q1LYEeiDhgqYR-Lxvg_3e270bc052d811e8905939ab43f94f38_Auction.sol\":1674:1717  bidders[bidderCount].personId = bidderCount */\n      dup2\n      swap1\n      sstore\n      pop\n        /* \"Learning Contrats v0.4.0/CourseraProject/Pgu7q1LYEeiDhgqYR-Lxvg_3e270bc052d811e8905939ab43f94f38_Auction.sol\":1990:2000  msg.sender */\n      caller\n        /* \"Learning Contrats v0.4.0/CourseraProject/Pgu7q1LYEeiDhgqYR-Lxvg_3e270bc052d811e8905939ab43f94f38_Auction.sol\":1964:1971  bidders */\n      0x1\n        /* \"Learning Contrats v0.4.0/CourseraProject/Pgu7q1LYEeiDhgqYR-Lxvg_3e270bc052d811e8905939ab43f94f38_Auction.sol\":1972:1983  bidderCount */\n      sload(0x17)\n        /* \"Learning Contrats v0.4.0/CourseraProject/Pgu7q1LYEeiDhgqYR-Lxvg_3e270bc052d811e8905939ab43f94f38_Auction.sol\":1964:1984  bidders[bidderCount] */\n      0x4\n      dup2\n      lt\n      iszero\n      iszero\n      tag_31\n      jumpi\n      invalid\n    tag_31:\n      0x3\n      mul\n      add\n        /* \"Learning Contrats v0.4.0/CourseraProject/Pgu7q1LYEeiDhgqYR-Lxvg_3e270bc052d811e8905939ab43f94f38_Auction.sol\":1964:1989  bidders[bidderCount].addr */\n      0x2\n      add\n      0x0\n        /* \"Learning Contrats v0.4.0/CourseraProject/Pgu7q1LYEeiDhgqYR-Lxvg_3e270bc052d811e8905939ab43f94f38_Auction.sol\":1964:2000  bidders[bidderCount].addr=msg.sender */\n      0x100\n      exp\n      dup2\n      sload\n      dup2\n      0xffffffffffffffffffffffffffffffffffffffff\n      mul\n      not\n      and\n      swap1\n      dup4\n      0xffffffffffffffffffffffffffffffffffffffff\n      and\n      mul\n      or\n      swap1\n      sstore\n      pop\n        /* \"Learning Contrats v0.4.0/CourseraProject/Pgu7q1LYEeiDhgqYR-Lxvg_3e270bc052d811e8905939ab43f94f38_Auction.sol\":2089:2090  5 */\n      0x5\n        /* \"Learning Contrats v0.4.0/CourseraProject/Pgu7q1LYEeiDhgqYR-Lxvg_3e270bc052d811e8905939ab43f94f38_Auction.sol\":2050:2057  bidders */\n      0x1\n        /* \"Learning Contrats v0.4.0/CourseraProject/Pgu7q1LYEeiDhgqYR-Lxvg_3e270bc052d811e8905939ab43f94f38_Auction.sol\":2058:2069  bidderCount */\n      sload(0x17)\n        /* \"Learning Contrats v0.4.0/CourseraProject/Pgu7q1LYEeiDhgqYR-Lxvg_3e270bc052d811e8905939ab43f94f38_Auction.sol\":2050:2070  bidders[bidderCount] */\n      0x4\n      dup2\n      lt\n      iszero\n      iszero\n      tag_33\n      jumpi\n      invalid\n    tag_33:\n      0x3\n      mul\n      add\n        /* \"Learning Contrats v0.4.0/CourseraProject/Pgu7q1LYEeiDhgqYR-Lxvg_3e270bc052d811e8905939ab43f94f38_Auction.sol\":2050:2086  bidders[bidderCount].remainingTokens */\n      0x0\n      add\n        /* \"Learning Contrats v0.4.0/CourseraProject/Pgu7q1LYEeiDhgqYR-Lxvg_3e270bc052d811e8905939ab43f94f38_Auction.sol\":2050:2090  bidders[bidderCount].remainingTokens = 5 */\n      dup2\n      swap1\n      sstore\n      pop\n        /* \"Learning Contrats v0.4.0/CourseraProject/Pgu7q1LYEeiDhgqYR-Lxvg_3e270bc052d811e8905939ab43f94f38_Auction.sol\":2142:2149  bidders */\n      0x1\n        /* \"Learning Contrats v0.4.0/CourseraProject/Pgu7q1LYEeiDhgqYR-Lxvg_3e270bc052d811e8905939ab43f94f38_Auction.sol\":2150:2161  bidderCount */\n      sload(0x17)\n        /* \"Learning Contrats v0.4.0/CourseraProject/Pgu7q1LYEeiDhgqYR-Lxvg_3e270bc052d811e8905939ab43f94f38_Auction.sol\":2142:2162  bidders[bidderCount] */\n      0x4\n      dup2\n      lt\n      iszero\n      iszero\n      tag_35\n      jumpi\n      invalid\n    tag_35:\n      0x3\n      mul\n      add\n        /* \"Learning Contrats v0.4.0/CourseraProject/Pgu7q1LYEeiDhgqYR-Lxvg_3e270bc052d811e8905939ab43f94f38_Auction.sol\":2117:2129  tokenDetails */\n      0x0\n        /* \"Learning Contrats v0.4.0/CourseraProject/Pgu7q1LYEeiDhgqYR-Lxvg_3e270bc052d811e8905939ab43f94f38_Auction.sol\":2117:2141  tokenDetails[msg.sender] */\n      dup1\n        /* \"Learning Contrats v0.4.0/CourseraProject/Pgu7q1LYEeiDhgqYR-Lxvg_3e270bc052d811e8905939ab43f94f38_Auction.sol\":2130:2140  msg.sender */\n      caller\n        /* \"Learning Contrats v0.4.0/CourseraProject/Pgu7q1LYEeiDhgqYR-Lxvg_3e270bc052d811e8905939ab43f94f38_Auction.sol\":2117:2141  tokenDetails[msg.sender] */\n      0xffffffffffffffffffffffffffffffffffffffff\n      and\n      0xffffffffffffffffffffffffffffffffffffffff\n      and\n      dup2\n      mstore\n      0x20\n      add\n      swap1\n      dup2\n      mstore\n      0x20\n      add\n      0x0\n      keccak256\n        /* \"Learning Contrats v0.4.0/CourseraProject/Pgu7q1LYEeiDhgqYR-Lxvg_3e270bc052d811e8905939ab43f94f38_Auction.sol\":2117:2162  tokenDetails[msg.sender]=bidders[bidderCount] */\n      0x0\n      dup3\n      add\n      sload\n      dup2\n      0x0\n      add\n      sstore\n      0x1\n      dup3\n      add\n      sload\n      dup2\n      0x1\n      add\n      sstore\n      0x2\n      dup3\n      add\n      0x0\n      swap1\n      sload\n      swap1\n      0x100\n      exp\n      swap1\n      div\n      0xffffffffffffffffffffffffffffffffffffffff\n      and\n      dup2\n      0x2\n      add\n      exp(0x100, 0x0)\n      dup2\n      sload\n      dup2\n      0xffffffffffffffffffffffffffffffffffffffff\n      mul\n      not\n      and\n      swap1\n      dup4\n      0xffffffffffffffffffffffffffffffffffffffff\n      and\n      mul\n      or\n      swap1\n      sstore\n      pop\n      swap1\n      pop\n      pop\n        /* \"Learning Contrats v0.4.0/CourseraProject/Pgu7q1LYEeiDhgqYR-Lxvg_3e270bc052d811e8905939ab43f94f38_Auction.sol\":2172:2183  bidderCount */\n      0x17\n      0x0\n        /* \"Learning Contrats v0.4.0/CourseraProject/Pgu7q1LYEeiDhgqYR-Lxvg_3e270bc052d811e8905939ab43f94f38_Auction.sol\":2172:2185  bidderCount++ */\n      dup2\n      sload\n      dup1\n      swap3\n      swap2\n      swap1\n      0x1\n      add\n      swap2\n      swap1\n      pop\n      sstore\n      pop\n        /* \"Learning Contrats v0.4.0/CourseraProject/Pgu7q1LYEeiDhgqYR-Lxvg_3e270bc052d811e8905939ab43f94f38_Auction.sol\":1612:2192  function register() public payable{... */\n      jump\t// out\n        /* \"Learning Contrats v0.4.0/CourseraProject/Pgu7q1LYEeiDhgqYR-Lxvg_3e270bc052d811e8905939ab43f94f38_Auction.sol\":736:762  address public beneficiary */\n    tag_13:\n      0x16\n      0x0\n      swap1\n      sload\n      swap1\n      0x100\n      exp\n      swap1\n      div\n      0xffffffffffffffffffffffffffffffffffffffff\n      and\n      dup2\n      jump\t// out\n        /* \"Learning Contrats v0.4.0/CourseraProject/Pgu7q1LYEeiDhgqYR-Lxvg_3e270bc052d811e8905939ab43f94f38_Auction.sol\":2202:3965  function bid(uint _itemId, uint _count) public payable{... */\n    tag_15:\n        /* \"Learning Contrats v0.4.0/CourseraProject/Pgu7q1LYEeiDhgqYR-Lxvg_3e270bc052d811e8905939ab43f94f38_Auction.sol\":3498:3510  uint balance */\n      0x0\n        /* \"Learning Contrats v0.4.0/CourseraProject/Pgu7q1LYEeiDhgqYR-Lxvg_3e270bc052d811e8905939ab43f94f38_Auction.sol\":3797:3817  Item storage bidItem */\n      dup1\n        /* \"Learning Contrats v0.4.0/CourseraProject/Pgu7q1LYEeiDhgqYR-Lxvg_3e270bc052d811e8905939ab43f94f38_Auction.sol\":3848:3854  uint i */\n      0x0\n        /* \"Learning Contrats v0.4.0/CourseraProject/Pgu7q1LYEeiDhgqYR-Lxvg_3e270bc052d811e8905939ab43f94f38_Auction.sol\":3065:3071  _count */\n      dup4\n        /* \"Learning Contrats v0.4.0/CourseraProject/Pgu7q1LYEeiDhgqYR-Lxvg_3e270bc052d811e8905939ab43f94f38_Auction.sol\":3022:3034  tokenDetails */\n      0x0\n        /* \"Learning Contrats v0.4.0/CourseraProject/Pgu7q1LYEeiDhgqYR-Lxvg_3e270bc052d811e8905939ab43f94f38_Auction.sol\":3022:3046  tokenDetails[msg.sender] */\n      dup1\n        /* \"Learning Contrats v0.4.0/CourseraProject/Pgu7q1LYEeiDhgqYR-Lxvg_3e270bc052d811e8905939ab43f94f38_Auction.sol\":3035:3045  msg.sender */\n      caller\n        /* \"Learning Contrats v0.4.0/CourseraProject/Pgu7q1LYEeiDhgqYR-Lxvg_3e270bc052d811e8905939ab43f94f38_Auction.sol\":3022:3046  tokenDetails[msg.sender] */\n      0xffffffffffffffffffffffffffffffffffffffff\n      and\n      0xffffffffffffffffffffffffffffffffffffffff\n      and\n      dup2\n      mstore\n      0x20\n      add\n      swap1\n      dup2\n      mstore\n      0x20\n      add\n      0x0\n      keccak256\n        /* \"Learning Contrats v0.4.0/CourseraProject/Pgu7q1LYEeiDhgqYR-Lxvg_3e270bc052d811e8905939ab43f94f38_Auction.sol\":3022:3062  tokenDetails[msg.sender].remainingTokens */\n      0x0\n      add\n      sload\n        /* \"Learning Contrats v0.4.0/CourseraProject/Pgu7q1LYEeiDhgqYR-Lxvg_3e270bc052d811e8905939ab43f94f38_Auction.sol\":3022:3071  tokenDetails[msg.sender].remainingTokens < _count */\n      lt\n        /* \"Learning Contrats v0.4.0/CourseraProject/Pgu7q1LYEeiDhgqYR-Lxvg_3e270bc052d811e8905939ab43f94f38_Auction.sol\":3021:3124  (tokenDetails[msg.sender].remainingTokens < _count) || (tokenDetails[msg.sender].remainingTokens == 0 ) */\n      dup1\n      tag_38\n      jumpi\n      pop\n        /* \"Learning Contrats v0.4.0/CourseraProject/Pgu7q1LYEeiDhgqYR-Lxvg_3e270bc052d811e8905939ab43f94f38_Auction.sol\":3121:3122  0 */\n      0x0\n        /* \"Learning Contrats v0.4.0/CourseraProject/Pgu7q1LYEeiDhgqYR-Lxvg_3e270bc052d811e8905939ab43f94f38_Auction.sol\":3077:3089  tokenDetails */\n      dup1\n        /* \"Learning Contrats v0.4.0/CourseraProject/Pgu7q1LYEeiDhgqYR-Lxvg_3e270bc052d811e8905939ab43f94f38_Auction.sol\":3077:3101  tokenDetails[msg.sender] */\n      0x0\n        /* \"Learning Contrats v0.4.0/CourseraProject/Pgu7q1LYEeiDhgqYR-Lxvg_3e270bc052d811e8905939ab43f94f38_Auction.sol\":3090:3100  msg.sender */\n      caller\n        /* \"Learning Contrats v0.4.0/CourseraProject/Pgu7q1LYEeiDhgqYR-Lxvg_3e270bc052d811e8905939ab43f94f38_Auction.sol\":3077:3101  tokenDetails[msg.sender] */\n      0xffffffffffffffffffffffffffffffffffffffff\n      and\n      0xffffffffffffffffffffffffffffffffffffffff\n      and\n      dup2\n      mstore\n      0x20\n      add\n      swap1\n      dup2\n      mstore\n      0x20\n      add\n      0x0\n      keccak256\n        /* \"Learning Contrats v0.4.0/CourseraProject/Pgu7q1LYEeiDhgqYR-Lxvg_3e270bc052d811e8905939ab43f94f38_Auction.sol\":3077:3117  tokenDetails[msg.sender].remainingTokens */\n      0x0\n      add\n      sload\n        /* \"Learning Contrats v0.4.0/CourseraProject/Pgu7q1LYEeiDhgqYR-Lxvg_3e270bc052d811e8905939ab43f94f38_Auction.sol\":3077:3122  tokenDetails[msg.sender].remainingTokens == 0 */\n      eq\n        /* \"Learning Contrats v0.4.0/CourseraProject/Pgu7q1LYEeiDhgqYR-Lxvg_3e270bc052d811e8905939ab43f94f38_Auction.sol\":3021:3124  (tokenDetails[msg.sender].remainingTokens < _count) || (tokenDetails[msg.sender].remainingTokens == 0 ) */\n    tag_38:\n        /* \"Learning Contrats v0.4.0/CourseraProject/Pgu7q1LYEeiDhgqYR-Lxvg_3e270bc052d811e8905939ab43f94f38_Auction.sol\":3021:3141  (tokenDetails[msg.sender].remainingTokens < _count) || (tokenDetails[msg.sender].remainingTokens == 0 ) || (_itemId > 2) */\n      dup1\n      tag_39\n      jumpi\n      pop\n        /* \"Learning Contrats v0.4.0/CourseraProject/Pgu7q1LYEeiDhgqYR-Lxvg_3e270bc052d811e8905939ab43f94f38_Auction.sol\":3139:3140  2 */\n      0x2\n        /* \"Learning Contrats v0.4.0/CourseraProject/Pgu7q1LYEeiDhgqYR-Lxvg_3e270bc052d811e8905939ab43f94f38_Auction.sol\":3129:3136  _itemId */\n      dup6\n        /* \"Learning Contrats v0.4.0/CourseraProject/Pgu7q1LYEeiDhgqYR-Lxvg_3e270bc052d811e8905939ab43f94f38_Auction.sol\":3129:3140  _itemId > 2 */\n      gt\n        /* \"Learning Contrats v0.4.0/CourseraProject/Pgu7q1LYEeiDhgqYR-Lxvg_3e270bc052d811e8905939ab43f94f38_Auction.sol\":3021:3141  (tokenDetails[msg.sender].remainingTokens < _count) || (tokenDetails[msg.sender].remainingTokens == 0 ) || (_itemId > 2) */\n    tag_39:\n        /* \"Learning Contrats v0.4.0/CourseraProject/Pgu7q1LYEeiDhgqYR-Lxvg_3e270bc052d811e8905939ab43f94f38_Auction.sol\":3018:3171  if((tokenDetails[msg.sender].remainingTokens < _count) || (tokenDetails[msg.sender].remainingTokens == 0 ) || (_itemId > 2)){... */\n      iszero\n      tag_40\n      jumpi\n        /* \"Learning Contrats v0.4.0/CourseraProject/Pgu7q1LYEeiDhgqYR-Lxvg_3e270bc052d811e8905939ab43f94f38_Auction.sol\":3152:3160  revert() */\n      0x0\n      dup1\n      revert\n        /* \"Learning Contrats v0.4.0/CourseraProject/Pgu7q1LYEeiDhgqYR-Lxvg_3e270bc052d811e8905939ab43f94f38_Auction.sol\":3018:3171  if((tokenDetails[msg.sender].remainingTokens < _count) || (tokenDetails[msg.sender].remainingTokens == 0 ) || (_itemId > 2)){... */\n    tag_40:\n        /* \"Learning Contrats v0.4.0/CourseraProject/Pgu7q1LYEeiDhgqYR-Lxvg_3e270bc052d811e8905939ab43f94f38_Auction.sol\":3555:3561  _count */\n      dup4\n        /* \"Learning Contrats v0.4.0/CourseraProject/Pgu7q1LYEeiDhgqYR-Lxvg_3e270bc052d811e8905939ab43f94f38_Auction.sol\":3512:3524  tokenDetails */\n      0x0\n        /* \"Learning Contrats v0.4.0/CourseraProject/Pgu7q1LYEeiDhgqYR-Lxvg_3e270bc052d811e8905939ab43f94f38_Auction.sol\":3512:3536  tokenDetails[msg.sender] */\n      dup1\n        /* \"Learning Contrats v0.4.0/CourseraProject/Pgu7q1LYEeiDhgqYR-Lxvg_3e270bc052d811e8905939ab43f94f38_Auction.sol\":3525:3535  msg.sender */\n      caller\n        /* \"Learning Contrats v0.4.0/CourseraProject/Pgu7q1LYEeiDhgqYR-Lxvg_3e270bc052d811e8905939ab43f94f38_Auction.sol\":3512:3536  tokenDetails[msg.sender] */\n      0xffffffffffffffffffffffffffffffffffffffff\n      and\n      0xffffffffffffffffffffffffffffffffffffffff\n      and\n      dup2\n      mstore\n      0x20\n      add\n      swap1\n      dup2\n      mstore\n      0x20\n      add\n      0x0\n      keccak256\n        /* \"Learning Contrats v0.4.0/CourseraProject/Pgu7q1LYEeiDhgqYR-Lxvg_3e270bc052d811e8905939ab43f94f38_Auction.sol\":3512:3552  tokenDetails[msg.sender].remainingTokens */\n      0x0\n      add\n      sload\n        /* \"Learning Contrats v0.4.0/CourseraProject/Pgu7q1LYEeiDhgqYR-Lxvg_3e270bc052d811e8905939ab43f94f38_Auction.sol\":3512:3561  tokenDetails[msg.sender].remainingTokens - _count */\n      sub\n        /* \"Learning Contrats v0.4.0/CourseraProject/Pgu7q1LYEeiDhgqYR-Lxvg_3e270bc052d811e8905939ab43f94f38_Auction.sol\":3498:3561  uint balance= tokenDetails[msg.sender].remainingTokens - _count */\n      swap3\n      pop\n        /* \"Learning Contrats v0.4.0/CourseraProject/Pgu7q1LYEeiDhgqYR-Lxvg_3e270bc052d811e8905939ab43f94f38_Auction.sol\":3652:3659  balance */\n      dup3\n        /* \"Learning Contrats v0.4.0/CourseraProject/Pgu7q1LYEeiDhgqYR-Lxvg_3e270bc052d811e8905939ab43f94f38_Auction.sol\":3611:3623  tokenDetails */\n      0x0\n        /* \"Learning Contrats v0.4.0/CourseraProject/Pgu7q1LYEeiDhgqYR-Lxvg_3e270bc052d811e8905939ab43f94f38_Auction.sol\":3611:3635  tokenDetails[msg.sender] */\n      dup1\n        /* \"Learning Contrats v0.4.0/CourseraProject/Pgu7q1LYEeiDhgqYR-Lxvg_3e270bc052d811e8905939ab43f94f38_Auction.sol\":3624:3634  msg.sender */\n      caller\n        /* \"Learning Contrats v0.4.0/CourseraProject/Pgu7q1LYEeiDhgqYR-Lxvg_3e270bc052d811e8905939ab43f94f38_Auction.sol\":3611:3635  tokenDetails[msg.sender] */\n      0xffffffffffffffffffffffffffffffffffffffff\n      and\n      0xffffffffffffffffffffffffffffffffffffffff\n      and\n      dup2\n      mstore\n      0x20\n      add\n      swap1\n      dup2\n      mstore\n      0x20\n      add\n      0x0\n      keccak256\n        /* \"Learning Contrats v0.4.0/CourseraProject/Pgu7q1LYEeiDhgqYR-Lxvg_3e270bc052d811e8905939ab43f94f38_Auction.sol\":3611:3651  tokenDetails[msg.sender].remainingTokens */\n      0x0\n      add\n        /* \"Learning Contrats v0.4.0/CourseraProject/Pgu7q1LYEeiDhgqYR-Lxvg_3e270bc052d811e8905939ab43f94f38_Auction.sol\":3611:3659  tokenDetails[msg.sender].remainingTokens=balance */\n      dup2\n      swap1\n      sstore\n      pop\n        /* \"Learning Contrats v0.4.0/CourseraProject/Pgu7q1LYEeiDhgqYR-Lxvg_3e270bc052d811e8905939ab43f94f38_Auction.sol\":3728:3735  balance */\n      dup3\n        /* \"Learning Contrats v0.4.0/CourseraProject/Pgu7q1LYEeiDhgqYR-Lxvg_3e270bc052d811e8905939ab43f94f38_Auction.sol\":3669:3676  bidders */\n      0x1\n        /* \"Learning Contrats v0.4.0/CourseraProject/Pgu7q1LYEeiDhgqYR-Lxvg_3e270bc052d811e8905939ab43f94f38_Auction.sol\":3677:3689  tokenDetails */\n      0x0\n        /* \"Learning Contrats v0.4.0/CourseraProject/Pgu7q1LYEeiDhgqYR-Lxvg_3e270bc052d811e8905939ab43f94f38_Auction.sol\":3677:3701  tokenDetails[msg.sender] */\n      dup1\n        /* \"Learning Contrats v0.4.0/CourseraProject/Pgu7q1LYEeiDhgqYR-Lxvg_3e270bc052d811e8905939ab43f94f38_Auction.sol\":3690:3700  msg.sender */\n      caller\n        /* \"Learning Contrats v0.4.0/CourseraProject/Pgu7q1LYEeiDhgqYR-Lxvg_3e270bc052d811e8905939ab43f94f38_Auction.sol\":3677:3701  tokenDetails[msg.sender] */\n      0xffffffffffffffffffffffffffffffffffffffff\n      and\n      0xffffffffffffffffffffffffffffffffffffffff\n      and\n      dup2\n      mstore\n      0x20\n      add\n      swap1\n      dup2\n      mstore\n      0x20\n      add\n      0x0\n      keccak256\n        /* \"Learning Contrats v0.4.0/CourseraProject/Pgu7q1LYEeiDhgqYR-Lxvg_3e270bc052d811e8905939ab43f94f38_Auction.sol\":3677:3710  tokenDetails[msg.sender].personId */\n      0x1\n      add\n      sload\n        /* \"Learning Contrats v0.4.0/CourseraProject/Pgu7q1LYEeiDhgqYR-Lxvg_3e270bc052d811e8905939ab43f94f38_Auction.sol\":3669:3711  bidders[tokenDetails[msg.sender].personId] */\n      0x4\n      dup2\n      lt\n      iszero\n      iszero\n      tag_41\n      jumpi\n      invalid\n    tag_41:\n      0x3\n      mul\n      add\n        /* \"Learning Contrats v0.4.0/CourseraProject/Pgu7q1LYEeiDhgqYR-Lxvg_3e270bc052d811e8905939ab43f94f38_Auction.sol\":3669:3727  bidders[tokenDetails[msg.sender].personId].remainingTokens */\n      0x0\n      add\n        /* \"Learning Contrats v0.4.0/CourseraProject/Pgu7q1LYEeiDhgqYR-Lxvg_3e270bc052d811e8905939ab43f94f38_Auction.sol\":3669:3735  bidders[tokenDetails[msg.sender].personId].remainingTokens=balance */\n      dup2\n      swap1\n      sstore\n      pop\n        /* \"Learning Contrats v0.4.0/CourseraProject/Pgu7q1LYEeiDhgqYR-Lxvg_3e270bc052d811e8905939ab43f94f38_Auction.sol\":3820:3825  items */\n      0xd\n        /* \"Learning Contrats v0.4.0/CourseraProject/Pgu7q1LYEeiDhgqYR-Lxvg_3e270bc052d811e8905939ab43f94f38_Auction.sol\":3826:3833  _itemId */\n      dup6\n        /* \"Learning Contrats v0.4.0/CourseraProject/Pgu7q1LYEeiDhgqYR-Lxvg_3e270bc052d811e8905939ab43f94f38_Auction.sol\":3820:3834  items[_itemId] */\n      0x3\n      dup2\n      lt\n      iszero\n      iszero\n      tag_43\n      jumpi\n      invalid\n    tag_43:\n      0x2\n      mul\n      add\n        /* \"Learning Contrats v0.4.0/CourseraProject/Pgu7q1LYEeiDhgqYR-Lxvg_3e270bc052d811e8905939ab43f94f38_Auction.sol\":3797:3834  Item storage bidItem = items[_itemId] */\n      swap2\n      pop\n        /* \"Learning Contrats v0.4.0/CourseraProject/Pgu7q1LYEeiDhgqYR-Lxvg_3e270bc052d811e8905939ab43f94f38_Auction.sol\":3855:3856  0 */\n      0x0\n        /* \"Learning Contrats v0.4.0/CourseraProject/Pgu7q1LYEeiDhgqYR-Lxvg_3e270bc052d811e8905939ab43f94f38_Auction.sol\":3848:3856  uint i=0 */\n      swap1\n      pop\n        /* \"Learning Contrats v0.4.0/CourseraProject/Pgu7q1LYEeiDhgqYR-Lxvg_3e270bc052d811e8905939ab43f94f38_Auction.sol\":3844:3959  for(uint i=0; i<_count;i++) {... */\n    tag_45:\n        /* \"Learning Contrats v0.4.0/CourseraProject/Pgu7q1LYEeiDhgqYR-Lxvg_3e270bc052d811e8905939ab43f94f38_Auction.sol\":3860:3866  _count */\n      dup4\n        /* \"Learning Contrats v0.4.0/CourseraProject/Pgu7q1LYEeiDhgqYR-Lxvg_3e270bc052d811e8905939ab43f94f38_Auction.sol\":3858:3859  i */\n      dup2\n        /* \"Learning Contrats v0.4.0/CourseraProject/Pgu7q1LYEeiDhgqYR-Lxvg_3e270bc052d811e8905939ab43f94f38_Auction.sol\":3858:3866  i<_count */\n      lt\n        /* \"Learning Contrats v0.4.0/CourseraProject/Pgu7q1LYEeiDhgqYR-Lxvg_3e270bc052d811e8905939ab43f94f38_Auction.sol\":3844:3959  for(uint i=0; i<_count;i++) {... */\n      iszero\n      tag_46\n      jumpi\n        /* \"Learning Contrats v0.4.0/CourseraProject/Pgu7q1LYEeiDhgqYR-Lxvg_3e270bc052d811e8905939ab43f94f38_Auction.sol\":3886:3893  bidItem */\n      dup2\n        /* \"Learning Contrats v0.4.0/CourseraProject/Pgu7q1LYEeiDhgqYR-Lxvg_3e270bc052d811e8905939ab43f94f38_Auction.sol\":3886:3904  bidItem.itemTokens */\n      0x1\n      add\n        /* \"Learning Contrats v0.4.0/CourseraProject/Pgu7q1LYEeiDhgqYR-Lxvg_3e270bc052d811e8905939ab43f94f38_Auction.sol\":3886:3944  bidItem.itemTokens.push(tokenDetails[msg.sender].personId) */\n      dup1\n      sload\n      dup1\n      0x1\n      add\n      dup3\n      dup2\n      tag_48\n      swap2\n      swap1\n      jump\t// in(tag_49)\n    tag_48:\n      swap2\n      0x0\n      mstore\n      keccak256(0x0, 0x20)\n      swap1\n      add\n      0x0\n        /* \"Learning Contrats v0.4.0/CourseraProject/Pgu7q1LYEeiDhgqYR-Lxvg_3e270bc052d811e8905939ab43f94f38_Auction.sol\":3910:3922  tokenDetails */\n      dup1\n        /* \"Learning Contrats v0.4.0/CourseraProject/Pgu7q1LYEeiDhgqYR-Lxvg_3e270bc052d811e8905939ab43f94f38_Auction.sol\":3910:3934  tokenDetails[msg.sender] */\n      0x0\n        /* \"Learning Contrats v0.4.0/CourseraProject/Pgu7q1LYEeiDhgqYR-Lxvg_3e270bc052d811e8905939ab43f94f38_Auction.sol\":3923:3933  msg.sender */\n      caller\n        /* \"Learning Contrats v0.4.0/CourseraProject/Pgu7q1LYEeiDhgqYR-Lxvg_3e270bc052d811e8905939ab43f94f38_Auction.sol\":3910:3934  tokenDetails[msg.sender] */\n      0xffffffffffffffffffffffffffffffffffffffff\n      and\n      0xffffffffffffffffffffffffffffffffffffffff\n      and\n      dup2\n      mstore\n      0x20\n      add\n      swap1\n      dup2\n      mstore\n      0x20\n      add\n      0x0\n      keccak256\n        /* \"Learning Contrats v0.4.0/CourseraProject/Pgu7q1LYEeiDhgqYR-Lxvg_3e270bc052d811e8905939ab43f94f38_Auction.sol\":3910:3943  tokenDetails[msg.sender].personId */\n      0x1\n      add\n      sload\n        /* \"Learning Contrats v0.4.0/CourseraProject/Pgu7q1LYEeiDhgqYR-Lxvg_3e270bc052d811e8905939ab43f94f38_Auction.sol\":3886:3944  bidItem.itemTokens.push(tokenDetails[msg.sender].personId) */\n      swap1\n      swap2\n      swap1\n      swap2\n      pop\n      sstore\n      pop\n        /* \"Learning Contrats v0.4.0/CourseraProject/Pgu7q1LYEeiDhgqYR-Lxvg_3e270bc052d811e8905939ab43f94f38_Auction.sol\":3867:3870  i++ */\n      dup1\n      dup1\n      0x1\n      add\n      swap2\n      pop\n      pop\n        /* \"Learning Contrats v0.4.0/CourseraProject/Pgu7q1LYEeiDhgqYR-Lxvg_3e270bc052d811e8905939ab43f94f38_Auction.sol\":3844:3959  for(uint i=0; i<_count;i++) {... */\n      jump(tag_45)\n    tag_46:\n        /* \"Learning Contrats v0.4.0/CourseraProject/Pgu7q1LYEeiDhgqYR-Lxvg_3e270bc052d811e8905939ab43f94f38_Auction.sol\":2202:3965  function bid(uint _itemId, uint _count) public payable{... */\n      pop\n      pop\n      pop\n      pop\n      pop\n      jump\t// out\n        /* \"Learning Contrats v0.4.0/CourseraProject/Pgu7q1LYEeiDhgqYR-Lxvg_3e270bc052d811e8905939ab43f94f38_Auction.sol\":5535:5703  function getPersonDetails(uint id) public constant returns(uint,uint,address){... */\n    tag_18:\n        /* \"Learning Contrats v0.4.0/CourseraProject/Pgu7q1LYEeiDhgqYR-Lxvg_3e270bc052d811e8905939ab43f94f38_Auction.sol\":5594:5598  uint */\n      0x0\n        /* \"Learning Contrats v0.4.0/CourseraProject/Pgu7q1LYEeiDhgqYR-Lxvg_3e270bc052d811e8905939ab43f94f38_Auction.sol\":5599:5603  uint */\n      dup1\n        /* \"Learning Contrats v0.4.0/CourseraProject/Pgu7q1LYEeiDhgqYR-Lxvg_3e270bc052d811e8905939ab43f94f38_Auction.sol\":5604:5611  address */\n      0x0\n        /* \"Learning Contrats v0.4.0/CourseraProject/Pgu7q1LYEeiDhgqYR-Lxvg_3e270bc052d811e8905939ab43f94f38_Auction.sol\":5630:5637  bidders */\n      0x1\n        /* \"Learning Contrats v0.4.0/CourseraProject/Pgu7q1LYEeiDhgqYR-Lxvg_3e270bc052d811e8905939ab43f94f38_Auction.sol\":5638:5640  id */\n      dup5\n        /* \"Learning Contrats v0.4.0/CourseraProject/Pgu7q1LYEeiDhgqYR-Lxvg_3e270bc052d811e8905939ab43f94f38_Auction.sol\":5630:5641  bidders[id] */\n      0x4\n      dup2\n      lt\n      iszero\n      iszero\n      tag_52\n      jumpi\n      invalid\n    tag_52:\n      0x3\n      mul\n      add\n        /* \"Learning Contrats v0.4.0/CourseraProject/Pgu7q1LYEeiDhgqYR-Lxvg_3e270bc052d811e8905939ab43f94f38_Auction.sol\":5630:5657  bidders[id].remainingTokens */\n      0x0\n      add\n      sload\n        /* \"Learning Contrats v0.4.0/CourseraProject/Pgu7q1LYEeiDhgqYR-Lxvg_3e270bc052d811e8905939ab43f94f38_Auction.sol\":5658:5665  bidders */\n      0x1\n        /* \"Learning Contrats v0.4.0/CourseraProject/Pgu7q1LYEeiDhgqYR-Lxvg_3e270bc052d811e8905939ab43f94f38_Auction.sol\":5666:5668  id */\n      dup6\n        /* \"Learning Contrats v0.4.0/CourseraProject/Pgu7q1LYEeiDhgqYR-Lxvg_3e270bc052d811e8905939ab43f94f38_Auction.sol\":5658:5669  bidders[id] */\n      0x4\n      dup2\n      lt\n      iszero\n      iszero\n      tag_54\n      jumpi\n      invalid\n    tag_54:\n      0x3\n      mul\n      add\n        /* \"Learning Contrats v0.4.0/CourseraProject/Pgu7q1LYEeiDhgqYR-Lxvg_3e270bc052d811e8905939ab43f94f38_Auction.sol\":5658:5678  bidders[id].personId */\n      0x1\n      add\n      sload\n        /* \"Learning Contrats v0.4.0/CourseraProject/Pgu7q1LYEeiDhgqYR-Lxvg_3e270bc052d811e8905939ab43f94f38_Auction.sol\":5679:5686  bidders */\n      0x1\n        /* \"Learning Contrats v0.4.0/CourseraProject/Pgu7q1LYEeiDhgqYR-Lxvg_3e270bc052d811e8905939ab43f94f38_Auction.sol\":5687:5689  id */\n      dup7\n        /* \"Learning Contrats v0.4.0/CourseraProject/Pgu7q1LYEeiDhgqYR-Lxvg_3e270bc052d811e8905939ab43f94f38_Auction.sol\":5679:5690  bidders[id] */\n      0x4\n      dup2\n      lt\n      iszero\n      iszero\n      tag_56\n      jumpi\n      invalid\n    tag_56:\n      0x3\n      mul\n      add\n        /* \"Learning Contrats v0.4.0/CourseraProject/Pgu7q1LYEeiDhgqYR-Lxvg_3e270bc052d811e8905939ab43f94f38_Auction.sol\":5679:5695  bidders[id].addr */\n      0x2\n      add\n      0x0\n      swap1\n      sload\n      swap1\n      0x100\n      exp\n      swap1\n      div\n      0xffffffffffffffffffffffffffffffffffffffff\n      and\n        /* \"Learning Contrats v0.4.0/CourseraProject/Pgu7q1LYEeiDhgqYR-Lxvg_3e270bc052d811e8905939ab43f94f38_Auction.sol\":5622:5696  return (bidders[id].remainingTokens,bidders[id].personId,bidders[id].addr) */\n      swap3\n      pop\n      swap3\n      pop\n      swap3\n      pop\n        /* \"Learning Contrats v0.4.0/CourseraProject/Pgu7q1LYEeiDhgqYR-Lxvg_3e270bc052d811e8905939ab43f94f38_Auction.sol\":5535:5703  function getPersonDetails(uint id) public constant returns(uint,uint,address){... */\n      swap2\n      swap4\n      swap1\n      swap3\n      pop\n      jump\t// out\n        /* \"Learning Contrats v0.4.0/CourseraProject/Pgu7q1LYEeiDhgqYR-Lxvg_3e270bc052d811e8905939ab43f94f38_Auction.sol\":4354:5433  function revealWinners() public onlyOwner{... */\n    tag_21:\n        /* \"Learning Contrats v0.4.0/CourseraProject/Pgu7q1LYEeiDhgqYR-Lxvg_3e270bc052d811e8905939ab43f94f38_Auction.sol\":4577:4584  uint id */\n      0x0\n        /* \"Learning Contrats v0.4.0/CourseraProject/Pgu7q1LYEeiDhgqYR-Lxvg_3e270bc052d811e8905939ab43f94f38_Auction.sol\":4618:4642  Item storage currentItem */\n      dup1\n        /* \"Learning Contrats v0.4.0/CourseraProject/Pgu7q1LYEeiDhgqYR-Lxvg_3e270bc052d811e8905939ab43f94f38_Auction.sol\":4769:4785  uint randomIndex */\n      0x0\n        /* \"Learning Contrats v0.4.0/CourseraProject/Pgu7q1LYEeiDhgqYR-Lxvg_3e270bc052d811e8905939ab43f94f38_Auction.sol\":4923:4936  uint winnerId */\n      dup1\n        /* \"Learning Contrats v0.4.0/CourseraProject/Pgu7q1LYEeiDhgqYR-Lxvg_3e270bc052d811e8905939ab43f94f38_Auction.sol\":4278:4289  beneficiary */\n      0x16\n      0x0\n      swap1\n      sload\n      swap1\n      0x100\n      exp\n      swap1\n      div\n      0xffffffffffffffffffffffffffffffffffffffff\n      and\n        /* \"Learning Contrats v0.4.0/CourseraProject/Pgu7q1LYEeiDhgqYR-Lxvg_3e270bc052d811e8905939ab43f94f38_Auction.sol\":4266:4289  msg.sender==beneficiary */\n      0xffffffffffffffffffffffffffffffffffffffff\n      and\n        /* \"Learning Contrats v0.4.0/CourseraProject/Pgu7q1LYEeiDhgqYR-Lxvg_3e270bc052d811e8905939ab43f94f38_Auction.sol\":4266:4276  msg.sender */\n      caller\n        /* \"Learning Contrats v0.4.0/CourseraProject/Pgu7q1LYEeiDhgqYR-Lxvg_3e270bc052d811e8905939ab43f94f38_Auction.sol\":4266:4289  msg.sender==beneficiary */\n      0xffffffffffffffffffffffffffffffffffffffff\n      and\n      eq\n        /* \"Learning Contrats v0.4.0/CourseraProject/Pgu7q1LYEeiDhgqYR-Lxvg_3e270bc052d811e8905939ab43f94f38_Auction.sol\":4258:4290  require(msg.sender==beneficiary) */\n      iszero\n      iszero\n      tag_59\n      jumpi\n      0x0\n      dup1\n      revert\n    tag_59:\n        /* \"Learning Contrats v0.4.0/CourseraProject/Pgu7q1LYEeiDhgqYR-Lxvg_3e270bc052d811e8905939ab43f94f38_Auction.sol\":4587:4588  0 */\n      0x0\n        /* \"Learning Contrats v0.4.0/CourseraProject/Pgu7q1LYEeiDhgqYR-Lxvg_3e270bc052d811e8905939ab43f94f38_Auction.sol\":4577:4588  uint id = 0 */\n      swap4\n      pop\n        /* \"Learning Contrats v0.4.0/CourseraProject/Pgu7q1LYEeiDhgqYR-Lxvg_3e270bc052d811e8905939ab43f94f38_Auction.sol\":4572:5427  for (uint id = 0; id < 3; id++) {... */\n    tag_61:\n        /* \"Learning Contrats v0.4.0/CourseraProject/Pgu7q1LYEeiDhgqYR-Lxvg_3e270bc052d811e8905939ab43f94f38_Auction.sol\":4595:4596  3 */\n      0x3\n        /* \"Learning Contrats v0.4.0/CourseraProject/Pgu7q1LYEeiDhgqYR-Lxvg_3e270bc052d811e8905939ab43f94f38_Auction.sol\":4590:4592  id */\n      dup5\n        /* \"Learning Contrats v0.4.0/CourseraProject/Pgu7q1LYEeiDhgqYR-Lxvg_3e270bc052d811e8905939ab43f94f38_Auction.sol\":4590:4596  id < 3 */\n      lt\n        /* \"Learning Contrats v0.4.0/CourseraProject/Pgu7q1LYEeiDhgqYR-Lxvg_3e270bc052d811e8905939ab43f94f38_Auction.sol\":4572:5427  for (uint id = 0; id < 3; id++) {... */\n      iszero\n      tag_62\n      jumpi\n        /* \"Learning Contrats v0.4.0/CourseraProject/Pgu7q1LYEeiDhgqYR-Lxvg_3e270bc052d811e8905939ab43f94f38_Auction.sol\":4643:4648  items */\n      0xd\n        /* \"Learning Contrats v0.4.0/CourseraProject/Pgu7q1LYEeiDhgqYR-Lxvg_3e270bc052d811e8905939ab43f94f38_Auction.sol\":4649:4651  id */\n      dup5\n        /* \"Learning Contrats v0.4.0/CourseraProject/Pgu7q1LYEeiDhgqYR-Lxvg_3e270bc052d811e8905939ab43f94f38_Auction.sol\":4643:4652  items[id] */\n      0x3\n      dup2\n      lt\n      iszero\n      iszero\n      tag_64\n      jumpi\n      invalid\n    tag_64:\n      0x2\n      mul\n      add\n        /* \"Learning Contrats v0.4.0/CourseraProject/Pgu7q1LYEeiDhgqYR-Lxvg_3e270bc052d811e8905939ab43f94f38_Auction.sol\":4618:4652  Item storage currentItem=items[id] */\n      swap3\n      pop\n        /* \"Learning Contrats v0.4.0/CourseraProject/Pgu7q1LYEeiDhgqYR-Lxvg_3e270bc052d811e8905939ab43f94f38_Auction.sol\":4702:4703  0 */\n      0x0\n        /* \"Learning Contrats v0.4.0/CourseraProject/Pgu7q1LYEeiDhgqYR-Lxvg_3e270bc052d811e8905939ab43f94f38_Auction.sol\":4669:4680  currentItem */\n      dup4\n        /* \"Learning Contrats v0.4.0/CourseraProject/Pgu7q1LYEeiDhgqYR-Lxvg_3e270bc052d811e8905939ab43f94f38_Auction.sol\":4669:4691  currentItem.itemTokens */\n      0x1\n      add\n        /* \"Learning Contrats v0.4.0/CourseraProject/Pgu7q1LYEeiDhgqYR-Lxvg_3e270bc052d811e8905939ab43f94f38_Auction.sol\":4669:4698  currentItem.itemTokens.length */\n      dup1\n      sload\n      swap1\n      pop\n        /* \"Learning Contrats v0.4.0/CourseraProject/Pgu7q1LYEeiDhgqYR-Lxvg_3e270bc052d811e8905939ab43f94f38_Auction.sol\":4669:4703  currentItem.itemTokens.length != 0 */\n      eq\n      iszero\n        /* \"Learning Contrats v0.4.0/CourseraProject/Pgu7q1LYEeiDhgqYR-Lxvg_3e270bc052d811e8905939ab43f94f38_Auction.sol\":4666:5417  if(currentItem.itemTokens.length != 0){... */\n      iszero\n      tag_66\n      jumpi\n        /* \"Learning Contrats v0.4.0/CourseraProject/Pgu7q1LYEeiDhgqYR-Lxvg_3e270bc052d811e8905939ab43f94f38_Auction.sol\":4836:4847  currentItem */\n      dup3\n        /* \"Learning Contrats v0.4.0/CourseraProject/Pgu7q1LYEeiDhgqYR-Lxvg_3e270bc052d811e8905939ab43f94f38_Auction.sol\":4836:4858  currentItem.itemTokens */\n      0x1\n      add\n        /* \"Learning Contrats v0.4.0/CourseraProject/Pgu7q1LYEeiDhgqYR-Lxvg_3e270bc052d811e8905939ab43f94f38_Auction.sol\":4836:4865  currentItem.itemTokens.length */\n      dup1\n      sload\n      swap1\n      pop\n        /* \"Learning Contrats v0.4.0/CourseraProject/Pgu7q1LYEeiDhgqYR-Lxvg_3e270bc052d811e8905939ab43f94f38_Auction.sol\":4804:4815  currentItem */\n      dup4\n        /* \"Learning Contrats v0.4.0/CourseraProject/Pgu7q1LYEeiDhgqYR-Lxvg_3e270bc052d811e8905939ab43f94f38_Auction.sol\":4804:4826  currentItem.itemTokens */\n      0x1\n      add\n        /* \"Learning Contrats v0.4.0/CourseraProject/Pgu7q1LYEeiDhgqYR-Lxvg_3e270bc052d811e8905939ab43f94f38_Auction.sol\":4804:4833  currentItem.itemTokens.length */\n      dup1\n      sload\n      swap1\n      pop\n        /* \"Learning Contrats v0.4.0/CourseraProject/Pgu7q1LYEeiDhgqYR-Lxvg_3e270bc052d811e8905939ab43f94f38_Auction.sol\":4789:4801  block.number */\n      number\n        /* \"Learning Contrats v0.4.0/CourseraProject/Pgu7q1LYEeiDhgqYR-Lxvg_3e270bc052d811e8905939ab43f94f38_Auction.sol\":4789:4833  block.number / currentItem.itemTokens.length */\n      dup2\n      iszero\n      iszero\n      tag_67\n      jumpi\n      invalid\n    tag_67:\n      div\n        /* \"Learning Contrats v0.4.0/CourseraProject/Pgu7q1LYEeiDhgqYR-Lxvg_3e270bc052d811e8905939ab43f94f38_Auction.sol\":4788:4865  (block.number / currentItem.itemTokens.length)% currentItem.itemTokens.length */\n      dup2\n      iszero\n      iszero\n      tag_68\n      jumpi\n      invalid\n    tag_68:\n      mod\n        /* \"Learning Contrats v0.4.0/CourseraProject/Pgu7q1LYEeiDhgqYR-Lxvg_3e270bc052d811e8905939ab43f94f38_Auction.sol\":4769:4865  uint randomIndex = (block.number / currentItem.itemTokens.length)% currentItem.itemTokens.length */\n      swap2\n      pop\n        /* \"Learning Contrats v0.4.0/CourseraProject/Pgu7q1LYEeiDhgqYR-Lxvg_3e270bc052d811e8905939ab43f94f38_Auction.sol\":4939:4950  currentItem */\n      dup3\n        /* \"Learning Contrats v0.4.0/CourseraProject/Pgu7q1LYEeiDhgqYR-Lxvg_3e270bc052d811e8905939ab43f94f38_Auction.sol\":4939:4961  currentItem.itemTokens */\n      0x1\n      add\n        /* \"Learning Contrats v0.4.0/CourseraProject/Pgu7q1LYEeiDhgqYR-Lxvg_3e270bc052d811e8905939ab43f94f38_Auction.sol\":4962:4973  randomIndex */\n      dup3\n        /* \"Learning Contrats v0.4.0/CourseraProject/Pgu7q1LYEeiDhgqYR-Lxvg_3e270bc052d811e8905939ab43f94f38_Auction.sol\":4939:4974  currentItem.itemTokens[randomIndex] */\n      dup2\n      sload\n      dup2\n      lt\n      iszero\n      iszero\n      tag_69\n      jumpi\n      invalid\n    tag_69:\n      swap1\n      0x0\n      mstore\n      keccak256(0x0, 0x20)\n      swap1\n      add\n      sload\n        /* \"Learning Contrats v0.4.0/CourseraProject/Pgu7q1LYEeiDhgqYR-Lxvg_3e270bc052d811e8905939ab43f94f38_Auction.sol\":4923:4974  uint winnerId = currentItem.itemTokens[randomIndex] */\n      swap1\n      pop\n        /* \"Learning Contrats v0.4.0/CourseraProject/Pgu7q1LYEeiDhgqYR-Lxvg_3e270bc052d811e8905939ab43f94f38_Auction.sol\":5310:5317  bidders */\n      0x1\n        /* \"Learning Contrats v0.4.0/CourseraProject/Pgu7q1LYEeiDhgqYR-Lxvg_3e270bc052d811e8905939ab43f94f38_Auction.sol\":5318:5326  winnerId */\n      dup2\n        /* \"Learning Contrats v0.4.0/CourseraProject/Pgu7q1LYEeiDhgqYR-Lxvg_3e270bc052d811e8905939ab43f94f38_Auction.sol\":5310:5327  bidders[winnerId] */\n      0x4\n      dup2\n      lt\n      iszero\n      iszero\n      tag_71\n      jumpi\n      invalid\n    tag_71:\n      0x3\n      mul\n      add\n        /* \"Learning Contrats v0.4.0/CourseraProject/Pgu7q1LYEeiDhgqYR-Lxvg_3e270bc052d811e8905939ab43f94f38_Auction.sol\":5310:5332  bidders[winnerId].addr */\n      0x2\n      add\n      0x0\n      swap1\n      sload\n      swap1\n      0x100\n      exp\n      swap1\n      div\n      0xffffffffffffffffffffffffffffffffffffffff\n      and\n        /* \"Learning Contrats v0.4.0/CourseraProject/Pgu7q1LYEeiDhgqYR-Lxvg_3e270bc052d811e8905939ab43f94f38_Auction.sol\":5298:5305  winners */\n      0x13\n        /* \"Learning Contrats v0.4.0/CourseraProject/Pgu7q1LYEeiDhgqYR-Lxvg_3e270bc052d811e8905939ab43f94f38_Auction.sol\":5306:5308  id */\n      dup6\n        /* \"Learning Contrats v0.4.0/CourseraProject/Pgu7q1LYEeiDhgqYR-Lxvg_3e270bc052d811e8905939ab43f94f38_Auction.sol\":5298:5309  winners[id] */\n      0x3\n      dup2\n      lt\n      iszero\n      iszero\n      tag_73\n      jumpi\n      invalid\n    tag_73:\n      add\n      0x0\n        /* \"Learning Contrats v0.4.0/CourseraProject/Pgu7q1LYEeiDhgqYR-Lxvg_3e270bc052d811e8905939ab43f94f38_Auction.sol\":5298:5332  winners[id]=bidders[winnerId].addr */\n      0x100\n      exp\n      dup2\n      sload\n      dup2\n      0xffffffffffffffffffffffffffffffffffffffff\n      mul\n      not\n      and\n      swap1\n      dup4\n      0xffffffffffffffffffffffffffffffffffffffff\n      and\n      mul\n      or\n      swap1\n      sstore\n      pop\n        /* \"Learning Contrats v0.4.0/CourseraProject/Pgu7q1LYEeiDhgqYR-Lxvg_3e270bc052d811e8905939ab43f94f38_Auction.sol\":4666:5417  if(currentItem.itemTokens.length != 0){... */\n    tag_66:\n        /* \"Learning Contrats v0.4.0/CourseraProject/Pgu7q1LYEeiDhgqYR-Lxvg_3e270bc052d811e8905939ab43f94f38_Auction.sol\":4598:4602  id++ */\n      dup4\n      dup1\n      0x1\n      add\n      swap5\n      pop\n      pop\n        /* \"Learning Contrats v0.4.0/CourseraProject/Pgu7q1LYEeiDhgqYR-Lxvg_3e270bc052d811e8905939ab43f94f38_Auction.sol\":4572:5427  for (uint id = 0; id < 3; id++) {... */\n      jump(tag_61)\n    tag_62:\n        /* \"Learning Contrats v0.4.0/CourseraProject/Pgu7q1LYEeiDhgqYR-Lxvg_3e270bc052d811e8905939ab43f94f38_Auction.sol\":4354:5433  function revealWinners() public onlyOwner{... */\n      pop\n      pop\n      pop\n      pop\n      jump\t// out\n        /* \"Learning Contrats v0.4.0/CourseraProject/Pgu7q1LYEeiDhgqYR-Lxvg_3e270bc052d811e8905939ab43f94f38_Auction.sol\":675:700  address[3] public winners */\n    tag_24:\n      0x13\n      dup2\n      0x3\n      dup2\n      lt\n      iszero\n      iszero\n      tag_75\n      jumpi\n      invalid\n    tag_75:\n      add\n      0x0\n      swap2\n      pop\n      sload\n      swap1\n      0x100\n      exp\n      swap1\n      div\n      0xffffffffffffffffffffffffffffffffffffffff\n      and\n      dup2\n      jump\t// out\n        /* \"Learning Contrats v0.4.0/CourseraProject/Pgu7q1LYEeiDhgqYR-Lxvg_3e270bc052d811e8905939ab43f94f38_Auction.sol\":615:636  Item [3] public items */\n    tag_27:\n      0xd\n      dup2\n      0x3\n      dup2\n      lt\n      iszero\n      iszero\n      tag_77\n      jumpi\n      invalid\n    tag_77:\n      0x2\n      mul\n      add\n      0x0\n      swap2\n      pop\n      swap1\n      pop\n      dup1\n      0x0\n      add\n      sload\n      swap1\n      pop\n      dup2\n      jump\t// out\n        /* \"Learning Contrats v0.4.0/CourseraProject/Pgu7q1LYEeiDhgqYR-Lxvg_3e270bc052d811e8905939ab43f94f38_Auction.sol\":25:5706  contract Auction {... */\n    tag_49:\n      dup2\n      sload\n      dup2\n      dup4\n      sstore\n      dup2\n      dup2\n      iszero\n      gt\n      tag_79\n      jumpi\n      dup2\n      dup4\n      0x0\n      mstore\n      keccak256(0x0, 0x20)\n      swap2\n      dup3\n      add\n      swap2\n      add\n      tag_80\n      swap2\n      swap1\n      jump\t// in(tag_81)\n    tag_80:\n    tag_79:\n      pop\n      pop\n      pop\n      jump\t// out\n    tag_81:\n      tag_82\n      swap2\n      swap1\n    tag_83:\n      dup1\n      dup3\n      gt\n      iszero\n      tag_84\n      jumpi\n      0x0\n      dup2\n      0x0\n      swap1\n      sstore\n      pop\n      0x1\n      add\n      jump(tag_83)\n    tag_84:\n      pop\n      swap1\n      jump\n    tag_82:\n      swap1\n      jump\t// out\n\n    auxdata: 0xa165627a7a72305820248570b6298d379fe568100f513727d5e146b44dbcbb2fd4b6b8fe533ac76e8d0029\n}\n",
				"bytecode": {
					"linkReferences": {},
					"object": "60606040526000601755610011610154565b33601660006101000a81548173ffffffffffffffffffffffffffffffffffffffff021916908373ffffffffffffffffffffffffffffffffffffffff16021790555060408051908101604052806000815260200182815250600d600060038110151561007857fe5b600202016000820151816000015560208201518160010190805190602001906100a2929190610168565b5090505060408051908101604052806001815260200182815250600d60016003811015156100cc57fe5b600202016000820151816000015560208201518160010190805190602001906100f6929190610168565b5090505060408051908101604052806002815260200182815250600d600260038110151561012057fe5b6002020160008201518160000155602082015181600101908051906020019061014a929190610168565b50905050506101da565b602060405190810160405280600081525090565b8280548282559060005260206000209081019282156101a4579160200282015b828111156101a3578251825591602001919060010190610188565b5b5090506101b191906101b5565b5090565b6101d791905b808211156101d35760008160009055506001016101bb565b5090565b90565b6108ba806101e96000396000f30060606040523615610081576000357c0100000000000000000000000000000000000000000000000000000000900463ffffffff1680631aa3a0081461008657806338af3eed14610090578063598647f8146100e55780636098170514610106578063952587d614610177578063a2fb11751461018c578063bfb231d2146101ef575b600080fd5b61008e610226565b005b341561009b57600080fd5b6100a361039f565b604051808273ffffffffffffffffffffffffffffffffffffffff1673ffffffffffffffffffffffffffffffffffffffff16815260200191505060405180910390f35b61010460048080359060200190919080359060200190919050506103c5565b005b341561011157600080fd5b61012760048080359060200190919050506105f9565b604051808481526020018381526020018273ffffffffffffffffffffffffffffffffffffffff1673ffffffffffffffffffffffffffffffffffffffff168152602001935050505060405180910390f35b341561018257600080fd5b61018a610670565b005b341561019757600080fd5b6101ad60048080359060200190919050506107e5565b604051808273ffffffffffffffffffffffffffffffffffffffff1673ffffffffffffffffffffffffffffffffffffffff16815260200191505060405180910390f35b34156101fa57600080fd5b610210600480803590602001909190505061081a565b6040518082815260200191505060405180910390f35b601754600160175460048110151561023a57fe5b600302016001018190555033600160175460048110151561025757fe5b6003020160020160006101000a81548173ffffffffffffffffffffffffffffffffffffffff021916908373ffffffffffffffffffffffffffffffffffffffff160217905550600560016017546004811015156102af57fe5b600302016000018190555060016017546004811015156102cb57fe5b600302016000803373ffffffffffffffffffffffffffffffffffffffff1673ffffffffffffffffffffffffffffffffffffffff16815260200190815260200160002060008201548160000155600182015481600101556002820160009054906101000a900473ffffffffffffffffffffffffffffffffffffffff168160020160006101000a81548173ffffffffffffffffffffffffffffffffffffffff021916908373ffffffffffffffffffffffffffffffffffffffff160217905550905050601760008154809291906001019190505550565b601660009054906101000a900473ffffffffffffffffffffffffffffffffffffffff1681565b6000806000836000803373ffffffffffffffffffffffffffffffffffffffff1673ffffffffffffffffffffffffffffffffffffffff16815260200190815260200160002060000154108061045a575060008060003373ffffffffffffffffffffffffffffffffffffffff1673ffffffffffffffffffffffffffffffffffffffff16815260200190815260200160002060000154145b806104655750600285115b1561046f57600080fd5b836000803373ffffffffffffffffffffffffffffffffffffffff1673ffffffffffffffffffffffffffffffffffffffff16815260200190815260200160002060000154039250826000803373ffffffffffffffffffffffffffffffffffffffff1673ffffffffffffffffffffffffffffffffffffffff168152602001908152602001600020600001819055508260016000803373ffffffffffffffffffffffffffffffffffffffff1673ffffffffffffffffffffffffffffffffffffffff1681526020019081526020016000206001015460048110151561054c57fe5b6003020160000181905550600d8560038110151561056657fe5b600202019150600090505b838110156105f25781600101805480600101828161058f919061083d565b916000526020600020900160008060003373ffffffffffffffffffffffffffffffffffffffff1673ffffffffffffffffffffffffffffffffffffffff16815260200190815260200160002060010154909190915055508080600101915050610571565b5050505050565b600080600060018460048110151561060d57fe5b600302016000015460018560048110151561062457fe5b600302016001015460018660048110151561063b57fe5b6003020160020160009054906101000a900473ffffffffffffffffffffffffffffffffffffffff169250925092509193909250565b600080600080601660009054906101000a900473ffffffffffffffffffffffffffffffffffffffff1673ffffffffffffffffffffffffffffffffffffffff163373ffffffffffffffffffffffffffffffffffffffff161415156106d257600080fd5b600093505b60038410156107df57600d846003811015156106ef57fe5b600202019250600083600101805490501415156107d257826001018054905083600101805490504381151561072057fe5b0481151561072a57fe5b069150826001018281548110151561073e57fe5b906000526020600020900154905060018160048110151561075b57fe5b6003020160020160009054906101000a900473ffffffffffffffffffffffffffffffffffffffff1660138560038110151561079257fe5b0160006101000a81548173ffffffffffffffffffffffffffffffffffffffff021916908373ffffffffffffffffffffffffffffffffffffffff1602179055505b83806001019450506106d7565b50505050565b6013816003811015156107f457fe5b016000915054906101000a900473ffffffffffffffffffffffffffffffffffffffff1681565b600d8160038110151561082957fe5b600202016000915090508060000154905081565b815481835581811511610864578183600052602060002091820191016108639190610869565b5b505050565b61088b91905b8082111561088757600081600090555060010161086f565b5090565b905600a165627a7a72305820248570b6298d379fe568100f513727d5e146b44dbcbb2fd4b6b8fe533ac76e8d0029",
					"opcodes": "PUSH1 0x60 PUSH1 0x40 MSTORE PUSH1 0x0 PUSH1 0x17 SSTORE PUSH2 0x11 PUSH2 0x154 JUMP JUMPDEST CALLER PUSH1 0x16 PUSH1 0x0 PUSH2 0x100 EXP DUP2 SLOAD DUP2 PUSH20 0xFFFFFFFFFFFFFFFFFFFFFFFFFFFFFFFFFFFFFFFF MUL NOT AND SWAP1 DUP4 PUSH20 0xFFFFFFFFFFFFFFFFFFFFFFFFFFFFFFFFFFFFFFFF AND MUL OR SWAP1 SSTORE POP PUSH1 0x40 DUP1 MLOAD SWAP1 DUP2 ADD PUSH1 0x40 MSTORE DUP1 PUSH1 0x0 DUP2 MSTORE PUSH1 0x20 ADD DUP3 DUP2 MSTORE POP PUSH1 0xD PUSH1 0x0 PUSH1 0x3 DUP2 LT ISZERO ISZERO PUSH2 0x78 JUMPI INVALID JUMPDEST PUSH1 0x2 MUL ADD PUSH1 0x0 DUP3 ADD MLOAD DUP2 PUSH1 0x0 ADD SSTORE PUSH1 0x20 DUP3 ADD MLOAD DUP2 PUSH1 0x1 ADD SWAP1 DUP1 MLOAD SWAP1 PUSH1 0x20 ADD SWAP1 PUSH2 0xA2 SWAP3 SWAP2 SWAP1 PUSH2 0x168 JUMP JUMPDEST POP SWAP1 POP POP PUSH1 0x40 DUP1 MLOAD SWAP1 DUP2 ADD PUSH1 0x40 MSTORE DUP1 PUSH1 0x1 DUP2 MSTORE PUSH1 0x20 ADD DUP3 DUP2 MSTORE POP PUSH1 0xD PUSH1 0x1 PUSH1 0x3 DUP2 LT ISZERO ISZERO PUSH2 0xCC JUMPI INVALID JUMPDEST PUSH1 0x2 MUL ADD PUSH1 0x0 DUP3 ADD MLOAD DUP2 PUSH1 0x0 ADD SSTORE PUSH1 0x20 DUP3 ADD MLOAD DUP2 PUSH1 0x1 ADD SWAP1 DUP1 MLOAD SWAP1 PUSH1 0x20 ADD SWAP1 PUSH2 0xF6 SWAP3 SWAP2 SWAP1 PUSH2 0x168 JUMP JUMPDEST POP SWAP1 POP POP PUSH1 0x40 DUP1 MLOAD SWAP1 DUP2 ADD PUSH1 0x40 MSTORE DUP1 PUSH1 0x2 DUP2 MSTORE PUSH1 0x20 ADD DUP3 DUP2 MSTORE POP PUSH1 0xD PUSH1 0x2 PUSH1 0x3 DUP2 LT ISZERO ISZERO PUSH2 0x120 JUMPI INVALID JUMPDEST PUSH1 0x2 MUL ADD PUSH1 0x0 DUP3 ADD MLOAD DUP2 PUSH1 0x0 ADD SSTORE PUSH1 0x20 DUP3 ADD MLOAD DUP2 PUSH1 0x1 ADD SWAP1 DUP1 MLOAD SWAP1 PUSH1 0x20 ADD SWAP1 PUSH2 0x14A SWAP3 SWAP2 SWAP1 PUSH2 0x168 JUMP JUMPDEST POP SWAP1 POP POP POP PUSH2 0x1DA JUMP JUMPDEST PUSH1 0x20 PUSH1 0x40 MLOAD SWAP1 DUP2 ADD PUSH1 0x40 MSTORE DUP1 PUSH1 0x0 DUP2 MSTORE POP SWAP1 JUMP JUMPDEST DUP3 DUP1 SLOAD DUP3 DUP3 SSTORE SWAP1 PUSH1 0x0 MSTORE PUSH1 0x20 PUSH1 0x0 KECCAK256 SWAP1 DUP2 ADD SWAP3 DUP3 ISZERO PUSH2 0x1A4 JUMPI SWAP2 PUSH1 0x20 MUL DUP3 ADD JUMPDEST DUP3 DUP2 GT ISZERO PUSH2 0x1A3 JUMPI DUP3 MLOAD DUP3 SSTORE SWAP2 PUSH1 0x20 ADD SWAP2 SWAP1 PUSH1 0x1 ADD SWAP1 PUSH2 0x188 JUMP JUMPDEST JUMPDEST POP SWAP1 POP PUSH2 0x1B1 SWAP2 SWAP1 PUSH2 0x1B5 JUMP JUMPDEST POP SWAP1 JUMP JUMPDEST PUSH2 0x1D7 SWAP2 SWAP1 JUMPDEST DUP1 DUP3 GT ISZERO PUSH2 0x1D3 JUMPI PUSH1 0x0 DUP2 PUSH1 0x0 SWAP1 SSTORE POP PUSH1 0x1 ADD PUSH2 0x1BB JUMP JUMPDEST POP SWAP1 JUMP JUMPDEST SWAP1 JUMP JUMPDEST PUSH2 0x8BA DUP1 PUSH2 0x1E9 PUSH1 0x0 CODECOPY PUSH1 0x0 RETURN STOP PUSH1 0x60 PUSH1 0x40 MSTORE CALLDATASIZE ISZERO PUSH2 0x81 JUMPI PUSH1 0x0 CALLDATALOAD PUSH29 0x100000000000000000000000000000000000000000000000000000000 SWAP1 DIV PUSH4 0xFFFFFFFF AND DUP1 PUSH4 0x1AA3A008 EQ PUSH2 0x86 JUMPI DUP1 PUSH4 0x38AF3EED EQ PUSH2 0x90 JUMPI DUP1 PUSH4 0x598647F8 EQ PUSH2 0xE5 JUMPI DUP1 PUSH4 0x60981705 EQ PUSH2 0x106 JUMPI DUP1 PUSH4 0x952587D6 EQ PUSH2 0x177 JUMPI DUP1 PUSH4 0xA2FB1175 EQ PUSH2 0x18C JUMPI DUP1 PUSH4 0xBFB231D2 EQ PUSH2 0x1EF JUMPI JUMPDEST PUSH1 0x0 DUP1 REVERT JUMPDEST PUSH2 0x8E PUSH2 0x226 JUMP JUMPDEST STOP JUMPDEST CALLVALUE ISZERO PUSH2 0x9B JUMPI PUSH1 0x0 DUP1 REVERT JUMPDEST PUSH2 0xA3 PUSH2 0x39F JUMP JUMPDEST PUSH1 0x40 MLOAD DUP1 DUP3 PUSH20 0xFFFFFFFFFFFFFFFFFFFFFFFFFFFFFFFFFFFFFFFF AND PUSH20 0xFFFFFFFFFFFFFFFFFFFFFFFFFFFFFFFFFFFFFFFF AND DUP2 MSTORE PUSH1 0x20 ADD SWAP2 POP POP PUSH1 0x40 MLOAD DUP1 SWAP2 SUB SWAP1 RETURN JUMPDEST PUSH2 0x104 PUSH1 0x4 DUP1 DUP1 CALLDATALOAD SWAP1 PUSH1 0x20 ADD SWAP1 SWAP2 SWAP1 DUP1 CALLDATALOAD SWAP1 PUSH1 0x20 ADD SWAP1 SWAP2 SWAP1 POP POP PUSH2 0x3C5 JUMP JUMPDEST STOP JUMPDEST CALLVALUE ISZERO PUSH2 0x111 JUMPI PUSH1 0x0 DUP1 REVERT JUMPDEST PUSH2 0x127 PUSH1 0x4 DUP1 DUP1 CALLDATALOAD SWAP1 PUSH1 0x20 ADD SWAP1 SWAP2 SWAP1 POP POP PUSH2 0x5F9 JUMP JUMPDEST PUSH1 0x40 MLOAD DUP1 DUP5 DUP2 MSTORE PUSH1 0x20 ADD DUP4 DUP2 MSTORE PUSH1 0x20 ADD DUP3 PUSH20 0xFFFFFFFFFFFFFFFFFFFFFFFFFFFFFFFFFFFFFFFF AND PUSH20 0xFFFFFFFFFFFFFFFFFFFFFFFFFFFFFFFFFFFFFFFF AND DUP2 MSTORE PUSH1 0x20 ADD SWAP4 POP POP POP POP PUSH1 0x40 MLOAD DUP1 SWAP2 SUB SWAP1 RETURN JUMPDEST CALLVALUE ISZERO PUSH2 0x182 JUMPI PUSH1 0x0 DUP1 REVERT JUMPDEST PUSH2 0x18A PUSH2 0x670 JUMP JUMPDEST STOP JUMPDEST CALLVALUE ISZERO PUSH2 0x197 JUMPI PUSH1 0x0 DUP1 REVERT JUMPDEST PUSH2 0x1AD PUSH1 0x4 DUP1 DUP1 CALLDATALOAD SWAP1 PUSH1 0x20 ADD SWAP1 SWAP2 SWAP1 POP POP PUSH2 0x7E5 JUMP JUMPDEST PUSH1 0x40 MLOAD DUP1 DUP3 PUSH20 0xFFFFFFFFFFFFFFFFFFFFFFFFFFFFFFFFFFFFFFFF AND PUSH20 0xFFFFFFFFFFFFFFFFFFFFFFFFFFFFFFFFFFFFFFFF AND DUP2 MSTORE PUSH1 0x20 ADD SWAP2 POP POP PUSH1 0x40 MLOAD DUP1 SWAP2 SUB SWAP1 RETURN JUMPDEST CALLVALUE ISZERO PUSH2 0x1FA JUMPI PUSH1 0x0 DUP1 REVERT JUMPDEST PUSH2 0x210 PUSH1 0x4 DUP1 DUP1 CALLDATALOAD SWAP1 PUSH1 0x20 ADD SWAP1 SWAP2 SWAP1 POP POP PUSH2 0x81A JUMP JUMPDEST PUSH1 0x40 MLOAD DUP1 DUP3 DUP2 MSTORE PUSH1 0x20 ADD SWAP2 POP POP PUSH1 0x40 MLOAD DUP1 SWAP2 SUB SWAP1 RETURN JUMPDEST PUSH1 0x17 SLOAD PUSH1 0x1 PUSH1 0x17 SLOAD PUSH1 0x4 DUP2 LT ISZERO ISZERO PUSH2 0x23A JUMPI INVALID JUMPDEST PUSH1 0x3 MUL ADD PUSH1 0x1 ADD DUP2 SWAP1 SSTORE POP CALLER PUSH1 0x1 PUSH1 0x17 SLOAD PUSH1 0x4 DUP2 LT ISZERO ISZERO PUSH2 0x257 JUMPI INVALID JUMPDEST PUSH1 0x3 MUL ADD PUSH1 0x2 ADD PUSH1 0x0 PUSH2 0x100 EXP DUP2 SLOAD DUP2 PUSH20 0xFFFFFFFFFFFFFFFFFFFFFFFFFFFFFFFFFFFFFFFF MUL NOT AND SWAP1 DUP4 PUSH20 0xFFFFFFFFFFFFFFFFFFFFFFFFFFFFFFFFFFFFFFFF AND MUL OR SWAP1 SSTORE POP PUSH1 0x5 PUSH1 0x1 PUSH1 0x17 SLOAD PUSH1 0x4 DUP2 LT ISZERO ISZERO PUSH2 0x2AF JUMPI INVALID JUMPDEST PUSH1 0x3 MUL ADD PUSH1 0x0 ADD DUP2 SWAP1 SSTORE POP PUSH1 0x1 PUSH1 0x17 SLOAD PUSH1 0x4 DUP2 LT ISZERO ISZERO PUSH2 0x2CB JUMPI INVALID JUMPDEST PUSH1 0x3 MUL ADD PUSH1 0x0 DUP1 CALLER PUSH20 0xFFFFFFFFFFFFFFFFFFFFFFFFFFFFFFFFFFFFFFFF AND PUSH20 0xFFFFFFFFFFFFFFFFFFFFFFFFFFFFFFFFFFFFFFFF AND DUP2 MSTORE PUSH1 0x20 ADD SWAP1 DUP2 MSTORE PUSH1 0x20 ADD PUSH1 0x0 KECCAK256 PUSH1 0x0 DUP3 ADD SLOAD DUP2 PUSH1 0x0 ADD SSTORE PUSH1 0x1 DUP3 ADD SLOAD DUP2 PUSH1 0x1 ADD SSTORE PUSH1 0x2 DUP3 ADD PUSH1 0x0 SWAP1 SLOAD SWAP1 PUSH2 0x100 EXP SWAP1 DIV PUSH20 0xFFFFFFFFFFFFFFFFFFFFFFFFFFFFFFFFFFFFFFFF AND DUP2 PUSH1 0x2 ADD PUSH1 0x0 PUSH2 0x100 EXP DUP2 SLOAD DUP2 PUSH20 0xFFFFFFFFFFFFFFFFFFFFFFFFFFFFFFFFFFFFFFFF MUL NOT AND SWAP1 DUP4 PUSH20 0xFFFFFFFFFFFFFFFFFFFFFFFFFFFFFFFFFFFFFFFF AND MUL OR SWAP1 SSTORE POP SWAP1 POP POP PUSH1 0x17 PUSH1 0x0 DUP2 SLOAD DUP1 SWAP3 SWAP2 SWAP1 PUSH1 0x1 ADD SWAP2 SWAP1 POP SSTORE POP JUMP JUMPDEST PUSH1 0x16 PUSH1 0x0 SWAP1 SLOAD SWAP1 PUSH2 0x100 EXP SWAP1 DIV PUSH20 0xFFFFFFFFFFFFFFFFFFFFFFFFFFFFFFFFFFFFFFFF AND DUP2 JUMP JUMPDEST PUSH1 0x0 DUP1 PUSH1 0x0 DUP4 PUSH1 0x0 DUP1 CALLER PUSH20 0xFFFFFFFFFFFFFFFFFFFFFFFFFFFFFFFFFFFFFFFF AND PUSH20 0xFFFFFFFFFFFFFFFFFFFFFFFFFFFFFFFFFFFFFFFF AND DUP2 MSTORE PUSH1 0x20 ADD SWAP1 DUP2 MSTORE PUSH1 0x20 ADD PUSH1 0x0 KECCAK256 PUSH1 0x0 ADD SLOAD LT DUP1 PUSH2 0x45A JUMPI POP PUSH1 0x0 DUP1 PUSH1 0x0 CALLER PUSH20 0xFFFFFFFFFFFFFFFFFFFFFFFFFFFFFFFFFFFFFFFF AND PUSH20 0xFFFFFFFFFFFFFFFFFFFFFFFFFFFFFFFFFFFFFFFF AND DUP2 MSTORE PUSH1 0x20 ADD SWAP1 DUP2 MSTORE PUSH1 0x20 ADD PUSH1 0x0 KECCAK256 PUSH1 0x0 ADD SLOAD EQ JUMPDEST DUP1 PUSH2 0x465 JUMPI POP PUSH1 0x2 DUP6 GT JUMPDEST ISZERO PUSH2 0x46F JUMPI PUSH1 0x0 DUP1 REVERT JUMPDEST DUP4 PUSH1 0x0 DUP1 CALLER PUSH20 0xFFFFFFFFFFFFFFFFFFFFFFFFFFFFFFFFFFFFFFFF AND PUSH20 0xFFFFFFFFFFFFFFFFFFFFFFFFFFFFFFFFFFFFFFFF AND DUP2 MSTORE PUSH1 0x20 ADD SWAP1 DUP2 MSTORE PUSH1 0x20 ADD PUSH1 0x0 KECCAK256 PUSH1 0x0 ADD SLOAD SUB SWAP3 POP DUP3 PUSH1 0x0 DUP1 CALLER PUSH20 0xFFFFFFFFFFFFFFFFFFFFFFFFFFFFFFFFFFFFFFFF AND PUSH20 0xFFFFFFFFFFFFFFFFFFFFFFFFFFFFFFFFFFFFFFFF AND DUP2 MSTORE PUSH1 0x20 ADD SWAP1 DUP2 MSTORE PUSH1 0x20 ADD PUSH1 0x0 KECCAK256 PUSH1 0x0 ADD DUP2 SWAP1 SSTORE POP DUP3 PUSH1 0x1 PUSH1 0x0 DUP1 CALLER PUSH20 0xFFFFFFFFFFFFFFFFFFFFFFFFFFFFFFFFFFFFFFFF AND PUSH20 0xFFFFFFFFFFFFFFFFFFFFFFFFFFFFFFFFFFFFFFFF AND DUP2 MSTORE PUSH1 0x20 ADD SWAP1 DUP2 MSTORE PUSH1 0x20 ADD PUSH1 0x0 KECCAK256 PUSH1 0x1 ADD SLOAD PUSH1 0x4 DUP2 LT ISZERO ISZERO PUSH2 0x54C JUMPI INVALID JUMPDEST PUSH1 0x3 MUL ADD PUSH1 0x0 ADD DUP2 SWAP1 SSTORE POP PUSH1 0xD DUP6 PUSH1 0x3 DUP2 LT ISZERO ISZERO PUSH2 0x566 JUMPI INVALID JUMPDEST PUSH1 0x2 MUL ADD SWAP2 POP PUSH1 0x0 SWAP1 POP JUMPDEST DUP4 DUP2 LT ISZERO PUSH2 0x5F2 JUMPI DUP2 PUSH1 0x1 ADD DUP1 SLOAD DUP1 PUSH1 0x1 ADD DUP3 DUP2 PUSH2 0x58F SWAP2 SWAP1 PUSH2 0x83D JUMP JUMPDEST SWAP2 PUSH1 0x0 MSTORE PUSH1 0x20 PUSH1 0x0 KECCAK256 SWAP1 ADD PUSH1 0x0 DUP1 PUSH1 0x0 CALLER PUSH20 0xFFFFFFFFFFFFFFFFFFFFFFFFFFFFFFFFFFFFFFFF AND PUSH20 0xFFFFFFFFFFFFFFFFFFFFFFFFFFFFFFFFFFFFFFFF AND DUP2 MSTORE PUSH1 0x20 ADD SWAP1 DUP2 MSTORE PUSH1 0x20 ADD PUSH1 0x0 KECCAK256 PUSH1 0x1 ADD SLOAD SWAP1 SWAP2 SWAP1 SWAP2 POP SSTORE POP DUP1 DUP1 PUSH1 0x1 ADD SWAP2 POP POP PUSH2 0x571 JUMP JUMPDEST POP POP POP POP POP JUMP JUMPDEST PUSH1 0x0 DUP1 PUSH1 0x0 PUSH1 0x1 DUP5 PUSH1 0x4 DUP2 LT ISZERO ISZERO PUSH2 0x60D JUMPI INVALID JUMPDEST PUSH1 0x3 MUL ADD PUSH1 0x0 ADD SLOAD PUSH1 0x1 DUP6 PUSH1 0x4 DUP2 LT ISZERO ISZERO PUSH2 0x624 JUMPI INVALID JUMPDEST PUSH1 0x3 MUL ADD PUSH1 0x1 ADD SLOAD PUSH1 0x1 DUP7 PUSH1 0x4 DUP2 LT ISZERO ISZERO PUSH2 0x63B JUMPI INVALID JUMPDEST PUSH1 0x3 MUL ADD PUSH1 0x2 ADD PUSH1 0x0 SWAP1 SLOAD SWAP1 PUSH2 0x100 EXP SWAP1 DIV PUSH20 0xFFFFFFFFFFFFFFFFFFFFFFFFFFFFFFFFFFFFFFFF AND SWAP3 POP SWAP3 POP SWAP3 POP SWAP2 SWAP4 SWAP1 SWAP3 POP JUMP JUMPDEST PUSH1 0x0 DUP1 PUSH1 0x0 DUP1 PUSH1 0x16 PUSH1 0x0 SWAP1 SLOAD SWAP1 PUSH2 0x100 EXP SWAP1 DIV PUSH20 0xFFFFFFFFFFFFFFFFFFFFFFFFFFFFFFFFFFFFFFFF AND PUSH20 0xFFFFFFFFFFFFFFFFFFFFFFFFFFFFFFFFFFFFFFFF AND CALLER PUSH20 0xFFFFFFFFFFFFFFFFFFFFFFFFFFFFFFFFFFFFFFFF AND EQ ISZERO ISZERO PUSH2 0x6D2 JUMPI PUSH1 0x0 DUP1 REVERT JUMPDEST PUSH1 0x0 SWAP4 POP JUMPDEST PUSH1 0x3 DUP5 LT ISZERO PUSH2 0x7DF JUMPI PUSH1 0xD DUP5 PUSH1 0x3 DUP2 LT ISZERO ISZERO PUSH2 0x6EF JUMPI INVALID JUMPDEST PUSH1 0x2 MUL ADD SWAP3 POP PUSH1 0x0 DUP4 PUSH1 0x1 ADD DUP1 SLOAD SWAP1 POP EQ ISZERO ISZERO PUSH2 0x7D2 JUMPI DUP3 PUSH1 0x1 ADD DUP1 SLOAD SWAP1 POP DUP4 PUSH1 0x1 ADD DUP1 SLOAD SWAP1 POP NUMBER DUP2 ISZERO ISZERO PUSH2 0x720 JUMPI INVALID JUMPDEST DIV DUP2 ISZERO ISZERO PUSH2 0x72A JUMPI INVALID JUMPDEST MOD SWAP2 POP DUP3 PUSH1 0x1 ADD DUP3 DUP2 SLOAD DUP2 LT ISZERO ISZERO PUSH2 0x73E JUMPI INVALID JUMPDEST SWAP1 PUSH1 0x0 MSTORE PUSH1 0x20 PUSH1 0x0 KECCAK256 SWAP1 ADD SLOAD SWAP1 POP PUSH1 0x1 DUP2 PUSH1 0x4 DUP2 LT ISZERO ISZERO PUSH2 0x75B JUMPI INVALID JUMPDEST PUSH1 0x3 MUL ADD PUSH1 0x2 ADD PUSH1 0x0 SWAP1 SLOAD SWAP1 PUSH2 0x100 EXP SWAP1 DIV PUSH20 0xFFFFFFFFFFFFFFFFFFFFFFFFFFFFFFFFFFFFFFFF AND PUSH1 0x13 DUP6 PUSH1 0x3 DUP2 LT ISZERO ISZERO PUSH2 0x792 JUMPI INVALID JUMPDEST ADD PUSH1 0x0 PUSH2 0x100 EXP DUP2 SLOAD DUP2 PUSH20 0xFFFFFFFFFFFFFFFFFFFFFFFFFFFFFFFFFFFFFFFF MUL NOT AND SWAP1 DUP4 PUSH20 0xFFFFFFFFFFFFFFFFFFFFFFFFFFFFFFFFFFFFFFFF AND MUL OR SWAP1 SSTORE POP JUMPDEST DUP4 DUP1 PUSH1 0x1 ADD SWAP5 POP POP PUSH2 0x6D7 JUMP JUMPDEST POP POP POP POP JUMP JUMPDEST PUSH1 0x13 DUP2 PUSH1 0x3 DUP2 LT ISZERO ISZERO PUSH2 0x7F4 JUMPI INVALID JUMPDEST ADD PUSH1 0x0 SWAP2 POP SLOAD SWAP1 PUSH2 0x100 EXP SWAP1 DIV PUSH20 0xFFFFFFFFFFFFFFFFFFFFFFFFFFFFFFFFFFFFFFFF AND DUP2 JUMP JUMPDEST PUSH1 0xD DUP2 PUSH1 0x3 DUP2 LT ISZERO ISZERO PUSH2 0x829 JUMPI INVALID JUMPDEST PUSH1 0x2 MUL ADD PUSH1 0x0 SWAP2 POP SWAP1 POP DUP1 PUSH1 0x0 ADD SLOAD SWAP1 POP DUP2 JUMP JUMPDEST DUP2 SLOAD DUP2 DUP4 SSTORE DUP2 DUP2 ISZERO GT PUSH2 0x864 JUMPI DUP2 DUP4 PUSH1 0x0 MSTORE PUSH1 0x20 PUSH1 0x0 KECCAK256 SWAP2 DUP3 ADD SWAP2 ADD PUSH2 0x863 SWAP2 SWAP1 PUSH2 0x869 JUMP JUMPDEST JUMPDEST POP POP POP JUMP JUMPDEST PUSH2 0x88B SWAP2 SWAP1 JUMPDEST DUP1 DUP3 GT ISZERO PUSH2 0x887 JUMPI PUSH1 0x0 DUP2 PUSH1 0x0 SWAP1 SSTORE POP PUSH1 0x1 ADD PUSH2 0x86F JUMP JUMPDEST POP SWAP1 JUMP JUMPDEST SWAP1 JUMP STOP LOG1 PUSH6 0x627A7A723058 KECCAK256 0x24 DUP6 PUSH17 0xB6298D379FE568100F513727D5E146B44D 0xbc 0xbb 0x2f 0xd4 0xb6 0xb8 INVALID MSTORE8 GASPRICE 0xc7 PUSH15 0x8D0029000000000000000000000000 "
				},
				"gasEstimates": {
					"creation": {
						"codeDepositCost": "446800",
						"executionCost": "infinite",
						"totalCost": "infinite"
					},
					"external": {
						"beneficiary()": "453",
						"bid(uint256,uint256)": "infinite",
						"getPersonDetails(uint256)": "1159",
						"items(uint256)": "619",
						"register()": "142880",
						"revealWinners()": "infinite",
						"winners(uint256)": "612"
					}
				},
				"methodIdentifiers": {
					"beneficiary()": "38af3eed",
					"bid(uint256,uint256)": "598647f8",
					"getPersonDetails(uint256)": "60981705",
					"items(uint256)": "bfb231d2",
					"register()": "1aa3a008",
					"revealWinners()": "952587d6",
					"winners(uint256)": "a2fb1175"
				}
			},
			"userdoc": {
				"methods": {}
			}
		}
	}
}