{
	"Learning Contrats v0.4.0/CourseraProject/Pgu7q1LYEeiDhgqYR-Lxvg_3e270bc052d811e8905939ab43f94f38_Auction.sol": {
		"Auction": {
			"abi": [
				{
					"constant": false,
					"inputs": [],
					"name": "register",
					"outputs": [],
					"payable": true,
					"stateMutability": "payable",
					"type": "function"
				},
				{
					"constant": true,
					"inputs": [],
					"name": "beneficiary",
					"outputs": [
						{
							"name": "",
							"type": "address"
						}
					],
					"payable": false,
					"stateMutability": "view",
					"type": "function"
				},
				{
					"constant": false,
					"inputs": [
						{
							"name": "_itemId",
							"type": "uint256"
						},
						{
							"name": "_count",
							"type": "uint256"
						}
					],
					"name": "bid",
					"outputs": [],
					"payable": true,
					"stateMutability": "payable",
					"type": "function"
				},
				{
					"constant": true,
					"inputs": [
						{
							"name": "id",
							"type": "uint256"
						}
					],
					"name": "getPersonDetails",
					"outputs": [
						{
							"name": "",
							"type": "uint256"
						},
						{
							"name": "",
							"type": "uint256"
						},
						{
							"name": "",
							"type": "address"
						}
					],
					"payable": false,
					"stateMutability": "view",
					"type": "function"
				},
				{
					"constant": false,
					"inputs": [],
					"name": "revealWinners",
					"outputs": [],
					"payable": false,
					"stateMutability": "nonpayable",
					"type": "function"
				},
				{
					"constant": true,
					"inputs": [
						{
							"name": "",
							"type": "uint256"
						}
					],
					"name": "winners",
					"outputs": [
						{
							"name": "",
							"type": "address"
						}
					],
					"payable": false,
					"stateMutability": "view",
					"type": "function"
				},
				{
					"constant": true,
					"inputs": [
						{
							"name": "",
							"type": "uint256"
						}
					],
					"name": "items",
					"outputs": [
						{
							"name": "itemId",
							"type": "uint256"
						}
					],
					"payable": false,
					"stateMutability": "view",
					"type": "function"
				},
				{
					"inputs": [],
					"payable": true,
					"stateMutability": "payable",
					"type": "constructor"
				}
			],
			"devdoc": {
				"methods": {}
			},
			"evm": {
				"assembly": "    /* \"Learning Contrats v0.4.0/CourseraProject/Pgu7q1LYEeiDhgqYR-Lxvg_3e270bc052d811e8905939ab43f94f38_Auction.sol\":25:5675  contract Auction {... */\n  mstore(0x40, 0x60)\n    /* \"Learning Contrats v0.4.0/CourseraProject/Pgu7q1LYEeiDhgqYR-Lxvg_3e270bc052d811e8905939ab43f94f38_Auction.sol\":819:820  0 */\n  0x0\n    /* \"Learning Contrats v0.4.0/CourseraProject/Pgu7q1LYEeiDhgqYR-Lxvg_3e270bc052d811e8905939ab43f94f38_Auction.sol\":802:820  uint bidderCount=0 */\n  0x17\n  sstore\n    /* \"Learning Contrats v0.4.0/CourseraProject/Pgu7q1LYEeiDhgqYR-Lxvg_3e270bc052d811e8905939ab43f94f38_Auction.sol\":1192:1216  uint[] memory emptyArray */\n  tag_2\n  jump\t// in(tag_3)\ntag_2:\n    /* \"Learning Contrats v0.4.0/CourseraProject/Pgu7q1LYEeiDhgqYR-Lxvg_3e270bc052d811e8905939ab43f94f38_Auction.sol\":1237:1275  Item({itemId:0,itemTokens:emptyArray}) */\n  0x40\n  dup1\n  mload\n  swap1\n  dup2\n  add\n  0x40\n  mstore\n  dup1\n    /* \"Learning Contrats v0.4.0/CourseraProject/Pgu7q1LYEeiDhgqYR-Lxvg_3e270bc052d811e8905939ab43f94f38_Auction.sol\":1250:1251  0 */\n  0x0\n    /* \"Learning Contrats v0.4.0/CourseraProject/Pgu7q1LYEeiDhgqYR-Lxvg_3e270bc052d811e8905939ab43f94f38_Auction.sol\":1237:1275  Item({itemId:0,itemTokens:emptyArray}) */\n  dup2\n  mstore\n  0x20\n  add\n    /* \"Learning Contrats v0.4.0/CourseraProject/Pgu7q1LYEeiDhgqYR-Lxvg_3e270bc052d811e8905939ab43f94f38_Auction.sol\":1263:1273  emptyArray */\n  dup3\n    /* \"Learning Contrats v0.4.0/CourseraProject/Pgu7q1LYEeiDhgqYR-Lxvg_3e270bc052d811e8905939ab43f94f38_Auction.sol\":1237:1275  Item({itemId:0,itemTokens:emptyArray}) */\n  dup2\n  mstore\n  pop\n    /* \"Learning Contrats v0.4.0/CourseraProject/Pgu7q1LYEeiDhgqYR-Lxvg_3e270bc052d811e8905939ab43f94f38_Auction.sol\":1226:1231  items */\n  0xd\n    /* \"Learning Contrats v0.4.0/CourseraProject/Pgu7q1LYEeiDhgqYR-Lxvg_3e270bc052d811e8905939ab43f94f38_Auction.sol\":1232:1233  0 */\n  0x0\n    /* \"Learning Contrats v0.4.0/CourseraProject/Pgu7q1LYEeiDhgqYR-Lxvg_3e270bc052d811e8905939ab43f94f38_Auction.sol\":1226:1234  items[0] */\n  0x3\n  dup2\n  lt\n  iszero\n  iszero\n  tag_5\n  jumpi\n  invalid\ntag_5:\n  0x2\n  mul\n  add\n    /* \"Learning Contrats v0.4.0/CourseraProject/Pgu7q1LYEeiDhgqYR-Lxvg_3e270bc052d811e8905939ab43f94f38_Auction.sol\":1226:1275  items[0] = Item({itemId:0,itemTokens:emptyArray}) */\n  0x0\n  dup3\n  add\n  mload\n  dup2\n  0x0\n  add\n  sstore\n  0x20\n  dup3\n  add\n  mload\n  dup2\n  0x1\n  add\n  swap1\n  dup1\n  mload\n  swap1\n  0x20\n  add\n  swap1\n  tag_7\n  swap3\n  swap2\n  swap1\n  jump\t// in(tag_8)\ntag_7:\n  pop\n  swap1\n  pop\n  pop\n    /* \"Learning Contrats v0.4.0/CourseraProject/Pgu7q1LYEeiDhgqYR-Lxvg_3e270bc052d811e8905939ab43f94f38_Auction.sol\":1434:1472  Item({itemId:1,itemTokens:emptyArray}) */\n  0x40\n  dup1\n  mload\n  swap1\n  dup2\n  add\n  0x40\n  mstore\n  dup1\n    /* \"Learning Contrats v0.4.0/CourseraProject/Pgu7q1LYEeiDhgqYR-Lxvg_3e270bc052d811e8905939ab43f94f38_Auction.sol\":1447:1448  1 */\n  0x1\n    /* \"Learning Contrats v0.4.0/CourseraProject/Pgu7q1LYEeiDhgqYR-Lxvg_3e270bc052d811e8905939ab43f94f38_Auction.sol\":1434:1472  Item({itemId:1,itemTokens:emptyArray}) */\n  dup2\n  mstore\n  0x20\n  add\n    /* \"Learning Contrats v0.4.0/CourseraProject/Pgu7q1LYEeiDhgqYR-Lxvg_3e270bc052d811e8905939ab43f94f38_Auction.sol\":1460:1470  emptyArray */\n  dup3\n    /* \"Learning Contrats v0.4.0/CourseraProject/Pgu7q1LYEeiDhgqYR-Lxvg_3e270bc052d811e8905939ab43f94f38_Auction.sol\":1434:1472  Item({itemId:1,itemTokens:emptyArray}) */\n  dup2\n  mstore\n  pop\n    /* \"Learning Contrats v0.4.0/CourseraProject/Pgu7q1LYEeiDhgqYR-Lxvg_3e270bc052d811e8905939ab43f94f38_Auction.sol\":1423:1428  items */\n  0xd\n    /* \"Learning Contrats v0.4.0/CourseraProject/Pgu7q1LYEeiDhgqYR-Lxvg_3e270bc052d811e8905939ab43f94f38_Auction.sol\":1429:1430  1 */\n  0x1\n    /* \"Learning Contrats v0.4.0/CourseraProject/Pgu7q1LYEeiDhgqYR-Lxvg_3e270bc052d811e8905939ab43f94f38_Auction.sol\":1423:1431  items[1] */\n  0x3\n  dup2\n  lt\n  iszero\n  iszero\n  tag_9\n  jumpi\n  invalid\ntag_9:\n  0x2\n  mul\n  add\n    /* \"Learning Contrats v0.4.0/CourseraProject/Pgu7q1LYEeiDhgqYR-Lxvg_3e270bc052d811e8905939ab43f94f38_Auction.sol\":1423:1472  items[1] = Item({itemId:1,itemTokens:emptyArray}) */\n  0x0\n  dup3\n  add\n  mload\n  dup2\n  0x0\n  add\n  sstore\n  0x20\n  dup3\n  add\n  mload\n  dup2\n  0x1\n  add\n  swap1\n  dup1\n  mload\n  swap1\n  0x20\n  add\n  swap1\n  tag_11\n  swap3\n  swap2\n  swap1\n  jump\t// in(tag_8)\ntag_11:\n  pop\n  swap1\n  pop\n  pop\n    /* \"Learning Contrats v0.4.0/CourseraProject/Pgu7q1LYEeiDhgqYR-Lxvg_3e270bc052d811e8905939ab43f94f38_Auction.sol\":1494:1532  Item({itemId:2,itemTokens:emptyArray}) */\n  0x40\n  dup1\n  mload\n  swap1\n  dup2\n  add\n  0x40\n  mstore\n  dup1\n    /* \"Learning Contrats v0.4.0/CourseraProject/Pgu7q1LYEeiDhgqYR-Lxvg_3e270bc052d811e8905939ab43f94f38_Auction.sol\":1507:1508  2 */\n  0x2\n    /* \"Learning Contrats v0.4.0/CourseraProject/Pgu7q1LYEeiDhgqYR-Lxvg_3e270bc052d811e8905939ab43f94f38_Auction.sol\":1494:1532  Item({itemId:2,itemTokens:emptyArray}) */\n  dup2\n  mstore\n  0x20\n  add\n    /* \"Learning Contrats v0.4.0/CourseraProject/Pgu7q1LYEeiDhgqYR-Lxvg_3e270bc052d811e8905939ab43f94f38_Auction.sol\":1520:1530  emptyArray */\n  dup3\n    /* \"Learning Contrats v0.4.0/CourseraProject/Pgu7q1LYEeiDhgqYR-Lxvg_3e270bc052d811e8905939ab43f94f38_Auction.sol\":1494:1532  Item({itemId:2,itemTokens:emptyArray}) */\n  dup2\n  mstore\n  pop\n    /* \"Learning Contrats v0.4.0/CourseraProject/Pgu7q1LYEeiDhgqYR-Lxvg_3e270bc052d811e8905939ab43f94f38_Auction.sol\":1483:1488  items */\n  0xd\n    /* \"Learning Contrats v0.4.0/CourseraProject/Pgu7q1LYEeiDhgqYR-Lxvg_3e270bc052d811e8905939ab43f94f38_Auction.sol\":1489:1490  2 */\n  0x2\n    /* \"Learning Contrats v0.4.0/CourseraProject/Pgu7q1LYEeiDhgqYR-Lxvg_3e270bc052d811e8905939ab43f94f38_Auction.sol\":1483:1491  items[2] */\n  0x3\n  dup2\n  lt\n  iszero\n  iszero\n  tag_12\n  jumpi\n  invalid\ntag_12:\n  0x2\n  mul\n  add\n    /* \"Learning Contrats v0.4.0/CourseraProject/Pgu7q1LYEeiDhgqYR-Lxvg_3e270bc052d811e8905939ab43f94f38_Auction.sol\":1483:1532  items[2] = Item({itemId:2,itemTokens:emptyArray}) */\n  0x0\n  dup3\n  add\n  mload\n  dup2\n  0x0\n  add\n  sstore\n  0x20\n  dup3\n  add\n  mload\n  dup2\n  0x1\n  add\n  swap1\n  dup1\n  mload\n  swap1\n  0x20\n  add\n  swap1\n  tag_14\n  swap3\n  swap2\n  swap1\n  jump\t// in(tag_8)\ntag_14:\n  pop\n  swap1\n  pop\n  pop\n    /* \"Learning Contrats v0.4.0/CourseraProject/Pgu7q1LYEeiDhgqYR-Lxvg_3e270bc052d811e8905939ab43f94f38_Auction.sol\":857:1570  function Auction() public payable{    //constructor... */\n  pop\n    /* \"Learning Contrats v0.4.0/CourseraProject/Pgu7q1LYEeiDhgqYR-Lxvg_3e270bc052d811e8905939ab43f94f38_Auction.sol\":25:5675  contract Auction {... */\n  jump(tag_15)\ntag_3:\n  0x20\n  mload(0x40)\n  swap1\n  dup2\n  add\n  0x40\n  mstore\n  dup1\n  0x0\n  dup2\n  mstore\n  pop\n  swap1\n  jump\t// out\ntag_8:\n  dup3\n  dup1\n  sload\n  dup3\n  dup3\n  sstore\n  swap1\n  0x0\n  mstore\n  keccak256(0x0, 0x20)\n  swap1\n  dup2\n  add\n  swap3\n  dup3\n  iszero\n  tag_16\n  jumpi\n  swap2\n  0x20\n  mul\n  dup3\n  add\ntag_17:\n  dup3\n  dup2\n  gt\n  iszero\n  tag_18\n  jumpi\n  dup3\n  mload\n  dup3\n  sstore\n  swap2\n  0x20\n  add\n  swap2\n  swap1\n  0x1\n  add\n  swap1\n  jump(tag_17)\ntag_18:\ntag_16:\n  pop\n  swap1\n  pop\n  tag_19\n  swap2\n  swap1\n  jump\t// in(tag_20)\ntag_19:\n  pop\n  swap1\n  jump\t// out\ntag_20:\n  tag_21\n  swap2\n  swap1\ntag_22:\n  dup1\n  dup3\n  gt\n  iszero\n  tag_23\n  jumpi\n  0x0\n  dup2\n  0x0\n  swap1\n  sstore\n  pop\n  0x1\n  add\n  jump(tag_22)\ntag_23:\n  pop\n  swap1\n  jump\ntag_21:\n  swap1\n  jump\t// out\ntag_15:\n  dataSize(sub_0)\n  dup1\n  dataOffset(sub_0)\n  0x0\n  codecopy\n  0x0\n  return\nstop\n\nsub_0: assembly {\n        /* \"Learning Contrats v0.4.0/CourseraProject/Pgu7q1LYEeiDhgqYR-Lxvg_3e270bc052d811e8905939ab43f94f38_Auction.sol\":25:5675  contract Auction {... */\n      mstore(0x40, 0x60)\n      jumpi(tag_1, iszero(calldatasize))\n      calldataload(0x0)\n      0x100000000000000000000000000000000000000000000000000000000\n      swap1\n      div\n      0xffffffff\n      and\n      dup1\n      0x1aa3a008\n      eq\n      tag_2\n      jumpi\n      dup1\n      0x38af3eed\n      eq\n      tag_3\n      jumpi\n      dup1\n      0x598647f8\n      eq\n      tag_4\n      jumpi\n      dup1\n      0x60981705\n      eq\n      tag_5\n      jumpi\n      dup1\n      0x952587d6\n      eq\n      tag_6\n      jumpi\n      dup1\n      0xa2fb1175\n      eq\n      tag_7\n      jumpi\n      dup1\n      0xbfb231d2\n      eq\n      tag_8\n      jumpi\n    tag_1:\n      0x0\n      dup1\n      revert\n        /* \"Learning Contrats v0.4.0/CourseraProject/Pgu7q1LYEeiDhgqYR-Lxvg_3e270bc052d811e8905939ab43f94f38_Auction.sol\":1581:2161  function register() public payable{... */\n    tag_2:\n      tag_9\n      jump(tag_10)\n    tag_9:\n      stop\n        /* \"Learning Contrats v0.4.0/CourseraProject/Pgu7q1LYEeiDhgqYR-Lxvg_3e270bc052d811e8905939ab43f94f38_Auction.sol\":736:762  address public beneficiary */\n    tag_3:\n      jumpi(tag_11, iszero(callvalue))\n      0x0\n      dup1\n      revert\n    tag_11:\n      tag_12\n      jump(tag_13)\n    tag_12:\n      mload(0x40)\n      dup1\n      dup3\n      0xffffffffffffffffffffffffffffffffffffffff\n      and\n      0xffffffffffffffffffffffffffffffffffffffff\n      and\n      dup2\n      mstore\n      0x20\n      add\n      swap2\n      pop\n      pop\n      mload(0x40)\n      dup1\n      swap2\n      sub\n      swap1\n      return\n        /* \"Learning Contrats v0.4.0/CourseraProject/Pgu7q1LYEeiDhgqYR-Lxvg_3e270bc052d811e8905939ab43f94f38_Auction.sol\":2171:3934  function bid(uint _itemId, uint _count) public payable{... */\n    tag_4:\n      tag_14\n      0x4\n      dup1\n      dup1\n      calldataload\n      swap1\n      0x20\n      add\n      swap1\n      swap2\n      swap1\n      dup1\n      calldataload\n      swap1\n      0x20\n      add\n      swap1\n      swap2\n      swap1\n      pop\n      pop\n      jump(tag_15)\n    tag_14:\n      stop\n        /* \"Learning Contrats v0.4.0/CourseraProject/Pgu7q1LYEeiDhgqYR-Lxvg_3e270bc052d811e8905939ab43f94f38_Auction.sol\":5504:5672  function getPersonDetails(uint id) public constant returns(uint,uint,address){... */\n    tag_5:\n      jumpi(tag_16, iszero(callvalue))\n      0x0\n      dup1\n      revert\n    tag_16:\n      tag_17\n      0x4\n      dup1\n      dup1\n      calldataload\n      swap1\n      0x20\n      add\n      swap1\n      swap2\n      swap1\n      pop\n      pop\n      jump(tag_18)\n    tag_17:\n      mload(0x40)\n      dup1\n      dup5\n      dup2\n      mstore\n      0x20\n      add\n      dup4\n      dup2\n      mstore\n      0x20\n      add\n      dup3\n      0xffffffffffffffffffffffffffffffffffffffff\n      and\n      0xffffffffffffffffffffffffffffffffffffffff\n      and\n      dup2\n      mstore\n      0x20\n      add\n      swap4\n      pop\n      pop\n      pop\n      pop\n      mload(0x40)\n      dup1\n      swap2\n      sub\n      swap1\n      return\n        /* \"Learning Contrats v0.4.0/CourseraProject/Pgu7q1LYEeiDhgqYR-Lxvg_3e270bc052d811e8905939ab43f94f38_Auction.sol\":4323:5402  function revealWinners() public onlyOwner{... */\n    tag_6:\n      jumpi(tag_19, iszero(callvalue))\n      0x0\n      dup1\n      revert\n    tag_19:\n      tag_20\n      jump(tag_21)\n    tag_20:\n      stop\n        /* \"Learning Contrats v0.4.0/CourseraProject/Pgu7q1LYEeiDhgqYR-Lxvg_3e270bc052d811e8905939ab43f94f38_Auction.sol\":675:700  address[3] public winners */\n    tag_7:\n      jumpi(tag_22, iszero(callvalue))\n      0x0\n      dup1\n      revert\n    tag_22:\n      tag_23\n      0x4\n      dup1\n      dup1\n      calldataload\n      swap1\n      0x20\n      add\n      swap1\n      swap2\n      swap1\n      pop\n      pop\n      jump(tag_24)\n    tag_23:\n      mload(0x40)\n      dup1\n      dup3\n      0xffffffffffffffffffffffffffffffffffffffff\n      and\n      0xffffffffffffffffffffffffffffffffffffffff\n      and\n      dup2\n      mstore\n      0x20\n      add\n      swap2\n      pop\n      pop\n      mload(0x40)\n      dup1\n      swap2\n      sub\n      swap1\n      return\n        /* \"Learning Contrats v0.4.0/CourseraProject/Pgu7q1LYEeiDhgqYR-Lxvg_3e270bc052d811e8905939ab43f94f38_Auction.sol\":615:636  Item [3] public items */\n    tag_8:\n      jumpi(tag_25, iszero(callvalue))\n      0x0\n      dup1\n      revert\n    tag_25:\n      tag_26\n      0x4\n      dup1\n      dup1\n      calldataload\n      swap1\n      0x20\n      add\n      swap1\n      swap2\n      swap1\n      pop\n      pop\n      jump(tag_27)\n    tag_26:\n      mload(0x40)\n      dup1\n      dup3\n      dup2\n      mstore\n      0x20\n      add\n      swap2\n      pop\n      pop\n      mload(0x40)\n      dup1\n      swap2\n      sub\n      swap1\n      return\n        /* \"Learning Contrats v0.4.0/CourseraProject/Pgu7q1LYEeiDhgqYR-Lxvg_3e270bc052d811e8905939ab43f94f38_Auction.sol\":1581:2161  function register() public payable{... */\n    tag_10:\n        /* \"Learning Contrats v0.4.0/CourseraProject/Pgu7q1LYEeiDhgqYR-Lxvg_3e270bc052d811e8905939ab43f94f38_Auction.sol\":1675:1686  bidderCount */\n      sload(0x17)\n        /* \"Learning Contrats v0.4.0/CourseraProject/Pgu7q1LYEeiDhgqYR-Lxvg_3e270bc052d811e8905939ab43f94f38_Auction.sol\":1643:1650  bidders */\n      0x1\n        /* \"Learning Contrats v0.4.0/CourseraProject/Pgu7q1LYEeiDhgqYR-Lxvg_3e270bc052d811e8905939ab43f94f38_Auction.sol\":1651:1662  bidderCount */\n      sload(0x17)\n        /* \"Learning Contrats v0.4.0/CourseraProject/Pgu7q1LYEeiDhgqYR-Lxvg_3e270bc052d811e8905939ab43f94f38_Auction.sol\":1643:1663  bidders[bidderCount] */\n      0x4\n      dup2\n      lt\n      iszero\n      iszero\n      tag_29\n      jumpi\n      invalid\n    tag_29:\n      0x3\n      mul\n      add\n        /* \"Learning Contrats v0.4.0/CourseraProject/Pgu7q1LYEeiDhgqYR-Lxvg_3e270bc052d811e8905939ab43f94f38_Auction.sol\":1643:1672  bidders[bidderCount].personId */\n      0x1\n      add\n        /* \"Learning Contrats v0.4.0/CourseraProject/Pgu7q1LYEeiDhgqYR-Lxvg_3e270bc052d811e8905939ab43f94f38_Auction.sol\":1643:1686  bidders[bidderCount].personId = bidderCount */\n      dup2\n      swap1\n      sstore\n      pop\n        /* \"Learning Contrats v0.4.0/CourseraProject/Pgu7q1LYEeiDhgqYR-Lxvg_3e270bc052d811e8905939ab43f94f38_Auction.sol\":1959:1969  msg.sender */\n      caller\n        /* \"Learning Contrats v0.4.0/CourseraProject/Pgu7q1LYEeiDhgqYR-Lxvg_3e270bc052d811e8905939ab43f94f38_Auction.sol\":1933:1940  bidders */\n      0x1\n        /* \"Learning Contrats v0.4.0/CourseraProject/Pgu7q1LYEeiDhgqYR-Lxvg_3e270bc052d811e8905939ab43f94f38_Auction.sol\":1941:1952  bidderCount */\n      sload(0x17)\n        /* \"Learning Contrats v0.4.0/CourseraProject/Pgu7q1LYEeiDhgqYR-Lxvg_3e270bc052d811e8905939ab43f94f38_Auction.sol\":1933:1953  bidders[bidderCount] */\n      0x4\n      dup2\n      lt\n      iszero\n      iszero\n      tag_31\n      jumpi\n      invalid\n    tag_31:\n      0x3\n      mul\n      add\n        /* \"Learning Contrats v0.4.0/CourseraProject/Pgu7q1LYEeiDhgqYR-Lxvg_3e270bc052d811e8905939ab43f94f38_Auction.sol\":1933:1958  bidders[bidderCount].addr */\n      0x2\n      add\n      0x0\n        /* \"Learning Contrats v0.4.0/CourseraProject/Pgu7q1LYEeiDhgqYR-Lxvg_3e270bc052d811e8905939ab43f94f38_Auction.sol\":1933:1969  bidders[bidderCount].addr=msg.sender */\n      0x100\n      exp\n      dup2\n      sload\n      dup2\n      0xffffffffffffffffffffffffffffffffffffffff\n      mul\n      not\n      and\n      swap1\n      dup4\n      0xffffffffffffffffffffffffffffffffffffffff\n      and\n      mul\n      or\n      swap1\n      sstore\n      pop\n        /* \"Learning Contrats v0.4.0/CourseraProject/Pgu7q1LYEeiDhgqYR-Lxvg_3e270bc052d811e8905939ab43f94f38_Auction.sol\":2058:2059  5 */\n      0x5\n        /* \"Learning Contrats v0.4.0/CourseraProject/Pgu7q1LYEeiDhgqYR-Lxvg_3e270bc052d811e8905939ab43f94f38_Auction.sol\":2019:2026  bidders */\n      0x1\n        /* \"Learning Contrats v0.4.0/CourseraProject/Pgu7q1LYEeiDhgqYR-Lxvg_3e270bc052d811e8905939ab43f94f38_Auction.sol\":2027:2038  bidderCount */\n      sload(0x17)\n        /* \"Learning Contrats v0.4.0/CourseraProject/Pgu7q1LYEeiDhgqYR-Lxvg_3e270bc052d811e8905939ab43f94f38_Auction.sol\":2019:2039  bidders[bidderCount] */\n      0x4\n      dup2\n      lt\n      iszero\n      iszero\n      tag_33\n      jumpi\n      invalid\n    tag_33:\n      0x3\n      mul\n      add\n        /* \"Learning Contrats v0.4.0/CourseraProject/Pgu7q1LYEeiDhgqYR-Lxvg_3e270bc052d811e8905939ab43f94f38_Auction.sol\":2019:2055  bidders[bidderCount].remainingTokens */\n      0x0\n      add\n        /* \"Learning Contrats v0.4.0/CourseraProject/Pgu7q1LYEeiDhgqYR-Lxvg_3e270bc052d811e8905939ab43f94f38_Auction.sol\":2019:2059  bidders[bidderCount].remainingTokens = 5 */\n      dup2\n      swap1\n      sstore\n      pop\n        /* \"Learning Contrats v0.4.0/CourseraProject/Pgu7q1LYEeiDhgqYR-Lxvg_3e270bc052d811e8905939ab43f94f38_Auction.sol\":2111:2118  bidders */\n      0x1\n        /* \"Learning Contrats v0.4.0/CourseraProject/Pgu7q1LYEeiDhgqYR-Lxvg_3e270bc052d811e8905939ab43f94f38_Auction.sol\":2119:2130  bidderCount */\n      sload(0x17)\n        /* \"Learning Contrats v0.4.0/CourseraProject/Pgu7q1LYEeiDhgqYR-Lxvg_3e270bc052d811e8905939ab43f94f38_Auction.sol\":2111:2131  bidders[bidderCount] */\n      0x4\n      dup2\n      lt\n      iszero\n      iszero\n      tag_35\n      jumpi\n      invalid\n    tag_35:\n      0x3\n      mul\n      add\n        /* \"Learning Contrats v0.4.0/CourseraProject/Pgu7q1LYEeiDhgqYR-Lxvg_3e270bc052d811e8905939ab43f94f38_Auction.sol\":2086:2098  tokenDetails */\n      0x0\n        /* \"Learning Contrats v0.4.0/CourseraProject/Pgu7q1LYEeiDhgqYR-Lxvg_3e270bc052d811e8905939ab43f94f38_Auction.sol\":2086:2110  tokenDetails[msg.sender] */\n      dup1\n        /* \"Learning Contrats v0.4.0/CourseraProject/Pgu7q1LYEeiDhgqYR-Lxvg_3e270bc052d811e8905939ab43f94f38_Auction.sol\":2099:2109  msg.sender */\n      caller\n        /* \"Learning Contrats v0.4.0/CourseraProject/Pgu7q1LYEeiDhgqYR-Lxvg_3e270bc052d811e8905939ab43f94f38_Auction.sol\":2086:2110  tokenDetails[msg.sender] */\n      0xffffffffffffffffffffffffffffffffffffffff\n      and\n      0xffffffffffffffffffffffffffffffffffffffff\n      and\n      dup2\n      mstore\n      0x20\n      add\n      swap1\n      dup2\n      mstore\n      0x20\n      add\n      0x0\n      keccak256\n        /* \"Learning Contrats v0.4.0/CourseraProject/Pgu7q1LYEeiDhgqYR-Lxvg_3e270bc052d811e8905939ab43f94f38_Auction.sol\":2086:2131  tokenDetails[msg.sender]=bidders[bidderCount] */\n      0x0\n      dup3\n      add\n      sload\n      dup2\n      0x0\n      add\n      sstore\n      0x1\n      dup3\n      add\n      sload\n      dup2\n      0x1\n      add\n      sstore\n      0x2\n      dup3\n      add\n      0x0\n      swap1\n      sload\n      swap1\n      0x100\n      exp\n      swap1\n      div\n      0xffffffffffffffffffffffffffffffffffffffff\n      and\n      dup2\n      0x2\n      add\n      exp(0x100, 0x0)\n      dup2\n      sload\n      dup2\n      0xffffffffffffffffffffffffffffffffffffffff\n      mul\n      not\n      and\n      swap1\n      dup4\n      0xffffffffffffffffffffffffffffffffffffffff\n      and\n      mul\n      or\n      swap1\n      sstore\n      pop\n      swap1\n      pop\n      pop\n        /* \"Learning Contrats v0.4.0/CourseraProject/Pgu7q1LYEeiDhgqYR-Lxvg_3e270bc052d811e8905939ab43f94f38_Auction.sol\":2141:2152  bidderCount */\n      0x17\n      0x0\n        /* \"Learning Contrats v0.4.0/CourseraProject/Pgu7q1LYEeiDhgqYR-Lxvg_3e270bc052d811e8905939ab43f94f38_Auction.sol\":2141:2154  bidderCount++ */\n      dup2\n      sload\n      dup1\n      swap3\n      swap2\n      swap1\n      0x1\n      add\n      swap2\n      swap1\n      pop\n      sstore\n      pop\n        /* \"Learning Contrats v0.4.0/CourseraProject/Pgu7q1LYEeiDhgqYR-Lxvg_3e270bc052d811e8905939ab43f94f38_Auction.sol\":1581:2161  function register() public payable{... */\n      jump\t// out\n        /* \"Learning Contrats v0.4.0/CourseraProject/Pgu7q1LYEeiDhgqYR-Lxvg_3e270bc052d811e8905939ab43f94f38_Auction.sol\":736:762  address public beneficiary */\n    tag_13:\n      0x16\n      0x0\n      swap1\n      sload\n      swap1\n      0x100\n      exp\n      swap1\n      div\n      0xffffffffffffffffffffffffffffffffffffffff\n      and\n      dup2\n      jump\t// out\n        /* \"Learning Contrats v0.4.0/CourseraProject/Pgu7q1LYEeiDhgqYR-Lxvg_3e270bc052d811e8905939ab43f94f38_Auction.sol\":2171:3934  function bid(uint _itemId, uint _count) public payable{... */\n    tag_15:\n        /* \"Learning Contrats v0.4.0/CourseraProject/Pgu7q1LYEeiDhgqYR-Lxvg_3e270bc052d811e8905939ab43f94f38_Auction.sol\":3467:3479  uint balance */\n      0x0\n        /* \"Learning Contrats v0.4.0/CourseraProject/Pgu7q1LYEeiDhgqYR-Lxvg_3e270bc052d811e8905939ab43f94f38_Auction.sol\":3766:3786  Item storage bidItem */\n      dup1\n        /* \"Learning Contrats v0.4.0/CourseraProject/Pgu7q1LYEeiDhgqYR-Lxvg_3e270bc052d811e8905939ab43f94f38_Auction.sol\":3817:3823  uint i */\n      0x0\n        /* \"Learning Contrats v0.4.0/CourseraProject/Pgu7q1LYEeiDhgqYR-Lxvg_3e270bc052d811e8905939ab43f94f38_Auction.sol\":3034:3040  _count */\n      dup4\n        /* \"Learning Contrats v0.4.0/CourseraProject/Pgu7q1LYEeiDhgqYR-Lxvg_3e270bc052d811e8905939ab43f94f38_Auction.sol\":2991:3003  tokenDetails */\n      0x0\n        /* \"Learning Contrats v0.4.0/CourseraProject/Pgu7q1LYEeiDhgqYR-Lxvg_3e270bc052d811e8905939ab43f94f38_Auction.sol\":2991:3015  tokenDetails[msg.sender] */\n      dup1\n        /* \"Learning Contrats v0.4.0/CourseraProject/Pgu7q1LYEeiDhgqYR-Lxvg_3e270bc052d811e8905939ab43f94f38_Auction.sol\":3004:3014  msg.sender */\n      caller\n        /* \"Learning Contrats v0.4.0/CourseraProject/Pgu7q1LYEeiDhgqYR-Lxvg_3e270bc052d811e8905939ab43f94f38_Auction.sol\":2991:3015  tokenDetails[msg.sender] */\n      0xffffffffffffffffffffffffffffffffffffffff\n      and\n      0xffffffffffffffffffffffffffffffffffffffff\n      and\n      dup2\n      mstore\n      0x20\n      add\n      swap1\n      dup2\n      mstore\n      0x20\n      add\n      0x0\n      keccak256\n        /* \"Learning Contrats v0.4.0/CourseraProject/Pgu7q1LYEeiDhgqYR-Lxvg_3e270bc052d811e8905939ab43f94f38_Auction.sol\":2991:3031  tokenDetails[msg.sender].remainingTokens */\n      0x0\n      add\n      sload\n        /* \"Learning Contrats v0.4.0/CourseraProject/Pgu7q1LYEeiDhgqYR-Lxvg_3e270bc052d811e8905939ab43f94f38_Auction.sol\":2991:3040  tokenDetails[msg.sender].remainingTokens < _count */\n      lt\n        /* \"Learning Contrats v0.4.0/CourseraProject/Pgu7q1LYEeiDhgqYR-Lxvg_3e270bc052d811e8905939ab43f94f38_Auction.sol\":2990:3093  (tokenDetails[msg.sender].remainingTokens < _count) || (tokenDetails[msg.sender].remainingTokens == 0 ) */\n      dup1\n      tag_38\n      jumpi\n      pop\n        /* \"Learning Contrats v0.4.0/CourseraProject/Pgu7q1LYEeiDhgqYR-Lxvg_3e270bc052d811e8905939ab43f94f38_Auction.sol\":3090:3091  0 */\n      0x0\n        /* \"Learning Contrats v0.4.0/CourseraProject/Pgu7q1LYEeiDhgqYR-Lxvg_3e270bc052d811e8905939ab43f94f38_Auction.sol\":3046:3058  tokenDetails */\n      dup1\n        /* \"Learning Contrats v0.4.0/CourseraProject/Pgu7q1LYEeiDhgqYR-Lxvg_3e270bc052d811e8905939ab43f94f38_Auction.sol\":3046:3070  tokenDetails[msg.sender] */\n      0x0\n        /* \"Learning Contrats v0.4.0/CourseraProject/Pgu7q1LYEeiDhgqYR-Lxvg_3e270bc052d811e8905939ab43f94f38_Auction.sol\":3059:3069  msg.sender */\n      caller\n        /* \"Learning Contrats v0.4.0/CourseraProject/Pgu7q1LYEeiDhgqYR-Lxvg_3e270bc052d811e8905939ab43f94f38_Auction.sol\":3046:3070  tokenDetails[msg.sender] */\n      0xffffffffffffffffffffffffffffffffffffffff\n      and\n      0xffffffffffffffffffffffffffffffffffffffff\n      and\n      dup2\n      mstore\n      0x20\n      add\n      swap1\n      dup2\n      mstore\n      0x20\n      add\n      0x0\n      keccak256\n        /* \"Learning Contrats v0.4.0/CourseraProject/Pgu7q1LYEeiDhgqYR-Lxvg_3e270bc052d811e8905939ab43f94f38_Auction.sol\":3046:3086  tokenDetails[msg.sender].remainingTokens */\n      0x0\n      add\n      sload\n        /* \"Learning Contrats v0.4.0/CourseraProject/Pgu7q1LYEeiDhgqYR-Lxvg_3e270bc052d811e8905939ab43f94f38_Auction.sol\":3046:3091  tokenDetails[msg.sender].remainingTokens == 0 */\n      eq\n        /* \"Learning Contrats v0.4.0/CourseraProject/Pgu7q1LYEeiDhgqYR-Lxvg_3e270bc052d811e8905939ab43f94f38_Auction.sol\":2990:3093  (tokenDetails[msg.sender].remainingTokens < _count) || (tokenDetails[msg.sender].remainingTokens == 0 ) */\n    tag_38:\n        /* \"Learning Contrats v0.4.0/CourseraProject/Pgu7q1LYEeiDhgqYR-Lxvg_3e270bc052d811e8905939ab43f94f38_Auction.sol\":2990:3110  (tokenDetails[msg.sender].remainingTokens < _count) || (tokenDetails[msg.sender].remainingTokens == 0 ) || (_itemId > 2) */\n      dup1\n      tag_39\n      jumpi\n      pop\n        /* \"Learning Contrats v0.4.0/CourseraProject/Pgu7q1LYEeiDhgqYR-Lxvg_3e270bc052d811e8905939ab43f94f38_Auction.sol\":3108:3109  2 */\n      0x2\n        /* \"Learning Contrats v0.4.0/CourseraProject/Pgu7q1LYEeiDhgqYR-Lxvg_3e270bc052d811e8905939ab43f94f38_Auction.sol\":3098:3105  _itemId */\n      dup6\n        /* \"Learning Contrats v0.4.0/CourseraProject/Pgu7q1LYEeiDhgqYR-Lxvg_3e270bc052d811e8905939ab43f94f38_Auction.sol\":3098:3109  _itemId > 2 */\n      gt\n        /* \"Learning Contrats v0.4.0/CourseraProject/Pgu7q1LYEeiDhgqYR-Lxvg_3e270bc052d811e8905939ab43f94f38_Auction.sol\":2990:3110  (tokenDetails[msg.sender].remainingTokens < _count) || (tokenDetails[msg.sender].remainingTokens == 0 ) || (_itemId > 2) */\n    tag_39:\n        /* \"Learning Contrats v0.4.0/CourseraProject/Pgu7q1LYEeiDhgqYR-Lxvg_3e270bc052d811e8905939ab43f94f38_Auction.sol\":2987:3140  if((tokenDetails[msg.sender].remainingTokens < _count) || (tokenDetails[msg.sender].remainingTokens == 0 ) || (_itemId > 2)){... */\n      iszero\n      tag_40\n      jumpi\n        /* \"Learning Contrats v0.4.0/CourseraProject/Pgu7q1LYEeiDhgqYR-Lxvg_3e270bc052d811e8905939ab43f94f38_Auction.sol\":3121:3129  revert() */\n      0x0\n      dup1\n      revert\n        /* \"Learning Contrats v0.4.0/CourseraProject/Pgu7q1LYEeiDhgqYR-Lxvg_3e270bc052d811e8905939ab43f94f38_Auction.sol\":2987:3140  if((tokenDetails[msg.sender].remainingTokens < _count) || (tokenDetails[msg.sender].remainingTokens == 0 ) || (_itemId > 2)){... */\n    tag_40:\n        /* \"Learning Contrats v0.4.0/CourseraProject/Pgu7q1LYEeiDhgqYR-Lxvg_3e270bc052d811e8905939ab43f94f38_Auction.sol\":3524:3530  _count */\n      dup4\n        /* \"Learning Contrats v0.4.0/CourseraProject/Pgu7q1LYEeiDhgqYR-Lxvg_3e270bc052d811e8905939ab43f94f38_Auction.sol\":3481:3493  tokenDetails */\n      0x0\n        /* \"Learning Contrats v0.4.0/CourseraProject/Pgu7q1LYEeiDhgqYR-Lxvg_3e270bc052d811e8905939ab43f94f38_Auction.sol\":3481:3505  tokenDetails[msg.sender] */\n      dup1\n        /* \"Learning Contrats v0.4.0/CourseraProject/Pgu7q1LYEeiDhgqYR-Lxvg_3e270bc052d811e8905939ab43f94f38_Auction.sol\":3494:3504  msg.sender */\n      caller\n        /* \"Learning Contrats v0.4.0/CourseraProject/Pgu7q1LYEeiDhgqYR-Lxvg_3e270bc052d811e8905939ab43f94f38_Auction.sol\":3481:3505  tokenDetails[msg.sender] */\n      0xffffffffffffffffffffffffffffffffffffffff\n      and\n      0xffffffffffffffffffffffffffffffffffffffff\n      and\n      dup2\n      mstore\n      0x20\n      add\n      swap1\n      dup2\n      mstore\n      0x20\n      add\n      0x0\n      keccak256\n        /* \"Learning Contrats v0.4.0/CourseraProject/Pgu7q1LYEeiDhgqYR-Lxvg_3e270bc052d811e8905939ab43f94f38_Auction.sol\":3481:3521  tokenDetails[msg.sender].remainingTokens */\n      0x0\n      add\n      sload\n        /* \"Learning Contrats v0.4.0/CourseraProject/Pgu7q1LYEeiDhgqYR-Lxvg_3e270bc052d811e8905939ab43f94f38_Auction.sol\":3481:3530  tokenDetails[msg.sender].remainingTokens - _count */\n      sub\n        /* \"Learning Contrats v0.4.0/CourseraProject/Pgu7q1LYEeiDhgqYR-Lxvg_3e270bc052d811e8905939ab43f94f38_Auction.sol\":3467:3530  uint balance= tokenDetails[msg.sender].remainingTokens - _count */\n      swap3\n      pop\n        /* \"Learning Contrats v0.4.0/CourseraProject/Pgu7q1LYEeiDhgqYR-Lxvg_3e270bc052d811e8905939ab43f94f38_Auction.sol\":3621:3628  balance */\n      dup3\n        /* \"Learning Contrats v0.4.0/CourseraProject/Pgu7q1LYEeiDhgqYR-Lxvg_3e270bc052d811e8905939ab43f94f38_Auction.sol\":3580:3592  tokenDetails */\n      0x0\n        /* \"Learning Contrats v0.4.0/CourseraProject/Pgu7q1LYEeiDhgqYR-Lxvg_3e270bc052d811e8905939ab43f94f38_Auction.sol\":3580:3604  tokenDetails[msg.sender] */\n      dup1\n        /* \"Learning Contrats v0.4.0/CourseraProject/Pgu7q1LYEeiDhgqYR-Lxvg_3e270bc052d811e8905939ab43f94f38_Auction.sol\":3593:3603  msg.sender */\n      caller\n        /* \"Learning Contrats v0.4.0/CourseraProject/Pgu7q1LYEeiDhgqYR-Lxvg_3e270bc052d811e8905939ab43f94f38_Auction.sol\":3580:3604  tokenDetails[msg.sender] */\n      0xffffffffffffffffffffffffffffffffffffffff\n      and\n      0xffffffffffffffffffffffffffffffffffffffff\n      and\n      dup2\n      mstore\n      0x20\n      add\n      swap1\n      dup2\n      mstore\n      0x20\n      add\n      0x0\n      keccak256\n        /* \"Learning Contrats v0.4.0/CourseraProject/Pgu7q1LYEeiDhgqYR-Lxvg_3e270bc052d811e8905939ab43f94f38_Auction.sol\":3580:3620  tokenDetails[msg.sender].remainingTokens */\n      0x0\n      add\n        /* \"Learning Contrats v0.4.0/CourseraProject/Pgu7q1LYEeiDhgqYR-Lxvg_3e270bc052d811e8905939ab43f94f38_Auction.sol\":3580:3628  tokenDetails[msg.sender].remainingTokens=balance */\n      dup2\n      swap1\n      sstore\n      pop\n        /* \"Learning Contrats v0.4.0/CourseraProject/Pgu7q1LYEeiDhgqYR-Lxvg_3e270bc052d811e8905939ab43f94f38_Auction.sol\":3697:3704  balance */\n      dup3\n        /* \"Learning Contrats v0.4.0/CourseraProject/Pgu7q1LYEeiDhgqYR-Lxvg_3e270bc052d811e8905939ab43f94f38_Auction.sol\":3638:3645  bidders */\n      0x1\n        /* \"Learning Contrats v0.4.0/CourseraProject/Pgu7q1LYEeiDhgqYR-Lxvg_3e270bc052d811e8905939ab43f94f38_Auction.sol\":3646:3658  tokenDetails */\n      0x0\n        /* \"Learning Contrats v0.4.0/CourseraProject/Pgu7q1LYEeiDhgqYR-Lxvg_3e270bc052d811e8905939ab43f94f38_Auction.sol\":3646:3670  tokenDetails[msg.sender] */\n      dup1\n        /* \"Learning Contrats v0.4.0/CourseraProject/Pgu7q1LYEeiDhgqYR-Lxvg_3e270bc052d811e8905939ab43f94f38_Auction.sol\":3659:3669  msg.sender */\n      caller\n        /* \"Learning Contrats v0.4.0/CourseraProject/Pgu7q1LYEeiDhgqYR-Lxvg_3e270bc052d811e8905939ab43f94f38_Auction.sol\":3646:3670  tokenDetails[msg.sender] */\n      0xffffffffffffffffffffffffffffffffffffffff\n      and\n      0xffffffffffffffffffffffffffffffffffffffff\n      and\n      dup2\n      mstore\n      0x20\n      add\n      swap1\n      dup2\n      mstore\n      0x20\n      add\n      0x0\n      keccak256\n        /* \"Learning Contrats v0.4.0/CourseraProject/Pgu7q1LYEeiDhgqYR-Lxvg_3e270bc052d811e8905939ab43f94f38_Auction.sol\":3646:3679  tokenDetails[msg.sender].personId */\n      0x1\n      add\n      sload\n        /* \"Learning Contrats v0.4.0/CourseraProject/Pgu7q1LYEeiDhgqYR-Lxvg_3e270bc052d811e8905939ab43f94f38_Auction.sol\":3638:3680  bidders[tokenDetails[msg.sender].personId] */\n      0x4\n      dup2\n      lt\n      iszero\n      iszero\n      tag_41\n      jumpi\n      invalid\n    tag_41:\n      0x3\n      mul\n      add\n        /* \"Learning Contrats v0.4.0/CourseraProject/Pgu7q1LYEeiDhgqYR-Lxvg_3e270bc052d811e8905939ab43f94f38_Auction.sol\":3638:3696  bidders[tokenDetails[msg.sender].personId].remainingTokens */\n      0x0\n      add\n        /* \"Learning Contrats v0.4.0/CourseraProject/Pgu7q1LYEeiDhgqYR-Lxvg_3e270bc052d811e8905939ab43f94f38_Auction.sol\":3638:3704  bidders[tokenDetails[msg.sender].personId].remainingTokens=balance */\n      dup2\n      swap1\n      sstore\n      pop\n        /* \"Learning Contrats v0.4.0/CourseraProject/Pgu7q1LYEeiDhgqYR-Lxvg_3e270bc052d811e8905939ab43f94f38_Auction.sol\":3789:3794  items */\n      0xd\n        /* \"Learning Contrats v0.4.0/CourseraProject/Pgu7q1LYEeiDhgqYR-Lxvg_3e270bc052d811e8905939ab43f94f38_Auction.sol\":3795:3802  _itemId */\n      dup6\n        /* \"Learning Contrats v0.4.0/CourseraProject/Pgu7q1LYEeiDhgqYR-Lxvg_3e270bc052d811e8905939ab43f94f38_Auction.sol\":3789:3803  items[_itemId] */\n      0x3\n      dup2\n      lt\n      iszero\n      iszero\n      tag_43\n      jumpi\n      invalid\n    tag_43:\n      0x2\n      mul\n      add\n        /* \"Learning Contrats v0.4.0/CourseraProject/Pgu7q1LYEeiDhgqYR-Lxvg_3e270bc052d811e8905939ab43f94f38_Auction.sol\":3766:3803  Item storage bidItem = items[_itemId] */\n      swap2\n      pop\n        /* \"Learning Contrats v0.4.0/CourseraProject/Pgu7q1LYEeiDhgqYR-Lxvg_3e270bc052d811e8905939ab43f94f38_Auction.sol\":3824:3825  0 */\n      0x0\n        /* \"Learning Contrats v0.4.0/CourseraProject/Pgu7q1LYEeiDhgqYR-Lxvg_3e270bc052d811e8905939ab43f94f38_Auction.sol\":3817:3825  uint i=0 */\n      swap1\n      pop\n        /* \"Learning Contrats v0.4.0/CourseraProject/Pgu7q1LYEeiDhgqYR-Lxvg_3e270bc052d811e8905939ab43f94f38_Auction.sol\":3813:3928  for(uint i=0; i<_count;i++) {... */\n    tag_45:\n        /* \"Learning Contrats v0.4.0/CourseraProject/Pgu7q1LYEeiDhgqYR-Lxvg_3e270bc052d811e8905939ab43f94f38_Auction.sol\":3829:3835  _count */\n      dup4\n        /* \"Learning Contrats v0.4.0/CourseraProject/Pgu7q1LYEeiDhgqYR-Lxvg_3e270bc052d811e8905939ab43f94f38_Auction.sol\":3827:3828  i */\n      dup2\n        /* \"Learning Contrats v0.4.0/CourseraProject/Pgu7q1LYEeiDhgqYR-Lxvg_3e270bc052d811e8905939ab43f94f38_Auction.sol\":3827:3835  i<_count */\n      lt\n        /* \"Learning Contrats v0.4.0/CourseraProject/Pgu7q1LYEeiDhgqYR-Lxvg_3e270bc052d811e8905939ab43f94f38_Auction.sol\":3813:3928  for(uint i=0; i<_count;i++) {... */\n      iszero\n      tag_46\n      jumpi\n        /* \"Learning Contrats v0.4.0/CourseraProject/Pgu7q1LYEeiDhgqYR-Lxvg_3e270bc052d811e8905939ab43f94f38_Auction.sol\":3855:3862  bidItem */\n      dup2\n        /* \"Learning Contrats v0.4.0/CourseraProject/Pgu7q1LYEeiDhgqYR-Lxvg_3e270bc052d811e8905939ab43f94f38_Auction.sol\":3855:3873  bidItem.itemTokens */\n      0x1\n      add\n        /* \"Learning Contrats v0.4.0/CourseraProject/Pgu7q1LYEeiDhgqYR-Lxvg_3e270bc052d811e8905939ab43f94f38_Auction.sol\":3855:3913  bidItem.itemTokens.push(tokenDetails[msg.sender].personId) */\n      dup1\n      sload\n      dup1\n      0x1\n      add\n      dup3\n      dup2\n      tag_48\n      swap2\n      swap1\n      jump\t// in(tag_49)\n    tag_48:\n      swap2\n      0x0\n      mstore\n      keccak256(0x0, 0x20)\n      swap1\n      add\n      0x0\n        /* \"Learning Contrats v0.4.0/CourseraProject/Pgu7q1LYEeiDhgqYR-Lxvg_3e270bc052d811e8905939ab43f94f38_Auction.sol\":3879:3891  tokenDetails */\n      dup1\n        /* \"Learning Contrats v0.4.0/CourseraProject/Pgu7q1LYEeiDhgqYR-Lxvg_3e270bc052d811e8905939ab43f94f38_Auction.sol\":3879:3903  tokenDetails[msg.sender] */\n      0x0\n        /* \"Learning Contrats v0.4.0/CourseraProject/Pgu7q1LYEeiDhgqYR-Lxvg_3e270bc052d811e8905939ab43f94f38_Auction.sol\":3892:3902  msg.sender */\n      caller\n        /* \"Learning Contrats v0.4.0/CourseraProject/Pgu7q1LYEeiDhgqYR-Lxvg_3e270bc052d811e8905939ab43f94f38_Auction.sol\":3879:3903  tokenDetails[msg.sender] */\n      0xffffffffffffffffffffffffffffffffffffffff\n      and\n      0xffffffffffffffffffffffffffffffffffffffff\n      and\n      dup2\n      mstore\n      0x20\n      add\n      swap1\n      dup2\n      mstore\n      0x20\n      add\n      0x0\n      keccak256\n        /* \"Learning Contrats v0.4.0/CourseraProject/Pgu7q1LYEeiDhgqYR-Lxvg_3e270bc052d811e8905939ab43f94f38_Auction.sol\":3879:3912  tokenDetails[msg.sender].personId */\n      0x1\n      add\n      sload\n        /* \"Learning Contrats v0.4.0/CourseraProject/Pgu7q1LYEeiDhgqYR-Lxvg_3e270bc052d811e8905939ab43f94f38_Auction.sol\":3855:3913  bidItem.itemTokens.push(tokenDetails[msg.sender].personId) */\n      swap1\n      swap2\n      swap1\n      swap2\n      pop\n      sstore\n      pop\n        /* \"Learning Contrats v0.4.0/CourseraProject/Pgu7q1LYEeiDhgqYR-Lxvg_3e270bc052d811e8905939ab43f94f38_Auction.sol\":3836:3839  i++ */\n      dup1\n      dup1\n      0x1\n      add\n      swap2\n      pop\n      pop\n        /* \"Learning Contrats v0.4.0/CourseraProject/Pgu7q1LYEeiDhgqYR-Lxvg_3e270bc052d811e8905939ab43f94f38_Auction.sol\":3813:3928  for(uint i=0; i<_count;i++) {... */\n      jump(tag_45)\n    tag_46:\n        /* \"Learning Contrats v0.4.0/CourseraProject/Pgu7q1LYEeiDhgqYR-Lxvg_3e270bc052d811e8905939ab43f94f38_Auction.sol\":2171:3934  function bid(uint _itemId, uint _count) public payable{... */\n      pop\n      pop\n      pop\n      pop\n      pop\n      jump\t// out\n        /* \"Learning Contrats v0.4.0/CourseraProject/Pgu7q1LYEeiDhgqYR-Lxvg_3e270bc052d811e8905939ab43f94f38_Auction.sol\":5504:5672  function getPersonDetails(uint id) public constant returns(uint,uint,address){... */\n    tag_18:\n        /* \"Learning Contrats v0.4.0/CourseraProject/Pgu7q1LYEeiDhgqYR-Lxvg_3e270bc052d811e8905939ab43f94f38_Auction.sol\":5563:5567  uint */\n      0x0\n        /* \"Learning Contrats v0.4.0/CourseraProject/Pgu7q1LYEeiDhgqYR-Lxvg_3e270bc052d811e8905939ab43f94f38_Auction.sol\":5568:5572  uint */\n      dup1\n        /* \"Learning Contrats v0.4.0/CourseraProject/Pgu7q1LYEeiDhgqYR-Lxvg_3e270bc052d811e8905939ab43f94f38_Auction.sol\":5573:5580  address */\n      0x0\n        /* \"Learning Contrats v0.4.0/CourseraProject/Pgu7q1LYEeiDhgqYR-Lxvg_3e270bc052d811e8905939ab43f94f38_Auction.sol\":5599:5606  bidders */\n      0x1\n        /* \"Learning Contrats v0.4.0/CourseraProject/Pgu7q1LYEeiDhgqYR-Lxvg_3e270bc052d811e8905939ab43f94f38_Auction.sol\":5607:5609  id */\n      dup5\n        /* \"Learning Contrats v0.4.0/CourseraProject/Pgu7q1LYEeiDhgqYR-Lxvg_3e270bc052d811e8905939ab43f94f38_Auction.sol\":5599:5610  bidders[id] */\n      0x4\n      dup2\n      lt\n      iszero\n      iszero\n      tag_52\n      jumpi\n      invalid\n    tag_52:\n      0x3\n      mul\n      add\n        /* \"Learning Contrats v0.4.0/CourseraProject/Pgu7q1LYEeiDhgqYR-Lxvg_3e270bc052d811e8905939ab43f94f38_Auction.sol\":5599:5626  bidders[id].remainingTokens */\n      0x0\n      add\n      sload\n        /* \"Learning Contrats v0.4.0/CourseraProject/Pgu7q1LYEeiDhgqYR-Lxvg_3e270bc052d811e8905939ab43f94f38_Auction.sol\":5627:5634  bidders */\n      0x1\n        /* \"Learning Contrats v0.4.0/CourseraProject/Pgu7q1LYEeiDhgqYR-Lxvg_3e270bc052d811e8905939ab43f94f38_Auction.sol\":5635:5637  id */\n      dup6\n        /* \"Learning Contrats v0.4.0/CourseraProject/Pgu7q1LYEeiDhgqYR-Lxvg_3e270bc052d811e8905939ab43f94f38_Auction.sol\":5627:5638  bidders[id] */\n      0x4\n      dup2\n      lt\n      iszero\n      iszero\n      tag_54\n      jumpi\n      invalid\n    tag_54:\n      0x3\n      mul\n      add\n        /* \"Learning Contrats v0.4.0/CourseraProject/Pgu7q1LYEeiDhgqYR-Lxvg_3e270bc052d811e8905939ab43f94f38_Auction.sol\":5627:5647  bidders[id].personId */\n      0x1\n      add\n      sload\n        /* \"Learning Contrats v0.4.0/CourseraProject/Pgu7q1LYEeiDhgqYR-Lxvg_3e270bc052d811e8905939ab43f94f38_Auction.sol\":5648:5655  bidders */\n      0x1\n        /* \"Learning Contrats v0.4.0/CourseraProject/Pgu7q1LYEeiDhgqYR-Lxvg_3e270bc052d811e8905939ab43f94f38_Auction.sol\":5656:5658  id */\n      dup7\n        /* \"Learning Contrats v0.4.0/CourseraProject/Pgu7q1LYEeiDhgqYR-Lxvg_3e270bc052d811e8905939ab43f94f38_Auction.sol\":5648:5659  bidders[id] */\n      0x4\n      dup2\n      lt\n      iszero\n      iszero\n      tag_56\n      jumpi\n      invalid\n    tag_56:\n      0x3\n      mul\n      add\n        /* \"Learning Contrats v0.4.0/CourseraProject/Pgu7q1LYEeiDhgqYR-Lxvg_3e270bc052d811e8905939ab43f94f38_Auction.sol\":5648:5664  bidders[id].addr */\n      0x2\n      add\n      0x0\n      swap1\n      sload\n      swap1\n      0x100\n      exp\n      swap1\n      div\n      0xffffffffffffffffffffffffffffffffffffffff\n      and\n        /* \"Learning Contrats v0.4.0/CourseraProject/Pgu7q1LYEeiDhgqYR-Lxvg_3e270bc052d811e8905939ab43f94f38_Auction.sol\":5591:5665  return (bidders[id].remainingTokens,bidders[id].personId,bidders[id].addr) */\n      swap3\n      pop\n      swap3\n      pop\n      swap3\n      pop\n        /* \"Learning Contrats v0.4.0/CourseraProject/Pgu7q1LYEeiDhgqYR-Lxvg_3e270bc052d811e8905939ab43f94f38_Auction.sol\":5504:5672  function getPersonDetails(uint id) public constant returns(uint,uint,address){... */\n      swap2\n      swap4\n      swap1\n      swap3\n      pop\n      jump\t// out\n        /* \"Learning Contrats v0.4.0/CourseraProject/Pgu7q1LYEeiDhgqYR-Lxvg_3e270bc052d811e8905939ab43f94f38_Auction.sol\":4323:5402  function revealWinners() public onlyOwner{... */\n    tag_21:\n        /* \"Learning Contrats v0.4.0/CourseraProject/Pgu7q1LYEeiDhgqYR-Lxvg_3e270bc052d811e8905939ab43f94f38_Auction.sol\":4546:4553  uint id */\n      0x0\n        /* \"Learning Contrats v0.4.0/CourseraProject/Pgu7q1LYEeiDhgqYR-Lxvg_3e270bc052d811e8905939ab43f94f38_Auction.sol\":4587:4611  Item storage currentItem */\n      dup1\n        /* \"Learning Contrats v0.4.0/CourseraProject/Pgu7q1LYEeiDhgqYR-Lxvg_3e270bc052d811e8905939ab43f94f38_Auction.sol\":4738:4754  uint randomIndex */\n      0x0\n        /* \"Learning Contrats v0.4.0/CourseraProject/Pgu7q1LYEeiDhgqYR-Lxvg_3e270bc052d811e8905939ab43f94f38_Auction.sol\":4892:4905  uint winnerId */\n      dup1\n        /* \"Learning Contrats v0.4.0/CourseraProject/Pgu7q1LYEeiDhgqYR-Lxvg_3e270bc052d811e8905939ab43f94f38_Auction.sol\":4247:4258  beneficiary */\n      0x16\n      0x0\n      swap1\n      sload\n      swap1\n      0x100\n      exp\n      swap1\n      div\n      0xffffffffffffffffffffffffffffffffffffffff\n      and\n        /* \"Learning Contrats v0.4.0/CourseraProject/Pgu7q1LYEeiDhgqYR-Lxvg_3e270bc052d811e8905939ab43f94f38_Auction.sol\":4235:4258  msg.sender==beneficiary */\n      0xffffffffffffffffffffffffffffffffffffffff\n      and\n        /* \"Learning Contrats v0.4.0/CourseraProject/Pgu7q1LYEeiDhgqYR-Lxvg_3e270bc052d811e8905939ab43f94f38_Auction.sol\":4235:4245  msg.sender */\n      caller\n        /* \"Learning Contrats v0.4.0/CourseraProject/Pgu7q1LYEeiDhgqYR-Lxvg_3e270bc052d811e8905939ab43f94f38_Auction.sol\":4235:4258  msg.sender==beneficiary */\n      0xffffffffffffffffffffffffffffffffffffffff\n      and\n      eq\n        /* \"Learning Contrats v0.4.0/CourseraProject/Pgu7q1LYEeiDhgqYR-Lxvg_3e270bc052d811e8905939ab43f94f38_Auction.sol\":4227:4259  require(msg.sender==beneficiary) */\n      iszero\n      iszero\n      tag_59\n      jumpi\n      0x0\n      dup1\n      revert\n    tag_59:\n        /* \"Learning Contrats v0.4.0/CourseraProject/Pgu7q1LYEeiDhgqYR-Lxvg_3e270bc052d811e8905939ab43f94f38_Auction.sol\":4556:4557  0 */\n      0x0\n        /* \"Learning Contrats v0.4.0/CourseraProject/Pgu7q1LYEeiDhgqYR-Lxvg_3e270bc052d811e8905939ab43f94f38_Auction.sol\":4546:4557  uint id = 0 */\n      swap4\n      pop\n        /* \"Learning Contrats v0.4.0/CourseraProject/Pgu7q1LYEeiDhgqYR-Lxvg_3e270bc052d811e8905939ab43f94f38_Auction.sol\":4541:5396  for (uint id = 0; id < 3; id++) {... */\n    tag_61:\n        /* \"Learning Contrats v0.4.0/CourseraProject/Pgu7q1LYEeiDhgqYR-Lxvg_3e270bc052d811e8905939ab43f94f38_Auction.sol\":4564:4565  3 */\n      0x3\n        /* \"Learning Contrats v0.4.0/CourseraProject/Pgu7q1LYEeiDhgqYR-Lxvg_3e270bc052d811e8905939ab43f94f38_Auction.sol\":4559:4561  id */\n      dup5\n        /* \"Learning Contrats v0.4.0/CourseraProject/Pgu7q1LYEeiDhgqYR-Lxvg_3e270bc052d811e8905939ab43f94f38_Auction.sol\":4559:4565  id < 3 */\n      lt\n        /* \"Learning Contrats v0.4.0/CourseraProject/Pgu7q1LYEeiDhgqYR-Lxvg_3e270bc052d811e8905939ab43f94f38_Auction.sol\":4541:5396  for (uint id = 0; id < 3; id++) {... */\n      iszero\n      tag_62\n      jumpi\n        /* \"Learning Contrats v0.4.0/CourseraProject/Pgu7q1LYEeiDhgqYR-Lxvg_3e270bc052d811e8905939ab43f94f38_Auction.sol\":4612:4617  items */\n      0xd\n        /* \"Learning Contrats v0.4.0/CourseraProject/Pgu7q1LYEeiDhgqYR-Lxvg_3e270bc052d811e8905939ab43f94f38_Auction.sol\":4618:4620  id */\n      dup5\n        /* \"Learning Contrats v0.4.0/CourseraProject/Pgu7q1LYEeiDhgqYR-Lxvg_3e270bc052d811e8905939ab43f94f38_Auction.sol\":4612:4621  items[id] */\n      0x3\n      dup2\n      lt\n      iszero\n      iszero\n      tag_64\n      jumpi\n      invalid\n    tag_64:\n      0x2\n      mul\n      add\n        /* \"Learning Contrats v0.4.0/CourseraProject/Pgu7q1LYEeiDhgqYR-Lxvg_3e270bc052d811e8905939ab43f94f38_Auction.sol\":4587:4621  Item storage currentItem=items[id] */\n      swap3\n      pop\n        /* \"Learning Contrats v0.4.0/CourseraProject/Pgu7q1LYEeiDhgqYR-Lxvg_3e270bc052d811e8905939ab43f94f38_Auction.sol\":4671:4672  0 */\n      0x0\n        /* \"Learning Contrats v0.4.0/CourseraProject/Pgu7q1LYEeiDhgqYR-Lxvg_3e270bc052d811e8905939ab43f94f38_Auction.sol\":4638:4649  currentItem */\n      dup4\n        /* \"Learning Contrats v0.4.0/CourseraProject/Pgu7q1LYEeiDhgqYR-Lxvg_3e270bc052d811e8905939ab43f94f38_Auction.sol\":4638:4660  currentItem.itemTokens */\n      0x1\n      add\n        /* \"Learning Contrats v0.4.0/CourseraProject/Pgu7q1LYEeiDhgqYR-Lxvg_3e270bc052d811e8905939ab43f94f38_Auction.sol\":4638:4667  currentItem.itemTokens.length */\n      dup1\n      sload\n      swap1\n      pop\n        /* \"Learning Contrats v0.4.0/CourseraProject/Pgu7q1LYEeiDhgqYR-Lxvg_3e270bc052d811e8905939ab43f94f38_Auction.sol\":4638:4672  currentItem.itemTokens.length != 0 */\n      eq\n      iszero\n        /* \"Learning Contrats v0.4.0/CourseraProject/Pgu7q1LYEeiDhgqYR-Lxvg_3e270bc052d811e8905939ab43f94f38_Auction.sol\":4635:5386  if(currentItem.itemTokens.length != 0){... */\n      iszero\n      tag_66\n      jumpi\n        /* \"Learning Contrats v0.4.0/CourseraProject/Pgu7q1LYEeiDhgqYR-Lxvg_3e270bc052d811e8905939ab43f94f38_Auction.sol\":4805:4816  currentItem */\n      dup3\n        /* \"Learning Contrats v0.4.0/CourseraProject/Pgu7q1LYEeiDhgqYR-Lxvg_3e270bc052d811e8905939ab43f94f38_Auction.sol\":4805:4827  currentItem.itemTokens */\n      0x1\n      add\n        /* \"Learning Contrats v0.4.0/CourseraProject/Pgu7q1LYEeiDhgqYR-Lxvg_3e270bc052d811e8905939ab43f94f38_Auction.sol\":4805:4834  currentItem.itemTokens.length */\n      dup1\n      sload\n      swap1\n      pop\n        /* \"Learning Contrats v0.4.0/CourseraProject/Pgu7q1LYEeiDhgqYR-Lxvg_3e270bc052d811e8905939ab43f94f38_Auction.sol\":4773:4784  currentItem */\n      dup4\n        /* \"Learning Contrats v0.4.0/CourseraProject/Pgu7q1LYEeiDhgqYR-Lxvg_3e270bc052d811e8905939ab43f94f38_Auction.sol\":4773:4795  currentItem.itemTokens */\n      0x1\n      add\n        /* \"Learning Contrats v0.4.0/CourseraProject/Pgu7q1LYEeiDhgqYR-Lxvg_3e270bc052d811e8905939ab43f94f38_Auction.sol\":4773:4802  currentItem.itemTokens.length */\n      dup1\n      sload\n      swap1\n      pop\n        /* \"Learning Contrats v0.4.0/CourseraProject/Pgu7q1LYEeiDhgqYR-Lxvg_3e270bc052d811e8905939ab43f94f38_Auction.sol\":4758:4770  block.number */\n      number\n        /* \"Learning Contrats v0.4.0/CourseraProject/Pgu7q1LYEeiDhgqYR-Lxvg_3e270bc052d811e8905939ab43f94f38_Auction.sol\":4758:4802  block.number / currentItem.itemTokens.length */\n      dup2\n      iszero\n      iszero\n      tag_67\n      jumpi\n      invalid\n    tag_67:\n      div\n        /* \"Learning Contrats v0.4.0/CourseraProject/Pgu7q1LYEeiDhgqYR-Lxvg_3e270bc052d811e8905939ab43f94f38_Auction.sol\":4757:4834  (block.number / currentItem.itemTokens.length)% currentItem.itemTokens.length */\n      dup2\n      iszero\n      iszero\n      tag_68\n      jumpi\n      invalid\n    tag_68:\n      mod\n        /* \"Learning Contrats v0.4.0/CourseraProject/Pgu7q1LYEeiDhgqYR-Lxvg_3e270bc052d811e8905939ab43f94f38_Auction.sol\":4738:4834  uint randomIndex = (block.number / currentItem.itemTokens.length)% currentItem.itemTokens.length */\n      swap2\n      pop\n        /* \"Learning Contrats v0.4.0/CourseraProject/Pgu7q1LYEeiDhgqYR-Lxvg_3e270bc052d811e8905939ab43f94f38_Auction.sol\":4908:4919  currentItem */\n      dup3\n        /* \"Learning Contrats v0.4.0/CourseraProject/Pgu7q1LYEeiDhgqYR-Lxvg_3e270bc052d811e8905939ab43f94f38_Auction.sol\":4908:4930  currentItem.itemTokens */\n      0x1\n      add\n        /* \"Learning Contrats v0.4.0/CourseraProject/Pgu7q1LYEeiDhgqYR-Lxvg_3e270bc052d811e8905939ab43f94f38_Auction.sol\":4931:4942  randomIndex */\n      dup3\n        /* \"Learning Contrats v0.4.0/CourseraProject/Pgu7q1LYEeiDhgqYR-Lxvg_3e270bc052d811e8905939ab43f94f38_Auction.sol\":4908:4943  currentItem.itemTokens[randomIndex] */\n      dup2\n      sload\n      dup2\n      lt\n      iszero\n      iszero\n      tag_69\n      jumpi\n      invalid\n    tag_69:\n      swap1\n      0x0\n      mstore\n      keccak256(0x0, 0x20)\n      swap1\n      add\n      sload\n        /* \"Learning Contrats v0.4.0/CourseraProject/Pgu7q1LYEeiDhgqYR-Lxvg_3e270bc052d811e8905939ab43f94f38_Auction.sol\":4892:4943  uint winnerId = currentItem.itemTokens[randomIndex] */\n      swap1\n      pop\n        /* \"Learning Contrats v0.4.0/CourseraProject/Pgu7q1LYEeiDhgqYR-Lxvg_3e270bc052d811e8905939ab43f94f38_Auction.sol\":5279:5286  bidders */\n      0x1\n        /* \"Learning Contrats v0.4.0/CourseraProject/Pgu7q1LYEeiDhgqYR-Lxvg_3e270bc052d811e8905939ab43f94f38_Auction.sol\":5287:5295  winnerId */\n      dup2\n        /* \"Learning Contrats v0.4.0/CourseraProject/Pgu7q1LYEeiDhgqYR-Lxvg_3e270bc052d811e8905939ab43f94f38_Auction.sol\":5279:5296  bidders[winnerId] */\n      0x4\n      dup2\n      lt\n      iszero\n      iszero\n      tag_71\n      jumpi\n      invalid\n    tag_71:\n      0x3\n      mul\n      add\n        /* \"Learning Contrats v0.4.0/CourseraProject/Pgu7q1LYEeiDhgqYR-Lxvg_3e270bc052d811e8905939ab43f94f38_Auction.sol\":5279:5301  bidders[winnerId].addr */\n      0x2\n      add\n      0x0\n      swap1\n      sload\n      swap1\n      0x100\n      exp\n      swap1\n      div\n      0xffffffffffffffffffffffffffffffffffffffff\n      and\n        /* \"Learning Contrats v0.4.0/CourseraProject/Pgu7q1LYEeiDhgqYR-Lxvg_3e270bc052d811e8905939ab43f94f38_Auction.sol\":5267:5274  winners */\n      0x13\n        /* \"Learning Contrats v0.4.0/CourseraProject/Pgu7q1LYEeiDhgqYR-Lxvg_3e270bc052d811e8905939ab43f94f38_Auction.sol\":5275:5277  id */\n      dup6\n        /* \"Learning Contrats v0.4.0/CourseraProject/Pgu7q1LYEeiDhgqYR-Lxvg_3e270bc052d811e8905939ab43f94f38_Auction.sol\":5267:5278  winners[id] */\n      0x3\n      dup2\n      lt\n      iszero\n      iszero\n      tag_73\n      jumpi\n      invalid\n    tag_73:\n      add\n      0x0\n        /* \"Learning Contrats v0.4.0/CourseraProject/Pgu7q1LYEeiDhgqYR-Lxvg_3e270bc052d811e8905939ab43f94f38_Auction.sol\":5267:5301  winners[id]=bidders[winnerId].addr */\n      0x100\n      exp\n      dup2\n      sload\n      dup2\n      0xffffffffffffffffffffffffffffffffffffffff\n      mul\n      not\n      and\n      swap1\n      dup4\n      0xffffffffffffffffffffffffffffffffffffffff\n      and\n      mul\n      or\n      swap1\n      sstore\n      pop\n        /* \"Learning Contrats v0.4.0/CourseraProject/Pgu7q1LYEeiDhgqYR-Lxvg_3e270bc052d811e8905939ab43f94f38_Auction.sol\":4635:5386  if(currentItem.itemTokens.length != 0){... */\n    tag_66:\n        /* \"Learning Contrats v0.4.0/CourseraProject/Pgu7q1LYEeiDhgqYR-Lxvg_3e270bc052d811e8905939ab43f94f38_Auction.sol\":4567:4571  id++ */\n      dup4\n      dup1\n      0x1\n      add\n      swap5\n      pop\n      pop\n        /* \"Learning Contrats v0.4.0/CourseraProject/Pgu7q1LYEeiDhgqYR-Lxvg_3e270bc052d811e8905939ab43f94f38_Auction.sol\":4541:5396  for (uint id = 0; id < 3; id++) {... */\n      jump(tag_61)\n    tag_62:\n        /* \"Learning Contrats v0.4.0/CourseraProject/Pgu7q1LYEeiDhgqYR-Lxvg_3e270bc052d811e8905939ab43f94f38_Auction.sol\":4323:5402  function revealWinners() public onlyOwner{... */\n      pop\n      pop\n      pop\n      pop\n      jump\t// out\n        /* \"Learning Contrats v0.4.0/CourseraProject/Pgu7q1LYEeiDhgqYR-Lxvg_3e270bc052d811e8905939ab43f94f38_Auction.sol\":675:700  address[3] public winners */\n    tag_24:\n      0x13\n      dup2\n      0x3\n      dup2\n      lt\n      iszero\n      iszero\n      tag_75\n      jumpi\n      invalid\n    tag_75:\n      add\n      0x0\n      swap2\n      pop\n      sload\n      swap1\n      0x100\n      exp\n      swap1\n      div\n      0xffffffffffffffffffffffffffffffffffffffff\n      and\n      dup2\n      jump\t// out\n        /* \"Learning Contrats v0.4.0/CourseraProject/Pgu7q1LYEeiDhgqYR-Lxvg_3e270bc052d811e8905939ab43f94f38_Auction.sol\":615:636  Item [3] public items */\n    tag_27:\n      0xd\n      dup2\n      0x3\n      dup2\n      lt\n      iszero\n      iszero\n      tag_77\n      jumpi\n      invalid\n    tag_77:\n      0x2\n      mul\n      add\n      0x0\n      swap2\n      pop\n      swap1\n      pop\n      dup1\n      0x0\n      add\n      sload\n      swap1\n      pop\n      dup2\n      jump\t// out\n        /* \"Learning Contrats v0.4.0/CourseraProject/Pgu7q1LYEeiDhgqYR-Lxvg_3e270bc052d811e8905939ab43f94f38_Auction.sol\":25:5675  contract Auction {... */\n    tag_49:\n      dup2\n      sload\n      dup2\n      dup4\n      sstore\n      dup2\n      dup2\n      iszero\n      gt\n      tag_79\n      jumpi\n      dup2\n      dup4\n      0x0\n      mstore\n      keccak256(0x0, 0x20)\n      swap2\n      dup3\n      add\n      swap2\n      add\n      tag_80\n      swap2\n      swap1\n      jump\t// in(tag_81)\n    tag_80:\n    tag_79:\n      pop\n      pop\n      pop\n      jump\t// out\n    tag_81:\n      tag_82\n      swap2\n      swap1\n    tag_83:\n      dup1\n      dup3\n      gt\n      iszero\n      tag_84\n      jumpi\n      0x0\n      dup2\n      0x0\n      swap1\n      sstore\n      pop\n      0x1\n      add\n      jump(tag_83)\n    tag_84:\n      pop\n      swap1\n      jump\n    tag_82:\n      swap1\n      jump\t// out\n\n    auxdata: 0xa165627a7a723058203e9cb34d23c8cd5610b4c8ff6b68505669a204832add3b7918489cd6c55fad5f0029\n}\n",
				"bytecode": {
					"linkReferences": {},
					"object": "60606040526000601755610011610113565b60408051908101604052806000815260200182815250600d600060038110151561003757fe5b60020201600082015181600001556020820151816001019080519060200190610061929190610127565b5090505060408051908101604052806001815260200182815250600d600160038110151561008b57fe5b600202016000820151816000015560208201518160010190805190602001906100b5929190610127565b5090505060408051908101604052806002815260200182815250600d60026003811015156100df57fe5b60020201600082015181600001556020820151816001019080519060200190610109929190610127565b5090505050610199565b602060405190810160405280600081525090565b828054828255906000526020600020908101928215610163579160200282015b82811115610162578251825591602001919060010190610147565b5b5090506101709190610174565b5090565b61019691905b8082111561019257600081600090555060010161017a565b5090565b90565b6108ba806101a86000396000f30060606040523615610081576000357c0100000000000000000000000000000000000000000000000000000000900463ffffffff1680631aa3a0081461008657806338af3eed14610090578063598647f8146100e55780636098170514610106578063952587d614610177578063a2fb11751461018c578063bfb231d2146101ef575b600080fd5b61008e610226565b005b341561009b57600080fd5b6100a361039f565b604051808273ffffffffffffffffffffffffffffffffffffffff1673ffffffffffffffffffffffffffffffffffffffff16815260200191505060405180910390f35b61010460048080359060200190919080359060200190919050506103c5565b005b341561011157600080fd5b61012760048080359060200190919050506105f9565b604051808481526020018381526020018273ffffffffffffffffffffffffffffffffffffffff1673ffffffffffffffffffffffffffffffffffffffff168152602001935050505060405180910390f35b341561018257600080fd5b61018a610670565b005b341561019757600080fd5b6101ad60048080359060200190919050506107e5565b604051808273ffffffffffffffffffffffffffffffffffffffff1673ffffffffffffffffffffffffffffffffffffffff16815260200191505060405180910390f35b34156101fa57600080fd5b610210600480803590602001909190505061081a565b6040518082815260200191505060405180910390f35b601754600160175460048110151561023a57fe5b600302016001018190555033600160175460048110151561025757fe5b6003020160020160006101000a81548173ffffffffffffffffffffffffffffffffffffffff021916908373ffffffffffffffffffffffffffffffffffffffff160217905550600560016017546004811015156102af57fe5b600302016000018190555060016017546004811015156102cb57fe5b600302016000803373ffffffffffffffffffffffffffffffffffffffff1673ffffffffffffffffffffffffffffffffffffffff16815260200190815260200160002060008201548160000155600182015481600101556002820160009054906101000a900473ffffffffffffffffffffffffffffffffffffffff168160020160006101000a81548173ffffffffffffffffffffffffffffffffffffffff021916908373ffffffffffffffffffffffffffffffffffffffff160217905550905050601760008154809291906001019190505550565b601660009054906101000a900473ffffffffffffffffffffffffffffffffffffffff1681565b6000806000836000803373ffffffffffffffffffffffffffffffffffffffff1673ffffffffffffffffffffffffffffffffffffffff16815260200190815260200160002060000154108061045a575060008060003373ffffffffffffffffffffffffffffffffffffffff1673ffffffffffffffffffffffffffffffffffffffff16815260200190815260200160002060000154145b806104655750600285115b1561046f57600080fd5b836000803373ffffffffffffffffffffffffffffffffffffffff1673ffffffffffffffffffffffffffffffffffffffff16815260200190815260200160002060000154039250826000803373ffffffffffffffffffffffffffffffffffffffff1673ffffffffffffffffffffffffffffffffffffffff168152602001908152602001600020600001819055508260016000803373ffffffffffffffffffffffffffffffffffffffff1673ffffffffffffffffffffffffffffffffffffffff1681526020019081526020016000206001015460048110151561054c57fe5b6003020160000181905550600d8560038110151561056657fe5b600202019150600090505b838110156105f25781600101805480600101828161058f919061083d565b916000526020600020900160008060003373ffffffffffffffffffffffffffffffffffffffff1673ffffffffffffffffffffffffffffffffffffffff16815260200190815260200160002060010154909190915055508080600101915050610571565b5050505050565b600080600060018460048110151561060d57fe5b600302016000015460018560048110151561062457fe5b600302016001015460018660048110151561063b57fe5b6003020160020160009054906101000a900473ffffffffffffffffffffffffffffffffffffffff169250925092509193909250565b600080600080601660009054906101000a900473ffffffffffffffffffffffffffffffffffffffff1673ffffffffffffffffffffffffffffffffffffffff163373ffffffffffffffffffffffffffffffffffffffff161415156106d257600080fd5b600093505b60038410156107df57600d846003811015156106ef57fe5b600202019250600083600101805490501415156107d257826001018054905083600101805490504381151561072057fe5b0481151561072a57fe5b069150826001018281548110151561073e57fe5b906000526020600020900154905060018160048110151561075b57fe5b6003020160020160009054906101000a900473ffffffffffffffffffffffffffffffffffffffff1660138560038110151561079257fe5b0160006101000a81548173ffffffffffffffffffffffffffffffffffffffff021916908373ffffffffffffffffffffffffffffffffffffffff1602179055505b83806001019450506106d7565b50505050565b6013816003811015156107f457fe5b016000915054906101000a900473ffffffffffffffffffffffffffffffffffffffff1681565b600d8160038110151561082957fe5b600202016000915090508060000154905081565b815481835581811511610864578183600052602060002091820191016108639190610869565b5b505050565b61088b91905b8082111561088757600081600090555060010161086f565b5090565b905600a165627a7a723058203e9cb34d23c8cd5610b4c8ff6b68505669a204832add3b7918489cd6c55fad5f0029",
					"opcodes": "PUSH1 0x60 PUSH1 0x40 MSTORE PUSH1 0x0 PUSH1 0x17 SSTORE PUSH2 0x11 PUSH2 0x113 JUMP JUMPDEST PUSH1 0x40 DUP1 MLOAD SWAP1 DUP2 ADD PUSH1 0x40 MSTORE DUP1 PUSH1 0x0 DUP2 MSTORE PUSH1 0x20 ADD DUP3 DUP2 MSTORE POP PUSH1 0xD PUSH1 0x0 PUSH1 0x3 DUP2 LT ISZERO ISZERO PUSH2 0x37 JUMPI INVALID JUMPDEST PUSH1 0x2 MUL ADD PUSH1 0x0 DUP3 ADD MLOAD DUP2 PUSH1 0x0 ADD SSTORE PUSH1 0x20 DUP3 ADD MLOAD DUP2 PUSH1 0x1 ADD SWAP1 DUP1 MLOAD SWAP1 PUSH1 0x20 ADD SWAP1 PUSH2 0x61 SWAP3 SWAP2 SWAP1 PUSH2 0x127 JUMP JUMPDEST POP SWAP1 POP POP PUSH1 0x40 DUP1 MLOAD SWAP1 DUP2 ADD PUSH1 0x40 MSTORE DUP1 PUSH1 0x1 DUP2 MSTORE PUSH1 0x20 ADD DUP3 DUP2 MSTORE POP PUSH1 0xD PUSH1 0x1 PUSH1 0x3 DUP2 LT ISZERO ISZERO PUSH2 0x8B JUMPI INVALID JUMPDEST PUSH1 0x2 MUL ADD PUSH1 0x0 DUP3 ADD MLOAD DUP2 PUSH1 0x0 ADD SSTORE PUSH1 0x20 DUP3 ADD MLOAD DUP2 PUSH1 0x1 ADD SWAP1 DUP1 MLOAD SWAP1 PUSH1 0x20 ADD SWAP1 PUSH2 0xB5 SWAP3 SWAP2 SWAP1 PUSH2 0x127 JUMP JUMPDEST POP SWAP1 POP POP PUSH1 0x40 DUP1 MLOAD SWAP1 DUP2 ADD PUSH1 0x40 MSTORE DUP1 PUSH1 0x2 DUP2 MSTORE PUSH1 0x20 ADD DUP3 DUP2 MSTORE POP PUSH1 0xD PUSH1 0x2 PUSH1 0x3 DUP2 LT ISZERO ISZERO PUSH2 0xDF JUMPI INVALID JUMPDEST PUSH1 0x2 MUL ADD PUSH1 0x0 DUP3 ADD MLOAD DUP2 PUSH1 0x0 ADD SSTORE PUSH1 0x20 DUP3 ADD MLOAD DUP2 PUSH1 0x1 ADD SWAP1 DUP1 MLOAD SWAP1 PUSH1 0x20 ADD SWAP1 PUSH2 0x109 SWAP3 SWAP2 SWAP1 PUSH2 0x127 JUMP JUMPDEST POP SWAP1 POP POP POP PUSH2 0x199 JUMP JUMPDEST PUSH1 0x20 PUSH1 0x40 MLOAD SWAP1 DUP2 ADD PUSH1 0x40 MSTORE DUP1 PUSH1 0x0 DUP2 MSTORE POP SWAP1 JUMP JUMPDEST DUP3 DUP1 SLOAD DUP3 DUP3 SSTORE SWAP1 PUSH1 0x0 MSTORE PUSH1 0x20 PUSH1 0x0 KECCAK256 SWAP1 DUP2 ADD SWAP3 DUP3 ISZERO PUSH2 0x163 JUMPI SWAP2 PUSH1 0x20 MUL DUP3 ADD JUMPDEST DUP3 DUP2 GT ISZERO PUSH2 0x162 JUMPI DUP3 MLOAD DUP3 SSTORE SWAP2 PUSH1 0x20 ADD SWAP2 SWAP1 PUSH1 0x1 ADD SWAP1 PUSH2 0x147 JUMP JUMPDEST JUMPDEST POP SWAP1 POP PUSH2 0x170 SWAP2 SWAP1 PUSH2 0x174 JUMP JUMPDEST POP SWAP1 JUMP JUMPDEST PUSH2 0x196 SWAP2 SWAP1 JUMPDEST DUP1 DUP3 GT ISZERO PUSH2 0x192 JUMPI PUSH1 0x0 DUP2 PUSH1 0x0 SWAP1 SSTORE POP PUSH1 0x1 ADD PUSH2 0x17A JUMP JUMPDEST POP SWAP1 JUMP JUMPDEST SWAP1 JUMP JUMPDEST PUSH2 0x8BA DUP1 PUSH2 0x1A8 PUSH1 0x0 CODECOPY PUSH1 0x0 RETURN STOP PUSH1 0x60 PUSH1 0x40 MSTORE CALLDATASIZE ISZERO PUSH2 0x81 JUMPI PUSH1 0x0 CALLDATALOAD PUSH29 0x100000000000000000000000000000000000000000000000000000000 SWAP1 DIV PUSH4 0xFFFFFFFF AND DUP1 PUSH4 0x1AA3A008 EQ PUSH2 0x86 JUMPI DUP1 PUSH4 0x38AF3EED EQ PUSH2 0x90 JUMPI DUP1 PUSH4 0x598647F8 EQ PUSH2 0xE5 JUMPI DUP1 PUSH4 0x60981705 EQ PUSH2 0x106 JUMPI DUP1 PUSH4 0x952587D6 EQ PUSH2 0x177 JUMPI DUP1 PUSH4 0xA2FB1175 EQ PUSH2 0x18C JUMPI DUP1 PUSH4 0xBFB231D2 EQ PUSH2 0x1EF JUMPI JUMPDEST PUSH1 0x0 DUP1 REVERT JUMPDEST PUSH2 0x8E PUSH2 0x226 JUMP JUMPDEST STOP JUMPDEST CALLVALUE ISZERO PUSH2 0x9B JUMPI PUSH1 0x0 DUP1 REVERT JUMPDEST PUSH2 0xA3 PUSH2 0x39F JUMP JUMPDEST PUSH1 0x40 MLOAD DUP1 DUP3 PUSH20 0xFFFFFFFFFFFFFFFFFFFFFFFFFFFFFFFFFFFFFFFF AND PUSH20 0xFFFFFFFFFFFFFFFFFFFFFFFFFFFFFFFFFFFFFFFF AND DUP2 MSTORE PUSH1 0x20 ADD SWAP2 POP POP PUSH1 0x40 MLOAD DUP1 SWAP2 SUB SWAP1 RETURN JUMPDEST PUSH2 0x104 PUSH1 0x4 DUP1 DUP1 CALLDATALOAD SWAP1 PUSH1 0x20 ADD SWAP1 SWAP2 SWAP1 DUP1 CALLDATALOAD SWAP1 PUSH1 0x20 ADD SWAP1 SWAP2 SWAP1 POP POP PUSH2 0x3C5 JUMP JUMPDEST STOP JUMPDEST CALLVALUE ISZERO PUSH2 0x111 JUMPI PUSH1 0x0 DUP1 REVERT JUMPDEST PUSH2 0x127 PUSH1 0x4 DUP1 DUP1 CALLDATALOAD SWAP1 PUSH1 0x20 ADD SWAP1 SWAP2 SWAP1 POP POP PUSH2 0x5F9 JUMP JUMPDEST PUSH1 0x40 MLOAD DUP1 DUP5 DUP2 MSTORE PUSH1 0x20 ADD DUP4 DUP2 MSTORE PUSH1 0x20 ADD DUP3 PUSH20 0xFFFFFFFFFFFFFFFFFFFFFFFFFFFFFFFFFFFFFFFF AND PUSH20 0xFFFFFFFFFFFFFFFFFFFFFFFFFFFFFFFFFFFFFFFF AND DUP2 MSTORE PUSH1 0x20 ADD SWAP4 POP POP POP POP PUSH1 0x40 MLOAD DUP1 SWAP2 SUB SWAP1 RETURN JUMPDEST CALLVALUE ISZERO PUSH2 0x182 JUMPI PUSH1 0x0 DUP1 REVERT JUMPDEST PUSH2 0x18A PUSH2 0x670 JUMP JUMPDEST STOP JUMPDEST CALLVALUE ISZERO PUSH2 0x197 JUMPI PUSH1 0x0 DUP1 REVERT JUMPDEST PUSH2 0x1AD PUSH1 0x4 DUP1 DUP1 CALLDATALOAD SWAP1 PUSH1 0x20 ADD SWAP1 SWAP2 SWAP1 POP POP PUSH2 0x7E5 JUMP JUMPDEST PUSH1 0x40 MLOAD DUP1 DUP3 PUSH20 0xFFFFFFFFFFFFFFFFFFFFFFFFFFFFFFFFFFFFFFFF AND PUSH20 0xFFFFFFFFFFFFFFFFFFFFFFFFFFFFFFFFFFFFFFFF AND DUP2 MSTORE PUSH1 0x20 ADD SWAP2 POP POP PUSH1 0x40 MLOAD DUP1 SWAP2 SUB SWAP1 RETURN JUMPDEST CALLVALUE ISZERO PUSH2 0x1FA JUMPI PUSH1 0x0 DUP1 REVERT JUMPDEST PUSH2 0x210 PUSH1 0x4 DUP1 DUP1 CALLDATALOAD SWAP1 PUSH1 0x20 ADD SWAP1 SWAP2 SWAP1 POP POP PUSH2 0x81A JUMP JUMPDEST PUSH1 0x40 MLOAD DUP1 DUP3 DUP2 MSTORE PUSH1 0x20 ADD SWAP2 POP POP PUSH1 0x40 MLOAD DUP1 SWAP2 SUB SWAP1 RETURN JUMPDEST PUSH1 0x17 SLOAD PUSH1 0x1 PUSH1 0x17 SLOAD PUSH1 0x4 DUP2 LT ISZERO ISZERO PUSH2 0x23A JUMPI INVALID JUMPDEST PUSH1 0x3 MUL ADD PUSH1 0x1 ADD DUP2 SWAP1 SSTORE POP CALLER PUSH1 0x1 PUSH1 0x17 SLOAD PUSH1 0x4 DUP2 LT ISZERO ISZERO PUSH2 0x257 JUMPI INVALID JUMPDEST PUSH1 0x3 MUL ADD PUSH1 0x2 ADD PUSH1 0x0 PUSH2 0x100 EXP DUP2 SLOAD DUP2 PUSH20 0xFFFFFFFFFFFFFFFFFFFFFFFFFFFFFFFFFFFFFFFF MUL NOT AND SWAP1 DUP4 PUSH20 0xFFFFFFFFFFFFFFFFFFFFFFFFFFFFFFFFFFFFFFFF AND MUL OR SWAP1 SSTORE POP PUSH1 0x5 PUSH1 0x1 PUSH1 0x17 SLOAD PUSH1 0x4 DUP2 LT ISZERO ISZERO PUSH2 0x2AF JUMPI INVALID JUMPDEST PUSH1 0x3 MUL ADD PUSH1 0x0 ADD DUP2 SWAP1 SSTORE POP PUSH1 0x1 PUSH1 0x17 SLOAD PUSH1 0x4 DUP2 LT ISZERO ISZERO PUSH2 0x2CB JUMPI INVALID JUMPDEST PUSH1 0x3 MUL ADD PUSH1 0x0 DUP1 CALLER PUSH20 0xFFFFFFFFFFFFFFFFFFFFFFFFFFFFFFFFFFFFFFFF AND PUSH20 0xFFFFFFFFFFFFFFFFFFFFFFFFFFFFFFFFFFFFFFFF AND DUP2 MSTORE PUSH1 0x20 ADD SWAP1 DUP2 MSTORE PUSH1 0x20 ADD PUSH1 0x0 KECCAK256 PUSH1 0x0 DUP3 ADD SLOAD DUP2 PUSH1 0x0 ADD SSTORE PUSH1 0x1 DUP3 ADD SLOAD DUP2 PUSH1 0x1 ADD SSTORE PUSH1 0x2 DUP3 ADD PUSH1 0x0 SWAP1 SLOAD SWAP1 PUSH2 0x100 EXP SWAP1 DIV PUSH20 0xFFFFFFFFFFFFFFFFFFFFFFFFFFFFFFFFFFFFFFFF AND DUP2 PUSH1 0x2 ADD PUSH1 0x0 PUSH2 0x100 EXP DUP2 SLOAD DUP2 PUSH20 0xFFFFFFFFFFFFFFFFFFFFFFFFFFFFFFFFFFFFFFFF MUL NOT AND SWAP1 DUP4 PUSH20 0xFFFFFFFFFFFFFFFFFFFFFFFFFFFFFFFFFFFFFFFF AND MUL OR SWAP1 SSTORE POP SWAP1 POP POP PUSH1 0x17 PUSH1 0x0 DUP2 SLOAD DUP1 SWAP3 SWAP2 SWAP1 PUSH1 0x1 ADD SWAP2 SWAP1 POP SSTORE POP JUMP JUMPDEST PUSH1 0x16 PUSH1 0x0 SWAP1 SLOAD SWAP1 PUSH2 0x100 EXP SWAP1 DIV PUSH20 0xFFFFFFFFFFFFFFFFFFFFFFFFFFFFFFFFFFFFFFFF AND DUP2 JUMP JUMPDEST PUSH1 0x0 DUP1 PUSH1 0x0 DUP4 PUSH1 0x0 DUP1 CALLER PUSH20 0xFFFFFFFFFFFFFFFFFFFFFFFFFFFFFFFFFFFFFFFF AND PUSH20 0xFFFFFFFFFFFFFFFFFFFFFFFFFFFFFFFFFFFFFFFF AND DUP2 MSTORE PUSH1 0x20 ADD SWAP1 DUP2 MSTORE PUSH1 0x20 ADD PUSH1 0x0 KECCAK256 PUSH1 0x0 ADD SLOAD LT DUP1 PUSH2 0x45A JUMPI POP PUSH1 0x0 DUP1 PUSH1 0x0 CALLER PUSH20 0xFFFFFFFFFFFFFFFFFFFFFFFFFFFFFFFFFFFFFFFF AND PUSH20 0xFFFFFFFFFFFFFFFFFFFFFFFFFFFFFFFFFFFFFFFF AND DUP2 MSTORE PUSH1 0x20 ADD SWAP1 DUP2 MSTORE PUSH1 0x20 ADD PUSH1 0x0 KECCAK256 PUSH1 0x0 ADD SLOAD EQ JUMPDEST DUP1 PUSH2 0x465 JUMPI POP PUSH1 0x2 DUP6 GT JUMPDEST ISZERO PUSH2 0x46F JUMPI PUSH1 0x0 DUP1 REVERT JUMPDEST DUP4 PUSH1 0x0 DUP1 CALLER PUSH20 0xFFFFFFFFFFFFFFFFFFFFFFFFFFFFFFFFFFFFFFFF AND PUSH20 0xFFFFFFFFFFFFFFFFFFFFFFFFFFFFFFFFFFFFFFFF AND DUP2 MSTORE PUSH1 0x20 ADD SWAP1 DUP2 MSTORE PUSH1 0x20 ADD PUSH1 0x0 KECCAK256 PUSH1 0x0 ADD SLOAD SUB SWAP3 POP DUP3 PUSH1 0x0 DUP1 CALLER PUSH20 0xFFFFFFFFFFFFFFFFFFFFFFFFFFFFFFFFFFFFFFFF AND PUSH20 0xFFFFFFFFFFFFFFFFFFFFFFFFFFFFFFFFFFFFFFFF AND DUP2 MSTORE PUSH1 0x20 ADD SWAP1 DUP2 MSTORE PUSH1 0x20 ADD PUSH1 0x0 KECCAK256 PUSH1 0x0 ADD DUP2 SWAP1 SSTORE POP DUP3 PUSH1 0x1 PUSH1 0x0 DUP1 CALLER PUSH20 0xFFFFFFFFFFFFFFFFFFFFFFFFFFFFFFFFFFFFFFFF AND PUSH20 0xFFFFFFFFFFFFFFFFFFFFFFFFFFFFFFFFFFFFFFFF AND DUP2 MSTORE PUSH1 0x20 ADD SWAP1 DUP2 MSTORE PUSH1 0x20 ADD PUSH1 0x0 KECCAK256 PUSH1 0x1 ADD SLOAD PUSH1 0x4 DUP2 LT ISZERO ISZERO PUSH2 0x54C JUMPI INVALID JUMPDEST PUSH1 0x3 MUL ADD PUSH1 0x0 ADD DUP2 SWAP1 SSTORE POP PUSH1 0xD DUP6 PUSH1 0x3 DUP2 LT ISZERO ISZERO PUSH2 0x566 JUMPI INVALID JUMPDEST PUSH1 0x2 MUL ADD SWAP2 POP PUSH1 0x0 SWAP1 POP JUMPDEST DUP4 DUP2 LT ISZERO PUSH2 0x5F2 JUMPI DUP2 PUSH1 0x1 ADD DUP1 SLOAD DUP1 PUSH1 0x1 ADD DUP3 DUP2 PUSH2 0x58F SWAP2 SWAP1 PUSH2 0x83D JUMP JUMPDEST SWAP2 PUSH1 0x0 MSTORE PUSH1 0x20 PUSH1 0x0 KECCAK256 SWAP1 ADD PUSH1 0x0 DUP1 PUSH1 0x0 CALLER PUSH20 0xFFFFFFFFFFFFFFFFFFFFFFFFFFFFFFFFFFFFFFFF AND PUSH20 0xFFFFFFFFFFFFFFFFFFFFFFFFFFFFFFFFFFFFFFFF AND DUP2 MSTORE PUSH1 0x20 ADD SWAP1 DUP2 MSTORE PUSH1 0x20 ADD PUSH1 0x0 KECCAK256 PUSH1 0x1 ADD SLOAD SWAP1 SWAP2 SWAP1 SWAP2 POP SSTORE POP DUP1 DUP1 PUSH1 0x1 ADD SWAP2 POP POP PUSH2 0x571 JUMP JUMPDEST POP POP POP POP POP JUMP JUMPDEST PUSH1 0x0 DUP1 PUSH1 0x0 PUSH1 0x1 DUP5 PUSH1 0x4 DUP2 LT ISZERO ISZERO PUSH2 0x60D JUMPI INVALID JUMPDEST PUSH1 0x3 MUL ADD PUSH1 0x0 ADD SLOAD PUSH1 0x1 DUP6 PUSH1 0x4 DUP2 LT ISZERO ISZERO PUSH2 0x624 JUMPI INVALID JUMPDEST PUSH1 0x3 MUL ADD PUSH1 0x1 ADD SLOAD PUSH1 0x1 DUP7 PUSH1 0x4 DUP2 LT ISZERO ISZERO PUSH2 0x63B JUMPI INVALID JUMPDEST PUSH1 0x3 MUL ADD PUSH1 0x2 ADD PUSH1 0x0 SWAP1 SLOAD SWAP1 PUSH2 0x100 EXP SWAP1 DIV PUSH20 0xFFFFFFFFFFFFFFFFFFFFFFFFFFFFFFFFFFFFFFFF AND SWAP3 POP SWAP3 POP SWAP3 POP SWAP2 SWAP4 SWAP1 SWAP3 POP JUMP JUMPDEST PUSH1 0x0 DUP1 PUSH1 0x0 DUP1 PUSH1 0x16 PUSH1 0x0 SWAP1 SLOAD SWAP1 PUSH2 0x100 EXP SWAP1 DIV PUSH20 0xFFFFFFFFFFFFFFFFFFFFFFFFFFFFFFFFFFFFFFFF AND PUSH20 0xFFFFFFFFFFFFFFFFFFFFFFFFFFFFFFFFFFFFFFFF AND CALLER PUSH20 0xFFFFFFFFFFFFFFFFFFFFFFFFFFFFFFFFFFFFFFFF AND EQ ISZERO ISZERO PUSH2 0x6D2 JUMPI PUSH1 0x0 DUP1 REVERT JUMPDEST PUSH1 0x0 SWAP4 POP JUMPDEST PUSH1 0x3 DUP5 LT ISZERO PUSH2 0x7DF JUMPI PUSH1 0xD DUP5 PUSH1 0x3 DUP2 LT ISZERO ISZERO PUSH2 0x6EF JUMPI INVALID JUMPDEST PUSH1 0x2 MUL ADD SWAP3 POP PUSH1 0x0 DUP4 PUSH1 0x1 ADD DUP1 SLOAD SWAP1 POP EQ ISZERO ISZERO PUSH2 0x7D2 JUMPI DUP3 PUSH1 0x1 ADD DUP1 SLOAD SWAP1 POP DUP4 PUSH1 0x1 ADD DUP1 SLOAD SWAP1 POP NUMBER DUP2 ISZERO ISZERO PUSH2 0x720 JUMPI INVALID JUMPDEST DIV DUP2 ISZERO ISZERO PUSH2 0x72A JUMPI INVALID JUMPDEST MOD SWAP2 POP DUP3 PUSH1 0x1 ADD DUP3 DUP2 SLOAD DUP2 LT ISZERO ISZERO PUSH2 0x73E JUMPI INVALID JUMPDEST SWAP1 PUSH1 0x0 MSTORE PUSH1 0x20 PUSH1 0x0 KECCAK256 SWAP1 ADD SLOAD SWAP1 POP PUSH1 0x1 DUP2 PUSH1 0x4 DUP2 LT ISZERO ISZERO PUSH2 0x75B JUMPI INVALID JUMPDEST PUSH1 0x3 MUL ADD PUSH1 0x2 ADD PUSH1 0x0 SWAP1 SLOAD SWAP1 PUSH2 0x100 EXP SWAP1 DIV PUSH20 0xFFFFFFFFFFFFFFFFFFFFFFFFFFFFFFFFFFFFFFFF AND PUSH1 0x13 DUP6 PUSH1 0x3 DUP2 LT ISZERO ISZERO PUSH2 0x792 JUMPI INVALID JUMPDEST ADD PUSH1 0x0 PUSH2 0x100 EXP DUP2 SLOAD DUP2 PUSH20 0xFFFFFFFFFFFFFFFFFFFFFFFFFFFFFFFFFFFFFFFF MUL NOT AND SWAP1 DUP4 PUSH20 0xFFFFFFFFFFFFFFFFFFFFFFFFFFFFFFFFFFFFFFFF AND MUL OR SWAP1 SSTORE POP JUMPDEST DUP4 DUP1 PUSH1 0x1 ADD SWAP5 POP POP PUSH2 0x6D7 JUMP JUMPDEST POP POP POP POP JUMP JUMPDEST PUSH1 0x13 DUP2 PUSH1 0x3 DUP2 LT ISZERO ISZERO PUSH2 0x7F4 JUMPI INVALID JUMPDEST ADD PUSH1 0x0 SWAP2 POP SLOAD SWAP1 PUSH2 0x100 EXP SWAP1 DIV PUSH20 0xFFFFFFFFFFFFFFFFFFFFFFFFFFFFFFFFFFFFFFFF AND DUP2 JUMP JUMPDEST PUSH1 0xD DUP2 PUSH1 0x3 DUP2 LT ISZERO ISZERO PUSH2 0x829 JUMPI INVALID JUMPDEST PUSH1 0x2 MUL ADD PUSH1 0x0 SWAP2 POP SWAP1 POP DUP1 PUSH1 0x0 ADD SLOAD SWAP1 POP DUP2 JUMP JUMPDEST DUP2 SLOAD DUP2 DUP4 SSTORE DUP2 DUP2 ISZERO GT PUSH2 0x864 JUMPI DUP2 DUP4 PUSH1 0x0 MSTORE PUSH1 0x20 PUSH1 0x0 KECCAK256 SWAP2 DUP3 ADD SWAP2 ADD PUSH2 0x863 SWAP2 SWAP1 PUSH2 0x869 JUMP JUMPDEST JUMPDEST POP POP POP JUMP JUMPDEST PUSH2 0x88B SWAP2 SWAP1 JUMPDEST DUP1 DUP3 GT ISZERO PUSH2 0x887 JUMPI PUSH1 0x0 DUP2 PUSH1 0x0 SWAP1 SSTORE POP PUSH1 0x1 ADD PUSH2 0x86F JUMP JUMPDEST POP SWAP1 JUMP JUMPDEST SWAP1 JUMP STOP LOG1 PUSH6 0x627A7A723058 KECCAK256 RETURNDATACOPY SWAP13 0xb3 0x4d 0x23 0xc8 0xcd JUMP LT 0xb4 0xc8 SELFDESTRUCT PUSH12 0x68505669A204832ADD3B7918 0x48 SWAP13 0xd6 0xc5 0x5f 0xad 0x5f STOP 0x29 "
				},
				"gasEstimates": {
					"creation": {
						"codeDepositCost": "446800",
						"executionCost": "infinite",
						"totalCost": "infinite"
					},
					"external": {
						"beneficiary()": "453",
						"bid(uint256,uint256)": "infinite",
						"getPersonDetails(uint256)": "1159",
						"items(uint256)": "619",
						"register()": "142880",
						"revealWinners()": "infinite",
						"winners(uint256)": "612"
					}
				},
				"methodIdentifiers": {
					"beneficiary()": "38af3eed",
					"bid(uint256,uint256)": "598647f8",
					"getPersonDetails(uint256)": "60981705",
					"items(uint256)": "bfb231d2",
					"register()": "1aa3a008",
					"revealWinners()": "952587d6",
					"winners(uint256)": "a2fb1175"
				}
			},
			"userdoc": {
				"methods": {}
			}
		}
	}
}