{
	"Contract  ^0.8.8/TestContract.sol": {
		"Test1": {
			"abi": [
				{
					"inputs": [],
					"stateMutability": "payable",
					"type": "constructor"
				},
				{
					"inputs": [],
					"name": "owner",
					"outputs": [
						{
							"internalType": "address",
							"name": "",
							"type": "address"
						}
					],
					"stateMutability": "view",
					"type": "function"
				},
				{
					"inputs": [
						{
							"internalType": "address payable",
							"name": "_to",
							"type": "address"
						}
					],
					"name": "sendViaCall",
					"outputs": [],
					"stateMutability": "payable",
					"type": "function"
				},
				{
					"stateMutability": "payable",
					"type": "receive"
				}
			],
			"devdoc": {
				"kind": "dev",
				"methods": {},
				"version": 1
			},
			"evm": {
				"assembly": "    /* \"Contract  ^0.8.8/TestContract.sol\":133:640  contract Test1{... */\n  mstore(0x40, 0x80)\n    /* \"Contract  ^0.8.8/TestContract.sol\":216:226  msg.sender */\n  caller\n    /* \"Contract  ^0.8.8/TestContract.sol\":210:215  owner */\n  0x00\n  dup1\n    /* \"Contract  ^0.8.8/TestContract.sol\":210:226  owner=msg.sender */\n  0x0100\n  exp\n  dup2\n  sload\n  dup2\n  0xffffffffffffffffffffffffffffffffffffffff\n  mul\n  not\n  and\n  swap1\n  dup4\n  0xffffffffffffffffffffffffffffffffffffffff\n  and\n  mul\n  or\n  swap1\n  sstore\n  pop\n    /* \"Contract  ^0.8.8/TestContract.sol\":133:640  contract Test1{... */\n  dataSize(sub_0)\n  dup1\n  dataOffset(sub_0)\n  0x00\n  codecopy\n  0x00\n  return\nstop\n\nsub_0: assembly {\n        /* \"Contract  ^0.8.8/TestContract.sol\":133:640  contract Test1{... */\n      mstore(0x40, 0x80)\n      jumpi(tag_1, lt(calldatasize, 0x04))\n      shr(0xe0, calldataload(0x00))\n      dup1\n      0x830c29ae\n      eq\n      tag_3\n      jumpi\n      dup1\n      0x8da5cb5b\n      eq\n      tag_4\n      jumpi\n      jump(tag_2)\n    tag_1:\n      jumpi(tag_2, calldatasize)\n      stop\n    tag_2:\n      0x00\n      dup1\n      revert\n        /* \"Contract  ^0.8.8/TestContract.sol\":458:633  function sendViaCall(address payable _to) public payable OnlyOwner(msg.sender){... */\n    tag_3:\n      tag_7\n      0x04\n      dup1\n      calldatasize\n      sub\n      dup2\n      add\n      swap1\n      tag_8\n      swap2\n      swap1\n      tag_9\n      jump\t// in\n    tag_8:\n      tag_10\n      jump\t// in\n    tag_7:\n      stop\n        /* \"Contract  ^0.8.8/TestContract.sol\":153:173  address public owner */\n    tag_4:\n      callvalue\n      dup1\n      iszero\n      tag_11\n      jumpi\n      0x00\n      dup1\n      revert\n    tag_11:\n      pop\n      tag_12\n      tag_13\n      jump\t// in\n    tag_12:\n      mload(0x40)\n      tag_14\n      swap2\n      swap1\n      tag_15\n      jump\t// in\n    tag_14:\n      mload(0x40)\n      dup1\n      swap2\n      sub\n      swap1\n      return\n        /* \"Contract  ^0.8.8/TestContract.sol\":458:633  function sendViaCall(address payable _to) public payable OnlyOwner(msg.sender){... */\n    tag_10:\n        /* \"Contract  ^0.8.8/TestContract.sol\":525:535  msg.sender */\n      caller\n        /* \"Contract  ^0.8.8/TestContract.sol\":416:421  owner */\n      0x00\n      dup1\n      sload\n      swap1\n      0x0100\n      exp\n      swap1\n      div\n      0xffffffffffffffffffffffffffffffffffffffff\n      and\n        /* \"Contract  ^0.8.8/TestContract.sol\":404:421  msg.sender==owner */\n      0xffffffffffffffffffffffffffffffffffffffff\n      and\n        /* \"Contract  ^0.8.8/TestContract.sol\":404:414  msg.sender */\n      caller\n        /* \"Contract  ^0.8.8/TestContract.sol\":404:421  msg.sender==owner */\n      0xffffffffffffffffffffffffffffffffffffffff\n      and\n      eq\n        /* \"Contract  ^0.8.8/TestContract.sol\":396:435  require(msg.sender==owner,\"Only owner\") */\n      tag_17\n      jumpi\n      mload(0x40)\n      0x08c379a000000000000000000000000000000000000000000000000000000000\n      dup2\n      mstore\n      0x04\n      add\n      tag_18\n      swap1\n      tag_19\n      jump\t// in\n    tag_18:\n      mload(0x40)\n      dup1\n      swap2\n      sub\n      swap1\n      revert\n    tag_17:\n        /* \"Contract  ^0.8.8/TestContract.sol\":547:559  bool success */\n      0x00\n        /* \"Contract  ^0.8.8/TestContract.sol\":564:567  _to */\n      dup3\n        /* \"Contract  ^0.8.8/TestContract.sol\":564:572  _to.call */\n      0xffffffffffffffffffffffffffffffffffffffff\n      and\n        /* \"Contract  ^0.8.8/TestContract.sol\":579:580  1 */\n      0x01\n        /* \"Contract  ^0.8.8/TestContract.sol\":564:585  _to.call{value:1}(\"\") */\n      mload(0x40)\n      tag_21\n      swap1\n      tag_22\n      jump\t// in\n    tag_21:\n      0x00\n      mload(0x40)\n      dup1\n      dup4\n      sub\n      dup2\n      dup6\n      dup8\n      gas\n      call\n      swap3\n      pop\n      pop\n      pop\n      returndatasize\n      dup1\n      0x00\n      dup2\n      eq\n      tag_25\n      jumpi\n      mload(0x40)\n      swap2\n      pop\n      and(add(returndatasize, 0x3f), not(0x1f))\n      dup3\n      add\n      0x40\n      mstore\n      returndatasize\n      dup3\n      mstore\n      returndatasize\n      0x00\n      0x20\n      dup5\n      add\n      returndatacopy\n      jump(tag_24)\n    tag_25:\n      0x60\n      swap2\n      pop\n    tag_24:\n      pop\n        /* \"Contract  ^0.8.8/TestContract.sol\":546:585  (bool success, )= _to.call{value:1}(\"\") */\n      pop\n      swap1\n      pop\n        /* \"Contract  ^0.8.8/TestContract.sol\":603:610  success */\n      dup1\n        /* \"Contract  ^0.8.8/TestContract.sol\":595:626  require(success, \"call failed\") */\n      tag_26\n      jumpi\n      mload(0x40)\n      0x08c379a000000000000000000000000000000000000000000000000000000000\n      dup2\n      mstore\n      0x04\n      add\n      tag_27\n      swap1\n      tag_28\n      jump\t// in\n    tag_27:\n      mload(0x40)\n      dup1\n      swap2\n      sub\n      swap1\n      revert\n    tag_26:\n        /* \"Contract  ^0.8.8/TestContract.sol\":536:633  {... */\n      pop\n        /* \"Contract  ^0.8.8/TestContract.sol\":458:633  function sendViaCall(address payable _to) public payable OnlyOwner(msg.sender){... */\n      pop\n      pop\n      jump\t// out\n        /* \"Contract  ^0.8.8/TestContract.sol\":153:173  address public owner */\n    tag_13:\n      0x00\n      dup1\n      sload\n      swap1\n      0x0100\n      exp\n      swap1\n      div\n      0xffffffffffffffffffffffffffffffffffffffff\n      and\n      dup2\n      jump\t// out\n        /* \"#utility.yul\":88:205   */\n    tag_30:\n        /* \"#utility.yul\":197:198   */\n      0x00\n        /* \"#utility.yul\":194:195   */\n      dup1\n        /* \"#utility.yul\":187:199   */\n      revert\n        /* \"#utility.yul\":334:460   */\n    tag_32:\n        /* \"#utility.yul\":371:378   */\n      0x00\n        /* \"#utility.yul\":411:453   */\n      0xffffffffffffffffffffffffffffffffffffffff\n        /* \"#utility.yul\":404:409   */\n      dup3\n        /* \"#utility.yul\":400:454   */\n      and\n        /* \"#utility.yul\":389:454   */\n      swap1\n      pop\n        /* \"#utility.yul\":334:460   */\n      swap2\n      swap1\n      pop\n      jump\t// out\n        /* \"#utility.yul\":466:570   */\n    tag_33:\n        /* \"#utility.yul\":511:518   */\n      0x00\n        /* \"#utility.yul\":540:564   */\n      tag_52\n        /* \"#utility.yul\":558:563   */\n      dup3\n        /* \"#utility.yul\":540:564   */\n      tag_32\n      jump\t// in\n    tag_52:\n        /* \"#utility.yul\":529:564   */\n      swap1\n      pop\n        /* \"#utility.yul\":466:570   */\n      swap2\n      swap1\n      pop\n      jump\t// out\n        /* \"#utility.yul\":576:714   */\n    tag_34:\n        /* \"#utility.yul\":657:689   */\n      tag_54\n        /* \"#utility.yul\":683:688   */\n      dup2\n        /* \"#utility.yul\":657:689   */\n      tag_33\n      jump\t// in\n    tag_54:\n        /* \"#utility.yul\":650:655   */\n      dup2\n        /* \"#utility.yul\":647:690   */\n      eq\n        /* \"#utility.yul\":637:708   */\n      tag_55\n      jumpi\n        /* \"#utility.yul\":704:705   */\n      0x00\n        /* \"#utility.yul\":701:702   */\n      dup1\n        /* \"#utility.yul\":694:706   */\n      revert\n        /* \"#utility.yul\":637:708   */\n    tag_55:\n        /* \"#utility.yul\":576:714   */\n      pop\n      jump\t// out\n        /* \"#utility.yul\":720:875   */\n    tag_35:\n        /* \"#utility.yul\":774:779   */\n      0x00\n        /* \"#utility.yul\":812:818   */\n      dup2\n        /* \"#utility.yul\":799:819   */\n      calldataload\n        /* \"#utility.yul\":790:819   */\n      swap1\n      pop\n        /* \"#utility.yul\":828:869   */\n      tag_57\n        /* \"#utility.yul\":863:868   */\n      dup2\n        /* \"#utility.yul\":828:869   */\n      tag_34\n      jump\t// in\n    tag_57:\n        /* \"#utility.yul\":720:875   */\n      swap3\n      swap2\n      pop\n      pop\n      jump\t// out\n        /* \"#utility.yul\":881:1226   */\n    tag_9:\n        /* \"#utility.yul\":948:954   */\n      0x00\n        /* \"#utility.yul\":997:999   */\n      0x20\n        /* \"#utility.yul\":985:994   */\n      dup3\n        /* \"#utility.yul\":976:983   */\n      dup5\n        /* \"#utility.yul\":972:995   */\n      sub\n        /* \"#utility.yul\":968:1000   */\n      slt\n        /* \"#utility.yul\":965:1084   */\n      iszero\n      tag_59\n      jumpi\n        /* \"#utility.yul\":1003:1082   */\n      tag_60\n      tag_30\n      jump\t// in\n    tag_60:\n        /* \"#utility.yul\":965:1084   */\n    tag_59:\n        /* \"#utility.yul\":1123:1124   */\n      0x00\n        /* \"#utility.yul\":1148:1209   */\n      tag_61\n        /* \"#utility.yul\":1201:1208   */\n      dup5\n        /* \"#utility.yul\":1192:1198   */\n      dup3\n        /* \"#utility.yul\":1181:1190   */\n      dup6\n        /* \"#utility.yul\":1177:1199   */\n      add\n        /* \"#utility.yul\":1148:1209   */\n      tag_35\n      jump\t// in\n    tag_61:\n        /* \"#utility.yul\":1138:1209   */\n      swap2\n      pop\n        /* \"#utility.yul\":1094:1219   */\n      pop\n        /* \"#utility.yul\":881:1226   */\n      swap3\n      swap2\n      pop\n      pop\n      jump\t// out\n        /* \"#utility.yul\":1232:1328   */\n    tag_36:\n        /* \"#utility.yul\":1269:1276   */\n      0x00\n        /* \"#utility.yul\":1298:1322   */\n      tag_63\n        /* \"#utility.yul\":1316:1321   */\n      dup3\n        /* \"#utility.yul\":1298:1322   */\n      tag_32\n      jump\t// in\n    tag_63:\n        /* \"#utility.yul\":1287:1322   */\n      swap1\n      pop\n        /* \"#utility.yul\":1232:1328   */\n      swap2\n      swap1\n      pop\n      jump\t// out\n        /* \"#utility.yul\":1334:1452   */\n    tag_37:\n        /* \"#utility.yul\":1421:1445   */\n      tag_65\n        /* \"#utility.yul\":1439:1444   */\n      dup2\n        /* \"#utility.yul\":1421:1445   */\n      tag_36\n      jump\t// in\n    tag_65:\n        /* \"#utility.yul\":1416:1419   */\n      dup3\n        /* \"#utility.yul\":1409:1446   */\n      mstore\n        /* \"#utility.yul\":1334:1452   */\n      pop\n      pop\n      jump\t// out\n        /* \"#utility.yul\":1458:1680   */\n    tag_15:\n        /* \"#utility.yul\":1551:1555   */\n      0x00\n        /* \"#utility.yul\":1589:1591   */\n      0x20\n        /* \"#utility.yul\":1578:1587   */\n      dup3\n        /* \"#utility.yul\":1574:1592   */\n      add\n        /* \"#utility.yul\":1566:1592   */\n      swap1\n      pop\n        /* \"#utility.yul\":1602:1673   */\n      tag_67\n        /* \"#utility.yul\":1670:1671   */\n      0x00\n        /* \"#utility.yul\":1659:1668   */\n      dup4\n        /* \"#utility.yul\":1655:1672   */\n      add\n        /* \"#utility.yul\":1646:1652   */\n      dup5\n        /* \"#utility.yul\":1602:1673   */\n      tag_37\n      jump\t// in\n    tag_67:\n        /* \"#utility.yul\":1458:1680   */\n      swap3\n      swap2\n      pop\n      pop\n      jump\t// out\n        /* \"#utility.yul\":1686:1855   */\n    tag_38:\n        /* \"#utility.yul\":1770:1781   */\n      0x00\n        /* \"#utility.yul\":1804:1810   */\n      dup3\n        /* \"#utility.yul\":1799:1802   */\n      dup3\n        /* \"#utility.yul\":1792:1811   */\n      mstore\n        /* \"#utility.yul\":1844:1848   */\n      0x20\n        /* \"#utility.yul\":1839:1842   */\n      dup3\n        /* \"#utility.yul\":1835:1849   */\n      add\n        /* \"#utility.yul\":1820:1849   */\n      swap1\n      pop\n        /* \"#utility.yul\":1686:1855   */\n      swap3\n      swap2\n      pop\n      pop\n      jump\t// out\n        /* \"#utility.yul\":1861:2021   */\n    tag_39:\n        /* \"#utility.yul\":2001:2013   */\n      0x4f6e6c79206f776e657200000000000000000000000000000000000000000000\n        /* \"#utility.yul\":1997:1998   */\n      0x00\n        /* \"#utility.yul\":1989:1995   */\n      dup3\n        /* \"#utility.yul\":1985:1999   */\n      add\n        /* \"#utility.yul\":1978:2014   */\n      mstore\n        /* \"#utility.yul\":1861:2021   */\n      pop\n      jump\t// out\n        /* \"#utility.yul\":2027:2393   */\n    tag_40:\n        /* \"#utility.yul\":2169:2172   */\n      0x00\n        /* \"#utility.yul\":2190:2257   */\n      tag_71\n        /* \"#utility.yul\":2254:2256   */\n      0x0a\n        /* \"#utility.yul\":2249:2252   */\n      dup4\n        /* \"#utility.yul\":2190:2257   */\n      tag_38\n      jump\t// in\n    tag_71:\n        /* \"#utility.yul\":2183:2257   */\n      swap2\n      pop\n        /* \"#utility.yul\":2266:2359   */\n      tag_72\n        /* \"#utility.yul\":2355:2358   */\n      dup3\n        /* \"#utility.yul\":2266:2359   */\n      tag_39\n      jump\t// in\n    tag_72:\n        /* \"#utility.yul\":2384:2386   */\n      0x20\n        /* \"#utility.yul\":2379:2382   */\n      dup3\n        /* \"#utility.yul\":2375:2387   */\n      add\n        /* \"#utility.yul\":2368:2387   */\n      swap1\n      pop\n        /* \"#utility.yul\":2027:2393   */\n      swap2\n      swap1\n      pop\n      jump\t// out\n        /* \"#utility.yul\":2399:2818   */\n    tag_19:\n        /* \"#utility.yul\":2565:2569   */\n      0x00\n        /* \"#utility.yul\":2603:2605   */\n      0x20\n        /* \"#utility.yul\":2592:2601   */\n      dup3\n        /* \"#utility.yul\":2588:2606   */\n      add\n        /* \"#utility.yul\":2580:2606   */\n      swap1\n      pop\n        /* \"#utility.yul\":2652:2661   */\n      dup2\n        /* \"#utility.yul\":2646:2650   */\n      dup2\n        /* \"#utility.yul\":2642:2662   */\n      sub\n        /* \"#utility.yul\":2638:2639   */\n      0x00\n        /* \"#utility.yul\":2627:2636   */\n      dup4\n        /* \"#utility.yul\":2623:2640   */\n      add\n        /* \"#utility.yul\":2616:2663   */\n      mstore\n        /* \"#utility.yul\":2680:2811   */\n      tag_74\n        /* \"#utility.yul\":2806:2810   */\n      dup2\n        /* \"#utility.yul\":2680:2811   */\n      tag_40\n      jump\t// in\n    tag_74:\n        /* \"#utility.yul\":2672:2811   */\n      swap1\n      pop\n        /* \"#utility.yul\":2399:2818   */\n      swap2\n      swap1\n      pop\n      jump\t// out\n        /* \"#utility.yul\":2824:2971   */\n    tag_41:\n        /* \"#utility.yul\":2925:2936   */\n      0x00\n        /* \"#utility.yul\":2962:2965   */\n      dup2\n        /* \"#utility.yul\":2947:2965   */\n      swap1\n      pop\n        /* \"#utility.yul\":2824:2971   */\n      swap3\n      swap2\n      pop\n      pop\n      jump\t// out\n        /* \"#utility.yul\":2977:3091   */\n    tag_42:\n      pop\n      jump\t// out\n        /* \"#utility.yul\":3097:3495   */\n    tag_43:\n        /* \"#utility.yul\":3256:3259   */\n      0x00\n        /* \"#utility.yul\":3277:3360   */\n      tag_78\n        /* \"#utility.yul\":3358:3359   */\n      0x00\n        /* \"#utility.yul\":3353:3356   */\n      dup4\n        /* \"#utility.yul\":3277:3360   */\n      tag_41\n      jump\t// in\n    tag_78:\n        /* \"#utility.yul\":3270:3360   */\n      swap2\n      pop\n        /* \"#utility.yul\":3369:3462   */\n      tag_79\n        /* \"#utility.yul\":3458:3461   */\n      dup3\n        /* \"#utility.yul\":3369:3462   */\n      tag_42\n      jump\t// in\n    tag_79:\n        /* \"#utility.yul\":3487:3488   */\n      0x00\n        /* \"#utility.yul\":3482:3485   */\n      dup3\n        /* \"#utility.yul\":3478:3489   */\n      add\n        /* \"#utility.yul\":3471:3489   */\n      swap1\n      pop\n        /* \"#utility.yul\":3097:3495   */\n      swap2\n      swap1\n      pop\n      jump\t// out\n        /* \"#utility.yul\":3501:3880   */\n    tag_22:\n        /* \"#utility.yul\":3685:3688   */\n      0x00\n        /* \"#utility.yul\":3707:3854   */\n      tag_81\n        /* \"#utility.yul\":3850:3853   */\n      dup3\n        /* \"#utility.yul\":3707:3854   */\n      tag_43\n      jump\t// in\n    tag_81:\n        /* \"#utility.yul\":3700:3854   */\n      swap2\n      pop\n        /* \"#utility.yul\":3871:3874   */\n      dup2\n        /* \"#utility.yul\":3864:3874   */\n      swap1\n      pop\n        /* \"#utility.yul\":3501:3880   */\n      swap2\n      swap1\n      pop\n      jump\t// out\n        /* \"#utility.yul\":3886:4047   */\n    tag_44:\n        /* \"#utility.yul\":4026:4039   */\n      0x63616c6c206661696c6564000000000000000000000000000000000000000000\n        /* \"#utility.yul\":4022:4023   */\n      0x00\n        /* \"#utility.yul\":4014:4020   */\n      dup3\n        /* \"#utility.yul\":4010:4024   */\n      add\n        /* \"#utility.yul\":4003:4040   */\n      mstore\n        /* \"#utility.yul\":3886:4047   */\n      pop\n      jump\t// out\n        /* \"#utility.yul\":4053:4419   */\n    tag_45:\n        /* \"#utility.yul\":4195:4198   */\n      0x00\n        /* \"#utility.yul\":4216:4283   */\n      tag_84\n        /* \"#utility.yul\":4280:4282   */\n      0x0b\n        /* \"#utility.yul\":4275:4278   */\n      dup4\n        /* \"#utility.yul\":4216:4283   */\n      tag_38\n      jump\t// in\n    tag_84:\n        /* \"#utility.yul\":4209:4283   */\n      swap2\n      pop\n        /* \"#utility.yul\":4292:4385   */\n      tag_85\n        /* \"#utility.yul\":4381:4384   */\n      dup3\n        /* \"#utility.yul\":4292:4385   */\n      tag_44\n      jump\t// in\n    tag_85:\n        /* \"#utility.yul\":4410:4412   */\n      0x20\n        /* \"#utility.yul\":4405:4408   */\n      dup3\n        /* \"#utility.yul\":4401:4413   */\n      add\n        /* \"#utility.yul\":4394:4413   */\n      swap1\n      pop\n        /* \"#utility.yul\":4053:4419   */\n      swap2\n      swap1\n      pop\n      jump\t// out\n        /* \"#utility.yul\":4425:4844   */\n    tag_28:\n        /* \"#utility.yul\":4591:4595   */\n      0x00\n        /* \"#utility.yul\":4629:4631   */\n      0x20\n        /* \"#utility.yul\":4618:4627   */\n      dup3\n        /* \"#utility.yul\":4614:4632   */\n      add\n        /* \"#utility.yul\":4606:4632   */\n      swap1\n      pop\n        /* \"#utility.yul\":4678:4687   */\n      dup2\n        /* \"#utility.yul\":4672:4676   */\n      dup2\n        /* \"#utility.yul\":4668:4688   */\n      sub\n        /* \"#utility.yul\":4664:4665   */\n      0x00\n        /* \"#utility.yul\":4653:4662   */\n      dup4\n        /* \"#utility.yul\":4649:4666   */\n      add\n        /* \"#utility.yul\":4642:4689   */\n      mstore\n        /* \"#utility.yul\":4706:4837   */\n      tag_87\n        /* \"#utility.yul\":4832:4836   */\n      dup2\n        /* \"#utility.yul\":4706:4837   */\n      tag_45\n      jump\t// in\n    tag_87:\n        /* \"#utility.yul\":4698:4837   */\n      swap1\n      pop\n        /* \"#utility.yul\":4425:4844   */\n      swap2\n      swap1\n      pop\n      jump\t// out\n\n    auxdata: 0xa26469706673582212201d59124d4fe85dccb752ece9c387a53723deb9e8eff60daa85ab11942779bff064736f6c63430008080033\n}\n",
				"bytecode": {
					"linkReferences": {},
					"object": "6080604052336000806101000a81548173ffffffffffffffffffffffffffffffffffffffff021916908373ffffffffffffffffffffffffffffffffffffffff160217905550610416806100536000396000f3fe60806040526004361061002d5760003560e01c8063830c29ae146100395780638da5cb5b1461005557610034565b3661003457005b600080fd5b610053600480360381019061004e9190610248565b610080565b005b34801561006157600080fd5b5061006a6101c1565b6040516100779190610296565b60405180910390f35b3360008054906101000a900473ffffffffffffffffffffffffffffffffffffffff1673ffffffffffffffffffffffffffffffffffffffff163373ffffffffffffffffffffffffffffffffffffffff161461010f576040517f08c379a00000000000000000000000000000000000000000000000000000000081526004016101069061030e565b60405180910390fd5b60008273ffffffffffffffffffffffffffffffffffffffff1660016040516101369061035f565b60006040518083038185875af1925050503d8060008114610173576040519150601f19603f3d011682016040523d82523d6000602084013e610178565b606091505b50509050806101bc576040517f08c379a00000000000000000000000000000000000000000000000000000000081526004016101b3906103c0565b60405180910390fd5b505050565b60008054906101000a900473ffffffffffffffffffffffffffffffffffffffff1681565b600080fd5b600073ffffffffffffffffffffffffffffffffffffffff82169050919050565b6000610215826101ea565b9050919050565b6102258161020a565b811461023057600080fd5b50565b6000813590506102428161021c565b92915050565b60006020828403121561025e5761025d6101e5565b5b600061026c84828501610233565b91505092915050565b6000610280826101ea565b9050919050565b61029081610275565b82525050565b60006020820190506102ab6000830184610287565b92915050565b600082825260208201905092915050565b7f4f6e6c79206f776e657200000000000000000000000000000000000000000000600082015250565b60006102f8600a836102b1565b9150610303826102c2565b602082019050919050565b60006020820190508181036000830152610327816102eb565b9050919050565b600081905092915050565b50565b600061034960008361032e565b915061035482610339565b600082019050919050565b600061036a8261033c565b9150819050919050565b7f63616c6c206661696c6564000000000000000000000000000000000000000000600082015250565b60006103aa600b836102b1565b91506103b582610374565b602082019050919050565b600060208201905081810360008301526103d98161039d565b905091905056fea26469706673582212201d59124d4fe85dccb752ece9c387a53723deb9e8eff60daa85ab11942779bff064736f6c63430008080033",
					"opcodes": "PUSH1 0x80 PUSH1 0x40 MSTORE CALLER PUSH1 0x0 DUP1 PUSH2 0x100 EXP DUP2 SLOAD DUP2 PUSH20 0xFFFFFFFFFFFFFFFFFFFFFFFFFFFFFFFFFFFFFFFF MUL NOT AND SWAP1 DUP4 PUSH20 0xFFFFFFFFFFFFFFFFFFFFFFFFFFFFFFFFFFFFFFFF AND MUL OR SWAP1 SSTORE POP PUSH2 0x416 DUP1 PUSH2 0x53 PUSH1 0x0 CODECOPY PUSH1 0x0 RETURN INVALID PUSH1 0x80 PUSH1 0x40 MSTORE PUSH1 0x4 CALLDATASIZE LT PUSH2 0x2D JUMPI PUSH1 0x0 CALLDATALOAD PUSH1 0xE0 SHR DUP1 PUSH4 0x830C29AE EQ PUSH2 0x39 JUMPI DUP1 PUSH4 0x8DA5CB5B EQ PUSH2 0x55 JUMPI PUSH2 0x34 JUMP JUMPDEST CALLDATASIZE PUSH2 0x34 JUMPI STOP JUMPDEST PUSH1 0x0 DUP1 REVERT JUMPDEST PUSH2 0x53 PUSH1 0x4 DUP1 CALLDATASIZE SUB DUP2 ADD SWAP1 PUSH2 0x4E SWAP2 SWAP1 PUSH2 0x248 JUMP JUMPDEST PUSH2 0x80 JUMP JUMPDEST STOP JUMPDEST CALLVALUE DUP1 ISZERO PUSH2 0x61 JUMPI PUSH1 0x0 DUP1 REVERT JUMPDEST POP PUSH2 0x6A PUSH2 0x1C1 JUMP JUMPDEST PUSH1 0x40 MLOAD PUSH2 0x77 SWAP2 SWAP1 PUSH2 0x296 JUMP JUMPDEST PUSH1 0x40 MLOAD DUP1 SWAP2 SUB SWAP1 RETURN JUMPDEST CALLER PUSH1 0x0 DUP1 SLOAD SWAP1 PUSH2 0x100 EXP SWAP1 DIV PUSH20 0xFFFFFFFFFFFFFFFFFFFFFFFFFFFFFFFFFFFFFFFF AND PUSH20 0xFFFFFFFFFFFFFFFFFFFFFFFFFFFFFFFFFFFFFFFF AND CALLER PUSH20 0xFFFFFFFFFFFFFFFFFFFFFFFFFFFFFFFFFFFFFFFF AND EQ PUSH2 0x10F JUMPI PUSH1 0x40 MLOAD PUSH32 0x8C379A000000000000000000000000000000000000000000000000000000000 DUP2 MSTORE PUSH1 0x4 ADD PUSH2 0x106 SWAP1 PUSH2 0x30E JUMP JUMPDEST PUSH1 0x40 MLOAD DUP1 SWAP2 SUB SWAP1 REVERT JUMPDEST PUSH1 0x0 DUP3 PUSH20 0xFFFFFFFFFFFFFFFFFFFFFFFFFFFFFFFFFFFFFFFF AND PUSH1 0x1 PUSH1 0x40 MLOAD PUSH2 0x136 SWAP1 PUSH2 0x35F JUMP JUMPDEST PUSH1 0x0 PUSH1 0x40 MLOAD DUP1 DUP4 SUB DUP2 DUP6 DUP8 GAS CALL SWAP3 POP POP POP RETURNDATASIZE DUP1 PUSH1 0x0 DUP2 EQ PUSH2 0x173 JUMPI PUSH1 0x40 MLOAD SWAP2 POP PUSH1 0x1F NOT PUSH1 0x3F RETURNDATASIZE ADD AND DUP3 ADD PUSH1 0x40 MSTORE RETURNDATASIZE DUP3 MSTORE RETURNDATASIZE PUSH1 0x0 PUSH1 0x20 DUP5 ADD RETURNDATACOPY PUSH2 0x178 JUMP JUMPDEST PUSH1 0x60 SWAP2 POP JUMPDEST POP POP SWAP1 POP DUP1 PUSH2 0x1BC JUMPI PUSH1 0x40 MLOAD PUSH32 0x8C379A000000000000000000000000000000000000000000000000000000000 DUP2 MSTORE PUSH1 0x4 ADD PUSH2 0x1B3 SWAP1 PUSH2 0x3C0 JUMP JUMPDEST PUSH1 0x40 MLOAD DUP1 SWAP2 SUB SWAP1 REVERT JUMPDEST POP POP POP JUMP JUMPDEST PUSH1 0x0 DUP1 SLOAD SWAP1 PUSH2 0x100 EXP SWAP1 DIV PUSH20 0xFFFFFFFFFFFFFFFFFFFFFFFFFFFFFFFFFFFFFFFF AND DUP2 JUMP JUMPDEST PUSH1 0x0 DUP1 REVERT JUMPDEST PUSH1 0x0 PUSH20 0xFFFFFFFFFFFFFFFFFFFFFFFFFFFFFFFFFFFFFFFF DUP3 AND SWAP1 POP SWAP2 SWAP1 POP JUMP JUMPDEST PUSH1 0x0 PUSH2 0x215 DUP3 PUSH2 0x1EA JUMP JUMPDEST SWAP1 POP SWAP2 SWAP1 POP JUMP JUMPDEST PUSH2 0x225 DUP2 PUSH2 0x20A JUMP JUMPDEST DUP2 EQ PUSH2 0x230 JUMPI PUSH1 0x0 DUP1 REVERT JUMPDEST POP JUMP JUMPDEST PUSH1 0x0 DUP2 CALLDATALOAD SWAP1 POP PUSH2 0x242 DUP2 PUSH2 0x21C JUMP JUMPDEST SWAP3 SWAP2 POP POP JUMP JUMPDEST PUSH1 0x0 PUSH1 0x20 DUP3 DUP5 SUB SLT ISZERO PUSH2 0x25E JUMPI PUSH2 0x25D PUSH2 0x1E5 JUMP JUMPDEST JUMPDEST PUSH1 0x0 PUSH2 0x26C DUP5 DUP3 DUP6 ADD PUSH2 0x233 JUMP JUMPDEST SWAP2 POP POP SWAP3 SWAP2 POP POP JUMP JUMPDEST PUSH1 0x0 PUSH2 0x280 DUP3 PUSH2 0x1EA JUMP JUMPDEST SWAP1 POP SWAP2 SWAP1 POP JUMP JUMPDEST PUSH2 0x290 DUP2 PUSH2 0x275 JUMP JUMPDEST DUP3 MSTORE POP POP JUMP JUMPDEST PUSH1 0x0 PUSH1 0x20 DUP3 ADD SWAP1 POP PUSH2 0x2AB PUSH1 0x0 DUP4 ADD DUP5 PUSH2 0x287 JUMP JUMPDEST SWAP3 SWAP2 POP POP JUMP JUMPDEST PUSH1 0x0 DUP3 DUP3 MSTORE PUSH1 0x20 DUP3 ADD SWAP1 POP SWAP3 SWAP2 POP POP JUMP JUMPDEST PUSH32 0x4F6E6C79206F776E657200000000000000000000000000000000000000000000 PUSH1 0x0 DUP3 ADD MSTORE POP JUMP JUMPDEST PUSH1 0x0 PUSH2 0x2F8 PUSH1 0xA DUP4 PUSH2 0x2B1 JUMP JUMPDEST SWAP2 POP PUSH2 0x303 DUP3 PUSH2 0x2C2 JUMP JUMPDEST PUSH1 0x20 DUP3 ADD SWAP1 POP SWAP2 SWAP1 POP JUMP JUMPDEST PUSH1 0x0 PUSH1 0x20 DUP3 ADD SWAP1 POP DUP2 DUP2 SUB PUSH1 0x0 DUP4 ADD MSTORE PUSH2 0x327 DUP2 PUSH2 0x2EB JUMP JUMPDEST SWAP1 POP SWAP2 SWAP1 POP JUMP JUMPDEST PUSH1 0x0 DUP2 SWAP1 POP SWAP3 SWAP2 POP POP JUMP JUMPDEST POP JUMP JUMPDEST PUSH1 0x0 PUSH2 0x349 PUSH1 0x0 DUP4 PUSH2 0x32E JUMP JUMPDEST SWAP2 POP PUSH2 0x354 DUP3 PUSH2 0x339 JUMP JUMPDEST PUSH1 0x0 DUP3 ADD SWAP1 POP SWAP2 SWAP1 POP JUMP JUMPDEST PUSH1 0x0 PUSH2 0x36A DUP3 PUSH2 0x33C JUMP JUMPDEST SWAP2 POP DUP2 SWAP1 POP SWAP2 SWAP1 POP JUMP JUMPDEST PUSH32 0x63616C6C206661696C6564000000000000000000000000000000000000000000 PUSH1 0x0 DUP3 ADD MSTORE POP JUMP JUMPDEST PUSH1 0x0 PUSH2 0x3AA PUSH1 0xB DUP4 PUSH2 0x2B1 JUMP JUMPDEST SWAP2 POP PUSH2 0x3B5 DUP3 PUSH2 0x374 JUMP JUMPDEST PUSH1 0x20 DUP3 ADD SWAP1 POP SWAP2 SWAP1 POP JUMP JUMPDEST PUSH1 0x0 PUSH1 0x20 DUP3 ADD SWAP1 POP DUP2 DUP2 SUB PUSH1 0x0 DUP4 ADD MSTORE PUSH2 0x3D9 DUP2 PUSH2 0x39D JUMP JUMPDEST SWAP1 POP SWAP2 SWAP1 POP JUMP INVALID LOG2 PUSH5 0x6970667358 0x22 SLT KECCAK256 SAR MSIZE SLT 0x4D 0x4F 0xE8 0x5D 0xCC 0xB7 MSTORE 0xEC 0xE9 0xC3 DUP8 0xA5 CALLDATACOPY 0x23 0xDE 0xB9 0xE8 0xEF 0xF6 0xD 0xAA DUP6 0xAB GT SWAP5 0x27 PUSH26 0xBFF064736F6C6343000808003300000000000000000000000000 "
				},
				"gasEstimates": {
					"creation": {
						"codeDepositCost": "209200",
						"executionCost": "24493",
						"totalCost": "233693"
					},
					"external": {
						"owner()": "2511",
						"sendViaCall(address)": "infinite"
					}
				},
				"methodIdentifiers": {
					"owner()": "8da5cb5b",
					"sendViaCall(address)": "830c29ae"
				}
			},
			"storageLayout": {
				"storage": [
					{
						"astId": 50,
						"contract": "Contract  ^0.8.8/TestContract.sol:Test1",
						"label": "owner",
						"offset": 0,
						"slot": "0",
						"type": "t_address"
					}
				],
				"types": {
					"t_address": {
						"encoding": "inplace",
						"label": "address",
						"numberOfBytes": "20"
					}
				}
			},
			"userdoc": {
				"kind": "user",
				"methods": {},
				"version": 1
			}
		}
	}
}