{
	"Contract  ^0.8.8/CalculatorTester.sol": {
		"CalculatroTester": {
			"abi": [
				{
					"inputs": [],
					"name": "EthPrice",
					"outputs": [
						{
							"internalType": "uint256",
							"name": "",
							"type": "uint256"
						}
					],
					"stateMutability": "view",
					"type": "function"
				},
				{
					"inputs": [],
					"name": "decimals",
					"outputs": [
						{
							"internalType": "uint8",
							"name": "",
							"type": "uint8"
						}
					],
					"stateMutability": "view",
					"type": "function"
				},
				{
					"inputs": [],
					"name": "getEth",
					"outputs": [],
					"stateMutability": "nonpayable",
					"type": "function"
				},
				{
					"inputs": [],
					"name": "multiplicationOfRestDecimals",
					"outputs": [
						{
							"internalType": "uint256",
							"name": "",
							"type": "uint256"
						}
					],
					"stateMutability": "view",
					"type": "function"
				},
				{
					"inputs": [],
					"name": "price",
					"outputs": [
						{
							"internalType": "int256",
							"name": "",
							"type": "int256"
						}
					],
					"stateMutability": "view",
					"type": "function"
				},
				{
					"inputs": [],
					"name": "restDecimals",
					"outputs": [
						{
							"internalType": "uint8",
							"name": "",
							"type": "uint8"
						}
					],
					"stateMutability": "view",
					"type": "function"
				},
				{
					"inputs": [
						{
							"internalType": "uint8",
							"name": "_val",
							"type": "uint8"
						}
					],
					"name": "setDecimals",
					"outputs": [],
					"stateMutability": "nonpayable",
					"type": "function"
				}
			],
			"devdoc": {
				"kind": "dev",
				"methods": {},
				"version": 1
			},
			"evm": {
				"assembly": "    /* \"Contract  ^0.8.8/CalculatorTester.sol\":56:507  contract CalculatroTester{... */\n  mstore(0x40, 0x80)\n    /* \"Contract  ^0.8.8/CalculatorTester.sol\":140:141  8 */\n  0x08\n    /* \"Contract  ^0.8.8/CalculatorTester.sol\":118:141  uint8 public decimals=8 */\n  0x01\n  exp(0x0100, 0x00)\n  dup2\n  sload\n  dup2\n  0xff\n  mul\n  not\n  and\n  swap1\n  dup4\n  0xff\n  and\n  mul\n  or\n  swap1\n  sstore\n  pop\n    /* \"Contract  ^0.8.8/CalculatorTester.sol\":167:179  188020801619 */\n  0x2bc6e9c053\n    /* \"Contract  ^0.8.8/CalculatorTester.sol\":147:179  int256 public price=188020801619 */\n  0x02\n  sstore\n    /* \"Contract  ^0.8.8/CalculatorTester.sol\":214:222  decimals */\n  0x01\n  0x00\n  swap1\n  sload\n  swap1\n  0x0100\n  exp\n  swap1\n  div\n  0xff\n  and\n    /* \"Contract  ^0.8.8/CalculatorTester.sol\":211:213  18 */\n  0x12\n    /* \"Contract  ^0.8.8/CalculatorTester.sol\":211:222  18-decimals */\n  tag_1\n  swap2\n  swap1\n  tag_2\n  jump\t// in\ntag_1:\n    /* \"Contract  ^0.8.8/CalculatorTester.sol\":185:222  uint8 public restDecimals=18-decimals */\n  0x03\n  exp(0x0100, 0x00)\n  dup2\n  sload\n  dup2\n  0xff\n  mul\n  not\n  and\n  swap1\n  dup4\n  0xff\n  and\n  mul\n  or\n  swap1\n  sstore\n  pop\n    /* \"Contract  ^0.8.8/CalculatorTester.sol\":278:290  restDecimals */\n  0x03\n  0x00\n  swap1\n  sload\n  swap1\n  0x0100\n  exp\n  swap1\n  div\n  0xff\n  and\n    /* \"Contract  ^0.8.8/CalculatorTester.sol\":274:275  1 */\n  0x01\n    /* \"Contract  ^0.8.8/CalculatorTester.sol\":274:291  1**(restDecimals) */\n  tag_3\n  swap2\n  swap1\n  tag_4\n  jump\t// in\ntag_3:\n    /* \"Contract  ^0.8.8/CalculatorTester.sol\":228:291  uint256 public multiplicationOfRestDecimals = 1**(restDecimals) */\n  0x04\n  sstore\n    /* \"Contract  ^0.8.8/CalculatorTester.sol\":56:507  contract CalculatroTester{... */\n  callvalue\n  dup1\n  iszero\n  tag_5\n  jumpi\n  0x00\n  dup1\n  revert\ntag_5:\n  pop\n  jump(tag_6)\n    /* \"#utility.yul\":7:93   */\ntag_7:\n    /* \"#utility.yul\":42:49   */\n  0x00\n    /* \"#utility.yul\":82:86   */\n  0xff\n    /* \"#utility.yul\":75:80   */\n  dup3\n    /* \"#utility.yul\":71:87   */\n  and\n    /* \"#utility.yul\":60:87   */\n  swap1\n  pop\n    /* \"#utility.yul\":7:93   */\n  swap2\n  swap1\n  pop\n  jump\t// out\n    /* \"#utility.yul\":99:279   */\ntag_8:\n    /* \"#utility.yul\":147:224   */\n  0x4e487b7100000000000000000000000000000000000000000000000000000000\n    /* \"#utility.yul\":144:145   */\n  0x00\n    /* \"#utility.yul\":137:225   */\n  mstore\n    /* \"#utility.yul\":244:248   */\n  0x11\n    /* \"#utility.yul\":241:242   */\n  0x04\n    /* \"#utility.yul\":234:249   */\n  mstore\n    /* \"#utility.yul\":268:272   */\n  0x24\n    /* \"#utility.yul\":265:266   */\n  0x00\n    /* \"#utility.yul\":258:273   */\n  revert\n    /* \"#utility.yul\":285:470   */\ntag_2:\n    /* \"#utility.yul\":323:327   */\n  0x00\n    /* \"#utility.yul\":343:361   */\n  tag_17\n    /* \"#utility.yul\":359:360   */\n  dup3\n    /* \"#utility.yul\":343:361   */\n  tag_7\n  jump\t// in\ntag_17:\n    /* \"#utility.yul\":338:361   */\n  swap2\n  pop\n    /* \"#utility.yul\":375:393   */\n  tag_18\n    /* \"#utility.yul\":391:392   */\n  dup4\n    /* \"#utility.yul\":375:393   */\n  tag_7\n  jump\t// in\ntag_18:\n    /* \"#utility.yul\":370:393   */\n  swap3\n  pop\n    /* \"#utility.yul\":412:413   */\n  dup3\n    /* \"#utility.yul\":409:410   */\n  dup3\n    /* \"#utility.yul\":406:414   */\n  lt\n    /* \"#utility.yul\":403:437   */\n  iszero\n  tag_19\n  jumpi\n    /* \"#utility.yul\":417:435   */\n  tag_20\n  tag_8\n  jump\t// in\ntag_20:\n    /* \"#utility.yul\":403:437   */\ntag_19:\n    /* \"#utility.yul\":462:463   */\n  dup3\n    /* \"#utility.yul\":459:460   */\n  dup3\n    /* \"#utility.yul\":455:464   */\n  sub\n    /* \"#utility.yul\":447:464   */\n  swap1\n  pop\n    /* \"#utility.yul\":285:470   */\n  swap3\n  swap2\n  pop\n  pop\n  jump\t// out\n    /* \"#utility.yul\":476:578   */\ntag_9:\n    /* \"#utility.yul\":518:526   */\n  0x00\n    /* \"#utility.yul\":565:570   */\n  dup2\n    /* \"#utility.yul\":562:563   */\n  0x01\n    /* \"#utility.yul\":558:571   */\n  shr\n    /* \"#utility.yul\":537:571   */\n  swap1\n  pop\n    /* \"#utility.yul\":476:578   */\n  swap2\n  swap1\n  pop\n  jump\t// out\n    /* \"#utility.yul\":584:1432   */\ntag_10:\n    /* \"#utility.yul\":645:650   */\n  0x00\n    /* \"#utility.yul\":652:656   */\n  dup1\n    /* \"#utility.yul\":676:682   */\n  dup3\n    /* \"#utility.yul\":667:682   */\n  swap2\n  pop\n    /* \"#utility.yul\":700:705   */\n  dup4\n    /* \"#utility.yul\":691:705   */\n  swap1\n  pop\n    /* \"#utility.yul\":714:1426   */\ntag_23:\n    /* \"#utility.yul\":735:736   */\n  0x01\n    /* \"#utility.yul\":725:733   */\n  dup6\n    /* \"#utility.yul\":722:737   */\n  gt\n    /* \"#utility.yul\":714:1426   */\n  iszero\n  tag_25\n  jumpi\n    /* \"#utility.yul\":830:834   */\n  dup1\n    /* \"#utility.yul\":825:828   */\n  dup7\n    /* \"#utility.yul\":821:835   */\n  div\n    /* \"#utility.yul\":815:819   */\n  dup2\n    /* \"#utility.yul\":812:836   */\n  gt\n    /* \"#utility.yul\":809:859   */\n  iszero\n  tag_26\n  jumpi\n    /* \"#utility.yul\":839:857   */\n  tag_27\n  tag_8\n  jump\t// in\ntag_27:\n    /* \"#utility.yul\":809:859   */\ntag_26:\n    /* \"#utility.yul\":889:890   */\n  0x01\n    /* \"#utility.yul\":879:887   */\n  dup6\n    /* \"#utility.yul\":875:891   */\n  and\n    /* \"#utility.yul\":872:1323   */\n  iszero\n  tag_28\n  jumpi\n    /* \"#utility.yul\":1304:1308   */\n  dup1\n    /* \"#utility.yul\":1297:1302   */\n  dup3\n    /* \"#utility.yul\":1293:1309   */\n  mul\n    /* \"#utility.yul\":1284:1309   */\n  swap2\n  pop\n    /* \"#utility.yul\":872:1323   */\ntag_28:\n    /* \"#utility.yul\":1354:1358   */\n  dup1\n    /* \"#utility.yul\":1348:1352   */\n  dup2\n    /* \"#utility.yul\":1344:1359   */\n  mul\n    /* \"#utility.yul\":1336:1359   */\n  swap1\n  pop\n    /* \"#utility.yul\":1384:1416   */\n  tag_29\n    /* \"#utility.yul\":1407:1415   */\n  dup6\n    /* \"#utility.yul\":1384:1416   */\n  tag_9\n  jump\t// in\ntag_29:\n    /* \"#utility.yul\":1372:1416   */\n  swap5\n  pop\n    /* \"#utility.yul\":714:1426   */\n  jump(tag_23)\ntag_25:\n    /* \"#utility.yul\":584:1432   */\n  swap5\n  pop\n  swap5\n  swap3\n  pop\n  pop\n  pop\n  jump\t// out\n    /* \"#utility.yul\":1438:2511   */\ntag_11:\n    /* \"#utility.yul\":1492:1497   */\n  0x00\n    /* \"#utility.yul\":1683:1691   */\n  dup3\n    /* \"#utility.yul\":1673:1713   */\n  tag_31\n  jumpi\n    /* \"#utility.yul\":1704:1705   */\n  0x01\n    /* \"#utility.yul\":1695:1705   */\n  swap1\n  pop\n    /* \"#utility.yul\":1706:1711   */\n  jump(tag_30)\n    /* \"#utility.yul\":1673:1713   */\ntag_31:\n    /* \"#utility.yul\":1732:1736   */\n  dup2\n    /* \"#utility.yul\":1722:1758   */\n  tag_32\n  jumpi\n    /* \"#utility.yul\":1749:1750   */\n  0x00\n    /* \"#utility.yul\":1740:1750   */\n  swap1\n  pop\n    /* \"#utility.yul\":1751:1756   */\n  jump(tag_30)\n    /* \"#utility.yul\":1722:1758   */\ntag_32:\n    /* \"#utility.yul\":1818:1822   */\n  dup2\n    /* \"#utility.yul\":1866:1867   */\n  0x01\n    /* \"#utility.yul\":1861:1888   */\n  dup2\n  eq\n  tag_34\n  jumpi\n    /* \"#utility.yul\":1902:1903   */\n  0x02\n    /* \"#utility.yul\":1897:2088   */\n  dup2\n  eq\n  tag_35\n  jumpi\n    /* \"#utility.yul\":1811:2088   */\n  jump(tag_33)\n    /* \"#utility.yul\":1861:1888   */\ntag_34:\n    /* \"#utility.yul\":1879:1880   */\n  0x01\n    /* \"#utility.yul\":1870:1880   */\n  swap2\n  pop\n    /* \"#utility.yul\":1881:1886   */\n  pop\n  jump(tag_30)\n    /* \"#utility.yul\":1897:2088   */\ntag_35:\n    /* \"#utility.yul\":1942:1945   */\n  0xff\n    /* \"#utility.yul\":1932:1940   */\n  dup5\n    /* \"#utility.yul\":1929:1946   */\n  gt\n    /* \"#utility.yul\":1926:1969   */\n  iszero\n  tag_36\n  jumpi\n    /* \"#utility.yul\":1949:1967   */\n  tag_37\n  tag_8\n  jump\t// in\ntag_37:\n    /* \"#utility.yul\":1926:1969   */\ntag_36:\n    /* \"#utility.yul\":1998:2006   */\n  dup4\n    /* \"#utility.yul\":1995:1996   */\n  0x02\n    /* \"#utility.yul\":1991:2007   */\n  exp\n    /* \"#utility.yul\":1982:2007   */\n  swap2\n  pop\n    /* \"#utility.yul\":2033:2036   */\n  dup5\n    /* \"#utility.yul\":2026:2031   */\n  dup3\n    /* \"#utility.yul\":2023:2037   */\n  gt\n    /* \"#utility.yul\":2020:2060   */\n  iszero\n  tag_38\n  jumpi\n    /* \"#utility.yul\":2040:2058   */\n  tag_39\n  tag_8\n  jump\t// in\ntag_39:\n    /* \"#utility.yul\":2020:2060   */\ntag_38:\n    /* \"#utility.yul\":2073:2078   */\n  pop\n  jump(tag_30)\n    /* \"#utility.yul\":1811:2088   */\ntag_33:\n  pop\n    /* \"#utility.yul\":2197:2199   */\n  0x20\n    /* \"#utility.yul\":2187:2195   */\n  dup4\n    /* \"#utility.yul\":2184:2200   */\n  lt\n    /* \"#utility.yul\":2178:2181   */\n  0x0133\n    /* \"#utility.yul\":2172:2176   */\n  dup4\n    /* \"#utility.yul\":2169:2182   */\n  lt\n    /* \"#utility.yul\":2165:2201   */\n  and\n    /* \"#utility.yul\":2147:2149   */\n  0x4e\n    /* \"#utility.yul\":2137:2145   */\n  dup5\n    /* \"#utility.yul\":2134:2150   */\n  lt\n    /* \"#utility.yul\":2129:2131   */\n  0x0b\n    /* \"#utility.yul\":2123:2127   */\n  dup5\n    /* \"#utility.yul\":2120:2132   */\n  lt\n    /* \"#utility.yul\":2116:2151   */\n  and\n    /* \"#utility.yul\":2100:2211   */\n  or\n    /* \"#utility.yul\":2097:2343   */\n  iszero\n  tag_40\n  jumpi\n    /* \"#utility.yul\":2253:2261   */\n  dup3\n    /* \"#utility.yul\":2247:2251   */\n  dup3\n    /* \"#utility.yul\":2243:2262   */\n  exp\n    /* \"#utility.yul\":2234:2262   */\n  swap1\n  pop\n    /* \"#utility.yul\":2288:2291   */\n  dup4\n    /* \"#utility.yul\":2281:2286   */\n  dup2\n    /* \"#utility.yul\":2278:2292   */\n  gt\n    /* \"#utility.yul\":2275:2315   */\n  iszero\n  tag_41\n  jumpi\n    /* \"#utility.yul\":2295:2313   */\n  tag_42\n  tag_8\n  jump\t// in\ntag_42:\n    /* \"#utility.yul\":2275:2315   */\ntag_41:\n    /* \"#utility.yul\":2328:2333   */\n  jump(tag_30)\n    /* \"#utility.yul\":2097:2343   */\ntag_40:\n    /* \"#utility.yul\":2368:2410   */\n  tag_43\n    /* \"#utility.yul\":2406:2409   */\n  dup5\n    /* \"#utility.yul\":2396:2404   */\n  dup5\n    /* \"#utility.yul\":2390:2394   */\n  dup5\n    /* \"#utility.yul\":2387:2388   */\n  0x01\n    /* \"#utility.yul\":2368:2410   */\n  tag_10\n  jump\t// in\ntag_43:\n    /* \"#utility.yul\":2353:2410   */\n  swap3\n  pop\n  swap1\n  pop\n    /* \"#utility.yul\":2442:2446   */\n  dup2\n    /* \"#utility.yul\":2437:2440   */\n  dup5\n    /* \"#utility.yul\":2433:2447   */\n  div\n    /* \"#utility.yul\":2426:2431   */\n  dup2\n    /* \"#utility.yul\":2423:2448   */\n  gt\n    /* \"#utility.yul\":2420:2471   */\n  iszero\n  tag_44\n  jumpi\n    /* \"#utility.yul\":2451:2469   */\n  tag_45\n  tag_8\n  jump\t// in\ntag_45:\n    /* \"#utility.yul\":2420:2471   */\ntag_44:\n    /* \"#utility.yul\":2500:2504   */\n  dup2\n    /* \"#utility.yul\":2493:2498   */\n  dup2\n    /* \"#utility.yul\":2489:2505   */\n  mul\n    /* \"#utility.yul\":2480:2505   */\n  swap1\n  pop\n    /* \"#utility.yul\":1438:2511   */\ntag_30:\n  swap4\n  swap3\n  pop\n  pop\n  pop\n  jump\t// out\n    /* \"#utility.yul\":2517:2594   */\ntag_12:\n    /* \"#utility.yul\":2554:2561   */\n  0x00\n    /* \"#utility.yul\":2583:2588   */\n  dup2\n    /* \"#utility.yul\":2572:2588   */\n  swap1\n  pop\n    /* \"#utility.yul\":2517:2594   */\n  swap2\n  swap1\n  pop\n  jump\t// out\n    /* \"#utility.yul\":2600:2881   */\ntag_4:\n    /* \"#utility.yul\":2658:2663   */\n  0x00\n    /* \"#utility.yul\":2682:2705   */\n  tag_48\n    /* \"#utility.yul\":2700:2704   */\n  dup3\n    /* \"#utility.yul\":2682:2705   */\n  tag_12\n  jump\t// in\ntag_48:\n    /* \"#utility.yul\":2674:2705   */\n  swap2\n  pop\n    /* \"#utility.yul\":2726:2751   */\n  tag_49\n    /* \"#utility.yul\":2742:2750   */\n  dup4\n    /* \"#utility.yul\":2726:2751   */\n  tag_7\n  jump\t// in\ntag_49:\n    /* \"#utility.yul\":2714:2751   */\n  swap3\n  pop\n    /* \"#utility.yul\":2770:2874   */\n  tag_50\n    /* \"#utility.yul\":2807:2873   */\n  0xffffffffffffffffffffffffffffffffffffffffffffffffffffffffffffffff\n    /* \"#utility.yul\":2797:2805   */\n  dup5\n    /* \"#utility.yul\":2791:2795   */\n  dup5\n    /* \"#utility.yul\":2770:2874   */\n  tag_11\n  jump\t// in\ntag_50:\n    /* \"#utility.yul\":2761:2874   */\n  swap1\n  pop\n    /* \"#utility.yul\":2600:2881   */\n  swap3\n  swap2\n  pop\n  pop\n  jump\t// out\n    /* \"Contract  ^0.8.8/CalculatorTester.sol\":56:507  contract CalculatroTester{... */\ntag_6:\n  dataSize(sub_0)\n  dup1\n  dataOffset(sub_0)\n  0x00\n  codecopy\n  0x00\n  return\nstop\n\nsub_0: assembly {\n        /* \"Contract  ^0.8.8/CalculatorTester.sol\":56:507  contract CalculatroTester{... */\n      mstore(0x40, 0x80)\n      callvalue\n      dup1\n      iszero\n      tag_1\n      jumpi\n      0x00\n      dup1\n      revert\n    tag_1:\n      pop\n      jumpi(tag_2, lt(calldatasize, 0x04))\n      shr(0xe0, calldataload(0x00))\n      dup1\n      0x7a1395aa\n      gt\n      tag_10\n      jumpi\n      dup1\n      0x7a1395aa\n      eq\n      tag_6\n      jumpi\n      dup1\n      0xa035b1fe\n      eq\n      tag_7\n      jumpi\n      dup1\n      0xcb05b93e\n      eq\n      tag_8\n      jumpi\n      dup1\n      0xda42c16b\n      eq\n      tag_9\n      jumpi\n      jump(tag_2)\n    tag_10:\n      dup1\n      0x2cc812bc\n      eq\n      tag_3\n      jumpi\n      dup1\n      0x313ce567\n      eq\n      tag_4\n      jumpi\n      dup1\n      0x51dbb806\n      eq\n      tag_5\n      jumpi\n    tag_2:\n      0x00\n      dup1\n      revert\n        /* \"Contract  ^0.8.8/CalculatorTester.sol\":88:111  uint256 public EthPrice */\n    tag_3:\n      tag_11\n      tag_12\n      jump\t// in\n    tag_11:\n      mload(0x40)\n      tag_13\n      swap2\n      swap1\n      tag_14\n      jump\t// in\n    tag_13:\n      mload(0x40)\n      dup1\n      swap2\n      sub\n      swap1\n      return\n        /* \"Contract  ^0.8.8/CalculatorTester.sol\":118:141  uint8 public decimals=8 */\n    tag_4:\n      tag_15\n      tag_16\n      jump\t// in\n    tag_15:\n      mload(0x40)\n      tag_17\n      swap2\n      swap1\n      tag_18\n      jump\t// in\n    tag_17:\n      mload(0x40)\n      dup1\n      swap2\n      sub\n      swap1\n      return\n        /* \"Contract  ^0.8.8/CalculatorTester.sol\":228:291  uint256 public multiplicationOfRestDecimals = 1**(restDecimals) */\n    tag_5:\n      tag_19\n      tag_20\n      jump\t// in\n    tag_19:\n      mload(0x40)\n      tag_21\n      swap2\n      swap1\n      tag_14\n      jump\t// in\n    tag_21:\n      mload(0x40)\n      dup1\n      swap2\n      sub\n      swap1\n      return\n        /* \"Contract  ^0.8.8/CalculatorTester.sol\":298:397  function setDecimals(uint8 _val) public{... */\n    tag_6:\n      tag_22\n      0x04\n      dup1\n      calldatasize\n      sub\n      dup2\n      add\n      swap1\n      tag_23\n      swap2\n      swap1\n      tag_24\n      jump\t// in\n    tag_23:\n      tag_25\n      jump\t// in\n    tag_22:\n      stop\n        /* \"Contract  ^0.8.8/CalculatorTester.sol\":147:179  int256 public price=188020801619 */\n    tag_7:\n      tag_26\n      tag_27\n      jump\t// in\n    tag_26:\n      mload(0x40)\n      tag_28\n      swap2\n      swap1\n      tag_29\n      jump\t// in\n    tag_28:\n      mload(0x40)\n      dup1\n      swap2\n      sub\n      swap1\n      return\n        /* \"Contract  ^0.8.8/CalculatorTester.sol\":403:505  function getEth() public {... */\n    tag_8:\n      tag_30\n      tag_31\n      jump\t// in\n    tag_30:\n      stop\n        /* \"Contract  ^0.8.8/CalculatorTester.sol\":185:222  uint8 public restDecimals=18-decimals */\n    tag_9:\n      tag_32\n      tag_33\n      jump\t// in\n    tag_32:\n      mload(0x40)\n      tag_34\n      swap2\n      swap1\n      tag_18\n      jump\t// in\n    tag_34:\n      mload(0x40)\n      dup1\n      swap2\n      sub\n      swap1\n      return\n        /* \"Contract  ^0.8.8/CalculatorTester.sol\":88:111  uint256 public EthPrice */\n    tag_12:\n      sload(0x00)\n      dup2\n      jump\t// out\n        /* \"Contract  ^0.8.8/CalculatorTester.sol\":118:141  uint8 public decimals=8 */\n    tag_16:\n      0x01\n      0x00\n      swap1\n      sload\n      swap1\n      0x0100\n      exp\n      swap1\n      div\n      0xff\n      and\n      dup2\n      jump\t// out\n        /* \"Contract  ^0.8.8/CalculatorTester.sol\":228:291  uint256 public multiplicationOfRestDecimals = 1**(restDecimals) */\n    tag_20:\n      sload(0x04)\n      dup2\n      jump\t// out\n        /* \"Contract  ^0.8.8/CalculatorTester.sol\":298:397  function setDecimals(uint8 _val) public{... */\n    tag_25:\n        /* \"Contract  ^0.8.8/CalculatorTester.sol\":356:360  _val */\n      dup1\n        /* \"Contract  ^0.8.8/CalculatorTester.sol\":347:355  decimals */\n      0x01\n      0x00\n        /* \"Contract  ^0.8.8/CalculatorTester.sol\":347:360  decimals=_val */\n      0x0100\n      exp\n      dup2\n      sload\n      dup2\n      0xff\n      mul\n      not\n      and\n      swap1\n      dup4\n      0xff\n      and\n      mul\n      or\n      swap1\n      sstore\n      pop\n        /* \"Contract  ^0.8.8/CalculatorTester.sol\":386:390  _val */\n      dup1\n        /* \"Contract  ^0.8.8/CalculatorTester.sol\":383:385  18 */\n      0x12\n        /* \"Contract  ^0.8.8/CalculatorTester.sol\":383:390  18-_val */\n      tag_36\n      swap2\n      swap1\n      tag_37\n      jump\t// in\n    tag_36:\n        /* \"Contract  ^0.8.8/CalculatorTester.sol\":370:382  restDecimals */\n      0x03\n      0x00\n        /* \"Contract  ^0.8.8/CalculatorTester.sol\":370:390  restDecimals=18-_val */\n      0x0100\n      exp\n      dup2\n      sload\n      dup2\n      0xff\n      mul\n      not\n      and\n      swap1\n      dup4\n      0xff\n      and\n      mul\n      or\n      swap1\n      sstore\n      pop\n        /* \"Contract  ^0.8.8/CalculatorTester.sol\":298:397  function setDecimals(uint8 _val) public{... */\n      pop\n      jump\t// out\n        /* \"Contract  ^0.8.8/CalculatorTester.sol\":147:179  int256 public price=188020801619 */\n    tag_27:\n      sload(0x02)\n      dup2\n      jump\t// out\n        /* \"Contract  ^0.8.8/CalculatorTester.sol\":403:505  function getEth() public {... */\n    tag_31:\n        /* \"Contract  ^0.8.8/CalculatorTester.sol\":484:496  restDecimals */\n      0x03\n      0x00\n      swap1\n      sload\n      swap1\n      0x0100\n      exp\n      swap1\n      div\n      0xff\n      and\n        /* \"Contract  ^0.8.8/CalculatorTester.sol\":481:482  1 */\n      0x01\n        /* \"Contract  ^0.8.8/CalculatorTester.sol\":481:496  1**restDecimals */\n      tag_39\n      swap2\n      swap1\n      tag_40\n      jump\t// in\n    tag_39:\n        /* \"Contract  ^0.8.8/CalculatorTester.sol\":464:469  price */\n      sload(0x02)\n        /* \"Contract  ^0.8.8/CalculatorTester.sol\":456:497  uint256(price) * uint256(1**restDecimals) */\n      tag_41\n      swap2\n      swap1\n      tag_42\n      jump\t// in\n    tag_41:\n        /* \"Contract  ^0.8.8/CalculatorTester.sol\":438:446  EthPrice */\n      0x00\n        /* \"Contract  ^0.8.8/CalculatorTester.sol\":438:498  EthPrice= uint256(uint256(price) * uint256(1**restDecimals)) */\n      dup2\n      swap1\n      sstore\n      pop\n        /* \"Contract  ^0.8.8/CalculatorTester.sol\":403:505  function getEth() public {... */\n      jump\t// out\n        /* \"Contract  ^0.8.8/CalculatorTester.sol\":185:222  uint8 public restDecimals=18-decimals */\n    tag_33:\n      0x03\n      0x00\n      swap1\n      sload\n      swap1\n      0x0100\n      exp\n      swap1\n      div\n      0xff\n      and\n      dup2\n      jump\t// out\n        /* \"#utility.yul\":7:84   */\n    tag_43:\n        /* \"#utility.yul\":44:51   */\n      0x00\n        /* \"#utility.yul\":73:78   */\n      dup2\n        /* \"#utility.yul\":62:78   */\n      swap1\n      pop\n        /* \"#utility.yul\":7:84   */\n      swap2\n      swap1\n      pop\n      jump\t// out\n        /* \"#utility.yul\":90:208   */\n    tag_44:\n        /* \"#utility.yul\":177:201   */\n      tag_61\n        /* \"#utility.yul\":195:200   */\n      dup2\n        /* \"#utility.yul\":177:201   */\n      tag_43\n      jump\t// in\n    tag_61:\n        /* \"#utility.yul\":172:175   */\n      dup3\n        /* \"#utility.yul\":165:202   */\n      mstore\n        /* \"#utility.yul\":90:208   */\n      pop\n      pop\n      jump\t// out\n        /* \"#utility.yul\":214:436   */\n    tag_14:\n        /* \"#utility.yul\":307:311   */\n      0x00\n        /* \"#utility.yul\":345:347   */\n      0x20\n        /* \"#utility.yul\":334:343   */\n      dup3\n        /* \"#utility.yul\":330:348   */\n      add\n        /* \"#utility.yul\":322:348   */\n      swap1\n      pop\n        /* \"#utility.yul\":358:429   */\n      tag_63\n        /* \"#utility.yul\":426:427   */\n      0x00\n        /* \"#utility.yul\":415:424   */\n      dup4\n        /* \"#utility.yul\":411:428   */\n      add\n        /* \"#utility.yul\":402:408   */\n      dup5\n        /* \"#utility.yul\":358:429   */\n      tag_44\n      jump\t// in\n    tag_63:\n        /* \"#utility.yul\":214:436   */\n      swap3\n      swap2\n      pop\n      pop\n      jump\t// out\n        /* \"#utility.yul\":442:528   */\n    tag_45:\n        /* \"#utility.yul\":477:484   */\n      0x00\n        /* \"#utility.yul\":517:521   */\n      0xff\n        /* \"#utility.yul\":510:515   */\n      dup3\n        /* \"#utility.yul\":506:522   */\n      and\n        /* \"#utility.yul\":495:522   */\n      swap1\n      pop\n        /* \"#utility.yul\":442:528   */\n      swap2\n      swap1\n      pop\n      jump\t// out\n        /* \"#utility.yul\":534:646   */\n    tag_46:\n        /* \"#utility.yul\":617:639   */\n      tag_66\n        /* \"#utility.yul\":633:638   */\n      dup2\n        /* \"#utility.yul\":617:639   */\n      tag_45\n      jump\t// in\n    tag_66:\n        /* \"#utility.yul\":612:615   */\n      dup3\n        /* \"#utility.yul\":605:640   */\n      mstore\n        /* \"#utility.yul\":534:646   */\n      pop\n      pop\n      jump\t// out\n        /* \"#utility.yul\":652:866   */\n    tag_18:\n        /* \"#utility.yul\":741:745   */\n      0x00\n        /* \"#utility.yul\":779:781   */\n      0x20\n        /* \"#utility.yul\":768:777   */\n      dup3\n        /* \"#utility.yul\":764:782   */\n      add\n        /* \"#utility.yul\":756:782   */\n      swap1\n      pop\n        /* \"#utility.yul\":792:859   */\n      tag_68\n        /* \"#utility.yul\":856:857   */\n      0x00\n        /* \"#utility.yul\":845:854   */\n      dup4\n        /* \"#utility.yul\":841:858   */\n      add\n        /* \"#utility.yul\":832:838   */\n      dup5\n        /* \"#utility.yul\":792:859   */\n      tag_46\n      jump\t// in\n    tag_68:\n        /* \"#utility.yul\":652:866   */\n      swap3\n      swap2\n      pop\n      pop\n      jump\t// out\n        /* \"#utility.yul\":953:1070   */\n    tag_48:\n        /* \"#utility.yul\":1062:1063   */\n      0x00\n        /* \"#utility.yul\":1059:1060   */\n      dup1\n        /* \"#utility.yul\":1052:1064   */\n      revert\n        /* \"#utility.yul\":1199:1317   */\n    tag_50:\n        /* \"#utility.yul\":1270:1292   */\n      tag_73\n        /* \"#utility.yul\":1286:1291   */\n      dup2\n        /* \"#utility.yul\":1270:1292   */\n      tag_45\n      jump\t// in\n    tag_73:\n        /* \"#utility.yul\":1263:1268   */\n      dup2\n        /* \"#utility.yul\":1260:1293   */\n      eq\n        /* \"#utility.yul\":1250:1311   */\n      tag_74\n      jumpi\n        /* \"#utility.yul\":1307:1308   */\n      0x00\n        /* \"#utility.yul\":1304:1305   */\n      dup1\n        /* \"#utility.yul\":1297:1309   */\n      revert\n        /* \"#utility.yul\":1250:1311   */\n    tag_74:\n        /* \"#utility.yul\":1199:1317   */\n      pop\n      jump\t// out\n        /* \"#utility.yul\":1323:1458   */\n    tag_51:\n        /* \"#utility.yul\":1367:1372   */\n      0x00\n        /* \"#utility.yul\":1405:1411   */\n      dup2\n        /* \"#utility.yul\":1392:1412   */\n      calldataload\n        /* \"#utility.yul\":1383:1412   */\n      swap1\n      pop\n        /* \"#utility.yul\":1421:1452   */\n      tag_76\n        /* \"#utility.yul\":1446:1451   */\n      dup2\n        /* \"#utility.yul\":1421:1452   */\n      tag_50\n      jump\t// in\n    tag_76:\n        /* \"#utility.yul\":1323:1458   */\n      swap3\n      swap2\n      pop\n      pop\n      jump\t// out\n        /* \"#utility.yul\":1464:1789   */\n    tag_24:\n        /* \"#utility.yul\":1521:1527   */\n      0x00\n        /* \"#utility.yul\":1570:1572   */\n      0x20\n        /* \"#utility.yul\":1558:1567   */\n      dup3\n        /* \"#utility.yul\":1549:1556   */\n      dup5\n        /* \"#utility.yul\":1545:1568   */\n      sub\n        /* \"#utility.yul\":1541:1573   */\n      slt\n        /* \"#utility.yul\":1538:1657   */\n      iszero\n      tag_78\n      jumpi\n        /* \"#utility.yul\":1576:1655   */\n      tag_79\n      tag_48\n      jump\t// in\n    tag_79:\n        /* \"#utility.yul\":1538:1657   */\n    tag_78:\n        /* \"#utility.yul\":1696:1697   */\n      0x00\n        /* \"#utility.yul\":1721:1772   */\n      tag_80\n        /* \"#utility.yul\":1764:1771   */\n      dup5\n        /* \"#utility.yul\":1755:1761   */\n      dup3\n        /* \"#utility.yul\":1744:1753   */\n      dup6\n        /* \"#utility.yul\":1740:1762   */\n      add\n        /* \"#utility.yul\":1721:1772   */\n      tag_51\n      jump\t// in\n    tag_80:\n        /* \"#utility.yul\":1711:1772   */\n      swap2\n      pop\n        /* \"#utility.yul\":1667:1782   */\n      pop\n        /* \"#utility.yul\":1464:1789   */\n      swap3\n      swap2\n      pop\n      pop\n      jump\t// out\n        /* \"#utility.yul\":1795:1871   */\n    tag_52:\n        /* \"#utility.yul\":1831:1838   */\n      0x00\n        /* \"#utility.yul\":1860:1865   */\n      dup2\n        /* \"#utility.yul\":1849:1865   */\n      swap1\n      pop\n        /* \"#utility.yul\":1795:1871   */\n      swap2\n      swap1\n      pop\n      jump\t// out\n        /* \"#utility.yul\":1877:1992   */\n    tag_53:\n        /* \"#utility.yul\":1962:1985   */\n      tag_83\n        /* \"#utility.yul\":1979:1984   */\n      dup2\n        /* \"#utility.yul\":1962:1985   */\n      tag_52\n      jump\t// in\n    tag_83:\n        /* \"#utility.yul\":1957:1960   */\n      dup3\n        /* \"#utility.yul\":1950:1986   */\n      mstore\n        /* \"#utility.yul\":1877:1992   */\n      pop\n      pop\n      jump\t// out\n        /* \"#utility.yul\":1998:2216   */\n    tag_29:\n        /* \"#utility.yul\":2089:2093   */\n      0x00\n        /* \"#utility.yul\":2127:2129   */\n      0x20\n        /* \"#utility.yul\":2116:2125   */\n      dup3\n        /* \"#utility.yul\":2112:2130   */\n      add\n        /* \"#utility.yul\":2104:2130   */\n      swap1\n      pop\n        /* \"#utility.yul\":2140:2209   */\n      tag_85\n        /* \"#utility.yul\":2206:2207   */\n      0x00\n        /* \"#utility.yul\":2195:2204   */\n      dup4\n        /* \"#utility.yul\":2191:2208   */\n      add\n        /* \"#utility.yul\":2182:2188   */\n      dup5\n        /* \"#utility.yul\":2140:2209   */\n      tag_53\n      jump\t// in\n    tag_85:\n        /* \"#utility.yul\":1998:2216   */\n      swap3\n      swap2\n      pop\n      pop\n      jump\t// out\n        /* \"#utility.yul\":2222:2402   */\n    tag_54:\n        /* \"#utility.yul\":2270:2347   */\n      0x4e487b7100000000000000000000000000000000000000000000000000000000\n        /* \"#utility.yul\":2267:2268   */\n      0x00\n        /* \"#utility.yul\":2260:2348   */\n      mstore\n        /* \"#utility.yul\":2367:2371   */\n      0x11\n        /* \"#utility.yul\":2364:2365   */\n      0x04\n        /* \"#utility.yul\":2357:2372   */\n      mstore\n        /* \"#utility.yul\":2391:2395   */\n      0x24\n        /* \"#utility.yul\":2388:2389   */\n      0x00\n        /* \"#utility.yul\":2381:2396   */\n      revert\n        /* \"#utility.yul\":2408:2593   */\n    tag_37:\n        /* \"#utility.yul\":2446:2450   */\n      0x00\n        /* \"#utility.yul\":2466:2484   */\n      tag_88\n        /* \"#utility.yul\":2482:2483   */\n      dup3\n        /* \"#utility.yul\":2466:2484   */\n      tag_45\n      jump\t// in\n    tag_88:\n        /* \"#utility.yul\":2461:2484   */\n      swap2\n      pop\n        /* \"#utility.yul\":2498:2516   */\n      tag_89\n        /* \"#utility.yul\":2514:2515   */\n      dup4\n        /* \"#utility.yul\":2498:2516   */\n      tag_45\n      jump\t// in\n    tag_89:\n        /* \"#utility.yul\":2493:2516   */\n      swap3\n      pop\n        /* \"#utility.yul\":2535:2536   */\n      dup3\n        /* \"#utility.yul\":2532:2533   */\n      dup3\n        /* \"#utility.yul\":2529:2537   */\n      lt\n        /* \"#utility.yul\":2526:2560   */\n      iszero\n      tag_90\n      jumpi\n        /* \"#utility.yul\":2540:2558   */\n      tag_91\n      tag_54\n      jump\t// in\n    tag_91:\n        /* \"#utility.yul\":2526:2560   */\n    tag_90:\n        /* \"#utility.yul\":2585:2586   */\n      dup3\n        /* \"#utility.yul\":2582:2583   */\n      dup3\n        /* \"#utility.yul\":2578:2587   */\n      sub\n        /* \"#utility.yul\":2570:2587   */\n      swap1\n      pop\n        /* \"#utility.yul\":2408:2593   */\n      swap3\n      swap2\n      pop\n      pop\n      jump\t// out\n        /* \"#utility.yul\":2599:2701   */\n    tag_55:\n        /* \"#utility.yul\":2641:2649   */\n      0x00\n        /* \"#utility.yul\":2688:2693   */\n      dup2\n        /* \"#utility.yul\":2685:2686   */\n      0x01\n        /* \"#utility.yul\":2681:2694   */\n      shr\n        /* \"#utility.yul\":2660:2694   */\n      swap1\n      pop\n        /* \"#utility.yul\":2599:2701   */\n      swap2\n      swap1\n      pop\n      jump\t// out\n        /* \"#utility.yul\":2707:3555   */\n    tag_56:\n        /* \"#utility.yul\":2768:2773   */\n      0x00\n        /* \"#utility.yul\":2775:2779   */\n      dup1\n        /* \"#utility.yul\":2799:2805   */\n      dup3\n        /* \"#utility.yul\":2790:2805   */\n      swap2\n      pop\n        /* \"#utility.yul\":2823:2828   */\n      dup4\n        /* \"#utility.yul\":2814:2828   */\n      swap1\n      pop\n        /* \"#utility.yul\":2837:3549   */\n    tag_94:\n        /* \"#utility.yul\":2858:2859   */\n      0x01\n        /* \"#utility.yul\":2848:2856   */\n      dup6\n        /* \"#utility.yul\":2845:2860   */\n      gt\n        /* \"#utility.yul\":2837:3549   */\n      iszero\n      tag_96\n      jumpi\n        /* \"#utility.yul\":2953:2957   */\n      dup1\n        /* \"#utility.yul\":2948:2951   */\n      dup7\n        /* \"#utility.yul\":2944:2958   */\n      div\n        /* \"#utility.yul\":2938:2942   */\n      dup2\n        /* \"#utility.yul\":2935:2959   */\n      gt\n        /* \"#utility.yul\":2932:2982   */\n      iszero\n      tag_97\n      jumpi\n        /* \"#utility.yul\":2962:2980   */\n      tag_98\n      tag_54\n      jump\t// in\n    tag_98:\n        /* \"#utility.yul\":2932:2982   */\n    tag_97:\n        /* \"#utility.yul\":3012:3013   */\n      0x01\n        /* \"#utility.yul\":3002:3010   */\n      dup6\n        /* \"#utility.yul\":2998:3014   */\n      and\n        /* \"#utility.yul\":2995:3446   */\n      iszero\n      tag_99\n      jumpi\n        /* \"#utility.yul\":3427:3431   */\n      dup1\n        /* \"#utility.yul\":3420:3425   */\n      dup3\n        /* \"#utility.yul\":3416:3432   */\n      mul\n        /* \"#utility.yul\":3407:3432   */\n      swap2\n      pop\n        /* \"#utility.yul\":2995:3446   */\n    tag_99:\n        /* \"#utility.yul\":3477:3481   */\n      dup1\n        /* \"#utility.yul\":3471:3475   */\n      dup2\n        /* \"#utility.yul\":3467:3482   */\n      mul\n        /* \"#utility.yul\":3459:3482   */\n      swap1\n      pop\n        /* \"#utility.yul\":3507:3539   */\n      tag_100\n        /* \"#utility.yul\":3530:3538   */\n      dup6\n        /* \"#utility.yul\":3507:3539   */\n      tag_55\n      jump\t// in\n    tag_100:\n        /* \"#utility.yul\":3495:3539   */\n      swap5\n      pop\n        /* \"#utility.yul\":2837:3549   */\n      jump(tag_94)\n    tag_96:\n        /* \"#utility.yul\":2707:3555   */\n      swap5\n      pop\n      swap5\n      swap3\n      pop\n      pop\n      pop\n      jump\t// out\n        /* \"#utility.yul\":3561:4634   */\n    tag_57:\n        /* \"#utility.yul\":3615:3620   */\n      0x00\n        /* \"#utility.yul\":3806:3814   */\n      dup3\n        /* \"#utility.yul\":3796:3836   */\n      tag_102\n      jumpi\n        /* \"#utility.yul\":3827:3828   */\n      0x01\n        /* \"#utility.yul\":3818:3828   */\n      swap1\n      pop\n        /* \"#utility.yul\":3829:3834   */\n      jump(tag_101)\n        /* \"#utility.yul\":3796:3836   */\n    tag_102:\n        /* \"#utility.yul\":3855:3859   */\n      dup2\n        /* \"#utility.yul\":3845:3881   */\n      tag_103\n      jumpi\n        /* \"#utility.yul\":3872:3873   */\n      0x00\n        /* \"#utility.yul\":3863:3873   */\n      swap1\n      pop\n        /* \"#utility.yul\":3874:3879   */\n      jump(tag_101)\n        /* \"#utility.yul\":3845:3881   */\n    tag_103:\n        /* \"#utility.yul\":3941:3945   */\n      dup2\n        /* \"#utility.yul\":3989:3990   */\n      0x01\n        /* \"#utility.yul\":3984:4011   */\n      dup2\n      eq\n      tag_105\n      jumpi\n        /* \"#utility.yul\":4025:4026   */\n      0x02\n        /* \"#utility.yul\":4020:4211   */\n      dup2\n      eq\n      tag_106\n      jumpi\n        /* \"#utility.yul\":3934:4211   */\n      jump(tag_104)\n        /* \"#utility.yul\":3984:4011   */\n    tag_105:\n        /* \"#utility.yul\":4002:4003   */\n      0x01\n        /* \"#utility.yul\":3993:4003   */\n      swap2\n      pop\n        /* \"#utility.yul\":4004:4009   */\n      pop\n      jump(tag_101)\n        /* \"#utility.yul\":4020:4211   */\n    tag_106:\n        /* \"#utility.yul\":4065:4068   */\n      0xff\n        /* \"#utility.yul\":4055:4063   */\n      dup5\n        /* \"#utility.yul\":4052:4069   */\n      gt\n        /* \"#utility.yul\":4049:4092   */\n      iszero\n      tag_107\n      jumpi\n        /* \"#utility.yul\":4072:4090   */\n      tag_108\n      tag_54\n      jump\t// in\n    tag_108:\n        /* \"#utility.yul\":4049:4092   */\n    tag_107:\n        /* \"#utility.yul\":4121:4129   */\n      dup4\n        /* \"#utility.yul\":4118:4119   */\n      0x02\n        /* \"#utility.yul\":4114:4130   */\n      exp\n        /* \"#utility.yul\":4105:4130   */\n      swap2\n      pop\n        /* \"#utility.yul\":4156:4159   */\n      dup5\n        /* \"#utility.yul\":4149:4154   */\n      dup3\n        /* \"#utility.yul\":4146:4160   */\n      gt\n        /* \"#utility.yul\":4143:4183   */\n      iszero\n      tag_109\n      jumpi\n        /* \"#utility.yul\":4163:4181   */\n      tag_110\n      tag_54\n      jump\t// in\n    tag_110:\n        /* \"#utility.yul\":4143:4183   */\n    tag_109:\n        /* \"#utility.yul\":4196:4201   */\n      pop\n      jump(tag_101)\n        /* \"#utility.yul\":3934:4211   */\n    tag_104:\n      pop\n        /* \"#utility.yul\":4320:4322   */\n      0x20\n        /* \"#utility.yul\":4310:4318   */\n      dup4\n        /* \"#utility.yul\":4307:4323   */\n      lt\n        /* \"#utility.yul\":4301:4304   */\n      0x0133\n        /* \"#utility.yul\":4295:4299   */\n      dup4\n        /* \"#utility.yul\":4292:4305   */\n      lt\n        /* \"#utility.yul\":4288:4324   */\n      and\n        /* \"#utility.yul\":4270:4272   */\n      0x4e\n        /* \"#utility.yul\":4260:4268   */\n      dup5\n        /* \"#utility.yul\":4257:4273   */\n      lt\n        /* \"#utility.yul\":4252:4254   */\n      0x0b\n        /* \"#utility.yul\":4246:4250   */\n      dup5\n        /* \"#utility.yul\":4243:4255   */\n      lt\n        /* \"#utility.yul\":4239:4274   */\n      and\n        /* \"#utility.yul\":4223:4334   */\n      or\n        /* \"#utility.yul\":4220:4466   */\n      iszero\n      tag_111\n      jumpi\n        /* \"#utility.yul\":4376:4384   */\n      dup3\n        /* \"#utility.yul\":4370:4374   */\n      dup3\n        /* \"#utility.yul\":4366:4385   */\n      exp\n        /* \"#utility.yul\":4357:4385   */\n      swap1\n      pop\n        /* \"#utility.yul\":4411:4414   */\n      dup4\n        /* \"#utility.yul\":4404:4409   */\n      dup2\n        /* \"#utility.yul\":4401:4415   */\n      gt\n        /* \"#utility.yul\":4398:4438   */\n      iszero\n      tag_112\n      jumpi\n        /* \"#utility.yul\":4418:4436   */\n      tag_113\n      tag_54\n      jump\t// in\n    tag_113:\n        /* \"#utility.yul\":4398:4438   */\n    tag_112:\n        /* \"#utility.yul\":4451:4456   */\n      jump(tag_101)\n        /* \"#utility.yul\":4220:4466   */\n    tag_111:\n        /* \"#utility.yul\":4491:4533   */\n      tag_114\n        /* \"#utility.yul\":4529:4532   */\n      dup5\n        /* \"#utility.yul\":4519:4527   */\n      dup5\n        /* \"#utility.yul\":4513:4517   */\n      dup5\n        /* \"#utility.yul\":4510:4511   */\n      0x01\n        /* \"#utility.yul\":4491:4533   */\n      tag_56\n      jump\t// in\n    tag_114:\n        /* \"#utility.yul\":4476:4533   */\n      swap3\n      pop\n      swap1\n      pop\n        /* \"#utility.yul\":4565:4569   */\n      dup2\n        /* \"#utility.yul\":4560:4563   */\n      dup5\n        /* \"#utility.yul\":4556:4570   */\n      div\n        /* \"#utility.yul\":4549:4554   */\n      dup2\n        /* \"#utility.yul\":4546:4571   */\n      gt\n        /* \"#utility.yul\":4543:4594   */\n      iszero\n      tag_115\n      jumpi\n        /* \"#utility.yul\":4574:4592   */\n      tag_116\n      tag_54\n      jump\t// in\n    tag_116:\n        /* \"#utility.yul\":4543:4594   */\n    tag_115:\n        /* \"#utility.yul\":4623:4627   */\n      dup2\n        /* \"#utility.yul\":4616:4621   */\n      dup2\n        /* \"#utility.yul\":4612:4628   */\n      mul\n        /* \"#utility.yul\":4603:4628   */\n      swap1\n      pop\n        /* \"#utility.yul\":3561:4634   */\n    tag_101:\n      swap4\n      swap3\n      pop\n      pop\n      pop\n      jump\t// out\n        /* \"#utility.yul\":4640:4921   */\n    tag_40:\n        /* \"#utility.yul\":4698:4703   */\n      0x00\n        /* \"#utility.yul\":4722:4745   */\n      tag_118\n        /* \"#utility.yul\":4740:4744   */\n      dup3\n        /* \"#utility.yul\":4722:4745   */\n      tag_43\n      jump\t// in\n    tag_118:\n        /* \"#utility.yul\":4714:4745   */\n      swap2\n      pop\n        /* \"#utility.yul\":4766:4791   */\n      tag_119\n        /* \"#utility.yul\":4782:4790   */\n      dup4\n        /* \"#utility.yul\":4766:4791   */\n      tag_45\n      jump\t// in\n    tag_119:\n        /* \"#utility.yul\":4754:4791   */\n      swap3\n      pop\n        /* \"#utility.yul\":4810:4914   */\n      tag_120\n        /* \"#utility.yul\":4847:4913   */\n      0xffffffffffffffffffffffffffffffffffffffffffffffffffffffffffffffff\n        /* \"#utility.yul\":4837:4845   */\n      dup5\n        /* \"#utility.yul\":4831:4835   */\n      dup5\n        /* \"#utility.yul\":4810:4914   */\n      tag_57\n      jump\t// in\n    tag_120:\n        /* \"#utility.yul\":4801:4914   */\n      swap1\n      pop\n        /* \"#utility.yul\":4640:4921   */\n      swap3\n      swap2\n      pop\n      pop\n      jump\t// out\n        /* \"#utility.yul\":4927:5275   */\n    tag_42:\n        /* \"#utility.yul\":4967:4974   */\n      0x00\n        /* \"#utility.yul\":4990:5010   */\n      tag_122\n        /* \"#utility.yul\":5008:5009   */\n      dup3\n        /* \"#utility.yul\":4990:5010   */\n      tag_43\n      jump\t// in\n    tag_122:\n        /* \"#utility.yul\":4985:5010   */\n      swap2\n      pop\n        /* \"#utility.yul\":5024:5044   */\n      tag_123\n        /* \"#utility.yul\":5042:5043   */\n      dup4\n        /* \"#utility.yul\":5024:5044   */\n      tag_43\n      jump\t// in\n    tag_123:\n        /* \"#utility.yul\":5019:5044   */\n      swap3\n      pop\n        /* \"#utility.yul\":5212:5213   */\n      dup2\n        /* \"#utility.yul\":5144:5210   */\n      0xffffffffffffffffffffffffffffffffffffffffffffffffffffffffffffffff\n        /* \"#utility.yul\":5140:5214   */\n      div\n        /* \"#utility.yul\":5137:5138   */\n      dup4\n        /* \"#utility.yul\":5134:5215   */\n      gt\n        /* \"#utility.yul\":5129:5130   */\n      dup3\n        /* \"#utility.yul\":5122:5131   */\n      iszero\n        /* \"#utility.yul\":5115:5132   */\n      iszero\n        /* \"#utility.yul\":5111:5216   */\n      and\n        /* \"#utility.yul\":5108:5239   */\n      iszero\n      tag_124\n      jumpi\n        /* \"#utility.yul\":5219:5237   */\n      tag_125\n      tag_54\n      jump\t// in\n    tag_125:\n        /* \"#utility.yul\":5108:5239   */\n    tag_124:\n        /* \"#utility.yul\":5267:5268   */\n      dup3\n        /* \"#utility.yul\":5264:5265   */\n      dup3\n        /* \"#utility.yul\":5260:5269   */\n      mul\n        /* \"#utility.yul\":5249:5269   */\n      swap1\n      pop\n        /* \"#utility.yul\":4927:5275   */\n      swap3\n      swap2\n      pop\n      pop\n      jump\t// out\n\n    auxdata: 0xa2646970667358221220fc5a5d6be27f4faaaf6c73f35b43d97a10a9f13c884e0708daaf16c39f3c3de764736f6c63430008080033\n}\n",
				"bytecode": {
					"linkReferences": {},
					"object": "60806040526008600160006101000a81548160ff021916908360ff160217905550642bc6e9c053600255600160009054906101000a900460ff166012620000479190620000d2565b600360006101000a81548160ff021916908360ff160217905550600360009054906101000a900460ff1660016200007f91906200026b565b6004553480156200008f57600080fd5b50620002bc565b600060ff82169050919050565b7f4e487b7100000000000000000000000000000000000000000000000000000000600052601160045260246000fd5b6000620000df8262000096565b9150620000ec8362000096565b925082821015620001025762000101620000a3565b5b828203905092915050565b60008160011c9050919050565b6000808291508390505b60018511156200016c57808604811115620001445762000143620000a3565b5b6001851615620001545780820291505b808102905062000164856200010d565b945062000124565b94509492505050565b6000826200018757600190506200025a565b816200019757600090506200025a565b8160018114620001b05760028114620001bb57620001f1565b60019150506200025a565b60ff841115620001d057620001cf620000a3565b5b8360020a915084821115620001ea57620001e9620000a3565b5b506200025a565b5060208310610133831016604e8410600b84101617156200022b5782820a905083811115620002255762000224620000a3565b5b6200025a565b6200023a84848460016200011a565b92509050818404811115620002545762000253620000a3565b5b81810290505b9392505050565b6000819050919050565b6000620002788262000261565b9150620002858362000096565b9250620002b47fffffffffffffffffffffffffffffffffffffffffffffffffffffffffffffffff848462000175565b905092915050565b61055a80620002cc6000396000f3fe608060405234801561001057600080fd5b506004361061007d5760003560e01c80637a1395aa1161005b5780637a1395aa146100dc578063a035b1fe146100f8578063cb05b93e14610116578063da42c16b146101205761007d565b80632cc812bc14610082578063313ce567146100a057806351dbb806146100be575b600080fd5b61008a61013e565b6040516100979190610205565b60405180910390f35b6100a8610144565b6040516100b5919061023c565b60405180910390f35b6100c6610157565b6040516100d39190610205565b60405180910390f35b6100f660048036038101906100f19190610288565b61015d565b005b6101006101a2565b60405161010d91906102ce565b60405180910390f35b61011e6101a8565b005b6101286101d9565b604051610135919061023c565b60405180910390f35b60005481565b600160009054906101000a900460ff1681565b60045481565b80600160006101000a81548160ff021916908360ff1602179055508060126101859190610318565b600360006101000a81548160ff021916908360ff16021790555050565b60025481565b600360009054906101000a900460ff1660016101c4919061047f565b6002546101d191906104ca565b600081905550565b600360009054906101000a900460ff1681565b6000819050919050565b6101ff816101ec565b82525050565b600060208201905061021a60008301846101f6565b92915050565b600060ff82169050919050565b61023681610220565b82525050565b6000602082019050610251600083018461022d565b92915050565b600080fd5b61026581610220565b811461027057600080fd5b50565b6000813590506102828161025c565b92915050565b60006020828403121561029e5761029d610257565b5b60006102ac84828501610273565b91505092915050565b6000819050919050565b6102c8816102b5565b82525050565b60006020820190506102e360008301846102bf565b92915050565b7f4e487b7100000000000000000000000000000000000000000000000000000000600052601160045260246000fd5b600061032382610220565b915061032e83610220565b925082821015610341576103406102e9565b5b828203905092915050565b60008160011c9050919050565b6000808291508390505b60018511156103a35780860481111561037f5761037e6102e9565b5b600185161561038e5780820291505b808102905061039c8561034c565b9450610363565b94509492505050565b6000826103bc5760019050610478565b816103ca5760009050610478565b81600181146103e057600281146103ea57610419565b6001915050610478565b60ff8411156103fc576103fb6102e9565b5b8360020a915084821115610413576104126102e9565b5b50610478565b5060208310610133831016604e8410600b841016171561044e5782820a905083811115610449576104486102e9565b5b610478565b61045b8484846001610359565b92509050818404811115610472576104716102e9565b5b81810290505b9392505050565b600061048a826101ec565b915061049583610220565b92506104c27fffffffffffffffffffffffffffffffffffffffffffffffffffffffffffffffff84846103ac565b905092915050565b60006104d5826101ec565b91506104e0836101ec565b9250817fffffffffffffffffffffffffffffffffffffffffffffffffffffffffffffffff0483118215151615610519576105186102e9565b5b82820290509291505056fea2646970667358221220fc5a5d6be27f4faaaf6c73f35b43d97a10a9f13c884e0708daaf16c39f3c3de764736f6c63430008080033",
					"opcodes": "PUSH1 0x80 PUSH1 0x40 MSTORE PUSH1 0x8 PUSH1 0x1 PUSH1 0x0 PUSH2 0x100 EXP DUP2 SLOAD DUP2 PUSH1 0xFF MUL NOT AND SWAP1 DUP4 PUSH1 0xFF AND MUL OR SWAP1 SSTORE POP PUSH5 0x2BC6E9C053 PUSH1 0x2 SSTORE PUSH1 0x1 PUSH1 0x0 SWAP1 SLOAD SWAP1 PUSH2 0x100 EXP SWAP1 DIV PUSH1 0xFF AND PUSH1 0x12 PUSH3 0x47 SWAP2 SWAP1 PUSH3 0xD2 JUMP JUMPDEST PUSH1 0x3 PUSH1 0x0 PUSH2 0x100 EXP DUP2 SLOAD DUP2 PUSH1 0xFF MUL NOT AND SWAP1 DUP4 PUSH1 0xFF AND MUL OR SWAP1 SSTORE POP PUSH1 0x3 PUSH1 0x0 SWAP1 SLOAD SWAP1 PUSH2 0x100 EXP SWAP1 DIV PUSH1 0xFF AND PUSH1 0x1 PUSH3 0x7F SWAP2 SWAP1 PUSH3 0x26B JUMP JUMPDEST PUSH1 0x4 SSTORE CALLVALUE DUP1 ISZERO PUSH3 0x8F JUMPI PUSH1 0x0 DUP1 REVERT JUMPDEST POP PUSH3 0x2BC JUMP JUMPDEST PUSH1 0x0 PUSH1 0xFF DUP3 AND SWAP1 POP SWAP2 SWAP1 POP JUMP JUMPDEST PUSH32 0x4E487B7100000000000000000000000000000000000000000000000000000000 PUSH1 0x0 MSTORE PUSH1 0x11 PUSH1 0x4 MSTORE PUSH1 0x24 PUSH1 0x0 REVERT JUMPDEST PUSH1 0x0 PUSH3 0xDF DUP3 PUSH3 0x96 JUMP JUMPDEST SWAP2 POP PUSH3 0xEC DUP4 PUSH3 0x96 JUMP JUMPDEST SWAP3 POP DUP3 DUP3 LT ISZERO PUSH3 0x102 JUMPI PUSH3 0x101 PUSH3 0xA3 JUMP JUMPDEST JUMPDEST DUP3 DUP3 SUB SWAP1 POP SWAP3 SWAP2 POP POP JUMP JUMPDEST PUSH1 0x0 DUP2 PUSH1 0x1 SHR SWAP1 POP SWAP2 SWAP1 POP JUMP JUMPDEST PUSH1 0x0 DUP1 DUP3 SWAP2 POP DUP4 SWAP1 POP JUMPDEST PUSH1 0x1 DUP6 GT ISZERO PUSH3 0x16C JUMPI DUP1 DUP7 DIV DUP2 GT ISZERO PUSH3 0x144 JUMPI PUSH3 0x143 PUSH3 0xA3 JUMP JUMPDEST JUMPDEST PUSH1 0x1 DUP6 AND ISZERO PUSH3 0x154 JUMPI DUP1 DUP3 MUL SWAP2 POP JUMPDEST DUP1 DUP2 MUL SWAP1 POP PUSH3 0x164 DUP6 PUSH3 0x10D JUMP JUMPDEST SWAP5 POP PUSH3 0x124 JUMP JUMPDEST SWAP5 POP SWAP5 SWAP3 POP POP POP JUMP JUMPDEST PUSH1 0x0 DUP3 PUSH3 0x187 JUMPI PUSH1 0x1 SWAP1 POP PUSH3 0x25A JUMP JUMPDEST DUP2 PUSH3 0x197 JUMPI PUSH1 0x0 SWAP1 POP PUSH3 0x25A JUMP JUMPDEST DUP2 PUSH1 0x1 DUP2 EQ PUSH3 0x1B0 JUMPI PUSH1 0x2 DUP2 EQ PUSH3 0x1BB JUMPI PUSH3 0x1F1 JUMP JUMPDEST PUSH1 0x1 SWAP2 POP POP PUSH3 0x25A JUMP JUMPDEST PUSH1 0xFF DUP5 GT ISZERO PUSH3 0x1D0 JUMPI PUSH3 0x1CF PUSH3 0xA3 JUMP JUMPDEST JUMPDEST DUP4 PUSH1 0x2 EXP SWAP2 POP DUP5 DUP3 GT ISZERO PUSH3 0x1EA JUMPI PUSH3 0x1E9 PUSH3 0xA3 JUMP JUMPDEST JUMPDEST POP PUSH3 0x25A JUMP JUMPDEST POP PUSH1 0x20 DUP4 LT PUSH2 0x133 DUP4 LT AND PUSH1 0x4E DUP5 LT PUSH1 0xB DUP5 LT AND OR ISZERO PUSH3 0x22B JUMPI DUP3 DUP3 EXP SWAP1 POP DUP4 DUP2 GT ISZERO PUSH3 0x225 JUMPI PUSH3 0x224 PUSH3 0xA3 JUMP JUMPDEST JUMPDEST PUSH3 0x25A JUMP JUMPDEST PUSH3 0x23A DUP5 DUP5 DUP5 PUSH1 0x1 PUSH3 0x11A JUMP JUMPDEST SWAP3 POP SWAP1 POP DUP2 DUP5 DIV DUP2 GT ISZERO PUSH3 0x254 JUMPI PUSH3 0x253 PUSH3 0xA3 JUMP JUMPDEST JUMPDEST DUP2 DUP2 MUL SWAP1 POP JUMPDEST SWAP4 SWAP3 POP POP POP JUMP JUMPDEST PUSH1 0x0 DUP2 SWAP1 POP SWAP2 SWAP1 POP JUMP JUMPDEST PUSH1 0x0 PUSH3 0x278 DUP3 PUSH3 0x261 JUMP JUMPDEST SWAP2 POP PUSH3 0x285 DUP4 PUSH3 0x96 JUMP JUMPDEST SWAP3 POP PUSH3 0x2B4 PUSH32 0xFFFFFFFFFFFFFFFFFFFFFFFFFFFFFFFFFFFFFFFFFFFFFFFFFFFFFFFFFFFFFFFF DUP5 DUP5 PUSH3 0x175 JUMP JUMPDEST SWAP1 POP SWAP3 SWAP2 POP POP JUMP JUMPDEST PUSH2 0x55A DUP1 PUSH3 0x2CC PUSH1 0x0 CODECOPY PUSH1 0x0 RETURN INVALID PUSH1 0x80 PUSH1 0x40 MSTORE CALLVALUE DUP1 ISZERO PUSH2 0x10 JUMPI PUSH1 0x0 DUP1 REVERT JUMPDEST POP PUSH1 0x4 CALLDATASIZE LT PUSH2 0x7D JUMPI PUSH1 0x0 CALLDATALOAD PUSH1 0xE0 SHR DUP1 PUSH4 0x7A1395AA GT PUSH2 0x5B JUMPI DUP1 PUSH4 0x7A1395AA EQ PUSH2 0xDC JUMPI DUP1 PUSH4 0xA035B1FE EQ PUSH2 0xF8 JUMPI DUP1 PUSH4 0xCB05B93E EQ PUSH2 0x116 JUMPI DUP1 PUSH4 0xDA42C16B EQ PUSH2 0x120 JUMPI PUSH2 0x7D JUMP JUMPDEST DUP1 PUSH4 0x2CC812BC EQ PUSH2 0x82 JUMPI DUP1 PUSH4 0x313CE567 EQ PUSH2 0xA0 JUMPI DUP1 PUSH4 0x51DBB806 EQ PUSH2 0xBE JUMPI JUMPDEST PUSH1 0x0 DUP1 REVERT JUMPDEST PUSH2 0x8A PUSH2 0x13E JUMP JUMPDEST PUSH1 0x40 MLOAD PUSH2 0x97 SWAP2 SWAP1 PUSH2 0x205 JUMP JUMPDEST PUSH1 0x40 MLOAD DUP1 SWAP2 SUB SWAP1 RETURN JUMPDEST PUSH2 0xA8 PUSH2 0x144 JUMP JUMPDEST PUSH1 0x40 MLOAD PUSH2 0xB5 SWAP2 SWAP1 PUSH2 0x23C JUMP JUMPDEST PUSH1 0x40 MLOAD DUP1 SWAP2 SUB SWAP1 RETURN JUMPDEST PUSH2 0xC6 PUSH2 0x157 JUMP JUMPDEST PUSH1 0x40 MLOAD PUSH2 0xD3 SWAP2 SWAP1 PUSH2 0x205 JUMP JUMPDEST PUSH1 0x40 MLOAD DUP1 SWAP2 SUB SWAP1 RETURN JUMPDEST PUSH2 0xF6 PUSH1 0x4 DUP1 CALLDATASIZE SUB DUP2 ADD SWAP1 PUSH2 0xF1 SWAP2 SWAP1 PUSH2 0x288 JUMP JUMPDEST PUSH2 0x15D JUMP JUMPDEST STOP JUMPDEST PUSH2 0x100 PUSH2 0x1A2 JUMP JUMPDEST PUSH1 0x40 MLOAD PUSH2 0x10D SWAP2 SWAP1 PUSH2 0x2CE JUMP JUMPDEST PUSH1 0x40 MLOAD DUP1 SWAP2 SUB SWAP1 RETURN JUMPDEST PUSH2 0x11E PUSH2 0x1A8 JUMP JUMPDEST STOP JUMPDEST PUSH2 0x128 PUSH2 0x1D9 JUMP JUMPDEST PUSH1 0x40 MLOAD PUSH2 0x135 SWAP2 SWAP1 PUSH2 0x23C JUMP JUMPDEST PUSH1 0x40 MLOAD DUP1 SWAP2 SUB SWAP1 RETURN JUMPDEST PUSH1 0x0 SLOAD DUP2 JUMP JUMPDEST PUSH1 0x1 PUSH1 0x0 SWAP1 SLOAD SWAP1 PUSH2 0x100 EXP SWAP1 DIV PUSH1 0xFF AND DUP2 JUMP JUMPDEST PUSH1 0x4 SLOAD DUP2 JUMP JUMPDEST DUP1 PUSH1 0x1 PUSH1 0x0 PUSH2 0x100 EXP DUP2 SLOAD DUP2 PUSH1 0xFF MUL NOT AND SWAP1 DUP4 PUSH1 0xFF AND MUL OR SWAP1 SSTORE POP DUP1 PUSH1 0x12 PUSH2 0x185 SWAP2 SWAP1 PUSH2 0x318 JUMP JUMPDEST PUSH1 0x3 PUSH1 0x0 PUSH2 0x100 EXP DUP2 SLOAD DUP2 PUSH1 0xFF MUL NOT AND SWAP1 DUP4 PUSH1 0xFF AND MUL OR SWAP1 SSTORE POP POP JUMP JUMPDEST PUSH1 0x2 SLOAD DUP2 JUMP JUMPDEST PUSH1 0x3 PUSH1 0x0 SWAP1 SLOAD SWAP1 PUSH2 0x100 EXP SWAP1 DIV PUSH1 0xFF AND PUSH1 0x1 PUSH2 0x1C4 SWAP2 SWAP1 PUSH2 0x47F JUMP JUMPDEST PUSH1 0x2 SLOAD PUSH2 0x1D1 SWAP2 SWAP1 PUSH2 0x4CA JUMP JUMPDEST PUSH1 0x0 DUP2 SWAP1 SSTORE POP JUMP JUMPDEST PUSH1 0x3 PUSH1 0x0 SWAP1 SLOAD SWAP1 PUSH2 0x100 EXP SWAP1 DIV PUSH1 0xFF AND DUP2 JUMP JUMPDEST PUSH1 0x0 DUP2 SWAP1 POP SWAP2 SWAP1 POP JUMP JUMPDEST PUSH2 0x1FF DUP2 PUSH2 0x1EC JUMP JUMPDEST DUP3 MSTORE POP POP JUMP JUMPDEST PUSH1 0x0 PUSH1 0x20 DUP3 ADD SWAP1 POP PUSH2 0x21A PUSH1 0x0 DUP4 ADD DUP5 PUSH2 0x1F6 JUMP JUMPDEST SWAP3 SWAP2 POP POP JUMP JUMPDEST PUSH1 0x0 PUSH1 0xFF DUP3 AND SWAP1 POP SWAP2 SWAP1 POP JUMP JUMPDEST PUSH2 0x236 DUP2 PUSH2 0x220 JUMP JUMPDEST DUP3 MSTORE POP POP JUMP JUMPDEST PUSH1 0x0 PUSH1 0x20 DUP3 ADD SWAP1 POP PUSH2 0x251 PUSH1 0x0 DUP4 ADD DUP5 PUSH2 0x22D JUMP JUMPDEST SWAP3 SWAP2 POP POP JUMP JUMPDEST PUSH1 0x0 DUP1 REVERT JUMPDEST PUSH2 0x265 DUP2 PUSH2 0x220 JUMP JUMPDEST DUP2 EQ PUSH2 0x270 JUMPI PUSH1 0x0 DUP1 REVERT JUMPDEST POP JUMP JUMPDEST PUSH1 0x0 DUP2 CALLDATALOAD SWAP1 POP PUSH2 0x282 DUP2 PUSH2 0x25C JUMP JUMPDEST SWAP3 SWAP2 POP POP JUMP JUMPDEST PUSH1 0x0 PUSH1 0x20 DUP3 DUP5 SUB SLT ISZERO PUSH2 0x29E JUMPI PUSH2 0x29D PUSH2 0x257 JUMP JUMPDEST JUMPDEST PUSH1 0x0 PUSH2 0x2AC DUP5 DUP3 DUP6 ADD PUSH2 0x273 JUMP JUMPDEST SWAP2 POP POP SWAP3 SWAP2 POP POP JUMP JUMPDEST PUSH1 0x0 DUP2 SWAP1 POP SWAP2 SWAP1 POP JUMP JUMPDEST PUSH2 0x2C8 DUP2 PUSH2 0x2B5 JUMP JUMPDEST DUP3 MSTORE POP POP JUMP JUMPDEST PUSH1 0x0 PUSH1 0x20 DUP3 ADD SWAP1 POP PUSH2 0x2E3 PUSH1 0x0 DUP4 ADD DUP5 PUSH2 0x2BF JUMP JUMPDEST SWAP3 SWAP2 POP POP JUMP JUMPDEST PUSH32 0x4E487B7100000000000000000000000000000000000000000000000000000000 PUSH1 0x0 MSTORE PUSH1 0x11 PUSH1 0x4 MSTORE PUSH1 0x24 PUSH1 0x0 REVERT JUMPDEST PUSH1 0x0 PUSH2 0x323 DUP3 PUSH2 0x220 JUMP JUMPDEST SWAP2 POP PUSH2 0x32E DUP4 PUSH2 0x220 JUMP JUMPDEST SWAP3 POP DUP3 DUP3 LT ISZERO PUSH2 0x341 JUMPI PUSH2 0x340 PUSH2 0x2E9 JUMP JUMPDEST JUMPDEST DUP3 DUP3 SUB SWAP1 POP SWAP3 SWAP2 POP POP JUMP JUMPDEST PUSH1 0x0 DUP2 PUSH1 0x1 SHR SWAP1 POP SWAP2 SWAP1 POP JUMP JUMPDEST PUSH1 0x0 DUP1 DUP3 SWAP2 POP DUP4 SWAP1 POP JUMPDEST PUSH1 0x1 DUP6 GT ISZERO PUSH2 0x3A3 JUMPI DUP1 DUP7 DIV DUP2 GT ISZERO PUSH2 0x37F JUMPI PUSH2 0x37E PUSH2 0x2E9 JUMP JUMPDEST JUMPDEST PUSH1 0x1 DUP6 AND ISZERO PUSH2 0x38E JUMPI DUP1 DUP3 MUL SWAP2 POP JUMPDEST DUP1 DUP2 MUL SWAP1 POP PUSH2 0x39C DUP6 PUSH2 0x34C JUMP JUMPDEST SWAP5 POP PUSH2 0x363 JUMP JUMPDEST SWAP5 POP SWAP5 SWAP3 POP POP POP JUMP JUMPDEST PUSH1 0x0 DUP3 PUSH2 0x3BC JUMPI PUSH1 0x1 SWAP1 POP PUSH2 0x478 JUMP JUMPDEST DUP2 PUSH2 0x3CA JUMPI PUSH1 0x0 SWAP1 POP PUSH2 0x478 JUMP JUMPDEST DUP2 PUSH1 0x1 DUP2 EQ PUSH2 0x3E0 JUMPI PUSH1 0x2 DUP2 EQ PUSH2 0x3EA JUMPI PUSH2 0x419 JUMP JUMPDEST PUSH1 0x1 SWAP2 POP POP PUSH2 0x478 JUMP JUMPDEST PUSH1 0xFF DUP5 GT ISZERO PUSH2 0x3FC JUMPI PUSH2 0x3FB PUSH2 0x2E9 JUMP JUMPDEST JUMPDEST DUP4 PUSH1 0x2 EXP SWAP2 POP DUP5 DUP3 GT ISZERO PUSH2 0x413 JUMPI PUSH2 0x412 PUSH2 0x2E9 JUMP JUMPDEST JUMPDEST POP PUSH2 0x478 JUMP JUMPDEST POP PUSH1 0x20 DUP4 LT PUSH2 0x133 DUP4 LT AND PUSH1 0x4E DUP5 LT PUSH1 0xB DUP5 LT AND OR ISZERO PUSH2 0x44E JUMPI DUP3 DUP3 EXP SWAP1 POP DUP4 DUP2 GT ISZERO PUSH2 0x449 JUMPI PUSH2 0x448 PUSH2 0x2E9 JUMP JUMPDEST JUMPDEST PUSH2 0x478 JUMP JUMPDEST PUSH2 0x45B DUP5 DUP5 DUP5 PUSH1 0x1 PUSH2 0x359 JUMP JUMPDEST SWAP3 POP SWAP1 POP DUP2 DUP5 DIV DUP2 GT ISZERO PUSH2 0x472 JUMPI PUSH2 0x471 PUSH2 0x2E9 JUMP JUMPDEST JUMPDEST DUP2 DUP2 MUL SWAP1 POP JUMPDEST SWAP4 SWAP3 POP POP POP JUMP JUMPDEST PUSH1 0x0 PUSH2 0x48A DUP3 PUSH2 0x1EC JUMP JUMPDEST SWAP2 POP PUSH2 0x495 DUP4 PUSH2 0x220 JUMP JUMPDEST SWAP3 POP PUSH2 0x4C2 PUSH32 0xFFFFFFFFFFFFFFFFFFFFFFFFFFFFFFFFFFFFFFFFFFFFFFFFFFFFFFFFFFFFFFFF DUP5 DUP5 PUSH2 0x3AC JUMP JUMPDEST SWAP1 POP SWAP3 SWAP2 POP POP JUMP JUMPDEST PUSH1 0x0 PUSH2 0x4D5 DUP3 PUSH2 0x1EC JUMP JUMPDEST SWAP2 POP PUSH2 0x4E0 DUP4 PUSH2 0x1EC JUMP JUMPDEST SWAP3 POP DUP2 PUSH32 0xFFFFFFFFFFFFFFFFFFFFFFFFFFFFFFFFFFFFFFFFFFFFFFFFFFFFFFFFFFFFFFFF DIV DUP4 GT DUP3 ISZERO ISZERO AND ISZERO PUSH2 0x519 JUMPI PUSH2 0x518 PUSH2 0x2E9 JUMP JUMPDEST JUMPDEST DUP3 DUP3 MUL SWAP1 POP SWAP3 SWAP2 POP POP JUMP INVALID LOG2 PUSH5 0x6970667358 0x22 SLT KECCAK256 0xFC GAS 0x5D PUSH12 0xE27F4FAAAF6C73F35B43D97A LT 0xA9 CALL EXTCODECOPY DUP9 0x4E SMOD ADDMOD 0xDA 0xAF AND 0xC3 SWAP16 EXTCODECOPY RETURNDATASIZE 0xE7 PUSH5 0x736F6C6343 STOP ADDMOD ADDMOD STOP CALLER "
				},
				"gasEstimates": {
					"creation": {
						"codeDepositCost": "274000",
						"executionCost": "infinite",
						"totalCost": "infinite"
					},
					"external": {
						"EthPrice()": "2430",
						"decimals()": "2494",
						"getEth()": "infinite",
						"multiplicationOfRestDecimals()": "2474",
						"price()": "2451",
						"restDecimals()": "2537",
						"setDecimals(uint8)": "infinite"
					}
				},
				"methodIdentifiers": {
					"EthPrice()": "2cc812bc",
					"decimals()": "313ce567",
					"getEth()": "cb05b93e",
					"multiplicationOfRestDecimals()": "51dbb806",
					"price()": "a035b1fe",
					"restDecimals()": "da42c16b",
					"setDecimals(uint8)": "7a1395aa"
				}
			},
			"storageLayout": {
				"storage": [
					{
						"astId": 3,
						"contract": "Contract  ^0.8.8/CalculatorTester.sol:CalculatroTester",
						"label": "EthPrice",
						"offset": 0,
						"slot": "0",
						"type": "t_uint256"
					},
					{
						"astId": 6,
						"contract": "Contract  ^0.8.8/CalculatorTester.sol:CalculatroTester",
						"label": "decimals",
						"offset": 0,
						"slot": "1",
						"type": "t_uint8"
					},
					{
						"astId": 9,
						"contract": "Contract  ^0.8.8/CalculatorTester.sol:CalculatroTester",
						"label": "price",
						"offset": 0,
						"slot": "2",
						"type": "t_int256"
					},
					{
						"astId": 14,
						"contract": "Contract  ^0.8.8/CalculatorTester.sol:CalculatroTester",
						"label": "restDecimals",
						"offset": 0,
						"slot": "3",
						"type": "t_uint8"
					},
					{
						"astId": 20,
						"contract": "Contract  ^0.8.8/CalculatorTester.sol:CalculatroTester",
						"label": "multiplicationOfRestDecimals",
						"offset": 0,
						"slot": "4",
						"type": "t_uint256"
					}
				],
				"types": {
					"t_int256": {
						"encoding": "inplace",
						"label": "int256",
						"numberOfBytes": "32"
					},
					"t_uint256": {
						"encoding": "inplace",
						"label": "uint256",
						"numberOfBytes": "32"
					},
					"t_uint8": {
						"encoding": "inplace",
						"label": "uint8",
						"numberOfBytes": "1"
					}
				}
			},
			"userdoc": {
				"kind": "user",
				"methods": {},
				"version": 1
			}
		}
	}
}