{
	"Contract  ^0.8.8/CalculatorTester.sol": {
		"CalculatroTester": {
			"abi": [
				{
					"inputs": [],
					"name": "EthPrice",
					"outputs": [
						{
							"internalType": "uint256",
							"name": "",
							"type": "uint256"
						}
					],
					"stateMutability": "view",
					"type": "function"
				},
				{
					"inputs": [],
					"name": "getConversionRate",
					"outputs": [],
					"stateMutability": "nonpayable",
					"type": "function"
				},
				{
					"inputs": [],
					"name": "getEth",
					"outputs": [],
					"stateMutability": "nonpayable",
					"type": "function"
				}
			],
			"devdoc": {
				"kind": "dev",
				"methods": {},
				"version": 1
			},
			"evm": {
				"assembly": "    /* \"Contract  ^0.8.8/CalculatorTester.sol\":56:325  contract CalculatroTester{... */\n  mstore(0x40, 0x80)\n  callvalue\n  dup1\n  iszero\n  tag_1\n  jumpi\n  0x00\n  dup1\n  revert\ntag_1:\n  pop\n  dataSize(sub_0)\n  dup1\n  dataOffset(sub_0)\n  0x00\n  codecopy\n  0x00\n  return\nstop\n\nsub_0: assembly {\n        /* \"Contract  ^0.8.8/CalculatorTester.sol\":56:325  contract CalculatroTester{... */\n      mstore(0x40, 0x80)\n      callvalue\n      dup1\n      iszero\n      tag_1\n      jumpi\n      0x00\n      dup1\n      revert\n    tag_1:\n      pop\n      jumpi(tag_2, lt(calldatasize, 0x04))\n      shr(0xe0, calldataload(0x00))\n      dup1\n      0x2cc812bc\n      eq\n      tag_3\n      jumpi\n      dup1\n      0xcb05b93e\n      eq\n      tag_4\n      jumpi\n      dup1\n      0xf36089ec\n      eq\n      tag_5\n      jumpi\n    tag_2:\n      0x00\n      dup1\n      revert\n        /* \"Contract  ^0.8.8/CalculatorTester.sol\":87:110  uint256 public EthPrice */\n    tag_3:\n      tag_6\n      tag_7\n      jump\t// in\n    tag_6:\n      mload(0x40)\n      tag_8\n      swap2\n      swap1\n      tag_9\n      jump\t// in\n    tag_8:\n      mload(0x40)\n      dup1\n      swap2\n      sub\n      swap1\n      return\n        /* \"Contract  ^0.8.8/CalculatorTester.sol\":117:275  function getEth() public {... */\n    tag_4:\n      tag_10\n      tag_11\n      jump\t// in\n    tag_10:\n      stop\n        /* \"Contract  ^0.8.8/CalculatorTester.sol\":280:323  function getConversionRate() public{... */\n    tag_5:\n      tag_12\n      tag_13\n      jump\t// in\n    tag_12:\n      stop\n        /* \"Contract  ^0.8.8/CalculatorTester.sol\":87:110  uint256 public EthPrice */\n    tag_7:\n      sload(0x00)\n      dup2\n      jump\t// out\n        /* \"Contract  ^0.8.8/CalculatorTester.sol\":117:275  function getEth() public {... */\n    tag_11:\n        /* \"Contract  ^0.8.8/CalculatorTester.sol\":152:165  uint256 price */\n      0x00\n        /* \"Contract  ^0.8.8/CalculatorTester.sol\":166:178  188020801619 */\n      0x2bc6e9c053\n        /* \"Contract  ^0.8.8/CalculatorTester.sol\":152:178  uint256 price=188020801619 */\n      swap1\n      pop\n        /* \"Contract  ^0.8.8/CalculatorTester.sol\":188:202  uint8 decimals */\n      0x00\n        /* \"Contract  ^0.8.8/CalculatorTester.sol\":205:206  8 */\n      0x08\n        /* \"Contract  ^0.8.8/CalculatorTester.sol\":188:206  uint8 decimals = 8 */\n      swap1\n      pop\n        /* \"Contract  ^0.8.8/CalculatorTester.sol\":258:266  decimals */\n      dup1\n        /* \"Contract  ^0.8.8/CalculatorTester.sol\":255:257  18 */\n      0x12\n        /* \"Contract  ^0.8.8/CalculatorTester.sol\":255:266  18-decimals */\n      tag_15\n      swap2\n      swap1\n      tag_16\n      jump\t// in\n    tag_15:\n        /* \"Contract  ^0.8.8/CalculatorTester.sol\":251:252  1 */\n      0x01\n        /* \"Contract  ^0.8.8/CalculatorTester.sol\":251:267  1**(18-decimals) */\n      tag_17\n      swap2\n      swap1\n      tag_18\n      jump\t// in\n    tag_17:\n        /* \"Contract  ^0.8.8/CalculatorTester.sol\":242:247  price */\n      dup3\n        /* \"Contract  ^0.8.8/CalculatorTester.sol\":234:267  uint256(price) * 1**(18-decimals) */\n      tag_19\n      swap2\n      swap1\n      tag_20\n      jump\t// in\n    tag_19:\n        /* \"Contract  ^0.8.8/CalculatorTester.sol\":216:224  EthPrice */\n      0x00\n        /* \"Contract  ^0.8.8/CalculatorTester.sol\":216:268  EthPrice= uint256(uint256(price) * 1**(18-decimals)) */\n      dup2\n      swap1\n      sstore\n      pop\n        /* \"Contract  ^0.8.8/CalculatorTester.sol\":142:275  {... */\n      pop\n      pop\n        /* \"Contract  ^0.8.8/CalculatorTester.sol\":117:275  function getEth() public {... */\n      jump\t// out\n        /* \"Contract  ^0.8.8/CalculatorTester.sol\":280:323  function getConversionRate() public{... */\n    tag_13:\n      jump\t// out\n        /* \"#utility.yul\":7:84   */\n    tag_22:\n        /* \"#utility.yul\":44:51   */\n      0x00\n        /* \"#utility.yul\":73:78   */\n      dup2\n        /* \"#utility.yul\":62:78   */\n      swap1\n      pop\n        /* \"#utility.yul\":7:84   */\n      swap2\n      swap1\n      pop\n      jump\t// out\n        /* \"#utility.yul\":90:208   */\n    tag_23:\n        /* \"#utility.yul\":177:201   */\n      tag_32\n        /* \"#utility.yul\":195:200   */\n      dup2\n        /* \"#utility.yul\":177:201   */\n      tag_22\n      jump\t// in\n    tag_32:\n        /* \"#utility.yul\":172:175   */\n      dup3\n        /* \"#utility.yul\":165:202   */\n      mstore\n        /* \"#utility.yul\":90:208   */\n      pop\n      pop\n      jump\t// out\n        /* \"#utility.yul\":214:436   */\n    tag_9:\n        /* \"#utility.yul\":307:311   */\n      0x00\n        /* \"#utility.yul\":345:347   */\n      0x20\n        /* \"#utility.yul\":334:343   */\n      dup3\n        /* \"#utility.yul\":330:348   */\n      add\n        /* \"#utility.yul\":322:348   */\n      swap1\n      pop\n        /* \"#utility.yul\":358:429   */\n      tag_34\n        /* \"#utility.yul\":426:427   */\n      0x00\n        /* \"#utility.yul\":415:424   */\n      dup4\n        /* \"#utility.yul\":411:428   */\n      add\n        /* \"#utility.yul\":402:408   */\n      dup5\n        /* \"#utility.yul\":358:429   */\n      tag_23\n      jump\t// in\n    tag_34:\n        /* \"#utility.yul\":214:436   */\n      swap3\n      swap2\n      pop\n      pop\n      jump\t// out\n        /* \"#utility.yul\":442:528   */\n    tag_24:\n        /* \"#utility.yul\":477:484   */\n      0x00\n        /* \"#utility.yul\":517:521   */\n      0xff\n        /* \"#utility.yul\":510:515   */\n      dup3\n        /* \"#utility.yul\":506:522   */\n      and\n        /* \"#utility.yul\":495:522   */\n      swap1\n      pop\n        /* \"#utility.yul\":442:528   */\n      swap2\n      swap1\n      pop\n      jump\t// out\n        /* \"#utility.yul\":534:714   */\n    tag_25:\n        /* \"#utility.yul\":582:659   */\n      0x4e487b7100000000000000000000000000000000000000000000000000000000\n        /* \"#utility.yul\":579:580   */\n      0x00\n        /* \"#utility.yul\":572:660   */\n      mstore\n        /* \"#utility.yul\":679:683   */\n      0x11\n        /* \"#utility.yul\":676:677   */\n      0x04\n        /* \"#utility.yul\":669:684   */\n      mstore\n        /* \"#utility.yul\":703:707   */\n      0x24\n        /* \"#utility.yul\":700:701   */\n      0x00\n        /* \"#utility.yul\":693:708   */\n      revert\n        /* \"#utility.yul\":720:905   */\n    tag_16:\n        /* \"#utility.yul\":758:762   */\n      0x00\n        /* \"#utility.yul\":778:796   */\n      tag_38\n        /* \"#utility.yul\":794:795   */\n      dup3\n        /* \"#utility.yul\":778:796   */\n      tag_24\n      jump\t// in\n    tag_38:\n        /* \"#utility.yul\":773:796   */\n      swap2\n      pop\n        /* \"#utility.yul\":810:828   */\n      tag_39\n        /* \"#utility.yul\":826:827   */\n      dup4\n        /* \"#utility.yul\":810:828   */\n      tag_24\n      jump\t// in\n    tag_39:\n        /* \"#utility.yul\":805:828   */\n      swap3\n      pop\n        /* \"#utility.yul\":847:848   */\n      dup3\n        /* \"#utility.yul\":844:845   */\n      dup3\n        /* \"#utility.yul\":841:849   */\n      lt\n        /* \"#utility.yul\":838:872   */\n      iszero\n      tag_40\n      jumpi\n        /* \"#utility.yul\":852:870   */\n      tag_41\n      tag_25\n      jump\t// in\n    tag_41:\n        /* \"#utility.yul\":838:872   */\n    tag_40:\n        /* \"#utility.yul\":897:898   */\n      dup3\n        /* \"#utility.yul\":894:895   */\n      dup3\n        /* \"#utility.yul\":890:899   */\n      sub\n        /* \"#utility.yul\":882:899   */\n      swap1\n      pop\n        /* \"#utility.yul\":720:905   */\n      swap3\n      swap2\n      pop\n      pop\n      jump\t// out\n        /* \"#utility.yul\":911:1013   */\n    tag_26:\n        /* \"#utility.yul\":953:961   */\n      0x00\n        /* \"#utility.yul\":1000:1005   */\n      dup2\n        /* \"#utility.yul\":997:998   */\n      0x01\n        /* \"#utility.yul\":993:1006   */\n      shr\n        /* \"#utility.yul\":972:1006   */\n      swap1\n      pop\n        /* \"#utility.yul\":911:1013   */\n      swap2\n      swap1\n      pop\n      jump\t// out\n        /* \"#utility.yul\":1019:1867   */\n    tag_27:\n        /* \"#utility.yul\":1080:1085   */\n      0x00\n        /* \"#utility.yul\":1087:1091   */\n      dup1\n        /* \"#utility.yul\":1111:1117   */\n      dup3\n        /* \"#utility.yul\":1102:1117   */\n      swap2\n      pop\n        /* \"#utility.yul\":1135:1140   */\n      dup4\n        /* \"#utility.yul\":1126:1140   */\n      swap1\n      pop\n        /* \"#utility.yul\":1149:1861   */\n    tag_44:\n        /* \"#utility.yul\":1170:1171   */\n      0x01\n        /* \"#utility.yul\":1160:1168   */\n      dup6\n        /* \"#utility.yul\":1157:1172   */\n      gt\n        /* \"#utility.yul\":1149:1861   */\n      iszero\n      tag_46\n      jumpi\n        /* \"#utility.yul\":1265:1269   */\n      dup1\n        /* \"#utility.yul\":1260:1263   */\n      dup7\n        /* \"#utility.yul\":1256:1270   */\n      div\n        /* \"#utility.yul\":1250:1254   */\n      dup2\n        /* \"#utility.yul\":1247:1271   */\n      gt\n        /* \"#utility.yul\":1244:1294   */\n      iszero\n      tag_47\n      jumpi\n        /* \"#utility.yul\":1274:1292   */\n      tag_48\n      tag_25\n      jump\t// in\n    tag_48:\n        /* \"#utility.yul\":1244:1294   */\n    tag_47:\n        /* \"#utility.yul\":1324:1325   */\n      0x01\n        /* \"#utility.yul\":1314:1322   */\n      dup6\n        /* \"#utility.yul\":1310:1326   */\n      and\n        /* \"#utility.yul\":1307:1758   */\n      iszero\n      tag_49\n      jumpi\n        /* \"#utility.yul\":1739:1743   */\n      dup1\n        /* \"#utility.yul\":1732:1737   */\n      dup3\n        /* \"#utility.yul\":1728:1744   */\n      mul\n        /* \"#utility.yul\":1719:1744   */\n      swap2\n      pop\n        /* \"#utility.yul\":1307:1758   */\n    tag_49:\n        /* \"#utility.yul\":1789:1793   */\n      dup1\n        /* \"#utility.yul\":1783:1787   */\n      dup2\n        /* \"#utility.yul\":1779:1794   */\n      mul\n        /* \"#utility.yul\":1771:1794   */\n      swap1\n      pop\n        /* \"#utility.yul\":1819:1851   */\n      tag_50\n        /* \"#utility.yul\":1842:1850   */\n      dup6\n        /* \"#utility.yul\":1819:1851   */\n      tag_26\n      jump\t// in\n    tag_50:\n        /* \"#utility.yul\":1807:1851   */\n      swap5\n      pop\n        /* \"#utility.yul\":1149:1861   */\n      jump(tag_44)\n    tag_46:\n        /* \"#utility.yul\":1019:1867   */\n      swap5\n      pop\n      swap5\n      swap3\n      pop\n      pop\n      pop\n      jump\t// out\n        /* \"#utility.yul\":1873:2946   */\n    tag_28:\n        /* \"#utility.yul\":1927:1932   */\n      0x00\n        /* \"#utility.yul\":2118:2126   */\n      dup3\n        /* \"#utility.yul\":2108:2148   */\n      tag_52\n      jumpi\n        /* \"#utility.yul\":2139:2140   */\n      0x01\n        /* \"#utility.yul\":2130:2140   */\n      swap1\n      pop\n        /* \"#utility.yul\":2141:2146   */\n      jump(tag_51)\n        /* \"#utility.yul\":2108:2148   */\n    tag_52:\n        /* \"#utility.yul\":2167:2171   */\n      dup2\n        /* \"#utility.yul\":2157:2193   */\n      tag_53\n      jumpi\n        /* \"#utility.yul\":2184:2185   */\n      0x00\n        /* \"#utility.yul\":2175:2185   */\n      swap1\n      pop\n        /* \"#utility.yul\":2186:2191   */\n      jump(tag_51)\n        /* \"#utility.yul\":2157:2193   */\n    tag_53:\n        /* \"#utility.yul\":2253:2257   */\n      dup2\n        /* \"#utility.yul\":2301:2302   */\n      0x01\n        /* \"#utility.yul\":2296:2323   */\n      dup2\n      eq\n      tag_55\n      jumpi\n        /* \"#utility.yul\":2337:2338   */\n      0x02\n        /* \"#utility.yul\":2332:2523   */\n      dup2\n      eq\n      tag_56\n      jumpi\n        /* \"#utility.yul\":2246:2523   */\n      jump(tag_54)\n        /* \"#utility.yul\":2296:2323   */\n    tag_55:\n        /* \"#utility.yul\":2314:2315   */\n      0x01\n        /* \"#utility.yul\":2305:2315   */\n      swap2\n      pop\n        /* \"#utility.yul\":2316:2321   */\n      pop\n      jump(tag_51)\n        /* \"#utility.yul\":2332:2523   */\n    tag_56:\n        /* \"#utility.yul\":2377:2380   */\n      0xff\n        /* \"#utility.yul\":2367:2375   */\n      dup5\n        /* \"#utility.yul\":2364:2381   */\n      gt\n        /* \"#utility.yul\":2361:2404   */\n      iszero\n      tag_57\n      jumpi\n        /* \"#utility.yul\":2384:2402   */\n      tag_58\n      tag_25\n      jump\t// in\n    tag_58:\n        /* \"#utility.yul\":2361:2404   */\n    tag_57:\n        /* \"#utility.yul\":2433:2441   */\n      dup4\n        /* \"#utility.yul\":2430:2431   */\n      0x02\n        /* \"#utility.yul\":2426:2442   */\n      exp\n        /* \"#utility.yul\":2417:2442   */\n      swap2\n      pop\n        /* \"#utility.yul\":2468:2471   */\n      dup5\n        /* \"#utility.yul\":2461:2466   */\n      dup3\n        /* \"#utility.yul\":2458:2472   */\n      gt\n        /* \"#utility.yul\":2455:2495   */\n      iszero\n      tag_59\n      jumpi\n        /* \"#utility.yul\":2475:2493   */\n      tag_60\n      tag_25\n      jump\t// in\n    tag_60:\n        /* \"#utility.yul\":2455:2495   */\n    tag_59:\n        /* \"#utility.yul\":2508:2513   */\n      pop\n      jump(tag_51)\n        /* \"#utility.yul\":2246:2523   */\n    tag_54:\n      pop\n        /* \"#utility.yul\":2632:2634   */\n      0x20\n        /* \"#utility.yul\":2622:2630   */\n      dup4\n        /* \"#utility.yul\":2619:2635   */\n      lt\n        /* \"#utility.yul\":2613:2616   */\n      0x0133\n        /* \"#utility.yul\":2607:2611   */\n      dup4\n        /* \"#utility.yul\":2604:2617   */\n      lt\n        /* \"#utility.yul\":2600:2636   */\n      and\n        /* \"#utility.yul\":2582:2584   */\n      0x4e\n        /* \"#utility.yul\":2572:2580   */\n      dup5\n        /* \"#utility.yul\":2569:2585   */\n      lt\n        /* \"#utility.yul\":2564:2566   */\n      0x0b\n        /* \"#utility.yul\":2558:2562   */\n      dup5\n        /* \"#utility.yul\":2555:2567   */\n      lt\n        /* \"#utility.yul\":2551:2586   */\n      and\n        /* \"#utility.yul\":2535:2646   */\n      or\n        /* \"#utility.yul\":2532:2778   */\n      iszero\n      tag_61\n      jumpi\n        /* \"#utility.yul\":2688:2696   */\n      dup3\n        /* \"#utility.yul\":2682:2686   */\n      dup3\n        /* \"#utility.yul\":2678:2697   */\n      exp\n        /* \"#utility.yul\":2669:2697   */\n      swap1\n      pop\n        /* \"#utility.yul\":2723:2726   */\n      dup4\n        /* \"#utility.yul\":2716:2721   */\n      dup2\n        /* \"#utility.yul\":2713:2727   */\n      gt\n        /* \"#utility.yul\":2710:2750   */\n      iszero\n      tag_62\n      jumpi\n        /* \"#utility.yul\":2730:2748   */\n      tag_63\n      tag_25\n      jump\t// in\n    tag_63:\n        /* \"#utility.yul\":2710:2750   */\n    tag_62:\n        /* \"#utility.yul\":2763:2768   */\n      jump(tag_51)\n        /* \"#utility.yul\":2532:2778   */\n    tag_61:\n        /* \"#utility.yul\":2803:2845   */\n      tag_64\n        /* \"#utility.yul\":2841:2844   */\n      dup5\n        /* \"#utility.yul\":2831:2839   */\n      dup5\n        /* \"#utility.yul\":2825:2829   */\n      dup5\n        /* \"#utility.yul\":2822:2823   */\n      0x01\n        /* \"#utility.yul\":2803:2845   */\n      tag_27\n      jump\t// in\n    tag_64:\n        /* \"#utility.yul\":2788:2845   */\n      swap3\n      pop\n      swap1\n      pop\n        /* \"#utility.yul\":2877:2881   */\n      dup2\n        /* \"#utility.yul\":2872:2875   */\n      dup5\n        /* \"#utility.yul\":2868:2882   */\n      div\n        /* \"#utility.yul\":2861:2866   */\n      dup2\n        /* \"#utility.yul\":2858:2883   */\n      gt\n        /* \"#utility.yul\":2855:2906   */\n      iszero\n      tag_65\n      jumpi\n        /* \"#utility.yul\":2886:2904   */\n      tag_66\n      tag_25\n      jump\t// in\n    tag_66:\n        /* \"#utility.yul\":2855:2906   */\n    tag_65:\n        /* \"#utility.yul\":2935:2939   */\n      dup2\n        /* \"#utility.yul\":2928:2933   */\n      dup2\n        /* \"#utility.yul\":2924:2940   */\n      mul\n        /* \"#utility.yul\":2915:2940   */\n      swap1\n      pop\n        /* \"#utility.yul\":1873:2946   */\n    tag_51:\n      swap4\n      swap3\n      pop\n      pop\n      pop\n      jump\t// out\n        /* \"#utility.yul\":2952:3233   */\n    tag_18:\n        /* \"#utility.yul\":3010:3015   */\n      0x00\n        /* \"#utility.yul\":3034:3057   */\n      tag_68\n        /* \"#utility.yul\":3052:3056   */\n      dup3\n        /* \"#utility.yul\":3034:3057   */\n      tag_22\n      jump\t// in\n    tag_68:\n        /* \"#utility.yul\":3026:3057   */\n      swap2\n      pop\n        /* \"#utility.yul\":3078:3103   */\n      tag_69\n        /* \"#utility.yul\":3094:3102   */\n      dup4\n        /* \"#utility.yul\":3078:3103   */\n      tag_24\n      jump\t// in\n    tag_69:\n        /* \"#utility.yul\":3066:3103   */\n      swap3\n      pop\n        /* \"#utility.yul\":3122:3226   */\n      tag_70\n        /* \"#utility.yul\":3159:3225   */\n      0xffffffffffffffffffffffffffffffffffffffffffffffffffffffffffffffff\n        /* \"#utility.yul\":3149:3157   */\n      dup5\n        /* \"#utility.yul\":3143:3147   */\n      dup5\n        /* \"#utility.yul\":3122:3226   */\n      tag_28\n      jump\t// in\n    tag_70:\n        /* \"#utility.yul\":3113:3226   */\n      swap1\n      pop\n        /* \"#utility.yul\":2952:3233   */\n      swap3\n      swap2\n      pop\n      pop\n      jump\t// out\n        /* \"#utility.yul\":3239:3587   */\n    tag_20:\n        /* \"#utility.yul\":3279:3286   */\n      0x00\n        /* \"#utility.yul\":3302:3322   */\n      tag_72\n        /* \"#utility.yul\":3320:3321   */\n      dup3\n        /* \"#utility.yul\":3302:3322   */\n      tag_22\n      jump\t// in\n    tag_72:\n        /* \"#utility.yul\":3297:3322   */\n      swap2\n      pop\n        /* \"#utility.yul\":3336:3356   */\n      tag_73\n        /* \"#utility.yul\":3354:3355   */\n      dup4\n        /* \"#utility.yul\":3336:3356   */\n      tag_22\n      jump\t// in\n    tag_73:\n        /* \"#utility.yul\":3331:3356   */\n      swap3\n      pop\n        /* \"#utility.yul\":3524:3525   */\n      dup2\n        /* \"#utility.yul\":3456:3522   */\n      0xffffffffffffffffffffffffffffffffffffffffffffffffffffffffffffffff\n        /* \"#utility.yul\":3452:3526   */\n      div\n        /* \"#utility.yul\":3449:3450   */\n      dup4\n        /* \"#utility.yul\":3446:3527   */\n      gt\n        /* \"#utility.yul\":3441:3442   */\n      dup3\n        /* \"#utility.yul\":3434:3443   */\n      iszero\n        /* \"#utility.yul\":3427:3444   */\n      iszero\n        /* \"#utility.yul\":3423:3528   */\n      and\n        /* \"#utility.yul\":3420:3551   */\n      iszero\n      tag_74\n      jumpi\n        /* \"#utility.yul\":3531:3549   */\n      tag_75\n      tag_25\n      jump\t// in\n    tag_75:\n        /* \"#utility.yul\":3420:3551   */\n    tag_74:\n        /* \"#utility.yul\":3579:3580   */\n      dup3\n        /* \"#utility.yul\":3576:3577   */\n      dup3\n        /* \"#utility.yul\":3572:3581   */\n      mul\n        /* \"#utility.yul\":3561:3581   */\n      swap1\n      pop\n        /* \"#utility.yul\":3239:3587   */\n      swap3\n      swap2\n      pop\n      pop\n      jump\t// out\n\n    auxdata: 0xa2646970667358221220c668fc0edd610b336a6927b9b72fe7df456c554738439c6d8ef68915fb01122264736f6c63430008080033\n}\n",
				"bytecode": {
					"linkReferences": {},
					"object": "608060405234801561001057600080fd5b50610370806100206000396000f3fe608060405234801561001057600080fd5b50600436106100415760003560e01c80632cc812bc14610046578063cb05b93e14610064578063f36089ec1461006e575b600080fd5b61004e610078565b60405161005b91906100d7565b60405180910390f35b61006c61007e565b005b6100766100bc565b005b60005481565b6000642bc6e9c053905060006008905080601261009b919061012e565b60016100a79190610295565b826100b291906102e0565b6000819055505050565b565b6000819050919050565b6100d1816100be565b82525050565b60006020820190506100ec60008301846100c8565b92915050565b600060ff82169050919050565b7f4e487b7100000000000000000000000000000000000000000000000000000000600052601160045260246000fd5b6000610139826100f2565b9150610144836100f2565b925082821015610157576101566100ff565b5b828203905092915050565b60008160011c9050919050565b6000808291508390505b60018511156101b957808604811115610195576101946100ff565b5b60018516156101a45780820291505b80810290506101b285610162565b9450610179565b94509492505050565b6000826101d2576001905061028e565b816101e0576000905061028e565b81600181146101f657600281146102005761022f565b600191505061028e565b60ff841115610212576102116100ff565b5b8360020a915084821115610229576102286100ff565b5b5061028e565b5060208310610133831016604e8410600b84101617156102645782820a90508381111561025f5761025e6100ff565b5b61028e565b610271848484600161016f565b92509050818404811115610288576102876100ff565b5b81810290505b9392505050565b60006102a0826100be565b91506102ab836100f2565b92506102d87fffffffffffffffffffffffffffffffffffffffffffffffffffffffffffffffff84846101c2565b905092915050565b60006102eb826100be565b91506102f6836100be565b9250817fffffffffffffffffffffffffffffffffffffffffffffffffffffffffffffffff048311821515161561032f5761032e6100ff565b5b82820290509291505056fea2646970667358221220c668fc0edd610b336a6927b9b72fe7df456c554738439c6d8ef68915fb01122264736f6c63430008080033",
					"opcodes": "PUSH1 0x80 PUSH1 0x40 MSTORE CALLVALUE DUP1 ISZERO PUSH2 0x10 JUMPI PUSH1 0x0 DUP1 REVERT JUMPDEST POP PUSH2 0x370 DUP1 PUSH2 0x20 PUSH1 0x0 CODECOPY PUSH1 0x0 RETURN INVALID PUSH1 0x80 PUSH1 0x40 MSTORE CALLVALUE DUP1 ISZERO PUSH2 0x10 JUMPI PUSH1 0x0 DUP1 REVERT JUMPDEST POP PUSH1 0x4 CALLDATASIZE LT PUSH2 0x41 JUMPI PUSH1 0x0 CALLDATALOAD PUSH1 0xE0 SHR DUP1 PUSH4 0x2CC812BC EQ PUSH2 0x46 JUMPI DUP1 PUSH4 0xCB05B93E EQ PUSH2 0x64 JUMPI DUP1 PUSH4 0xF36089EC EQ PUSH2 0x6E JUMPI JUMPDEST PUSH1 0x0 DUP1 REVERT JUMPDEST PUSH2 0x4E PUSH2 0x78 JUMP JUMPDEST PUSH1 0x40 MLOAD PUSH2 0x5B SWAP2 SWAP1 PUSH2 0xD7 JUMP JUMPDEST PUSH1 0x40 MLOAD DUP1 SWAP2 SUB SWAP1 RETURN JUMPDEST PUSH2 0x6C PUSH2 0x7E JUMP JUMPDEST STOP JUMPDEST PUSH2 0x76 PUSH2 0xBC JUMP JUMPDEST STOP JUMPDEST PUSH1 0x0 SLOAD DUP2 JUMP JUMPDEST PUSH1 0x0 PUSH5 0x2BC6E9C053 SWAP1 POP PUSH1 0x0 PUSH1 0x8 SWAP1 POP DUP1 PUSH1 0x12 PUSH2 0x9B SWAP2 SWAP1 PUSH2 0x12E JUMP JUMPDEST PUSH1 0x1 PUSH2 0xA7 SWAP2 SWAP1 PUSH2 0x295 JUMP JUMPDEST DUP3 PUSH2 0xB2 SWAP2 SWAP1 PUSH2 0x2E0 JUMP JUMPDEST PUSH1 0x0 DUP2 SWAP1 SSTORE POP POP POP JUMP JUMPDEST JUMP JUMPDEST PUSH1 0x0 DUP2 SWAP1 POP SWAP2 SWAP1 POP JUMP JUMPDEST PUSH2 0xD1 DUP2 PUSH2 0xBE JUMP JUMPDEST DUP3 MSTORE POP POP JUMP JUMPDEST PUSH1 0x0 PUSH1 0x20 DUP3 ADD SWAP1 POP PUSH2 0xEC PUSH1 0x0 DUP4 ADD DUP5 PUSH2 0xC8 JUMP JUMPDEST SWAP3 SWAP2 POP POP JUMP JUMPDEST PUSH1 0x0 PUSH1 0xFF DUP3 AND SWAP1 POP SWAP2 SWAP1 POP JUMP JUMPDEST PUSH32 0x4E487B7100000000000000000000000000000000000000000000000000000000 PUSH1 0x0 MSTORE PUSH1 0x11 PUSH1 0x4 MSTORE PUSH1 0x24 PUSH1 0x0 REVERT JUMPDEST PUSH1 0x0 PUSH2 0x139 DUP3 PUSH2 0xF2 JUMP JUMPDEST SWAP2 POP PUSH2 0x144 DUP4 PUSH2 0xF2 JUMP JUMPDEST SWAP3 POP DUP3 DUP3 LT ISZERO PUSH2 0x157 JUMPI PUSH2 0x156 PUSH2 0xFF JUMP JUMPDEST JUMPDEST DUP3 DUP3 SUB SWAP1 POP SWAP3 SWAP2 POP POP JUMP JUMPDEST PUSH1 0x0 DUP2 PUSH1 0x1 SHR SWAP1 POP SWAP2 SWAP1 POP JUMP JUMPDEST PUSH1 0x0 DUP1 DUP3 SWAP2 POP DUP4 SWAP1 POP JUMPDEST PUSH1 0x1 DUP6 GT ISZERO PUSH2 0x1B9 JUMPI DUP1 DUP7 DIV DUP2 GT ISZERO PUSH2 0x195 JUMPI PUSH2 0x194 PUSH2 0xFF JUMP JUMPDEST JUMPDEST PUSH1 0x1 DUP6 AND ISZERO PUSH2 0x1A4 JUMPI DUP1 DUP3 MUL SWAP2 POP JUMPDEST DUP1 DUP2 MUL SWAP1 POP PUSH2 0x1B2 DUP6 PUSH2 0x162 JUMP JUMPDEST SWAP5 POP PUSH2 0x179 JUMP JUMPDEST SWAP5 POP SWAP5 SWAP3 POP POP POP JUMP JUMPDEST PUSH1 0x0 DUP3 PUSH2 0x1D2 JUMPI PUSH1 0x1 SWAP1 POP PUSH2 0x28E JUMP JUMPDEST DUP2 PUSH2 0x1E0 JUMPI PUSH1 0x0 SWAP1 POP PUSH2 0x28E JUMP JUMPDEST DUP2 PUSH1 0x1 DUP2 EQ PUSH2 0x1F6 JUMPI PUSH1 0x2 DUP2 EQ PUSH2 0x200 JUMPI PUSH2 0x22F JUMP JUMPDEST PUSH1 0x1 SWAP2 POP POP PUSH2 0x28E JUMP JUMPDEST PUSH1 0xFF DUP5 GT ISZERO PUSH2 0x212 JUMPI PUSH2 0x211 PUSH2 0xFF JUMP JUMPDEST JUMPDEST DUP4 PUSH1 0x2 EXP SWAP2 POP DUP5 DUP3 GT ISZERO PUSH2 0x229 JUMPI PUSH2 0x228 PUSH2 0xFF JUMP JUMPDEST JUMPDEST POP PUSH2 0x28E JUMP JUMPDEST POP PUSH1 0x20 DUP4 LT PUSH2 0x133 DUP4 LT AND PUSH1 0x4E DUP5 LT PUSH1 0xB DUP5 LT AND OR ISZERO PUSH2 0x264 JUMPI DUP3 DUP3 EXP SWAP1 POP DUP4 DUP2 GT ISZERO PUSH2 0x25F JUMPI PUSH2 0x25E PUSH2 0xFF JUMP JUMPDEST JUMPDEST PUSH2 0x28E JUMP JUMPDEST PUSH2 0x271 DUP5 DUP5 DUP5 PUSH1 0x1 PUSH2 0x16F JUMP JUMPDEST SWAP3 POP SWAP1 POP DUP2 DUP5 DIV DUP2 GT ISZERO PUSH2 0x288 JUMPI PUSH2 0x287 PUSH2 0xFF JUMP JUMPDEST JUMPDEST DUP2 DUP2 MUL SWAP1 POP JUMPDEST SWAP4 SWAP3 POP POP POP JUMP JUMPDEST PUSH1 0x0 PUSH2 0x2A0 DUP3 PUSH2 0xBE JUMP JUMPDEST SWAP2 POP PUSH2 0x2AB DUP4 PUSH2 0xF2 JUMP JUMPDEST SWAP3 POP PUSH2 0x2D8 PUSH32 0xFFFFFFFFFFFFFFFFFFFFFFFFFFFFFFFFFFFFFFFFFFFFFFFFFFFFFFFFFFFFFFFF DUP5 DUP5 PUSH2 0x1C2 JUMP JUMPDEST SWAP1 POP SWAP3 SWAP2 POP POP JUMP JUMPDEST PUSH1 0x0 PUSH2 0x2EB DUP3 PUSH2 0xBE JUMP JUMPDEST SWAP2 POP PUSH2 0x2F6 DUP4 PUSH2 0xBE JUMP JUMPDEST SWAP3 POP DUP2 PUSH32 0xFFFFFFFFFFFFFFFFFFFFFFFFFFFFFFFFFFFFFFFFFFFFFFFFFFFFFFFFFFFFFFFF DIV DUP4 GT DUP3 ISZERO ISZERO AND ISZERO PUSH2 0x32F JUMPI PUSH2 0x32E PUSH2 0xFF JUMP JUMPDEST JUMPDEST DUP3 DUP3 MUL SWAP1 POP SWAP3 SWAP2 POP POP JUMP INVALID LOG2 PUSH5 0x6970667358 0x22 SLT KECCAK256 0xC6 PUSH9 0xFC0EDD610B336A6927 0xB9 0xB7 0x2F 0xE7 0xDF GASLIMIT PUSH13 0x554738439C6D8EF68915FB0112 0x22 PUSH5 0x736F6C6343 STOP ADDMOD ADDMOD STOP CALLER "
				},
				"gasEstimates": {
					"creation": {
						"codeDepositCost": "176000",
						"executionCost": "220",
						"totalCost": "176220"
					},
					"external": {
						"EthPrice()": "2407",
						"getConversionRate()": "166",
						"getEth()": "infinite"
					}
				},
				"methodIdentifiers": {
					"EthPrice()": "2cc812bc",
					"getConversionRate()": "f36089ec",
					"getEth()": "cb05b93e"
				}
			},
			"storageLayout": {
				"storage": [
					{
						"astId": 3,
						"contract": "Contract  ^0.8.8/CalculatorTester.sol:CalculatroTester",
						"label": "EthPrice",
						"offset": 0,
						"slot": "0",
						"type": "t_uint256"
					}
				],
				"types": {
					"t_uint256": {
						"encoding": "inplace",
						"label": "uint256",
						"numberOfBytes": "32"
					}
				}
			},
			"userdoc": {
				"kind": "user",
				"methods": {},
				"version": 1
			}
		}
	}
}