{
	"Contract  ^0.8.8/FundMe.sol": {
		"FundMe": {
			"abi": [
				{
					"inputs": [],
					"name": "WeiYouPay",
					"outputs": [
						{
							"internalType": "uint256",
							"name": "",
							"type": "uint256"
						}
					],
					"stateMutability": "view",
					"type": "function"
				},
				{
					"inputs": [],
					"name": "getEthToUSD",
					"outputs": [],
					"stateMutability": "nonpayable",
					"type": "function"
				}
			],
			"devdoc": {
				"kind": "dev",
				"methods": {},
				"version": 1
			},
			"evm": {
				"assembly": "    /* \"Contract  ^0.8.8/FundMe.sol\":133:1215  contract FundMe{... */\n  mstore(0x40, 0x80)\n  callvalue\n  dup1\n  iszero\n  tag_1\n  jumpi\n  0x00\n  dup1\n  revert\ntag_1:\n  pop\n  dataSize(sub_0)\n  dup1\n  dataOffset(sub_0)\n  0x00\n  codecopy\n  0x00\n  return\nstop\n\nsub_0: assembly {\n        /* \"Contract  ^0.8.8/FundMe.sol\":133:1215  contract FundMe{... */\n      mstore(0x40, 0x80)\n      callvalue\n      dup1\n      iszero\n      tag_1\n      jumpi\n      0x00\n      dup1\n      revert\n    tag_1:\n      pop\n      jumpi(tag_2, lt(calldatasize, 0x04))\n      shr(0xe0, calldataload(0x00))\n      dup1\n      0x1d470c43\n      eq\n      tag_3\n      jumpi\n      dup1\n      0x97cd9881\n      eq\n      tag_4\n      jumpi\n    tag_2:\n      0x00\n      dup1\n      revert\n        /* \"Contract  ^0.8.8/FundMe.sol\":154:178  uint256 public WeiYouPay */\n    tag_3:\n      tag_5\n      tag_6\n      jump\t// in\n    tag_5:\n      mload(0x40)\n      tag_7\n      swap2\n      swap1\n      tag_8\n      jump\t// in\n    tag_7:\n      mload(0x40)\n      dup1\n      swap2\n      sub\n      swap1\n      return\n        /* \"Contract  ^0.8.8/FundMe.sol\":568:1208  function getEthToUSD() public {... */\n    tag_4:\n      tag_9\n      tag_10\n      jump\t// in\n    tag_9:\n      stop\n        /* \"Contract  ^0.8.8/FundMe.sol\":154:178  uint256 public WeiYouPay */\n    tag_6:\n      sload(0x00)\n      dup2\n      jump\t// out\n        /* \"Contract  ^0.8.8/FundMe.sol\":568:1208  function getEthToUSD() public {... */\n    tag_10:\n        /* \"Contract  ^0.8.8/FundMe.sol\":610:622  int256 price */\n      0x00\n        /* \"Contract  ^0.8.8/FundMe.sol\":650:692  0x8A753747A1Fa494EC906cE90E9f37563A8AF630e */\n      0x8a753747a1fa494ec906ce90e9f37563a8af630e\n        /* \"Contract  ^0.8.8/FundMe.sol\":628:709  AggregatorV3Interface(0x8A753747A1Fa494EC906cE90E9f37563A8AF630e).latestRoundData */\n      0xffffffffffffffffffffffffffffffffffffffff\n      and\n      0xfeaf968c\n        /* \"Contract  ^0.8.8/FundMe.sol\":628:711  AggregatorV3Interface(0x8A753747A1Fa494EC906cE90E9f37563A8AF630e).latestRoundData() */\n      mload(0x40)\n      dup2\n      0xffffffff\n      and\n      0xe0\n      shl\n      dup2\n      mstore\n      0x04\n      add\n      0xa0\n      mload(0x40)\n      dup1\n      dup4\n      sub\n      dup2\n      dup7\n      dup1\n      extcodesize\n      iszero\n      dup1\n      iszero\n      tag_12\n      jumpi\n      0x00\n      dup1\n      revert\n    tag_12:\n      pop\n      gas\n      staticcall\n      iszero\n      dup1\n      iszero\n      tag_14\n      jumpi\n      returndatasize\n      0x00\n      dup1\n      returndatacopy\n      revert(0x00, returndatasize)\n    tag_14:\n      pop\n      pop\n      pop\n      pop\n      mload(0x40)\n      returndatasize\n      not(0x1f)\n      0x1f\n      dup3\n      add\n      and\n      dup3\n      add\n      dup1\n      0x40\n      mstore\n      pop\n      dup2\n      add\n      swap1\n      tag_15\n      swap2\n      swap1\n      tag_16\n      jump\t// in\n    tag_15:\n        /* \"Contract  ^0.8.8/FundMe.sol\":608:711  (,int256 price,,,) =AggregatorV3Interface(0x8A753747A1Fa494EC906cE90E9f37563A8AF630e).latestRoundData() */\n      pop\n      pop\n      pop\n      swap2\n      pop\n      pop\n        /* \"Contract  ^0.8.8/FundMe.sol\":968:982  uint8 decimals */\n      0x00\n        /* \"Contract  ^0.8.8/FundMe.sol\":1005:1047  0x8A753747A1Fa494EC906cE90E9f37563A8AF630e */\n      0x8a753747a1fa494ec906ce90e9f37563a8af630e\n        /* \"Contract  ^0.8.8/FundMe.sol\":983:1057  AggregatorV3Interface(0x8A753747A1Fa494EC906cE90E9f37563A8AF630e).decimals */\n      0xffffffffffffffffffffffffffffffffffffffff\n      and\n      0x313ce567\n        /* \"Contract  ^0.8.8/FundMe.sol\":983:1059  AggregatorV3Interface(0x8A753747A1Fa494EC906cE90E9f37563A8AF630e).decimals() */\n      mload(0x40)\n      dup2\n      0xffffffff\n      and\n      0xe0\n      shl\n      dup2\n      mstore\n      0x04\n      add\n      0x20\n      mload(0x40)\n      dup1\n      dup4\n      sub\n      dup2\n      dup7\n      dup1\n      extcodesize\n      iszero\n      dup1\n      iszero\n      tag_17\n      jumpi\n      0x00\n      dup1\n      revert\n    tag_17:\n      pop\n      gas\n      staticcall\n      iszero\n      dup1\n      iszero\n      tag_19\n      jumpi\n      returndatasize\n      0x00\n      dup1\n      returndatacopy\n      revert(0x00, returndatasize)\n    tag_19:\n      pop\n      pop\n      pop\n      pop\n      mload(0x40)\n      returndatasize\n      not(0x1f)\n      0x1f\n      dup3\n      add\n      and\n      dup3\n      add\n      dup1\n      0x40\n      mstore\n      pop\n      dup2\n      add\n      swap1\n      tag_20\n      swap2\n      swap1\n      tag_21\n      jump\t// in\n    tag_20:\n        /* \"Contract  ^0.8.8/FundMe.sol\":968:1059  uint8 decimals=AggregatorV3Interface(0x8A753747A1Fa494EC906cE90E9f37563A8AF630e).decimals() */\n      swap1\n      pop\n        /* \"Contract  ^0.8.8/FundMe.sol\":1069:1088  uint256 OneETHToWei */\n      0x00\n        /* \"Contract  ^0.8.8/FundMe.sol\":1123:1131  decimals */\n      dup2\n        /* \"Contract  ^0.8.8/FundMe.sol\":1120:1122  18 */\n      0x12\n        /* \"Contract  ^0.8.8/FundMe.sol\":1120:1131  18-decimals */\n      tag_22\n      swap2\n      swap1\n      tag_23\n      jump\t// in\n    tag_22:\n        /* \"Contract  ^0.8.8/FundMe.sol\":1115:1117  10 */\n      0x0a\n        /* \"Contract  ^0.8.8/FundMe.sol\":1115:1132  10**(18-decimals) */\n      tag_24\n      swap2\n      swap1\n      tag_25\n      jump\t// in\n    tag_24:\n        /* \"Contract  ^0.8.8/FundMe.sol\":1106:1111  price */\n      dup4\n        /* \"Contract  ^0.8.8/FundMe.sol\":1098:1132  uint256(price) * 10**(18-decimals) */\n      tag_26\n      swap2\n      swap1\n      tag_27\n      jump\t// in\n    tag_26:\n        /* \"Contract  ^0.8.8/FundMe.sol\":1069:1133  uint256 OneETHToWei= uint256(uint256(price) * 10**(18-decimals)) */\n      swap1\n      pop\n        /* \"Contract  ^0.8.8/FundMe.sol\":1191:1199  decimals */\n      dup2\n        /* \"Contract  ^0.8.8/FundMe.sol\":1187:1189  10 */\n      0x0a\n        /* \"Contract  ^0.8.8/FundMe.sol\":1187:1199  10**decimals */\n      tag_28\n      swap2\n      swap1\n      tag_25\n      jump\t// in\n    tag_28:\n        /* \"Contract  ^0.8.8/FundMe.sol\":1179:1184  price */\n      dup4\n        /* \"Contract  ^0.8.8/FundMe.sol\":1171:1200  uint256(price)/(10**decimals) */\n      tag_29\n      swap2\n      swap1\n      tag_30\n      jump\t// in\n    tag_29:\n        /* \"Contract  ^0.8.8/FundMe.sol\":1157:1168  OneETHToWei */\n      dup2\n        /* \"Contract  ^0.8.8/FundMe.sol\":1155:1156  5 */\n      0x05\n        /* \"Contract  ^0.8.8/FundMe.sol\":1155:1168  5*OneETHToWei */\n      tag_31\n      swap2\n      swap1\n      tag_27\n      jump\t// in\n    tag_31:\n        /* \"Contract  ^0.8.8/FundMe.sol\":1154:1201  (5*OneETHToWei)/(uint256(price)/(10**decimals)) */\n      tag_32\n      swap2\n      swap1\n      tag_30\n      jump\t// in\n    tag_32:\n        /* \"Contract  ^0.8.8/FundMe.sol\":1143:1152  WeiYouPay */\n      0x00\n        /* \"Contract  ^0.8.8/FundMe.sol\":1143:1201  WeiYouPay= (5*OneETHToWei)/(uint256(price)/(10**decimals)) */\n      dup2\n      swap1\n      sstore\n      pop\n        /* \"Contract  ^0.8.8/FundMe.sol\":598:1208  {... */\n      pop\n      pop\n      pop\n        /* \"Contract  ^0.8.8/FundMe.sol\":568:1208  function getEthToUSD() public {... */\n      jump\t// out\n        /* \"#utility.yul\":7:84   */\n    tag_33:\n        /* \"#utility.yul\":44:51   */\n      0x00\n        /* \"#utility.yul\":73:78   */\n      dup2\n        /* \"#utility.yul\":62:78   */\n      swap1\n      pop\n        /* \"#utility.yul\":7:84   */\n      swap2\n      swap1\n      pop\n      jump\t// out\n        /* \"#utility.yul\":90:208   */\n    tag_34:\n        /* \"#utility.yul\":177:201   */\n      tag_57\n        /* \"#utility.yul\":195:200   */\n      dup2\n        /* \"#utility.yul\":177:201   */\n      tag_33\n      jump\t// in\n    tag_57:\n        /* \"#utility.yul\":172:175   */\n      dup3\n        /* \"#utility.yul\":165:202   */\n      mstore\n        /* \"#utility.yul\":90:208   */\n      pop\n      pop\n      jump\t// out\n        /* \"#utility.yul\":214:436   */\n    tag_8:\n        /* \"#utility.yul\":307:311   */\n      0x00\n        /* \"#utility.yul\":345:347   */\n      0x20\n        /* \"#utility.yul\":334:343   */\n      dup3\n        /* \"#utility.yul\":330:348   */\n      add\n        /* \"#utility.yul\":322:348   */\n      swap1\n      pop\n        /* \"#utility.yul\":358:429   */\n      tag_59\n        /* \"#utility.yul\":426:427   */\n      0x00\n        /* \"#utility.yul\":415:424   */\n      dup4\n        /* \"#utility.yul\":411:428   */\n      add\n        /* \"#utility.yul\":402:408   */\n      dup5\n        /* \"#utility.yul\":358:429   */\n      tag_34\n      jump\t// in\n    tag_59:\n        /* \"#utility.yul\":214:436   */\n      swap3\n      swap2\n      pop\n      pop\n      jump\t// out\n        /* \"#utility.yul\":523:640   */\n    tag_36:\n        /* \"#utility.yul\":632:633   */\n      0x00\n        /* \"#utility.yul\":629:630   */\n      dup1\n        /* \"#utility.yul\":622:634   */\n      revert\n        /* \"#utility.yul\":769:874   */\n    tag_38:\n        /* \"#utility.yul\":805:812   */\n      0x00\n        /* \"#utility.yul\":845:867   */\n      0xffffffffffffffffffff\n        /* \"#utility.yul\":838:843   */\n      dup3\n        /* \"#utility.yul\":834:868   */\n      and\n        /* \"#utility.yul\":823:868   */\n      swap1\n      pop\n        /* \"#utility.yul\":769:874   */\n      swap2\n      swap1\n      pop\n      jump\t// out\n        /* \"#utility.yul\":880:1000   */\n    tag_39:\n        /* \"#utility.yul\":952:975   */\n      tag_65\n        /* \"#utility.yul\":969:974   */\n      dup2\n        /* \"#utility.yul\":952:975   */\n      tag_38\n      jump\t// in\n    tag_65:\n        /* \"#utility.yul\":945:950   */\n      dup2\n        /* \"#utility.yul\":942:976   */\n      eq\n        /* \"#utility.yul\":932:994   */\n      tag_66\n      jumpi\n        /* \"#utility.yul\":990:991   */\n      0x00\n        /* \"#utility.yul\":987:988   */\n      dup1\n        /* \"#utility.yul\":980:992   */\n      revert\n        /* \"#utility.yul\":932:994   */\n    tag_66:\n        /* \"#utility.yul\":880:1000   */\n      pop\n      jump\t// out\n        /* \"#utility.yul\":1006:1147   */\n    tag_40:\n        /* \"#utility.yul\":1062:1067   */\n      0x00\n        /* \"#utility.yul\":1093:1099   */\n      dup2\n        /* \"#utility.yul\":1087:1100   */\n      mload\n        /* \"#utility.yul\":1078:1100   */\n      swap1\n      pop\n        /* \"#utility.yul\":1109:1141   */\n      tag_68\n        /* \"#utility.yul\":1135:1140   */\n      dup2\n        /* \"#utility.yul\":1109:1141   */\n      tag_39\n      jump\t// in\n    tag_68:\n        /* \"#utility.yul\":1006:1147   */\n      swap3\n      swap2\n      pop\n      pop\n      jump\t// out\n        /* \"#utility.yul\":1153:1229   */\n    tag_41:\n        /* \"#utility.yul\":1189:1196   */\n      0x00\n        /* \"#utility.yul\":1218:1223   */\n      dup2\n        /* \"#utility.yul\":1207:1223   */\n      swap1\n      pop\n        /* \"#utility.yul\":1153:1229   */\n      swap2\n      swap1\n      pop\n      jump\t// out\n        /* \"#utility.yul\":1235:1355   */\n    tag_42:\n        /* \"#utility.yul\":1307:1330   */\n      tag_71\n        /* \"#utility.yul\":1324:1329   */\n      dup2\n        /* \"#utility.yul\":1307:1330   */\n      tag_41\n      jump\t// in\n    tag_71:\n        /* \"#utility.yul\":1300:1305   */\n      dup2\n        /* \"#utility.yul\":1297:1331   */\n      eq\n        /* \"#utility.yul\":1287:1349   */\n      tag_72\n      jumpi\n        /* \"#utility.yul\":1345:1346   */\n      0x00\n        /* \"#utility.yul\":1342:1343   */\n      dup1\n        /* \"#utility.yul\":1335:1347   */\n      revert\n        /* \"#utility.yul\":1287:1349   */\n    tag_72:\n        /* \"#utility.yul\":1235:1355   */\n      pop\n      jump\t// out\n        /* \"#utility.yul\":1361:1502   */\n    tag_43:\n        /* \"#utility.yul\":1417:1422   */\n      0x00\n        /* \"#utility.yul\":1448:1454   */\n      dup2\n        /* \"#utility.yul\":1442:1455   */\n      mload\n        /* \"#utility.yul\":1433:1455   */\n      swap1\n      pop\n        /* \"#utility.yul\":1464:1496   */\n      tag_74\n        /* \"#utility.yul\":1490:1495   */\n      dup2\n        /* \"#utility.yul\":1464:1496   */\n      tag_42\n      jump\t// in\n    tag_74:\n        /* \"#utility.yul\":1361:1502   */\n      swap3\n      swap2\n      pop\n      pop\n      jump\t// out\n        /* \"#utility.yul\":1508:1630   */\n    tag_44:\n        /* \"#utility.yul\":1581:1605   */\n      tag_76\n        /* \"#utility.yul\":1599:1604   */\n      dup2\n        /* \"#utility.yul\":1581:1605   */\n      tag_33\n      jump\t// in\n    tag_76:\n        /* \"#utility.yul\":1574:1579   */\n      dup2\n        /* \"#utility.yul\":1571:1606   */\n      eq\n        /* \"#utility.yul\":1561:1624   */\n      tag_77\n      jumpi\n        /* \"#utility.yul\":1620:1621   */\n      0x00\n        /* \"#utility.yul\":1617:1618   */\n      dup1\n        /* \"#utility.yul\":1610:1622   */\n      revert\n        /* \"#utility.yul\":1561:1624   */\n    tag_77:\n        /* \"#utility.yul\":1508:1630   */\n      pop\n      jump\t// out\n        /* \"#utility.yul\":1636:1779   */\n    tag_45:\n        /* \"#utility.yul\":1693:1698   */\n      0x00\n        /* \"#utility.yul\":1724:1730   */\n      dup2\n        /* \"#utility.yul\":1718:1731   */\n      mload\n        /* \"#utility.yul\":1709:1731   */\n      swap1\n      pop\n        /* \"#utility.yul\":1740:1773   */\n      tag_79\n        /* \"#utility.yul\":1767:1772   */\n      dup2\n        /* \"#utility.yul\":1740:1773   */\n      tag_44\n      jump\t// in\n    tag_79:\n        /* \"#utility.yul\":1636:1779   */\n      swap3\n      swap2\n      pop\n      pop\n      jump\t// out\n        /* \"#utility.yul\":1785:2756   */\n    tag_16:\n        /* \"#utility.yul\":1888:1894   */\n      0x00\n        /* \"#utility.yul\":1896:1902   */\n      dup1\n        /* \"#utility.yul\":1904:1910   */\n      0x00\n        /* \"#utility.yul\":1912:1918   */\n      dup1\n        /* \"#utility.yul\":1920:1926   */\n      0x00\n        /* \"#utility.yul\":1969:1972   */\n      0xa0\n        /* \"#utility.yul\":1957:1966   */\n      dup7\n        /* \"#utility.yul\":1948:1955   */\n      dup9\n        /* \"#utility.yul\":1944:1967   */\n      sub\n        /* \"#utility.yul\":1940:1973   */\n      slt\n        /* \"#utility.yul\":1937:2057   */\n      iszero\n      tag_81\n      jumpi\n        /* \"#utility.yul\":1976:2055   */\n      tag_82\n      tag_36\n      jump\t// in\n    tag_82:\n        /* \"#utility.yul\":1937:2057   */\n    tag_81:\n        /* \"#utility.yul\":2096:2097   */\n      0x00\n        /* \"#utility.yul\":2121:2184   */\n      tag_83\n        /* \"#utility.yul\":2176:2183   */\n      dup9\n        /* \"#utility.yul\":2167:2173   */\n      dup3\n        /* \"#utility.yul\":2156:2165   */\n      dup10\n        /* \"#utility.yul\":2152:2174   */\n      add\n        /* \"#utility.yul\":2121:2184   */\n      tag_40\n      jump\t// in\n    tag_83:\n        /* \"#utility.yul\":2111:2184   */\n      swap6\n      pop\n        /* \"#utility.yul\":2067:2194   */\n      pop\n        /* \"#utility.yul\":2233:2235   */\n      0x20\n        /* \"#utility.yul\":2259:2322   */\n      tag_84\n        /* \"#utility.yul\":2314:2321   */\n      dup9\n        /* \"#utility.yul\":2305:2311   */\n      dup3\n        /* \"#utility.yul\":2294:2303   */\n      dup10\n        /* \"#utility.yul\":2290:2312   */\n      add\n        /* \"#utility.yul\":2259:2322   */\n      tag_43\n      jump\t// in\n    tag_84:\n        /* \"#utility.yul\":2249:2322   */\n      swap5\n      pop\n        /* \"#utility.yul\":2204:2332   */\n      pop\n        /* \"#utility.yul\":2371:2373   */\n      0x40\n        /* \"#utility.yul\":2397:2461   */\n      tag_85\n        /* \"#utility.yul\":2453:2460   */\n      dup9\n        /* \"#utility.yul\":2444:2450   */\n      dup3\n        /* \"#utility.yul\":2433:2442   */\n      dup10\n        /* \"#utility.yul\":2429:2451   */\n      add\n        /* \"#utility.yul\":2397:2461   */\n      tag_45\n      jump\t// in\n    tag_85:\n        /* \"#utility.yul\":2387:2461   */\n      swap4\n      pop\n        /* \"#utility.yul\":2342:2471   */\n      pop\n        /* \"#utility.yul\":2510:2512   */\n      0x60\n        /* \"#utility.yul\":2536:2600   */\n      tag_86\n        /* \"#utility.yul\":2592:2599   */\n      dup9\n        /* \"#utility.yul\":2583:2589   */\n      dup3\n        /* \"#utility.yul\":2572:2581   */\n      dup10\n        /* \"#utility.yul\":2568:2590   */\n      add\n        /* \"#utility.yul\":2536:2600   */\n      tag_45\n      jump\t// in\n    tag_86:\n        /* \"#utility.yul\":2526:2600   */\n      swap3\n      pop\n        /* \"#utility.yul\":2481:2610   */\n      pop\n        /* \"#utility.yul\":2649:2652   */\n      0x80\n        /* \"#utility.yul\":2676:2739   */\n      tag_87\n        /* \"#utility.yul\":2731:2738   */\n      dup9\n        /* \"#utility.yul\":2722:2728   */\n      dup3\n        /* \"#utility.yul\":2711:2720   */\n      dup10\n        /* \"#utility.yul\":2707:2729   */\n      add\n        /* \"#utility.yul\":2676:2739   */\n      tag_40\n      jump\t// in\n    tag_87:\n        /* \"#utility.yul\":2666:2739   */\n      swap2\n      pop\n        /* \"#utility.yul\":2620:2749   */\n      pop\n        /* \"#utility.yul\":1785:2756   */\n      swap3\n      swap6\n      pop\n      swap3\n      swap6\n      swap1\n      swap4\n      pop\n      jump\t// out\n        /* \"#utility.yul\":2762:2848   */\n    tag_46:\n        /* \"#utility.yul\":2797:2804   */\n      0x00\n        /* \"#utility.yul\":2837:2841   */\n      0xff\n        /* \"#utility.yul\":2830:2835   */\n      dup3\n        /* \"#utility.yul\":2826:2842   */\n      and\n        /* \"#utility.yul\":2815:2842   */\n      swap1\n      pop\n        /* \"#utility.yul\":2762:2848   */\n      swap2\n      swap1\n      pop\n      jump\t// out\n        /* \"#utility.yul\":2854:2972   */\n    tag_47:\n        /* \"#utility.yul\":2925:2947   */\n      tag_90\n        /* \"#utility.yul\":2941:2946   */\n      dup2\n        /* \"#utility.yul\":2925:2947   */\n      tag_46\n      jump\t// in\n    tag_90:\n        /* \"#utility.yul\":2918:2923   */\n      dup2\n        /* \"#utility.yul\":2915:2948   */\n      eq\n        /* \"#utility.yul\":2905:2966   */\n      tag_91\n      jumpi\n        /* \"#utility.yul\":2962:2963   */\n      0x00\n        /* \"#utility.yul\":2959:2960   */\n      dup1\n        /* \"#utility.yul\":2952:2964   */\n      revert\n        /* \"#utility.yul\":2905:2966   */\n    tag_91:\n        /* \"#utility.yul\":2854:2972   */\n      pop\n      jump\t// out\n        /* \"#utility.yul\":2978:3117   */\n    tag_48:\n        /* \"#utility.yul\":3033:3038   */\n      0x00\n        /* \"#utility.yul\":3064:3070   */\n      dup2\n        /* \"#utility.yul\":3058:3071   */\n      mload\n        /* \"#utility.yul\":3049:3071   */\n      swap1\n      pop\n        /* \"#utility.yul\":3080:3111   */\n      tag_93\n        /* \"#utility.yul\":3105:3110   */\n      dup2\n        /* \"#utility.yul\":3080:3111   */\n      tag_47\n      jump\t// in\n    tag_93:\n        /* \"#utility.yul\":2978:3117   */\n      swap3\n      swap2\n      pop\n      pop\n      jump\t// out\n        /* \"#utility.yul\":3123:3470   */\n    tag_21:\n        /* \"#utility.yul\":3191:3197   */\n      0x00\n        /* \"#utility.yul\":3240:3242   */\n      0x20\n        /* \"#utility.yul\":3228:3237   */\n      dup3\n        /* \"#utility.yul\":3219:3226   */\n      dup5\n        /* \"#utility.yul\":3215:3238   */\n      sub\n        /* \"#utility.yul\":3211:3243   */\n      slt\n        /* \"#utility.yul\":3208:3327   */\n      iszero\n      tag_95\n      jumpi\n        /* \"#utility.yul\":3246:3325   */\n      tag_96\n      tag_36\n      jump\t// in\n    tag_96:\n        /* \"#utility.yul\":3208:3327   */\n    tag_95:\n        /* \"#utility.yul\":3366:3367   */\n      0x00\n        /* \"#utility.yul\":3391:3453   */\n      tag_97\n        /* \"#utility.yul\":3445:3452   */\n      dup5\n        /* \"#utility.yul\":3436:3442   */\n      dup3\n        /* \"#utility.yul\":3425:3434   */\n      dup6\n        /* \"#utility.yul\":3421:3443   */\n      add\n        /* \"#utility.yul\":3391:3453   */\n      tag_48\n      jump\t// in\n    tag_97:\n        /* \"#utility.yul\":3381:3453   */\n      swap2\n      pop\n        /* \"#utility.yul\":3337:3463   */\n      pop\n        /* \"#utility.yul\":3123:3470   */\n      swap3\n      swap2\n      pop\n      pop\n      jump\t// out\n        /* \"#utility.yul\":3476:3656   */\n    tag_49:\n        /* \"#utility.yul\":3524:3601   */\n      0x4e487b7100000000000000000000000000000000000000000000000000000000\n        /* \"#utility.yul\":3521:3522   */\n      0x00\n        /* \"#utility.yul\":3514:3602   */\n      mstore\n        /* \"#utility.yul\":3621:3625   */\n      0x11\n        /* \"#utility.yul\":3618:3619   */\n      0x04\n        /* \"#utility.yul\":3611:3626   */\n      mstore\n        /* \"#utility.yul\":3645:3649   */\n      0x24\n        /* \"#utility.yul\":3642:3643   */\n      0x00\n        /* \"#utility.yul\":3635:3650   */\n      revert\n        /* \"#utility.yul\":3662:3847   */\n    tag_23:\n        /* \"#utility.yul\":3700:3704   */\n      0x00\n        /* \"#utility.yul\":3720:3738   */\n      tag_100\n        /* \"#utility.yul\":3736:3737   */\n      dup3\n        /* \"#utility.yul\":3720:3738   */\n      tag_46\n      jump\t// in\n    tag_100:\n        /* \"#utility.yul\":3715:3738   */\n      swap2\n      pop\n        /* \"#utility.yul\":3752:3770   */\n      tag_101\n        /* \"#utility.yul\":3768:3769   */\n      dup4\n        /* \"#utility.yul\":3752:3770   */\n      tag_46\n      jump\t// in\n    tag_101:\n        /* \"#utility.yul\":3747:3770   */\n      swap3\n      pop\n        /* \"#utility.yul\":3789:3790   */\n      dup3\n        /* \"#utility.yul\":3786:3787   */\n      dup3\n        /* \"#utility.yul\":3783:3791   */\n      lt\n        /* \"#utility.yul\":3780:3814   */\n      iszero\n      tag_102\n      jumpi\n        /* \"#utility.yul\":3794:3812   */\n      tag_103\n      tag_49\n      jump\t// in\n    tag_103:\n        /* \"#utility.yul\":3780:3814   */\n    tag_102:\n        /* \"#utility.yul\":3839:3840   */\n      dup3\n        /* \"#utility.yul\":3836:3837   */\n      dup3\n        /* \"#utility.yul\":3832:3841   */\n      sub\n        /* \"#utility.yul\":3824:3841   */\n      swap1\n      pop\n        /* \"#utility.yul\":3662:3847   */\n      swap3\n      swap2\n      pop\n      pop\n      jump\t// out\n        /* \"#utility.yul\":3853:3955   */\n    tag_50:\n        /* \"#utility.yul\":3895:3903   */\n      0x00\n        /* \"#utility.yul\":3942:3947   */\n      dup2\n        /* \"#utility.yul\":3939:3940   */\n      0x01\n        /* \"#utility.yul\":3935:3948   */\n      shr\n        /* \"#utility.yul\":3914:3948   */\n      swap1\n      pop\n        /* \"#utility.yul\":3853:3955   */\n      swap2\n      swap1\n      pop\n      jump\t// out\n        /* \"#utility.yul\":3961:4809   */\n    tag_51:\n        /* \"#utility.yul\":4022:4027   */\n      0x00\n        /* \"#utility.yul\":4029:4033   */\n      dup1\n        /* \"#utility.yul\":4053:4059   */\n      dup3\n        /* \"#utility.yul\":4044:4059   */\n      swap2\n      pop\n        /* \"#utility.yul\":4077:4082   */\n      dup4\n        /* \"#utility.yul\":4068:4082   */\n      swap1\n      pop\n        /* \"#utility.yul\":4091:4803   */\n    tag_106:\n        /* \"#utility.yul\":4112:4113   */\n      0x01\n        /* \"#utility.yul\":4102:4110   */\n      dup6\n        /* \"#utility.yul\":4099:4114   */\n      gt\n        /* \"#utility.yul\":4091:4803   */\n      iszero\n      tag_108\n      jumpi\n        /* \"#utility.yul\":4207:4211   */\n      dup1\n        /* \"#utility.yul\":4202:4205   */\n      dup7\n        /* \"#utility.yul\":4198:4212   */\n      div\n        /* \"#utility.yul\":4192:4196   */\n      dup2\n        /* \"#utility.yul\":4189:4213   */\n      gt\n        /* \"#utility.yul\":4186:4236   */\n      iszero\n      tag_109\n      jumpi\n        /* \"#utility.yul\":4216:4234   */\n      tag_110\n      tag_49\n      jump\t// in\n    tag_110:\n        /* \"#utility.yul\":4186:4236   */\n    tag_109:\n        /* \"#utility.yul\":4266:4267   */\n      0x01\n        /* \"#utility.yul\":4256:4264   */\n      dup6\n        /* \"#utility.yul\":4252:4268   */\n      and\n        /* \"#utility.yul\":4249:4700   */\n      iszero\n      tag_111\n      jumpi\n        /* \"#utility.yul\":4681:4685   */\n      dup1\n        /* \"#utility.yul\":4674:4679   */\n      dup3\n        /* \"#utility.yul\":4670:4686   */\n      mul\n        /* \"#utility.yul\":4661:4686   */\n      swap2\n      pop\n        /* \"#utility.yul\":4249:4700   */\n    tag_111:\n        /* \"#utility.yul\":4731:4735   */\n      dup1\n        /* \"#utility.yul\":4725:4729   */\n      dup2\n        /* \"#utility.yul\":4721:4736   */\n      mul\n        /* \"#utility.yul\":4713:4736   */\n      swap1\n      pop\n        /* \"#utility.yul\":4761:4793   */\n      tag_112\n        /* \"#utility.yul\":4784:4792   */\n      dup6\n        /* \"#utility.yul\":4761:4793   */\n      tag_50\n      jump\t// in\n    tag_112:\n        /* \"#utility.yul\":4749:4793   */\n      swap5\n      pop\n        /* \"#utility.yul\":4091:4803   */\n      jump(tag_106)\n    tag_108:\n        /* \"#utility.yul\":3961:4809   */\n      swap5\n      pop\n      swap5\n      swap3\n      pop\n      pop\n      pop\n      jump\t// out\n        /* \"#utility.yul\":4815:5888   */\n    tag_52:\n        /* \"#utility.yul\":4869:4874   */\n      0x00\n        /* \"#utility.yul\":5060:5068   */\n      dup3\n        /* \"#utility.yul\":5050:5090   */\n      tag_114\n      jumpi\n        /* \"#utility.yul\":5081:5082   */\n      0x01\n        /* \"#utility.yul\":5072:5082   */\n      swap1\n      pop\n        /* \"#utility.yul\":5083:5088   */\n      jump(tag_113)\n        /* \"#utility.yul\":5050:5090   */\n    tag_114:\n        /* \"#utility.yul\":5109:5113   */\n      dup2\n        /* \"#utility.yul\":5099:5135   */\n      tag_115\n      jumpi\n        /* \"#utility.yul\":5126:5127   */\n      0x00\n        /* \"#utility.yul\":5117:5127   */\n      swap1\n      pop\n        /* \"#utility.yul\":5128:5133   */\n      jump(tag_113)\n        /* \"#utility.yul\":5099:5135   */\n    tag_115:\n        /* \"#utility.yul\":5195:5199   */\n      dup2\n        /* \"#utility.yul\":5243:5244   */\n      0x01\n        /* \"#utility.yul\":5238:5265   */\n      dup2\n      eq\n      tag_117\n      jumpi\n        /* \"#utility.yul\":5279:5280   */\n      0x02\n        /* \"#utility.yul\":5274:5465   */\n      dup2\n      eq\n      tag_118\n      jumpi\n        /* \"#utility.yul\":5188:5465   */\n      jump(tag_116)\n        /* \"#utility.yul\":5238:5265   */\n    tag_117:\n        /* \"#utility.yul\":5256:5257   */\n      0x01\n        /* \"#utility.yul\":5247:5257   */\n      swap2\n      pop\n        /* \"#utility.yul\":5258:5263   */\n      pop\n      jump(tag_113)\n        /* \"#utility.yul\":5274:5465   */\n    tag_118:\n        /* \"#utility.yul\":5319:5322   */\n      0xff\n        /* \"#utility.yul\":5309:5317   */\n      dup5\n        /* \"#utility.yul\":5306:5323   */\n      gt\n        /* \"#utility.yul\":5303:5346   */\n      iszero\n      tag_119\n      jumpi\n        /* \"#utility.yul\":5326:5344   */\n      tag_120\n      tag_49\n      jump\t// in\n    tag_120:\n        /* \"#utility.yul\":5303:5346   */\n    tag_119:\n        /* \"#utility.yul\":5375:5383   */\n      dup4\n        /* \"#utility.yul\":5372:5373   */\n      0x02\n        /* \"#utility.yul\":5368:5384   */\n      exp\n        /* \"#utility.yul\":5359:5384   */\n      swap2\n      pop\n        /* \"#utility.yul\":5410:5413   */\n      dup5\n        /* \"#utility.yul\":5403:5408   */\n      dup3\n        /* \"#utility.yul\":5400:5414   */\n      gt\n        /* \"#utility.yul\":5397:5437   */\n      iszero\n      tag_121\n      jumpi\n        /* \"#utility.yul\":5417:5435   */\n      tag_122\n      tag_49\n      jump\t// in\n    tag_122:\n        /* \"#utility.yul\":5397:5437   */\n    tag_121:\n        /* \"#utility.yul\":5450:5455   */\n      pop\n      jump(tag_113)\n        /* \"#utility.yul\":5188:5465   */\n    tag_116:\n      pop\n        /* \"#utility.yul\":5574:5576   */\n      0x20\n        /* \"#utility.yul\":5564:5572   */\n      dup4\n        /* \"#utility.yul\":5561:5577   */\n      lt\n        /* \"#utility.yul\":5555:5558   */\n      0x0133\n        /* \"#utility.yul\":5549:5553   */\n      dup4\n        /* \"#utility.yul\":5546:5559   */\n      lt\n        /* \"#utility.yul\":5542:5578   */\n      and\n        /* \"#utility.yul\":5524:5526   */\n      0x4e\n        /* \"#utility.yul\":5514:5522   */\n      dup5\n        /* \"#utility.yul\":5511:5527   */\n      lt\n        /* \"#utility.yul\":5506:5508   */\n      0x0b\n        /* \"#utility.yul\":5500:5504   */\n      dup5\n        /* \"#utility.yul\":5497:5509   */\n      lt\n        /* \"#utility.yul\":5493:5528   */\n      and\n        /* \"#utility.yul\":5477:5588   */\n      or\n        /* \"#utility.yul\":5474:5720   */\n      iszero\n      tag_123\n      jumpi\n        /* \"#utility.yul\":5630:5638   */\n      dup3\n        /* \"#utility.yul\":5624:5628   */\n      dup3\n        /* \"#utility.yul\":5620:5639   */\n      exp\n        /* \"#utility.yul\":5611:5639   */\n      swap1\n      pop\n        /* \"#utility.yul\":5665:5668   */\n      dup4\n        /* \"#utility.yul\":5658:5663   */\n      dup2\n        /* \"#utility.yul\":5655:5669   */\n      gt\n        /* \"#utility.yul\":5652:5692   */\n      iszero\n      tag_124\n      jumpi\n        /* \"#utility.yul\":5672:5690   */\n      tag_125\n      tag_49\n      jump\t// in\n    tag_125:\n        /* \"#utility.yul\":5652:5692   */\n    tag_124:\n        /* \"#utility.yul\":5705:5710   */\n      jump(tag_113)\n        /* \"#utility.yul\":5474:5720   */\n    tag_123:\n        /* \"#utility.yul\":5745:5787   */\n      tag_126\n        /* \"#utility.yul\":5783:5786   */\n      dup5\n        /* \"#utility.yul\":5773:5781   */\n      dup5\n        /* \"#utility.yul\":5767:5771   */\n      dup5\n        /* \"#utility.yul\":5764:5765   */\n      0x01\n        /* \"#utility.yul\":5745:5787   */\n      tag_51\n      jump\t// in\n    tag_126:\n        /* \"#utility.yul\":5730:5787   */\n      swap3\n      pop\n      swap1\n      pop\n        /* \"#utility.yul\":5819:5823   */\n      dup2\n        /* \"#utility.yul\":5814:5817   */\n      dup5\n        /* \"#utility.yul\":5810:5824   */\n      div\n        /* \"#utility.yul\":5803:5808   */\n      dup2\n        /* \"#utility.yul\":5800:5825   */\n      gt\n        /* \"#utility.yul\":5797:5848   */\n      iszero\n      tag_127\n      jumpi\n        /* \"#utility.yul\":5828:5846   */\n      tag_128\n      tag_49\n      jump\t// in\n    tag_128:\n        /* \"#utility.yul\":5797:5848   */\n    tag_127:\n        /* \"#utility.yul\":5877:5881   */\n      dup2\n        /* \"#utility.yul\":5870:5875   */\n      dup2\n        /* \"#utility.yul\":5866:5882   */\n      mul\n        /* \"#utility.yul\":5857:5882   */\n      swap1\n      pop\n        /* \"#utility.yul\":4815:5888   */\n    tag_113:\n      swap4\n      swap3\n      pop\n      pop\n      pop\n      jump\t// out\n        /* \"#utility.yul\":5894:6175   */\n    tag_25:\n        /* \"#utility.yul\":5952:5957   */\n      0x00\n        /* \"#utility.yul\":5976:5999   */\n      tag_130\n        /* \"#utility.yul\":5994:5998   */\n      dup3\n        /* \"#utility.yul\":5976:5999   */\n      tag_33\n      jump\t// in\n    tag_130:\n        /* \"#utility.yul\":5968:5999   */\n      swap2\n      pop\n        /* \"#utility.yul\":6020:6045   */\n      tag_131\n        /* \"#utility.yul\":6036:6044   */\n      dup4\n        /* \"#utility.yul\":6020:6045   */\n      tag_46\n      jump\t// in\n    tag_131:\n        /* \"#utility.yul\":6008:6045   */\n      swap3\n      pop\n        /* \"#utility.yul\":6064:6168   */\n      tag_132\n        /* \"#utility.yul\":6101:6167   */\n      0xffffffffffffffffffffffffffffffffffffffffffffffffffffffffffffffff\n        /* \"#utility.yul\":6091:6099   */\n      dup5\n        /* \"#utility.yul\":6085:6089   */\n      dup5\n        /* \"#utility.yul\":6064:6168   */\n      tag_52\n      jump\t// in\n    tag_132:\n        /* \"#utility.yul\":6055:6168   */\n      swap1\n      pop\n        /* \"#utility.yul\":5894:6175   */\n      swap3\n      swap2\n      pop\n      pop\n      jump\t// out\n        /* \"#utility.yul\":6181:6529   */\n    tag_27:\n        /* \"#utility.yul\":6221:6228   */\n      0x00\n        /* \"#utility.yul\":6244:6264   */\n      tag_134\n        /* \"#utility.yul\":6262:6263   */\n      dup3\n        /* \"#utility.yul\":6244:6264   */\n      tag_33\n      jump\t// in\n    tag_134:\n        /* \"#utility.yul\":6239:6264   */\n      swap2\n      pop\n        /* \"#utility.yul\":6278:6298   */\n      tag_135\n        /* \"#utility.yul\":6296:6297   */\n      dup4\n        /* \"#utility.yul\":6278:6298   */\n      tag_33\n      jump\t// in\n    tag_135:\n        /* \"#utility.yul\":6273:6298   */\n      swap3\n      pop\n        /* \"#utility.yul\":6466:6467   */\n      dup2\n        /* \"#utility.yul\":6398:6464   */\n      0xffffffffffffffffffffffffffffffffffffffffffffffffffffffffffffffff\n        /* \"#utility.yul\":6394:6468   */\n      div\n        /* \"#utility.yul\":6391:6392   */\n      dup4\n        /* \"#utility.yul\":6388:6469   */\n      gt\n        /* \"#utility.yul\":6383:6384   */\n      dup3\n        /* \"#utility.yul\":6376:6385   */\n      iszero\n        /* \"#utility.yul\":6369:6386   */\n      iszero\n        /* \"#utility.yul\":6365:6470   */\n      and\n        /* \"#utility.yul\":6362:6493   */\n      iszero\n      tag_136\n      jumpi\n        /* \"#utility.yul\":6473:6491   */\n      tag_137\n      tag_49\n      jump\t// in\n    tag_137:\n        /* \"#utility.yul\":6362:6493   */\n    tag_136:\n        /* \"#utility.yul\":6521:6522   */\n      dup3\n        /* \"#utility.yul\":6518:6519   */\n      dup3\n        /* \"#utility.yul\":6514:6523   */\n      mul\n        /* \"#utility.yul\":6503:6523   */\n      swap1\n      pop\n        /* \"#utility.yul\":6181:6529   */\n      swap3\n      swap2\n      pop\n      pop\n      jump\t// out\n        /* \"#utility.yul\":6535:6715   */\n    tag_53:\n        /* \"#utility.yul\":6583:6660   */\n      0x4e487b7100000000000000000000000000000000000000000000000000000000\n        /* \"#utility.yul\":6580:6581   */\n      0x00\n        /* \"#utility.yul\":6573:6661   */\n      mstore\n        /* \"#utility.yul\":6680:6684   */\n      0x12\n        /* \"#utility.yul\":6677:6678   */\n      0x04\n        /* \"#utility.yul\":6670:6685   */\n      mstore\n        /* \"#utility.yul\":6704:6708   */\n      0x24\n        /* \"#utility.yul\":6701:6702   */\n      0x00\n        /* \"#utility.yul\":6694:6709   */\n      revert\n        /* \"#utility.yul\":6721:6906   */\n    tag_30:\n        /* \"#utility.yul\":6761:6762   */\n      0x00\n        /* \"#utility.yul\":6778:6798   */\n      tag_140\n        /* \"#utility.yul\":6796:6797   */\n      dup3\n        /* \"#utility.yul\":6778:6798   */\n      tag_33\n      jump\t// in\n    tag_140:\n        /* \"#utility.yul\":6773:6798   */\n      swap2\n      pop\n        /* \"#utility.yul\":6812:6832   */\n      tag_141\n        /* \"#utility.yul\":6830:6831   */\n      dup4\n        /* \"#utility.yul\":6812:6832   */\n      tag_33\n      jump\t// in\n    tag_141:\n        /* \"#utility.yul\":6807:6832   */\n      swap3\n      pop\n        /* \"#utility.yul\":6851:6852   */\n      dup3\n        /* \"#utility.yul\":6841:6876   */\n      tag_142\n      jumpi\n        /* \"#utility.yul\":6856:6874   */\n      tag_143\n      tag_53\n      jump\t// in\n    tag_143:\n        /* \"#utility.yul\":6841:6876   */\n    tag_142:\n        /* \"#utility.yul\":6898:6899   */\n      dup3\n        /* \"#utility.yul\":6895:6896   */\n      dup3\n        /* \"#utility.yul\":6891:6900   */\n      div\n        /* \"#utility.yul\":6886:6900   */\n      swap1\n      pop\n        /* \"#utility.yul\":6721:6906   */\n      swap3\n      swap2\n      pop\n      pop\n      jump\t// out\n\n    auxdata: 0xa26469706673582212205901ae0c537f813bbbd9182367fe6a5d9099b26dfb4fddfd4754d6433734fbe564736f6c63430008080033\n}\n",
				"bytecode": {
					"linkReferences": {},
					"object": "608060405234801561001057600080fd5b5061068a806100206000396000f3fe608060405234801561001057600080fd5b50600436106100365760003560e01c80631d470c431461003b57806397cd988114610059575b600080fd5b610043610063565b6040516100509190610214565b60405180910390f35b610061610069565b005b60005481565b6000738a753747a1fa494ec906ce90e9f37563a8af630e73ffffffffffffffffffffffffffffffffffffffff1663feaf968c6040518163ffffffff1660e01b815260040160a06040518083038186803b1580156100c557600080fd5b505afa1580156100d9573d6000803e3d6000fd5b505050506040513d601f19601f820116820180604052508101906100fd91906102d8565b5050509150506000738a753747a1fa494ec906ce90e9f37563a8af630e73ffffffffffffffffffffffffffffffffffffffff1663313ce5676040518163ffffffff1660e01b815260040160206040518083038186803b15801561015f57600080fd5b505afa158015610173573d6000803e3d6000fd5b505050506040513d601f19601f82011682018060405250810190610197919061038c565b905060008160126101a891906103e8565b600a6101b4919061054f565b836101bf919061059a565b905081600a6101ce919061054f565b836101d99190610623565b8160056101e6919061059a565b6101f09190610623565b600081905550505050565b6000819050919050565b61020e816101fb565b82525050565b60006020820190506102296000830184610205565b92915050565b600080fd5b600069ffffffffffffffffffff82169050919050565b61025381610234565b811461025e57600080fd5b50565b6000815190506102708161024a565b92915050565b6000819050919050565b61028981610276565b811461029457600080fd5b50565b6000815190506102a681610280565b92915050565b6102b5816101fb565b81146102c057600080fd5b50565b6000815190506102d2816102ac565b92915050565b600080600080600060a086880312156102f4576102f361022f565b5b600061030288828901610261565b955050602061031388828901610297565b9450506040610324888289016102c3565b9350506060610335888289016102c3565b925050608061034688828901610261565b9150509295509295909350565b600060ff82169050919050565b61036981610353565b811461037457600080fd5b50565b60008151905061038681610360565b92915050565b6000602082840312156103a2576103a161022f565b5b60006103b084828501610377565b91505092915050565b7f4e487b7100000000000000000000000000000000000000000000000000000000600052601160045260246000fd5b60006103f382610353565b91506103fe83610353565b925082821015610411576104106103b9565b5b828203905092915050565b60008160011c9050919050565b6000808291508390505b60018511156104735780860481111561044f5761044e6103b9565b5b600185161561045e5780820291505b808102905061046c8561041c565b9450610433565b94509492505050565b60008261048c5760019050610548565b8161049a5760009050610548565b81600181146104b057600281146104ba576104e9565b6001915050610548565b60ff8411156104cc576104cb6103b9565b5b8360020a9150848211156104e3576104e26103b9565b5b50610548565b5060208310610133831016604e8410600b841016171561051e5782820a905083811115610519576105186103b9565b5b610548565b61052b8484846001610429565b92509050818404811115610542576105416103b9565b5b81810290505b9392505050565b600061055a826101fb565b915061056583610353565b92506105927fffffffffffffffffffffffffffffffffffffffffffffffffffffffffffffffff848461047c565b905092915050565b60006105a5826101fb565b91506105b0836101fb565b9250817fffffffffffffffffffffffffffffffffffffffffffffffffffffffffffffffff04831182151516156105e9576105e86103b9565b5b828202905092915050565b7f4e487b7100000000000000000000000000000000000000000000000000000000600052601260045260246000fd5b600061062e826101fb565b9150610639836101fb565b925082610649576106486105f4565b5b82820490509291505056fea26469706673582212205901ae0c537f813bbbd9182367fe6a5d9099b26dfb4fddfd4754d6433734fbe564736f6c63430008080033",
					"opcodes": "PUSH1 0x80 PUSH1 0x40 MSTORE CALLVALUE DUP1 ISZERO PUSH2 0x10 JUMPI PUSH1 0x0 DUP1 REVERT JUMPDEST POP PUSH2 0x68A DUP1 PUSH2 0x20 PUSH1 0x0 CODECOPY PUSH1 0x0 RETURN INVALID PUSH1 0x80 PUSH1 0x40 MSTORE CALLVALUE DUP1 ISZERO PUSH2 0x10 JUMPI PUSH1 0x0 DUP1 REVERT JUMPDEST POP PUSH1 0x4 CALLDATASIZE LT PUSH2 0x36 JUMPI PUSH1 0x0 CALLDATALOAD PUSH1 0xE0 SHR DUP1 PUSH4 0x1D470C43 EQ PUSH2 0x3B JUMPI DUP1 PUSH4 0x97CD9881 EQ PUSH2 0x59 JUMPI JUMPDEST PUSH1 0x0 DUP1 REVERT JUMPDEST PUSH2 0x43 PUSH2 0x63 JUMP JUMPDEST PUSH1 0x40 MLOAD PUSH2 0x50 SWAP2 SWAP1 PUSH2 0x214 JUMP JUMPDEST PUSH1 0x40 MLOAD DUP1 SWAP2 SUB SWAP1 RETURN JUMPDEST PUSH2 0x61 PUSH2 0x69 JUMP JUMPDEST STOP JUMPDEST PUSH1 0x0 SLOAD DUP2 JUMP JUMPDEST PUSH1 0x0 PUSH20 0x8A753747A1FA494EC906CE90E9F37563A8AF630E PUSH20 0xFFFFFFFFFFFFFFFFFFFFFFFFFFFFFFFFFFFFFFFF AND PUSH4 0xFEAF968C PUSH1 0x40 MLOAD DUP2 PUSH4 0xFFFFFFFF AND PUSH1 0xE0 SHL DUP2 MSTORE PUSH1 0x4 ADD PUSH1 0xA0 PUSH1 0x40 MLOAD DUP1 DUP4 SUB DUP2 DUP7 DUP1 EXTCODESIZE ISZERO DUP1 ISZERO PUSH2 0xC5 JUMPI PUSH1 0x0 DUP1 REVERT JUMPDEST POP GAS STATICCALL ISZERO DUP1 ISZERO PUSH2 0xD9 JUMPI RETURNDATASIZE PUSH1 0x0 DUP1 RETURNDATACOPY RETURNDATASIZE PUSH1 0x0 REVERT JUMPDEST POP POP POP POP PUSH1 0x40 MLOAD RETURNDATASIZE PUSH1 0x1F NOT PUSH1 0x1F DUP3 ADD AND DUP3 ADD DUP1 PUSH1 0x40 MSTORE POP DUP2 ADD SWAP1 PUSH2 0xFD SWAP2 SWAP1 PUSH2 0x2D8 JUMP JUMPDEST POP POP POP SWAP2 POP POP PUSH1 0x0 PUSH20 0x8A753747A1FA494EC906CE90E9F37563A8AF630E PUSH20 0xFFFFFFFFFFFFFFFFFFFFFFFFFFFFFFFFFFFFFFFF AND PUSH4 0x313CE567 PUSH1 0x40 MLOAD DUP2 PUSH4 0xFFFFFFFF AND PUSH1 0xE0 SHL DUP2 MSTORE PUSH1 0x4 ADD PUSH1 0x20 PUSH1 0x40 MLOAD DUP1 DUP4 SUB DUP2 DUP7 DUP1 EXTCODESIZE ISZERO DUP1 ISZERO PUSH2 0x15F JUMPI PUSH1 0x0 DUP1 REVERT JUMPDEST POP GAS STATICCALL ISZERO DUP1 ISZERO PUSH2 0x173 JUMPI RETURNDATASIZE PUSH1 0x0 DUP1 RETURNDATACOPY RETURNDATASIZE PUSH1 0x0 REVERT JUMPDEST POP POP POP POP PUSH1 0x40 MLOAD RETURNDATASIZE PUSH1 0x1F NOT PUSH1 0x1F DUP3 ADD AND DUP3 ADD DUP1 PUSH1 0x40 MSTORE POP DUP2 ADD SWAP1 PUSH2 0x197 SWAP2 SWAP1 PUSH2 0x38C JUMP JUMPDEST SWAP1 POP PUSH1 0x0 DUP2 PUSH1 0x12 PUSH2 0x1A8 SWAP2 SWAP1 PUSH2 0x3E8 JUMP JUMPDEST PUSH1 0xA PUSH2 0x1B4 SWAP2 SWAP1 PUSH2 0x54F JUMP JUMPDEST DUP4 PUSH2 0x1BF SWAP2 SWAP1 PUSH2 0x59A JUMP JUMPDEST SWAP1 POP DUP2 PUSH1 0xA PUSH2 0x1CE SWAP2 SWAP1 PUSH2 0x54F JUMP JUMPDEST DUP4 PUSH2 0x1D9 SWAP2 SWAP1 PUSH2 0x623 JUMP JUMPDEST DUP2 PUSH1 0x5 PUSH2 0x1E6 SWAP2 SWAP1 PUSH2 0x59A JUMP JUMPDEST PUSH2 0x1F0 SWAP2 SWAP1 PUSH2 0x623 JUMP JUMPDEST PUSH1 0x0 DUP2 SWAP1 SSTORE POP POP POP POP JUMP JUMPDEST PUSH1 0x0 DUP2 SWAP1 POP SWAP2 SWAP1 POP JUMP JUMPDEST PUSH2 0x20E DUP2 PUSH2 0x1FB JUMP JUMPDEST DUP3 MSTORE POP POP JUMP JUMPDEST PUSH1 0x0 PUSH1 0x20 DUP3 ADD SWAP1 POP PUSH2 0x229 PUSH1 0x0 DUP4 ADD DUP5 PUSH2 0x205 JUMP JUMPDEST SWAP3 SWAP2 POP POP JUMP JUMPDEST PUSH1 0x0 DUP1 REVERT JUMPDEST PUSH1 0x0 PUSH10 0xFFFFFFFFFFFFFFFFFFFF DUP3 AND SWAP1 POP SWAP2 SWAP1 POP JUMP JUMPDEST PUSH2 0x253 DUP2 PUSH2 0x234 JUMP JUMPDEST DUP2 EQ PUSH2 0x25E JUMPI PUSH1 0x0 DUP1 REVERT JUMPDEST POP JUMP JUMPDEST PUSH1 0x0 DUP2 MLOAD SWAP1 POP PUSH2 0x270 DUP2 PUSH2 0x24A JUMP JUMPDEST SWAP3 SWAP2 POP POP JUMP JUMPDEST PUSH1 0x0 DUP2 SWAP1 POP SWAP2 SWAP1 POP JUMP JUMPDEST PUSH2 0x289 DUP2 PUSH2 0x276 JUMP JUMPDEST DUP2 EQ PUSH2 0x294 JUMPI PUSH1 0x0 DUP1 REVERT JUMPDEST POP JUMP JUMPDEST PUSH1 0x0 DUP2 MLOAD SWAP1 POP PUSH2 0x2A6 DUP2 PUSH2 0x280 JUMP JUMPDEST SWAP3 SWAP2 POP POP JUMP JUMPDEST PUSH2 0x2B5 DUP2 PUSH2 0x1FB JUMP JUMPDEST DUP2 EQ PUSH2 0x2C0 JUMPI PUSH1 0x0 DUP1 REVERT JUMPDEST POP JUMP JUMPDEST PUSH1 0x0 DUP2 MLOAD SWAP1 POP PUSH2 0x2D2 DUP2 PUSH2 0x2AC JUMP JUMPDEST SWAP3 SWAP2 POP POP JUMP JUMPDEST PUSH1 0x0 DUP1 PUSH1 0x0 DUP1 PUSH1 0x0 PUSH1 0xA0 DUP7 DUP9 SUB SLT ISZERO PUSH2 0x2F4 JUMPI PUSH2 0x2F3 PUSH2 0x22F JUMP JUMPDEST JUMPDEST PUSH1 0x0 PUSH2 0x302 DUP9 DUP3 DUP10 ADD PUSH2 0x261 JUMP JUMPDEST SWAP6 POP POP PUSH1 0x20 PUSH2 0x313 DUP9 DUP3 DUP10 ADD PUSH2 0x297 JUMP JUMPDEST SWAP5 POP POP PUSH1 0x40 PUSH2 0x324 DUP9 DUP3 DUP10 ADD PUSH2 0x2C3 JUMP JUMPDEST SWAP4 POP POP PUSH1 0x60 PUSH2 0x335 DUP9 DUP3 DUP10 ADD PUSH2 0x2C3 JUMP JUMPDEST SWAP3 POP POP PUSH1 0x80 PUSH2 0x346 DUP9 DUP3 DUP10 ADD PUSH2 0x261 JUMP JUMPDEST SWAP2 POP POP SWAP3 SWAP6 POP SWAP3 SWAP6 SWAP1 SWAP4 POP JUMP JUMPDEST PUSH1 0x0 PUSH1 0xFF DUP3 AND SWAP1 POP SWAP2 SWAP1 POP JUMP JUMPDEST PUSH2 0x369 DUP2 PUSH2 0x353 JUMP JUMPDEST DUP2 EQ PUSH2 0x374 JUMPI PUSH1 0x0 DUP1 REVERT JUMPDEST POP JUMP JUMPDEST PUSH1 0x0 DUP2 MLOAD SWAP1 POP PUSH2 0x386 DUP2 PUSH2 0x360 JUMP JUMPDEST SWAP3 SWAP2 POP POP JUMP JUMPDEST PUSH1 0x0 PUSH1 0x20 DUP3 DUP5 SUB SLT ISZERO PUSH2 0x3A2 JUMPI PUSH2 0x3A1 PUSH2 0x22F JUMP JUMPDEST JUMPDEST PUSH1 0x0 PUSH2 0x3B0 DUP5 DUP3 DUP6 ADD PUSH2 0x377 JUMP JUMPDEST SWAP2 POP POP SWAP3 SWAP2 POP POP JUMP JUMPDEST PUSH32 0x4E487B7100000000000000000000000000000000000000000000000000000000 PUSH1 0x0 MSTORE PUSH1 0x11 PUSH1 0x4 MSTORE PUSH1 0x24 PUSH1 0x0 REVERT JUMPDEST PUSH1 0x0 PUSH2 0x3F3 DUP3 PUSH2 0x353 JUMP JUMPDEST SWAP2 POP PUSH2 0x3FE DUP4 PUSH2 0x353 JUMP JUMPDEST SWAP3 POP DUP3 DUP3 LT ISZERO PUSH2 0x411 JUMPI PUSH2 0x410 PUSH2 0x3B9 JUMP JUMPDEST JUMPDEST DUP3 DUP3 SUB SWAP1 POP SWAP3 SWAP2 POP POP JUMP JUMPDEST PUSH1 0x0 DUP2 PUSH1 0x1 SHR SWAP1 POP SWAP2 SWAP1 POP JUMP JUMPDEST PUSH1 0x0 DUP1 DUP3 SWAP2 POP DUP4 SWAP1 POP JUMPDEST PUSH1 0x1 DUP6 GT ISZERO PUSH2 0x473 JUMPI DUP1 DUP7 DIV DUP2 GT ISZERO PUSH2 0x44F JUMPI PUSH2 0x44E PUSH2 0x3B9 JUMP JUMPDEST JUMPDEST PUSH1 0x1 DUP6 AND ISZERO PUSH2 0x45E JUMPI DUP1 DUP3 MUL SWAP2 POP JUMPDEST DUP1 DUP2 MUL SWAP1 POP PUSH2 0x46C DUP6 PUSH2 0x41C JUMP JUMPDEST SWAP5 POP PUSH2 0x433 JUMP JUMPDEST SWAP5 POP SWAP5 SWAP3 POP POP POP JUMP JUMPDEST PUSH1 0x0 DUP3 PUSH2 0x48C JUMPI PUSH1 0x1 SWAP1 POP PUSH2 0x548 JUMP JUMPDEST DUP2 PUSH2 0x49A JUMPI PUSH1 0x0 SWAP1 POP PUSH2 0x548 JUMP JUMPDEST DUP2 PUSH1 0x1 DUP2 EQ PUSH2 0x4B0 JUMPI PUSH1 0x2 DUP2 EQ PUSH2 0x4BA JUMPI PUSH2 0x4E9 JUMP JUMPDEST PUSH1 0x1 SWAP2 POP POP PUSH2 0x548 JUMP JUMPDEST PUSH1 0xFF DUP5 GT ISZERO PUSH2 0x4CC JUMPI PUSH2 0x4CB PUSH2 0x3B9 JUMP JUMPDEST JUMPDEST DUP4 PUSH1 0x2 EXP SWAP2 POP DUP5 DUP3 GT ISZERO PUSH2 0x4E3 JUMPI PUSH2 0x4E2 PUSH2 0x3B9 JUMP JUMPDEST JUMPDEST POP PUSH2 0x548 JUMP JUMPDEST POP PUSH1 0x20 DUP4 LT PUSH2 0x133 DUP4 LT AND PUSH1 0x4E DUP5 LT PUSH1 0xB DUP5 LT AND OR ISZERO PUSH2 0x51E JUMPI DUP3 DUP3 EXP SWAP1 POP DUP4 DUP2 GT ISZERO PUSH2 0x519 JUMPI PUSH2 0x518 PUSH2 0x3B9 JUMP JUMPDEST JUMPDEST PUSH2 0x548 JUMP JUMPDEST PUSH2 0x52B DUP5 DUP5 DUP5 PUSH1 0x1 PUSH2 0x429 JUMP JUMPDEST SWAP3 POP SWAP1 POP DUP2 DUP5 DIV DUP2 GT ISZERO PUSH2 0x542 JUMPI PUSH2 0x541 PUSH2 0x3B9 JUMP JUMPDEST JUMPDEST DUP2 DUP2 MUL SWAP1 POP JUMPDEST SWAP4 SWAP3 POP POP POP JUMP JUMPDEST PUSH1 0x0 PUSH2 0x55A DUP3 PUSH2 0x1FB JUMP JUMPDEST SWAP2 POP PUSH2 0x565 DUP4 PUSH2 0x353 JUMP JUMPDEST SWAP3 POP PUSH2 0x592 PUSH32 0xFFFFFFFFFFFFFFFFFFFFFFFFFFFFFFFFFFFFFFFFFFFFFFFFFFFFFFFFFFFFFFFF DUP5 DUP5 PUSH2 0x47C JUMP JUMPDEST SWAP1 POP SWAP3 SWAP2 POP POP JUMP JUMPDEST PUSH1 0x0 PUSH2 0x5A5 DUP3 PUSH2 0x1FB JUMP JUMPDEST SWAP2 POP PUSH2 0x5B0 DUP4 PUSH2 0x1FB JUMP JUMPDEST SWAP3 POP DUP2 PUSH32 0xFFFFFFFFFFFFFFFFFFFFFFFFFFFFFFFFFFFFFFFFFFFFFFFFFFFFFFFFFFFFFFFF DIV DUP4 GT DUP3 ISZERO ISZERO AND ISZERO PUSH2 0x5E9 JUMPI PUSH2 0x5E8 PUSH2 0x3B9 JUMP JUMPDEST JUMPDEST DUP3 DUP3 MUL SWAP1 POP SWAP3 SWAP2 POP POP JUMP JUMPDEST PUSH32 0x4E487B7100000000000000000000000000000000000000000000000000000000 PUSH1 0x0 MSTORE PUSH1 0x12 PUSH1 0x4 MSTORE PUSH1 0x24 PUSH1 0x0 REVERT JUMPDEST PUSH1 0x0 PUSH2 0x62E DUP3 PUSH2 0x1FB JUMP JUMPDEST SWAP2 POP PUSH2 0x639 DUP4 PUSH2 0x1FB JUMP JUMPDEST SWAP3 POP DUP3 PUSH2 0x649 JUMPI PUSH2 0x648 PUSH2 0x5F4 JUMP JUMPDEST JUMPDEST DUP3 DUP3 DIV SWAP1 POP SWAP3 SWAP2 POP POP JUMP INVALID LOG2 PUSH5 0x6970667358 0x22 SLT KECCAK256 MSIZE ADD 0xAE 0xC MSTORE8 PUSH32 0x813BBBD9182367FE6A5D9099B26DFB4FDDFD4754D6433734FBE564736F6C6343 STOP ADDMOD ADDMOD STOP CALLER "
				},
				"gasEstimates": {
					"creation": {
						"codeDepositCost": "334800",
						"executionCost": "374",
						"totalCost": "335174"
					},
					"external": {
						"WeiYouPay()": "2407",
						"getEthToUSD()": "infinite"
					}
				},
				"methodIdentifiers": {
					"WeiYouPay()": "1d470c43",
					"getEthToUSD()": "97cd9881"
				}
			},
			"storageLayout": {
				"storage": [
					{
						"astId": 50,
						"contract": "Contract  ^0.8.8/FundMe.sol:FundMe",
						"label": "WeiYouPay",
						"offset": 0,
						"slot": "0",
						"type": "t_uint256"
					}
				],
				"types": {
					"t_uint256": {
						"encoding": "inplace",
						"label": "uint256",
						"numberOfBytes": "32"
					}
				}
			},
			"userdoc": {
				"kind": "user",
				"methods": {},
				"version": 1
			}
		}
	}
}