{
	"Contract  ^0.8.8/TestContract.sol": {
		"Test2": {
			"abi": [
				{
					"anonymous": false,
					"inputs": [
						{
							"indexed": false,
							"internalType": "uint256",
							"name": "amount",
							"type": "uint256"
						},
						{
							"indexed": false,
							"internalType": "uint256",
							"name": "gas",
							"type": "uint256"
						}
					],
					"name": "Log",
					"type": "event"
				},
				{
					"inputs": [],
					"name": "getBlance",
					"outputs": [
						{
							"internalType": "uint256",
							"name": "",
							"type": "uint256"
						}
					],
					"stateMutability": "view",
					"type": "function"
				},
				{
					"stateMutability": "payable",
					"type": "receive"
				}
			],
			"devdoc": {
				"kind": "dev",
				"methods": {},
				"version": 1
			},
			"evm": {
				"assembly": "    /* \"Contract  ^0.8.8/TestContract.sol\":855:1086  contract Test2{... */\n  mstore(0x40, 0x80)\n  callvalue\n  dup1\n  iszero\n  tag_1\n  jumpi\n  0x00\n  dup1\n  revert\ntag_1:\n  pop\n  dataSize(sub_0)\n  dup1\n  dataOffset(sub_0)\n  0x00\n  codecopy\n  0x00\n  return\nstop\n\nsub_0: assembly {\n        /* \"Contract  ^0.8.8/TestContract.sol\":855:1086  contract Test2{... */\n      mstore(0x40, 0x80)\n      jumpi(tag_1, lt(calldatasize, 0x04))\n      shr(0xe0, calldataload(0x00))\n      dup1\n      0x941be5f7\n      eq\n      tag_3\n      jumpi\n      jump(tag_2)\n    tag_1:\n      jumpi(tag_2, calldatasize)\n        /* \"Contract  ^0.8.8/TestContract.sol\":954:978  Log(msg.value,gasleft()) */\n      0xbd0faddf87043dd749c1b9d4dca8a12589b8cb5e2106832111ce23f219b14367\n        /* \"Contract  ^0.8.8/TestContract.sol\":958:967  msg.value */\n      callvalue\n        /* \"Contract  ^0.8.8/TestContract.sol\":968:977  gasleft() */\n      gas\n        /* \"Contract  ^0.8.8/TestContract.sol\":954:978  Log(msg.value,gasleft()) */\n      mload(0x40)\n      tag_6\n      swap3\n      swap2\n      swap1\n      tag_7\n      jump\t// in\n    tag_6:\n      mload(0x40)\n      dup1\n      swap2\n      sub\n      swap1\n      log1\n        /* \"Contract  ^0.8.8/TestContract.sol\":855:1086  contract Test2{... */\n      stop\n    tag_2:\n      0x00\n      dup1\n      revert\n        /* \"Contract  ^0.8.8/TestContract.sol\":990:1084  function getBlance() public view returns(uint256){... */\n    tag_3:\n      callvalue\n      dup1\n      iszero\n      tag_8\n      jumpi\n      0x00\n      dup1\n      revert\n    tag_8:\n      pop\n      tag_9\n      tag_10\n      jump\t// in\n    tag_9:\n      mload(0x40)\n      tag_11\n      swap2\n      swap1\n      tag_12\n      jump\t// in\n    tag_11:\n      mload(0x40)\n      dup1\n      swap2\n      sub\n      swap1\n      return\n    tag_10:\n        /* \"Contract  ^0.8.8/TestContract.sol\":1031:1038  uint256 */\n      0x00\n        /* \"Contract  ^0.8.8/TestContract.sol\":1056:1077  address(this).balance */\n      selfbalance\n        /* \"Contract  ^0.8.8/TestContract.sol\":1049:1077  return address(this).balance */\n      swap1\n      pop\n        /* \"Contract  ^0.8.8/TestContract.sol\":990:1084  function getBlance() public view returns(uint256){... */\n      swap1\n      jump\t// out\n        /* \"#utility.yul\":7:84   */\n    tag_14:\n        /* \"#utility.yul\":44:51   */\n      0x00\n        /* \"#utility.yul\":73:78   */\n      dup2\n        /* \"#utility.yul\":62:78   */\n      swap1\n      pop\n        /* \"#utility.yul\":7:84   */\n      swap2\n      swap1\n      pop\n      jump\t// out\n        /* \"#utility.yul\":90:208   */\n    tag_15:\n        /* \"#utility.yul\":177:201   */\n      tag_19\n        /* \"#utility.yul\":195:200   */\n      dup2\n        /* \"#utility.yul\":177:201   */\n      tag_14\n      jump\t// in\n    tag_19:\n        /* \"#utility.yul\":172:175   */\n      dup3\n        /* \"#utility.yul\":165:202   */\n      mstore\n        /* \"#utility.yul\":90:208   */\n      pop\n      pop\n      jump\t// out\n        /* \"#utility.yul\":214:546   */\n    tag_7:\n        /* \"#utility.yul\":335:339   */\n      0x00\n        /* \"#utility.yul\":373:375   */\n      0x40\n        /* \"#utility.yul\":362:371   */\n      dup3\n        /* \"#utility.yul\":358:376   */\n      add\n        /* \"#utility.yul\":350:376   */\n      swap1\n      pop\n        /* \"#utility.yul\":386:457   */\n      tag_21\n        /* \"#utility.yul\":454:455   */\n      0x00\n        /* \"#utility.yul\":443:452   */\n      dup4\n        /* \"#utility.yul\":439:456   */\n      add\n        /* \"#utility.yul\":430:436   */\n      dup6\n        /* \"#utility.yul\":386:457   */\n      tag_15\n      jump\t// in\n    tag_21:\n        /* \"#utility.yul\":467:539   */\n      tag_22\n        /* \"#utility.yul\":535:537   */\n      0x20\n        /* \"#utility.yul\":524:533   */\n      dup4\n        /* \"#utility.yul\":520:538   */\n      add\n        /* \"#utility.yul\":511:517   */\n      dup5\n        /* \"#utility.yul\":467:539   */\n      tag_15\n      jump\t// in\n    tag_22:\n        /* \"#utility.yul\":214:546   */\n      swap4\n      swap3\n      pop\n      pop\n      pop\n      jump\t// out\n        /* \"#utility.yul\":552:774   */\n    tag_12:\n        /* \"#utility.yul\":645:649   */\n      0x00\n        /* \"#utility.yul\":683:685   */\n      0x20\n        /* \"#utility.yul\":672:681   */\n      dup3\n        /* \"#utility.yul\":668:686   */\n      add\n        /* \"#utility.yul\":660:686   */\n      swap1\n      pop\n        /* \"#utility.yul\":696:767   */\n      tag_24\n        /* \"#utility.yul\":764:765   */\n      0x00\n        /* \"#utility.yul\":753:762   */\n      dup4\n        /* \"#utility.yul\":749:766   */\n      add\n        /* \"#utility.yul\":740:746   */\n      dup5\n        /* \"#utility.yul\":696:767   */\n      tag_15\n      jump\t// in\n    tag_24:\n        /* \"#utility.yul\":552:774   */\n      swap3\n      swap2\n      pop\n      pop\n      jump\t// out\n\n    auxdata: 0xa2646970667358221220598dff0f5fcecafa1d20f085164c692bb02d519eb2e0b7ad54f35124d8cdad5e64736f6c63430008080033\n}\n",
				"bytecode": {
					"linkReferences": {},
					"object": "608060405234801561001057600080fd5b5061011a806100206000396000f3fe608060405260043610601f5760003560e01c8063941be5f714606157605c565b36605c577fbd0faddf87043dd749c1b9d4dca8a12589b8cb5e2106832111ce23f219b14367345a604051605292919060a6565b60405180910390a1005b600080fd5b348015606c57600080fd5b5060736087565b604051607e919060cb565b60405180910390f35b600047905090565b6000819050919050565b60a081608f565b82525050565b600060408201905060b960008301856099565b60c460208301846099565b9392505050565b600060208201905060de60008301846099565b9291505056fea2646970667358221220598dff0f5fcecafa1d20f085164c692bb02d519eb2e0b7ad54f35124d8cdad5e64736f6c63430008080033",
					"opcodes": "PUSH1 0x80 PUSH1 0x40 MSTORE CALLVALUE DUP1 ISZERO PUSH2 0x10 JUMPI PUSH1 0x0 DUP1 REVERT JUMPDEST POP PUSH2 0x11A DUP1 PUSH2 0x20 PUSH1 0x0 CODECOPY PUSH1 0x0 RETURN INVALID PUSH1 0x80 PUSH1 0x40 MSTORE PUSH1 0x4 CALLDATASIZE LT PUSH1 0x1F JUMPI PUSH1 0x0 CALLDATALOAD PUSH1 0xE0 SHR DUP1 PUSH4 0x941BE5F7 EQ PUSH1 0x61 JUMPI PUSH1 0x5C JUMP JUMPDEST CALLDATASIZE PUSH1 0x5C JUMPI PUSH32 0xBD0FADDF87043DD749C1B9D4DCA8A12589B8CB5E2106832111CE23F219B14367 CALLVALUE GAS PUSH1 0x40 MLOAD PUSH1 0x52 SWAP3 SWAP2 SWAP1 PUSH1 0xA6 JUMP JUMPDEST PUSH1 0x40 MLOAD DUP1 SWAP2 SUB SWAP1 LOG1 STOP JUMPDEST PUSH1 0x0 DUP1 REVERT JUMPDEST CALLVALUE DUP1 ISZERO PUSH1 0x6C JUMPI PUSH1 0x0 DUP1 REVERT JUMPDEST POP PUSH1 0x73 PUSH1 0x87 JUMP JUMPDEST PUSH1 0x40 MLOAD PUSH1 0x7E SWAP2 SWAP1 PUSH1 0xCB JUMP JUMPDEST PUSH1 0x40 MLOAD DUP1 SWAP2 SUB SWAP1 RETURN JUMPDEST PUSH1 0x0 SELFBALANCE SWAP1 POP SWAP1 JUMP JUMPDEST PUSH1 0x0 DUP2 SWAP1 POP SWAP2 SWAP1 POP JUMP JUMPDEST PUSH1 0xA0 DUP2 PUSH1 0x8F JUMP JUMPDEST DUP3 MSTORE POP POP JUMP JUMPDEST PUSH1 0x0 PUSH1 0x40 DUP3 ADD SWAP1 POP PUSH1 0xB9 PUSH1 0x0 DUP4 ADD DUP6 PUSH1 0x99 JUMP JUMPDEST PUSH1 0xC4 PUSH1 0x20 DUP4 ADD DUP5 PUSH1 0x99 JUMP JUMPDEST SWAP4 SWAP3 POP POP POP JUMP JUMPDEST PUSH1 0x0 PUSH1 0x20 DUP3 ADD SWAP1 POP PUSH1 0xDE PUSH1 0x0 DUP4 ADD DUP5 PUSH1 0x99 JUMP JUMPDEST SWAP3 SWAP2 POP POP JUMP INVALID LOG2 PUSH5 0x6970667358 0x22 SLT KECCAK256 MSIZE DUP14 SELFDESTRUCT 0xF 0x5F 0xCE 0xCA STATICCALL SAR KECCAK256 CREATE DUP6 AND 0x4C PUSH10 0x2BB02D519EB2E0B7AD54 RETURN MLOAD 0x24 0xD8 0xCD 0xAD 0x5E PUSH5 0x736F6C6343 STOP ADDMOD ADDMOD STOP CALLER "
				},
				"gasEstimates": {
					"creation": {
						"codeDepositCost": "56400",
						"executionCost": "105",
						"totalCost": "56505"
					},
					"external": {
						"getBlance()": "317"
					}
				},
				"methodIdentifiers": {
					"getBlance()": "941be5f7"
				}
			},
			"storageLayout": {
				"storage": [],
				"types": null
			},
			"userdoc": {
				"kind": "user",
				"methods": {},
				"version": 1
			}
		}
	}
}