{
	"Contract  ^0.8.8/FundMe.sol": {
		"FundMe": {
			"abi": [
				{
					"inputs": [],
					"stateMutability": "nonpayable",
					"type": "constructor"
				},
				{
					"inputs": [],
					"name": "dataFromFeedChainLink",
					"outputs": [
						{
							"internalType": "uint80",
							"name": "roundId",
							"type": "uint80"
						},
						{
							"internalType": "int256",
							"name": "answer",
							"type": "int256"
						},
						{
							"internalType": "uint256",
							"name": "startedAt",
							"type": "uint256"
						},
						{
							"internalType": "uint256",
							"name": "updatedAt",
							"type": "uint256"
						},
						{
							"internalType": "uint80",
							"name": "answeredInRound",
							"type": "uint80"
						}
					],
					"stateMutability": "view",
					"type": "function"
				},
				{
					"inputs": [],
					"name": "fund",
					"outputs": [],
					"stateMutability": "payable",
					"type": "function"
				},
				{
					"inputs": [],
					"name": "getConversionRate",
					"outputs": [],
					"stateMutability": "nonpayable",
					"type": "function"
				},
				{
					"inputs": [],
					"name": "getPrice",
					"outputs": [],
					"stateMutability": "nonpayable",
					"type": "function"
				},
				{
					"inputs": [],
					"name": "minimumUSD",
					"outputs": [
						{
							"internalType": "uint256",
							"name": "",
							"type": "uint256"
						}
					],
					"stateMutability": "view",
					"type": "function"
				},
				{
					"inputs": [],
					"name": "owner",
					"outputs": [
						{
							"internalType": "address",
							"name": "",
							"type": "address"
						}
					],
					"stateMutability": "view",
					"type": "function"
				},
				{
					"inputs": [],
					"name": "priceFeed",
					"outputs": [
						{
							"internalType": "contract AggregatorV3Interface",
							"name": "",
							"type": "address"
						}
					],
					"stateMutability": "view",
					"type": "function"
				},
				{
					"inputs": [
						{
							"internalType": "uint256",
							"name": "_val",
							"type": "uint256"
						}
					],
					"name": "setMinimumUSD",
					"outputs": [],
					"stateMutability": "nonpayable",
					"type": "function"
				}
			],
			"devdoc": {
				"kind": "dev",
				"methods": {},
				"version": 1
			},
			"evm": {
				"assembly": "    /* \"Contract  ^0.8.8/FundMe.sol\":133:1817  contract FundMe{... */\n  mstore(0x40, 0x80)\n    /* \"Contract  ^0.8.8/FundMe.sol\":347:348  2 */\n  0x02\n    /* \"Contract  ^0.8.8/FundMe.sol\":319:348  uint256 public minimumUSD = 2 */\n  0x00\n  sstore\n    /* \"Contract  ^0.8.8/FundMe.sol\":639:776  constructor (){... */\n  callvalue\n  dup1\n  iszero\n  tag_1\n  jumpi\n  0x00\n  dup1\n  revert\ntag_1:\n  pop\n    /* \"Contract  ^0.8.8/FundMe.sol\":671:681  msg.sender */\n  caller\n    /* \"Contract  ^0.8.8/FundMe.sol\":663:668  owner */\n  0x01\n  0x00\n    /* \"Contract  ^0.8.8/FundMe.sol\":663:681  owner = msg.sender */\n  0x0100\n  exp\n  dup2\n  sload\n  dup2\n  0xffffffffffffffffffffffffffffffffffffffff\n  mul\n  not\n  and\n  swap1\n  dup4\n  0xffffffffffffffffffffffffffffffffffffffff\n  and\n  mul\n  or\n  swap1\n  sstore\n  pop\n    /* \"Contract  ^0.8.8/FundMe.sol\":725:767  0x8A753747A1Fa494EC906cE90E9f37563A8AF630e */\n  0x8a753747a1fa494ec906ce90e9f37563a8af630e\n    /* \"Contract  ^0.8.8/FundMe.sol\":691:700  priceFeed */\n  0x07\n  0x00\n    /* \"Contract  ^0.8.8/FundMe.sol\":691:768  priceFeed = AggregatorV3Interface(0x8A753747A1Fa494EC906cE90E9f37563A8AF630e) */\n  0x0100\n  exp\n  dup2\n  sload\n  dup2\n  0xffffffffffffffffffffffffffffffffffffffff\n  mul\n  not\n  and\n  swap1\n  dup4\n  0xffffffffffffffffffffffffffffffffffffffff\n  and\n  mul\n  or\n  swap1\n  sstore\n  pop\n    /* \"Contract  ^0.8.8/FundMe.sol\":133:1817  contract FundMe{... */\n  dataSize(sub_0)\n  dup1\n  dataOffset(sub_0)\n  0x00\n  codecopy\n  0x00\n  return\nstop\n\nsub_0: assembly {\n        /* \"Contract  ^0.8.8/FundMe.sol\":133:1817  contract FundMe{... */\n      mstore(0x40, 0x80)\n      jumpi(tag_1, lt(calldatasize, 0x04))\n      shr(0xe0, calldataload(0x00))\n      dup1\n      0xb046c540\n      gt\n      tag_10\n      jumpi\n      dup1\n      0xb046c540\n      eq\n      tag_6\n      jumpi\n      dup1\n      0xb60d4288\n      eq\n      tag_7\n      jumpi\n      dup1\n      0xb9c903b8\n      eq\n      tag_8\n      jumpi\n      dup1\n      0xf36089ec\n      eq\n      tag_9\n      jumpi\n      jump(tag_1)\n    tag_10:\n      dup1\n      0x3430a88c\n      eq\n      tag_2\n      jumpi\n      dup1\n      0x741bef1a\n      eq\n      tag_3\n      jumpi\n      dup1\n      0x8da5cb5b\n      eq\n      tag_4\n      jumpi\n      dup1\n      0x98d5fdca\n      eq\n      tag_5\n      jumpi\n    tag_1:\n      0x00\n      dup1\n      revert\n        /* \"Contract  ^0.8.8/FundMe.sol\":319:348  uint256 public minimumUSD = 2 */\n    tag_2:\n      callvalue\n      dup1\n      iszero\n      tag_11\n      jumpi\n      0x00\n      dup1\n      revert\n    tag_11:\n      pop\n      tag_12\n      tag_13\n      jump\t// in\n    tag_12:\n      mload(0x40)\n      tag_14\n      swap2\n      swap1\n      tag_15\n      jump\t// in\n    tag_14:\n      mload(0x40)\n      dup1\n      swap2\n      sub\n      swap1\n      return\n        /* \"Contract  ^0.8.8/FundMe.sol\":436:474  AggregatorV3Interface public priceFeed */\n    tag_3:\n      callvalue\n      dup1\n      iszero\n      tag_16\n      jumpi\n      0x00\n      dup1\n      revert\n    tag_16:\n      pop\n      tag_17\n      tag_18\n      jump\t// in\n    tag_17:\n      mload(0x40)\n      tag_19\n      swap2\n      swap1\n      tag_20\n      jump\t// in\n    tag_19:\n      mload(0x40)\n      dup1\n      swap2\n      sub\n      swap1\n      return\n        /* \"Contract  ^0.8.8/FundMe.sol\":354:374  address public owner */\n    tag_4:\n      callvalue\n      dup1\n      iszero\n      tag_21\n      jumpi\n      0x00\n      dup1\n      revert\n    tag_21:\n      pop\n      tag_22\n      tag_23\n      jump\t// in\n    tag_22:\n      mload(0x40)\n      tag_24\n      swap2\n      swap1\n      tag_25\n      jump\t// in\n    tag_24:\n      mload(0x40)\n      dup1\n      swap2\n      sub\n      swap1\n      return\n        /* \"Contract  ^0.8.8/FundMe.sol\":1438:1709  function getPrice() public{... */\n    tag_5:\n      callvalue\n      dup1\n      iszero\n      tag_26\n      jumpi\n      0x00\n      dup1\n      revert\n    tag_26:\n      pop\n      tag_27\n      tag_28\n      jump\t// in\n    tag_27:\n      stop\n        /* \"Contract  ^0.8.8/FundMe.sol\":1011:1108  function setMinimumUSD(uint256 _val) public onlyOwner(msg.sender){... */\n    tag_6:\n      callvalue\n      dup1\n      iszero\n      tag_29\n      jumpi\n      0x00\n      dup1\n      revert\n    tag_29:\n      pop\n      tag_30\n      0x04\n      dup1\n      calldatasize\n      sub\n      dup2\n      add\n      swap1\n      tag_31\n      swap2\n      swap1\n      tag_32\n      jump\t// in\n    tag_31:\n      tag_33\n      jump\t// in\n    tag_30:\n      stop\n        /* \"Contract  ^0.8.8/FundMe.sol\":1113:1185  function fund() public payable fundMinumumUSD(msg.value){... */\n    tag_7:\n      tag_34\n      tag_35\n      jump\t// in\n    tag_34:\n      stop\n        /* \"Contract  ^0.8.8/FundMe.sol\":380:430  structLatestRoundData public dataFromFeedChainLink */\n    tag_8:\n      callvalue\n      dup1\n      iszero\n      tag_36\n      jumpi\n      0x00\n      dup1\n      revert\n    tag_36:\n      pop\n      tag_37\n      tag_38\n      jump\t// in\n    tag_37:\n      mload(0x40)\n      tag_39\n      swap6\n      swap5\n      swap4\n      swap3\n      swap2\n      swap1\n      tag_40\n      jump\t// in\n    tag_39:\n      mload(0x40)\n      dup1\n      swap2\n      sub\n      swap1\n      return\n        /* \"Contract  ^0.8.8/FundMe.sol\":1778:1815  function getConversionRate() public{} */\n    tag_9:\n      callvalue\n      dup1\n      iszero\n      tag_41\n      jumpi\n      0x00\n      dup1\n      revert\n    tag_41:\n      pop\n      tag_42\n      tag_43\n      jump\t// in\n    tag_42:\n      stop\n        /* \"Contract  ^0.8.8/FundMe.sol\":319:348  uint256 public minimumUSD = 2 */\n    tag_13:\n      sload(0x00)\n      dup2\n      jump\t// out\n        /* \"Contract  ^0.8.8/FundMe.sol\":436:474  AggregatorV3Interface public priceFeed */\n    tag_18:\n      0x07\n      0x00\n      swap1\n      sload\n      swap1\n      0x0100\n      exp\n      swap1\n      div\n      0xffffffffffffffffffffffffffffffffffffffff\n      and\n      dup2\n      jump\t// out\n        /* \"Contract  ^0.8.8/FundMe.sol\":354:374  address public owner */\n    tag_23:\n      0x01\n      0x00\n      swap1\n      sload\n      swap1\n      0x0100\n      exp\n      swap1\n      div\n      0xffffffffffffffffffffffffffffffffffffffff\n      and\n      dup2\n      jump\t// out\n        /* \"Contract  ^0.8.8/FundMe.sol\":1438:1709  function getPrice() public{... */\n    tag_28:\n        /* \"Contract  ^0.8.8/FundMe.sol\":1675:1684  priceFeed */\n      0x07\n      0x00\n      swap1\n      sload\n      swap1\n      0x0100\n      exp\n      swap1\n      div\n      0xffffffffffffffffffffffffffffffffffffffff\n      and\n        /* \"Contract  ^0.8.8/FundMe.sol\":1675:1700  priceFeed.latestRoundData */\n      0xffffffffffffffffffffffffffffffffffffffff\n      and\n      0xfeaf968c\n        /* \"Contract  ^0.8.8/FundMe.sol\":1675:1702  priceFeed.latestRoundData() */\n      mload(0x40)\n      dup2\n      0xffffffff\n      and\n      0xe0\n      shl\n      dup2\n      mstore\n      0x04\n      add\n      0xa0\n      mload(0x40)\n      dup1\n      dup4\n      sub\n      dup2\n      dup7\n      dup1\n      extcodesize\n      iszero\n      dup1\n      iszero\n      tag_45\n      jumpi\n      0x00\n      dup1\n      revert\n    tag_45:\n      pop\n      gas\n      staticcall\n      iszero\n      dup1\n      iszero\n      tag_47\n      jumpi\n      returndatasize\n      0x00\n      dup1\n      returndatacopy\n      revert(0x00, returndatasize)\n    tag_47:\n      pop\n      pop\n      pop\n      pop\n      mload(0x40)\n      returndatasize\n      not(0x1f)\n      0x1f\n      dup3\n      add\n      and\n      dup3\n      add\n      dup1\n      0x40\n      mstore\n      pop\n      dup2\n      add\n      swap1\n      tag_48\n      swap2\n      swap1\n      tag_49\n      jump\t// in\n    tag_48:\n        /* \"Contract  ^0.8.8/FundMe.sol\":1478:1499  dataFromFeedChainLink */\n      0x02\n        /* \"Contract  ^0.8.8/FundMe.sol\":1478:1507  dataFromFeedChainLink.roundId */\n      0x00\n      add\n      0x00\n        /* \"Contract  ^0.8.8/FundMe.sol\":1515:1536  dataFromFeedChainLink */\n      0x02\n        /* \"Contract  ^0.8.8/FundMe.sol\":1515:1543  dataFromFeedChainLink.answer */\n      0x01\n      add\n      0x00\n        /* \"Contract  ^0.8.8/FundMe.sol\":1551:1572  dataFromFeedChainLink */\n      0x02\n        /* \"Contract  ^0.8.8/FundMe.sol\":1551:1582  dataFromFeedChainLink.startedAt */\n      dup1\n      add\n      0x00\n        /* \"Contract  ^0.8.8/FundMe.sol\":1590:1611  dataFromFeedChainLink */\n      0x02\n        /* \"Contract  ^0.8.8/FundMe.sol\":1590:1621  dataFromFeedChainLink.updatedAt */\n      0x03\n      add\n      0x00\n        /* \"Contract  ^0.8.8/FundMe.sol\":1629:1650  dataFromFeedChainLink */\n      0x02\n        /* \"Contract  ^0.8.8/FundMe.sol\":1629:1666  dataFromFeedChainLink.answeredInRound */\n      0x04\n      add\n      0x00\n        /* \"Contract  ^0.8.8/FundMe.sol\":1470:1702  (... */\n      dup11\n      swap2\n      swap1\n      0x0100\n      exp\n      dup2\n      sload\n      dup2\n      0xffffffffffffffffffff\n      mul\n      not\n      and\n      swap1\n      dup4\n      0xffffffffffffffffffff\n      and\n      mul\n      or\n      swap1\n      sstore\n      pop\n      dup10\n      swap2\n      swap1\n      pop\n      sstore\n      dup9\n      swap2\n      swap1\n      pop\n      sstore\n      dup8\n      swap2\n      swap1\n      pop\n      sstore\n      dup7\n      swap2\n      swap1\n      0x0100\n      exp\n      dup2\n      sload\n      dup2\n      0xffffffffffffffffffff\n      mul\n      not\n      and\n      swap1\n      dup4\n      0xffffffffffffffffffff\n      and\n      mul\n      or\n      swap1\n      sstore\n      pop\n      pop\n      pop\n      pop\n      pop\n      pop\n        /* \"Contract  ^0.8.8/FundMe.sol\":1438:1709  function getPrice() public{... */\n      jump\t// out\n        /* \"Contract  ^0.8.8/FundMe.sol\":1011:1108  function setMinimumUSD(uint256 _val) public onlyOwner(msg.sender){... */\n    tag_33:\n        /* \"Contract  ^0.8.8/FundMe.sol\":1065:1075  msg.sender */\n      caller\n        /* \"Contract  ^0.8.8/FundMe.sol\":843:850  _caller */\n      dup1\n        /* \"Contract  ^0.8.8/FundMe.sol\":834:850  owner == _caller */\n      0xffffffffffffffffffffffffffffffffffffffff\n      and\n        /* \"Contract  ^0.8.8/FundMe.sol\":834:839  owner */\n      0x01\n      0x00\n      swap1\n      sload\n      swap1\n      0x0100\n      exp\n      swap1\n      div\n      0xffffffffffffffffffffffffffffffffffffffff\n      and\n        /* \"Contract  ^0.8.8/FundMe.sol\":834:850  owner == _caller */\n      0xffffffffffffffffffffffffffffffffffffffff\n      and\n      eq\n        /* \"Contract  ^0.8.8/FundMe.sol\":826:868  require(owner == _caller,\"only the owner\") */\n      tag_51\n      jumpi\n      mload(0x40)\n      0x08c379a000000000000000000000000000000000000000000000000000000000\n      dup2\n      mstore\n      0x04\n      add\n      tag_52\n      swap1\n      tag_53\n      jump\t// in\n    tag_52:\n      mload(0x40)\n      dup1\n      swap2\n      sub\n      swap1\n      revert\n    tag_51:\n        /* \"Contract  ^0.8.8/FundMe.sol\":1097:1101  _val */\n      dup2\n        /* \"Contract  ^0.8.8/FundMe.sol\":1086:1096  minimumUSD */\n      0x00\n        /* \"Contract  ^0.8.8/FundMe.sol\":1086:1101  minimumUSD=_val */\n      dup2\n      swap1\n      sstore\n      pop\n        /* \"Contract  ^0.8.8/FundMe.sol\":1011:1108  function setMinimumUSD(uint256 _val) public onlyOwner(msg.sender){... */\n      pop\n      pop\n      jump\t// out\n        /* \"Contract  ^0.8.8/FundMe.sol\":1113:1185  function fund() public payable fundMinumumUSD(msg.value){... */\n    tag_35:\n        /* \"Contract  ^0.8.8/FundMe.sol\":1159:1168  msg.value */\n      callvalue\n        /* \"Contract  ^0.8.8/FundMe.sol\":956:966  minimumUSD */\n      sload(0x00)\n        /* \"Contract  ^0.8.8/FundMe.sol\":948:954  _value */\n      dup2\n        /* \"Contract  ^0.8.8/FundMe.sol\":948:966  _value>=minimumUSD */\n      lt\n      iszero\n        /* \"Contract  ^0.8.8/FundMe.sol\":940:988  require(_value>=minimumUSD,\"Didn't send enough\") */\n      tag_56\n      jumpi\n      mload(0x40)\n      0x08c379a000000000000000000000000000000000000000000000000000000000\n      dup2\n      mstore\n      0x04\n      add\n      tag_57\n      swap1\n      tag_58\n      jump\t// in\n    tag_57:\n      mload(0x40)\n      dup1\n      swap2\n      sub\n      swap1\n      revert\n    tag_56:\n        /* \"Contract  ^0.8.8/FundMe.sol\":1113:1185  function fund() public payable fundMinumumUSD(msg.value){... */\n      pop\n      jump\t// out\n        /* \"Contract  ^0.8.8/FundMe.sol\":380:430  structLatestRoundData public dataFromFeedChainLink */\n    tag_38:\n      0x02\n      dup1\n      0x00\n      add\n      0x00\n      swap1\n      sload\n      swap1\n      0x0100\n      exp\n      swap1\n      div\n      0xffffffffffffffffffff\n      and\n      swap1\n      dup1\n      0x01\n      add\n      sload\n      swap1\n      dup1\n      0x02\n      add\n      sload\n      swap1\n      dup1\n      0x03\n      add\n      sload\n      swap1\n      dup1\n      0x04\n      add\n      0x00\n      swap1\n      sload\n      swap1\n      0x0100\n      exp\n      swap1\n      div\n      0xffffffffffffffffffff\n      and\n      swap1\n      pop\n      dup6\n      jump\t// out\n        /* \"Contract  ^0.8.8/FundMe.sol\":1778:1815  function getConversionRate() public{} */\n    tag_43:\n      jump\t// out\n        /* \"#utility.yul\":7:84   */\n    tag_61:\n        /* \"#utility.yul\":44:51   */\n      0x00\n        /* \"#utility.yul\":73:78   */\n      dup2\n        /* \"#utility.yul\":62:78   */\n      swap1\n      pop\n        /* \"#utility.yul\":7:84   */\n      swap2\n      swap1\n      pop\n      jump\t// out\n        /* \"#utility.yul\":90:208   */\n    tag_62:\n        /* \"#utility.yul\":177:201   */\n      tag_93\n        /* \"#utility.yul\":195:200   */\n      dup2\n        /* \"#utility.yul\":177:201   */\n      tag_61\n      jump\t// in\n    tag_93:\n        /* \"#utility.yul\":172:175   */\n      dup3\n        /* \"#utility.yul\":165:202   */\n      mstore\n        /* \"#utility.yul\":90:208   */\n      pop\n      pop\n      jump\t// out\n        /* \"#utility.yul\":214:436   */\n    tag_15:\n        /* \"#utility.yul\":307:311   */\n      0x00\n        /* \"#utility.yul\":345:347   */\n      0x20\n        /* \"#utility.yul\":334:343   */\n      dup3\n        /* \"#utility.yul\":330:348   */\n      add\n        /* \"#utility.yul\":322:348   */\n      swap1\n      pop\n        /* \"#utility.yul\":358:429   */\n      tag_95\n        /* \"#utility.yul\":426:427   */\n      0x00\n        /* \"#utility.yul\":415:424   */\n      dup4\n        /* \"#utility.yul\":411:428   */\n      add\n        /* \"#utility.yul\":402:408   */\n      dup5\n        /* \"#utility.yul\":358:429   */\n      tag_62\n      jump\t// in\n    tag_95:\n        /* \"#utility.yul\":214:436   */\n      swap3\n      swap2\n      pop\n      pop\n      jump\t// out\n        /* \"#utility.yul\":442:568   */\n    tag_63:\n        /* \"#utility.yul\":479:486   */\n      0x00\n        /* \"#utility.yul\":519:561   */\n      0xffffffffffffffffffffffffffffffffffffffff\n        /* \"#utility.yul\":512:517   */\n      dup3\n        /* \"#utility.yul\":508:562   */\n      and\n        /* \"#utility.yul\":497:562   */\n      swap1\n      pop\n        /* \"#utility.yul\":442:568   */\n      swap2\n      swap1\n      pop\n      jump\t// out\n        /* \"#utility.yul\":574:634   */\n    tag_64:\n        /* \"#utility.yul\":602:605   */\n      0x00\n        /* \"#utility.yul\":623:628   */\n      dup2\n        /* \"#utility.yul\":616:628   */\n      swap1\n      pop\n        /* \"#utility.yul\":574:634   */\n      swap2\n      swap1\n      pop\n      jump\t// out\n        /* \"#utility.yul\":640:782   */\n    tag_65:\n        /* \"#utility.yul\":690:699   */\n      0x00\n        /* \"#utility.yul\":723:776   */\n      tag_99\n        /* \"#utility.yul\":741:775   */\n      tag_100\n        /* \"#utility.yul\":750:774   */\n      tag_101\n        /* \"#utility.yul\":768:773   */\n      dup5\n        /* \"#utility.yul\":750:774   */\n      tag_63\n      jump\t// in\n    tag_101:\n        /* \"#utility.yul\":741:775   */\n      tag_64\n      jump\t// in\n    tag_100:\n        /* \"#utility.yul\":723:776   */\n      tag_63\n      jump\t// in\n    tag_99:\n        /* \"#utility.yul\":710:776   */\n      swap1\n      pop\n        /* \"#utility.yul\":640:782   */\n      swap2\n      swap1\n      pop\n      jump\t// out\n        /* \"#utility.yul\":788:914   */\n    tag_66:\n        /* \"#utility.yul\":838:847   */\n      0x00\n        /* \"#utility.yul\":871:908   */\n      tag_103\n        /* \"#utility.yul\":902:907   */\n      dup3\n        /* \"#utility.yul\":871:908   */\n      tag_65\n      jump\t// in\n    tag_103:\n        /* \"#utility.yul\":858:908   */\n      swap1\n      pop\n        /* \"#utility.yul\":788:914   */\n      swap2\n      swap1\n      pop\n      jump\t// out\n        /* \"#utility.yul\":920:1074   */\n    tag_67:\n        /* \"#utility.yul\":998:1007   */\n      0x00\n        /* \"#utility.yul\":1031:1068   */\n      tag_105\n        /* \"#utility.yul\":1062:1067   */\n      dup3\n        /* \"#utility.yul\":1031:1068   */\n      tag_66\n      jump\t// in\n    tag_105:\n        /* \"#utility.yul\":1018:1068   */\n      swap1\n      pop\n        /* \"#utility.yul\":920:1074   */\n      swap2\n      swap1\n      pop\n      jump\t// out\n        /* \"#utility.yul\":1080:1267   */\n    tag_68:\n        /* \"#utility.yul\":1195:1260   */\n      tag_107\n        /* \"#utility.yul\":1254:1259   */\n      dup2\n        /* \"#utility.yul\":1195:1260   */\n      tag_67\n      jump\t// in\n    tag_107:\n        /* \"#utility.yul\":1190:1193   */\n      dup3\n        /* \"#utility.yul\":1183:1261   */\n      mstore\n        /* \"#utility.yul\":1080:1267   */\n      pop\n      pop\n      jump\t// out\n        /* \"#utility.yul\":1273:1551   */\n    tag_20:\n        /* \"#utility.yul\":1394:1398   */\n      0x00\n        /* \"#utility.yul\":1432:1434   */\n      0x20\n        /* \"#utility.yul\":1421:1430   */\n      dup3\n        /* \"#utility.yul\":1417:1435   */\n      add\n        /* \"#utility.yul\":1409:1435   */\n      swap1\n      pop\n        /* \"#utility.yul\":1445:1544   */\n      tag_109\n        /* \"#utility.yul\":1541:1542   */\n      0x00\n        /* \"#utility.yul\":1530:1539   */\n      dup4\n        /* \"#utility.yul\":1526:1543   */\n      add\n        /* \"#utility.yul\":1517:1523   */\n      dup5\n        /* \"#utility.yul\":1445:1544   */\n      tag_68\n      jump\t// in\n    tag_109:\n        /* \"#utility.yul\":1273:1551   */\n      swap3\n      swap2\n      pop\n      pop\n      jump\t// out\n        /* \"#utility.yul\":1557:1653   */\n    tag_69:\n        /* \"#utility.yul\":1594:1601   */\n      0x00\n        /* \"#utility.yul\":1623:1647   */\n      tag_111\n        /* \"#utility.yul\":1641:1646   */\n      dup3\n        /* \"#utility.yul\":1623:1647   */\n      tag_63\n      jump\t// in\n    tag_111:\n        /* \"#utility.yul\":1612:1647   */\n      swap1\n      pop\n        /* \"#utility.yul\":1557:1653   */\n      swap2\n      swap1\n      pop\n      jump\t// out\n        /* \"#utility.yul\":1659:1777   */\n    tag_70:\n        /* \"#utility.yul\":1746:1770   */\n      tag_113\n        /* \"#utility.yul\":1764:1769   */\n      dup2\n        /* \"#utility.yul\":1746:1770   */\n      tag_69\n      jump\t// in\n    tag_113:\n        /* \"#utility.yul\":1741:1744   */\n      dup3\n        /* \"#utility.yul\":1734:1771   */\n      mstore\n        /* \"#utility.yul\":1659:1777   */\n      pop\n      pop\n      jump\t// out\n        /* \"#utility.yul\":1783:2005   */\n    tag_25:\n        /* \"#utility.yul\":1876:1880   */\n      0x00\n        /* \"#utility.yul\":1914:1916   */\n      0x20\n        /* \"#utility.yul\":1903:1912   */\n      dup3\n        /* \"#utility.yul\":1899:1917   */\n      add\n        /* \"#utility.yul\":1891:1917   */\n      swap1\n      pop\n        /* \"#utility.yul\":1927:1998   */\n      tag_115\n        /* \"#utility.yul\":1995:1996   */\n      0x00\n        /* \"#utility.yul\":1984:1993   */\n      dup4\n        /* \"#utility.yul\":1980:1997   */\n      add\n        /* \"#utility.yul\":1971:1977   */\n      dup5\n        /* \"#utility.yul\":1927:1998   */\n      tag_70\n      jump\t// in\n    tag_115:\n        /* \"#utility.yul\":1783:2005   */\n      swap3\n      swap2\n      pop\n      pop\n      jump\t// out\n        /* \"#utility.yul\":2092:2209   */\n    tag_72:\n        /* \"#utility.yul\":2201:2202   */\n      0x00\n        /* \"#utility.yul\":2198:2199   */\n      dup1\n        /* \"#utility.yul\":2191:2203   */\n      revert\n        /* \"#utility.yul\":2338:2460   */\n    tag_74:\n        /* \"#utility.yul\":2411:2435   */\n      tag_120\n        /* \"#utility.yul\":2429:2434   */\n      dup2\n        /* \"#utility.yul\":2411:2435   */\n      tag_61\n      jump\t// in\n    tag_120:\n        /* \"#utility.yul\":2404:2409   */\n      dup2\n        /* \"#utility.yul\":2401:2436   */\n      eq\n        /* \"#utility.yul\":2391:2454   */\n      tag_121\n      jumpi\n        /* \"#utility.yul\":2450:2451   */\n      0x00\n        /* \"#utility.yul\":2447:2448   */\n      dup1\n        /* \"#utility.yul\":2440:2452   */\n      revert\n        /* \"#utility.yul\":2391:2454   */\n    tag_121:\n        /* \"#utility.yul\":2338:2460   */\n      pop\n      jump\t// out\n        /* \"#utility.yul\":2466:2605   */\n    tag_75:\n        /* \"#utility.yul\":2512:2517   */\n      0x00\n        /* \"#utility.yul\":2550:2556   */\n      dup2\n        /* \"#utility.yul\":2537:2557   */\n      calldataload\n        /* \"#utility.yul\":2528:2557   */\n      swap1\n      pop\n        /* \"#utility.yul\":2566:2599   */\n      tag_123\n        /* \"#utility.yul\":2593:2598   */\n      dup2\n        /* \"#utility.yul\":2566:2599   */\n      tag_74\n      jump\t// in\n    tag_123:\n        /* \"#utility.yul\":2466:2605   */\n      swap3\n      swap2\n      pop\n      pop\n      jump\t// out\n        /* \"#utility.yul\":2611:2940   */\n    tag_32:\n        /* \"#utility.yul\":2670:2676   */\n      0x00\n        /* \"#utility.yul\":2719:2721   */\n      0x20\n        /* \"#utility.yul\":2707:2716   */\n      dup3\n        /* \"#utility.yul\":2698:2705   */\n      dup5\n        /* \"#utility.yul\":2694:2717   */\n      sub\n        /* \"#utility.yul\":2690:2722   */\n      slt\n        /* \"#utility.yul\":2687:2806   */\n      iszero\n      tag_125\n      jumpi\n        /* \"#utility.yul\":2725:2804   */\n      tag_126\n      tag_72\n      jump\t// in\n    tag_126:\n        /* \"#utility.yul\":2687:2806   */\n    tag_125:\n        /* \"#utility.yul\":2845:2846   */\n      0x00\n        /* \"#utility.yul\":2870:2923   */\n      tag_127\n        /* \"#utility.yul\":2915:2922   */\n      dup5\n        /* \"#utility.yul\":2906:2912   */\n      dup3\n        /* \"#utility.yul\":2895:2904   */\n      dup6\n        /* \"#utility.yul\":2891:2913   */\n      add\n        /* \"#utility.yul\":2870:2923   */\n      tag_75\n      jump\t// in\n    tag_127:\n        /* \"#utility.yul\":2860:2923   */\n      swap2\n      pop\n        /* \"#utility.yul\":2816:2933   */\n      pop\n        /* \"#utility.yul\":2611:2940   */\n      swap3\n      swap2\n      pop\n      pop\n      jump\t// out\n        /* \"#utility.yul\":2946:3051   */\n    tag_76:\n        /* \"#utility.yul\":2982:2989   */\n      0x00\n        /* \"#utility.yul\":3022:3044   */\n      0xffffffffffffffffffff\n        /* \"#utility.yul\":3015:3020   */\n      dup3\n        /* \"#utility.yul\":3011:3045   */\n      and\n        /* \"#utility.yul\":3000:3045   */\n      swap1\n      pop\n        /* \"#utility.yul\":2946:3051   */\n      swap2\n      swap1\n      pop\n      jump\t// out\n        /* \"#utility.yul\":3057:3172   */\n    tag_77:\n        /* \"#utility.yul\":3142:3165   */\n      tag_130\n        /* \"#utility.yul\":3159:3164   */\n      dup2\n        /* \"#utility.yul\":3142:3165   */\n      tag_76\n      jump\t// in\n    tag_130:\n        /* \"#utility.yul\":3137:3140   */\n      dup3\n        /* \"#utility.yul\":3130:3166   */\n      mstore\n        /* \"#utility.yul\":3057:3172   */\n      pop\n      pop\n      jump\t// out\n        /* \"#utility.yul\":3178:3254   */\n    tag_78:\n        /* \"#utility.yul\":3214:3221   */\n      0x00\n        /* \"#utility.yul\":3243:3248   */\n      dup2\n        /* \"#utility.yul\":3232:3248   */\n      swap1\n      pop\n        /* \"#utility.yul\":3178:3254   */\n      swap2\n      swap1\n      pop\n      jump\t// out\n        /* \"#utility.yul\":3260:3375   */\n    tag_79:\n        /* \"#utility.yul\":3345:3368   */\n      tag_133\n        /* \"#utility.yul\":3362:3367   */\n      dup2\n        /* \"#utility.yul\":3345:3368   */\n      tag_78\n      jump\t// in\n    tag_133:\n        /* \"#utility.yul\":3340:3343   */\n      dup3\n        /* \"#utility.yul\":3333:3369   */\n      mstore\n        /* \"#utility.yul\":3260:3375   */\n      pop\n      pop\n      jump\t// out\n        /* \"#utility.yul\":3381:4033   */\n    tag_40:\n        /* \"#utility.yul\":3580:3584   */\n      0x00\n        /* \"#utility.yul\":3618:3621   */\n      0xa0\n        /* \"#utility.yul\":3607:3616   */\n      dup3\n        /* \"#utility.yul\":3603:3622   */\n      add\n        /* \"#utility.yul\":3595:3622   */\n      swap1\n      pop\n        /* \"#utility.yul\":3632:3701   */\n      tag_135\n        /* \"#utility.yul\":3698:3699   */\n      0x00\n        /* \"#utility.yul\":3687:3696   */\n      dup4\n        /* \"#utility.yul\":3683:3700   */\n      add\n        /* \"#utility.yul\":3674:3680   */\n      dup9\n        /* \"#utility.yul\":3632:3701   */\n      tag_77\n      jump\t// in\n    tag_135:\n        /* \"#utility.yul\":3711:3781   */\n      tag_136\n        /* \"#utility.yul\":3777:3779   */\n      0x20\n        /* \"#utility.yul\":3766:3775   */\n      dup4\n        /* \"#utility.yul\":3762:3780   */\n      add\n        /* \"#utility.yul\":3753:3759   */\n      dup8\n        /* \"#utility.yul\":3711:3781   */\n      tag_79\n      jump\t// in\n    tag_136:\n        /* \"#utility.yul\":3791:3863   */\n      tag_137\n        /* \"#utility.yul\":3859:3861   */\n      0x40\n        /* \"#utility.yul\":3848:3857   */\n      dup4\n        /* \"#utility.yul\":3844:3862   */\n      add\n        /* \"#utility.yul\":3835:3841   */\n      dup7\n        /* \"#utility.yul\":3791:3863   */\n      tag_62\n      jump\t// in\n    tag_137:\n        /* \"#utility.yul\":3873:3945   */\n      tag_138\n        /* \"#utility.yul\":3941:3943   */\n      0x60\n        /* \"#utility.yul\":3930:3939   */\n      dup4\n        /* \"#utility.yul\":3926:3944   */\n      add\n        /* \"#utility.yul\":3917:3923   */\n      dup6\n        /* \"#utility.yul\":3873:3945   */\n      tag_62\n      jump\t// in\n    tag_138:\n        /* \"#utility.yul\":3955:4026   */\n      tag_139\n        /* \"#utility.yul\":4021:4024   */\n      0x80\n        /* \"#utility.yul\":4010:4019   */\n      dup4\n        /* \"#utility.yul\":4006:4025   */\n      add\n        /* \"#utility.yul\":3997:4003   */\n      dup5\n        /* \"#utility.yul\":3955:4026   */\n      tag_77\n      jump\t// in\n    tag_139:\n        /* \"#utility.yul\":3381:4033   */\n      swap7\n      swap6\n      pop\n      pop\n      pop\n      pop\n      pop\n      pop\n      jump\t// out\n        /* \"#utility.yul\":4039:4159   */\n    tag_80:\n        /* \"#utility.yul\":4111:4134   */\n      tag_141\n        /* \"#utility.yul\":4128:4133   */\n      dup2\n        /* \"#utility.yul\":4111:4134   */\n      tag_76\n      jump\t// in\n    tag_141:\n        /* \"#utility.yul\":4104:4109   */\n      dup2\n        /* \"#utility.yul\":4101:4135   */\n      eq\n        /* \"#utility.yul\":4091:4153   */\n      tag_142\n      jumpi\n        /* \"#utility.yul\":4149:4150   */\n      0x00\n        /* \"#utility.yul\":4146:4147   */\n      dup1\n        /* \"#utility.yul\":4139:4151   */\n      revert\n        /* \"#utility.yul\":4091:4153   */\n    tag_142:\n        /* \"#utility.yul\":4039:4159   */\n      pop\n      jump\t// out\n        /* \"#utility.yul\":4165:4306   */\n    tag_81:\n        /* \"#utility.yul\":4221:4226   */\n      0x00\n        /* \"#utility.yul\":4252:4258   */\n      dup2\n        /* \"#utility.yul\":4246:4259   */\n      mload\n        /* \"#utility.yul\":4237:4259   */\n      swap1\n      pop\n        /* \"#utility.yul\":4268:4300   */\n      tag_144\n        /* \"#utility.yul\":4294:4299   */\n      dup2\n        /* \"#utility.yul\":4268:4300   */\n      tag_80\n      jump\t// in\n    tag_144:\n        /* \"#utility.yul\":4165:4306   */\n      swap3\n      swap2\n      pop\n      pop\n      jump\t// out\n        /* \"#utility.yul\":4312:4432   */\n    tag_82:\n        /* \"#utility.yul\":4384:4407   */\n      tag_146\n        /* \"#utility.yul\":4401:4406   */\n      dup2\n        /* \"#utility.yul\":4384:4407   */\n      tag_78\n      jump\t// in\n    tag_146:\n        /* \"#utility.yul\":4377:4382   */\n      dup2\n        /* \"#utility.yul\":4374:4408   */\n      eq\n        /* \"#utility.yul\":4364:4426   */\n      tag_147\n      jumpi\n        /* \"#utility.yul\":4422:4423   */\n      0x00\n        /* \"#utility.yul\":4419:4420   */\n      dup1\n        /* \"#utility.yul\":4412:4424   */\n      revert\n        /* \"#utility.yul\":4364:4426   */\n    tag_147:\n        /* \"#utility.yul\":4312:4432   */\n      pop\n      jump\t// out\n        /* \"#utility.yul\":4438:4579   */\n    tag_83:\n        /* \"#utility.yul\":4494:4499   */\n      0x00\n        /* \"#utility.yul\":4525:4531   */\n      dup2\n        /* \"#utility.yul\":4519:4532   */\n      mload\n        /* \"#utility.yul\":4510:4532   */\n      swap1\n      pop\n        /* \"#utility.yul\":4541:4573   */\n      tag_149\n        /* \"#utility.yul\":4567:4572   */\n      dup2\n        /* \"#utility.yul\":4541:4573   */\n      tag_82\n      jump\t// in\n    tag_149:\n        /* \"#utility.yul\":4438:4579   */\n      swap3\n      swap2\n      pop\n      pop\n      jump\t// out\n        /* \"#utility.yul\":4585:4728   */\n    tag_84:\n        /* \"#utility.yul\":4642:4647   */\n      0x00\n        /* \"#utility.yul\":4673:4679   */\n      dup2\n        /* \"#utility.yul\":4667:4680   */\n      mload\n        /* \"#utility.yul\":4658:4680   */\n      swap1\n      pop\n        /* \"#utility.yul\":4689:4722   */\n      tag_151\n        /* \"#utility.yul\":4716:4721   */\n      dup2\n        /* \"#utility.yul\":4689:4722   */\n      tag_74\n      jump\t// in\n    tag_151:\n        /* \"#utility.yul\":4585:4728   */\n      swap3\n      swap2\n      pop\n      pop\n      jump\t// out\n        /* \"#utility.yul\":4734:5705   */\n    tag_49:\n        /* \"#utility.yul\":4837:4843   */\n      0x00\n        /* \"#utility.yul\":4845:4851   */\n      dup1\n        /* \"#utility.yul\":4853:4859   */\n      0x00\n        /* \"#utility.yul\":4861:4867   */\n      dup1\n        /* \"#utility.yul\":4869:4875   */\n      0x00\n        /* \"#utility.yul\":4918:4921   */\n      0xa0\n        /* \"#utility.yul\":4906:4915   */\n      dup7\n        /* \"#utility.yul\":4897:4904   */\n      dup9\n        /* \"#utility.yul\":4893:4916   */\n      sub\n        /* \"#utility.yul\":4889:4922   */\n      slt\n        /* \"#utility.yul\":4886:5006   */\n      iszero\n      tag_153\n      jumpi\n        /* \"#utility.yul\":4925:5004   */\n      tag_154\n      tag_72\n      jump\t// in\n    tag_154:\n        /* \"#utility.yul\":4886:5006   */\n    tag_153:\n        /* \"#utility.yul\":5045:5046   */\n      0x00\n        /* \"#utility.yul\":5070:5133   */\n      tag_155\n        /* \"#utility.yul\":5125:5132   */\n      dup9\n        /* \"#utility.yul\":5116:5122   */\n      dup3\n        /* \"#utility.yul\":5105:5114   */\n      dup10\n        /* \"#utility.yul\":5101:5123   */\n      add\n        /* \"#utility.yul\":5070:5133   */\n      tag_81\n      jump\t// in\n    tag_155:\n        /* \"#utility.yul\":5060:5133   */\n      swap6\n      pop\n        /* \"#utility.yul\":5016:5143   */\n      pop\n        /* \"#utility.yul\":5182:5184   */\n      0x20\n        /* \"#utility.yul\":5208:5271   */\n      tag_156\n        /* \"#utility.yul\":5263:5270   */\n      dup9\n        /* \"#utility.yul\":5254:5260   */\n      dup3\n        /* \"#utility.yul\":5243:5252   */\n      dup10\n        /* \"#utility.yul\":5239:5261   */\n      add\n        /* \"#utility.yul\":5208:5271   */\n      tag_83\n      jump\t// in\n    tag_156:\n        /* \"#utility.yul\":5198:5271   */\n      swap5\n      pop\n        /* \"#utility.yul\":5153:5281   */\n      pop\n        /* \"#utility.yul\":5320:5322   */\n      0x40\n        /* \"#utility.yul\":5346:5410   */\n      tag_157\n        /* \"#utility.yul\":5402:5409   */\n      dup9\n        /* \"#utility.yul\":5393:5399   */\n      dup3\n        /* \"#utility.yul\":5382:5391   */\n      dup10\n        /* \"#utility.yul\":5378:5400   */\n      add\n        /* \"#utility.yul\":5346:5410   */\n      tag_84\n      jump\t// in\n    tag_157:\n        /* \"#utility.yul\":5336:5410   */\n      swap4\n      pop\n        /* \"#utility.yul\":5291:5420   */\n      pop\n        /* \"#utility.yul\":5459:5461   */\n      0x60\n        /* \"#utility.yul\":5485:5549   */\n      tag_158\n        /* \"#utility.yul\":5541:5548   */\n      dup9\n        /* \"#utility.yul\":5532:5538   */\n      dup3\n        /* \"#utility.yul\":5521:5530   */\n      dup10\n        /* \"#utility.yul\":5517:5539   */\n      add\n        /* \"#utility.yul\":5485:5549   */\n      tag_84\n      jump\t// in\n    tag_158:\n        /* \"#utility.yul\":5475:5549   */\n      swap3\n      pop\n        /* \"#utility.yul\":5430:5559   */\n      pop\n        /* \"#utility.yul\":5598:5601   */\n      0x80\n        /* \"#utility.yul\":5625:5688   */\n      tag_159\n        /* \"#utility.yul\":5680:5687   */\n      dup9\n        /* \"#utility.yul\":5671:5677   */\n      dup3\n        /* \"#utility.yul\":5660:5669   */\n      dup10\n        /* \"#utility.yul\":5656:5678   */\n      add\n        /* \"#utility.yul\":5625:5688   */\n      tag_81\n      jump\t// in\n    tag_159:\n        /* \"#utility.yul\":5615:5688   */\n      swap2\n      pop\n        /* \"#utility.yul\":5569:5698   */\n      pop\n        /* \"#utility.yul\":4734:5705   */\n      swap3\n      swap6\n      pop\n      swap3\n      swap6\n      swap1\n      swap4\n      pop\n      jump\t// out\n        /* \"#utility.yul\":5711:5880   */\n    tag_85:\n        /* \"#utility.yul\":5795:5806   */\n      0x00\n        /* \"#utility.yul\":5829:5835   */\n      dup3\n        /* \"#utility.yul\":5824:5827   */\n      dup3\n        /* \"#utility.yul\":5817:5836   */\n      mstore\n        /* \"#utility.yul\":5869:5873   */\n      0x20\n        /* \"#utility.yul\":5864:5867   */\n      dup3\n        /* \"#utility.yul\":5860:5874   */\n      add\n        /* \"#utility.yul\":5845:5874   */\n      swap1\n      pop\n        /* \"#utility.yul\":5711:5880   */\n      swap3\n      swap2\n      pop\n      pop\n      jump\t// out\n        /* \"#utility.yul\":5886:6050   */\n    tag_86:\n        /* \"#utility.yul\":6026:6042   */\n      0x6f6e6c7920746865206f776e6572000000000000000000000000000000000000\n        /* \"#utility.yul\":6022:6023   */\n      0x00\n        /* \"#utility.yul\":6014:6020   */\n      dup3\n        /* \"#utility.yul\":6010:6024   */\n      add\n        /* \"#utility.yul\":6003:6043   */\n      mstore\n        /* \"#utility.yul\":5886:6050   */\n      pop\n      jump\t// out\n        /* \"#utility.yul\":6056:6422   */\n    tag_87:\n        /* \"#utility.yul\":6198:6201   */\n      0x00\n        /* \"#utility.yul\":6219:6286   */\n      tag_163\n        /* \"#utility.yul\":6283:6285   */\n      0x0e\n        /* \"#utility.yul\":6278:6281   */\n      dup4\n        /* \"#utility.yul\":6219:6286   */\n      tag_85\n      jump\t// in\n    tag_163:\n        /* \"#utility.yul\":6212:6286   */\n      swap2\n      pop\n        /* \"#utility.yul\":6295:6388   */\n      tag_164\n        /* \"#utility.yul\":6384:6387   */\n      dup3\n        /* \"#utility.yul\":6295:6388   */\n      tag_86\n      jump\t// in\n    tag_164:\n        /* \"#utility.yul\":6413:6415   */\n      0x20\n        /* \"#utility.yul\":6408:6411   */\n      dup3\n        /* \"#utility.yul\":6404:6416   */\n      add\n        /* \"#utility.yul\":6397:6416   */\n      swap1\n      pop\n        /* \"#utility.yul\":6056:6422   */\n      swap2\n      swap1\n      pop\n      jump\t// out\n        /* \"#utility.yul\":6428:6847   */\n    tag_53:\n        /* \"#utility.yul\":6594:6598   */\n      0x00\n        /* \"#utility.yul\":6632:6634   */\n      0x20\n        /* \"#utility.yul\":6621:6630   */\n      dup3\n        /* \"#utility.yul\":6617:6635   */\n      add\n        /* \"#utility.yul\":6609:6635   */\n      swap1\n      pop\n        /* \"#utility.yul\":6681:6690   */\n      dup2\n        /* \"#utility.yul\":6675:6679   */\n      dup2\n        /* \"#utility.yul\":6671:6691   */\n      sub\n        /* \"#utility.yul\":6667:6668   */\n      0x00\n        /* \"#utility.yul\":6656:6665   */\n      dup4\n        /* \"#utility.yul\":6652:6669   */\n      add\n        /* \"#utility.yul\":6645:6692   */\n      mstore\n        /* \"#utility.yul\":6709:6840   */\n      tag_166\n        /* \"#utility.yul\":6835:6839   */\n      dup2\n        /* \"#utility.yul\":6709:6840   */\n      tag_87\n      jump\t// in\n    tag_166:\n        /* \"#utility.yul\":6701:6840   */\n      swap1\n      pop\n        /* \"#utility.yul\":6428:6847   */\n      swap2\n      swap1\n      pop\n      jump\t// out\n        /* \"#utility.yul\":6853:7021   */\n    tag_88:\n        /* \"#utility.yul\":6993:7013   */\n      0x4469646e27742073656e6420656e6f7567680000000000000000000000000000\n        /* \"#utility.yul\":6989:6990   */\n      0x00\n        /* \"#utility.yul\":6981:6987   */\n      dup3\n        /* \"#utility.yul\":6977:6991   */\n      add\n        /* \"#utility.yul\":6970:7014   */\n      mstore\n        /* \"#utility.yul\":6853:7021   */\n      pop\n      jump\t// out\n        /* \"#utility.yul\":7027:7393   */\n    tag_89:\n        /* \"#utility.yul\":7169:7172   */\n      0x00\n        /* \"#utility.yul\":7190:7257   */\n      tag_169\n        /* \"#utility.yul\":7254:7256   */\n      0x12\n        /* \"#utility.yul\":7249:7252   */\n      dup4\n        /* \"#utility.yul\":7190:7257   */\n      tag_85\n      jump\t// in\n    tag_169:\n        /* \"#utility.yul\":7183:7257   */\n      swap2\n      pop\n        /* \"#utility.yul\":7266:7359   */\n      tag_170\n        /* \"#utility.yul\":7355:7358   */\n      dup3\n        /* \"#utility.yul\":7266:7359   */\n      tag_88\n      jump\t// in\n    tag_170:\n        /* \"#utility.yul\":7384:7386   */\n      0x20\n        /* \"#utility.yul\":7379:7382   */\n      dup3\n        /* \"#utility.yul\":7375:7387   */\n      add\n        /* \"#utility.yul\":7368:7387   */\n      swap1\n      pop\n        /* \"#utility.yul\":7027:7393   */\n      swap2\n      swap1\n      pop\n      jump\t// out\n        /* \"#utility.yul\":7399:7818   */\n    tag_58:\n        /* \"#utility.yul\":7565:7569   */\n      0x00\n        /* \"#utility.yul\":7603:7605   */\n      0x20\n        /* \"#utility.yul\":7592:7601   */\n      dup3\n        /* \"#utility.yul\":7588:7606   */\n      add\n        /* \"#utility.yul\":7580:7606   */\n      swap1\n      pop\n        /* \"#utility.yul\":7652:7661   */\n      dup2\n        /* \"#utility.yul\":7646:7650   */\n      dup2\n        /* \"#utility.yul\":7642:7662   */\n      sub\n        /* \"#utility.yul\":7638:7639   */\n      0x00\n        /* \"#utility.yul\":7627:7636   */\n      dup4\n        /* \"#utility.yul\":7623:7640   */\n      add\n        /* \"#utility.yul\":7616:7663   */\n      mstore\n        /* \"#utility.yul\":7680:7811   */\n      tag_172\n        /* \"#utility.yul\":7806:7810   */\n      dup2\n        /* \"#utility.yul\":7680:7811   */\n      tag_89\n      jump\t// in\n    tag_172:\n        /* \"#utility.yul\":7672:7811   */\n      swap1\n      pop\n        /* \"#utility.yul\":7399:7818   */\n      swap2\n      swap1\n      pop\n      jump\t// out\n\n    auxdata: 0xa2646970667358221220dc831ff18ba9df640116959c831220584d8289d0765c38db1e17a0d2120f403864736f6c63430008080033\n}\n",
				"bytecode": {
					"linkReferences": {},
					"object": "6080604052600260005534801561001557600080fd5b5033600160006101000a81548173ffffffffffffffffffffffffffffffffffffffff021916908373ffffffffffffffffffffffffffffffffffffffff160217905550738a753747a1fa494ec906ce90e9f37563a8af630e600760006101000a81548173ffffffffffffffffffffffffffffffffffffffff021916908373ffffffffffffffffffffffffffffffffffffffff160217905550610848806100bb6000396000f3fe60806040526004361061007b5760003560e01c8063b046c5401161004e578063b046c54014610118578063b60d428814610141578063b9c903b81461014b578063f36089ec1461017a5761007b565b80633430a88c14610080578063741bef1a146100ab5780638da5cb5b146100d657806398d5fdca14610101575b600080fd5b34801561008c57600080fd5b50610095610191565b6040516100a29190610461565b60405180910390f35b3480156100b757600080fd5b506100c0610197565b6040516100cd91906104fb565b60405180910390f35b3480156100e257600080fd5b506100eb6101bd565b6040516100f89190610537565b60405180910390f35b34801561010d57600080fd5b506101166101e3565b005b34801561012457600080fd5b5061013f600480360381019061013a9190610583565b610311565b005b6101496103ad565b005b34801561015757600080fd5b506101606103f6565b6040516101719594939291906105ee565b60405180910390f35b34801561018657600080fd5b5061018f610446565b005b60005481565b600760009054906101000a900473ffffffffffffffffffffffffffffffffffffffff1681565b600160009054906101000a900473ffffffffffffffffffffffffffffffffffffffff1681565b600760009054906101000a900473ffffffffffffffffffffffffffffffffffffffff1673ffffffffffffffffffffffffffffffffffffffff1663feaf968c6040518163ffffffff1660e01b815260040160a06040518083038186803b15801561024b57600080fd5b505afa15801561025f573d6000803e3d6000fd5b505050506040513d601f19601f8201168201806040525081019061028391906106ae565b600260000160006002600101600060028001600060026003016000600260040160008a91906101000a81548169ffffffffffffffffffff021916908369ffffffffffffffffffff1602179055508991905055889190505587919050558691906101000a81548169ffffffffffffffffffff021916908369ffffffffffffffffffff1602179055505050505050565b338073ffffffffffffffffffffffffffffffffffffffff16600160009054906101000a900473ffffffffffffffffffffffffffffffffffffffff1673ffffffffffffffffffffffffffffffffffffffff16146103a2576040517f08c379a000000000000000000000000000000000000000000000000000000000815260040161039990610786565b60405180910390fd5b816000819055505050565b346000548110156103f3576040517f08c379a00000000000000000000000000000000000000000000000000000000081526004016103ea906107f2565b60405180910390fd5b50565b60028060000160009054906101000a900469ffffffffffffffffffff16908060010154908060020154908060030154908060040160009054906101000a900469ffffffffffffffffffff16905085565b565b6000819050919050565b61045b81610448565b82525050565b60006020820190506104766000830184610452565b92915050565b600073ffffffffffffffffffffffffffffffffffffffff82169050919050565b6000819050919050565b60006104c16104bc6104b78461047c565b61049c565b61047c565b9050919050565b60006104d3826104a6565b9050919050565b60006104e5826104c8565b9050919050565b6104f5816104da565b82525050565b600060208201905061051060008301846104ec565b92915050565b60006105218261047c565b9050919050565b61053181610516565b82525050565b600060208201905061054c6000830184610528565b92915050565b600080fd5b61056081610448565b811461056b57600080fd5b50565b60008135905061057d81610557565b92915050565b60006020828403121561059957610598610552565b5b60006105a78482850161056e565b91505092915050565b600069ffffffffffffffffffff82169050919050565b6105cf816105b0565b82525050565b6000819050919050565b6105e8816105d5565b82525050565b600060a08201905061060360008301886105c6565b61061060208301876105df565b61061d6040830186610452565b61062a6060830185610452565b61063760808301846105c6565b9695505050505050565b61064a816105b0565b811461065557600080fd5b50565b60008151905061066781610641565b92915050565b610676816105d5565b811461068157600080fd5b50565b6000815190506106938161066d565b92915050565b6000815190506106a881610557565b92915050565b600080600080600060a086880312156106ca576106c9610552565b5b60006106d888828901610658565b95505060206106e988828901610684565b94505060406106fa88828901610699565b935050606061070b88828901610699565b925050608061071c88828901610658565b9150509295509295909350565b600082825260208201905092915050565b7f6f6e6c7920746865206f776e6572000000000000000000000000000000000000600082015250565b6000610770600e83610729565b915061077b8261073a565b602082019050919050565b6000602082019050818103600083015261079f81610763565b9050919050565b7f4469646e27742073656e6420656e6f7567680000000000000000000000000000600082015250565b60006107dc601283610729565b91506107e7826107a6565b602082019050919050565b6000602082019050818103600083015261080b816107cf565b905091905056fea2646970667358221220dc831ff18ba9df640116959c831220584d8289d0765c38db1e17a0d2120f403864736f6c63430008080033",
					"opcodes": "PUSH1 0x80 PUSH1 0x40 MSTORE PUSH1 0x2 PUSH1 0x0 SSTORE CALLVALUE DUP1 ISZERO PUSH2 0x15 JUMPI PUSH1 0x0 DUP1 REVERT JUMPDEST POP CALLER PUSH1 0x1 PUSH1 0x0 PUSH2 0x100 EXP DUP2 SLOAD DUP2 PUSH20 0xFFFFFFFFFFFFFFFFFFFFFFFFFFFFFFFFFFFFFFFF MUL NOT AND SWAP1 DUP4 PUSH20 0xFFFFFFFFFFFFFFFFFFFFFFFFFFFFFFFFFFFFFFFF AND MUL OR SWAP1 SSTORE POP PUSH20 0x8A753747A1FA494EC906CE90E9F37563A8AF630E PUSH1 0x7 PUSH1 0x0 PUSH2 0x100 EXP DUP2 SLOAD DUP2 PUSH20 0xFFFFFFFFFFFFFFFFFFFFFFFFFFFFFFFFFFFFFFFF MUL NOT AND SWAP1 DUP4 PUSH20 0xFFFFFFFFFFFFFFFFFFFFFFFFFFFFFFFFFFFFFFFF AND MUL OR SWAP1 SSTORE POP PUSH2 0x848 DUP1 PUSH2 0xBB PUSH1 0x0 CODECOPY PUSH1 0x0 RETURN INVALID PUSH1 0x80 PUSH1 0x40 MSTORE PUSH1 0x4 CALLDATASIZE LT PUSH2 0x7B JUMPI PUSH1 0x0 CALLDATALOAD PUSH1 0xE0 SHR DUP1 PUSH4 0xB046C540 GT PUSH2 0x4E JUMPI DUP1 PUSH4 0xB046C540 EQ PUSH2 0x118 JUMPI DUP1 PUSH4 0xB60D4288 EQ PUSH2 0x141 JUMPI DUP1 PUSH4 0xB9C903B8 EQ PUSH2 0x14B JUMPI DUP1 PUSH4 0xF36089EC EQ PUSH2 0x17A JUMPI PUSH2 0x7B JUMP JUMPDEST DUP1 PUSH4 0x3430A88C EQ PUSH2 0x80 JUMPI DUP1 PUSH4 0x741BEF1A EQ PUSH2 0xAB JUMPI DUP1 PUSH4 0x8DA5CB5B EQ PUSH2 0xD6 JUMPI DUP1 PUSH4 0x98D5FDCA EQ PUSH2 0x101 JUMPI JUMPDEST PUSH1 0x0 DUP1 REVERT JUMPDEST CALLVALUE DUP1 ISZERO PUSH2 0x8C JUMPI PUSH1 0x0 DUP1 REVERT JUMPDEST POP PUSH2 0x95 PUSH2 0x191 JUMP JUMPDEST PUSH1 0x40 MLOAD PUSH2 0xA2 SWAP2 SWAP1 PUSH2 0x461 JUMP JUMPDEST PUSH1 0x40 MLOAD DUP1 SWAP2 SUB SWAP1 RETURN JUMPDEST CALLVALUE DUP1 ISZERO PUSH2 0xB7 JUMPI PUSH1 0x0 DUP1 REVERT JUMPDEST POP PUSH2 0xC0 PUSH2 0x197 JUMP JUMPDEST PUSH1 0x40 MLOAD PUSH2 0xCD SWAP2 SWAP1 PUSH2 0x4FB JUMP JUMPDEST PUSH1 0x40 MLOAD DUP1 SWAP2 SUB SWAP1 RETURN JUMPDEST CALLVALUE DUP1 ISZERO PUSH2 0xE2 JUMPI PUSH1 0x0 DUP1 REVERT JUMPDEST POP PUSH2 0xEB PUSH2 0x1BD JUMP JUMPDEST PUSH1 0x40 MLOAD PUSH2 0xF8 SWAP2 SWAP1 PUSH2 0x537 JUMP JUMPDEST PUSH1 0x40 MLOAD DUP1 SWAP2 SUB SWAP1 RETURN JUMPDEST CALLVALUE DUP1 ISZERO PUSH2 0x10D JUMPI PUSH1 0x0 DUP1 REVERT JUMPDEST POP PUSH2 0x116 PUSH2 0x1E3 JUMP JUMPDEST STOP JUMPDEST CALLVALUE DUP1 ISZERO PUSH2 0x124 JUMPI PUSH1 0x0 DUP1 REVERT JUMPDEST POP PUSH2 0x13F PUSH1 0x4 DUP1 CALLDATASIZE SUB DUP2 ADD SWAP1 PUSH2 0x13A SWAP2 SWAP1 PUSH2 0x583 JUMP JUMPDEST PUSH2 0x311 JUMP JUMPDEST STOP JUMPDEST PUSH2 0x149 PUSH2 0x3AD JUMP JUMPDEST STOP JUMPDEST CALLVALUE DUP1 ISZERO PUSH2 0x157 JUMPI PUSH1 0x0 DUP1 REVERT JUMPDEST POP PUSH2 0x160 PUSH2 0x3F6 JUMP JUMPDEST PUSH1 0x40 MLOAD PUSH2 0x171 SWAP6 SWAP5 SWAP4 SWAP3 SWAP2 SWAP1 PUSH2 0x5EE JUMP JUMPDEST PUSH1 0x40 MLOAD DUP1 SWAP2 SUB SWAP1 RETURN JUMPDEST CALLVALUE DUP1 ISZERO PUSH2 0x186 JUMPI PUSH1 0x0 DUP1 REVERT JUMPDEST POP PUSH2 0x18F PUSH2 0x446 JUMP JUMPDEST STOP JUMPDEST PUSH1 0x0 SLOAD DUP2 JUMP JUMPDEST PUSH1 0x7 PUSH1 0x0 SWAP1 SLOAD SWAP1 PUSH2 0x100 EXP SWAP1 DIV PUSH20 0xFFFFFFFFFFFFFFFFFFFFFFFFFFFFFFFFFFFFFFFF AND DUP2 JUMP JUMPDEST PUSH1 0x1 PUSH1 0x0 SWAP1 SLOAD SWAP1 PUSH2 0x100 EXP SWAP1 DIV PUSH20 0xFFFFFFFFFFFFFFFFFFFFFFFFFFFFFFFFFFFFFFFF AND DUP2 JUMP JUMPDEST PUSH1 0x7 PUSH1 0x0 SWAP1 SLOAD SWAP1 PUSH2 0x100 EXP SWAP1 DIV PUSH20 0xFFFFFFFFFFFFFFFFFFFFFFFFFFFFFFFFFFFFFFFF AND PUSH20 0xFFFFFFFFFFFFFFFFFFFFFFFFFFFFFFFFFFFFFFFF AND PUSH4 0xFEAF968C PUSH1 0x40 MLOAD DUP2 PUSH4 0xFFFFFFFF AND PUSH1 0xE0 SHL DUP2 MSTORE PUSH1 0x4 ADD PUSH1 0xA0 PUSH1 0x40 MLOAD DUP1 DUP4 SUB DUP2 DUP7 DUP1 EXTCODESIZE ISZERO DUP1 ISZERO PUSH2 0x24B JUMPI PUSH1 0x0 DUP1 REVERT JUMPDEST POP GAS STATICCALL ISZERO DUP1 ISZERO PUSH2 0x25F JUMPI RETURNDATASIZE PUSH1 0x0 DUP1 RETURNDATACOPY RETURNDATASIZE PUSH1 0x0 REVERT JUMPDEST POP POP POP POP PUSH1 0x40 MLOAD RETURNDATASIZE PUSH1 0x1F NOT PUSH1 0x1F DUP3 ADD AND DUP3 ADD DUP1 PUSH1 0x40 MSTORE POP DUP2 ADD SWAP1 PUSH2 0x283 SWAP2 SWAP1 PUSH2 0x6AE JUMP JUMPDEST PUSH1 0x2 PUSH1 0x0 ADD PUSH1 0x0 PUSH1 0x2 PUSH1 0x1 ADD PUSH1 0x0 PUSH1 0x2 DUP1 ADD PUSH1 0x0 PUSH1 0x2 PUSH1 0x3 ADD PUSH1 0x0 PUSH1 0x2 PUSH1 0x4 ADD PUSH1 0x0 DUP11 SWAP2 SWAP1 PUSH2 0x100 EXP DUP2 SLOAD DUP2 PUSH10 0xFFFFFFFFFFFFFFFFFFFF MUL NOT AND SWAP1 DUP4 PUSH10 0xFFFFFFFFFFFFFFFFFFFF AND MUL OR SWAP1 SSTORE POP DUP10 SWAP2 SWAP1 POP SSTORE DUP9 SWAP2 SWAP1 POP SSTORE DUP8 SWAP2 SWAP1 POP SSTORE DUP7 SWAP2 SWAP1 PUSH2 0x100 EXP DUP2 SLOAD DUP2 PUSH10 0xFFFFFFFFFFFFFFFFFFFF MUL NOT AND SWAP1 DUP4 PUSH10 0xFFFFFFFFFFFFFFFFFFFF AND MUL OR SWAP1 SSTORE POP POP POP POP POP POP JUMP JUMPDEST CALLER DUP1 PUSH20 0xFFFFFFFFFFFFFFFFFFFFFFFFFFFFFFFFFFFFFFFF AND PUSH1 0x1 PUSH1 0x0 SWAP1 SLOAD SWAP1 PUSH2 0x100 EXP SWAP1 DIV PUSH20 0xFFFFFFFFFFFFFFFFFFFFFFFFFFFFFFFFFFFFFFFF AND PUSH20 0xFFFFFFFFFFFFFFFFFFFFFFFFFFFFFFFFFFFFFFFF AND EQ PUSH2 0x3A2 JUMPI PUSH1 0x40 MLOAD PUSH32 0x8C379A000000000000000000000000000000000000000000000000000000000 DUP2 MSTORE PUSH1 0x4 ADD PUSH2 0x399 SWAP1 PUSH2 0x786 JUMP JUMPDEST PUSH1 0x40 MLOAD DUP1 SWAP2 SUB SWAP1 REVERT JUMPDEST DUP2 PUSH1 0x0 DUP2 SWAP1 SSTORE POP POP POP JUMP JUMPDEST CALLVALUE PUSH1 0x0 SLOAD DUP2 LT ISZERO PUSH2 0x3F3 JUMPI PUSH1 0x40 MLOAD PUSH32 0x8C379A000000000000000000000000000000000000000000000000000000000 DUP2 MSTORE PUSH1 0x4 ADD PUSH2 0x3EA SWAP1 PUSH2 0x7F2 JUMP JUMPDEST PUSH1 0x40 MLOAD DUP1 SWAP2 SUB SWAP1 REVERT JUMPDEST POP JUMP JUMPDEST PUSH1 0x2 DUP1 PUSH1 0x0 ADD PUSH1 0x0 SWAP1 SLOAD SWAP1 PUSH2 0x100 EXP SWAP1 DIV PUSH10 0xFFFFFFFFFFFFFFFFFFFF AND SWAP1 DUP1 PUSH1 0x1 ADD SLOAD SWAP1 DUP1 PUSH1 0x2 ADD SLOAD SWAP1 DUP1 PUSH1 0x3 ADD SLOAD SWAP1 DUP1 PUSH1 0x4 ADD PUSH1 0x0 SWAP1 SLOAD SWAP1 PUSH2 0x100 EXP SWAP1 DIV PUSH10 0xFFFFFFFFFFFFFFFFFFFF AND SWAP1 POP DUP6 JUMP JUMPDEST JUMP JUMPDEST PUSH1 0x0 DUP2 SWAP1 POP SWAP2 SWAP1 POP JUMP JUMPDEST PUSH2 0x45B DUP2 PUSH2 0x448 JUMP JUMPDEST DUP3 MSTORE POP POP JUMP JUMPDEST PUSH1 0x0 PUSH1 0x20 DUP3 ADD SWAP1 POP PUSH2 0x476 PUSH1 0x0 DUP4 ADD DUP5 PUSH2 0x452 JUMP JUMPDEST SWAP3 SWAP2 POP POP JUMP JUMPDEST PUSH1 0x0 PUSH20 0xFFFFFFFFFFFFFFFFFFFFFFFFFFFFFFFFFFFFFFFF DUP3 AND SWAP1 POP SWAP2 SWAP1 POP JUMP JUMPDEST PUSH1 0x0 DUP2 SWAP1 POP SWAP2 SWAP1 POP JUMP JUMPDEST PUSH1 0x0 PUSH2 0x4C1 PUSH2 0x4BC PUSH2 0x4B7 DUP5 PUSH2 0x47C JUMP JUMPDEST PUSH2 0x49C JUMP JUMPDEST PUSH2 0x47C JUMP JUMPDEST SWAP1 POP SWAP2 SWAP1 POP JUMP JUMPDEST PUSH1 0x0 PUSH2 0x4D3 DUP3 PUSH2 0x4A6 JUMP JUMPDEST SWAP1 POP SWAP2 SWAP1 POP JUMP JUMPDEST PUSH1 0x0 PUSH2 0x4E5 DUP3 PUSH2 0x4C8 JUMP JUMPDEST SWAP1 POP SWAP2 SWAP1 POP JUMP JUMPDEST PUSH2 0x4F5 DUP2 PUSH2 0x4DA JUMP JUMPDEST DUP3 MSTORE POP POP JUMP JUMPDEST PUSH1 0x0 PUSH1 0x20 DUP3 ADD SWAP1 POP PUSH2 0x510 PUSH1 0x0 DUP4 ADD DUP5 PUSH2 0x4EC JUMP JUMPDEST SWAP3 SWAP2 POP POP JUMP JUMPDEST PUSH1 0x0 PUSH2 0x521 DUP3 PUSH2 0x47C JUMP JUMPDEST SWAP1 POP SWAP2 SWAP1 POP JUMP JUMPDEST PUSH2 0x531 DUP2 PUSH2 0x516 JUMP JUMPDEST DUP3 MSTORE POP POP JUMP JUMPDEST PUSH1 0x0 PUSH1 0x20 DUP3 ADD SWAP1 POP PUSH2 0x54C PUSH1 0x0 DUP4 ADD DUP5 PUSH2 0x528 JUMP JUMPDEST SWAP3 SWAP2 POP POP JUMP JUMPDEST PUSH1 0x0 DUP1 REVERT JUMPDEST PUSH2 0x560 DUP2 PUSH2 0x448 JUMP JUMPDEST DUP2 EQ PUSH2 0x56B JUMPI PUSH1 0x0 DUP1 REVERT JUMPDEST POP JUMP JUMPDEST PUSH1 0x0 DUP2 CALLDATALOAD SWAP1 POP PUSH2 0x57D DUP2 PUSH2 0x557 JUMP JUMPDEST SWAP3 SWAP2 POP POP JUMP JUMPDEST PUSH1 0x0 PUSH1 0x20 DUP3 DUP5 SUB SLT ISZERO PUSH2 0x599 JUMPI PUSH2 0x598 PUSH2 0x552 JUMP JUMPDEST JUMPDEST PUSH1 0x0 PUSH2 0x5A7 DUP5 DUP3 DUP6 ADD PUSH2 0x56E JUMP JUMPDEST SWAP2 POP POP SWAP3 SWAP2 POP POP JUMP JUMPDEST PUSH1 0x0 PUSH10 0xFFFFFFFFFFFFFFFFFFFF DUP3 AND SWAP1 POP SWAP2 SWAP1 POP JUMP JUMPDEST PUSH2 0x5CF DUP2 PUSH2 0x5B0 JUMP JUMPDEST DUP3 MSTORE POP POP JUMP JUMPDEST PUSH1 0x0 DUP2 SWAP1 POP SWAP2 SWAP1 POP JUMP JUMPDEST PUSH2 0x5E8 DUP2 PUSH2 0x5D5 JUMP JUMPDEST DUP3 MSTORE POP POP JUMP JUMPDEST PUSH1 0x0 PUSH1 0xA0 DUP3 ADD SWAP1 POP PUSH2 0x603 PUSH1 0x0 DUP4 ADD DUP9 PUSH2 0x5C6 JUMP JUMPDEST PUSH2 0x610 PUSH1 0x20 DUP4 ADD DUP8 PUSH2 0x5DF JUMP JUMPDEST PUSH2 0x61D PUSH1 0x40 DUP4 ADD DUP7 PUSH2 0x452 JUMP JUMPDEST PUSH2 0x62A PUSH1 0x60 DUP4 ADD DUP6 PUSH2 0x452 JUMP JUMPDEST PUSH2 0x637 PUSH1 0x80 DUP4 ADD DUP5 PUSH2 0x5C6 JUMP JUMPDEST SWAP7 SWAP6 POP POP POP POP POP POP JUMP JUMPDEST PUSH2 0x64A DUP2 PUSH2 0x5B0 JUMP JUMPDEST DUP2 EQ PUSH2 0x655 JUMPI PUSH1 0x0 DUP1 REVERT JUMPDEST POP JUMP JUMPDEST PUSH1 0x0 DUP2 MLOAD SWAP1 POP PUSH2 0x667 DUP2 PUSH2 0x641 JUMP JUMPDEST SWAP3 SWAP2 POP POP JUMP JUMPDEST PUSH2 0x676 DUP2 PUSH2 0x5D5 JUMP JUMPDEST DUP2 EQ PUSH2 0x681 JUMPI PUSH1 0x0 DUP1 REVERT JUMPDEST POP JUMP JUMPDEST PUSH1 0x0 DUP2 MLOAD SWAP1 POP PUSH2 0x693 DUP2 PUSH2 0x66D JUMP JUMPDEST SWAP3 SWAP2 POP POP JUMP JUMPDEST PUSH1 0x0 DUP2 MLOAD SWAP1 POP PUSH2 0x6A8 DUP2 PUSH2 0x557 JUMP JUMPDEST SWAP3 SWAP2 POP POP JUMP JUMPDEST PUSH1 0x0 DUP1 PUSH1 0x0 DUP1 PUSH1 0x0 PUSH1 0xA0 DUP7 DUP9 SUB SLT ISZERO PUSH2 0x6CA JUMPI PUSH2 0x6C9 PUSH2 0x552 JUMP JUMPDEST JUMPDEST PUSH1 0x0 PUSH2 0x6D8 DUP9 DUP3 DUP10 ADD PUSH2 0x658 JUMP JUMPDEST SWAP6 POP POP PUSH1 0x20 PUSH2 0x6E9 DUP9 DUP3 DUP10 ADD PUSH2 0x684 JUMP JUMPDEST SWAP5 POP POP PUSH1 0x40 PUSH2 0x6FA DUP9 DUP3 DUP10 ADD PUSH2 0x699 JUMP JUMPDEST SWAP4 POP POP PUSH1 0x60 PUSH2 0x70B DUP9 DUP3 DUP10 ADD PUSH2 0x699 JUMP JUMPDEST SWAP3 POP POP PUSH1 0x80 PUSH2 0x71C DUP9 DUP3 DUP10 ADD PUSH2 0x658 JUMP JUMPDEST SWAP2 POP POP SWAP3 SWAP6 POP SWAP3 SWAP6 SWAP1 SWAP4 POP JUMP JUMPDEST PUSH1 0x0 DUP3 DUP3 MSTORE PUSH1 0x20 DUP3 ADD SWAP1 POP SWAP3 SWAP2 POP POP JUMP JUMPDEST PUSH32 0x6F6E6C7920746865206F776E6572000000000000000000000000000000000000 PUSH1 0x0 DUP3 ADD MSTORE POP JUMP JUMPDEST PUSH1 0x0 PUSH2 0x770 PUSH1 0xE DUP4 PUSH2 0x729 JUMP JUMPDEST SWAP2 POP PUSH2 0x77B DUP3 PUSH2 0x73A JUMP JUMPDEST PUSH1 0x20 DUP3 ADD SWAP1 POP SWAP2 SWAP1 POP JUMP JUMPDEST PUSH1 0x0 PUSH1 0x20 DUP3 ADD SWAP1 POP DUP2 DUP2 SUB PUSH1 0x0 DUP4 ADD MSTORE PUSH2 0x79F DUP2 PUSH2 0x763 JUMP JUMPDEST SWAP1 POP SWAP2 SWAP1 POP JUMP JUMPDEST PUSH32 0x4469646E27742073656E6420656E6F7567680000000000000000000000000000 PUSH1 0x0 DUP3 ADD MSTORE POP JUMP JUMPDEST PUSH1 0x0 PUSH2 0x7DC PUSH1 0x12 DUP4 PUSH2 0x729 JUMP JUMPDEST SWAP2 POP PUSH2 0x7E7 DUP3 PUSH2 0x7A6 JUMP JUMPDEST PUSH1 0x20 DUP3 ADD SWAP1 POP SWAP2 SWAP1 POP JUMP JUMPDEST PUSH1 0x0 PUSH1 0x20 DUP3 ADD SWAP1 POP DUP2 DUP2 SUB PUSH1 0x0 DUP4 ADD MSTORE PUSH2 0x80B DUP2 PUSH2 0x7CF JUMP JUMPDEST SWAP1 POP SWAP2 SWAP1 POP JUMP INVALID LOG2 PUSH5 0x6970667358 0x22 SLT KECCAK256 0xDC DUP4 0x1F CALL DUP12 0xA9 0xDF PUSH5 0x116959C83 SLT KECCAK256 PC 0x4D DUP3 DUP10 0xD0 PUSH23 0x5C38DB1E17A0D2120F403864736F6C6343000808003300 "
				},
				"gasEstimates": {
					"creation": {
						"codeDepositCost": "424000",
						"executionCost": "71100",
						"totalCost": "495100"
					},
					"external": {
						"dataFromFeedChainLink()": "infinite",
						"fund()": "2559",
						"getConversionRate()": "210",
						"getPrice()": "infinite",
						"minimumUSD()": "2430",
						"owner()": "2559",
						"priceFeed()": "infinite",
						"setMinimumUSD(uint256)": "24695"
					}
				},
				"methodIdentifiers": {
					"dataFromFeedChainLink()": "b9c903b8",
					"fund()": "b60d4288",
					"getConversionRate()": "f36089ec",
					"getPrice()": "98d5fdca",
					"minimumUSD()": "3430a88c",
					"owner()": "8da5cb5b",
					"priceFeed()": "741bef1a",
					"setMinimumUSD(uint256)": "b046c540"
				}
			},
			"storageLayout": {
				"storage": [
					{
						"astId": 62,
						"contract": "Contract  ^0.8.8/FundMe.sol:FundMe",
						"label": "minimumUSD",
						"offset": 0,
						"slot": "0",
						"type": "t_uint256"
					},
					{
						"astId": 64,
						"contract": "Contract  ^0.8.8/FundMe.sol:FundMe",
						"label": "owner",
						"offset": 0,
						"slot": "1",
						"type": "t_address"
					},
					{
						"astId": 67,
						"contract": "Contract  ^0.8.8/FundMe.sol:FundMe",
						"label": "dataFromFeedChainLink",
						"offset": 0,
						"slot": "2",
						"type": "t_struct(structLatestRoundData)59_storage"
					},
					{
						"astId": 70,
						"contract": "Contract  ^0.8.8/FundMe.sol:FundMe",
						"label": "priceFeed",
						"offset": 0,
						"slot": "7",
						"type": "t_contract(AggregatorV3Interface)45"
					}
				],
				"types": {
					"t_address": {
						"encoding": "inplace",
						"label": "address",
						"numberOfBytes": "20"
					},
					"t_contract(AggregatorV3Interface)45": {
						"encoding": "inplace",
						"label": "contract AggregatorV3Interface",
						"numberOfBytes": "20"
					},
					"t_int256": {
						"encoding": "inplace",
						"label": "int256",
						"numberOfBytes": "32"
					},
					"t_struct(structLatestRoundData)59_storage": {
						"encoding": "inplace",
						"label": "struct FundMe.structLatestRoundData",
						"members": [
							{
								"astId": 50,
								"contract": "Contract  ^0.8.8/FundMe.sol:FundMe",
								"label": "roundId",
								"offset": 0,
								"slot": "0",
								"type": "t_uint80"
							},
							{
								"astId": 52,
								"contract": "Contract  ^0.8.8/FundMe.sol:FundMe",
								"label": "answer",
								"offset": 0,
								"slot": "1",
								"type": "t_int256"
							},
							{
								"astId": 54,
								"contract": "Contract  ^0.8.8/FundMe.sol:FundMe",
								"label": "startedAt",
								"offset": 0,
								"slot": "2",
								"type": "t_uint256"
							},
							{
								"astId": 56,
								"contract": "Contract  ^0.8.8/FundMe.sol:FundMe",
								"label": "updatedAt",
								"offset": 0,
								"slot": "3",
								"type": "t_uint256"
							},
							{
								"astId": 58,
								"contract": "Contract  ^0.8.8/FundMe.sol:FundMe",
								"label": "answeredInRound",
								"offset": 0,
								"slot": "4",
								"type": "t_uint80"
							}
						],
						"numberOfBytes": "160"
					},
					"t_uint256": {
						"encoding": "inplace",
						"label": "uint256",
						"numberOfBytes": "32"
					},
					"t_uint80": {
						"encoding": "inplace",
						"label": "uint80",
						"numberOfBytes": "10"
					}
				}
			},
			"userdoc": {
				"kind": "user",
				"methods": {},
				"version": 1
			}
		}
	}
}