{
	"Contract  ^0.8.8/FundMe.sol": {
		"FundMe": {
			"abi": [
				{
					"inputs": [],
					"stateMutability": "nonpayable",
					"type": "constructor"
				},
				{
					"inputs": [],
					"name": "fund",
					"outputs": [],
					"stateMutability": "payable",
					"type": "function"
				},
				{
					"inputs": [],
					"name": "minimumUSD",
					"outputs": [
						{
							"internalType": "uint256",
							"name": "",
							"type": "uint256"
						}
					],
					"stateMutability": "view",
					"type": "function"
				},
				{
					"inputs": [],
					"name": "owner",
					"outputs": [
						{
							"internalType": "address",
							"name": "",
							"type": "address"
						}
					],
					"stateMutability": "view",
					"type": "function"
				},
				{
					"inputs": [
						{
							"internalType": "uint256",
							"name": "_val",
							"type": "uint256"
						}
					],
					"name": "setMinimumUSD",
					"outputs": [],
					"stateMutability": "nonpayable",
					"type": "function"
				}
			],
			"devdoc": {
				"kind": "dev",
				"methods": {},
				"version": 1
			},
			"evm": {
				"assembly": "    /* \"Contract  ^0.8.8/FundMe.sol\":56:572  contract FundMe{... */\n  mstore(0x40, 0x80)\n    /* \"Contract  ^0.8.8/FundMe.sol\":105:106  2 */\n  0x02\n    /* \"Contract  ^0.8.8/FundMe.sol\":77:106  uint256 public minimumUSD = 2 */\n  0x00\n  sstore\n    /* \"Contract  ^0.8.8/FundMe.sol\":216:265  constructor (){... */\n  callvalue\n  dup1\n  iszero\n  tag_1\n  jumpi\n  0x00\n  dup1\n  revert\ntag_1:\n  pop\n    /* \"Contract  ^0.8.8/FundMe.sol\":248:258  msg.sender */\n  caller\n    /* \"Contract  ^0.8.8/FundMe.sol\":240:245  owner */\n  0x01\n  0x00\n    /* \"Contract  ^0.8.8/FundMe.sol\":240:258  owner = msg.sender */\n  0x0100\n  exp\n  dup2\n  sload\n  dup2\n  0xffffffffffffffffffffffffffffffffffffffff\n  mul\n  not\n  and\n  swap1\n  dup4\n  0xffffffffffffffffffffffffffffffffffffffff\n  and\n  mul\n  or\n  swap1\n  sstore\n  pop\n    /* \"Contract  ^0.8.8/FundMe.sol\":56:572  contract FundMe{... */\n  dataSize(sub_0)\n  dup1\n  dataOffset(sub_0)\n  0x00\n  codecopy\n  0x00\n  return\nstop\n\nsub_0: assembly {\n        /* \"Contract  ^0.8.8/FundMe.sol\":56:572  contract FundMe{... */\n      mstore(0x40, 0x80)\n      jumpi(tag_1, lt(calldatasize, 0x04))\n      shr(0xe0, calldataload(0x00))\n      dup1\n      0x3430a88c\n      eq\n      tag_2\n      jumpi\n      dup1\n      0x8da5cb5b\n      eq\n      tag_3\n      jumpi\n      dup1\n      0xb046c540\n      eq\n      tag_4\n      jumpi\n      dup1\n      0xb60d4288\n      eq\n      tag_5\n      jumpi\n    tag_1:\n      0x00\n      dup1\n      revert\n        /* \"Contract  ^0.8.8/FundMe.sol\":77:106  uint256 public minimumUSD = 2 */\n    tag_2:\n      callvalue\n      dup1\n      iszero\n      tag_6\n      jumpi\n      0x00\n      dup1\n      revert\n    tag_6:\n      pop\n      tag_7\n      tag_8\n      jump\t// in\n    tag_7:\n      mload(0x40)\n      tag_9\n      swap2\n      swap1\n      tag_10\n      jump\t// in\n    tag_9:\n      mload(0x40)\n      dup1\n      swap2\n      sub\n      swap1\n      return\n        /* \"Contract  ^0.8.8/FundMe.sol\":112:132  address public owner */\n    tag_3:\n      callvalue\n      dup1\n      iszero\n      tag_11\n      jumpi\n      0x00\n      dup1\n      revert\n    tag_11:\n      pop\n      tag_12\n      tag_13\n      jump\t// in\n    tag_12:\n      mload(0x40)\n      tag_14\n      swap2\n      swap1\n      tag_15\n      jump\t// in\n    tag_14:\n      mload(0x40)\n      dup1\n      swap2\n      sub\n      swap1\n      return\n        /* \"Contract  ^0.8.8/FundMe.sol\":367:464  function setMinimumUSD(uint256 _val) public OnlyOwner(msg.sender){... */\n    tag_4:\n      callvalue\n      dup1\n      iszero\n      tag_16\n      jumpi\n      0x00\n      dup1\n      revert\n    tag_16:\n      pop\n      tag_17\n      0x04\n      dup1\n      calldatasize\n      sub\n      dup2\n      add\n      swap1\n      tag_18\n      swap2\n      swap1\n      tag_19\n      jump\t// in\n    tag_18:\n      tag_20\n      jump\t// in\n    tag_17:\n      stop\n        /* \"Contract  ^0.8.8/FundMe.sol\":469:570  function fund() public payable {... */\n    tag_5:\n      tag_21\n      tag_22\n      jump\t// in\n    tag_21:\n      stop\n        /* \"Contract  ^0.8.8/FundMe.sol\":77:106  uint256 public minimumUSD = 2 */\n    tag_8:\n      sload(0x00)\n      dup2\n      jump\t// out\n        /* \"Contract  ^0.8.8/FundMe.sol\":112:132  address public owner */\n    tag_13:\n      0x01\n      0x00\n      swap1\n      sload\n      swap1\n      0x0100\n      exp\n      swap1\n      div\n      0xffffffffffffffffffffffffffffffffffffffff\n      and\n      dup2\n      jump\t// out\n        /* \"Contract  ^0.8.8/FundMe.sol\":367:464  function setMinimumUSD(uint256 _val) public OnlyOwner(msg.sender){... */\n    tag_20:\n        /* \"Contract  ^0.8.8/FundMe.sol\":421:431  msg.sender */\n      caller\n        /* \"Contract  ^0.8.8/FundMe.sol\":336:343  _caller */\n      dup1\n        /* \"Contract  ^0.8.8/FundMe.sol\":323:343  msg.sender ==_caller */\n      0xffffffffffffffffffffffffffffffffffffffff\n      and\n        /* \"Contract  ^0.8.8/FundMe.sol\":323:333  msg.sender */\n      caller\n        /* \"Contract  ^0.8.8/FundMe.sol\":323:343  msg.sender ==_caller */\n      0xffffffffffffffffffffffffffffffffffffffff\n      and\n      eq\n        /* \"Contract  ^0.8.8/FundMe.sol\":315:344  require(msg.sender ==_caller) */\n      tag_24\n      jumpi\n      0x00\n      dup1\n      revert\n    tag_24:\n        /* \"Contract  ^0.8.8/FundMe.sol\":453:457  _val */\n      dup2\n        /* \"Contract  ^0.8.8/FundMe.sol\":442:452  minimumUSD */\n      0x00\n        /* \"Contract  ^0.8.8/FundMe.sol\":442:457  minimumUSD=_val */\n      dup2\n      swap1\n      sstore\n      pop\n        /* \"Contract  ^0.8.8/FundMe.sol\":367:464  function setMinimumUSD(uint256 _val) public OnlyOwner(msg.sender){... */\n      pop\n      pop\n      jump\t// out\n        /* \"Contract  ^0.8.8/FundMe.sol\":469:570  function fund() public payable {... */\n    tag_22:\n        /* \"Contract  ^0.8.8/FundMe.sol\":530:540  minimumUSD */\n      sload(0x00)\n        /* \"Contract  ^0.8.8/FundMe.sol\":518:527  msg.value */\n      callvalue\n        /* \"Contract  ^0.8.8/FundMe.sol\":518:540  msg.value>= minimumUSD */\n      lt\n      iszero\n        /* \"Contract  ^0.8.8/FundMe.sol\":510:563  require(msg.value>= minimumUSD, \"Didn't send enough\") */\n      tag_27\n      jumpi\n      mload(0x40)\n      0x08c379a000000000000000000000000000000000000000000000000000000000\n      dup2\n      mstore\n      0x04\n      add\n      tag_28\n      swap1\n      tag_29\n      jump\t// in\n    tag_28:\n      mload(0x40)\n      dup1\n      swap2\n      sub\n      swap1\n      revert\n    tag_27:\n        /* \"Contract  ^0.8.8/FundMe.sol\":469:570  function fund() public payable {... */\n      jump\t// out\n        /* \"#utility.yul\":7:146   */\n    tag_31:\n        /* \"#utility.yul\":53:58   */\n      0x00\n        /* \"#utility.yul\":91:97   */\n      dup2\n        /* \"#utility.yul\":78:98   */\n      calldataload\n        /* \"#utility.yul\":69:98   */\n      swap1\n      pop\n        /* \"#utility.yul\":107:140   */\n      tag_33\n        /* \"#utility.yul\":134:139   */\n      dup2\n        /* \"#utility.yul\":107:140   */\n      tag_34\n      jump\t// in\n    tag_33:\n        /* \"#utility.yul\":7:146   */\n      swap3\n      swap2\n      pop\n      pop\n      jump\t// out\n        /* \"#utility.yul\":152:481   */\n    tag_19:\n        /* \"#utility.yul\":211:217   */\n      0x00\n        /* \"#utility.yul\":260:262   */\n      0x20\n        /* \"#utility.yul\":248:257   */\n      dup3\n        /* \"#utility.yul\":239:246   */\n      dup5\n        /* \"#utility.yul\":235:258   */\n      sub\n        /* \"#utility.yul\":231:263   */\n      slt\n        /* \"#utility.yul\":228:347   */\n      iszero\n      tag_36\n      jumpi\n        /* \"#utility.yul\":266:345   */\n      tag_37\n      tag_38\n      jump\t// in\n    tag_37:\n        /* \"#utility.yul\":228:347   */\n    tag_36:\n        /* \"#utility.yul\":386:387   */\n      0x00\n        /* \"#utility.yul\":411:464   */\n      tag_39\n        /* \"#utility.yul\":456:463   */\n      dup5\n        /* \"#utility.yul\":447:453   */\n      dup3\n        /* \"#utility.yul\":436:445   */\n      dup6\n        /* \"#utility.yul\":432:454   */\n      add\n        /* \"#utility.yul\":411:464   */\n      tag_31\n      jump\t// in\n    tag_39:\n        /* \"#utility.yul\":401:464   */\n      swap2\n      pop\n        /* \"#utility.yul\":357:474   */\n      pop\n        /* \"#utility.yul\":152:481   */\n      swap3\n      swap2\n      pop\n      pop\n      jump\t// out\n        /* \"#utility.yul\":487:605   */\n    tag_40:\n        /* \"#utility.yul\":574:598   */\n      tag_42\n        /* \"#utility.yul\":592:597   */\n      dup2\n        /* \"#utility.yul\":574:598   */\n      tag_43\n      jump\t// in\n    tag_42:\n        /* \"#utility.yul\":569:572   */\n      dup3\n        /* \"#utility.yul\":562:599   */\n      mstore\n        /* \"#utility.yul\":487:605   */\n      pop\n      pop\n      jump\t// out\n        /* \"#utility.yul\":611:977   */\n    tag_44:\n        /* \"#utility.yul\":753:756   */\n      0x00\n        /* \"#utility.yul\":774:841   */\n      tag_46\n        /* \"#utility.yul\":838:840   */\n      0x12\n        /* \"#utility.yul\":833:836   */\n      dup4\n        /* \"#utility.yul\":774:841   */\n      tag_47\n      jump\t// in\n    tag_46:\n        /* \"#utility.yul\":767:841   */\n      swap2\n      pop\n        /* \"#utility.yul\":850:943   */\n      tag_48\n        /* \"#utility.yul\":939:942   */\n      dup3\n        /* \"#utility.yul\":850:943   */\n      tag_49\n      jump\t// in\n    tag_48:\n        /* \"#utility.yul\":968:970   */\n      0x20\n        /* \"#utility.yul\":963:966   */\n      dup3\n        /* \"#utility.yul\":959:971   */\n      add\n        /* \"#utility.yul\":952:971   */\n      swap1\n      pop\n        /* \"#utility.yul\":611:977   */\n      swap2\n      swap1\n      pop\n      jump\t// out\n        /* \"#utility.yul\":983:1101   */\n    tag_50:\n        /* \"#utility.yul\":1070:1094   */\n      tag_52\n        /* \"#utility.yul\":1088:1093   */\n      dup2\n        /* \"#utility.yul\":1070:1094   */\n      tag_53\n      jump\t// in\n    tag_52:\n        /* \"#utility.yul\":1065:1068   */\n      dup3\n        /* \"#utility.yul\":1058:1095   */\n      mstore\n        /* \"#utility.yul\":983:1101   */\n      pop\n      pop\n      jump\t// out\n        /* \"#utility.yul\":1107:1329   */\n    tag_15:\n        /* \"#utility.yul\":1200:1204   */\n      0x00\n        /* \"#utility.yul\":1238:1240   */\n      0x20\n        /* \"#utility.yul\":1227:1236   */\n      dup3\n        /* \"#utility.yul\":1223:1241   */\n      add\n        /* \"#utility.yul\":1215:1241   */\n      swap1\n      pop\n        /* \"#utility.yul\":1251:1322   */\n      tag_55\n        /* \"#utility.yul\":1319:1320   */\n      0x00\n        /* \"#utility.yul\":1308:1317   */\n      dup4\n        /* \"#utility.yul\":1304:1321   */\n      add\n        /* \"#utility.yul\":1295:1301   */\n      dup5\n        /* \"#utility.yul\":1251:1322   */\n      tag_40\n      jump\t// in\n    tag_55:\n        /* \"#utility.yul\":1107:1329   */\n      swap3\n      swap2\n      pop\n      pop\n      jump\t// out\n        /* \"#utility.yul\":1335:1754   */\n    tag_29:\n        /* \"#utility.yul\":1501:1505   */\n      0x00\n        /* \"#utility.yul\":1539:1541   */\n      0x20\n        /* \"#utility.yul\":1528:1537   */\n      dup3\n        /* \"#utility.yul\":1524:1542   */\n      add\n        /* \"#utility.yul\":1516:1542   */\n      swap1\n      pop\n        /* \"#utility.yul\":1588:1597   */\n      dup2\n        /* \"#utility.yul\":1582:1586   */\n      dup2\n        /* \"#utility.yul\":1578:1598   */\n      sub\n        /* \"#utility.yul\":1574:1575   */\n      0x00\n        /* \"#utility.yul\":1563:1572   */\n      dup4\n        /* \"#utility.yul\":1559:1576   */\n      add\n        /* \"#utility.yul\":1552:1599   */\n      mstore\n        /* \"#utility.yul\":1616:1747   */\n      tag_57\n        /* \"#utility.yul\":1742:1746   */\n      dup2\n        /* \"#utility.yul\":1616:1747   */\n      tag_44\n      jump\t// in\n    tag_57:\n        /* \"#utility.yul\":1608:1747   */\n      swap1\n      pop\n        /* \"#utility.yul\":1335:1754   */\n      swap2\n      swap1\n      pop\n      jump\t// out\n        /* \"#utility.yul\":1760:1982   */\n    tag_10:\n        /* \"#utility.yul\":1853:1857   */\n      0x00\n        /* \"#utility.yul\":1891:1893   */\n      0x20\n        /* \"#utility.yul\":1880:1889   */\n      dup3\n        /* \"#utility.yul\":1876:1894   */\n      add\n        /* \"#utility.yul\":1868:1894   */\n      swap1\n      pop\n        /* \"#utility.yul\":1904:1975   */\n      tag_59\n        /* \"#utility.yul\":1972:1973   */\n      0x00\n        /* \"#utility.yul\":1961:1970   */\n      dup4\n        /* \"#utility.yul\":1957:1974   */\n      add\n        /* \"#utility.yul\":1948:1954   */\n      dup5\n        /* \"#utility.yul\":1904:1975   */\n      tag_50\n      jump\t// in\n    tag_59:\n        /* \"#utility.yul\":1760:1982   */\n      swap3\n      swap2\n      pop\n      pop\n      jump\t// out\n        /* \"#utility.yul\":2069:2238   */\n    tag_47:\n        /* \"#utility.yul\":2153:2164   */\n      0x00\n        /* \"#utility.yul\":2187:2193   */\n      dup3\n        /* \"#utility.yul\":2182:2185   */\n      dup3\n        /* \"#utility.yul\":2175:2194   */\n      mstore\n        /* \"#utility.yul\":2227:2231   */\n      0x20\n        /* \"#utility.yul\":2222:2225   */\n      dup3\n        /* \"#utility.yul\":2218:2232   */\n      add\n        /* \"#utility.yul\":2203:2232   */\n      swap1\n      pop\n        /* \"#utility.yul\":2069:2238   */\n      swap3\n      swap2\n      pop\n      pop\n      jump\t// out\n        /* \"#utility.yul\":2244:2340   */\n    tag_43:\n        /* \"#utility.yul\":2281:2288   */\n      0x00\n        /* \"#utility.yul\":2310:2334   */\n      tag_64\n        /* \"#utility.yul\":2328:2333   */\n      dup3\n        /* \"#utility.yul\":2310:2334   */\n      tag_65\n      jump\t// in\n    tag_64:\n        /* \"#utility.yul\":2299:2334   */\n      swap1\n      pop\n        /* \"#utility.yul\":2244:2340   */\n      swap2\n      swap1\n      pop\n      jump\t// out\n        /* \"#utility.yul\":2346:2472   */\n    tag_65:\n        /* \"#utility.yul\":2383:2390   */\n      0x00\n        /* \"#utility.yul\":2423:2465   */\n      0xffffffffffffffffffffffffffffffffffffffff\n        /* \"#utility.yul\":2416:2421   */\n      dup3\n        /* \"#utility.yul\":2412:2466   */\n      and\n        /* \"#utility.yul\":2401:2466   */\n      swap1\n      pop\n        /* \"#utility.yul\":2346:2472   */\n      swap2\n      swap1\n      pop\n      jump\t// out\n        /* \"#utility.yul\":2478:2555   */\n    tag_53:\n        /* \"#utility.yul\":2515:2522   */\n      0x00\n        /* \"#utility.yul\":2544:2549   */\n      dup2\n        /* \"#utility.yul\":2533:2549   */\n      swap1\n      pop\n        /* \"#utility.yul\":2478:2555   */\n      swap2\n      swap1\n      pop\n      jump\t// out\n        /* \"#utility.yul\":2684:2801   */\n    tag_38:\n        /* \"#utility.yul\":2793:2794   */\n      0x00\n        /* \"#utility.yul\":2790:2791   */\n      dup1\n        /* \"#utility.yul\":2783:2795   */\n      revert\n        /* \"#utility.yul\":2807:2975   */\n    tag_49:\n        /* \"#utility.yul\":2947:2967   */\n      0x4469646e27742073656e6420656e6f7567680000000000000000000000000000\n        /* \"#utility.yul\":2943:2944   */\n      0x00\n        /* \"#utility.yul\":2935:2941   */\n      dup3\n        /* \"#utility.yul\":2931:2945   */\n      add\n        /* \"#utility.yul\":2924:2968   */\n      mstore\n        /* \"#utility.yul\":2807:2975   */\n      pop\n      jump\t// out\n        /* \"#utility.yul\":2981:3103   */\n    tag_34:\n        /* \"#utility.yul\":3054:3078   */\n      tag_73\n        /* \"#utility.yul\":3072:3077   */\n      dup2\n        /* \"#utility.yul\":3054:3078   */\n      tag_53\n      jump\t// in\n    tag_73:\n        /* \"#utility.yul\":3047:3052   */\n      dup2\n        /* \"#utility.yul\":3044:3079   */\n      eq\n        /* \"#utility.yul\":3034:3097   */\n      tag_74\n      jumpi\n        /* \"#utility.yul\":3093:3094   */\n      0x00\n        /* \"#utility.yul\":3090:3091   */\n      dup1\n        /* \"#utility.yul\":3083:3095   */\n      revert\n        /* \"#utility.yul\":3034:3097   */\n    tag_74:\n        /* \"#utility.yul\":2981:3103   */\n      pop\n      jump\t// out\n\n    auxdata: 0xa264697066735822122022d5f37a72f5e3e3a243f44fe925e63061ffc4e88836d3ac00c2d00308c64eab64736f6c63430008070033\n}\n",
				"bytecode": {
					"linkReferences": {},
					"object": "6080604052600260005534801561001557600080fd5b5033600160006101000a81548173ffffffffffffffffffffffffffffffffffffffff021916908373ffffffffffffffffffffffffffffffffffffffff160217905550610325806100666000396000f3fe60806040526004361061003f5760003560e01c80633430a88c146100445780638da5cb5b1461006f578063b046c5401461009a578063b60d4288146100c3575b600080fd5b34801561005057600080fd5b506100596100cd565b6040516100669190610242565b60405180910390f35b34801561007b57600080fd5b506100846100d3565b6040516100919190610207565b60405180910390f35b3480156100a657600080fd5b506100c160048036038101906100bc9190610199565b6100f9565b005b6100cb61013d565b005b60005481565b600160009054906101000a900473ffffffffffffffffffffffffffffffffffffffff1681565b338073ffffffffffffffffffffffffffffffffffffffff163373ffffffffffffffffffffffffffffffffffffffff161461013257600080fd5b816000819055505050565b600054341015610182576040517f08c379a000000000000000000000000000000000000000000000000000000000815260040161017990610222565b60405180910390fd5b565b600081359050610193816102d8565b92915050565b6000602082840312156101af576101ae6102aa565b5b60006101bd84828501610184565b91505092915050565b6101cf8161026e565b82525050565b60006101e260128361025d565b91506101ed826102af565b602082019050919050565b610201816102a0565b82525050565b600060208201905061021c60008301846101c6565b92915050565b6000602082019050818103600083015261023b816101d5565b9050919050565b600060208201905061025760008301846101f8565b92915050565b600082825260208201905092915050565b600061027982610280565b9050919050565b600073ffffffffffffffffffffffffffffffffffffffff82169050919050565b6000819050919050565b600080fd5b7f4469646e27742073656e6420656e6f7567680000000000000000000000000000600082015250565b6102e1816102a0565b81146102ec57600080fd5b5056fea264697066735822122022d5f37a72f5e3e3a243f44fe925e63061ffc4e88836d3ac00c2d00308c64eab64736f6c63430008070033",
					"opcodes": "PUSH1 0x80 PUSH1 0x40 MSTORE PUSH1 0x2 PUSH1 0x0 SSTORE CALLVALUE DUP1 ISZERO PUSH2 0x15 JUMPI PUSH1 0x0 DUP1 REVERT JUMPDEST POP CALLER PUSH1 0x1 PUSH1 0x0 PUSH2 0x100 EXP DUP2 SLOAD DUP2 PUSH20 0xFFFFFFFFFFFFFFFFFFFFFFFFFFFFFFFFFFFFFFFF MUL NOT AND SWAP1 DUP4 PUSH20 0xFFFFFFFFFFFFFFFFFFFFFFFFFFFFFFFFFFFFFFFF AND MUL OR SWAP1 SSTORE POP PUSH2 0x325 DUP1 PUSH2 0x66 PUSH1 0x0 CODECOPY PUSH1 0x0 RETURN INVALID PUSH1 0x80 PUSH1 0x40 MSTORE PUSH1 0x4 CALLDATASIZE LT PUSH2 0x3F JUMPI PUSH1 0x0 CALLDATALOAD PUSH1 0xE0 SHR DUP1 PUSH4 0x3430A88C EQ PUSH2 0x44 JUMPI DUP1 PUSH4 0x8DA5CB5B EQ PUSH2 0x6F JUMPI DUP1 PUSH4 0xB046C540 EQ PUSH2 0x9A JUMPI DUP1 PUSH4 0xB60D4288 EQ PUSH2 0xC3 JUMPI JUMPDEST PUSH1 0x0 DUP1 REVERT JUMPDEST CALLVALUE DUP1 ISZERO PUSH2 0x50 JUMPI PUSH1 0x0 DUP1 REVERT JUMPDEST POP PUSH2 0x59 PUSH2 0xCD JUMP JUMPDEST PUSH1 0x40 MLOAD PUSH2 0x66 SWAP2 SWAP1 PUSH2 0x242 JUMP JUMPDEST PUSH1 0x40 MLOAD DUP1 SWAP2 SUB SWAP1 RETURN JUMPDEST CALLVALUE DUP1 ISZERO PUSH2 0x7B JUMPI PUSH1 0x0 DUP1 REVERT JUMPDEST POP PUSH2 0x84 PUSH2 0xD3 JUMP JUMPDEST PUSH1 0x40 MLOAD PUSH2 0x91 SWAP2 SWAP1 PUSH2 0x207 JUMP JUMPDEST PUSH1 0x40 MLOAD DUP1 SWAP2 SUB SWAP1 RETURN JUMPDEST CALLVALUE DUP1 ISZERO PUSH2 0xA6 JUMPI PUSH1 0x0 DUP1 REVERT JUMPDEST POP PUSH2 0xC1 PUSH1 0x4 DUP1 CALLDATASIZE SUB DUP2 ADD SWAP1 PUSH2 0xBC SWAP2 SWAP1 PUSH2 0x199 JUMP JUMPDEST PUSH2 0xF9 JUMP JUMPDEST STOP JUMPDEST PUSH2 0xCB PUSH2 0x13D JUMP JUMPDEST STOP JUMPDEST PUSH1 0x0 SLOAD DUP2 JUMP JUMPDEST PUSH1 0x1 PUSH1 0x0 SWAP1 SLOAD SWAP1 PUSH2 0x100 EXP SWAP1 DIV PUSH20 0xFFFFFFFFFFFFFFFFFFFFFFFFFFFFFFFFFFFFFFFF AND DUP2 JUMP JUMPDEST CALLER DUP1 PUSH20 0xFFFFFFFFFFFFFFFFFFFFFFFFFFFFFFFFFFFFFFFF AND CALLER PUSH20 0xFFFFFFFFFFFFFFFFFFFFFFFFFFFFFFFFFFFFFFFF AND EQ PUSH2 0x132 JUMPI PUSH1 0x0 DUP1 REVERT JUMPDEST DUP2 PUSH1 0x0 DUP2 SWAP1 SSTORE POP POP POP JUMP JUMPDEST PUSH1 0x0 SLOAD CALLVALUE LT ISZERO PUSH2 0x182 JUMPI PUSH1 0x40 MLOAD PUSH32 0x8C379A000000000000000000000000000000000000000000000000000000000 DUP2 MSTORE PUSH1 0x4 ADD PUSH2 0x179 SWAP1 PUSH2 0x222 JUMP JUMPDEST PUSH1 0x40 MLOAD DUP1 SWAP2 SUB SWAP1 REVERT JUMPDEST JUMP JUMPDEST PUSH1 0x0 DUP2 CALLDATALOAD SWAP1 POP PUSH2 0x193 DUP2 PUSH2 0x2D8 JUMP JUMPDEST SWAP3 SWAP2 POP POP JUMP JUMPDEST PUSH1 0x0 PUSH1 0x20 DUP3 DUP5 SUB SLT ISZERO PUSH2 0x1AF JUMPI PUSH2 0x1AE PUSH2 0x2AA JUMP JUMPDEST JUMPDEST PUSH1 0x0 PUSH2 0x1BD DUP5 DUP3 DUP6 ADD PUSH2 0x184 JUMP JUMPDEST SWAP2 POP POP SWAP3 SWAP2 POP POP JUMP JUMPDEST PUSH2 0x1CF DUP2 PUSH2 0x26E JUMP JUMPDEST DUP3 MSTORE POP POP JUMP JUMPDEST PUSH1 0x0 PUSH2 0x1E2 PUSH1 0x12 DUP4 PUSH2 0x25D JUMP JUMPDEST SWAP2 POP PUSH2 0x1ED DUP3 PUSH2 0x2AF JUMP JUMPDEST PUSH1 0x20 DUP3 ADD SWAP1 POP SWAP2 SWAP1 POP JUMP JUMPDEST PUSH2 0x201 DUP2 PUSH2 0x2A0 JUMP JUMPDEST DUP3 MSTORE POP POP JUMP JUMPDEST PUSH1 0x0 PUSH1 0x20 DUP3 ADD SWAP1 POP PUSH2 0x21C PUSH1 0x0 DUP4 ADD DUP5 PUSH2 0x1C6 JUMP JUMPDEST SWAP3 SWAP2 POP POP JUMP JUMPDEST PUSH1 0x0 PUSH1 0x20 DUP3 ADD SWAP1 POP DUP2 DUP2 SUB PUSH1 0x0 DUP4 ADD MSTORE PUSH2 0x23B DUP2 PUSH2 0x1D5 JUMP JUMPDEST SWAP1 POP SWAP2 SWAP1 POP JUMP JUMPDEST PUSH1 0x0 PUSH1 0x20 DUP3 ADD SWAP1 POP PUSH2 0x257 PUSH1 0x0 DUP4 ADD DUP5 PUSH2 0x1F8 JUMP JUMPDEST SWAP3 SWAP2 POP POP JUMP JUMPDEST PUSH1 0x0 DUP3 DUP3 MSTORE PUSH1 0x20 DUP3 ADD SWAP1 POP SWAP3 SWAP2 POP POP JUMP JUMPDEST PUSH1 0x0 PUSH2 0x279 DUP3 PUSH2 0x280 JUMP JUMPDEST SWAP1 POP SWAP2 SWAP1 POP JUMP JUMPDEST PUSH1 0x0 PUSH20 0xFFFFFFFFFFFFFFFFFFFFFFFFFFFFFFFFFFFFFFFF DUP3 AND SWAP1 POP SWAP2 SWAP1 POP JUMP JUMPDEST PUSH1 0x0 DUP2 SWAP1 POP SWAP2 SWAP1 POP JUMP JUMPDEST PUSH1 0x0 DUP1 REVERT JUMPDEST PUSH32 0x4469646E27742073656E6420656E6F7567680000000000000000000000000000 PUSH1 0x0 DUP3 ADD MSTORE POP JUMP JUMPDEST PUSH2 0x2E1 DUP2 PUSH2 0x2A0 JUMP JUMPDEST DUP2 EQ PUSH2 0x2EC JUMPI PUSH1 0x0 DUP1 REVERT JUMPDEST POP JUMP INVALID LOG2 PUSH5 0x6970667358 0x22 SLT KECCAK256 0x22 0xD5 RETURN PUSH27 0x72F5E3E3A243F44FE925E63061FFC4E88836D3AC00C2D00308C64E 0xAB PUSH5 0x736F6C6343 STOP ADDMOD SMOD STOP CALLER "
				},
				"gasEstimates": {
					"creation": {
						"codeDepositCost": "161000",
						"executionCost": "46580",
						"totalCost": "207580"
					},
					"external": {
						"fund()": "2578",
						"minimumUSD()": "2407",
						"owner()": "2514",
						"setMinimumUSD(uint256)": "22580"
					}
				},
				"methodIdentifiers": {
					"fund()": "b60d4288",
					"minimumUSD()": "3430a88c",
					"owner()": "8da5cb5b",
					"setMinimumUSD(uint256)": "b046c540"
				}
			},
			"storageLayout": {
				"storage": [
					{
						"astId": 4,
						"contract": "Contract  ^0.8.8/FundMe.sol:FundMe",
						"label": "minimumUSD",
						"offset": 0,
						"slot": "0",
						"type": "t_uint256"
					},
					{
						"astId": 6,
						"contract": "Contract  ^0.8.8/FundMe.sol:FundMe",
						"label": "owner",
						"offset": 0,
						"slot": "1",
						"type": "t_address"
					}
				],
				"types": {
					"t_address": {
						"encoding": "inplace",
						"label": "address",
						"numberOfBytes": "20"
					},
					"t_uint256": {
						"encoding": "inplace",
						"label": "uint256",
						"numberOfBytes": "32"
					}
				}
			},
			"userdoc": {
				"kind": "user",
				"methods": {},
				"version": 1
			}
		}
	}
}