{
	"Contract  ^0.8.8/CalculatorTester.sol": {
		"CalculatroTester": {
			"abi": [
				{
					"inputs": [],
					"name": "EthPrice",
					"outputs": [
						{
							"internalType": "uint256",
							"name": "",
							"type": "uint256"
						}
					],
					"stateMutability": "view",
					"type": "function"
				},
				{
					"inputs": [],
					"name": "decimals",
					"outputs": [
						{
							"internalType": "uint8",
							"name": "",
							"type": "uint8"
						}
					],
					"stateMutability": "view",
					"type": "function"
				},
				{
					"inputs": [],
					"name": "getEth",
					"outputs": [],
					"stateMutability": "nonpayable",
					"type": "function"
				},
				{
					"inputs": [],
					"name": "price",
					"outputs": [
						{
							"internalType": "int256",
							"name": "",
							"type": "int256"
						}
					],
					"stateMutability": "view",
					"type": "function"
				},
				{
					"inputs": [],
					"name": "restDecimals",
					"outputs": [
						{
							"internalType": "uint8",
							"name": "",
							"type": "uint8"
						}
					],
					"stateMutability": "view",
					"type": "function"
				},
				{
					"inputs": [
						{
							"internalType": "uint8",
							"name": "_val",
							"type": "uint8"
						}
					],
					"name": "setDecimals",
					"outputs": [],
					"stateMutability": "nonpayable",
					"type": "function"
				}
			],
			"devdoc": {
				"kind": "dev",
				"methods": {},
				"version": 1
			},
			"evm": {
				"assembly": "    /* \"Contract  ^0.8.8/CalculatorTester.sol\":56:480  contract CalculatroTester{... */\n  mstore(0x40, 0x80)\n    /* \"Contract  ^0.8.8/CalculatorTester.sol\":140:141  8 */\n  0x08\n    /* \"Contract  ^0.8.8/CalculatorTester.sol\":118:141  uint8 public decimals=8 */\n  0x01\n  exp(0x0100, 0x00)\n  dup2\n  sload\n  dup2\n  0xff\n  mul\n  not\n  and\n  swap1\n  dup4\n  0xff\n  and\n  mul\n  or\n  swap1\n  sstore\n  pop\n    /* \"Contract  ^0.8.8/CalculatorTester.sol\":167:179  188020801619 */\n  0x2bc6e9c053\n    /* \"Contract  ^0.8.8/CalculatorTester.sol\":147:179  int256 public price=188020801619 */\n  0x02\n  sstore\n    /* \"Contract  ^0.8.8/CalculatorTester.sol\":214:222  decimals */\n  0x01\n  0x00\n  swap1\n  sload\n  swap1\n  0x0100\n  exp\n  swap1\n  div\n  0xff\n  and\n    /* \"Contract  ^0.8.8/CalculatorTester.sol\":211:213  18 */\n  0x12\n    /* \"Contract  ^0.8.8/CalculatorTester.sol\":211:222  18-decimals */\n  tag_1\n  swap2\n  swap1\n  tag_2\n  jump\t// in\ntag_1:\n    /* \"Contract  ^0.8.8/CalculatorTester.sol\":185:222  uint8 public restDecimals=18-decimals */\n  0x03\n  exp(0x0100, 0x00)\n  dup2\n  sload\n  dup2\n  0xff\n  mul\n  not\n  and\n  swap1\n  dup4\n  0xff\n  and\n  mul\n  or\n  swap1\n  sstore\n  pop\n    /* \"Contract  ^0.8.8/CalculatorTester.sol\":56:480  contract CalculatroTester{... */\n  callvalue\n  dup1\n  iszero\n  tag_3\n  jumpi\n  0x00\n  dup1\n  revert\ntag_3:\n  pop\n  jump(tag_4)\n    /* \"#utility.yul\":7:93   */\ntag_5:\n    /* \"#utility.yul\":42:49   */\n  0x00\n    /* \"#utility.yul\":82:86   */\n  0xff\n    /* \"#utility.yul\":75:80   */\n  dup3\n    /* \"#utility.yul\":71:87   */\n  and\n    /* \"#utility.yul\":60:87   */\n  swap1\n  pop\n    /* \"#utility.yul\":7:93   */\n  swap2\n  swap1\n  pop\n  jump\t// out\n    /* \"#utility.yul\":99:279   */\ntag_6:\n    /* \"#utility.yul\":147:224   */\n  0x4e487b7100000000000000000000000000000000000000000000000000000000\n    /* \"#utility.yul\":144:145   */\n  0x00\n    /* \"#utility.yul\":137:225   */\n  mstore\n    /* \"#utility.yul\":244:248   */\n  0x11\n    /* \"#utility.yul\":241:242   */\n  0x04\n    /* \"#utility.yul\":234:249   */\n  mstore\n    /* \"#utility.yul\":268:272   */\n  0x24\n    /* \"#utility.yul\":265:266   */\n  0x00\n    /* \"#utility.yul\":258:273   */\n  revert\n    /* \"#utility.yul\":285:470   */\ntag_2:\n    /* \"#utility.yul\":323:327   */\n  0x00\n    /* \"#utility.yul\":343:361   */\n  tag_11\n    /* \"#utility.yul\":359:360   */\n  dup3\n    /* \"#utility.yul\":343:361   */\n  tag_5\n  jump\t// in\ntag_11:\n    /* \"#utility.yul\":338:361   */\n  swap2\n  pop\n    /* \"#utility.yul\":375:393   */\n  tag_12\n    /* \"#utility.yul\":391:392   */\n  dup4\n    /* \"#utility.yul\":375:393   */\n  tag_5\n  jump\t// in\ntag_12:\n    /* \"#utility.yul\":370:393   */\n  swap3\n  pop\n    /* \"#utility.yul\":412:413   */\n  dup3\n    /* \"#utility.yul\":409:410   */\n  dup3\n    /* \"#utility.yul\":406:414   */\n  lt\n    /* \"#utility.yul\":403:437   */\n  iszero\n  tag_13\n  jumpi\n    /* \"#utility.yul\":417:435   */\n  tag_14\n  tag_6\n  jump\t// in\ntag_14:\n    /* \"#utility.yul\":403:437   */\ntag_13:\n    /* \"#utility.yul\":462:463   */\n  dup3\n    /* \"#utility.yul\":459:460   */\n  dup3\n    /* \"#utility.yul\":455:464   */\n  sub\n    /* \"#utility.yul\":447:464   */\n  swap1\n  pop\n    /* \"#utility.yul\":285:470   */\n  swap3\n  swap2\n  pop\n  pop\n  jump\t// out\n    /* \"Contract  ^0.8.8/CalculatorTester.sol\":56:480  contract CalculatroTester{... */\ntag_4:\n  dataSize(sub_0)\n  dup1\n  dataOffset(sub_0)\n  0x00\n  codecopy\n  0x00\n  return\nstop\n\nsub_0: assembly {\n        /* \"Contract  ^0.8.8/CalculatorTester.sol\":56:480  contract CalculatroTester{... */\n      mstore(0x40, 0x80)\n      callvalue\n      dup1\n      iszero\n      tag_1\n      jumpi\n      0x00\n      dup1\n      revert\n    tag_1:\n      pop\n      jumpi(tag_2, lt(calldatasize, 0x04))\n      shr(0xe0, calldataload(0x00))\n      dup1\n      0x2cc812bc\n      eq\n      tag_3\n      jumpi\n      dup1\n      0x313ce567\n      eq\n      tag_4\n      jumpi\n      dup1\n      0x7a1395aa\n      eq\n      tag_5\n      jumpi\n      dup1\n      0xa035b1fe\n      eq\n      tag_6\n      jumpi\n      dup1\n      0xcb05b93e\n      eq\n      tag_7\n      jumpi\n      dup1\n      0xda42c16b\n      eq\n      tag_8\n      jumpi\n    tag_2:\n      0x00\n      dup1\n      revert\n        /* \"Contract  ^0.8.8/CalculatorTester.sol\":88:111  uint256 public EthPrice */\n    tag_3:\n      tag_9\n      tag_10\n      jump\t// in\n    tag_9:\n      mload(0x40)\n      tag_11\n      swap2\n      swap1\n      tag_12\n      jump\t// in\n    tag_11:\n      mload(0x40)\n      dup1\n      swap2\n      sub\n      swap1\n      return\n        /* \"Contract  ^0.8.8/CalculatorTester.sol\":118:141  uint8 public decimals=8 */\n    tag_4:\n      tag_13\n      tag_14\n      jump\t// in\n    tag_13:\n      mload(0x40)\n      tag_15\n      swap2\n      swap1\n      tag_16\n      jump\t// in\n    tag_15:\n      mload(0x40)\n      dup1\n      swap2\n      sub\n      swap1\n      return\n        /* \"Contract  ^0.8.8/CalculatorTester.sol\":229:328  function setDecimals(uint8 _val) public{... */\n    tag_5:\n      tag_17\n      0x04\n      dup1\n      calldatasize\n      sub\n      dup2\n      add\n      swap1\n      tag_18\n      swap2\n      swap1\n      tag_19\n      jump\t// in\n    tag_18:\n      tag_20\n      jump\t// in\n    tag_17:\n      stop\n        /* \"Contract  ^0.8.8/CalculatorTester.sol\":147:179  int256 public price=188020801619 */\n    tag_6:\n      tag_21\n      tag_22\n      jump\t// in\n    tag_21:\n      mload(0x40)\n      tag_23\n      swap2\n      swap1\n      tag_24\n      jump\t// in\n    tag_23:\n      mload(0x40)\n      dup1\n      swap2\n      sub\n      swap1\n      return\n        /* \"Contract  ^0.8.8/CalculatorTester.sol\":334:478  function getEth() public {... */\n    tag_7:\n      tag_25\n      tag_26\n      jump\t// in\n    tag_25:\n      stop\n        /* \"Contract  ^0.8.8/CalculatorTester.sol\":185:222  uint8 public restDecimals=18-decimals */\n    tag_8:\n      tag_27\n      tag_28\n      jump\t// in\n    tag_27:\n      mload(0x40)\n      tag_29\n      swap2\n      swap1\n      tag_16\n      jump\t// in\n    tag_29:\n      mload(0x40)\n      dup1\n      swap2\n      sub\n      swap1\n      return\n        /* \"Contract  ^0.8.8/CalculatorTester.sol\":88:111  uint256 public EthPrice */\n    tag_10:\n      sload(0x00)\n      dup2\n      jump\t// out\n        /* \"Contract  ^0.8.8/CalculatorTester.sol\":118:141  uint8 public decimals=8 */\n    tag_14:\n      0x01\n      0x00\n      swap1\n      sload\n      swap1\n      0x0100\n      exp\n      swap1\n      div\n      0xff\n      and\n      dup2\n      jump\t// out\n        /* \"Contract  ^0.8.8/CalculatorTester.sol\":229:328  function setDecimals(uint8 _val) public{... */\n    tag_20:\n        /* \"Contract  ^0.8.8/CalculatorTester.sol\":287:291  _val */\n      dup1\n        /* \"Contract  ^0.8.8/CalculatorTester.sol\":278:286  decimals */\n      0x01\n      0x00\n        /* \"Contract  ^0.8.8/CalculatorTester.sol\":278:291  decimals=_val */\n      0x0100\n      exp\n      dup2\n      sload\n      dup2\n      0xff\n      mul\n      not\n      and\n      swap1\n      dup4\n      0xff\n      and\n      mul\n      or\n      swap1\n      sstore\n      pop\n        /* \"Contract  ^0.8.8/CalculatorTester.sol\":317:321  _val */\n      dup1\n        /* \"Contract  ^0.8.8/CalculatorTester.sol\":314:316  18 */\n      0x12\n        /* \"Contract  ^0.8.8/CalculatorTester.sol\":314:321  18-_val */\n      tag_31\n      swap2\n      swap1\n      tag_32\n      jump\t// in\n    tag_31:\n        /* \"Contract  ^0.8.8/CalculatorTester.sol\":301:313  restDecimals */\n      0x03\n      0x00\n        /* \"Contract  ^0.8.8/CalculatorTester.sol\":301:321  restDecimals=18-_val */\n      0x0100\n      exp\n      dup2\n      sload\n      dup2\n      0xff\n      mul\n      not\n      and\n      swap1\n      dup4\n      0xff\n      and\n      mul\n      or\n      swap1\n      sstore\n      pop\n        /* \"Contract  ^0.8.8/CalculatorTester.sol\":229:328  function setDecimals(uint8 _val) public{... */\n      pop\n      jump\t// out\n        /* \"Contract  ^0.8.8/CalculatorTester.sol\":147:179  int256 public price=188020801619 */\n    tag_22:\n      sload(0x02)\n      dup2\n      jump\t// out\n        /* \"Contract  ^0.8.8/CalculatorTester.sol\":334:478  function getEth() public {... */\n    tag_26:\n        /* \"Contract  ^0.8.8/CalculatorTester.sol\":369:387  uint8 restDecimals */\n      0x00\n        /* \"Contract  ^0.8.8/CalculatorTester.sol\":393:401  decimals */\n      0x01\n      0x00\n      swap1\n      sload\n      swap1\n      0x0100\n      exp\n      swap1\n      div\n      0xff\n      and\n        /* \"Contract  ^0.8.8/CalculatorTester.sol\":390:392  18 */\n      0x12\n        /* \"Contract  ^0.8.8/CalculatorTester.sol\":390:401  18-decimals */\n      tag_34\n      swap2\n      swap1\n      tag_32\n      jump\t// in\n    tag_34:\n        /* \"Contract  ^0.8.8/CalculatorTester.sol\":369:401  uint8 restDecimals = 18-decimals */\n      swap1\n      pop\n        /* \"Contract  ^0.8.8/CalculatorTester.sol\":457:469  restDecimals */\n      dup1\n        /* \"Contract  ^0.8.8/CalculatorTester.sol\":454:455  1 */\n      0x01\n        /* \"Contract  ^0.8.8/CalculatorTester.sol\":454:469  1**restDecimals */\n      tag_35\n      swap2\n      swap1\n      tag_36\n      jump\t// in\n    tag_35:\n        /* \"Contract  ^0.8.8/CalculatorTester.sol\":437:442  price */\n      sload(0x02)\n        /* \"Contract  ^0.8.8/CalculatorTester.sol\":429:470  uint256(price) * uint256(1**restDecimals) */\n      tag_37\n      swap2\n      swap1\n      tag_38\n      jump\t// in\n    tag_37:\n        /* \"Contract  ^0.8.8/CalculatorTester.sol\":411:419  EthPrice */\n      0x00\n        /* \"Contract  ^0.8.8/CalculatorTester.sol\":411:471  EthPrice= uint256(uint256(price) * uint256(1**restDecimals)) */\n      dup2\n      swap1\n      sstore\n      pop\n        /* \"Contract  ^0.8.8/CalculatorTester.sol\":359:478  {... */\n      pop\n        /* \"Contract  ^0.8.8/CalculatorTester.sol\":334:478  function getEth() public {... */\n      jump\t// out\n        /* \"Contract  ^0.8.8/CalculatorTester.sol\":185:222  uint8 public restDecimals=18-decimals */\n    tag_28:\n      0x03\n      0x00\n      swap1\n      sload\n      swap1\n      0x0100\n      exp\n      swap1\n      div\n      0xff\n      and\n      dup2\n      jump\t// out\n        /* \"#utility.yul\":7:84   */\n    tag_39:\n        /* \"#utility.yul\":44:51   */\n      0x00\n        /* \"#utility.yul\":73:78   */\n      dup2\n        /* \"#utility.yul\":62:78   */\n      swap1\n      pop\n        /* \"#utility.yul\":7:84   */\n      swap2\n      swap1\n      pop\n      jump\t// out\n        /* \"#utility.yul\":90:208   */\n    tag_40:\n        /* \"#utility.yul\":177:201   */\n      tag_57\n        /* \"#utility.yul\":195:200   */\n      dup2\n        /* \"#utility.yul\":177:201   */\n      tag_39\n      jump\t// in\n    tag_57:\n        /* \"#utility.yul\":172:175   */\n      dup3\n        /* \"#utility.yul\":165:202   */\n      mstore\n        /* \"#utility.yul\":90:208   */\n      pop\n      pop\n      jump\t// out\n        /* \"#utility.yul\":214:436   */\n    tag_12:\n        /* \"#utility.yul\":307:311   */\n      0x00\n        /* \"#utility.yul\":345:347   */\n      0x20\n        /* \"#utility.yul\":334:343   */\n      dup3\n        /* \"#utility.yul\":330:348   */\n      add\n        /* \"#utility.yul\":322:348   */\n      swap1\n      pop\n        /* \"#utility.yul\":358:429   */\n      tag_59\n        /* \"#utility.yul\":426:427   */\n      0x00\n        /* \"#utility.yul\":415:424   */\n      dup4\n        /* \"#utility.yul\":411:428   */\n      add\n        /* \"#utility.yul\":402:408   */\n      dup5\n        /* \"#utility.yul\":358:429   */\n      tag_40\n      jump\t// in\n    tag_59:\n        /* \"#utility.yul\":214:436   */\n      swap3\n      swap2\n      pop\n      pop\n      jump\t// out\n        /* \"#utility.yul\":442:528   */\n    tag_41:\n        /* \"#utility.yul\":477:484   */\n      0x00\n        /* \"#utility.yul\":517:521   */\n      0xff\n        /* \"#utility.yul\":510:515   */\n      dup3\n        /* \"#utility.yul\":506:522   */\n      and\n        /* \"#utility.yul\":495:522   */\n      swap1\n      pop\n        /* \"#utility.yul\":442:528   */\n      swap2\n      swap1\n      pop\n      jump\t// out\n        /* \"#utility.yul\":534:646   */\n    tag_42:\n        /* \"#utility.yul\":617:639   */\n      tag_62\n        /* \"#utility.yul\":633:638   */\n      dup2\n        /* \"#utility.yul\":617:639   */\n      tag_41\n      jump\t// in\n    tag_62:\n        /* \"#utility.yul\":612:615   */\n      dup3\n        /* \"#utility.yul\":605:640   */\n      mstore\n        /* \"#utility.yul\":534:646   */\n      pop\n      pop\n      jump\t// out\n        /* \"#utility.yul\":652:866   */\n    tag_16:\n        /* \"#utility.yul\":741:745   */\n      0x00\n        /* \"#utility.yul\":779:781   */\n      0x20\n        /* \"#utility.yul\":768:777   */\n      dup3\n        /* \"#utility.yul\":764:782   */\n      add\n        /* \"#utility.yul\":756:782   */\n      swap1\n      pop\n        /* \"#utility.yul\":792:859   */\n      tag_64\n        /* \"#utility.yul\":856:857   */\n      0x00\n        /* \"#utility.yul\":845:854   */\n      dup4\n        /* \"#utility.yul\":841:858   */\n      add\n        /* \"#utility.yul\":832:838   */\n      dup5\n        /* \"#utility.yul\":792:859   */\n      tag_42\n      jump\t// in\n    tag_64:\n        /* \"#utility.yul\":652:866   */\n      swap3\n      swap2\n      pop\n      pop\n      jump\t// out\n        /* \"#utility.yul\":953:1070   */\n    tag_44:\n        /* \"#utility.yul\":1062:1063   */\n      0x00\n        /* \"#utility.yul\":1059:1060   */\n      dup1\n        /* \"#utility.yul\":1052:1064   */\n      revert\n        /* \"#utility.yul\":1199:1317   */\n    tag_46:\n        /* \"#utility.yul\":1270:1292   */\n      tag_69\n        /* \"#utility.yul\":1286:1291   */\n      dup2\n        /* \"#utility.yul\":1270:1292   */\n      tag_41\n      jump\t// in\n    tag_69:\n        /* \"#utility.yul\":1263:1268   */\n      dup2\n        /* \"#utility.yul\":1260:1293   */\n      eq\n        /* \"#utility.yul\":1250:1311   */\n      tag_70\n      jumpi\n        /* \"#utility.yul\":1307:1308   */\n      0x00\n        /* \"#utility.yul\":1304:1305   */\n      dup1\n        /* \"#utility.yul\":1297:1309   */\n      revert\n        /* \"#utility.yul\":1250:1311   */\n    tag_70:\n        /* \"#utility.yul\":1199:1317   */\n      pop\n      jump\t// out\n        /* \"#utility.yul\":1323:1458   */\n    tag_47:\n        /* \"#utility.yul\":1367:1372   */\n      0x00\n        /* \"#utility.yul\":1405:1411   */\n      dup2\n        /* \"#utility.yul\":1392:1412   */\n      calldataload\n        /* \"#utility.yul\":1383:1412   */\n      swap1\n      pop\n        /* \"#utility.yul\":1421:1452   */\n      tag_72\n        /* \"#utility.yul\":1446:1451   */\n      dup2\n        /* \"#utility.yul\":1421:1452   */\n      tag_46\n      jump\t// in\n    tag_72:\n        /* \"#utility.yul\":1323:1458   */\n      swap3\n      swap2\n      pop\n      pop\n      jump\t// out\n        /* \"#utility.yul\":1464:1789   */\n    tag_19:\n        /* \"#utility.yul\":1521:1527   */\n      0x00\n        /* \"#utility.yul\":1570:1572   */\n      0x20\n        /* \"#utility.yul\":1558:1567   */\n      dup3\n        /* \"#utility.yul\":1549:1556   */\n      dup5\n        /* \"#utility.yul\":1545:1568   */\n      sub\n        /* \"#utility.yul\":1541:1573   */\n      slt\n        /* \"#utility.yul\":1538:1657   */\n      iszero\n      tag_74\n      jumpi\n        /* \"#utility.yul\":1576:1655   */\n      tag_75\n      tag_44\n      jump\t// in\n    tag_75:\n        /* \"#utility.yul\":1538:1657   */\n    tag_74:\n        /* \"#utility.yul\":1696:1697   */\n      0x00\n        /* \"#utility.yul\":1721:1772   */\n      tag_76\n        /* \"#utility.yul\":1764:1771   */\n      dup5\n        /* \"#utility.yul\":1755:1761   */\n      dup3\n        /* \"#utility.yul\":1744:1753   */\n      dup6\n        /* \"#utility.yul\":1740:1762   */\n      add\n        /* \"#utility.yul\":1721:1772   */\n      tag_47\n      jump\t// in\n    tag_76:\n        /* \"#utility.yul\":1711:1772   */\n      swap2\n      pop\n        /* \"#utility.yul\":1667:1782   */\n      pop\n        /* \"#utility.yul\":1464:1789   */\n      swap3\n      swap2\n      pop\n      pop\n      jump\t// out\n        /* \"#utility.yul\":1795:1871   */\n    tag_48:\n        /* \"#utility.yul\":1831:1838   */\n      0x00\n        /* \"#utility.yul\":1860:1865   */\n      dup2\n        /* \"#utility.yul\":1849:1865   */\n      swap1\n      pop\n        /* \"#utility.yul\":1795:1871   */\n      swap2\n      swap1\n      pop\n      jump\t// out\n        /* \"#utility.yul\":1877:1992   */\n    tag_49:\n        /* \"#utility.yul\":1962:1985   */\n      tag_79\n        /* \"#utility.yul\":1979:1984   */\n      dup2\n        /* \"#utility.yul\":1962:1985   */\n      tag_48\n      jump\t// in\n    tag_79:\n        /* \"#utility.yul\":1957:1960   */\n      dup3\n        /* \"#utility.yul\":1950:1986   */\n      mstore\n        /* \"#utility.yul\":1877:1992   */\n      pop\n      pop\n      jump\t// out\n        /* \"#utility.yul\":1998:2216   */\n    tag_24:\n        /* \"#utility.yul\":2089:2093   */\n      0x00\n        /* \"#utility.yul\":2127:2129   */\n      0x20\n        /* \"#utility.yul\":2116:2125   */\n      dup3\n        /* \"#utility.yul\":2112:2130   */\n      add\n        /* \"#utility.yul\":2104:2130   */\n      swap1\n      pop\n        /* \"#utility.yul\":2140:2209   */\n      tag_81\n        /* \"#utility.yul\":2206:2207   */\n      0x00\n        /* \"#utility.yul\":2195:2204   */\n      dup4\n        /* \"#utility.yul\":2191:2208   */\n      add\n        /* \"#utility.yul\":2182:2188   */\n      dup5\n        /* \"#utility.yul\":2140:2209   */\n      tag_49\n      jump\t// in\n    tag_81:\n        /* \"#utility.yul\":1998:2216   */\n      swap3\n      swap2\n      pop\n      pop\n      jump\t// out\n        /* \"#utility.yul\":2222:2402   */\n    tag_50:\n        /* \"#utility.yul\":2270:2347   */\n      0x4e487b7100000000000000000000000000000000000000000000000000000000\n        /* \"#utility.yul\":2267:2268   */\n      0x00\n        /* \"#utility.yul\":2260:2348   */\n      mstore\n        /* \"#utility.yul\":2367:2371   */\n      0x11\n        /* \"#utility.yul\":2364:2365   */\n      0x04\n        /* \"#utility.yul\":2357:2372   */\n      mstore\n        /* \"#utility.yul\":2391:2395   */\n      0x24\n        /* \"#utility.yul\":2388:2389   */\n      0x00\n        /* \"#utility.yul\":2381:2396   */\n      revert\n        /* \"#utility.yul\":2408:2593   */\n    tag_32:\n        /* \"#utility.yul\":2446:2450   */\n      0x00\n        /* \"#utility.yul\":2466:2484   */\n      tag_84\n        /* \"#utility.yul\":2482:2483   */\n      dup3\n        /* \"#utility.yul\":2466:2484   */\n      tag_41\n      jump\t// in\n    tag_84:\n        /* \"#utility.yul\":2461:2484   */\n      swap2\n      pop\n        /* \"#utility.yul\":2498:2516   */\n      tag_85\n        /* \"#utility.yul\":2514:2515   */\n      dup4\n        /* \"#utility.yul\":2498:2516   */\n      tag_41\n      jump\t// in\n    tag_85:\n        /* \"#utility.yul\":2493:2516   */\n      swap3\n      pop\n        /* \"#utility.yul\":2535:2536   */\n      dup3\n        /* \"#utility.yul\":2532:2533   */\n      dup3\n        /* \"#utility.yul\":2529:2537   */\n      lt\n        /* \"#utility.yul\":2526:2560   */\n      iszero\n      tag_86\n      jumpi\n        /* \"#utility.yul\":2540:2558   */\n      tag_87\n      tag_50\n      jump\t// in\n    tag_87:\n        /* \"#utility.yul\":2526:2560   */\n    tag_86:\n        /* \"#utility.yul\":2585:2586   */\n      dup3\n        /* \"#utility.yul\":2582:2583   */\n      dup3\n        /* \"#utility.yul\":2578:2587   */\n      sub\n        /* \"#utility.yul\":2570:2587   */\n      swap1\n      pop\n        /* \"#utility.yul\":2408:2593   */\n      swap3\n      swap2\n      pop\n      pop\n      jump\t// out\n        /* \"#utility.yul\":2599:2701   */\n    tag_51:\n        /* \"#utility.yul\":2641:2649   */\n      0x00\n        /* \"#utility.yul\":2688:2693   */\n      dup2\n        /* \"#utility.yul\":2685:2686   */\n      0x01\n        /* \"#utility.yul\":2681:2694   */\n      shr\n        /* \"#utility.yul\":2660:2694   */\n      swap1\n      pop\n        /* \"#utility.yul\":2599:2701   */\n      swap2\n      swap1\n      pop\n      jump\t// out\n        /* \"#utility.yul\":2707:3555   */\n    tag_52:\n        /* \"#utility.yul\":2768:2773   */\n      0x00\n        /* \"#utility.yul\":2775:2779   */\n      dup1\n        /* \"#utility.yul\":2799:2805   */\n      dup3\n        /* \"#utility.yul\":2790:2805   */\n      swap2\n      pop\n        /* \"#utility.yul\":2823:2828   */\n      dup4\n        /* \"#utility.yul\":2814:2828   */\n      swap1\n      pop\n        /* \"#utility.yul\":2837:3549   */\n    tag_90:\n        /* \"#utility.yul\":2858:2859   */\n      0x01\n        /* \"#utility.yul\":2848:2856   */\n      dup6\n        /* \"#utility.yul\":2845:2860   */\n      gt\n        /* \"#utility.yul\":2837:3549   */\n      iszero\n      tag_92\n      jumpi\n        /* \"#utility.yul\":2953:2957   */\n      dup1\n        /* \"#utility.yul\":2948:2951   */\n      dup7\n        /* \"#utility.yul\":2944:2958   */\n      div\n        /* \"#utility.yul\":2938:2942   */\n      dup2\n        /* \"#utility.yul\":2935:2959   */\n      gt\n        /* \"#utility.yul\":2932:2982   */\n      iszero\n      tag_93\n      jumpi\n        /* \"#utility.yul\":2962:2980   */\n      tag_94\n      tag_50\n      jump\t// in\n    tag_94:\n        /* \"#utility.yul\":2932:2982   */\n    tag_93:\n        /* \"#utility.yul\":3012:3013   */\n      0x01\n        /* \"#utility.yul\":3002:3010   */\n      dup6\n        /* \"#utility.yul\":2998:3014   */\n      and\n        /* \"#utility.yul\":2995:3446   */\n      iszero\n      tag_95\n      jumpi\n        /* \"#utility.yul\":3427:3431   */\n      dup1\n        /* \"#utility.yul\":3420:3425   */\n      dup3\n        /* \"#utility.yul\":3416:3432   */\n      mul\n        /* \"#utility.yul\":3407:3432   */\n      swap2\n      pop\n        /* \"#utility.yul\":2995:3446   */\n    tag_95:\n        /* \"#utility.yul\":3477:3481   */\n      dup1\n        /* \"#utility.yul\":3471:3475   */\n      dup2\n        /* \"#utility.yul\":3467:3482   */\n      mul\n        /* \"#utility.yul\":3459:3482   */\n      swap1\n      pop\n        /* \"#utility.yul\":3507:3539   */\n      tag_96\n        /* \"#utility.yul\":3530:3538   */\n      dup6\n        /* \"#utility.yul\":3507:3539   */\n      tag_51\n      jump\t// in\n    tag_96:\n        /* \"#utility.yul\":3495:3539   */\n      swap5\n      pop\n        /* \"#utility.yul\":2837:3549   */\n      jump(tag_90)\n    tag_92:\n        /* \"#utility.yul\":2707:3555   */\n      swap5\n      pop\n      swap5\n      swap3\n      pop\n      pop\n      pop\n      jump\t// out\n        /* \"#utility.yul\":3561:4634   */\n    tag_53:\n        /* \"#utility.yul\":3615:3620   */\n      0x00\n        /* \"#utility.yul\":3806:3814   */\n      dup3\n        /* \"#utility.yul\":3796:3836   */\n      tag_98\n      jumpi\n        /* \"#utility.yul\":3827:3828   */\n      0x01\n        /* \"#utility.yul\":3818:3828   */\n      swap1\n      pop\n        /* \"#utility.yul\":3829:3834   */\n      jump(tag_97)\n        /* \"#utility.yul\":3796:3836   */\n    tag_98:\n        /* \"#utility.yul\":3855:3859   */\n      dup2\n        /* \"#utility.yul\":3845:3881   */\n      tag_99\n      jumpi\n        /* \"#utility.yul\":3872:3873   */\n      0x00\n        /* \"#utility.yul\":3863:3873   */\n      swap1\n      pop\n        /* \"#utility.yul\":3874:3879   */\n      jump(tag_97)\n        /* \"#utility.yul\":3845:3881   */\n    tag_99:\n        /* \"#utility.yul\":3941:3945   */\n      dup2\n        /* \"#utility.yul\":3989:3990   */\n      0x01\n        /* \"#utility.yul\":3984:4011   */\n      dup2\n      eq\n      tag_101\n      jumpi\n        /* \"#utility.yul\":4025:4026   */\n      0x02\n        /* \"#utility.yul\":4020:4211   */\n      dup2\n      eq\n      tag_102\n      jumpi\n        /* \"#utility.yul\":3934:4211   */\n      jump(tag_100)\n        /* \"#utility.yul\":3984:4011   */\n    tag_101:\n        /* \"#utility.yul\":4002:4003   */\n      0x01\n        /* \"#utility.yul\":3993:4003   */\n      swap2\n      pop\n        /* \"#utility.yul\":4004:4009   */\n      pop\n      jump(tag_97)\n        /* \"#utility.yul\":4020:4211   */\n    tag_102:\n        /* \"#utility.yul\":4065:4068   */\n      0xff\n        /* \"#utility.yul\":4055:4063   */\n      dup5\n        /* \"#utility.yul\":4052:4069   */\n      gt\n        /* \"#utility.yul\":4049:4092   */\n      iszero\n      tag_103\n      jumpi\n        /* \"#utility.yul\":4072:4090   */\n      tag_104\n      tag_50\n      jump\t// in\n    tag_104:\n        /* \"#utility.yul\":4049:4092   */\n    tag_103:\n        /* \"#utility.yul\":4121:4129   */\n      dup4\n        /* \"#utility.yul\":4118:4119   */\n      0x02\n        /* \"#utility.yul\":4114:4130   */\n      exp\n        /* \"#utility.yul\":4105:4130   */\n      swap2\n      pop\n        /* \"#utility.yul\":4156:4159   */\n      dup5\n        /* \"#utility.yul\":4149:4154   */\n      dup3\n        /* \"#utility.yul\":4146:4160   */\n      gt\n        /* \"#utility.yul\":4143:4183   */\n      iszero\n      tag_105\n      jumpi\n        /* \"#utility.yul\":4163:4181   */\n      tag_106\n      tag_50\n      jump\t// in\n    tag_106:\n        /* \"#utility.yul\":4143:4183   */\n    tag_105:\n        /* \"#utility.yul\":4196:4201   */\n      pop\n      jump(tag_97)\n        /* \"#utility.yul\":3934:4211   */\n    tag_100:\n      pop\n        /* \"#utility.yul\":4320:4322   */\n      0x20\n        /* \"#utility.yul\":4310:4318   */\n      dup4\n        /* \"#utility.yul\":4307:4323   */\n      lt\n        /* \"#utility.yul\":4301:4304   */\n      0x0133\n        /* \"#utility.yul\":4295:4299   */\n      dup4\n        /* \"#utility.yul\":4292:4305   */\n      lt\n        /* \"#utility.yul\":4288:4324   */\n      and\n        /* \"#utility.yul\":4270:4272   */\n      0x4e\n        /* \"#utility.yul\":4260:4268   */\n      dup5\n        /* \"#utility.yul\":4257:4273   */\n      lt\n        /* \"#utility.yul\":4252:4254   */\n      0x0b\n        /* \"#utility.yul\":4246:4250   */\n      dup5\n        /* \"#utility.yul\":4243:4255   */\n      lt\n        /* \"#utility.yul\":4239:4274   */\n      and\n        /* \"#utility.yul\":4223:4334   */\n      or\n        /* \"#utility.yul\":4220:4466   */\n      iszero\n      tag_107\n      jumpi\n        /* \"#utility.yul\":4376:4384   */\n      dup3\n        /* \"#utility.yul\":4370:4374   */\n      dup3\n        /* \"#utility.yul\":4366:4385   */\n      exp\n        /* \"#utility.yul\":4357:4385   */\n      swap1\n      pop\n        /* \"#utility.yul\":4411:4414   */\n      dup4\n        /* \"#utility.yul\":4404:4409   */\n      dup2\n        /* \"#utility.yul\":4401:4415   */\n      gt\n        /* \"#utility.yul\":4398:4438   */\n      iszero\n      tag_108\n      jumpi\n        /* \"#utility.yul\":4418:4436   */\n      tag_109\n      tag_50\n      jump\t// in\n    tag_109:\n        /* \"#utility.yul\":4398:4438   */\n    tag_108:\n        /* \"#utility.yul\":4451:4456   */\n      jump(tag_97)\n        /* \"#utility.yul\":4220:4466   */\n    tag_107:\n        /* \"#utility.yul\":4491:4533   */\n      tag_110\n        /* \"#utility.yul\":4529:4532   */\n      dup5\n        /* \"#utility.yul\":4519:4527   */\n      dup5\n        /* \"#utility.yul\":4513:4517   */\n      dup5\n        /* \"#utility.yul\":4510:4511   */\n      0x01\n        /* \"#utility.yul\":4491:4533   */\n      tag_52\n      jump\t// in\n    tag_110:\n        /* \"#utility.yul\":4476:4533   */\n      swap3\n      pop\n      swap1\n      pop\n        /* \"#utility.yul\":4565:4569   */\n      dup2\n        /* \"#utility.yul\":4560:4563   */\n      dup5\n        /* \"#utility.yul\":4556:4570   */\n      div\n        /* \"#utility.yul\":4549:4554   */\n      dup2\n        /* \"#utility.yul\":4546:4571   */\n      gt\n        /* \"#utility.yul\":4543:4594   */\n      iszero\n      tag_111\n      jumpi\n        /* \"#utility.yul\":4574:4592   */\n      tag_112\n      tag_50\n      jump\t// in\n    tag_112:\n        /* \"#utility.yul\":4543:4594   */\n    tag_111:\n        /* \"#utility.yul\":4623:4627   */\n      dup2\n        /* \"#utility.yul\":4616:4621   */\n      dup2\n        /* \"#utility.yul\":4612:4628   */\n      mul\n        /* \"#utility.yul\":4603:4628   */\n      swap1\n      pop\n        /* \"#utility.yul\":3561:4634   */\n    tag_97:\n      swap4\n      swap3\n      pop\n      pop\n      pop\n      jump\t// out\n        /* \"#utility.yul\":4640:4921   */\n    tag_36:\n        /* \"#utility.yul\":4698:4703   */\n      0x00\n        /* \"#utility.yul\":4722:4745   */\n      tag_114\n        /* \"#utility.yul\":4740:4744   */\n      dup3\n        /* \"#utility.yul\":4722:4745   */\n      tag_39\n      jump\t// in\n    tag_114:\n        /* \"#utility.yul\":4714:4745   */\n      swap2\n      pop\n        /* \"#utility.yul\":4766:4791   */\n      tag_115\n        /* \"#utility.yul\":4782:4790   */\n      dup4\n        /* \"#utility.yul\":4766:4791   */\n      tag_41\n      jump\t// in\n    tag_115:\n        /* \"#utility.yul\":4754:4791   */\n      swap3\n      pop\n        /* \"#utility.yul\":4810:4914   */\n      tag_116\n        /* \"#utility.yul\":4847:4913   */\n      0xffffffffffffffffffffffffffffffffffffffffffffffffffffffffffffffff\n        /* \"#utility.yul\":4837:4845   */\n      dup5\n        /* \"#utility.yul\":4831:4835   */\n      dup5\n        /* \"#utility.yul\":4810:4914   */\n      tag_53\n      jump\t// in\n    tag_116:\n        /* \"#utility.yul\":4801:4914   */\n      swap1\n      pop\n        /* \"#utility.yul\":4640:4921   */\n      swap3\n      swap2\n      pop\n      pop\n      jump\t// out\n        /* \"#utility.yul\":4927:5275   */\n    tag_38:\n        /* \"#utility.yul\":4967:4974   */\n      0x00\n        /* \"#utility.yul\":4990:5010   */\n      tag_118\n        /* \"#utility.yul\":5008:5009   */\n      dup3\n        /* \"#utility.yul\":4990:5010   */\n      tag_39\n      jump\t// in\n    tag_118:\n        /* \"#utility.yul\":4985:5010   */\n      swap2\n      pop\n        /* \"#utility.yul\":5024:5044   */\n      tag_119\n        /* \"#utility.yul\":5042:5043   */\n      dup4\n        /* \"#utility.yul\":5024:5044   */\n      tag_39\n      jump\t// in\n    tag_119:\n        /* \"#utility.yul\":5019:5044   */\n      swap3\n      pop\n        /* \"#utility.yul\":5212:5213   */\n      dup2\n        /* \"#utility.yul\":5144:5210   */\n      0xffffffffffffffffffffffffffffffffffffffffffffffffffffffffffffffff\n        /* \"#utility.yul\":5140:5214   */\n      div\n        /* \"#utility.yul\":5137:5138   */\n      dup4\n        /* \"#utility.yul\":5134:5215   */\n      gt\n        /* \"#utility.yul\":5129:5130   */\n      dup3\n        /* \"#utility.yul\":5122:5131   */\n      iszero\n        /* \"#utility.yul\":5115:5132   */\n      iszero\n        /* \"#utility.yul\":5111:5216   */\n      and\n        /* \"#utility.yul\":5108:5239   */\n      iszero\n      tag_120\n      jumpi\n        /* \"#utility.yul\":5219:5237   */\n      tag_121\n      tag_50\n      jump\t// in\n    tag_121:\n        /* \"#utility.yul\":5108:5239   */\n    tag_120:\n        /* \"#utility.yul\":5267:5268   */\n      dup3\n        /* \"#utility.yul\":5264:5265   */\n      dup3\n        /* \"#utility.yul\":5260:5269   */\n      mul\n        /* \"#utility.yul\":5249:5269   */\n      swap1\n      pop\n        /* \"#utility.yul\":4927:5275   */\n      swap3\n      swap2\n      pop\n      pop\n      jump\t// out\n\n    auxdata: 0xa2646970667358221220c43dd0ea26a546a58d08ee61ac96874512e041c574c36092aaa4d9475d198adb64736f6c63430008080033\n}\n",
				"bytecode": {
					"linkReferences": {},
					"object": "60806040526008600160006101000a81548160ff021916908360ff160217905550642bc6e9c053600255600160009054906101000a900460ff16601261004591906100ad565b600360006101000a81548160ff021916908360ff16021790555034801561006b57600080fd5b506100e1565b600060ff82169050919050565b7f4e487b7100000000000000000000000000000000000000000000000000000000600052601160045260246000fd5b60006100b882610071565b91506100c383610071565b9250828210156100d6576100d561007e565b5b828203905092915050565b61052d806100f06000396000f3fe608060405234801561001057600080fd5b50600436106100625760003560e01c80632cc812bc14610067578063313ce567146100855780637a1395aa146100a3578063a035b1fe146100bf578063cb05b93e146100dd578063da42c16b146100e7575b600080fd5b61006f610105565b60405161007c91906101d8565b60405180910390f35b61008d61010b565b60405161009a919061020f565b60405180910390f35b6100bd60048036038101906100b8919061025b565b61011e565b005b6100c7610163565b6040516100d491906102a1565b60405180910390f35b6100e5610169565b005b6100ef6101ac565b6040516100fc919061020f565b60405180910390f35b60005481565b600160009054906101000a900460ff1681565b80600160006101000a81548160ff021916908360ff16021790555080601261014691906102eb565b600360006101000a81548160ff021916908360ff16021790555050565b60025481565b6000600160009054906101000a900460ff16601261018791906102eb565b90508060016101969190610452565b6002546101a3919061049d565b60008190555050565b600360009054906101000a900460ff1681565b6000819050919050565b6101d2816101bf565b82525050565b60006020820190506101ed60008301846101c9565b92915050565b600060ff82169050919050565b610209816101f3565b82525050565b60006020820190506102246000830184610200565b92915050565b600080fd5b610238816101f3565b811461024357600080fd5b50565b6000813590506102558161022f565b92915050565b6000602082840312156102715761027061022a565b5b600061027f84828501610246565b91505092915050565b6000819050919050565b61029b81610288565b82525050565b60006020820190506102b66000830184610292565b92915050565b7f4e487b7100000000000000000000000000000000000000000000000000000000600052601160045260246000fd5b60006102f6826101f3565b9150610301836101f3565b925082821015610314576103136102bc565b5b828203905092915050565b60008160011c9050919050565b6000808291508390505b600185111561037657808604811115610352576103516102bc565b5b60018516156103615780820291505b808102905061036f8561031f565b9450610336565b94509492505050565b60008261038f576001905061044b565b8161039d576000905061044b565b81600181146103b357600281146103bd576103ec565b600191505061044b565b60ff8411156103cf576103ce6102bc565b5b8360020a9150848211156103e6576103e56102bc565b5b5061044b565b5060208310610133831016604e8410600b84101617156104215782820a90508381111561041c5761041b6102bc565b5b61044b565b61042e848484600161032c565b92509050818404811115610445576104446102bc565b5b81810290505b9392505050565b600061045d826101bf565b9150610468836101f3565b92506104957fffffffffffffffffffffffffffffffffffffffffffffffffffffffffffffffff848461037f565b905092915050565b60006104a8826101bf565b91506104b3836101bf565b9250817fffffffffffffffffffffffffffffffffffffffffffffffffffffffffffffffff04831182151516156104ec576104eb6102bc565b5b82820290509291505056fea2646970667358221220c43dd0ea26a546a58d08ee61ac96874512e041c574c36092aaa4d9475d198adb64736f6c63430008080033",
					"opcodes": "PUSH1 0x80 PUSH1 0x40 MSTORE PUSH1 0x8 PUSH1 0x1 PUSH1 0x0 PUSH2 0x100 EXP DUP2 SLOAD DUP2 PUSH1 0xFF MUL NOT AND SWAP1 DUP4 PUSH1 0xFF AND MUL OR SWAP1 SSTORE POP PUSH5 0x2BC6E9C053 PUSH1 0x2 SSTORE PUSH1 0x1 PUSH1 0x0 SWAP1 SLOAD SWAP1 PUSH2 0x100 EXP SWAP1 DIV PUSH1 0xFF AND PUSH1 0x12 PUSH2 0x45 SWAP2 SWAP1 PUSH2 0xAD JUMP JUMPDEST PUSH1 0x3 PUSH1 0x0 PUSH2 0x100 EXP DUP2 SLOAD DUP2 PUSH1 0xFF MUL NOT AND SWAP1 DUP4 PUSH1 0xFF AND MUL OR SWAP1 SSTORE POP CALLVALUE DUP1 ISZERO PUSH2 0x6B JUMPI PUSH1 0x0 DUP1 REVERT JUMPDEST POP PUSH2 0xE1 JUMP JUMPDEST PUSH1 0x0 PUSH1 0xFF DUP3 AND SWAP1 POP SWAP2 SWAP1 POP JUMP JUMPDEST PUSH32 0x4E487B7100000000000000000000000000000000000000000000000000000000 PUSH1 0x0 MSTORE PUSH1 0x11 PUSH1 0x4 MSTORE PUSH1 0x24 PUSH1 0x0 REVERT JUMPDEST PUSH1 0x0 PUSH2 0xB8 DUP3 PUSH2 0x71 JUMP JUMPDEST SWAP2 POP PUSH2 0xC3 DUP4 PUSH2 0x71 JUMP JUMPDEST SWAP3 POP DUP3 DUP3 LT ISZERO PUSH2 0xD6 JUMPI PUSH2 0xD5 PUSH2 0x7E JUMP JUMPDEST JUMPDEST DUP3 DUP3 SUB SWAP1 POP SWAP3 SWAP2 POP POP JUMP JUMPDEST PUSH2 0x52D DUP1 PUSH2 0xF0 PUSH1 0x0 CODECOPY PUSH1 0x0 RETURN INVALID PUSH1 0x80 PUSH1 0x40 MSTORE CALLVALUE DUP1 ISZERO PUSH2 0x10 JUMPI PUSH1 0x0 DUP1 REVERT JUMPDEST POP PUSH1 0x4 CALLDATASIZE LT PUSH2 0x62 JUMPI PUSH1 0x0 CALLDATALOAD PUSH1 0xE0 SHR DUP1 PUSH4 0x2CC812BC EQ PUSH2 0x67 JUMPI DUP1 PUSH4 0x313CE567 EQ PUSH2 0x85 JUMPI DUP1 PUSH4 0x7A1395AA EQ PUSH2 0xA3 JUMPI DUP1 PUSH4 0xA035B1FE EQ PUSH2 0xBF JUMPI DUP1 PUSH4 0xCB05B93E EQ PUSH2 0xDD JUMPI DUP1 PUSH4 0xDA42C16B EQ PUSH2 0xE7 JUMPI JUMPDEST PUSH1 0x0 DUP1 REVERT JUMPDEST PUSH2 0x6F PUSH2 0x105 JUMP JUMPDEST PUSH1 0x40 MLOAD PUSH2 0x7C SWAP2 SWAP1 PUSH2 0x1D8 JUMP JUMPDEST PUSH1 0x40 MLOAD DUP1 SWAP2 SUB SWAP1 RETURN JUMPDEST PUSH2 0x8D PUSH2 0x10B JUMP JUMPDEST PUSH1 0x40 MLOAD PUSH2 0x9A SWAP2 SWAP1 PUSH2 0x20F JUMP JUMPDEST PUSH1 0x40 MLOAD DUP1 SWAP2 SUB SWAP1 RETURN JUMPDEST PUSH2 0xBD PUSH1 0x4 DUP1 CALLDATASIZE SUB DUP2 ADD SWAP1 PUSH2 0xB8 SWAP2 SWAP1 PUSH2 0x25B JUMP JUMPDEST PUSH2 0x11E JUMP JUMPDEST STOP JUMPDEST PUSH2 0xC7 PUSH2 0x163 JUMP JUMPDEST PUSH1 0x40 MLOAD PUSH2 0xD4 SWAP2 SWAP1 PUSH2 0x2A1 JUMP JUMPDEST PUSH1 0x40 MLOAD DUP1 SWAP2 SUB SWAP1 RETURN JUMPDEST PUSH2 0xE5 PUSH2 0x169 JUMP JUMPDEST STOP JUMPDEST PUSH2 0xEF PUSH2 0x1AC JUMP JUMPDEST PUSH1 0x40 MLOAD PUSH2 0xFC SWAP2 SWAP1 PUSH2 0x20F JUMP JUMPDEST PUSH1 0x40 MLOAD DUP1 SWAP2 SUB SWAP1 RETURN JUMPDEST PUSH1 0x0 SLOAD DUP2 JUMP JUMPDEST PUSH1 0x1 PUSH1 0x0 SWAP1 SLOAD SWAP1 PUSH2 0x100 EXP SWAP1 DIV PUSH1 0xFF AND DUP2 JUMP JUMPDEST DUP1 PUSH1 0x1 PUSH1 0x0 PUSH2 0x100 EXP DUP2 SLOAD DUP2 PUSH1 0xFF MUL NOT AND SWAP1 DUP4 PUSH1 0xFF AND MUL OR SWAP1 SSTORE POP DUP1 PUSH1 0x12 PUSH2 0x146 SWAP2 SWAP1 PUSH2 0x2EB JUMP JUMPDEST PUSH1 0x3 PUSH1 0x0 PUSH2 0x100 EXP DUP2 SLOAD DUP2 PUSH1 0xFF MUL NOT AND SWAP1 DUP4 PUSH1 0xFF AND MUL OR SWAP1 SSTORE POP POP JUMP JUMPDEST PUSH1 0x2 SLOAD DUP2 JUMP JUMPDEST PUSH1 0x0 PUSH1 0x1 PUSH1 0x0 SWAP1 SLOAD SWAP1 PUSH2 0x100 EXP SWAP1 DIV PUSH1 0xFF AND PUSH1 0x12 PUSH2 0x187 SWAP2 SWAP1 PUSH2 0x2EB JUMP JUMPDEST SWAP1 POP DUP1 PUSH1 0x1 PUSH2 0x196 SWAP2 SWAP1 PUSH2 0x452 JUMP JUMPDEST PUSH1 0x2 SLOAD PUSH2 0x1A3 SWAP2 SWAP1 PUSH2 0x49D JUMP JUMPDEST PUSH1 0x0 DUP2 SWAP1 SSTORE POP POP JUMP JUMPDEST PUSH1 0x3 PUSH1 0x0 SWAP1 SLOAD SWAP1 PUSH2 0x100 EXP SWAP1 DIV PUSH1 0xFF AND DUP2 JUMP JUMPDEST PUSH1 0x0 DUP2 SWAP1 POP SWAP2 SWAP1 POP JUMP JUMPDEST PUSH2 0x1D2 DUP2 PUSH2 0x1BF JUMP JUMPDEST DUP3 MSTORE POP POP JUMP JUMPDEST PUSH1 0x0 PUSH1 0x20 DUP3 ADD SWAP1 POP PUSH2 0x1ED PUSH1 0x0 DUP4 ADD DUP5 PUSH2 0x1C9 JUMP JUMPDEST SWAP3 SWAP2 POP POP JUMP JUMPDEST PUSH1 0x0 PUSH1 0xFF DUP3 AND SWAP1 POP SWAP2 SWAP1 POP JUMP JUMPDEST PUSH2 0x209 DUP2 PUSH2 0x1F3 JUMP JUMPDEST DUP3 MSTORE POP POP JUMP JUMPDEST PUSH1 0x0 PUSH1 0x20 DUP3 ADD SWAP1 POP PUSH2 0x224 PUSH1 0x0 DUP4 ADD DUP5 PUSH2 0x200 JUMP JUMPDEST SWAP3 SWAP2 POP POP JUMP JUMPDEST PUSH1 0x0 DUP1 REVERT JUMPDEST PUSH2 0x238 DUP2 PUSH2 0x1F3 JUMP JUMPDEST DUP2 EQ PUSH2 0x243 JUMPI PUSH1 0x0 DUP1 REVERT JUMPDEST POP JUMP JUMPDEST PUSH1 0x0 DUP2 CALLDATALOAD SWAP1 POP PUSH2 0x255 DUP2 PUSH2 0x22F JUMP JUMPDEST SWAP3 SWAP2 POP POP JUMP JUMPDEST PUSH1 0x0 PUSH1 0x20 DUP3 DUP5 SUB SLT ISZERO PUSH2 0x271 JUMPI PUSH2 0x270 PUSH2 0x22A JUMP JUMPDEST JUMPDEST PUSH1 0x0 PUSH2 0x27F DUP5 DUP3 DUP6 ADD PUSH2 0x246 JUMP JUMPDEST SWAP2 POP POP SWAP3 SWAP2 POP POP JUMP JUMPDEST PUSH1 0x0 DUP2 SWAP1 POP SWAP2 SWAP1 POP JUMP JUMPDEST PUSH2 0x29B DUP2 PUSH2 0x288 JUMP JUMPDEST DUP3 MSTORE POP POP JUMP JUMPDEST PUSH1 0x0 PUSH1 0x20 DUP3 ADD SWAP1 POP PUSH2 0x2B6 PUSH1 0x0 DUP4 ADD DUP5 PUSH2 0x292 JUMP JUMPDEST SWAP3 SWAP2 POP POP JUMP JUMPDEST PUSH32 0x4E487B7100000000000000000000000000000000000000000000000000000000 PUSH1 0x0 MSTORE PUSH1 0x11 PUSH1 0x4 MSTORE PUSH1 0x24 PUSH1 0x0 REVERT JUMPDEST PUSH1 0x0 PUSH2 0x2F6 DUP3 PUSH2 0x1F3 JUMP JUMPDEST SWAP2 POP PUSH2 0x301 DUP4 PUSH2 0x1F3 JUMP JUMPDEST SWAP3 POP DUP3 DUP3 LT ISZERO PUSH2 0x314 JUMPI PUSH2 0x313 PUSH2 0x2BC JUMP JUMPDEST JUMPDEST DUP3 DUP3 SUB SWAP1 POP SWAP3 SWAP2 POP POP JUMP JUMPDEST PUSH1 0x0 DUP2 PUSH1 0x1 SHR SWAP1 POP SWAP2 SWAP1 POP JUMP JUMPDEST PUSH1 0x0 DUP1 DUP3 SWAP2 POP DUP4 SWAP1 POP JUMPDEST PUSH1 0x1 DUP6 GT ISZERO PUSH2 0x376 JUMPI DUP1 DUP7 DIV DUP2 GT ISZERO PUSH2 0x352 JUMPI PUSH2 0x351 PUSH2 0x2BC JUMP JUMPDEST JUMPDEST PUSH1 0x1 DUP6 AND ISZERO PUSH2 0x361 JUMPI DUP1 DUP3 MUL SWAP2 POP JUMPDEST DUP1 DUP2 MUL SWAP1 POP PUSH2 0x36F DUP6 PUSH2 0x31F JUMP JUMPDEST SWAP5 POP PUSH2 0x336 JUMP JUMPDEST SWAP5 POP SWAP5 SWAP3 POP POP POP JUMP JUMPDEST PUSH1 0x0 DUP3 PUSH2 0x38F JUMPI PUSH1 0x1 SWAP1 POP PUSH2 0x44B JUMP JUMPDEST DUP2 PUSH2 0x39D JUMPI PUSH1 0x0 SWAP1 POP PUSH2 0x44B JUMP JUMPDEST DUP2 PUSH1 0x1 DUP2 EQ PUSH2 0x3B3 JUMPI PUSH1 0x2 DUP2 EQ PUSH2 0x3BD JUMPI PUSH2 0x3EC JUMP JUMPDEST PUSH1 0x1 SWAP2 POP POP PUSH2 0x44B JUMP JUMPDEST PUSH1 0xFF DUP5 GT ISZERO PUSH2 0x3CF JUMPI PUSH2 0x3CE PUSH2 0x2BC JUMP JUMPDEST JUMPDEST DUP4 PUSH1 0x2 EXP SWAP2 POP DUP5 DUP3 GT ISZERO PUSH2 0x3E6 JUMPI PUSH2 0x3E5 PUSH2 0x2BC JUMP JUMPDEST JUMPDEST POP PUSH2 0x44B JUMP JUMPDEST POP PUSH1 0x20 DUP4 LT PUSH2 0x133 DUP4 LT AND PUSH1 0x4E DUP5 LT PUSH1 0xB DUP5 LT AND OR ISZERO PUSH2 0x421 JUMPI DUP3 DUP3 EXP SWAP1 POP DUP4 DUP2 GT ISZERO PUSH2 0x41C JUMPI PUSH2 0x41B PUSH2 0x2BC JUMP JUMPDEST JUMPDEST PUSH2 0x44B JUMP JUMPDEST PUSH2 0x42E DUP5 DUP5 DUP5 PUSH1 0x1 PUSH2 0x32C JUMP JUMPDEST SWAP3 POP SWAP1 POP DUP2 DUP5 DIV DUP2 GT ISZERO PUSH2 0x445 JUMPI PUSH2 0x444 PUSH2 0x2BC JUMP JUMPDEST JUMPDEST DUP2 DUP2 MUL SWAP1 POP JUMPDEST SWAP4 SWAP3 POP POP POP JUMP JUMPDEST PUSH1 0x0 PUSH2 0x45D DUP3 PUSH2 0x1BF JUMP JUMPDEST SWAP2 POP PUSH2 0x468 DUP4 PUSH2 0x1F3 JUMP JUMPDEST SWAP3 POP PUSH2 0x495 PUSH32 0xFFFFFFFFFFFFFFFFFFFFFFFFFFFFFFFFFFFFFFFFFFFFFFFFFFFFFFFFFFFFFFFF DUP5 DUP5 PUSH2 0x37F JUMP JUMPDEST SWAP1 POP SWAP3 SWAP2 POP POP JUMP JUMPDEST PUSH1 0x0 PUSH2 0x4A8 DUP3 PUSH2 0x1BF JUMP JUMPDEST SWAP2 POP PUSH2 0x4B3 DUP4 PUSH2 0x1BF JUMP JUMPDEST SWAP3 POP DUP2 PUSH32 0xFFFFFFFFFFFFFFFFFFFFFFFFFFFFFFFFFFFFFFFFFFFFFFFFFFFFFFFFFFFFFFFF DIV DUP4 GT DUP3 ISZERO ISZERO AND ISZERO PUSH2 0x4EC JUMPI PUSH2 0x4EB PUSH2 0x2BC JUMP JUMPDEST JUMPDEST DUP3 DUP3 MUL SWAP1 POP SWAP3 SWAP2 POP POP JUMP INVALID LOG2 PUSH5 0x6970667358 0x22 SLT KECCAK256 0xC4 RETURNDATASIZE 0xD0 0xEA 0x26 0xA5 CHAINID 0xA5 DUP14 ADDMOD 0xEE PUSH2 0xAC96 DUP8 GASLIMIT SLT 0xE0 COINBASE 0xC5 PUSH21 0xC36092AAA4D9475D198ADB64736F6C634300080800 CALLER "
				},
				"gasEstimates": {
					"creation": {
						"codeDepositCost": "265000",
						"executionCost": "infinite",
						"totalCost": "infinite"
					},
					"external": {
						"EthPrice()": "2407",
						"decimals()": "2471",
						"getEth()": "infinite",
						"price()": "2473",
						"restDecimals()": "2559",
						"setDecimals(uint8)": "infinite"
					}
				},
				"methodIdentifiers": {
					"EthPrice()": "2cc812bc",
					"decimals()": "313ce567",
					"getEth()": "cb05b93e",
					"price()": "a035b1fe",
					"restDecimals()": "da42c16b",
					"setDecimals(uint8)": "7a1395aa"
				}
			},
			"storageLayout": {
				"storage": [
					{
						"astId": 3,
						"contract": "Contract  ^0.8.8/CalculatorTester.sol:CalculatroTester",
						"label": "EthPrice",
						"offset": 0,
						"slot": "0",
						"type": "t_uint256"
					},
					{
						"astId": 6,
						"contract": "Contract  ^0.8.8/CalculatorTester.sol:CalculatroTester",
						"label": "decimals",
						"offset": 0,
						"slot": "1",
						"type": "t_uint8"
					},
					{
						"astId": 9,
						"contract": "Contract  ^0.8.8/CalculatorTester.sol:CalculatroTester",
						"label": "price",
						"offset": 0,
						"slot": "2",
						"type": "t_int256"
					},
					{
						"astId": 14,
						"contract": "Contract  ^0.8.8/CalculatorTester.sol:CalculatroTester",
						"label": "restDecimals",
						"offset": 0,
						"slot": "3",
						"type": "t_uint8"
					}
				],
				"types": {
					"t_int256": {
						"encoding": "inplace",
						"label": "int256",
						"numberOfBytes": "32"
					},
					"t_uint256": {
						"encoding": "inplace",
						"label": "uint256",
						"numberOfBytes": "32"
					},
					"t_uint8": {
						"encoding": "inplace",
						"label": "uint8",
						"numberOfBytes": "1"
					}
				}
			},
			"userdoc": {
				"kind": "user",
				"methods": {},
				"version": 1
			}
		}
	}
}