{
	"Contract  ^0.8.8/FundMe.sol": {
		"FundMe": {
			"abi": [
				{
					"inputs": [],
					"stateMutability": "nonpayable",
					"type": "constructor"
				},
				{
					"inputs": [],
					"name": "fund",
					"outputs": [],
					"stateMutability": "payable",
					"type": "function"
				},
				{
					"inputs": [],
					"name": "getConversionRate",
					"outputs": [],
					"stateMutability": "nonpayable",
					"type": "function"
				},
				{
					"inputs": [],
					"name": "getPrice",
					"outputs": [],
					"stateMutability": "nonpayable",
					"type": "function"
				},
				{
					"inputs": [],
					"name": "minimumUSD",
					"outputs": [
						{
							"internalType": "uint256",
							"name": "",
							"type": "uint256"
						}
					],
					"stateMutability": "view",
					"type": "function"
				},
				{
					"inputs": [],
					"name": "owner",
					"outputs": [
						{
							"internalType": "address",
							"name": "",
							"type": "address"
						}
					],
					"stateMutability": "view",
					"type": "function"
				},
				{
					"inputs": [],
					"name": "priceFeed",
					"outputs": [
						{
							"internalType": "contract AggregatorV3Interface",
							"name": "",
							"type": "address"
						}
					],
					"stateMutability": "view",
					"type": "function"
				},
				{
					"inputs": [
						{
							"internalType": "uint256",
							"name": "_val",
							"type": "uint256"
						}
					],
					"name": "setMinimumUSD",
					"outputs": [],
					"stateMutability": "nonpayable",
					"type": "function"
				}
			],
			"devdoc": {
				"kind": "dev",
				"methods": {},
				"version": 1
			},
			"evm": {
				"assembly": "    /* \"Contract  ^0.8.8/FundMe.sol\":133:1687  contract FundMe{... */\n  mstore(0x40, 0x80)\n    /* \"Contract  ^0.8.8/FundMe.sol\":347:348  2 */\n  0x02\n    /* \"Contract  ^0.8.8/FundMe.sol\":319:348  uint256 public minimumUSD = 2 */\n  0x00\n  sstore\n    /* \"Contract  ^0.8.8/FundMe.sol\":583:719  constructor (){... */\n  callvalue\n  dup1\n  iszero\n  tag_1\n  jumpi\n  0x00\n  dup1\n  revert\ntag_1:\n  pop\n    /* \"Contract  ^0.8.8/FundMe.sol\":615:625  msg.sender */\n  caller\n    /* \"Contract  ^0.8.8/FundMe.sol\":607:612  owner */\n  0x01\n  0x00\n    /* \"Contract  ^0.8.8/FundMe.sol\":607:625  owner = msg.sender */\n  0x0100\n  exp\n  dup2\n  sload\n  dup2\n  0xffffffffffffffffffffffffffffffffffffffff\n  mul\n  not\n  and\n  swap1\n  dup4\n  0xffffffffffffffffffffffffffffffffffffffff\n  and\n  mul\n  or\n  swap1\n  sstore\n  pop\n    /* \"Contract  ^0.8.8/FundMe.sol\":669:711  0x8A753747A1Fa494EC906cE90E9f37563A8AF630e */\n  0x8a753747a1fa494ec906ce90e9f37563a8af630e\n    /* \"Contract  ^0.8.8/FundMe.sol\":635:644  priceFeed */\n  0x02\n  0x00\n    /* \"Contract  ^0.8.8/FundMe.sol\":635:712  priceFeed = AggregatorV3Interface(0x8A753747A1Fa494EC906cE90E9f37563A8AF630e) */\n  0x0100\n  exp\n  dup2\n  sload\n  dup2\n  0xffffffffffffffffffffffffffffffffffffffff\n  mul\n  not\n  and\n  swap1\n  dup4\n  0xffffffffffffffffffffffffffffffffffffffff\n  and\n  mul\n  or\n  swap1\n  sstore\n  pop\n    /* \"Contract  ^0.8.8/FundMe.sol\":133:1687  contract FundMe{... */\n  dataSize(sub_0)\n  dup1\n  dataOffset(sub_0)\n  0x00\n  codecopy\n  0x00\n  return\nstop\n\nsub_0: assembly {\n        /* \"Contract  ^0.8.8/FundMe.sol\":133:1687  contract FundMe{... */\n      mstore(0x40, 0x80)\n      jumpi(tag_1, lt(calldatasize, 0x04))\n      shr(0xe0, calldataload(0x00))\n      dup1\n      0x98d5fdca\n      gt\n      tag_9\n      jumpi\n      dup1\n      0x98d5fdca\n      eq\n      tag_5\n      jumpi\n      dup1\n      0xb046c540\n      eq\n      tag_6\n      jumpi\n      dup1\n      0xb60d4288\n      eq\n      tag_7\n      jumpi\n      dup1\n      0xf36089ec\n      eq\n      tag_8\n      jumpi\n      jump(tag_1)\n    tag_9:\n      dup1\n      0x3430a88c\n      eq\n      tag_2\n      jumpi\n      dup1\n      0x741bef1a\n      eq\n      tag_3\n      jumpi\n      dup1\n      0x8da5cb5b\n      eq\n      tag_4\n      jumpi\n    tag_1:\n      0x00\n      dup1\n      revert\n        /* \"Contract  ^0.8.8/FundMe.sol\":319:348  uint256 public minimumUSD = 2 */\n    tag_2:\n      callvalue\n      dup1\n      iszero\n      tag_10\n      jumpi\n      0x00\n      dup1\n      revert\n    tag_10:\n      pop\n      tag_11\n      tag_12\n      jump\t// in\n    tag_11:\n      mload(0x40)\n      tag_13\n      swap2\n      swap1\n      tag_14\n      jump\t// in\n    tag_13:\n      mload(0x40)\n      dup1\n      swap2\n      sub\n      swap1\n      return\n        /* \"Contract  ^0.8.8/FundMe.sol\":380:418  AggregatorV3Interface public priceFeed */\n    tag_3:\n      callvalue\n      dup1\n      iszero\n      tag_15\n      jumpi\n      0x00\n      dup1\n      revert\n    tag_15:\n      pop\n      tag_16\n      tag_17\n      jump\t// in\n    tag_16:\n      mload(0x40)\n      tag_18\n      swap2\n      swap1\n      tag_19\n      jump\t// in\n    tag_18:\n      mload(0x40)\n      dup1\n      swap2\n      sub\n      swap1\n      return\n        /* \"Contract  ^0.8.8/FundMe.sol\":354:374  address public owner */\n    tag_4:\n      callvalue\n      dup1\n      iszero\n      tag_20\n      jumpi\n      0x00\n      dup1\n      revert\n    tag_20:\n      pop\n      tag_21\n      tag_22\n      jump\t// in\n    tag_21:\n      mload(0x40)\n      tag_23\n      swap2\n      swap1\n      tag_24\n      jump\t// in\n    tag_23:\n      mload(0x40)\n      dup1\n      swap2\n      sub\n      swap1\n      return\n        /* \"Contract  ^0.8.8/FundMe.sol\":1381:1579  function getPrice() public{... */\n    tag_5:\n      callvalue\n      dup1\n      iszero\n      tag_25\n      jumpi\n      0x00\n      dup1\n      revert\n    tag_25:\n      pop\n      tag_26\n      tag_27\n      jump\t// in\n    tag_26:\n      stop\n        /* \"Contract  ^0.8.8/FundMe.sol\":954:1051  function setMinimumUSD(uint256 _val) public onlyOwner(msg.sender){... */\n    tag_6:\n      callvalue\n      dup1\n      iszero\n      tag_28\n      jumpi\n      0x00\n      dup1\n      revert\n    tag_28:\n      pop\n      tag_29\n      0x04\n      dup1\n      calldatasize\n      sub\n      dup2\n      add\n      swap1\n      tag_30\n      swap2\n      swap1\n      tag_31\n      jump\t// in\n    tag_30:\n      tag_32\n      jump\t// in\n    tag_29:\n      stop\n        /* \"Contract  ^0.8.8/FundMe.sol\":1056:1128  function fund() public payable fundMinumumUSD(msg.value){... */\n    tag_7:\n      tag_33\n      tag_34\n      jump\t// in\n    tag_33:\n      stop\n        /* \"Contract  ^0.8.8/FundMe.sol\":1648:1685  function getConversionRate() public{} */\n    tag_8:\n      callvalue\n      dup1\n      iszero\n      tag_35\n      jumpi\n      0x00\n      dup1\n      revert\n    tag_35:\n      pop\n      tag_36\n      tag_37\n      jump\t// in\n    tag_36:\n      stop\n        /* \"Contract  ^0.8.8/FundMe.sol\":319:348  uint256 public minimumUSD = 2 */\n    tag_12:\n      sload(0x00)\n      dup2\n      jump\t// out\n        /* \"Contract  ^0.8.8/FundMe.sol\":380:418  AggregatorV3Interface public priceFeed */\n    tag_17:\n      0x02\n      0x00\n      swap1\n      sload\n      swap1\n      0x0100\n      exp\n      swap1\n      div\n      0xffffffffffffffffffffffffffffffffffffffff\n      and\n      dup2\n      jump\t// out\n        /* \"Contract  ^0.8.8/FundMe.sol\":354:374  address public owner */\n    tag_22:\n      0x01\n      0x00\n      swap1\n      sload\n      swap1\n      0x0100\n      exp\n      swap1\n      div\n      0xffffffffffffffffffffffffffffffffffffffff\n      and\n      dup2\n      jump\t// out\n        /* \"Contract  ^0.8.8/FundMe.sol\":1381:1579  function getPrice() public{... */\n    tag_27:\n        /* \"Contract  ^0.8.8/FundMe.sol\":1421:1435  uint80 roundId */\n      0x00\n        /* \"Contract  ^0.8.8/FundMe.sol\":1443:1456  int256 answer */\n      dup1\n        /* \"Contract  ^0.8.8/FundMe.sol\":1464:1481  uint256 startedAt */\n      0x00\n        /* \"Contract  ^0.8.8/FundMe.sol\":1489:1506  uint256 updatedAt */\n      dup1\n        /* \"Contract  ^0.8.8/FundMe.sol\":1514:1536  uint80 answeredInRound */\n      0x00\n        /* \"Contract  ^0.8.8/FundMe.sol\":1545:1554  priceFeed */\n      0x02\n      0x00\n      swap1\n      sload\n      swap1\n      0x0100\n      exp\n      swap1\n      div\n      0xffffffffffffffffffffffffffffffffffffffff\n      and\n        /* \"Contract  ^0.8.8/FundMe.sol\":1545:1570  priceFeed.latestRoundData */\n      0xffffffffffffffffffffffffffffffffffffffff\n      and\n      0xfeaf968c\n        /* \"Contract  ^0.8.8/FundMe.sol\":1545:1572  priceFeed.latestRoundData() */\n      mload(0x40)\n      dup2\n      0xffffffff\n      and\n      0xe0\n      shl\n      dup2\n      mstore\n      0x04\n      add\n      0xa0\n      mload(0x40)\n      dup1\n      dup4\n      sub\n      dup2\n      dup7\n      dup1\n      extcodesize\n      iszero\n      dup1\n      iszero\n      tag_39\n      jumpi\n      0x00\n      dup1\n      revert\n    tag_39:\n      pop\n      gas\n      staticcall\n      iszero\n      dup1\n      iszero\n      tag_41\n      jumpi\n      returndatasize\n      0x00\n      dup1\n      returndatacopy\n      revert(0x00, returndatasize)\n    tag_41:\n      pop\n      pop\n      pop\n      pop\n      mload(0x40)\n      returndatasize\n      not(0x1f)\n      0x1f\n      dup3\n      add\n      and\n      dup3\n      add\n      dup1\n      0x40\n      mstore\n      pop\n      dup2\n      add\n      swap1\n      tag_42\n      swap2\n      swap1\n      tag_43\n      jump\t// in\n    tag_42:\n        /* \"Contract  ^0.8.8/FundMe.sol\":1413:1572  (... */\n      swap5\n      pop\n      swap5\n      pop\n      swap5\n      pop\n      swap5\n      pop\n      swap5\n      pop\n        /* \"Contract  ^0.8.8/FundMe.sol\":1407:1579  {... */\n      pop\n      pop\n      pop\n      pop\n      pop\n        /* \"Contract  ^0.8.8/FundMe.sol\":1381:1579  function getPrice() public{... */\n      jump\t// out\n        /* \"Contract  ^0.8.8/FundMe.sol\":954:1051  function setMinimumUSD(uint256 _val) public onlyOwner(msg.sender){... */\n    tag_32:\n        /* \"Contract  ^0.8.8/FundMe.sol\":1008:1018  msg.sender */\n      caller\n        /* \"Contract  ^0.8.8/FundMe.sol\":786:793  _caller */\n      dup1\n        /* \"Contract  ^0.8.8/FundMe.sol\":777:793  owner == _caller */\n      0xffffffffffffffffffffffffffffffffffffffff\n      and\n        /* \"Contract  ^0.8.8/FundMe.sol\":777:782  owner */\n      0x01\n      0x00\n      swap1\n      sload\n      swap1\n      0x0100\n      exp\n      swap1\n      div\n      0xffffffffffffffffffffffffffffffffffffffff\n      and\n        /* \"Contract  ^0.8.8/FundMe.sol\":777:793  owner == _caller */\n      0xffffffffffffffffffffffffffffffffffffffff\n      and\n      eq\n        /* \"Contract  ^0.8.8/FundMe.sol\":769:811  require(owner == _caller,\"only the owner\") */\n      tag_45\n      jumpi\n      mload(0x40)\n      0x08c379a000000000000000000000000000000000000000000000000000000000\n      dup2\n      mstore\n      0x04\n      add\n      tag_46\n      swap1\n      tag_47\n      jump\t// in\n    tag_46:\n      mload(0x40)\n      dup1\n      swap2\n      sub\n      swap1\n      revert\n    tag_45:\n        /* \"Contract  ^0.8.8/FundMe.sol\":1040:1044  _val */\n      dup2\n        /* \"Contract  ^0.8.8/FundMe.sol\":1029:1039  minimumUSD */\n      0x00\n        /* \"Contract  ^0.8.8/FundMe.sol\":1029:1044  minimumUSD=_val */\n      dup2\n      swap1\n      sstore\n      pop\n        /* \"Contract  ^0.8.8/FundMe.sol\":954:1051  function setMinimumUSD(uint256 _val) public onlyOwner(msg.sender){... */\n      pop\n      pop\n      jump\t// out\n        /* \"Contract  ^0.8.8/FundMe.sol\":1056:1128  function fund() public payable fundMinumumUSD(msg.value){... */\n    tag_34:\n        /* \"Contract  ^0.8.8/FundMe.sol\":1102:1111  msg.value */\n      callvalue\n        /* \"Contract  ^0.8.8/FundMe.sol\":899:909  minimumUSD */\n      sload(0x00)\n        /* \"Contract  ^0.8.8/FundMe.sol\":891:897  _value */\n      dup2\n        /* \"Contract  ^0.8.8/FundMe.sol\":891:909  _value>=minimumUSD */\n      lt\n      iszero\n        /* \"Contract  ^0.8.8/FundMe.sol\":883:931  require(_value>=minimumUSD,\"Didn't send enough\") */\n      tag_50\n      jumpi\n      mload(0x40)\n      0x08c379a000000000000000000000000000000000000000000000000000000000\n      dup2\n      mstore\n      0x04\n      add\n      tag_51\n      swap1\n      tag_52\n      jump\t// in\n    tag_51:\n      mload(0x40)\n      dup1\n      swap2\n      sub\n      swap1\n      revert\n    tag_50:\n        /* \"Contract  ^0.8.8/FundMe.sol\":1056:1128  function fund() public payable fundMinumumUSD(msg.value){... */\n      pop\n      jump\t// out\n        /* \"Contract  ^0.8.8/FundMe.sol\":1648:1685  function getConversionRate() public{} */\n    tag_37:\n      jump\t// out\n        /* \"#utility.yul\":7:84   */\n    tag_55:\n        /* \"#utility.yul\":44:51   */\n      0x00\n        /* \"#utility.yul\":73:78   */\n      dup2\n        /* \"#utility.yul\":62:78   */\n      swap1\n      pop\n        /* \"#utility.yul\":7:84   */\n      swap2\n      swap1\n      pop\n      jump\t// out\n        /* \"#utility.yul\":90:208   */\n    tag_56:\n        /* \"#utility.yul\":177:201   */\n      tag_85\n        /* \"#utility.yul\":195:200   */\n      dup2\n        /* \"#utility.yul\":177:201   */\n      tag_55\n      jump\t// in\n    tag_85:\n        /* \"#utility.yul\":172:175   */\n      dup3\n        /* \"#utility.yul\":165:202   */\n      mstore\n        /* \"#utility.yul\":90:208   */\n      pop\n      pop\n      jump\t// out\n        /* \"#utility.yul\":214:436   */\n    tag_14:\n        /* \"#utility.yul\":307:311   */\n      0x00\n        /* \"#utility.yul\":345:347   */\n      0x20\n        /* \"#utility.yul\":334:343   */\n      dup3\n        /* \"#utility.yul\":330:348   */\n      add\n        /* \"#utility.yul\":322:348   */\n      swap1\n      pop\n        /* \"#utility.yul\":358:429   */\n      tag_87\n        /* \"#utility.yul\":426:427   */\n      0x00\n        /* \"#utility.yul\":415:424   */\n      dup4\n        /* \"#utility.yul\":411:428   */\n      add\n        /* \"#utility.yul\":402:408   */\n      dup5\n        /* \"#utility.yul\":358:429   */\n      tag_56\n      jump\t// in\n    tag_87:\n        /* \"#utility.yul\":214:436   */\n      swap3\n      swap2\n      pop\n      pop\n      jump\t// out\n        /* \"#utility.yul\":442:568   */\n    tag_57:\n        /* \"#utility.yul\":479:486   */\n      0x00\n        /* \"#utility.yul\":519:561   */\n      0xffffffffffffffffffffffffffffffffffffffff\n        /* \"#utility.yul\":512:517   */\n      dup3\n        /* \"#utility.yul\":508:562   */\n      and\n        /* \"#utility.yul\":497:562   */\n      swap1\n      pop\n        /* \"#utility.yul\":442:568   */\n      swap2\n      swap1\n      pop\n      jump\t// out\n        /* \"#utility.yul\":574:634   */\n    tag_58:\n        /* \"#utility.yul\":602:605   */\n      0x00\n        /* \"#utility.yul\":623:628   */\n      dup2\n        /* \"#utility.yul\":616:628   */\n      swap1\n      pop\n        /* \"#utility.yul\":574:634   */\n      swap2\n      swap1\n      pop\n      jump\t// out\n        /* \"#utility.yul\":640:782   */\n    tag_59:\n        /* \"#utility.yul\":690:699   */\n      0x00\n        /* \"#utility.yul\":723:776   */\n      tag_91\n        /* \"#utility.yul\":741:775   */\n      tag_92\n        /* \"#utility.yul\":750:774   */\n      tag_93\n        /* \"#utility.yul\":768:773   */\n      dup5\n        /* \"#utility.yul\":750:774   */\n      tag_57\n      jump\t// in\n    tag_93:\n        /* \"#utility.yul\":741:775   */\n      tag_58\n      jump\t// in\n    tag_92:\n        /* \"#utility.yul\":723:776   */\n      tag_57\n      jump\t// in\n    tag_91:\n        /* \"#utility.yul\":710:776   */\n      swap1\n      pop\n        /* \"#utility.yul\":640:782   */\n      swap2\n      swap1\n      pop\n      jump\t// out\n        /* \"#utility.yul\":788:914   */\n    tag_60:\n        /* \"#utility.yul\":838:847   */\n      0x00\n        /* \"#utility.yul\":871:908   */\n      tag_95\n        /* \"#utility.yul\":902:907   */\n      dup3\n        /* \"#utility.yul\":871:908   */\n      tag_59\n      jump\t// in\n    tag_95:\n        /* \"#utility.yul\":858:908   */\n      swap1\n      pop\n        /* \"#utility.yul\":788:914   */\n      swap2\n      swap1\n      pop\n      jump\t// out\n        /* \"#utility.yul\":920:1074   */\n    tag_61:\n        /* \"#utility.yul\":998:1007   */\n      0x00\n        /* \"#utility.yul\":1031:1068   */\n      tag_97\n        /* \"#utility.yul\":1062:1067   */\n      dup3\n        /* \"#utility.yul\":1031:1068   */\n      tag_60\n      jump\t// in\n    tag_97:\n        /* \"#utility.yul\":1018:1068   */\n      swap1\n      pop\n        /* \"#utility.yul\":920:1074   */\n      swap2\n      swap1\n      pop\n      jump\t// out\n        /* \"#utility.yul\":1080:1267   */\n    tag_62:\n        /* \"#utility.yul\":1195:1260   */\n      tag_99\n        /* \"#utility.yul\":1254:1259   */\n      dup2\n        /* \"#utility.yul\":1195:1260   */\n      tag_61\n      jump\t// in\n    tag_99:\n        /* \"#utility.yul\":1190:1193   */\n      dup3\n        /* \"#utility.yul\":1183:1261   */\n      mstore\n        /* \"#utility.yul\":1080:1267   */\n      pop\n      pop\n      jump\t// out\n        /* \"#utility.yul\":1273:1551   */\n    tag_19:\n        /* \"#utility.yul\":1394:1398   */\n      0x00\n        /* \"#utility.yul\":1432:1434   */\n      0x20\n        /* \"#utility.yul\":1421:1430   */\n      dup3\n        /* \"#utility.yul\":1417:1435   */\n      add\n        /* \"#utility.yul\":1409:1435   */\n      swap1\n      pop\n        /* \"#utility.yul\":1445:1544   */\n      tag_101\n        /* \"#utility.yul\":1541:1542   */\n      0x00\n        /* \"#utility.yul\":1530:1539   */\n      dup4\n        /* \"#utility.yul\":1526:1543   */\n      add\n        /* \"#utility.yul\":1517:1523   */\n      dup5\n        /* \"#utility.yul\":1445:1544   */\n      tag_62\n      jump\t// in\n    tag_101:\n        /* \"#utility.yul\":1273:1551   */\n      swap3\n      swap2\n      pop\n      pop\n      jump\t// out\n        /* \"#utility.yul\":1557:1653   */\n    tag_63:\n        /* \"#utility.yul\":1594:1601   */\n      0x00\n        /* \"#utility.yul\":1623:1647   */\n      tag_103\n        /* \"#utility.yul\":1641:1646   */\n      dup3\n        /* \"#utility.yul\":1623:1647   */\n      tag_57\n      jump\t// in\n    tag_103:\n        /* \"#utility.yul\":1612:1647   */\n      swap1\n      pop\n        /* \"#utility.yul\":1557:1653   */\n      swap2\n      swap1\n      pop\n      jump\t// out\n        /* \"#utility.yul\":1659:1777   */\n    tag_64:\n        /* \"#utility.yul\":1746:1770   */\n      tag_105\n        /* \"#utility.yul\":1764:1769   */\n      dup2\n        /* \"#utility.yul\":1746:1770   */\n      tag_63\n      jump\t// in\n    tag_105:\n        /* \"#utility.yul\":1741:1744   */\n      dup3\n        /* \"#utility.yul\":1734:1771   */\n      mstore\n        /* \"#utility.yul\":1659:1777   */\n      pop\n      pop\n      jump\t// out\n        /* \"#utility.yul\":1783:2005   */\n    tag_24:\n        /* \"#utility.yul\":1876:1880   */\n      0x00\n        /* \"#utility.yul\":1914:1916   */\n      0x20\n        /* \"#utility.yul\":1903:1912   */\n      dup3\n        /* \"#utility.yul\":1899:1917   */\n      add\n        /* \"#utility.yul\":1891:1917   */\n      swap1\n      pop\n        /* \"#utility.yul\":1927:1998   */\n      tag_107\n        /* \"#utility.yul\":1995:1996   */\n      0x00\n        /* \"#utility.yul\":1984:1993   */\n      dup4\n        /* \"#utility.yul\":1980:1997   */\n      add\n        /* \"#utility.yul\":1971:1977   */\n      dup5\n        /* \"#utility.yul\":1927:1998   */\n      tag_64\n      jump\t// in\n    tag_107:\n        /* \"#utility.yul\":1783:2005   */\n      swap3\n      swap2\n      pop\n      pop\n      jump\t// out\n        /* \"#utility.yul\":2092:2209   */\n    tag_66:\n        /* \"#utility.yul\":2201:2202   */\n      0x00\n        /* \"#utility.yul\":2198:2199   */\n      dup1\n        /* \"#utility.yul\":2191:2203   */\n      revert\n        /* \"#utility.yul\":2338:2460   */\n    tag_68:\n        /* \"#utility.yul\":2411:2435   */\n      tag_112\n        /* \"#utility.yul\":2429:2434   */\n      dup2\n        /* \"#utility.yul\":2411:2435   */\n      tag_55\n      jump\t// in\n    tag_112:\n        /* \"#utility.yul\":2404:2409   */\n      dup2\n        /* \"#utility.yul\":2401:2436   */\n      eq\n        /* \"#utility.yul\":2391:2454   */\n      tag_113\n      jumpi\n        /* \"#utility.yul\":2450:2451   */\n      0x00\n        /* \"#utility.yul\":2447:2448   */\n      dup1\n        /* \"#utility.yul\":2440:2452   */\n      revert\n        /* \"#utility.yul\":2391:2454   */\n    tag_113:\n        /* \"#utility.yul\":2338:2460   */\n      pop\n      jump\t// out\n        /* \"#utility.yul\":2466:2605   */\n    tag_69:\n        /* \"#utility.yul\":2512:2517   */\n      0x00\n        /* \"#utility.yul\":2550:2556   */\n      dup2\n        /* \"#utility.yul\":2537:2557   */\n      calldataload\n        /* \"#utility.yul\":2528:2557   */\n      swap1\n      pop\n        /* \"#utility.yul\":2566:2599   */\n      tag_115\n        /* \"#utility.yul\":2593:2598   */\n      dup2\n        /* \"#utility.yul\":2566:2599   */\n      tag_68\n      jump\t// in\n    tag_115:\n        /* \"#utility.yul\":2466:2605   */\n      swap3\n      swap2\n      pop\n      pop\n      jump\t// out\n        /* \"#utility.yul\":2611:2940   */\n    tag_31:\n        /* \"#utility.yul\":2670:2676   */\n      0x00\n        /* \"#utility.yul\":2719:2721   */\n      0x20\n        /* \"#utility.yul\":2707:2716   */\n      dup3\n        /* \"#utility.yul\":2698:2705   */\n      dup5\n        /* \"#utility.yul\":2694:2717   */\n      sub\n        /* \"#utility.yul\":2690:2722   */\n      slt\n        /* \"#utility.yul\":2687:2806   */\n      iszero\n      tag_117\n      jumpi\n        /* \"#utility.yul\":2725:2804   */\n      tag_118\n      tag_66\n      jump\t// in\n    tag_118:\n        /* \"#utility.yul\":2687:2806   */\n    tag_117:\n        /* \"#utility.yul\":2845:2846   */\n      0x00\n        /* \"#utility.yul\":2870:2923   */\n      tag_119\n        /* \"#utility.yul\":2915:2922   */\n      dup5\n        /* \"#utility.yul\":2906:2912   */\n      dup3\n        /* \"#utility.yul\":2895:2904   */\n      dup6\n        /* \"#utility.yul\":2891:2913   */\n      add\n        /* \"#utility.yul\":2870:2923   */\n      tag_69\n      jump\t// in\n    tag_119:\n        /* \"#utility.yul\":2860:2923   */\n      swap2\n      pop\n        /* \"#utility.yul\":2816:2933   */\n      pop\n        /* \"#utility.yul\":2611:2940   */\n      swap3\n      swap2\n      pop\n      pop\n      jump\t// out\n        /* \"#utility.yul\":2946:3051   */\n    tag_70:\n        /* \"#utility.yul\":2982:2989   */\n      0x00\n        /* \"#utility.yul\":3022:3044   */\n      0xffffffffffffffffffff\n        /* \"#utility.yul\":3015:3020   */\n      dup3\n        /* \"#utility.yul\":3011:3045   */\n      and\n        /* \"#utility.yul\":3000:3045   */\n      swap1\n      pop\n        /* \"#utility.yul\":2946:3051   */\n      swap2\n      swap1\n      pop\n      jump\t// out\n        /* \"#utility.yul\":3057:3177   */\n    tag_71:\n        /* \"#utility.yul\":3129:3152   */\n      tag_122\n        /* \"#utility.yul\":3146:3151   */\n      dup2\n        /* \"#utility.yul\":3129:3152   */\n      tag_70\n      jump\t// in\n    tag_122:\n        /* \"#utility.yul\":3122:3127   */\n      dup2\n        /* \"#utility.yul\":3119:3153   */\n      eq\n        /* \"#utility.yul\":3109:3171   */\n      tag_123\n      jumpi\n        /* \"#utility.yul\":3167:3168   */\n      0x00\n        /* \"#utility.yul\":3164:3165   */\n      dup1\n        /* \"#utility.yul\":3157:3169   */\n      revert\n        /* \"#utility.yul\":3109:3171   */\n    tag_123:\n        /* \"#utility.yul\":3057:3177   */\n      pop\n      jump\t// out\n        /* \"#utility.yul\":3183:3324   */\n    tag_72:\n        /* \"#utility.yul\":3239:3244   */\n      0x00\n        /* \"#utility.yul\":3270:3276   */\n      dup2\n        /* \"#utility.yul\":3264:3277   */\n      mload\n        /* \"#utility.yul\":3255:3277   */\n      swap1\n      pop\n        /* \"#utility.yul\":3286:3318   */\n      tag_125\n        /* \"#utility.yul\":3312:3317   */\n      dup2\n        /* \"#utility.yul\":3286:3318   */\n      tag_71\n      jump\t// in\n    tag_125:\n        /* \"#utility.yul\":3183:3324   */\n      swap3\n      swap2\n      pop\n      pop\n      jump\t// out\n        /* \"#utility.yul\":3330:3406   */\n    tag_73:\n        /* \"#utility.yul\":3366:3373   */\n      0x00\n        /* \"#utility.yul\":3395:3400   */\n      dup2\n        /* \"#utility.yul\":3384:3400   */\n      swap1\n      pop\n        /* \"#utility.yul\":3330:3406   */\n      swap2\n      swap1\n      pop\n      jump\t// out\n        /* \"#utility.yul\":3412:3532   */\n    tag_74:\n        /* \"#utility.yul\":3484:3507   */\n      tag_128\n        /* \"#utility.yul\":3501:3506   */\n      dup2\n        /* \"#utility.yul\":3484:3507   */\n      tag_73\n      jump\t// in\n    tag_128:\n        /* \"#utility.yul\":3477:3482   */\n      dup2\n        /* \"#utility.yul\":3474:3508   */\n      eq\n        /* \"#utility.yul\":3464:3526   */\n      tag_129\n      jumpi\n        /* \"#utility.yul\":3522:3523   */\n      0x00\n        /* \"#utility.yul\":3519:3520   */\n      dup1\n        /* \"#utility.yul\":3512:3524   */\n      revert\n        /* \"#utility.yul\":3464:3526   */\n    tag_129:\n        /* \"#utility.yul\":3412:3532   */\n      pop\n      jump\t// out\n        /* \"#utility.yul\":3538:3679   */\n    tag_75:\n        /* \"#utility.yul\":3594:3599   */\n      0x00\n        /* \"#utility.yul\":3625:3631   */\n      dup2\n        /* \"#utility.yul\":3619:3632   */\n      mload\n        /* \"#utility.yul\":3610:3632   */\n      swap1\n      pop\n        /* \"#utility.yul\":3641:3673   */\n      tag_131\n        /* \"#utility.yul\":3667:3672   */\n      dup2\n        /* \"#utility.yul\":3641:3673   */\n      tag_74\n      jump\t// in\n    tag_131:\n        /* \"#utility.yul\":3538:3679   */\n      swap3\n      swap2\n      pop\n      pop\n      jump\t// out\n        /* \"#utility.yul\":3685:3828   */\n    tag_76:\n        /* \"#utility.yul\":3742:3747   */\n      0x00\n        /* \"#utility.yul\":3773:3779   */\n      dup2\n        /* \"#utility.yul\":3767:3780   */\n      mload\n        /* \"#utility.yul\":3758:3780   */\n      swap1\n      pop\n        /* \"#utility.yul\":3789:3822   */\n      tag_133\n        /* \"#utility.yul\":3816:3821   */\n      dup2\n        /* \"#utility.yul\":3789:3822   */\n      tag_68\n      jump\t// in\n    tag_133:\n        /* \"#utility.yul\":3685:3828   */\n      swap3\n      swap2\n      pop\n      pop\n      jump\t// out\n        /* \"#utility.yul\":3834:4805   */\n    tag_43:\n        /* \"#utility.yul\":3937:3943   */\n      0x00\n        /* \"#utility.yul\":3945:3951   */\n      dup1\n        /* \"#utility.yul\":3953:3959   */\n      0x00\n        /* \"#utility.yul\":3961:3967   */\n      dup1\n        /* \"#utility.yul\":3969:3975   */\n      0x00\n        /* \"#utility.yul\":4018:4021   */\n      0xa0\n        /* \"#utility.yul\":4006:4015   */\n      dup7\n        /* \"#utility.yul\":3997:4004   */\n      dup9\n        /* \"#utility.yul\":3993:4016   */\n      sub\n        /* \"#utility.yul\":3989:4022   */\n      slt\n        /* \"#utility.yul\":3986:4106   */\n      iszero\n      tag_135\n      jumpi\n        /* \"#utility.yul\":4025:4104   */\n      tag_136\n      tag_66\n      jump\t// in\n    tag_136:\n        /* \"#utility.yul\":3986:4106   */\n    tag_135:\n        /* \"#utility.yul\":4145:4146   */\n      0x00\n        /* \"#utility.yul\":4170:4233   */\n      tag_137\n        /* \"#utility.yul\":4225:4232   */\n      dup9\n        /* \"#utility.yul\":4216:4222   */\n      dup3\n        /* \"#utility.yul\":4205:4214   */\n      dup10\n        /* \"#utility.yul\":4201:4223   */\n      add\n        /* \"#utility.yul\":4170:4233   */\n      tag_72\n      jump\t// in\n    tag_137:\n        /* \"#utility.yul\":4160:4233   */\n      swap6\n      pop\n        /* \"#utility.yul\":4116:4243   */\n      pop\n        /* \"#utility.yul\":4282:4284   */\n      0x20\n        /* \"#utility.yul\":4308:4371   */\n      tag_138\n        /* \"#utility.yul\":4363:4370   */\n      dup9\n        /* \"#utility.yul\":4354:4360   */\n      dup3\n        /* \"#utility.yul\":4343:4352   */\n      dup10\n        /* \"#utility.yul\":4339:4361   */\n      add\n        /* \"#utility.yul\":4308:4371   */\n      tag_75\n      jump\t// in\n    tag_138:\n        /* \"#utility.yul\":4298:4371   */\n      swap5\n      pop\n        /* \"#utility.yul\":4253:4381   */\n      pop\n        /* \"#utility.yul\":4420:4422   */\n      0x40\n        /* \"#utility.yul\":4446:4510   */\n      tag_139\n        /* \"#utility.yul\":4502:4509   */\n      dup9\n        /* \"#utility.yul\":4493:4499   */\n      dup3\n        /* \"#utility.yul\":4482:4491   */\n      dup10\n        /* \"#utility.yul\":4478:4500   */\n      add\n        /* \"#utility.yul\":4446:4510   */\n      tag_76\n      jump\t// in\n    tag_139:\n        /* \"#utility.yul\":4436:4510   */\n      swap4\n      pop\n        /* \"#utility.yul\":4391:4520   */\n      pop\n        /* \"#utility.yul\":4559:4561   */\n      0x60\n        /* \"#utility.yul\":4585:4649   */\n      tag_140\n        /* \"#utility.yul\":4641:4648   */\n      dup9\n        /* \"#utility.yul\":4632:4638   */\n      dup3\n        /* \"#utility.yul\":4621:4630   */\n      dup10\n        /* \"#utility.yul\":4617:4639   */\n      add\n        /* \"#utility.yul\":4585:4649   */\n      tag_76\n      jump\t// in\n    tag_140:\n        /* \"#utility.yul\":4575:4649   */\n      swap3\n      pop\n        /* \"#utility.yul\":4530:4659   */\n      pop\n        /* \"#utility.yul\":4698:4701   */\n      0x80\n        /* \"#utility.yul\":4725:4788   */\n      tag_141\n        /* \"#utility.yul\":4780:4787   */\n      dup9\n        /* \"#utility.yul\":4771:4777   */\n      dup3\n        /* \"#utility.yul\":4760:4769   */\n      dup10\n        /* \"#utility.yul\":4756:4778   */\n      add\n        /* \"#utility.yul\":4725:4788   */\n      tag_72\n      jump\t// in\n    tag_141:\n        /* \"#utility.yul\":4715:4788   */\n      swap2\n      pop\n        /* \"#utility.yul\":4669:4798   */\n      pop\n        /* \"#utility.yul\":3834:4805   */\n      swap3\n      swap6\n      pop\n      swap3\n      swap6\n      swap1\n      swap4\n      pop\n      jump\t// out\n        /* \"#utility.yul\":4811:4980   */\n    tag_77:\n        /* \"#utility.yul\":4895:4906   */\n      0x00\n        /* \"#utility.yul\":4929:4935   */\n      dup3\n        /* \"#utility.yul\":4924:4927   */\n      dup3\n        /* \"#utility.yul\":4917:4936   */\n      mstore\n        /* \"#utility.yul\":4969:4973   */\n      0x20\n        /* \"#utility.yul\":4964:4967   */\n      dup3\n        /* \"#utility.yul\":4960:4974   */\n      add\n        /* \"#utility.yul\":4945:4974   */\n      swap1\n      pop\n        /* \"#utility.yul\":4811:4980   */\n      swap3\n      swap2\n      pop\n      pop\n      jump\t// out\n        /* \"#utility.yul\":4986:5150   */\n    tag_78:\n        /* \"#utility.yul\":5126:5142   */\n      0x6f6e6c7920746865206f776e6572000000000000000000000000000000000000\n        /* \"#utility.yul\":5122:5123   */\n      0x00\n        /* \"#utility.yul\":5114:5120   */\n      dup3\n        /* \"#utility.yul\":5110:5124   */\n      add\n        /* \"#utility.yul\":5103:5143   */\n      mstore\n        /* \"#utility.yul\":4986:5150   */\n      pop\n      jump\t// out\n        /* \"#utility.yul\":5156:5522   */\n    tag_79:\n        /* \"#utility.yul\":5298:5301   */\n      0x00\n        /* \"#utility.yul\":5319:5386   */\n      tag_145\n        /* \"#utility.yul\":5383:5385   */\n      0x0e\n        /* \"#utility.yul\":5378:5381   */\n      dup4\n        /* \"#utility.yul\":5319:5386   */\n      tag_77\n      jump\t// in\n    tag_145:\n        /* \"#utility.yul\":5312:5386   */\n      swap2\n      pop\n        /* \"#utility.yul\":5395:5488   */\n      tag_146\n        /* \"#utility.yul\":5484:5487   */\n      dup3\n        /* \"#utility.yul\":5395:5488   */\n      tag_78\n      jump\t// in\n    tag_146:\n        /* \"#utility.yul\":5513:5515   */\n      0x20\n        /* \"#utility.yul\":5508:5511   */\n      dup3\n        /* \"#utility.yul\":5504:5516   */\n      add\n        /* \"#utility.yul\":5497:5516   */\n      swap1\n      pop\n        /* \"#utility.yul\":5156:5522   */\n      swap2\n      swap1\n      pop\n      jump\t// out\n        /* \"#utility.yul\":5528:5947   */\n    tag_47:\n        /* \"#utility.yul\":5694:5698   */\n      0x00\n        /* \"#utility.yul\":5732:5734   */\n      0x20\n        /* \"#utility.yul\":5721:5730   */\n      dup3\n        /* \"#utility.yul\":5717:5735   */\n      add\n        /* \"#utility.yul\":5709:5735   */\n      swap1\n      pop\n        /* \"#utility.yul\":5781:5790   */\n      dup2\n        /* \"#utility.yul\":5775:5779   */\n      dup2\n        /* \"#utility.yul\":5771:5791   */\n      sub\n        /* \"#utility.yul\":5767:5768   */\n      0x00\n        /* \"#utility.yul\":5756:5765   */\n      dup4\n        /* \"#utility.yul\":5752:5769   */\n      add\n        /* \"#utility.yul\":5745:5792   */\n      mstore\n        /* \"#utility.yul\":5809:5940   */\n      tag_148\n        /* \"#utility.yul\":5935:5939   */\n      dup2\n        /* \"#utility.yul\":5809:5940   */\n      tag_79\n      jump\t// in\n    tag_148:\n        /* \"#utility.yul\":5801:5940   */\n      swap1\n      pop\n        /* \"#utility.yul\":5528:5947   */\n      swap2\n      swap1\n      pop\n      jump\t// out\n        /* \"#utility.yul\":5953:6121   */\n    tag_80:\n        /* \"#utility.yul\":6093:6113   */\n      0x4469646e27742073656e6420656e6f7567680000000000000000000000000000\n        /* \"#utility.yul\":6089:6090   */\n      0x00\n        /* \"#utility.yul\":6081:6087   */\n      dup3\n        /* \"#utility.yul\":6077:6091   */\n      add\n        /* \"#utility.yul\":6070:6114   */\n      mstore\n        /* \"#utility.yul\":5953:6121   */\n      pop\n      jump\t// out\n        /* \"#utility.yul\":6127:6493   */\n    tag_81:\n        /* \"#utility.yul\":6269:6272   */\n      0x00\n        /* \"#utility.yul\":6290:6357   */\n      tag_151\n        /* \"#utility.yul\":6354:6356   */\n      0x12\n        /* \"#utility.yul\":6349:6352   */\n      dup4\n        /* \"#utility.yul\":6290:6357   */\n      tag_77\n      jump\t// in\n    tag_151:\n        /* \"#utility.yul\":6283:6357   */\n      swap2\n      pop\n        /* \"#utility.yul\":6366:6459   */\n      tag_152\n        /* \"#utility.yul\":6455:6458   */\n      dup3\n        /* \"#utility.yul\":6366:6459   */\n      tag_80\n      jump\t// in\n    tag_152:\n        /* \"#utility.yul\":6484:6486   */\n      0x20\n        /* \"#utility.yul\":6479:6482   */\n      dup3\n        /* \"#utility.yul\":6475:6487   */\n      add\n        /* \"#utility.yul\":6468:6487   */\n      swap1\n      pop\n        /* \"#utility.yul\":6127:6493   */\n      swap2\n      swap1\n      pop\n      jump\t// out\n        /* \"#utility.yul\":6499:6918   */\n    tag_52:\n        /* \"#utility.yul\":6665:6669   */\n      0x00\n        /* \"#utility.yul\":6703:6705   */\n      0x20\n        /* \"#utility.yul\":6692:6701   */\n      dup3\n        /* \"#utility.yul\":6688:6706   */\n      add\n        /* \"#utility.yul\":6680:6706   */\n      swap1\n      pop\n        /* \"#utility.yul\":6752:6761   */\n      dup2\n        /* \"#utility.yul\":6746:6750   */\n      dup2\n        /* \"#utility.yul\":6742:6762   */\n      sub\n        /* \"#utility.yul\":6738:6739   */\n      0x00\n        /* \"#utility.yul\":6727:6736   */\n      dup4\n        /* \"#utility.yul\":6723:6740   */\n      add\n        /* \"#utility.yul\":6716:6763   */\n      mstore\n        /* \"#utility.yul\":6780:6911   */\n      tag_154\n        /* \"#utility.yul\":6906:6910   */\n      dup2\n        /* \"#utility.yul\":6780:6911   */\n      tag_81\n      jump\t// in\n    tag_154:\n        /* \"#utility.yul\":6772:6911   */\n      swap1\n      pop\n        /* \"#utility.yul\":6499:6918   */\n      swap2\n      swap1\n      pop\n      jump\t// out\n\n    auxdata: 0xa26469706673582212209c43aca881e4d4dae50c1bb2543718ab8cfd5c4eb9d19d7d00586951900f94bb64736f6c63430008080033\n}\n",
				"bytecode": {
					"linkReferences": {},
					"object": "6080604052600260005534801561001557600080fd5b5033600160006101000a81548173ffffffffffffffffffffffffffffffffffffffff021916908373ffffffffffffffffffffffffffffffffffffffff160217905550738a753747a1fa494ec906ce90e9f37563a8af630e600260006101000a81548173ffffffffffffffffffffffffffffffffffffffff021916908373ffffffffffffffffffffffffffffffffffffffff1602179055506106d8806100bb6000396000f3fe6080604052600436106100705760003560e01c806398d5fdca1161004e57806398d5fdca146100f6578063b046c5401461010d578063b60d428814610136578063f36089ec1461014057610070565b80633430a88c14610075578063741bef1a146100a05780638da5cb5b146100cb575b600080fd5b34801561008157600080fd5b5061008a610157565b6040516100979190610362565b60405180910390f35b3480156100ac57600080fd5b506100b561015d565b6040516100c291906103fc565b60405180910390f35b3480156100d757600080fd5b506100e0610183565b6040516100ed9190610438565b60405180910390f35b34801561010257600080fd5b5061010b6101a9565b005b34801561011957600080fd5b50610134600480360381019061012f9190610484565b610262565b005b61013e6102fe565b005b34801561014c57600080fd5b50610155610347565b005b60005481565b600260009054906101000a900473ffffffffffffffffffffffffffffffffffffffff1681565b600160009054906101000a900473ffffffffffffffffffffffffffffffffffffffff1681565b6000806000806000600260009054906101000a900473ffffffffffffffffffffffffffffffffffffffff1673ffffffffffffffffffffffffffffffffffffffff1663feaf968c6040518163ffffffff1660e01b815260040160a06040518083038186803b15801561021957600080fd5b505afa15801561022d573d6000803e3d6000fd5b505050506040513d601f19601f82011682018060405250810190610251919061053e565b945094509450945094505050505050565b338073ffffffffffffffffffffffffffffffffffffffff16600160009054906101000a900473ffffffffffffffffffffffffffffffffffffffff1673ffffffffffffffffffffffffffffffffffffffff16146102f3576040517f08c379a00000000000000000000000000000000000000000000000000000000081526004016102ea90610616565b60405180910390fd5b816000819055505050565b34600054811015610344576040517f08c379a000000000000000000000000000000000000000000000000000000000815260040161033b90610682565b60405180910390fd5b50565b565b6000819050919050565b61035c81610349565b82525050565b60006020820190506103776000830184610353565b92915050565b600073ffffffffffffffffffffffffffffffffffffffff82169050919050565b6000819050919050565b60006103c26103bd6103b88461037d565b61039d565b61037d565b9050919050565b60006103d4826103a7565b9050919050565b60006103e6826103c9565b9050919050565b6103f6816103db565b82525050565b600060208201905061041160008301846103ed565b92915050565b60006104228261037d565b9050919050565b61043281610417565b82525050565b600060208201905061044d6000830184610429565b92915050565b600080fd5b61046181610349565b811461046c57600080fd5b50565b60008135905061047e81610458565b92915050565b60006020828403121561049a57610499610453565b5b60006104a88482850161046f565b91505092915050565b600069ffffffffffffffffffff82169050919050565b6104d0816104b1565b81146104db57600080fd5b50565b6000815190506104ed816104c7565b92915050565b6000819050919050565b610506816104f3565b811461051157600080fd5b50565b600081519050610523816104fd565b92915050565b60008151905061053881610458565b92915050565b600080600080600060a0868803121561055a57610559610453565b5b6000610568888289016104de565b955050602061057988828901610514565b945050604061058a88828901610529565b935050606061059b88828901610529565b92505060806105ac888289016104de565b9150509295509295909350565b600082825260208201905092915050565b7f6f6e6c7920746865206f776e6572000000000000000000000000000000000000600082015250565b6000610600600e836105b9565b915061060b826105ca565b602082019050919050565b6000602082019050818103600083015261062f816105f3565b9050919050565b7f4469646e27742073656e6420656e6f7567680000000000000000000000000000600082015250565b600061066c6012836105b9565b915061067782610636565b602082019050919050565b6000602082019050818103600083015261069b8161065f565b905091905056fea26469706673582212209c43aca881e4d4dae50c1bb2543718ab8cfd5c4eb9d19d7d00586951900f94bb64736f6c63430008080033",
					"opcodes": "PUSH1 0x80 PUSH1 0x40 MSTORE PUSH1 0x2 PUSH1 0x0 SSTORE CALLVALUE DUP1 ISZERO PUSH2 0x15 JUMPI PUSH1 0x0 DUP1 REVERT JUMPDEST POP CALLER PUSH1 0x1 PUSH1 0x0 PUSH2 0x100 EXP DUP2 SLOAD DUP2 PUSH20 0xFFFFFFFFFFFFFFFFFFFFFFFFFFFFFFFFFFFFFFFF MUL NOT AND SWAP1 DUP4 PUSH20 0xFFFFFFFFFFFFFFFFFFFFFFFFFFFFFFFFFFFFFFFF AND MUL OR SWAP1 SSTORE POP PUSH20 0x8A753747A1FA494EC906CE90E9F37563A8AF630E PUSH1 0x2 PUSH1 0x0 PUSH2 0x100 EXP DUP2 SLOAD DUP2 PUSH20 0xFFFFFFFFFFFFFFFFFFFFFFFFFFFFFFFFFFFFFFFF MUL NOT AND SWAP1 DUP4 PUSH20 0xFFFFFFFFFFFFFFFFFFFFFFFFFFFFFFFFFFFFFFFF AND MUL OR SWAP1 SSTORE POP PUSH2 0x6D8 DUP1 PUSH2 0xBB PUSH1 0x0 CODECOPY PUSH1 0x0 RETURN INVALID PUSH1 0x80 PUSH1 0x40 MSTORE PUSH1 0x4 CALLDATASIZE LT PUSH2 0x70 JUMPI PUSH1 0x0 CALLDATALOAD PUSH1 0xE0 SHR DUP1 PUSH4 0x98D5FDCA GT PUSH2 0x4E JUMPI DUP1 PUSH4 0x98D5FDCA EQ PUSH2 0xF6 JUMPI DUP1 PUSH4 0xB046C540 EQ PUSH2 0x10D JUMPI DUP1 PUSH4 0xB60D4288 EQ PUSH2 0x136 JUMPI DUP1 PUSH4 0xF36089EC EQ PUSH2 0x140 JUMPI PUSH2 0x70 JUMP JUMPDEST DUP1 PUSH4 0x3430A88C EQ PUSH2 0x75 JUMPI DUP1 PUSH4 0x741BEF1A EQ PUSH2 0xA0 JUMPI DUP1 PUSH4 0x8DA5CB5B EQ PUSH2 0xCB JUMPI JUMPDEST PUSH1 0x0 DUP1 REVERT JUMPDEST CALLVALUE DUP1 ISZERO PUSH2 0x81 JUMPI PUSH1 0x0 DUP1 REVERT JUMPDEST POP PUSH2 0x8A PUSH2 0x157 JUMP JUMPDEST PUSH1 0x40 MLOAD PUSH2 0x97 SWAP2 SWAP1 PUSH2 0x362 JUMP JUMPDEST PUSH1 0x40 MLOAD DUP1 SWAP2 SUB SWAP1 RETURN JUMPDEST CALLVALUE DUP1 ISZERO PUSH2 0xAC JUMPI PUSH1 0x0 DUP1 REVERT JUMPDEST POP PUSH2 0xB5 PUSH2 0x15D JUMP JUMPDEST PUSH1 0x40 MLOAD PUSH2 0xC2 SWAP2 SWAP1 PUSH2 0x3FC JUMP JUMPDEST PUSH1 0x40 MLOAD DUP1 SWAP2 SUB SWAP1 RETURN JUMPDEST CALLVALUE DUP1 ISZERO PUSH2 0xD7 JUMPI PUSH1 0x0 DUP1 REVERT JUMPDEST POP PUSH2 0xE0 PUSH2 0x183 JUMP JUMPDEST PUSH1 0x40 MLOAD PUSH2 0xED SWAP2 SWAP1 PUSH2 0x438 JUMP JUMPDEST PUSH1 0x40 MLOAD DUP1 SWAP2 SUB SWAP1 RETURN JUMPDEST CALLVALUE DUP1 ISZERO PUSH2 0x102 JUMPI PUSH1 0x0 DUP1 REVERT JUMPDEST POP PUSH2 0x10B PUSH2 0x1A9 JUMP JUMPDEST STOP JUMPDEST CALLVALUE DUP1 ISZERO PUSH2 0x119 JUMPI PUSH1 0x0 DUP1 REVERT JUMPDEST POP PUSH2 0x134 PUSH1 0x4 DUP1 CALLDATASIZE SUB DUP2 ADD SWAP1 PUSH2 0x12F SWAP2 SWAP1 PUSH2 0x484 JUMP JUMPDEST PUSH2 0x262 JUMP JUMPDEST STOP JUMPDEST PUSH2 0x13E PUSH2 0x2FE JUMP JUMPDEST STOP JUMPDEST CALLVALUE DUP1 ISZERO PUSH2 0x14C JUMPI PUSH1 0x0 DUP1 REVERT JUMPDEST POP PUSH2 0x155 PUSH2 0x347 JUMP JUMPDEST STOP JUMPDEST PUSH1 0x0 SLOAD DUP2 JUMP JUMPDEST PUSH1 0x2 PUSH1 0x0 SWAP1 SLOAD SWAP1 PUSH2 0x100 EXP SWAP1 DIV PUSH20 0xFFFFFFFFFFFFFFFFFFFFFFFFFFFFFFFFFFFFFFFF AND DUP2 JUMP JUMPDEST PUSH1 0x1 PUSH1 0x0 SWAP1 SLOAD SWAP1 PUSH2 0x100 EXP SWAP1 DIV PUSH20 0xFFFFFFFFFFFFFFFFFFFFFFFFFFFFFFFFFFFFFFFF AND DUP2 JUMP JUMPDEST PUSH1 0x0 DUP1 PUSH1 0x0 DUP1 PUSH1 0x0 PUSH1 0x2 PUSH1 0x0 SWAP1 SLOAD SWAP1 PUSH2 0x100 EXP SWAP1 DIV PUSH20 0xFFFFFFFFFFFFFFFFFFFFFFFFFFFFFFFFFFFFFFFF AND PUSH20 0xFFFFFFFFFFFFFFFFFFFFFFFFFFFFFFFFFFFFFFFF AND PUSH4 0xFEAF968C PUSH1 0x40 MLOAD DUP2 PUSH4 0xFFFFFFFF AND PUSH1 0xE0 SHL DUP2 MSTORE PUSH1 0x4 ADD PUSH1 0xA0 PUSH1 0x40 MLOAD DUP1 DUP4 SUB DUP2 DUP7 DUP1 EXTCODESIZE ISZERO DUP1 ISZERO PUSH2 0x219 JUMPI PUSH1 0x0 DUP1 REVERT JUMPDEST POP GAS STATICCALL ISZERO DUP1 ISZERO PUSH2 0x22D JUMPI RETURNDATASIZE PUSH1 0x0 DUP1 RETURNDATACOPY RETURNDATASIZE PUSH1 0x0 REVERT JUMPDEST POP POP POP POP PUSH1 0x40 MLOAD RETURNDATASIZE PUSH1 0x1F NOT PUSH1 0x1F DUP3 ADD AND DUP3 ADD DUP1 PUSH1 0x40 MSTORE POP DUP2 ADD SWAP1 PUSH2 0x251 SWAP2 SWAP1 PUSH2 0x53E JUMP JUMPDEST SWAP5 POP SWAP5 POP SWAP5 POP SWAP5 POP SWAP5 POP POP POP POP POP POP JUMP JUMPDEST CALLER DUP1 PUSH20 0xFFFFFFFFFFFFFFFFFFFFFFFFFFFFFFFFFFFFFFFF AND PUSH1 0x1 PUSH1 0x0 SWAP1 SLOAD SWAP1 PUSH2 0x100 EXP SWAP1 DIV PUSH20 0xFFFFFFFFFFFFFFFFFFFFFFFFFFFFFFFFFFFFFFFF AND PUSH20 0xFFFFFFFFFFFFFFFFFFFFFFFFFFFFFFFFFFFFFFFF AND EQ PUSH2 0x2F3 JUMPI PUSH1 0x40 MLOAD PUSH32 0x8C379A000000000000000000000000000000000000000000000000000000000 DUP2 MSTORE PUSH1 0x4 ADD PUSH2 0x2EA SWAP1 PUSH2 0x616 JUMP JUMPDEST PUSH1 0x40 MLOAD DUP1 SWAP2 SUB SWAP1 REVERT JUMPDEST DUP2 PUSH1 0x0 DUP2 SWAP1 SSTORE POP POP POP JUMP JUMPDEST CALLVALUE PUSH1 0x0 SLOAD DUP2 LT ISZERO PUSH2 0x344 JUMPI PUSH1 0x40 MLOAD PUSH32 0x8C379A000000000000000000000000000000000000000000000000000000000 DUP2 MSTORE PUSH1 0x4 ADD PUSH2 0x33B SWAP1 PUSH2 0x682 JUMP JUMPDEST PUSH1 0x40 MLOAD DUP1 SWAP2 SUB SWAP1 REVERT JUMPDEST POP JUMP JUMPDEST JUMP JUMPDEST PUSH1 0x0 DUP2 SWAP1 POP SWAP2 SWAP1 POP JUMP JUMPDEST PUSH2 0x35C DUP2 PUSH2 0x349 JUMP JUMPDEST DUP3 MSTORE POP POP JUMP JUMPDEST PUSH1 0x0 PUSH1 0x20 DUP3 ADD SWAP1 POP PUSH2 0x377 PUSH1 0x0 DUP4 ADD DUP5 PUSH2 0x353 JUMP JUMPDEST SWAP3 SWAP2 POP POP JUMP JUMPDEST PUSH1 0x0 PUSH20 0xFFFFFFFFFFFFFFFFFFFFFFFFFFFFFFFFFFFFFFFF DUP3 AND SWAP1 POP SWAP2 SWAP1 POP JUMP JUMPDEST PUSH1 0x0 DUP2 SWAP1 POP SWAP2 SWAP1 POP JUMP JUMPDEST PUSH1 0x0 PUSH2 0x3C2 PUSH2 0x3BD PUSH2 0x3B8 DUP5 PUSH2 0x37D JUMP JUMPDEST PUSH2 0x39D JUMP JUMPDEST PUSH2 0x37D JUMP JUMPDEST SWAP1 POP SWAP2 SWAP1 POP JUMP JUMPDEST PUSH1 0x0 PUSH2 0x3D4 DUP3 PUSH2 0x3A7 JUMP JUMPDEST SWAP1 POP SWAP2 SWAP1 POP JUMP JUMPDEST PUSH1 0x0 PUSH2 0x3E6 DUP3 PUSH2 0x3C9 JUMP JUMPDEST SWAP1 POP SWAP2 SWAP1 POP JUMP JUMPDEST PUSH2 0x3F6 DUP2 PUSH2 0x3DB JUMP JUMPDEST DUP3 MSTORE POP POP JUMP JUMPDEST PUSH1 0x0 PUSH1 0x20 DUP3 ADD SWAP1 POP PUSH2 0x411 PUSH1 0x0 DUP4 ADD DUP5 PUSH2 0x3ED JUMP JUMPDEST SWAP3 SWAP2 POP POP JUMP JUMPDEST PUSH1 0x0 PUSH2 0x422 DUP3 PUSH2 0x37D JUMP JUMPDEST SWAP1 POP SWAP2 SWAP1 POP JUMP JUMPDEST PUSH2 0x432 DUP2 PUSH2 0x417 JUMP JUMPDEST DUP3 MSTORE POP POP JUMP JUMPDEST PUSH1 0x0 PUSH1 0x20 DUP3 ADD SWAP1 POP PUSH2 0x44D PUSH1 0x0 DUP4 ADD DUP5 PUSH2 0x429 JUMP JUMPDEST SWAP3 SWAP2 POP POP JUMP JUMPDEST PUSH1 0x0 DUP1 REVERT JUMPDEST PUSH2 0x461 DUP2 PUSH2 0x349 JUMP JUMPDEST DUP2 EQ PUSH2 0x46C JUMPI PUSH1 0x0 DUP1 REVERT JUMPDEST POP JUMP JUMPDEST PUSH1 0x0 DUP2 CALLDATALOAD SWAP1 POP PUSH2 0x47E DUP2 PUSH2 0x458 JUMP JUMPDEST SWAP3 SWAP2 POP POP JUMP JUMPDEST PUSH1 0x0 PUSH1 0x20 DUP3 DUP5 SUB SLT ISZERO PUSH2 0x49A JUMPI PUSH2 0x499 PUSH2 0x453 JUMP JUMPDEST JUMPDEST PUSH1 0x0 PUSH2 0x4A8 DUP5 DUP3 DUP6 ADD PUSH2 0x46F JUMP JUMPDEST SWAP2 POP POP SWAP3 SWAP2 POP POP JUMP JUMPDEST PUSH1 0x0 PUSH10 0xFFFFFFFFFFFFFFFFFFFF DUP3 AND SWAP1 POP SWAP2 SWAP1 POP JUMP JUMPDEST PUSH2 0x4D0 DUP2 PUSH2 0x4B1 JUMP JUMPDEST DUP2 EQ PUSH2 0x4DB JUMPI PUSH1 0x0 DUP1 REVERT JUMPDEST POP JUMP JUMPDEST PUSH1 0x0 DUP2 MLOAD SWAP1 POP PUSH2 0x4ED DUP2 PUSH2 0x4C7 JUMP JUMPDEST SWAP3 SWAP2 POP POP JUMP JUMPDEST PUSH1 0x0 DUP2 SWAP1 POP SWAP2 SWAP1 POP JUMP JUMPDEST PUSH2 0x506 DUP2 PUSH2 0x4F3 JUMP JUMPDEST DUP2 EQ PUSH2 0x511 JUMPI PUSH1 0x0 DUP1 REVERT JUMPDEST POP JUMP JUMPDEST PUSH1 0x0 DUP2 MLOAD SWAP1 POP PUSH2 0x523 DUP2 PUSH2 0x4FD JUMP JUMPDEST SWAP3 SWAP2 POP POP JUMP JUMPDEST PUSH1 0x0 DUP2 MLOAD SWAP1 POP PUSH2 0x538 DUP2 PUSH2 0x458 JUMP JUMPDEST SWAP3 SWAP2 POP POP JUMP JUMPDEST PUSH1 0x0 DUP1 PUSH1 0x0 DUP1 PUSH1 0x0 PUSH1 0xA0 DUP7 DUP9 SUB SLT ISZERO PUSH2 0x55A JUMPI PUSH2 0x559 PUSH2 0x453 JUMP JUMPDEST JUMPDEST PUSH1 0x0 PUSH2 0x568 DUP9 DUP3 DUP10 ADD PUSH2 0x4DE JUMP JUMPDEST SWAP6 POP POP PUSH1 0x20 PUSH2 0x579 DUP9 DUP3 DUP10 ADD PUSH2 0x514 JUMP JUMPDEST SWAP5 POP POP PUSH1 0x40 PUSH2 0x58A DUP9 DUP3 DUP10 ADD PUSH2 0x529 JUMP JUMPDEST SWAP4 POP POP PUSH1 0x60 PUSH2 0x59B DUP9 DUP3 DUP10 ADD PUSH2 0x529 JUMP JUMPDEST SWAP3 POP POP PUSH1 0x80 PUSH2 0x5AC DUP9 DUP3 DUP10 ADD PUSH2 0x4DE JUMP JUMPDEST SWAP2 POP POP SWAP3 SWAP6 POP SWAP3 SWAP6 SWAP1 SWAP4 POP JUMP JUMPDEST PUSH1 0x0 DUP3 DUP3 MSTORE PUSH1 0x20 DUP3 ADD SWAP1 POP SWAP3 SWAP2 POP POP JUMP JUMPDEST PUSH32 0x6F6E6C7920746865206F776E6572000000000000000000000000000000000000 PUSH1 0x0 DUP3 ADD MSTORE POP JUMP JUMPDEST PUSH1 0x0 PUSH2 0x600 PUSH1 0xE DUP4 PUSH2 0x5B9 JUMP JUMPDEST SWAP2 POP PUSH2 0x60B DUP3 PUSH2 0x5CA JUMP JUMPDEST PUSH1 0x20 DUP3 ADD SWAP1 POP SWAP2 SWAP1 POP JUMP JUMPDEST PUSH1 0x0 PUSH1 0x20 DUP3 ADD SWAP1 POP DUP2 DUP2 SUB PUSH1 0x0 DUP4 ADD MSTORE PUSH2 0x62F DUP2 PUSH2 0x5F3 JUMP JUMPDEST SWAP1 POP SWAP2 SWAP1 POP JUMP JUMPDEST PUSH32 0x4469646E27742073656E6420656E6F7567680000000000000000000000000000 PUSH1 0x0 DUP3 ADD MSTORE POP JUMP JUMPDEST PUSH1 0x0 PUSH2 0x66C PUSH1 0x12 DUP4 PUSH2 0x5B9 JUMP JUMPDEST SWAP2 POP PUSH2 0x677 DUP3 PUSH2 0x636 JUMP JUMPDEST PUSH1 0x20 DUP3 ADD SWAP1 POP SWAP2 SWAP1 POP JUMP JUMPDEST PUSH1 0x0 PUSH1 0x20 DUP3 ADD SWAP1 POP DUP2 DUP2 SUB PUSH1 0x0 DUP4 ADD MSTORE PUSH2 0x69B DUP2 PUSH2 0x65F JUMP JUMPDEST SWAP1 POP SWAP2 SWAP1 POP JUMP INVALID LOG2 PUSH5 0x6970667358 0x22 SLT KECCAK256 SWAP13 NUMBER 0xAC 0xA8 DUP2 0xE4 0xD4 0xDA 0xE5 0xC SHL 0xB2 SLOAD CALLDATACOPY XOR 0xAB DUP13 REVERT 0x5C 0x4E 0xB9 0xD1 SWAP14 PUSH30 0x586951900F94BB64736F6C634300080800330000000000000000000000 "
				},
				"gasEstimates": {
					"creation": {
						"codeDepositCost": "350400",
						"executionCost": "71025",
						"totalCost": "421425"
					},
					"external": {
						"fund()": "2581",
						"getConversionRate()": "210",
						"getPrice()": "infinite",
						"minimumUSD()": "2430",
						"owner()": "2559",
						"priceFeed()": "infinite",
						"setMinimumUSD(uint256)": "24717"
					}
				},
				"methodIdentifiers": {
					"fund()": "b60d4288",
					"getConversionRate()": "f36089ec",
					"getPrice()": "98d5fdca",
					"minimumUSD()": "3430a88c",
					"owner()": "8da5cb5b",
					"priceFeed()": "741bef1a",
					"setMinimumUSD(uint256)": "b046c540"
				}
			},
			"storageLayout": {
				"storage": [
					{
						"astId": 62,
						"contract": "Contract  ^0.8.8/FundMe.sol:FundMe",
						"label": "minimumUSD",
						"offset": 0,
						"slot": "0",
						"type": "t_uint256"
					},
					{
						"astId": 64,
						"contract": "Contract  ^0.8.8/FundMe.sol:FundMe",
						"label": "owner",
						"offset": 0,
						"slot": "1",
						"type": "t_address"
					},
					{
						"astId": 67,
						"contract": "Contract  ^0.8.8/FundMe.sol:FundMe",
						"label": "priceFeed",
						"offset": 0,
						"slot": "2",
						"type": "t_contract(AggregatorV3Interface)45"
					}
				],
				"types": {
					"t_address": {
						"encoding": "inplace",
						"label": "address",
						"numberOfBytes": "20"
					},
					"t_contract(AggregatorV3Interface)45": {
						"encoding": "inplace",
						"label": "contract AggregatorV3Interface",
						"numberOfBytes": "20"
					},
					"t_uint256": {
						"encoding": "inplace",
						"label": "uint256",
						"numberOfBytes": "32"
					}
				}
			},
			"userdoc": {
				"kind": "user",
				"methods": {},
				"version": 1
			}
		}
	}
}