{
	"Contract  ^0.8.8/TestContract.sol": {
		"Test": {
			"abi": [
				{
					"inputs": [],
					"name": "mytest",
					"outputs": [
						{
							"internalType": "uint256",
							"name": "hello",
							"type": "uint256"
						},
						{
							"internalType": "uint8",
							"name": "decimalNum",
							"type": "uint8"
						}
					],
					"stateMutability": "view",
					"type": "function"
				},
				{
					"inputs": [],
					"name": "setMytest",
					"outputs": [],
					"stateMutability": "nonpayable",
					"type": "function"
				}
			],
			"devdoc": {
				"kind": "dev",
				"methods": {},
				"version": 1
			},
			"evm": {
				"assembly": "    /* \"Contract  ^0.8.8/TestContract.sol\":133:1248  contract Test{... */\n  mstore(0x40, 0x80)\n  callvalue\n  dup1\n  iszero\n  tag_1\n  jumpi\n  0x00\n  dup1\n  revert\ntag_1:\n  pop\n  dataSize(sub_0)\n  dup1\n  dataOffset(sub_0)\n  0x00\n  codecopy\n  0x00\n  return\nstop\n\nsub_0: assembly {\n        /* \"Contract  ^0.8.8/TestContract.sol\":133:1248  contract Test{... */\n      mstore(0x40, 0x80)\n      callvalue\n      dup1\n      iszero\n      tag_1\n      jumpi\n      0x00\n      dup1\n      revert\n    tag_1:\n      pop\n      jumpi(tag_2, lt(calldatasize, 0x04))\n      shr(0xe0, calldataload(0x00))\n      dup1\n      0x76e55338\n      eq\n      tag_3\n      jumpi\n      dup1\n      0xe465b7e6\n      eq\n      tag_4\n      jumpi\n    tag_2:\n      0x00\n      dup1\n      revert\n        /* \"Contract  ^0.8.8/TestContract.sol\":328:347  Price public mytest */\n    tag_3:\n      tag_5\n      tag_6\n      jump\t// in\n    tag_5:\n      mload(0x40)\n      tag_7\n      swap3\n      swap2\n      swap1\n      tag_8\n      jump\t// in\n    tag_7:\n      mload(0x40)\n      dup1\n      swap2\n      sub\n      swap1\n      return\n        /* \"Contract  ^0.8.8/TestContract.sol\":949:1246  function setMytest() public{... */\n    tag_4:\n      tag_9\n      tag_10\n      jump\t// in\n    tag_9:\n      stop\n        /* \"Contract  ^0.8.8/TestContract.sol\":328:347  Price public mytest */\n    tag_6:\n      0x00\n      dup1\n      0x00\n      add\n      sload\n      swap1\n      dup1\n      0x01\n      add\n      0x00\n      swap1\n      sload\n      swap1\n      0x0100\n      exp\n      swap1\n      div\n      0xff\n      and\n      swap1\n      pop\n      dup3\n      jump\t// out\n        /* \"Contract  ^0.8.8/TestContract.sol\":949:1246  function setMytest() public{... */\n    tag_10:\n        /* \"Contract  ^0.8.8/TestContract.sol\":988:1000  int256 price */\n      0x00\n        /* \"Contract  ^0.8.8/TestContract.sol\":1028:1070  0x8A753747A1Fa494EC906cE90E9f37563A8AF630e */\n      0x8a753747a1fa494ec906ce90e9f37563a8af630e\n        /* \"Contract  ^0.8.8/TestContract.sol\":1006:1087  AggregatorV3Interface(0x8A753747A1Fa494EC906cE90E9f37563A8AF630e).latestRoundData */\n      0xffffffffffffffffffffffffffffffffffffffff\n      and\n      0xfeaf968c\n        /* \"Contract  ^0.8.8/TestContract.sol\":1006:1089  AggregatorV3Interface(0x8A753747A1Fa494EC906cE90E9f37563A8AF630e).latestRoundData() */\n      mload(0x40)\n      dup2\n      0xffffffff\n      and\n      0xe0\n      shl\n      dup2\n      mstore\n      0x04\n      add\n      0xa0\n      mload(0x40)\n      dup1\n      dup4\n      sub\n      dup2\n      dup7\n      dup1\n      extcodesize\n      iszero\n      dup1\n      iszero\n      tag_12\n      jumpi\n      0x00\n      dup1\n      revert\n    tag_12:\n      pop\n      gas\n      staticcall\n      iszero\n      dup1\n      iszero\n      tag_14\n      jumpi\n      returndatasize\n      0x00\n      dup1\n      returndatacopy\n      revert(0x00, returndatasize)\n    tag_14:\n      pop\n      pop\n      pop\n      pop\n      mload(0x40)\n      returndatasize\n      not(0x1f)\n      0x1f\n      dup3\n      add\n      and\n      dup3\n      add\n      dup1\n      0x40\n      mstore\n      pop\n      dup2\n      add\n      swap1\n      tag_15\n      swap2\n      swap1\n      tag_16\n      jump\t// in\n    tag_15:\n        /* \"Contract  ^0.8.8/TestContract.sol\":986:1089  (,int256 price,,,) =AggregatorV3Interface(0x8A753747A1Fa494EC906cE90E9f37563A8AF630e).latestRoundData() */\n      pop\n      pop\n      pop\n      swap2\n      pop\n      pop\n        /* \"Contract  ^0.8.8/TestContract.sol\":1130:1134  1e10 */\n      0x02540be400\n        /* \"Contract  ^0.8.8/TestContract.sol\":1122:1127  price */\n      dup2\n        /* \"Contract  ^0.8.8/TestContract.sol\":1122:1134  price * 1e10 */\n      tag_17\n      swap2\n      swap1\n      tag_18\n      jump\t// in\n    tag_17:\n        /* \"Contract  ^0.8.8/TestContract.sol\":1099:1105  mytest */\n      0x00\n        /* \"Contract  ^0.8.8/TestContract.sol\":1099:1111  mytest.hello */\n      dup1\n      add\n        /* \"Contract  ^0.8.8/TestContract.sol\":1099:1135  mytest.hello = uint256(price * 1e10) */\n      dup2\n      swap1\n      sstore\n      pop\n        /* \"Contract  ^0.8.8/TestContract.sol\":1185:1227  0x8A753747A1Fa494EC906cE90E9f37563A8AF630e */\n      0x8a753747a1fa494ec906ce90e9f37563a8af630e\n        /* \"Contract  ^0.8.8/TestContract.sol\":1163:1237  AggregatorV3Interface(0x8A753747A1Fa494EC906cE90E9f37563A8AF630e).decimals */\n      0xffffffffffffffffffffffffffffffffffffffff\n      and\n      0x313ce567\n        /* \"Contract  ^0.8.8/TestContract.sol\":1163:1239  AggregatorV3Interface(0x8A753747A1Fa494EC906cE90E9f37563A8AF630e).decimals() */\n      mload(0x40)\n      dup2\n      0xffffffff\n      and\n      0xe0\n      shl\n      dup2\n      mstore\n      0x04\n      add\n      0x20\n      mload(0x40)\n      dup1\n      dup4\n      sub\n      dup2\n      dup7\n      dup1\n      extcodesize\n      iszero\n      dup1\n      iszero\n      tag_19\n      jumpi\n      0x00\n      dup1\n      revert\n    tag_19:\n      pop\n      gas\n      staticcall\n      iszero\n      dup1\n      iszero\n      tag_21\n      jumpi\n      returndatasize\n      0x00\n      dup1\n      returndatacopy\n      revert(0x00, returndatasize)\n    tag_21:\n      pop\n      pop\n      pop\n      pop\n      mload(0x40)\n      returndatasize\n      not(0x1f)\n      0x1f\n      dup3\n      add\n      and\n      dup3\n      add\n      dup1\n      0x40\n      mstore\n      pop\n      dup2\n      add\n      swap1\n      tag_22\n      swap2\n      swap1\n      tag_23\n      jump\t// in\n    tag_22:\n        /* \"Contract  ^0.8.8/TestContract.sol\":1145:1151  mytest */\n      0x00\n        /* \"Contract  ^0.8.8/TestContract.sol\":1145:1162  mytest.decimalNum */\n      0x01\n      add\n      0x00\n        /* \"Contract  ^0.8.8/TestContract.sol\":1145:1239  mytest.decimalNum=AggregatorV3Interface(0x8A753747A1Fa494EC906cE90E9f37563A8AF630e).decimals() */\n      0x0100\n      exp\n      dup2\n      sload\n      dup2\n      0xff\n      mul\n      not\n      and\n      swap1\n      dup4\n      0xff\n      and\n      mul\n      or\n      swap1\n      sstore\n      pop\n        /* \"Contract  ^0.8.8/TestContract.sol\":976:1246  {... */\n      pop\n        /* \"Contract  ^0.8.8/TestContract.sol\":949:1246  function setMytest() public{... */\n      jump\t// out\n        /* \"#utility.yul\":7:84   */\n    tag_24:\n        /* \"#utility.yul\":44:51   */\n      0x00\n        /* \"#utility.yul\":73:78   */\n      dup2\n        /* \"#utility.yul\":62:78   */\n      swap1\n      pop\n        /* \"#utility.yul\":7:84   */\n      swap2\n      swap1\n      pop\n      jump\t// out\n        /* \"#utility.yul\":90:208   */\n    tag_25:\n        /* \"#utility.yul\":177:201   */\n      tag_45\n        /* \"#utility.yul\":195:200   */\n      dup2\n        /* \"#utility.yul\":177:201   */\n      tag_24\n      jump\t// in\n    tag_45:\n        /* \"#utility.yul\":172:175   */\n      dup3\n        /* \"#utility.yul\":165:202   */\n      mstore\n        /* \"#utility.yul\":90:208   */\n      pop\n      pop\n      jump\t// out\n        /* \"#utility.yul\":214:300   */\n    tag_26:\n        /* \"#utility.yul\":249:256   */\n      0x00\n        /* \"#utility.yul\":289:293   */\n      0xff\n        /* \"#utility.yul\":282:287   */\n      dup3\n        /* \"#utility.yul\":278:294   */\n      and\n        /* \"#utility.yul\":267:294   */\n      swap1\n      pop\n        /* \"#utility.yul\":214:300   */\n      swap2\n      swap1\n      pop\n      jump\t// out\n        /* \"#utility.yul\":306:418   */\n    tag_27:\n        /* \"#utility.yul\":389:411   */\n      tag_48\n        /* \"#utility.yul\":405:410   */\n      dup2\n        /* \"#utility.yul\":389:411   */\n      tag_26\n      jump\t// in\n    tag_48:\n        /* \"#utility.yul\":384:387   */\n      dup3\n        /* \"#utility.yul\":377:412   */\n      mstore\n        /* \"#utility.yul\":306:418   */\n      pop\n      pop\n      jump\t// out\n        /* \"#utility.yul\":424:748   */\n    tag_8:\n        /* \"#utility.yul\":541:545   */\n      0x00\n        /* \"#utility.yul\":579:581   */\n      0x40\n        /* \"#utility.yul\":568:577   */\n      dup3\n        /* \"#utility.yul\":564:582   */\n      add\n        /* \"#utility.yul\":556:582   */\n      swap1\n      pop\n        /* \"#utility.yul\":592:663   */\n      tag_50\n        /* \"#utility.yul\":660:661   */\n      0x00\n        /* \"#utility.yul\":649:658   */\n      dup4\n        /* \"#utility.yul\":645:662   */\n      add\n        /* \"#utility.yul\":636:642   */\n      dup6\n        /* \"#utility.yul\":592:663   */\n      tag_25\n      jump\t// in\n    tag_50:\n        /* \"#utility.yul\":673:741   */\n      tag_51\n        /* \"#utility.yul\":737:739   */\n      0x20\n        /* \"#utility.yul\":726:735   */\n      dup4\n        /* \"#utility.yul\":722:740   */\n      add\n        /* \"#utility.yul\":713:719   */\n      dup5\n        /* \"#utility.yul\":673:741   */\n      tag_27\n      jump\t// in\n    tag_51:\n        /* \"#utility.yul\":424:748   */\n      swap4\n      swap3\n      pop\n      pop\n      pop\n      jump\t// out\n        /* \"#utility.yul\":835:952   */\n    tag_29:\n        /* \"#utility.yul\":944:945   */\n      0x00\n        /* \"#utility.yul\":941:942   */\n      dup1\n        /* \"#utility.yul\":934:946   */\n      revert\n        /* \"#utility.yul\":1081:1186   */\n    tag_31:\n        /* \"#utility.yul\":1117:1124   */\n      0x00\n        /* \"#utility.yul\":1157:1179   */\n      0xffffffffffffffffffff\n        /* \"#utility.yul\":1150:1155   */\n      dup3\n        /* \"#utility.yul\":1146:1180   */\n      and\n        /* \"#utility.yul\":1135:1180   */\n      swap1\n      pop\n        /* \"#utility.yul\":1081:1186   */\n      swap2\n      swap1\n      pop\n      jump\t// out\n        /* \"#utility.yul\":1192:1312   */\n    tag_32:\n        /* \"#utility.yul\":1264:1287   */\n      tag_57\n        /* \"#utility.yul\":1281:1286   */\n      dup2\n        /* \"#utility.yul\":1264:1287   */\n      tag_31\n      jump\t// in\n    tag_57:\n        /* \"#utility.yul\":1257:1262   */\n      dup2\n        /* \"#utility.yul\":1254:1288   */\n      eq\n        /* \"#utility.yul\":1244:1306   */\n      tag_58\n      jumpi\n        /* \"#utility.yul\":1302:1303   */\n      0x00\n        /* \"#utility.yul\":1299:1300   */\n      dup1\n        /* \"#utility.yul\":1292:1304   */\n      revert\n        /* \"#utility.yul\":1244:1306   */\n    tag_58:\n        /* \"#utility.yul\":1192:1312   */\n      pop\n      jump\t// out\n        /* \"#utility.yul\":1318:1459   */\n    tag_33:\n        /* \"#utility.yul\":1374:1379   */\n      0x00\n        /* \"#utility.yul\":1405:1411   */\n      dup2\n        /* \"#utility.yul\":1399:1412   */\n      mload\n        /* \"#utility.yul\":1390:1412   */\n      swap1\n      pop\n        /* \"#utility.yul\":1421:1453   */\n      tag_60\n        /* \"#utility.yul\":1447:1452   */\n      dup2\n        /* \"#utility.yul\":1421:1453   */\n      tag_32\n      jump\t// in\n    tag_60:\n        /* \"#utility.yul\":1318:1459   */\n      swap3\n      swap2\n      pop\n      pop\n      jump\t// out\n        /* \"#utility.yul\":1465:1541   */\n    tag_34:\n        /* \"#utility.yul\":1501:1508   */\n      0x00\n        /* \"#utility.yul\":1530:1535   */\n      dup2\n        /* \"#utility.yul\":1519:1535   */\n      swap1\n      pop\n        /* \"#utility.yul\":1465:1541   */\n      swap2\n      swap1\n      pop\n      jump\t// out\n        /* \"#utility.yul\":1547:1667   */\n    tag_35:\n        /* \"#utility.yul\":1619:1642   */\n      tag_63\n        /* \"#utility.yul\":1636:1641   */\n      dup2\n        /* \"#utility.yul\":1619:1642   */\n      tag_34\n      jump\t// in\n    tag_63:\n        /* \"#utility.yul\":1612:1617   */\n      dup2\n        /* \"#utility.yul\":1609:1643   */\n      eq\n        /* \"#utility.yul\":1599:1661   */\n      tag_64\n      jumpi\n        /* \"#utility.yul\":1657:1658   */\n      0x00\n        /* \"#utility.yul\":1654:1655   */\n      dup1\n        /* \"#utility.yul\":1647:1659   */\n      revert\n        /* \"#utility.yul\":1599:1661   */\n    tag_64:\n        /* \"#utility.yul\":1547:1667   */\n      pop\n      jump\t// out\n        /* \"#utility.yul\":1673:1814   */\n    tag_36:\n        /* \"#utility.yul\":1729:1734   */\n      0x00\n        /* \"#utility.yul\":1760:1766   */\n      dup2\n        /* \"#utility.yul\":1754:1767   */\n      mload\n        /* \"#utility.yul\":1745:1767   */\n      swap1\n      pop\n        /* \"#utility.yul\":1776:1808   */\n      tag_66\n        /* \"#utility.yul\":1802:1807   */\n      dup2\n        /* \"#utility.yul\":1776:1808   */\n      tag_35\n      jump\t// in\n    tag_66:\n        /* \"#utility.yul\":1673:1814   */\n      swap3\n      swap2\n      pop\n      pop\n      jump\t// out\n        /* \"#utility.yul\":1820:1942   */\n    tag_37:\n        /* \"#utility.yul\":1893:1917   */\n      tag_68\n        /* \"#utility.yul\":1911:1916   */\n      dup2\n        /* \"#utility.yul\":1893:1917   */\n      tag_24\n      jump\t// in\n    tag_68:\n        /* \"#utility.yul\":1886:1891   */\n      dup2\n        /* \"#utility.yul\":1883:1918   */\n      eq\n        /* \"#utility.yul\":1873:1936   */\n      tag_69\n      jumpi\n        /* \"#utility.yul\":1932:1933   */\n      0x00\n        /* \"#utility.yul\":1929:1930   */\n      dup1\n        /* \"#utility.yul\":1922:1934   */\n      revert\n        /* \"#utility.yul\":1873:1936   */\n    tag_69:\n        /* \"#utility.yul\":1820:1942   */\n      pop\n      jump\t// out\n        /* \"#utility.yul\":1948:2091   */\n    tag_38:\n        /* \"#utility.yul\":2005:2010   */\n      0x00\n        /* \"#utility.yul\":2036:2042   */\n      dup2\n        /* \"#utility.yul\":2030:2043   */\n      mload\n        /* \"#utility.yul\":2021:2043   */\n      swap1\n      pop\n        /* \"#utility.yul\":2052:2085   */\n      tag_71\n        /* \"#utility.yul\":2079:2084   */\n      dup2\n        /* \"#utility.yul\":2052:2085   */\n      tag_37\n      jump\t// in\n    tag_71:\n        /* \"#utility.yul\":1948:2091   */\n      swap3\n      swap2\n      pop\n      pop\n      jump\t// out\n        /* \"#utility.yul\":2097:3068   */\n    tag_16:\n        /* \"#utility.yul\":2200:2206   */\n      0x00\n        /* \"#utility.yul\":2208:2214   */\n      dup1\n        /* \"#utility.yul\":2216:2222   */\n      0x00\n        /* \"#utility.yul\":2224:2230   */\n      dup1\n        /* \"#utility.yul\":2232:2238   */\n      0x00\n        /* \"#utility.yul\":2281:2284   */\n      0xa0\n        /* \"#utility.yul\":2269:2278   */\n      dup7\n        /* \"#utility.yul\":2260:2267   */\n      dup9\n        /* \"#utility.yul\":2256:2279   */\n      sub\n        /* \"#utility.yul\":2252:2285   */\n      slt\n        /* \"#utility.yul\":2249:2369   */\n      iszero\n      tag_73\n      jumpi\n        /* \"#utility.yul\":2288:2367   */\n      tag_74\n      tag_29\n      jump\t// in\n    tag_74:\n        /* \"#utility.yul\":2249:2369   */\n    tag_73:\n        /* \"#utility.yul\":2408:2409   */\n      0x00\n        /* \"#utility.yul\":2433:2496   */\n      tag_75\n        /* \"#utility.yul\":2488:2495   */\n      dup9\n        /* \"#utility.yul\":2479:2485   */\n      dup3\n        /* \"#utility.yul\":2468:2477   */\n      dup10\n        /* \"#utility.yul\":2464:2486   */\n      add\n        /* \"#utility.yul\":2433:2496   */\n      tag_33\n      jump\t// in\n    tag_75:\n        /* \"#utility.yul\":2423:2496   */\n      swap6\n      pop\n        /* \"#utility.yul\":2379:2506   */\n      pop\n        /* \"#utility.yul\":2545:2547   */\n      0x20\n        /* \"#utility.yul\":2571:2634   */\n      tag_76\n        /* \"#utility.yul\":2626:2633   */\n      dup9\n        /* \"#utility.yul\":2617:2623   */\n      dup3\n        /* \"#utility.yul\":2606:2615   */\n      dup10\n        /* \"#utility.yul\":2602:2624   */\n      add\n        /* \"#utility.yul\":2571:2634   */\n      tag_36\n      jump\t// in\n    tag_76:\n        /* \"#utility.yul\":2561:2634   */\n      swap5\n      pop\n        /* \"#utility.yul\":2516:2644   */\n      pop\n        /* \"#utility.yul\":2683:2685   */\n      0x40\n        /* \"#utility.yul\":2709:2773   */\n      tag_77\n        /* \"#utility.yul\":2765:2772   */\n      dup9\n        /* \"#utility.yul\":2756:2762   */\n      dup3\n        /* \"#utility.yul\":2745:2754   */\n      dup10\n        /* \"#utility.yul\":2741:2763   */\n      add\n        /* \"#utility.yul\":2709:2773   */\n      tag_38\n      jump\t// in\n    tag_77:\n        /* \"#utility.yul\":2699:2773   */\n      swap4\n      pop\n        /* \"#utility.yul\":2654:2783   */\n      pop\n        /* \"#utility.yul\":2822:2824   */\n      0x60\n        /* \"#utility.yul\":2848:2912   */\n      tag_78\n        /* \"#utility.yul\":2904:2911   */\n      dup9\n        /* \"#utility.yul\":2895:2901   */\n      dup3\n        /* \"#utility.yul\":2884:2893   */\n      dup10\n        /* \"#utility.yul\":2880:2902   */\n      add\n        /* \"#utility.yul\":2848:2912   */\n      tag_38\n      jump\t// in\n    tag_78:\n        /* \"#utility.yul\":2838:2912   */\n      swap3\n      pop\n        /* \"#utility.yul\":2793:2922   */\n      pop\n        /* \"#utility.yul\":2961:2964   */\n      0x80\n        /* \"#utility.yul\":2988:3051   */\n      tag_79\n        /* \"#utility.yul\":3043:3050   */\n      dup9\n        /* \"#utility.yul\":3034:3040   */\n      dup3\n        /* \"#utility.yul\":3023:3032   */\n      dup10\n        /* \"#utility.yul\":3019:3041   */\n      add\n        /* \"#utility.yul\":2988:3051   */\n      tag_33\n      jump\t// in\n    tag_79:\n        /* \"#utility.yul\":2978:3051   */\n      swap2\n      pop\n        /* \"#utility.yul\":2932:3061   */\n      pop\n        /* \"#utility.yul\":2097:3068   */\n      swap3\n      swap6\n      pop\n      swap3\n      swap6\n      swap1\n      swap4\n      pop\n      jump\t// out\n        /* \"#utility.yul\":3074:3254   */\n    tag_39:\n        /* \"#utility.yul\":3122:3199   */\n      0x4e487b7100000000000000000000000000000000000000000000000000000000\n        /* \"#utility.yul\":3119:3120   */\n      0x00\n        /* \"#utility.yul\":3112:3200   */\n      mstore\n        /* \"#utility.yul\":3219:3223   */\n      0x11\n        /* \"#utility.yul\":3216:3217   */\n      0x04\n        /* \"#utility.yul\":3209:3224   */\n      mstore\n        /* \"#utility.yul\":3243:3247   */\n      0x24\n        /* \"#utility.yul\":3240:3241   */\n      0x00\n        /* \"#utility.yul\":3233:3248   */\n      revert\n        /* \"#utility.yul\":3260:4251   */\n    tag_18:\n        /* \"#utility.yul\":3299:3306   */\n      0x00\n        /* \"#utility.yul\":3322:3341   */\n      tag_82\n        /* \"#utility.yul\":3339:3340   */\n      dup3\n        /* \"#utility.yul\":3322:3341   */\n      tag_34\n      jump\t// in\n    tag_82:\n        /* \"#utility.yul\":3317:3341   */\n      swap2\n      pop\n        /* \"#utility.yul\":3355:3374   */\n      tag_83\n        /* \"#utility.yul\":3372:3373   */\n      dup4\n        /* \"#utility.yul\":3355:3374   */\n      tag_34\n      jump\t// in\n    tag_83:\n        /* \"#utility.yul\":3350:3374   */\n      swap3\n      pop\n        /* \"#utility.yul\":3556:3557   */\n      dup3\n        /* \"#utility.yul\":3488:3554   */\n      0x7fffffffffffffffffffffffffffffffffffffffffffffffffffffffffffffff\n        /* \"#utility.yul\":3484:3558   */\n      div\n        /* \"#utility.yul\":3481:3482   */\n      dup3\n        /* \"#utility.yul\":3478:3559   */\n      gt\n        /* \"#utility.yul\":3473:3474   */\n      0x00\n        /* \"#utility.yul\":3470:3471   */\n      dup5\n        /* \"#utility.yul\":3466:3475   */\n      sgt\n        /* \"#utility.yul\":3462:3463   */\n      0x00\n        /* \"#utility.yul\":3459:3460   */\n      dup5\n        /* \"#utility.yul\":3455:3464   */\n      sgt\n        /* \"#utility.yul\":3451:3476   */\n      and\n        /* \"#utility.yul\":3447:3560   */\n      and\n        /* \"#utility.yul\":3444:3583   */\n      iszero\n      tag_84\n      jumpi\n        /* \"#utility.yul\":3563:3581   */\n      tag_85\n      tag_39\n      jump\t// in\n    tag_85:\n        /* \"#utility.yul\":3444:3583   */\n    tag_84:\n        /* \"#utility.yul\":3767:3768   */\n      dup2\n        /* \"#utility.yul\":3699:3765   */\n      0x8000000000000000000000000000000000000000000000000000000000000000\n        /* \"#utility.yul\":3694:3769   */\n      sdiv\n        /* \"#utility.yul\":3691:3692   */\n      dup4\n        /* \"#utility.yul\":3687:3770   */\n      slt\n        /* \"#utility.yul\":3682:3683   */\n      0x00\n        /* \"#utility.yul\":3679:3680   */\n      dup5\n        /* \"#utility.yul\":3675:3684   */\n      slt\n        /* \"#utility.yul\":3671:3672   */\n      0x00\n        /* \"#utility.yul\":3668:3669   */\n      dup5\n        /* \"#utility.yul\":3664:3673   */\n      sgt\n        /* \"#utility.yul\":3660:3685   */\n      and\n        /* \"#utility.yul\":3656:3771   */\n      and\n        /* \"#utility.yul\":3653:3794   */\n      iszero\n      tag_86\n      jumpi\n        /* \"#utility.yul\":3774:3792   */\n      tag_87\n      tag_39\n      jump\t// in\n    tag_87:\n        /* \"#utility.yul\":3653:3794   */\n    tag_86:\n        /* \"#utility.yul\":3978:3979   */\n      dup3\n        /* \"#utility.yul\":3910:3976   */\n      0x8000000000000000000000000000000000000000000000000000000000000000\n        /* \"#utility.yul\":3905:3980   */\n      sdiv\n        /* \"#utility.yul\":3902:3903   */\n      dup3\n        /* \"#utility.yul\":3898:3981   */\n      slt\n        /* \"#utility.yul\":3893:3894   */\n      0x00\n        /* \"#utility.yul\":3890:3891   */\n      dup5\n        /* \"#utility.yul\":3886:3895   */\n      sgt\n        /* \"#utility.yul\":3882:3883   */\n      0x00\n        /* \"#utility.yul\":3879:3880   */\n      dup5\n        /* \"#utility.yul\":3875:3884   */\n      slt\n        /* \"#utility.yul\":3871:3896   */\n      and\n        /* \"#utility.yul\":3867:3982   */\n      and\n        /* \"#utility.yul\":3864:4005   */\n      iszero\n      tag_88\n      jumpi\n        /* \"#utility.yul\":3985:4003   */\n      tag_89\n      tag_39\n      jump\t// in\n    tag_89:\n        /* \"#utility.yul\":3864:4005   */\n    tag_88:\n        /* \"#utility.yul\":4188:4189   */\n      dup3\n        /* \"#utility.yul\":4120:4186   */\n      0x7fffffffffffffffffffffffffffffffffffffffffffffffffffffffffffffff\n        /* \"#utility.yul\":4115:4190   */\n      sdiv\n        /* \"#utility.yul\":4112:4113   */\n      dup3\n        /* \"#utility.yul\":4108:4191   */\n      slt\n        /* \"#utility.yul\":4103:4104   */\n      0x00\n        /* \"#utility.yul\":4100:4101   */\n      dup5\n        /* \"#utility.yul\":4096:4105   */\n      slt\n        /* \"#utility.yul\":4092:4093   */\n      0x00\n        /* \"#utility.yul\":4089:4090   */\n      dup5\n        /* \"#utility.yul\":4085:4094   */\n      slt\n        /* \"#utility.yul\":4081:4106   */\n      and\n        /* \"#utility.yul\":4077:4192   */\n      and\n        /* \"#utility.yul\":4074:4215   */\n      iszero\n      tag_90\n      jumpi\n        /* \"#utility.yul\":4195:4213   */\n      tag_91\n      tag_39\n      jump\t// in\n    tag_91:\n        /* \"#utility.yul\":4074:4215   */\n    tag_90:\n        /* \"#utility.yul\":4243:4244   */\n      dup3\n        /* \"#utility.yul\":4240:4241   */\n      dup3\n        /* \"#utility.yul\":4236:4245   */\n      mul\n        /* \"#utility.yul\":4225:4245   */\n      swap1\n      pop\n        /* \"#utility.yul\":3260:4251   */\n      swap3\n      swap2\n      pop\n      pop\n      jump\t// out\n        /* \"#utility.yul\":4257:4375   */\n    tag_40:\n        /* \"#utility.yul\":4328:4350   */\n      tag_93\n        /* \"#utility.yul\":4344:4349   */\n      dup2\n        /* \"#utility.yul\":4328:4350   */\n      tag_26\n      jump\t// in\n    tag_93:\n        /* \"#utility.yul\":4321:4326   */\n      dup2\n        /* \"#utility.yul\":4318:4351   */\n      eq\n        /* \"#utility.yul\":4308:4369   */\n      tag_94\n      jumpi\n        /* \"#utility.yul\":4365:4366   */\n      0x00\n        /* \"#utility.yul\":4362:4363   */\n      dup1\n        /* \"#utility.yul\":4355:4367   */\n      revert\n        /* \"#utility.yul\":4308:4369   */\n    tag_94:\n        /* \"#utility.yul\":4257:4375   */\n      pop\n      jump\t// out\n        /* \"#utility.yul\":4381:4520   */\n    tag_41:\n        /* \"#utility.yul\":4436:4441   */\n      0x00\n        /* \"#utility.yul\":4467:4473   */\n      dup2\n        /* \"#utility.yul\":4461:4474   */\n      mload\n        /* \"#utility.yul\":4452:4474   */\n      swap1\n      pop\n        /* \"#utility.yul\":4483:4514   */\n      tag_96\n        /* \"#utility.yul\":4508:4513   */\n      dup2\n        /* \"#utility.yul\":4483:4514   */\n      tag_40\n      jump\t// in\n    tag_96:\n        /* \"#utility.yul\":4381:4520   */\n      swap3\n      swap2\n      pop\n      pop\n      jump\t// out\n        /* \"#utility.yul\":4526:4873   */\n    tag_23:\n        /* \"#utility.yul\":4594:4600   */\n      0x00\n        /* \"#utility.yul\":4643:4645   */\n      0x20\n        /* \"#utility.yul\":4631:4640   */\n      dup3\n        /* \"#utility.yul\":4622:4629   */\n      dup5\n        /* \"#utility.yul\":4618:4641   */\n      sub\n        /* \"#utility.yul\":4614:4646   */\n      slt\n        /* \"#utility.yul\":4611:4730   */\n      iszero\n      tag_98\n      jumpi\n        /* \"#utility.yul\":4649:4728   */\n      tag_99\n      tag_29\n      jump\t// in\n    tag_99:\n        /* \"#utility.yul\":4611:4730   */\n    tag_98:\n        /* \"#utility.yul\":4769:4770   */\n      0x00\n        /* \"#utility.yul\":4794:4856   */\n      tag_100\n        /* \"#utility.yul\":4848:4855   */\n      dup5\n        /* \"#utility.yul\":4839:4845   */\n      dup3\n        /* \"#utility.yul\":4828:4837   */\n      dup6\n        /* \"#utility.yul\":4824:4846   */\n      add\n        /* \"#utility.yul\":4794:4856   */\n      tag_41\n      jump\t// in\n    tag_100:\n        /* \"#utility.yul\":4784:4856   */\n      swap2\n      pop\n        /* \"#utility.yul\":4740:4866   */\n      pop\n        /* \"#utility.yul\":4526:4873   */\n      swap3\n      swap2\n      pop\n      pop\n      jump\t// out\n\n    auxdata: 0xa264697066735822122032ce9c117975ce5b79527d75974ae28e6e9eb475b76e8203ae90fb0598c8535b64736f6c63430008080033\n}\n",
				"bytecode": {
					"linkReferences": {},
					"object": "608060405234801561001057600080fd5b5061053f806100206000396000f3fe608060405234801561001057600080fd5b50600436106100365760003560e01c806376e553381461003b578063e465b7e61461005a575b600080fd5b610043610064565b60405161005192919061021d565b60405180910390f35b610062610083565b005b60008060000154908060010160009054906101000a900460ff16905082565b6000738a753747a1fa494ec906ce90e9f37563a8af630e73ffffffffffffffffffffffffffffffffffffffff1663feaf968c6040518163ffffffff1660e01b815260040160a06040518083038186803b1580156100df57600080fd5b505afa1580156100f3573d6000803e3d6000fd5b505050506040513d601f19601f8201168201806040525081019061011791906102ef565b5050509150506402540be4008161012e9190610399565b6000800181905550738a753747a1fa494ec906ce90e9f37563a8af630e73ffffffffffffffffffffffffffffffffffffffff1663313ce5676040518163ffffffff1660e01b815260040160206040518083038186803b15801561019057600080fd5b505afa1580156101a4573d6000803e3d6000fd5b505050506040513d601f19601f820116820180604052508101906101c891906104dc565b600060010160006101000a81548160ff021916908360ff16021790555050565b6000819050919050565b6101fb816101e8565b82525050565b600060ff82169050919050565b61021781610201565b82525050565b600060408201905061023260008301856101f2565b61023f602083018461020e565b9392505050565b600080fd5b600069ffffffffffffffffffff82169050919050565b61026a8161024b565b811461027557600080fd5b50565b60008151905061028781610261565b92915050565b6000819050919050565b6102a08161028d565b81146102ab57600080fd5b50565b6000815190506102bd81610297565b92915050565b6102cc816101e8565b81146102d757600080fd5b50565b6000815190506102e9816102c3565b92915050565b600080600080600060a0868803121561030b5761030a610246565b5b600061031988828901610278565b955050602061032a888289016102ae565b945050604061033b888289016102da565b935050606061034c888289016102da565b925050608061035d88828901610278565b9150509295509295909350565b7f4e487b7100000000000000000000000000000000000000000000000000000000600052601160045260246000fd5b60006103a48261028d565b91506103af8361028d565b9250827f7fffffffffffffffffffffffffffffffffffffffffffffffffffffffffffffff04821160008413600084131616156103ee576103ed61036a565b5b817f8000000000000000000000000000000000000000000000000000000000000000058312600084126000841316161561042b5761042a61036a565b5b827f800000000000000000000000000000000000000000000000000000000000000005821260008413600084121616156104685761046761036a565b5b827f7fffffffffffffffffffffffffffffffffffffffffffffffffffffffffffffff05821260008412600084121616156104a5576104a461036a565b5b828202905092915050565b6104b981610201565b81146104c457600080fd5b50565b6000815190506104d6816104b0565b92915050565b6000602082840312156104f2576104f1610246565b5b6000610500848285016104c7565b9150509291505056fea264697066735822122032ce9c117975ce5b79527d75974ae28e6e9eb475b76e8203ae90fb0598c8535b64736f6c63430008080033",
					"opcodes": "PUSH1 0x80 PUSH1 0x40 MSTORE CALLVALUE DUP1 ISZERO PUSH2 0x10 JUMPI PUSH1 0x0 DUP1 REVERT JUMPDEST POP PUSH2 0x53F DUP1 PUSH2 0x20 PUSH1 0x0 CODECOPY PUSH1 0x0 RETURN INVALID PUSH1 0x80 PUSH1 0x40 MSTORE CALLVALUE DUP1 ISZERO PUSH2 0x10 JUMPI PUSH1 0x0 DUP1 REVERT JUMPDEST POP PUSH1 0x4 CALLDATASIZE LT PUSH2 0x36 JUMPI PUSH1 0x0 CALLDATALOAD PUSH1 0xE0 SHR DUP1 PUSH4 0x76E55338 EQ PUSH2 0x3B JUMPI DUP1 PUSH4 0xE465B7E6 EQ PUSH2 0x5A JUMPI JUMPDEST PUSH1 0x0 DUP1 REVERT JUMPDEST PUSH2 0x43 PUSH2 0x64 JUMP JUMPDEST PUSH1 0x40 MLOAD PUSH2 0x51 SWAP3 SWAP2 SWAP1 PUSH2 0x21D JUMP JUMPDEST PUSH1 0x40 MLOAD DUP1 SWAP2 SUB SWAP1 RETURN JUMPDEST PUSH2 0x62 PUSH2 0x83 JUMP JUMPDEST STOP JUMPDEST PUSH1 0x0 DUP1 PUSH1 0x0 ADD SLOAD SWAP1 DUP1 PUSH1 0x1 ADD PUSH1 0x0 SWAP1 SLOAD SWAP1 PUSH2 0x100 EXP SWAP1 DIV PUSH1 0xFF AND SWAP1 POP DUP3 JUMP JUMPDEST PUSH1 0x0 PUSH20 0x8A753747A1FA494EC906CE90E9F37563A8AF630E PUSH20 0xFFFFFFFFFFFFFFFFFFFFFFFFFFFFFFFFFFFFFFFF AND PUSH4 0xFEAF968C PUSH1 0x40 MLOAD DUP2 PUSH4 0xFFFFFFFF AND PUSH1 0xE0 SHL DUP2 MSTORE PUSH1 0x4 ADD PUSH1 0xA0 PUSH1 0x40 MLOAD DUP1 DUP4 SUB DUP2 DUP7 DUP1 EXTCODESIZE ISZERO DUP1 ISZERO PUSH2 0xDF JUMPI PUSH1 0x0 DUP1 REVERT JUMPDEST POP GAS STATICCALL ISZERO DUP1 ISZERO PUSH2 0xF3 JUMPI RETURNDATASIZE PUSH1 0x0 DUP1 RETURNDATACOPY RETURNDATASIZE PUSH1 0x0 REVERT JUMPDEST POP POP POP POP PUSH1 0x40 MLOAD RETURNDATASIZE PUSH1 0x1F NOT PUSH1 0x1F DUP3 ADD AND DUP3 ADD DUP1 PUSH1 0x40 MSTORE POP DUP2 ADD SWAP1 PUSH2 0x117 SWAP2 SWAP1 PUSH2 0x2EF JUMP JUMPDEST POP POP POP SWAP2 POP POP PUSH5 0x2540BE400 DUP2 PUSH2 0x12E SWAP2 SWAP1 PUSH2 0x399 JUMP JUMPDEST PUSH1 0x0 DUP1 ADD DUP2 SWAP1 SSTORE POP PUSH20 0x8A753747A1FA494EC906CE90E9F37563A8AF630E PUSH20 0xFFFFFFFFFFFFFFFFFFFFFFFFFFFFFFFFFFFFFFFF AND PUSH4 0x313CE567 PUSH1 0x40 MLOAD DUP2 PUSH4 0xFFFFFFFF AND PUSH1 0xE0 SHL DUP2 MSTORE PUSH1 0x4 ADD PUSH1 0x20 PUSH1 0x40 MLOAD DUP1 DUP4 SUB DUP2 DUP7 DUP1 EXTCODESIZE ISZERO DUP1 ISZERO PUSH2 0x190 JUMPI PUSH1 0x0 DUP1 REVERT JUMPDEST POP GAS STATICCALL ISZERO DUP1 ISZERO PUSH2 0x1A4 JUMPI RETURNDATASIZE PUSH1 0x0 DUP1 RETURNDATACOPY RETURNDATASIZE PUSH1 0x0 REVERT JUMPDEST POP POP POP POP PUSH1 0x40 MLOAD RETURNDATASIZE PUSH1 0x1F NOT PUSH1 0x1F DUP3 ADD AND DUP3 ADD DUP1 PUSH1 0x40 MSTORE POP DUP2 ADD SWAP1 PUSH2 0x1C8 SWAP2 SWAP1 PUSH2 0x4DC JUMP JUMPDEST PUSH1 0x0 PUSH1 0x1 ADD PUSH1 0x0 PUSH2 0x100 EXP DUP2 SLOAD DUP2 PUSH1 0xFF MUL NOT AND SWAP1 DUP4 PUSH1 0xFF AND MUL OR SWAP1 SSTORE POP POP JUMP JUMPDEST PUSH1 0x0 DUP2 SWAP1 POP SWAP2 SWAP1 POP JUMP JUMPDEST PUSH2 0x1FB DUP2 PUSH2 0x1E8 JUMP JUMPDEST DUP3 MSTORE POP POP JUMP JUMPDEST PUSH1 0x0 PUSH1 0xFF DUP3 AND SWAP1 POP SWAP2 SWAP1 POP JUMP JUMPDEST PUSH2 0x217 DUP2 PUSH2 0x201 JUMP JUMPDEST DUP3 MSTORE POP POP JUMP JUMPDEST PUSH1 0x0 PUSH1 0x40 DUP3 ADD SWAP1 POP PUSH2 0x232 PUSH1 0x0 DUP4 ADD DUP6 PUSH2 0x1F2 JUMP JUMPDEST PUSH2 0x23F PUSH1 0x20 DUP4 ADD DUP5 PUSH2 0x20E JUMP JUMPDEST SWAP4 SWAP3 POP POP POP JUMP JUMPDEST PUSH1 0x0 DUP1 REVERT JUMPDEST PUSH1 0x0 PUSH10 0xFFFFFFFFFFFFFFFFFFFF DUP3 AND SWAP1 POP SWAP2 SWAP1 POP JUMP JUMPDEST PUSH2 0x26A DUP2 PUSH2 0x24B JUMP JUMPDEST DUP2 EQ PUSH2 0x275 JUMPI PUSH1 0x0 DUP1 REVERT JUMPDEST POP JUMP JUMPDEST PUSH1 0x0 DUP2 MLOAD SWAP1 POP PUSH2 0x287 DUP2 PUSH2 0x261 JUMP JUMPDEST SWAP3 SWAP2 POP POP JUMP JUMPDEST PUSH1 0x0 DUP2 SWAP1 POP SWAP2 SWAP1 POP JUMP JUMPDEST PUSH2 0x2A0 DUP2 PUSH2 0x28D JUMP JUMPDEST DUP2 EQ PUSH2 0x2AB JUMPI PUSH1 0x0 DUP1 REVERT JUMPDEST POP JUMP JUMPDEST PUSH1 0x0 DUP2 MLOAD SWAP1 POP PUSH2 0x2BD DUP2 PUSH2 0x297 JUMP JUMPDEST SWAP3 SWAP2 POP POP JUMP JUMPDEST PUSH2 0x2CC DUP2 PUSH2 0x1E8 JUMP JUMPDEST DUP2 EQ PUSH2 0x2D7 JUMPI PUSH1 0x0 DUP1 REVERT JUMPDEST POP JUMP JUMPDEST PUSH1 0x0 DUP2 MLOAD SWAP1 POP PUSH2 0x2E9 DUP2 PUSH2 0x2C3 JUMP JUMPDEST SWAP3 SWAP2 POP POP JUMP JUMPDEST PUSH1 0x0 DUP1 PUSH1 0x0 DUP1 PUSH1 0x0 PUSH1 0xA0 DUP7 DUP9 SUB SLT ISZERO PUSH2 0x30B JUMPI PUSH2 0x30A PUSH2 0x246 JUMP JUMPDEST JUMPDEST PUSH1 0x0 PUSH2 0x319 DUP9 DUP3 DUP10 ADD PUSH2 0x278 JUMP JUMPDEST SWAP6 POP POP PUSH1 0x20 PUSH2 0x32A DUP9 DUP3 DUP10 ADD PUSH2 0x2AE JUMP JUMPDEST SWAP5 POP POP PUSH1 0x40 PUSH2 0x33B DUP9 DUP3 DUP10 ADD PUSH2 0x2DA JUMP JUMPDEST SWAP4 POP POP PUSH1 0x60 PUSH2 0x34C DUP9 DUP3 DUP10 ADD PUSH2 0x2DA JUMP JUMPDEST SWAP3 POP POP PUSH1 0x80 PUSH2 0x35D DUP9 DUP3 DUP10 ADD PUSH2 0x278 JUMP JUMPDEST SWAP2 POP POP SWAP3 SWAP6 POP SWAP3 SWAP6 SWAP1 SWAP4 POP JUMP JUMPDEST PUSH32 0x4E487B7100000000000000000000000000000000000000000000000000000000 PUSH1 0x0 MSTORE PUSH1 0x11 PUSH1 0x4 MSTORE PUSH1 0x24 PUSH1 0x0 REVERT JUMPDEST PUSH1 0x0 PUSH2 0x3A4 DUP3 PUSH2 0x28D JUMP JUMPDEST SWAP2 POP PUSH2 0x3AF DUP4 PUSH2 0x28D JUMP JUMPDEST SWAP3 POP DUP3 PUSH32 0x7FFFFFFFFFFFFFFFFFFFFFFFFFFFFFFFFFFFFFFFFFFFFFFFFFFFFFFFFFFFFFFF DIV DUP3 GT PUSH1 0x0 DUP5 SGT PUSH1 0x0 DUP5 SGT AND AND ISZERO PUSH2 0x3EE JUMPI PUSH2 0x3ED PUSH2 0x36A JUMP JUMPDEST JUMPDEST DUP2 PUSH32 0x8000000000000000000000000000000000000000000000000000000000000000 SDIV DUP4 SLT PUSH1 0x0 DUP5 SLT PUSH1 0x0 DUP5 SGT AND AND ISZERO PUSH2 0x42B JUMPI PUSH2 0x42A PUSH2 0x36A JUMP JUMPDEST JUMPDEST DUP3 PUSH32 0x8000000000000000000000000000000000000000000000000000000000000000 SDIV DUP3 SLT PUSH1 0x0 DUP5 SGT PUSH1 0x0 DUP5 SLT AND AND ISZERO PUSH2 0x468 JUMPI PUSH2 0x467 PUSH2 0x36A JUMP JUMPDEST JUMPDEST DUP3 PUSH32 0x7FFFFFFFFFFFFFFFFFFFFFFFFFFFFFFFFFFFFFFFFFFFFFFFFFFFFFFFFFFFFFFF SDIV DUP3 SLT PUSH1 0x0 DUP5 SLT PUSH1 0x0 DUP5 SLT AND AND ISZERO PUSH2 0x4A5 JUMPI PUSH2 0x4A4 PUSH2 0x36A JUMP JUMPDEST JUMPDEST DUP3 DUP3 MUL SWAP1 POP SWAP3 SWAP2 POP POP JUMP JUMPDEST PUSH2 0x4B9 DUP2 PUSH2 0x201 JUMP JUMPDEST DUP2 EQ PUSH2 0x4C4 JUMPI PUSH1 0x0 DUP1 REVERT JUMPDEST POP JUMP JUMPDEST PUSH1 0x0 DUP2 MLOAD SWAP1 POP PUSH2 0x4D6 DUP2 PUSH2 0x4B0 JUMP JUMPDEST SWAP3 SWAP2 POP POP JUMP JUMPDEST PUSH1 0x0 PUSH1 0x20 DUP3 DUP5 SUB SLT ISZERO PUSH2 0x4F2 JUMPI PUSH2 0x4F1 PUSH2 0x246 JUMP JUMPDEST JUMPDEST PUSH1 0x0 PUSH2 0x500 DUP5 DUP3 DUP6 ADD PUSH2 0x4C7 JUMP JUMPDEST SWAP2 POP POP SWAP3 SWAP2 POP POP JUMP INVALID LOG2 PUSH5 0x6970667358 0x22 SLT KECCAK256 ORIGIN 0xCE SWAP13 GT PUSH26 0x75CE5B79527D75974AE28E6E9EB475B76E8203AE90FB0598C853 JUMPDEST PUSH5 0x736F6C6343 STOP ADDMOD ADDMOD STOP CALLER "
				},
				"gasEstimates": {
					"creation": {
						"codeDepositCost": "268600",
						"executionCost": "306",
						"totalCost": "268906"
					},
					"external": {
						"mytest()": "4675",
						"setMytest()": "infinite"
					}
				},
				"methodIdentifiers": {
					"mytest()": "76e55338",
					"setMytest()": "e465b7e6"
				}
			},
			"storageLayout": {
				"storage": [
					{
						"astId": 56,
						"contract": "Contract  ^0.8.8/TestContract.sol:Test",
						"label": "mytest",
						"offset": 0,
						"slot": "0",
						"type": "t_struct(Price)53_storage"
					}
				],
				"types": {
					"t_struct(Price)53_storage": {
						"encoding": "inplace",
						"label": "struct Test.Price",
						"members": [
							{
								"astId": 50,
								"contract": "Contract  ^0.8.8/TestContract.sol:Test",
								"label": "hello",
								"offset": 0,
								"slot": "0",
								"type": "t_uint256"
							},
							{
								"astId": 52,
								"contract": "Contract  ^0.8.8/TestContract.sol:Test",
								"label": "decimalNum",
								"offset": 0,
								"slot": "1",
								"type": "t_uint8"
							}
						],
						"numberOfBytes": "64"
					},
					"t_uint256": {
						"encoding": "inplace",
						"label": "uint256",
						"numberOfBytes": "32"
					},
					"t_uint8": {
						"encoding": "inplace",
						"label": "uint8",
						"numberOfBytes": "1"
					}
				}
			},
			"userdoc": {
				"kind": "user",
				"methods": {},
				"version": 1
			}
		}
	}
}