{
	"data": {
		"bytecode": {
			"linkReferences": {},
			"object": "608060405234801561001057600080fd5b5061067a806100206000396000f3fe608060405234801561001057600080fd5b50600436106100415760003560e01c80632cc812bc14610046578063cb05b93e14610064578063f36089ec1461006e575b600080fd5b61004e610078565b60405161005b9190610204565b60405180910390f35b61006c61007e565b005b6100766101e9565b005b60005481565b6000738a753747a1fa494ec906ce90e9f37563a8af630e73ffffffffffffffffffffffffffffffffffffffff1663feaf968c6040518163ffffffff1660e01b815260040160a06040518083038186803b1580156100da57600080fd5b505afa1580156100ee573d6000803e3d6000fd5b505050506040513d601f19601f8201168201806040525081019061011291906102c8565b505050915050670de0b6b3a7640000738a753747a1fa494ec906ce90e9f37563a8af630e73ffffffffffffffffffffffffffffffffffffffff1663313ce5676040518163ffffffff1660e01b815260040160206040518083038186803b15801561017b57600080fd5b505afa15801561018f573d6000803e3d6000fd5b505050506040513d601f19601f820116820180604052508101906101b3919061037c565b60126101bf91906103d8565b600a6101cb919061053f565b826101d6919061058a565b6101e09190610613565b60008190555050565b565b6000819050919050565b6101fe816101eb565b82525050565b600060208201905061021960008301846101f5565b92915050565b600080fd5b600069ffffffffffffffffffff82169050919050565b61024381610224565b811461024e57600080fd5b50565b6000815190506102608161023a565b92915050565b6000819050919050565b61027981610266565b811461028457600080fd5b50565b60008151905061029681610270565b92915050565b6102a5816101eb565b81146102b057600080fd5b50565b6000815190506102c28161029c565b92915050565b600080600080600060a086880312156102e4576102e361021f565b5b60006102f288828901610251565b955050602061030388828901610287565b9450506040610314888289016102b3565b9350506060610325888289016102b3565b925050608061033688828901610251565b9150509295509295909350565b600060ff82169050919050565b61035981610343565b811461036457600080fd5b50565b60008151905061037681610350565b92915050565b6000602082840312156103925761039161021f565b5b60006103a084828501610367565b91505092915050565b7f4e487b7100000000000000000000000000000000000000000000000000000000600052601160045260246000fd5b60006103e382610343565b91506103ee83610343565b925082821015610401576104006103a9565b5b828203905092915050565b60008160011c9050919050565b6000808291508390505b60018511156104635780860481111561043f5761043e6103a9565b5b600185161561044e5780820291505b808102905061045c8561040c565b9450610423565b94509492505050565b60008261047c5760019050610538565b8161048a5760009050610538565b81600181146104a057600281146104aa576104d9565b6001915050610538565b60ff8411156104bc576104bb6103a9565b5b8360020a9150848211156104d3576104d26103a9565b5b50610538565b5060208310610133831016604e8410600b841016171561050e5782820a905083811115610509576105086103a9565b5b610538565b61051b8484846001610419565b92509050818404811115610532576105316103a9565b5b81810290505b9392505050565b600061054a826101eb565b915061055583610343565b92506105827fffffffffffffffffffffffffffffffffffffffffffffffffffffffffffffffff848461046c565b905092915050565b6000610595826101eb565b91506105a0836101eb565b9250817fffffffffffffffffffffffffffffffffffffffffffffffffffffffffffffffff04831182151516156105d9576105d86103a9565b5b828202905092915050565b7f4e487b7100000000000000000000000000000000000000000000000000000000600052601260045260246000fd5b600061061e826101eb565b9150610629836101eb565b925082610639576106386105e4565b5b82820490509291505056fea26469706673582212203515b1ccafc5bcc2dde0baff7f878b46eef777fa275b479ed98284079428a01964736f6c63430008080033",
			"opcodes": "PUSH1 0x80 PUSH1 0x40 MSTORE CALLVALUE DUP1 ISZERO PUSH2 0x10 JUMPI PUSH1 0x0 DUP1 REVERT JUMPDEST POP PUSH2 0x67A DUP1 PUSH2 0x20 PUSH1 0x0 CODECOPY PUSH1 0x0 RETURN INVALID PUSH1 0x80 PUSH1 0x40 MSTORE CALLVALUE DUP1 ISZERO PUSH2 0x10 JUMPI PUSH1 0x0 DUP1 REVERT JUMPDEST POP PUSH1 0x4 CALLDATASIZE LT PUSH2 0x41 JUMPI PUSH1 0x0 CALLDATALOAD PUSH1 0xE0 SHR DUP1 PUSH4 0x2CC812BC EQ PUSH2 0x46 JUMPI DUP1 PUSH4 0xCB05B93E EQ PUSH2 0x64 JUMPI DUP1 PUSH4 0xF36089EC EQ PUSH2 0x6E JUMPI JUMPDEST PUSH1 0x0 DUP1 REVERT JUMPDEST PUSH2 0x4E PUSH2 0x78 JUMP JUMPDEST PUSH1 0x40 MLOAD PUSH2 0x5B SWAP2 SWAP1 PUSH2 0x204 JUMP JUMPDEST PUSH1 0x40 MLOAD DUP1 SWAP2 SUB SWAP1 RETURN JUMPDEST PUSH2 0x6C PUSH2 0x7E JUMP JUMPDEST STOP JUMPDEST PUSH2 0x76 PUSH2 0x1E9 JUMP JUMPDEST STOP JUMPDEST PUSH1 0x0 SLOAD DUP2 JUMP JUMPDEST PUSH1 0x0 PUSH20 0x8A753747A1FA494EC906CE90E9F37563A8AF630E PUSH20 0xFFFFFFFFFFFFFFFFFFFFFFFFFFFFFFFFFFFFFFFF AND PUSH4 0xFEAF968C PUSH1 0x40 MLOAD DUP2 PUSH4 0xFFFFFFFF AND PUSH1 0xE0 SHL DUP2 MSTORE PUSH1 0x4 ADD PUSH1 0xA0 PUSH1 0x40 MLOAD DUP1 DUP4 SUB DUP2 DUP7 DUP1 EXTCODESIZE ISZERO DUP1 ISZERO PUSH2 0xDA JUMPI PUSH1 0x0 DUP1 REVERT JUMPDEST POP GAS STATICCALL ISZERO DUP1 ISZERO PUSH2 0xEE JUMPI RETURNDATASIZE PUSH1 0x0 DUP1 RETURNDATACOPY RETURNDATASIZE PUSH1 0x0 REVERT JUMPDEST POP POP POP POP PUSH1 0x40 MLOAD RETURNDATASIZE PUSH1 0x1F NOT PUSH1 0x1F DUP3 ADD AND DUP3 ADD DUP1 PUSH1 0x40 MSTORE POP DUP2 ADD SWAP1 PUSH2 0x112 SWAP2 SWAP1 PUSH2 0x2C8 JUMP JUMPDEST POP POP POP SWAP2 POP POP PUSH8 0xDE0B6B3A7640000 PUSH20 0x8A753747A1FA494EC906CE90E9F37563A8AF630E PUSH20 0xFFFFFFFFFFFFFFFFFFFFFFFFFFFFFFFFFFFFFFFF AND PUSH4 0x313CE567 PUSH1 0x40 MLOAD DUP2 PUSH4 0xFFFFFFFF AND PUSH1 0xE0 SHL DUP2 MSTORE PUSH1 0x4 ADD PUSH1 0x20 PUSH1 0x40 MLOAD DUP1 DUP4 SUB DUP2 DUP7 DUP1 EXTCODESIZE ISZERO DUP1 ISZERO PUSH2 0x17B JUMPI PUSH1 0x0 DUP1 REVERT JUMPDEST POP GAS STATICCALL ISZERO DUP1 ISZERO PUSH2 0x18F JUMPI RETURNDATASIZE PUSH1 0x0 DUP1 RETURNDATACOPY RETURNDATASIZE PUSH1 0x0 REVERT JUMPDEST POP POP POP POP PUSH1 0x40 MLOAD RETURNDATASIZE PUSH1 0x1F NOT PUSH1 0x1F DUP3 ADD AND DUP3 ADD DUP1 PUSH1 0x40 MSTORE POP DUP2 ADD SWAP1 PUSH2 0x1B3 SWAP2 SWAP1 PUSH2 0x37C JUMP JUMPDEST PUSH1 0x12 PUSH2 0x1BF SWAP2 SWAP1 PUSH2 0x3D8 JUMP JUMPDEST PUSH1 0xA PUSH2 0x1CB SWAP2 SWAP1 PUSH2 0x53F JUMP JUMPDEST DUP3 PUSH2 0x1D6 SWAP2 SWAP1 PUSH2 0x58A JUMP JUMPDEST PUSH2 0x1E0 SWAP2 SWAP1 PUSH2 0x613 JUMP JUMPDEST PUSH1 0x0 DUP2 SWAP1 SSTORE POP POP JUMP JUMPDEST JUMP JUMPDEST PUSH1 0x0 DUP2 SWAP1 POP SWAP2 SWAP1 POP JUMP JUMPDEST PUSH2 0x1FE DUP2 PUSH2 0x1EB JUMP JUMPDEST DUP3 MSTORE POP POP JUMP JUMPDEST PUSH1 0x0 PUSH1 0x20 DUP3 ADD SWAP1 POP PUSH2 0x219 PUSH1 0x0 DUP4 ADD DUP5 PUSH2 0x1F5 JUMP JUMPDEST SWAP3 SWAP2 POP POP JUMP JUMPDEST PUSH1 0x0 DUP1 REVERT JUMPDEST PUSH1 0x0 PUSH10 0xFFFFFFFFFFFFFFFFFFFF DUP3 AND SWAP1 POP SWAP2 SWAP1 POP JUMP JUMPDEST PUSH2 0x243 DUP2 PUSH2 0x224 JUMP JUMPDEST DUP2 EQ PUSH2 0x24E JUMPI PUSH1 0x0 DUP1 REVERT JUMPDEST POP JUMP JUMPDEST PUSH1 0x0 DUP2 MLOAD SWAP1 POP PUSH2 0x260 DUP2 PUSH2 0x23A JUMP JUMPDEST SWAP3 SWAP2 POP POP JUMP JUMPDEST PUSH1 0x0 DUP2 SWAP1 POP SWAP2 SWAP1 POP JUMP JUMPDEST PUSH2 0x279 DUP2 PUSH2 0x266 JUMP JUMPDEST DUP2 EQ PUSH2 0x284 JUMPI PUSH1 0x0 DUP1 REVERT JUMPDEST POP JUMP JUMPDEST PUSH1 0x0 DUP2 MLOAD SWAP1 POP PUSH2 0x296 DUP2 PUSH2 0x270 JUMP JUMPDEST SWAP3 SWAP2 POP POP JUMP JUMPDEST PUSH2 0x2A5 DUP2 PUSH2 0x1EB JUMP JUMPDEST DUP2 EQ PUSH2 0x2B0 JUMPI PUSH1 0x0 DUP1 REVERT JUMPDEST POP JUMP JUMPDEST PUSH1 0x0 DUP2 MLOAD SWAP1 POP PUSH2 0x2C2 DUP2 PUSH2 0x29C JUMP JUMPDEST SWAP3 SWAP2 POP POP JUMP JUMPDEST PUSH1 0x0 DUP1 PUSH1 0x0 DUP1 PUSH1 0x0 PUSH1 0xA0 DUP7 DUP9 SUB SLT ISZERO PUSH2 0x2E4 JUMPI PUSH2 0x2E3 PUSH2 0x21F JUMP JUMPDEST JUMPDEST PUSH1 0x0 PUSH2 0x2F2 DUP9 DUP3 DUP10 ADD PUSH2 0x251 JUMP JUMPDEST SWAP6 POP POP PUSH1 0x20 PUSH2 0x303 DUP9 DUP3 DUP10 ADD PUSH2 0x287 JUMP JUMPDEST SWAP5 POP POP PUSH1 0x40 PUSH2 0x314 DUP9 DUP3 DUP10 ADD PUSH2 0x2B3 JUMP JUMPDEST SWAP4 POP POP PUSH1 0x60 PUSH2 0x325 DUP9 DUP3 DUP10 ADD PUSH2 0x2B3 JUMP JUMPDEST SWAP3 POP POP PUSH1 0x80 PUSH2 0x336 DUP9 DUP3 DUP10 ADD PUSH2 0x251 JUMP JUMPDEST SWAP2 POP POP SWAP3 SWAP6 POP SWAP3 SWAP6 SWAP1 SWAP4 POP JUMP JUMPDEST PUSH1 0x0 PUSH1 0xFF DUP3 AND SWAP1 POP SWAP2 SWAP1 POP JUMP JUMPDEST PUSH2 0x359 DUP2 PUSH2 0x343 JUMP JUMPDEST DUP2 EQ PUSH2 0x364 JUMPI PUSH1 0x0 DUP1 REVERT JUMPDEST POP JUMP JUMPDEST PUSH1 0x0 DUP2 MLOAD SWAP1 POP PUSH2 0x376 DUP2 PUSH2 0x350 JUMP JUMPDEST SWAP3 SWAP2 POP POP JUMP JUMPDEST PUSH1 0x0 PUSH1 0x20 DUP3 DUP5 SUB SLT ISZERO PUSH2 0x392 JUMPI PUSH2 0x391 PUSH2 0x21F JUMP JUMPDEST JUMPDEST PUSH1 0x0 PUSH2 0x3A0 DUP5 DUP3 DUP6 ADD PUSH2 0x367 JUMP JUMPDEST SWAP2 POP POP SWAP3 SWAP2 POP POP JUMP JUMPDEST PUSH32 0x4E487B7100000000000000000000000000000000000000000000000000000000 PUSH1 0x0 MSTORE PUSH1 0x11 PUSH1 0x4 MSTORE PUSH1 0x24 PUSH1 0x0 REVERT JUMPDEST PUSH1 0x0 PUSH2 0x3E3 DUP3 PUSH2 0x343 JUMP JUMPDEST SWAP2 POP PUSH2 0x3EE DUP4 PUSH2 0x343 JUMP JUMPDEST SWAP3 POP DUP3 DUP3 LT ISZERO PUSH2 0x401 JUMPI PUSH2 0x400 PUSH2 0x3A9 JUMP JUMPDEST JUMPDEST DUP3 DUP3 SUB SWAP1 POP SWAP3 SWAP2 POP POP JUMP JUMPDEST PUSH1 0x0 DUP2 PUSH1 0x1 SHR SWAP1 POP SWAP2 SWAP1 POP JUMP JUMPDEST PUSH1 0x0 DUP1 DUP3 SWAP2 POP DUP4 SWAP1 POP JUMPDEST PUSH1 0x1 DUP6 GT ISZERO PUSH2 0x463 JUMPI DUP1 DUP7 DIV DUP2 GT ISZERO PUSH2 0x43F JUMPI PUSH2 0x43E PUSH2 0x3A9 JUMP JUMPDEST JUMPDEST PUSH1 0x1 DUP6 AND ISZERO PUSH2 0x44E JUMPI DUP1 DUP3 MUL SWAP2 POP JUMPDEST DUP1 DUP2 MUL SWAP1 POP PUSH2 0x45C DUP6 PUSH2 0x40C JUMP JUMPDEST SWAP5 POP PUSH2 0x423 JUMP JUMPDEST SWAP5 POP SWAP5 SWAP3 POP POP POP JUMP JUMPDEST PUSH1 0x0 DUP3 PUSH2 0x47C JUMPI PUSH1 0x1 SWAP1 POP PUSH2 0x538 JUMP JUMPDEST DUP2 PUSH2 0x48A JUMPI PUSH1 0x0 SWAP1 POP PUSH2 0x538 JUMP JUMPDEST DUP2 PUSH1 0x1 DUP2 EQ PUSH2 0x4A0 JUMPI PUSH1 0x2 DUP2 EQ PUSH2 0x4AA JUMPI PUSH2 0x4D9 JUMP JUMPDEST PUSH1 0x1 SWAP2 POP POP PUSH2 0x538 JUMP JUMPDEST PUSH1 0xFF DUP5 GT ISZERO PUSH2 0x4BC JUMPI PUSH2 0x4BB PUSH2 0x3A9 JUMP JUMPDEST JUMPDEST DUP4 PUSH1 0x2 EXP SWAP2 POP DUP5 DUP3 GT ISZERO PUSH2 0x4D3 JUMPI PUSH2 0x4D2 PUSH2 0x3A9 JUMP JUMPDEST JUMPDEST POP PUSH2 0x538 JUMP JUMPDEST POP PUSH1 0x20 DUP4 LT PUSH2 0x133 DUP4 LT AND PUSH1 0x4E DUP5 LT PUSH1 0xB DUP5 LT AND OR ISZERO PUSH2 0x50E JUMPI DUP3 DUP3 EXP SWAP1 POP DUP4 DUP2 GT ISZERO PUSH2 0x509 JUMPI PUSH2 0x508 PUSH2 0x3A9 JUMP JUMPDEST JUMPDEST PUSH2 0x538 JUMP JUMPDEST PUSH2 0x51B DUP5 DUP5 DUP5 PUSH1 0x1 PUSH2 0x419 JUMP JUMPDEST SWAP3 POP SWAP1 POP DUP2 DUP5 DIV DUP2 GT ISZERO PUSH2 0x532 JUMPI PUSH2 0x531 PUSH2 0x3A9 JUMP JUMPDEST JUMPDEST DUP2 DUP2 MUL SWAP1 POP JUMPDEST SWAP4 SWAP3 POP POP POP JUMP JUMPDEST PUSH1 0x0 PUSH2 0x54A DUP3 PUSH2 0x1EB JUMP JUMPDEST SWAP2 POP PUSH2 0x555 DUP4 PUSH2 0x343 JUMP JUMPDEST SWAP3 POP PUSH2 0x582 PUSH32 0xFFFFFFFFFFFFFFFFFFFFFFFFFFFFFFFFFFFFFFFFFFFFFFFFFFFFFFFFFFFFFFFF DUP5 DUP5 PUSH2 0x46C JUMP JUMPDEST SWAP1 POP SWAP3 SWAP2 POP POP JUMP JUMPDEST PUSH1 0x0 PUSH2 0x595 DUP3 PUSH2 0x1EB JUMP JUMPDEST SWAP2 POP PUSH2 0x5A0 DUP4 PUSH2 0x1EB JUMP JUMPDEST SWAP3 POP DUP2 PUSH32 0xFFFFFFFFFFFFFFFFFFFFFFFFFFFFFFFFFFFFFFFFFFFFFFFFFFFFFFFFFFFFFFFF DIV DUP4 GT DUP3 ISZERO ISZERO AND ISZERO PUSH2 0x5D9 JUMPI PUSH2 0x5D8 PUSH2 0x3A9 JUMP JUMPDEST JUMPDEST DUP3 DUP3 MUL SWAP1 POP SWAP3 SWAP2 POP POP JUMP JUMPDEST PUSH32 0x4E487B7100000000000000000000000000000000000000000000000000000000 PUSH1 0x0 MSTORE PUSH1 0x12 PUSH1 0x4 MSTORE PUSH1 0x24 PUSH1 0x0 REVERT JUMPDEST PUSH1 0x0 PUSH2 0x61E DUP3 PUSH2 0x1EB JUMP JUMPDEST SWAP2 POP PUSH2 0x629 DUP4 PUSH2 0x1EB JUMP JUMPDEST SWAP3 POP DUP3 PUSH2 0x639 JUMPI PUSH2 0x638 PUSH2 0x5E4 JUMP JUMPDEST JUMPDEST DUP3 DUP3 DIV SWAP1 POP SWAP3 SWAP2 POP POP JUMP INVALID LOG2 PUSH5 0x6970667358 0x22 SLT KECCAK256 CALLDATALOAD ISZERO 0xB1 0xCC 0xAF 0xC5 0xBC 0xC2 0xDD 0xE0 0xBA SELFDESTRUCT PUSH32 0x878B46EEF777FA275B479ED98284079428A01964736F6C634300080800330000 "
		},
		"gasEstimates": {
			"creation": {
				"codeDepositCost": "331600",
				"executionCost": "368",
				"totalCost": "331968"
			},
			"external": {
				"EthPrice()": "2407",
				"getConversionRate()": "166",
				"getEth()": "infinite"
			}
		},
		"methodIdentifiers": {
			"EthPrice()": "2cc812bc",
			"getConversionRate()": "f36089ec",
			"getEth()": "cb05b93e"
		}
	},
	"abi": [
		{
			"inputs": [],
			"name": "EthPrice",
			"outputs": [
				{
					"internalType": "uint256",
					"name": "",
					"type": "uint256"
				}
			],
			"stateMutability": "view",
			"type": "function"
		},
		{
			"inputs": [],
			"name": "getConversionRate",
			"outputs": [],
			"stateMutability": "nonpayable",
			"type": "function"
		},
		{
			"inputs": [],
			"name": "getEth",
			"outputs": [],
			"stateMutability": "nonpayable",
			"type": "function"
		}
	]
}