{
	"": {
		"SimpleStorage": {
			"abi": [
				{
					"constant": false,
					"inputs": [
						{
							"name": "n",
							"type": "uint256"
						}
					],
					"name": "decrement",
					"outputs": [],
					"payable": false,
					"type": "function",
					"stateMutability": "nonpayable"
				},
				{
					"constant": false,
					"inputs": [
						{
							"name": "x",
							"type": "uint256"
						}
					],
					"name": "set",
					"outputs": [],
					"payable": false,
					"type": "function",
					"stateMutability": "nonpayable"
				},
				{
					"constant": true,
					"inputs": [],
					"name": "get",
					"outputs": [
						{
							"name": "",
							"type": "uint256"
						}
					],
					"payable": false,
					"type": "function",
					"stateMutability": "view"
				},
				{
					"constant": false,
					"inputs": [
						{
							"name": "n",
							"type": "uint256"
						}
					],
					"name": "increment",
					"outputs": [],
					"payable": false,
					"type": "function",
					"stateMutability": "nonpayable"
				}
			],
			"evm": {
				"bytecode": {
					"object": "606060405261012e806100126000396000f360606040526000357c0100000000000000000000000000000000000000000000000000000000900480633a9ebefd1461005d57806360fe47b11461007a5780636d4ce63c146100975780637cf5dab0146100bf57610058565b610002565b346100025761007860048080359060200190919050506100dc565b005b346100025761009560048080359060200190919050506100f5565b005b34610002576100a96004805050610103565b6040518082815260200191505060405180910390f35b34610002576100da6004808035906020019091905050610115565b005b80600060005054036000600050819055506100f2565b50565b806000600050819055505b50565b60006000600050549050610112565b90565b806000600050540160006000508190555061012b565b5056",
					"opcodes": "PUSH1 0x60 PUSH1 0x40 MSTORE PUSH2 0x12E DUP1 PUSH2 0x12 PUSH1 0x0 CODECOPY PUSH1 0x0 RETURN PUSH1 0x60 PUSH1 0x40 MSTORE PUSH1 0x0 CALLDATALOAD PUSH29 0x100000000000000000000000000000000000000000000000000000000 SWAP1 DIV DUP1 PUSH4 0x3A9EBEFD EQ PUSH2 0x5D JUMPI DUP1 PUSH4 0x60FE47B1 EQ PUSH2 0x7A JUMPI DUP1 PUSH4 0x6D4CE63C EQ PUSH2 0x97 JUMPI DUP1 PUSH4 0x7CF5DAB0 EQ PUSH2 0xBF JUMPI PUSH2 0x58 JUMP JUMPDEST PUSH2 0x2 JUMP JUMPDEST CALLVALUE PUSH2 0x2 JUMPI PUSH2 0x78 PUSH1 0x4 DUP1 DUP1 CALLDATALOAD SWAP1 PUSH1 0x20 ADD SWAP1 SWAP2 SWAP1 POP POP PUSH2 0xDC JUMP JUMPDEST STOP JUMPDEST CALLVALUE PUSH2 0x2 JUMPI PUSH2 0x95 PUSH1 0x4 DUP1 DUP1 CALLDATALOAD SWAP1 PUSH1 0x20 ADD SWAP1 SWAP2 SWAP1 POP POP PUSH2 0xF5 JUMP JUMPDEST STOP JUMPDEST CALLVALUE PUSH2 0x2 JUMPI PUSH2 0xA9 PUSH1 0x4 DUP1 POP POP PUSH2 0x103 JUMP JUMPDEST PUSH1 0x40 MLOAD DUP1 DUP3 DUP2 MSTORE PUSH1 0x20 ADD SWAP2 POP POP PUSH1 0x40 MLOAD DUP1 SWAP2 SUB SWAP1 RETURN JUMPDEST CALLVALUE PUSH2 0x2 JUMPI PUSH2 0xDA PUSH1 0x4 DUP1 DUP1 CALLDATALOAD SWAP1 PUSH1 0x20 ADD SWAP1 SWAP2 SWAP1 POP POP PUSH2 0x115 JUMP JUMPDEST STOP JUMPDEST DUP1 PUSH1 0x0 PUSH1 0x0 POP SLOAD SUB PUSH1 0x0 PUSH1 0x0 POP DUP2 SWAP1 SSTORE POP PUSH2 0xF2 JUMP JUMPDEST POP JUMP JUMPDEST DUP1 PUSH1 0x0 PUSH1 0x0 POP DUP2 SWAP1 SSTORE POP JUMPDEST POP JUMP JUMPDEST PUSH1 0x0 PUSH1 0x0 PUSH1 0x0 POP SLOAD SWAP1 POP PUSH2 0x112 JUMP JUMPDEST SWAP1 JUMP JUMPDEST DUP1 PUSH1 0x0 PUSH1 0x0 POP SLOAD ADD PUSH1 0x0 PUSH1 0x0 POP DUP2 SWAP1 SSTORE POP PUSH2 0x12B JUMP JUMPDEST POP JUMP ",
					"linkReferences": {}
				},
				"methodIdentifiers": {
					"decrement(uint256)": "3a9ebefd",
					"get()": "6d4ce63c",
					"increment(uint256)": "7cf5dab0",
					"set(uint256)": "60fe47b1"
				},
				"gasEstimates": {
					"creation": {
						"codeDepositCost": "60400",
						"executionCost": "87"
					},
					"internal": {},
					"external": {
						"decrement(uint256)": "20225",
						"get()": "284",
						"increment(uint256)": "20291",
						"set(uint256)": "20175"
					}
				}
			}
		}
	}
}