{
	"Learning Contrats v0.4.0/BallotWithStages.sol": {
		"Ballot": {
			"abi": [
				{
					"constant": false,
					"inputs": [
						{
							"name": "toVoter",
							"type": "address"
						}
					],
					"name": "register",
					"outputs": [],
					"payable": false,
					"stateMutability": "nonpayable",
					"type": "function"
				},
				{
					"constant": true,
					"inputs": [],
					"name": "winningProposal",
					"outputs": [
						{
							"name": "_winningProposal",
							"type": "uint8"
						}
					],
					"payable": false,
					"stateMutability": "view",
					"type": "function"
				},
				{
					"constant": false,
					"inputs": [
						{
							"name": "toProposal",
							"type": "uint8"
						}
					],
					"name": "vote",
					"outputs": [],
					"payable": false,
					"stateMutability": "nonpayable",
					"type": "function"
				},
				{
					"constant": true,
					"inputs": [],
					"name": "stage",
					"outputs": [
						{
							"name": "",
							"type": "uint8"
						}
					],
					"payable": false,
					"stateMutability": "view",
					"type": "function"
				},
				{
					"inputs": [
						{
							"name": "_numProposals",
							"type": "uint8"
						}
					],
					"payable": false,
					"stateMutability": "nonpayable",
					"type": "constructor"
				}
			],
			"devdoc": {
				"methods": {}
			},
			"evm": {
				"assembly": "    /* \"Learning Contrats v0.4.0/BallotWithStages.sol\":25:2115  contract Ballot {\r... */\n  mstore(0x40, 0x80)\n    /* \"Learning Contrats v0.4.0/BallotWithStages.sol\":264:274  Stage.Init */\n  0x0\n    /* \"Learning Contrats v0.4.0/BallotWithStages.sol\":243:274  Stage public stage = Stage.Init */\n  dup1\n  exp(0x100, 0x0)\n  dup2\n  sload\n  dup2\n  0xff\n  mul\n  not\n  and\n  swap1\n  dup4\n  0x3\n  dup2\n  gt\n  iszero\n  tag_1\n  jumpi\n  invalid\ntag_1:\n  mul\n  or\n  swap1\n  sstore\n  pop\n    /* \"Learning Contrats v0.4.0/BallotWithStages.sol\":485:747  function Ballot(uint8 _numProposals) public  {\r... */\n  callvalue\n    /* \"--CODEGEN--\":8:17   */\n  dup1\n    /* \"--CODEGEN--\":5:7   */\n  iszero\n  tag_2\n  jumpi\n    /* \"--CODEGEN--\":30:31   */\n  0x0\n    /* \"--CODEGEN--\":27:28   */\n  dup1\n    /* \"--CODEGEN--\":20:32   */\n  revert\n    /* \"--CODEGEN--\":5:7   */\ntag_2:\n    /* \"Learning Contrats v0.4.0/BallotWithStages.sol\":485:747  function Ballot(uint8 _numProposals) public  {\r... */\n  pop\n  mload(0x40)\n  0x20\n  dup1\n  bytecodeSize\n  dup4\n  codecopy\n  dup2\n  add\n  dup1\n  0x40\n  mstore\n  dup2\n  add\n  swap1\n  dup1\n  dup1\n  mload\n  swap1\n  0x20\n  add\n  swap1\n  swap3\n  swap2\n  swap1\n  pop\n  pop\n  pop\n    /* \"Learning Contrats v0.4.0/BallotWithStages.sol\":555:565  msg.sender */\n  caller\n    /* \"Learning Contrats v0.4.0/BallotWithStages.sol\":541:552  chairperson */\n  0x0\n  0x1\n    /* \"Learning Contrats v0.4.0/BallotWithStages.sol\":541:565  chairperson = msg.sender */\n  0x100\n  exp\n  dup2\n  sload\n  dup2\n  0xffffffffffffffffffffffffffffffffffffffff\n  mul\n  not\n  and\n  swap1\n  dup4\n  0xffffffffffffffffffffffffffffffffffffffff\n  and\n  mul\n  or\n  swap1\n  sstore\n  pop\n    /* \"Learning Contrats v0.4.0/BallotWithStages.sol\":605:606  2 */\n  0x2\n    /* \"Learning Contrats v0.4.0/BallotWithStages.sol\":576:582  voters */\n  0x1\n    /* \"Learning Contrats v0.4.0/BallotWithStages.sol\":576:595  voters[chairperson] */\n  0x0\n    /* \"Learning Contrats v0.4.0/BallotWithStages.sol\":583:594  chairperson */\n  dup1\n  0x1\n  swap1\n  sload\n  swap1\n  0x100\n  exp\n  swap1\n  div\n  0xffffffffffffffffffffffffffffffffffffffff\n  and\n    /* \"Learning Contrats v0.4.0/BallotWithStages.sol\":576:595  voters[chairperson] */\n  0xffffffffffffffffffffffffffffffffffffffff\n  and\n  0xffffffffffffffffffffffffffffffffffffffff\n  and\n  dup2\n  mstore\n  0x20\n  add\n  swap1\n  dup2\n  mstore\n  0x20\n  add\n  0x0\n  keccak256\n    /* \"Learning Contrats v0.4.0/BallotWithStages.sol\":576:602  voters[chairperson].weight */\n  0x0\n  add\n    /* \"Learning Contrats v0.4.0/BallotWithStages.sol\":576:606  voters[chairperson].weight = 2 */\n  dup2\n  swap1\n  sstore\n  pop\n    /* \"Learning Contrats v0.4.0/BallotWithStages.sol\":672:685  _numProposals */\n  dup1\n    /* \"Learning Contrats v0.4.0/BallotWithStages.sol\":653:685  proposals.length = _numProposals */\n  0xff\n  and\n    /* \"Learning Contrats v0.4.0/BallotWithStages.sol\":653:662  proposals */\n  0x2\n    /* \"Learning Contrats v0.4.0/BallotWithStages.sol\":653:685  proposals.length = _numProposals */\n  dup2\n  tag_5\n  swap2\n  swap1\n  jump\t// in(tag_6)\ntag_5:\n  pop\n    /* \"Learning Contrats v0.4.0/BallotWithStages.sol\":704:713  Stage.Reg */\n  0x1\n    /* \"Learning Contrats v0.4.0/BallotWithStages.sol\":696:701  stage */\n  0x0\n  dup1\n    /* \"Learning Contrats v0.4.0/BallotWithStages.sol\":696:713  stage = Stage.Reg */\n  0x100\n  exp\n  dup2\n  sload\n  dup2\n  0xff\n  mul\n  not\n  and\n  swap1\n  dup4\n  0x3\n  dup2\n  gt\n  iszero\n  tag_7\n  jumpi\n  invalid\ntag_7:\n  mul\n  or\n  swap1\n  sstore\n  pop\n    /* \"Learning Contrats v0.4.0/BallotWithStages.sol\":736:739  now */\n  timestamp\n    /* \"Learning Contrats v0.4.0/BallotWithStages.sol\":724:733  startTime */\n  0x3\n    /* \"Learning Contrats v0.4.0/BallotWithStages.sol\":724:739  startTime = now */\n  dup2\n  swap1\n  sstore\n  pop\n    /* \"Learning Contrats v0.4.0/BallotWithStages.sol\":485:747  function Ballot(uint8 _numProposals) public  {\r... */\n  pop\n    /* \"Learning Contrats v0.4.0/BallotWithStages.sol\":25:2115  contract Ballot {\r... */\n  jump(tag_8)\ntag_6:\n  dup2\n  sload\n  dup2\n  dup4\n  sstore\n  dup2\n  dup2\n  gt\n  iszero\n  tag_9\n  jumpi\n  dup2\n  dup4\n  0x0\n  mstore\n  keccak256(0x0, 0x20)\n  swap2\n  dup3\n  add\n  swap2\n  add\n  tag_10\n  swap2\n  swap1\n  jump\t// in(tag_11)\ntag_10:\ntag_9:\n  pop\n  pop\n  pop\n  jump\t// out\ntag_11:\n  tag_12\n  swap2\n  swap1\ntag_13:\n  dup1\n  dup3\n  gt\n  iszero\n  tag_14\n  jumpi\n  0x0\n  dup1\n  dup3\n  add\n  0x0\n  swap1\n  sstore\n  pop\n  0x1\n  add\n  jump(tag_13)\ntag_14:\n  pop\n  swap1\n  jump\ntag_12:\n  swap1\n  jump\t// out\ntag_8:\n  dataSize(sub_0)\n  dup1\n  dataOffset(sub_0)\n  0x0\n  codecopy\n  0x0\n  return\nstop\n\nsub_0: assembly {\n        /* \"Learning Contrats v0.4.0/BallotWithStages.sol\":25:2115  contract Ballot {\r... */\n      mstore(0x40, 0x80)\n      jumpi(tag_1, lt(calldatasize, 0x4))\n      calldataload(0x0)\n      0x100000000000000000000000000000000000000000000000000000000\n      swap1\n      div\n      0xffffffff\n      and\n      dup1\n      0x4420e486\n      eq\n      tag_2\n      jumpi\n      dup1\n      0x609ff1bd\n      eq\n      tag_3\n      jumpi\n      dup1\n      0xb3f98adc\n      eq\n      tag_4\n      jumpi\n      dup1\n      0xc040e6b8\n      eq\n      tag_5\n      jumpi\n    tag_1:\n      0x0\n      dup1\n      revert\n        /* \"Learning Contrats v0.4.0/BallotWithStages.sol\":861:1195  function register(address toVoter) public {\r... */\n    tag_2:\n      callvalue\n        /* \"--CODEGEN--\":8:17   */\n      dup1\n        /* \"--CODEGEN--\":5:7   */\n      iszero\n      tag_6\n      jumpi\n        /* \"--CODEGEN--\":30:31   */\n      0x0\n        /* \"--CODEGEN--\":27:28   */\n      dup1\n        /* \"--CODEGEN--\":20:32   */\n      revert\n        /* \"--CODEGEN--\":5:7   */\n    tag_6:\n        /* \"Learning Contrats v0.4.0/BallotWithStages.sol\":861:1195  function register(address toVoter) public {\r... */\n      pop\n      tag_7\n      0x4\n      dup1\n      calldatasize\n      sub\n      dup2\n      add\n      swap1\n      dup1\n      dup1\n      calldataload\n      0xffffffffffffffffffffffffffffffffffffffff\n      and\n      swap1\n      0x20\n      add\n      swap1\n      swap3\n      swap2\n      swap1\n      pop\n      pop\n      pop\n      jump(tag_8)\n    tag_7:\n      stop\n        /* \"Learning Contrats v0.4.0/BallotWithStages.sol\":1690:2112  function winningProposal() public constant returns (uint8 _winningProposal) {\r... */\n    tag_3:\n      callvalue\n        /* \"--CODEGEN--\":8:17   */\n      dup1\n        /* \"--CODEGEN--\":5:7   */\n      iszero\n      tag_9\n      jumpi\n        /* \"--CODEGEN--\":30:31   */\n      0x0\n        /* \"--CODEGEN--\":27:28   */\n      dup1\n        /* \"--CODEGEN--\":20:32   */\n      revert\n        /* \"--CODEGEN--\":5:7   */\n    tag_9:\n        /* \"Learning Contrats v0.4.0/BallotWithStages.sol\":1690:2112  function winningProposal() public constant returns (uint8 _winningProposal) {\r... */\n      pop\n      tag_10\n      jump(tag_11)\n    tag_10:\n      mload(0x40)\n      dup1\n      dup3\n      0xff\n      and\n      0xff\n      and\n      dup2\n      mstore\n      0x20\n      add\n      swap2\n      pop\n      pop\n      mload(0x40)\n      dup1\n      swap2\n      sub\n      swap1\n      return\n        /* \"Learning Contrats v0.4.0/BallotWithStages.sol\":1258:1682  function vote(uint8 toProposal) public  {\r... */\n    tag_4:\n      callvalue\n        /* \"--CODEGEN--\":8:17   */\n      dup1\n        /* \"--CODEGEN--\":5:7   */\n      iszero\n      tag_12\n      jumpi\n        /* \"--CODEGEN--\":30:31   */\n      0x0\n        /* \"--CODEGEN--\":27:28   */\n      dup1\n        /* \"--CODEGEN--\":20:32   */\n      revert\n        /* \"--CODEGEN--\":5:7   */\n    tag_12:\n        /* \"Learning Contrats v0.4.0/BallotWithStages.sol\":1258:1682  function vote(uint8 toProposal) public  {\r... */\n      pop\n      tag_13\n      0x4\n      dup1\n      calldatasize\n      sub\n      dup2\n      add\n      swap1\n      dup1\n      dup1\n      calldataload\n      0xff\n      and\n      swap1\n      0x20\n      add\n      swap1\n      swap3\n      swap2\n      swap1\n      pop\n      pop\n      pop\n      jump(tag_14)\n    tag_13:\n      stop\n        /* \"Learning Contrats v0.4.0/BallotWithStages.sol\":243:274  Stage public stage = Stage.Init */\n    tag_5:\n      callvalue\n        /* \"--CODEGEN--\":8:17   */\n      dup1\n        /* \"--CODEGEN--\":5:7   */\n      iszero\n      tag_15\n      jumpi\n        /* \"--CODEGEN--\":30:31   */\n      0x0\n        /* \"--CODEGEN--\":27:28   */\n      dup1\n        /* \"--CODEGEN--\":20:32   */\n      revert\n        /* \"--CODEGEN--\":5:7   */\n    tag_15:\n        /* \"Learning Contrats v0.4.0/BallotWithStages.sol\":243:274  Stage public stage = Stage.Init */\n      pop\n      tag_16\n      jump(tag_17)\n    tag_16:\n      mload(0x40)\n      dup1\n      dup3\n      0x3\n      dup2\n      gt\n      iszero\n      tag_18\n      jumpi\n      invalid\n    tag_18:\n      0xff\n      and\n      dup2\n      mstore\n      0x20\n      add\n      swap2\n      pop\n      pop\n      mload(0x40)\n      dup1\n      swap2\n      sub\n      swap1\n      return\n        /* \"Learning Contrats v0.4.0/BallotWithStages.sol\":861:1195  function register(address toVoter) public {\r... */\n    tag_8:\n        /* \"Learning Contrats v0.4.0/BallotWithStages.sol\":927:936  Stage.Reg */\n      0x1\n        /* \"Learning Contrats v0.4.0/BallotWithStages.sol\":918:936  stage != Stage.Reg */\n      0x3\n      dup2\n      gt\n      iszero\n      tag_20\n      jumpi\n      invalid\n    tag_20:\n        /* \"Learning Contrats v0.4.0/BallotWithStages.sol\":918:923  stage */\n      0x0\n      dup1\n      swap1\n      sload\n      swap1\n      0x100\n      exp\n      swap1\n      div\n      0xff\n      and\n        /* \"Learning Contrats v0.4.0/BallotWithStages.sol\":918:936  stage != Stage.Reg */\n      0x3\n      dup2\n      gt\n      iszero\n      tag_21\n      jumpi\n      invalid\n    tag_21:\n      eq\n      iszero\n        /* \"Learning Contrats v0.4.0/BallotWithStages.sol\":914:947  if (stage != Stage.Reg) {return;} */\n      iszero\n      tag_22\n      jumpi\n        /* \"Learning Contrats v0.4.0/BallotWithStages.sol\":939:946  return; */\n      jump(tag_19)\n        /* \"Learning Contrats v0.4.0/BallotWithStages.sol\":914:947  if (stage != Stage.Reg) {return;} */\n    tag_22:\n        /* \"Learning Contrats v0.4.0/BallotWithStages.sol\":975:986  chairperson */\n      0x0\n      0x1\n      swap1\n      sload\n      swap1\n      0x100\n      exp\n      swap1\n      div\n      0xffffffffffffffffffffffffffffffffffffffff\n      and\n        /* \"Learning Contrats v0.4.0/BallotWithStages.sol\":961:986  msg.sender != chairperson */\n      0xffffffffffffffffffffffffffffffffffffffff\n      and\n        /* \"Learning Contrats v0.4.0/BallotWithStages.sol\":961:971  msg.sender */\n      caller\n        /* \"Learning Contrats v0.4.0/BallotWithStages.sol\":961:986  msg.sender != chairperson */\n      0xffffffffffffffffffffffffffffffffffffffff\n      and\n      eq\n      iszero\n        /* \"Learning Contrats v0.4.0/BallotWithStages.sol\":961:1011  msg.sender != chairperson || voters[toVoter].voted */\n      dup1\n      tag_23\n      jumpi\n      pop\n        /* \"Learning Contrats v0.4.0/BallotWithStages.sol\":990:996  voters */\n      0x1\n        /* \"Learning Contrats v0.4.0/BallotWithStages.sol\":990:1005  voters[toVoter] */\n      0x0\n        /* \"Learning Contrats v0.4.0/BallotWithStages.sol\":997:1004  toVoter */\n      dup3\n        /* \"Learning Contrats v0.4.0/BallotWithStages.sol\":990:1005  voters[toVoter] */\n      0xffffffffffffffffffffffffffffffffffffffff\n      and\n      0xffffffffffffffffffffffffffffffffffffffff\n      and\n      dup2\n      mstore\n      0x20\n      add\n      swap1\n      dup2\n      mstore\n      0x20\n      add\n      0x0\n      keccak256\n        /* \"Learning Contrats v0.4.0/BallotWithStages.sol\":990:1011  voters[toVoter].voted */\n      0x1\n      add\n      0x0\n      swap1\n      sload\n      swap1\n      0x100\n      exp\n      swap1\n      div\n      0xff\n      and\n        /* \"Learning Contrats v0.4.0/BallotWithStages.sol\":961:1011  msg.sender != chairperson || voters[toVoter].voted */\n    tag_23:\n        /* \"Learning Contrats v0.4.0/BallotWithStages.sol\":957:1020  if (msg.sender != chairperson || voters[toVoter].voted) return; */\n      iszero\n      tag_24\n      jumpi\n        /* \"Learning Contrats v0.4.0/BallotWithStages.sol\":1013:1020  return; */\n      jump(tag_19)\n        /* \"Learning Contrats v0.4.0/BallotWithStages.sol\":957:1020  if (msg.sender != chairperson || voters[toVoter].voted) return; */\n    tag_24:\n        /* \"Learning Contrats v0.4.0/BallotWithStages.sol\":1055:1056  1 */\n      0x1\n        /* \"Learning Contrats v0.4.0/BallotWithStages.sol\":1030:1036  voters */\n      dup1\n        /* \"Learning Contrats v0.4.0/BallotWithStages.sol\":1030:1045  voters[toVoter] */\n      0x0\n        /* \"Learning Contrats v0.4.0/BallotWithStages.sol\":1037:1044  toVoter */\n      dup4\n        /* \"Learning Contrats v0.4.0/BallotWithStages.sol\":1030:1045  voters[toVoter] */\n      0xffffffffffffffffffffffffffffffffffffffff\n      and\n      0xffffffffffffffffffffffffffffffffffffffff\n      and\n      dup2\n      mstore\n      0x20\n      add\n      swap1\n      dup2\n      mstore\n      0x20\n      add\n      0x0\n      keccak256\n        /* \"Learning Contrats v0.4.0/BallotWithStages.sol\":1030:1052  voters[toVoter].weight */\n      0x0\n      add\n        /* \"Learning Contrats v0.4.0/BallotWithStages.sol\":1030:1056  voters[toVoter].weight = 1 */\n      dup2\n      swap1\n      sstore\n      pop\n        /* \"Learning Contrats v0.4.0/BallotWithStages.sol\":1091:1096  false */\n      0x0\n        /* \"Learning Contrats v0.4.0/BallotWithStages.sol\":1067:1073  voters */\n      0x1\n        /* \"Learning Contrats v0.4.0/BallotWithStages.sol\":1067:1082  voters[toVoter] */\n      0x0\n        /* \"Learning Contrats v0.4.0/BallotWithStages.sol\":1074:1081  toVoter */\n      dup4\n        /* \"Learning Contrats v0.4.0/BallotWithStages.sol\":1067:1082  voters[toVoter] */\n      0xffffffffffffffffffffffffffffffffffffffff\n      and\n      0xffffffffffffffffffffffffffffffffffffffff\n      and\n      dup2\n      mstore\n      0x20\n      add\n      swap1\n      dup2\n      mstore\n      0x20\n      add\n      0x0\n      keccak256\n        /* \"Learning Contrats v0.4.0/BallotWithStages.sol\":1067:1088  voters[toVoter].voted */\n      0x1\n      add\n      0x0\n        /* \"Learning Contrats v0.4.0/BallotWithStages.sol\":1067:1096  voters[toVoter].voted = false */\n      0x100\n      exp\n      dup2\n      sload\n      dup2\n      0xff\n      mul\n      not\n      and\n      swap1\n      dup4\n      iszero\n      iszero\n      mul\n      or\n      swap1\n      sstore\n      pop\n        /* \"Learning Contrats v0.4.0/BallotWithStages.sol\":1129:1139  10 seconds */\n      0xa\n        /* \"Learning Contrats v0.4.0/BallotWithStages.sol\":1118:1127  startTime */\n      sload(0x3)\n        /* \"Learning Contrats v0.4.0/BallotWithStages.sol\":1118:1139  startTime+ 10 seconds */\n      add\n        /* \"Learning Contrats v0.4.0/BallotWithStages.sol\":1111:1114  now */\n      timestamp\n        /* \"Learning Contrats v0.4.0/BallotWithStages.sol\":1111:1140  now > (startTime+ 10 seconds) */\n      gt\n        /* \"Learning Contrats v0.4.0/BallotWithStages.sol\":1107:1180  if (now > (startTime+ 10 seconds)) {stage = Stage.Vote; startTime = now;} */\n      iszero\n      tag_25\n      jumpi\n        /* \"Learning Contrats v0.4.0/BallotWithStages.sol\":1151:1161  Stage.Vote */\n      0x2\n        /* \"Learning Contrats v0.4.0/BallotWithStages.sol\":1143:1148  stage */\n      0x0\n      dup1\n        /* \"Learning Contrats v0.4.0/BallotWithStages.sol\":1143:1161  stage = Stage.Vote */\n      0x100\n      exp\n      dup2\n      sload\n      dup2\n      0xff\n      mul\n      not\n      and\n      swap1\n      dup4\n      0x3\n      dup2\n      gt\n      iszero\n      tag_26\n      jumpi\n      invalid\n    tag_26:\n      mul\n      or\n      swap1\n      sstore\n      pop\n        /* \"Learning Contrats v0.4.0/BallotWithStages.sol\":1175:1178  now */\n      timestamp\n        /* \"Learning Contrats v0.4.0/BallotWithStages.sol\":1163:1172  startTime */\n      0x3\n        /* \"Learning Contrats v0.4.0/BallotWithStages.sol\":1163:1178  startTime = now */\n      dup2\n      swap1\n      sstore\n      pop\n        /* \"Learning Contrats v0.4.0/BallotWithStages.sol\":1107:1180  if (now > (startTime+ 10 seconds)) {stage = Stage.Vote; startTime = now;} */\n    tag_25:\n        /* \"Learning Contrats v0.4.0/BallotWithStages.sol\":861:1195  function register(address toVoter) public {\r... */\n    tag_19:\n      pop\n      jump\t// out\n        /* \"Learning Contrats v0.4.0/BallotWithStages.sol\":1690:2112  function winningProposal() public constant returns (uint8 _winningProposal) {\r... */\n    tag_11:\n        /* \"Learning Contrats v0.4.0/BallotWithStages.sol\":1742:1764  uint8 _winningProposal */\n      0x0\n        /* \"Learning Contrats v0.4.0/BallotWithStages.sol\":1819:1843  uint256 winningVoteCount */\n      dup1\n        /* \"Learning Contrats v0.4.0/BallotWithStages.sol\":1863:1873  uint8 prop */\n      0x0\n        /* \"Learning Contrats v0.4.0/BallotWithStages.sol\":1788:1798  Stage.Done */\n      0x3\n        /* \"Learning Contrats v0.4.0/BallotWithStages.sol\":1779:1798  stage != Stage.Done */\n      dup1\n      dup2\n      gt\n      iszero\n      tag_28\n      jumpi\n      invalid\n    tag_28:\n        /* \"Learning Contrats v0.4.0/BallotWithStages.sol\":1779:1784  stage */\n      0x0\n      dup1\n      swap1\n      sload\n      swap1\n      0x100\n      exp\n      swap1\n      div\n      0xff\n      and\n        /* \"Learning Contrats v0.4.0/BallotWithStages.sol\":1779:1798  stage != Stage.Done */\n      0x3\n      dup2\n      gt\n      iszero\n      tag_29\n      jumpi\n      invalid\n    tag_29:\n      eq\n      iszero\n        /* \"Learning Contrats v0.4.0/BallotWithStages.sol\":1776:1809  if(stage != Stage.Done) {return;} */\n      iszero\n      tag_30\n      jumpi\n        /* \"Learning Contrats v0.4.0/BallotWithStages.sol\":1801:1808  return; */\n      jump(tag_27)\n        /* \"Learning Contrats v0.4.0/BallotWithStages.sol\":1776:1809  if(stage != Stage.Done) {return;} */\n    tag_30:\n        /* \"Learning Contrats v0.4.0/BallotWithStages.sol\":1846:1847  0 */\n      0x0\n        /* \"Learning Contrats v0.4.0/BallotWithStages.sol\":1819:1847  uint256 winningVoteCount = 0 */\n      swap2\n      pop\n        /* \"Learning Contrats v0.4.0/BallotWithStages.sol\":1876:1877  0 */\n      0x0\n        /* \"Learning Contrats v0.4.0/BallotWithStages.sol\":1863:1877  uint8 prop = 0 */\n      swap1\n      pop\n        /* \"Learning Contrats v0.4.0/BallotWithStages.sol\":1858:2096  for (uint8 prop = 0; prop < proposals.length; prop++)\r... */\n    tag_31:\n        /* \"Learning Contrats v0.4.0/BallotWithStages.sol\":1886:1895  proposals */\n      0x2\n        /* \"Learning Contrats v0.4.0/BallotWithStages.sol\":1886:1902  proposals.length */\n      dup1\n      sload\n      swap1\n      pop\n        /* \"Learning Contrats v0.4.0/BallotWithStages.sol\":1879:1883  prop */\n      dup2\n        /* \"Learning Contrats v0.4.0/BallotWithStages.sol\":1879:1902  prop < proposals.length */\n      0xff\n      and\n      lt\n        /* \"Learning Contrats v0.4.0/BallotWithStages.sol\":1858:2096  for (uint8 prop = 0; prop < proposals.length; prop++)\r... */\n      iszero\n      tag_32\n      jumpi\n        /* \"Learning Contrats v0.4.0/BallotWithStages.sol\":1957:1973  winningVoteCount */\n      dup2\n        /* \"Learning Contrats v0.4.0/BallotWithStages.sol\":1929:1938  proposals */\n      0x2\n        /* \"Learning Contrats v0.4.0/BallotWithStages.sol\":1939:1943  prop */\n      dup3\n        /* \"Learning Contrats v0.4.0/BallotWithStages.sol\":1929:1944  proposals[prop] */\n      0xff\n      and\n      dup2\n      sload\n      dup2\n      lt\n      iszero\n      iszero\n      tag_34\n      jumpi\n      invalid\n    tag_34:\n      swap1\n      0x0\n      mstore\n      keccak256(0x0, 0x20)\n      add\n        /* \"Learning Contrats v0.4.0/BallotWithStages.sol\":1929:1954  proposals[prop].voteCount */\n      0x0\n      add\n      sload\n        /* \"Learning Contrats v0.4.0/BallotWithStages.sol\":1929:1973  proposals[prop].voteCount > winningVoteCount */\n      gt\n        /* \"Learning Contrats v0.4.0/BallotWithStages.sol\":1925:2096  if (proposals[prop].voteCount > winningVoteCount) {\r... */\n      iszero\n      tag_36\n      jumpi\n        /* \"Learning Contrats v0.4.0/BallotWithStages.sol\":2013:2022  proposals */\n      0x2\n        /* \"Learning Contrats v0.4.0/BallotWithStages.sol\":2023:2027  prop */\n      dup2\n        /* \"Learning Contrats v0.4.0/BallotWithStages.sol\":2013:2028  proposals[prop] */\n      0xff\n      and\n      dup2\n      sload\n      dup2\n      lt\n      iszero\n      iszero\n      tag_37\n      jumpi\n      invalid\n    tag_37:\n      swap1\n      0x0\n      mstore\n      keccak256(0x0, 0x20)\n      add\n        /* \"Learning Contrats v0.4.0/BallotWithStages.sol\":2013:2038  proposals[prop].voteCount */\n      0x0\n      add\n      sload\n        /* \"Learning Contrats v0.4.0/BallotWithStages.sol\":1994:2038  winningVoteCount = proposals[prop].voteCount */\n      swap2\n      pop\n        /* \"Learning Contrats v0.4.0/BallotWithStages.sol\":2076:2080  prop */\n      dup1\n        /* \"Learning Contrats v0.4.0/BallotWithStages.sol\":2057:2080  _winningProposal = prop */\n      swap3\n      pop\n        /* \"Learning Contrats v0.4.0/BallotWithStages.sol\":1925:2096  if (proposals[prop].voteCount > winningVoteCount) {\r... */\n    tag_36:\n        /* \"Learning Contrats v0.4.0/BallotWithStages.sol\":1904:1910  prop++ */\n      dup1\n      dup1\n      0x1\n      add\n      swap2\n      pop\n      pop\n        /* \"Learning Contrats v0.4.0/BallotWithStages.sol\":1858:2096  for (uint8 prop = 0; prop < proposals.length; prop++)\r... */\n      jump(tag_31)\n    tag_32:\n        /* \"Learning Contrats v0.4.0/BallotWithStages.sol\":1690:2112  function winningProposal() public constant returns (uint8 _winningProposal) {\r... */\n    tag_27:\n      pop\n      pop\n      swap1\n      jump\t// out\n        /* \"Learning Contrats v0.4.0/BallotWithStages.sol\":1258:1682  function vote(uint8 toProposal) public  {\r... */\n    tag_14:\n        /* \"Learning Contrats v0.4.0/BallotWithStages.sol\":1353:1373  Voter storage sender */\n      0x0\n        /* \"Learning Contrats v0.4.0/BallotWithStages.sol\":1322:1332  Stage.Vote */\n      0x2\n        /* \"Learning Contrats v0.4.0/BallotWithStages.sol\":1313:1332  stage != Stage.Vote */\n      0x3\n      dup2\n      gt\n      iszero\n      tag_40\n      jumpi\n      invalid\n    tag_40:\n        /* \"Learning Contrats v0.4.0/BallotWithStages.sol\":1313:1318  stage */\n      0x0\n      dup1\n      swap1\n      sload\n      swap1\n      0x100\n      exp\n      swap1\n      div\n      0xff\n      and\n        /* \"Learning Contrats v0.4.0/BallotWithStages.sol\":1313:1332  stage != Stage.Vote */\n      0x3\n      dup2\n      gt\n      iszero\n      tag_41\n      jumpi\n      invalid\n    tag_41:\n      eq\n      iszero\n        /* \"Learning Contrats v0.4.0/BallotWithStages.sol\":1309:1343  if (stage != Stage.Vote) {return;} */\n      iszero\n      tag_42\n      jumpi\n        /* \"Learning Contrats v0.4.0/BallotWithStages.sol\":1335:1342  return; */\n      jump(tag_39)\n        /* \"Learning Contrats v0.4.0/BallotWithStages.sol\":1309:1343  if (stage != Stage.Vote) {return;} */\n    tag_42:\n        /* \"Learning Contrats v0.4.0/BallotWithStages.sol\":1376:1382  voters */\n      0x1\n        /* \"Learning Contrats v0.4.0/BallotWithStages.sol\":1376:1394  voters[msg.sender] */\n      0x0\n        /* \"Learning Contrats v0.4.0/BallotWithStages.sol\":1383:1393  msg.sender */\n      caller\n        /* \"Learning Contrats v0.4.0/BallotWithStages.sol\":1376:1394  voters[msg.sender] */\n      0xffffffffffffffffffffffffffffffffffffffff\n      and\n      0xffffffffffffffffffffffffffffffffffffffff\n      and\n      dup2\n      mstore\n      0x20\n      add\n      swap1\n      dup2\n      mstore\n      0x20\n      add\n      0x0\n      keccak256\n        /* \"Learning Contrats v0.4.0/BallotWithStages.sol\":1353:1394  Voter storage sender = voters[msg.sender] */\n      swap1\n      pop\n        /* \"Learning Contrats v0.4.0/BallotWithStages.sol\":1409:1415  sender */\n      dup1\n        /* \"Learning Contrats v0.4.0/BallotWithStages.sol\":1409:1421  sender.voted */\n      0x1\n      add\n      0x0\n      swap1\n      sload\n      swap1\n      0x100\n      exp\n      swap1\n      div\n      0xff\n      and\n        /* \"Learning Contrats v0.4.0/BallotWithStages.sol\":1409:1455  sender.voted || toProposal >= proposals.length */\n      dup1\n      tag_43\n      jumpi\n      pop\n        /* \"Learning Contrats v0.4.0/BallotWithStages.sol\":1439:1448  proposals */\n      0x2\n        /* \"Learning Contrats v0.4.0/BallotWithStages.sol\":1439:1455  proposals.length */\n      dup1\n      sload\n      swap1\n      pop\n        /* \"Learning Contrats v0.4.0/BallotWithStages.sol\":1425:1435  toProposal */\n      dup3\n        /* \"Learning Contrats v0.4.0/BallotWithStages.sol\":1425:1455  toProposal >= proposals.length */\n      0xff\n      and\n      lt\n      iszero\n        /* \"Learning Contrats v0.4.0/BallotWithStages.sol\":1409:1455  sender.voted || toProposal >= proposals.length */\n    tag_43:\n        /* \"Learning Contrats v0.4.0/BallotWithStages.sol\":1405:1464  if (sender.voted || toProposal >= proposals.length) return; */\n      iszero\n      tag_44\n      jumpi\n        /* \"Learning Contrats v0.4.0/BallotWithStages.sol\":1457:1464  return; */\n      jump(tag_39)\n        /* \"Learning Contrats v0.4.0/BallotWithStages.sol\":1405:1464  if (sender.voted || toProposal >= proposals.length) return; */\n    tag_44:\n        /* \"Learning Contrats v0.4.0/BallotWithStages.sol\":1489:1493  true */\n      0x1\n        /* \"Learning Contrats v0.4.0/BallotWithStages.sol\":1474:1480  sender */\n      dup2\n        /* \"Learning Contrats v0.4.0/BallotWithStages.sol\":1474:1486  sender.voted */\n      0x1\n      add\n      0x0\n        /* \"Learning Contrats v0.4.0/BallotWithStages.sol\":1474:1493  sender.voted = true */\n      0x100\n      exp\n      dup2\n      sload\n      dup2\n      0xff\n      mul\n      not\n      and\n      swap1\n      dup4\n      iszero\n      iszero\n      mul\n      or\n      swap1\n      sstore\n      pop\n        /* \"Learning Contrats v0.4.0/BallotWithStages.sol\":1518:1528  toProposal */\n      dup2\n        /* \"Learning Contrats v0.4.0/BallotWithStages.sol\":1504:1510  sender */\n      dup2\n        /* \"Learning Contrats v0.4.0/BallotWithStages.sol\":1504:1515  sender.vote */\n      0x1\n      add\n      0x1\n        /* \"Learning Contrats v0.4.0/BallotWithStages.sol\":1504:1528  sender.vote = toProposal */\n      0x100\n      exp\n      dup2\n      sload\n      dup2\n      0xff\n      mul\n      not\n      and\n      swap1\n      dup4\n      0xff\n      and\n      mul\n      or\n      swap1\n      sstore\n      pop\n        /* \"Learning Contrats v0.4.0/BallotWithStages.sol\":1577:1583  sender */\n      dup1\n        /* \"Learning Contrats v0.4.0/BallotWithStages.sol\":1577:1590  sender.weight */\n      0x0\n      add\n      sload\n        /* \"Learning Contrats v0.4.0/BallotWithStages.sol\":1542:1551  proposals */\n      0x2\n        /* \"Learning Contrats v0.4.0/BallotWithStages.sol\":1552:1562  toProposal */\n      dup4\n        /* \"Learning Contrats v0.4.0/BallotWithStages.sol\":1542:1563  proposals[toProposal] */\n      0xff\n      and\n      dup2\n      sload\n      dup2\n      lt\n      iszero\n      iszero\n      tag_45\n      jumpi\n      invalid\n    tag_45:\n      swap1\n      0x0\n      mstore\n      keccak256(0x0, 0x20)\n      add\n        /* \"Learning Contrats v0.4.0/BallotWithStages.sol\":1542:1573  proposals[toProposal].voteCount */\n      0x0\n      add\n      0x0\n        /* \"Learning Contrats v0.4.0/BallotWithStages.sol\":1542:1590  proposals[toProposal].voteCount += sender.weight */\n      dup3\n      dup3\n      sload\n      add\n      swap3\n      pop\n      pop\n      dup2\n      swap1\n      sstore\n      pop\n        /* \"Learning Contrats v0.4.0/BallotWithStages.sol\":1623:1633  10 seconds */\n      0xa\n        /* \"Learning Contrats v0.4.0/BallotWithStages.sol\":1612:1621  startTime */\n      sload(0x3)\n        /* \"Learning Contrats v0.4.0/BallotWithStages.sol\":1612:1633  startTime+ 10 seconds */\n      add\n        /* \"Learning Contrats v0.4.0/BallotWithStages.sol\":1605:1608  now */\n      timestamp\n        /* \"Learning Contrats v0.4.0/BallotWithStages.sol\":1605:1634  now > (startTime+ 10 seconds) */\n      gt\n        /* \"Learning Contrats v0.4.0/BallotWithStages.sol\":1601:1657  if (now > (startTime+ 10 seconds)) {stage = Stage.Done;} */\n      iszero\n      tag_47\n      jumpi\n        /* \"Learning Contrats v0.4.0/BallotWithStages.sol\":1645:1655  Stage.Done */\n      0x3\n        /* \"Learning Contrats v0.4.0/BallotWithStages.sol\":1637:1642  stage */\n      0x0\n      dup1\n        /* \"Learning Contrats v0.4.0/BallotWithStages.sol\":1637:1655  stage = Stage.Done */\n      0x100\n      exp\n      dup2\n      sload\n      dup2\n      0xff\n      mul\n      not\n      and\n      swap1\n      dup4\n      0x3\n      dup2\n      gt\n      iszero\n      tag_48\n      jumpi\n      invalid\n    tag_48:\n      mul\n      or\n      swap1\n      sstore\n      pop\n        /* \"Learning Contrats v0.4.0/BallotWithStages.sol\":1601:1657  if (now > (startTime+ 10 seconds)) {stage = Stage.Done;} */\n    tag_47:\n        /* \"Learning Contrats v0.4.0/BallotWithStages.sol\":1258:1682  function vote(uint8 toProposal) public  {\r... */\n    tag_39:\n      pop\n      pop\n      jump\t// out\n        /* \"Learning Contrats v0.4.0/BallotWithStages.sol\":243:274  Stage public stage = Stage.Init */\n    tag_17:\n      0x0\n      dup1\n      swap1\n      sload\n      swap1\n      0x100\n      exp\n      swap1\n      div\n      0xff\n      and\n      dup2\n      jump\t// out\n\n    auxdata: 0xa165627a7a723058208ee799b58d48df19cdb3fc1420cfb6c03f37ec29e5ef409f9582bd29d12222f80029\n}\n",
				"bytecode": {
					"linkReferences": {},
					"object": "608060405260008060006101000a81548160ff0219169083600381111561002257fe5b021790555034801561003357600080fd5b506040516020806106e08339810180604052810190808051906020019092919050505033600060016101000a81548173ffffffffffffffffffffffffffffffffffffffff021916908373ffffffffffffffffffffffffffffffffffffffff1602179055506002600160008060019054906101000a900473ffffffffffffffffffffffffffffffffffffffff1673ffffffffffffffffffffffffffffffffffffffff1673ffffffffffffffffffffffffffffffffffffffff168152602001908152602001600020600001819055508060ff166002816101119190610142565b5060016000806101000a81548160ff0219169083600381111561013057fe5b02179055504260038190555050610195565b81548183558181111561016957818360005260206000209182019101610168919061016e565b5b505050565b61019291905b8082111561018e5760008082016000905550600101610174565b5090565b90565b61053c806101a46000396000f300608060405260043610610062576000357c0100000000000000000000000000000000000000000000000000000000900463ffffffff1680634420e48614610067578063609ff1bd146100aa578063b3f98adc146100db578063c040e6b81461010b575b600080fd5b34801561007357600080fd5b506100a8600480360381019080803573ffffffffffffffffffffffffffffffffffffffff169060200190929190505050610144565b005b3480156100b657600080fd5b506100bf610308565b604051808260ff1660ff16815260200191505060405180910390f35b3480156100e757600080fd5b50610109600480360381019080803560ff1690602001909291905050506103b8565b005b34801561011757600080fd5b506101206104fe565b6040518082600381111561013057fe5b60ff16815260200191505060405180910390f35b6001600381111561015157fe5b6000809054906101000a900460ff16600381111561016b57fe5b14151561017757610305565b600060019054906101000a900473ffffffffffffffffffffffffffffffffffffffff1673ffffffffffffffffffffffffffffffffffffffff163373ffffffffffffffffffffffffffffffffffffffff161415806102205750600160008273ffffffffffffffffffffffffffffffffffffffff1673ffffffffffffffffffffffffffffffffffffffff16815260200190815260200160002060010160009054906101000a900460ff165b1561022a57610305565b60018060008373ffffffffffffffffffffffffffffffffffffffff1673ffffffffffffffffffffffffffffffffffffffff168152602001908152602001600020600001819055506000600160008373ffffffffffffffffffffffffffffffffffffffff1673ffffffffffffffffffffffffffffffffffffffff16815260200190815260200160002060010160006101000a81548160ff021916908315150217905550600a600354014211156103045760026000806101000a81548160ff021916908360038111156102f757fe5b0217905550426003819055505b5b50565b600080600060038081111561031957fe5b6000809054906101000a900460ff16600381111561033357fe5b14151561033f576103b3565b60009150600090505b6002805490508160ff1610156103b2578160028260ff1681548110151561036b57fe5b906000526020600020016000015411156103a55760028160ff1681548110151561039157fe5b906000526020600020016000015491508092505b8080600101915050610348565b5b505090565b6000600260038111156103c757fe5b6000809054906101000a900460ff1660038111156103e157fe5b1415156103ed576104fa565b600160003373ffffffffffffffffffffffffffffffffffffffff1673ffffffffffffffffffffffffffffffffffffffff16815260200190815260200160002090508060010160009054906101000a900460ff168061045357506002805490508260ff1610155b1561045d576104fa565b60018160010160006101000a81548160ff021916908315150217905550818160010160016101000a81548160ff021916908360ff160217905550806000015460028360ff168154811015156104ae57fe5b9060005260206000200160000160008282540192505081905550600a600354014211156104f95760036000806101000a81548160ff021916908360038111156104f357fe5b02179055505b5b5050565b6000809054906101000a900460ff16815600a165627a7a723058208ee799b58d48df19cdb3fc1420cfb6c03f37ec29e5ef409f9582bd29d12222f80029",
					"opcodes": "PUSH1 0x80 PUSH1 0x40 MSTORE PUSH1 0x0 DUP1 PUSH1 0x0 PUSH2 0x100 EXP DUP2 SLOAD DUP2 PUSH1 0xFF MUL NOT AND SWAP1 DUP4 PUSH1 0x3 DUP2 GT ISZERO PUSH2 0x22 JUMPI INVALID JUMPDEST MUL OR SWAP1 SSTORE POP CALLVALUE DUP1 ISZERO PUSH2 0x33 JUMPI PUSH1 0x0 DUP1 REVERT JUMPDEST POP PUSH1 0x40 MLOAD PUSH1 0x20 DUP1 PUSH2 0x6E0 DUP4 CODECOPY DUP2 ADD DUP1 PUSH1 0x40 MSTORE DUP2 ADD SWAP1 DUP1 DUP1 MLOAD SWAP1 PUSH1 0x20 ADD SWAP1 SWAP3 SWAP2 SWAP1 POP POP POP CALLER PUSH1 0x0 PUSH1 0x1 PUSH2 0x100 EXP DUP2 SLOAD DUP2 PUSH20 0xFFFFFFFFFFFFFFFFFFFFFFFFFFFFFFFFFFFFFFFF MUL NOT AND SWAP1 DUP4 PUSH20 0xFFFFFFFFFFFFFFFFFFFFFFFFFFFFFFFFFFFFFFFF AND MUL OR SWAP1 SSTORE POP PUSH1 0x2 PUSH1 0x1 PUSH1 0x0 DUP1 PUSH1 0x1 SWAP1 SLOAD SWAP1 PUSH2 0x100 EXP SWAP1 DIV PUSH20 0xFFFFFFFFFFFFFFFFFFFFFFFFFFFFFFFFFFFFFFFF AND PUSH20 0xFFFFFFFFFFFFFFFFFFFFFFFFFFFFFFFFFFFFFFFF AND PUSH20 0xFFFFFFFFFFFFFFFFFFFFFFFFFFFFFFFFFFFFFFFF AND DUP2 MSTORE PUSH1 0x20 ADD SWAP1 DUP2 MSTORE PUSH1 0x20 ADD PUSH1 0x0 KECCAK256 PUSH1 0x0 ADD DUP2 SWAP1 SSTORE POP DUP1 PUSH1 0xFF AND PUSH1 0x2 DUP2 PUSH2 0x111 SWAP2 SWAP1 PUSH2 0x142 JUMP JUMPDEST POP PUSH1 0x1 PUSH1 0x0 DUP1 PUSH2 0x100 EXP DUP2 SLOAD DUP2 PUSH1 0xFF MUL NOT AND SWAP1 DUP4 PUSH1 0x3 DUP2 GT ISZERO PUSH2 0x130 JUMPI INVALID JUMPDEST MUL OR SWAP1 SSTORE POP TIMESTAMP PUSH1 0x3 DUP2 SWAP1 SSTORE POP POP PUSH2 0x195 JUMP JUMPDEST DUP2 SLOAD DUP2 DUP4 SSTORE DUP2 DUP2 GT ISZERO PUSH2 0x169 JUMPI DUP2 DUP4 PUSH1 0x0 MSTORE PUSH1 0x20 PUSH1 0x0 KECCAK256 SWAP2 DUP3 ADD SWAP2 ADD PUSH2 0x168 SWAP2 SWAP1 PUSH2 0x16E JUMP JUMPDEST JUMPDEST POP POP POP JUMP JUMPDEST PUSH2 0x192 SWAP2 SWAP1 JUMPDEST DUP1 DUP3 GT ISZERO PUSH2 0x18E JUMPI PUSH1 0x0 DUP1 DUP3 ADD PUSH1 0x0 SWAP1 SSTORE POP PUSH1 0x1 ADD PUSH2 0x174 JUMP JUMPDEST POP SWAP1 JUMP JUMPDEST SWAP1 JUMP JUMPDEST PUSH2 0x53C DUP1 PUSH2 0x1A4 PUSH1 0x0 CODECOPY PUSH1 0x0 RETURN STOP PUSH1 0x80 PUSH1 0x40 MSTORE PUSH1 0x4 CALLDATASIZE LT PUSH2 0x62 JUMPI PUSH1 0x0 CALLDATALOAD PUSH29 0x100000000000000000000000000000000000000000000000000000000 SWAP1 DIV PUSH4 0xFFFFFFFF AND DUP1 PUSH4 0x4420E486 EQ PUSH2 0x67 JUMPI DUP1 PUSH4 0x609FF1BD EQ PUSH2 0xAA JUMPI DUP1 PUSH4 0xB3F98ADC EQ PUSH2 0xDB JUMPI DUP1 PUSH4 0xC040E6B8 EQ PUSH2 0x10B JUMPI JUMPDEST PUSH1 0x0 DUP1 REVERT JUMPDEST CALLVALUE DUP1 ISZERO PUSH2 0x73 JUMPI PUSH1 0x0 DUP1 REVERT JUMPDEST POP PUSH2 0xA8 PUSH1 0x4 DUP1 CALLDATASIZE SUB DUP2 ADD SWAP1 DUP1 DUP1 CALLDATALOAD PUSH20 0xFFFFFFFFFFFFFFFFFFFFFFFFFFFFFFFFFFFFFFFF AND SWAP1 PUSH1 0x20 ADD SWAP1 SWAP3 SWAP2 SWAP1 POP POP POP PUSH2 0x144 JUMP JUMPDEST STOP JUMPDEST CALLVALUE DUP1 ISZERO PUSH2 0xB6 JUMPI PUSH1 0x0 DUP1 REVERT JUMPDEST POP PUSH2 0xBF PUSH2 0x308 JUMP JUMPDEST PUSH1 0x40 MLOAD DUP1 DUP3 PUSH1 0xFF AND PUSH1 0xFF AND DUP2 MSTORE PUSH1 0x20 ADD SWAP2 POP POP PUSH1 0x40 MLOAD DUP1 SWAP2 SUB SWAP1 RETURN JUMPDEST CALLVALUE DUP1 ISZERO PUSH2 0xE7 JUMPI PUSH1 0x0 DUP1 REVERT JUMPDEST POP PUSH2 0x109 PUSH1 0x4 DUP1 CALLDATASIZE SUB DUP2 ADD SWAP1 DUP1 DUP1 CALLDATALOAD PUSH1 0xFF AND SWAP1 PUSH1 0x20 ADD SWAP1 SWAP3 SWAP2 SWAP1 POP POP POP PUSH2 0x3B8 JUMP JUMPDEST STOP JUMPDEST CALLVALUE DUP1 ISZERO PUSH2 0x117 JUMPI PUSH1 0x0 DUP1 REVERT JUMPDEST POP PUSH2 0x120 PUSH2 0x4FE JUMP JUMPDEST PUSH1 0x40 MLOAD DUP1 DUP3 PUSH1 0x3 DUP2 GT ISZERO PUSH2 0x130 JUMPI INVALID JUMPDEST PUSH1 0xFF AND DUP2 MSTORE PUSH1 0x20 ADD SWAP2 POP POP PUSH1 0x40 MLOAD DUP1 SWAP2 SUB SWAP1 RETURN JUMPDEST PUSH1 0x1 PUSH1 0x3 DUP2 GT ISZERO PUSH2 0x151 JUMPI INVALID JUMPDEST PUSH1 0x0 DUP1 SWAP1 SLOAD SWAP1 PUSH2 0x100 EXP SWAP1 DIV PUSH1 0xFF AND PUSH1 0x3 DUP2 GT ISZERO PUSH2 0x16B JUMPI INVALID JUMPDEST EQ ISZERO ISZERO PUSH2 0x177 JUMPI PUSH2 0x305 JUMP JUMPDEST PUSH1 0x0 PUSH1 0x1 SWAP1 SLOAD SWAP1 PUSH2 0x100 EXP SWAP1 DIV PUSH20 0xFFFFFFFFFFFFFFFFFFFFFFFFFFFFFFFFFFFFFFFF AND PUSH20 0xFFFFFFFFFFFFFFFFFFFFFFFFFFFFFFFFFFFFFFFF AND CALLER PUSH20 0xFFFFFFFFFFFFFFFFFFFFFFFFFFFFFFFFFFFFFFFF AND EQ ISZERO DUP1 PUSH2 0x220 JUMPI POP PUSH1 0x1 PUSH1 0x0 DUP3 PUSH20 0xFFFFFFFFFFFFFFFFFFFFFFFFFFFFFFFFFFFFFFFF AND PUSH20 0xFFFFFFFFFFFFFFFFFFFFFFFFFFFFFFFFFFFFFFFF AND DUP2 MSTORE PUSH1 0x20 ADD SWAP1 DUP2 MSTORE PUSH1 0x20 ADD PUSH1 0x0 KECCAK256 PUSH1 0x1 ADD PUSH1 0x0 SWAP1 SLOAD SWAP1 PUSH2 0x100 EXP SWAP1 DIV PUSH1 0xFF AND JUMPDEST ISZERO PUSH2 0x22A JUMPI PUSH2 0x305 JUMP JUMPDEST PUSH1 0x1 DUP1 PUSH1 0x0 DUP4 PUSH20 0xFFFFFFFFFFFFFFFFFFFFFFFFFFFFFFFFFFFFFFFF AND PUSH20 0xFFFFFFFFFFFFFFFFFFFFFFFFFFFFFFFFFFFFFFFF AND DUP2 MSTORE PUSH1 0x20 ADD SWAP1 DUP2 MSTORE PUSH1 0x20 ADD PUSH1 0x0 KECCAK256 PUSH1 0x0 ADD DUP2 SWAP1 SSTORE POP PUSH1 0x0 PUSH1 0x1 PUSH1 0x0 DUP4 PUSH20 0xFFFFFFFFFFFFFFFFFFFFFFFFFFFFFFFFFFFFFFFF AND PUSH20 0xFFFFFFFFFFFFFFFFFFFFFFFFFFFFFFFFFFFFFFFF AND DUP2 MSTORE PUSH1 0x20 ADD SWAP1 DUP2 MSTORE PUSH1 0x20 ADD PUSH1 0x0 KECCAK256 PUSH1 0x1 ADD PUSH1 0x0 PUSH2 0x100 EXP DUP2 SLOAD DUP2 PUSH1 0xFF MUL NOT AND SWAP1 DUP4 ISZERO ISZERO MUL OR SWAP1 SSTORE POP PUSH1 0xA PUSH1 0x3 SLOAD ADD TIMESTAMP GT ISZERO PUSH2 0x304 JUMPI PUSH1 0x2 PUSH1 0x0 DUP1 PUSH2 0x100 EXP DUP2 SLOAD DUP2 PUSH1 0xFF MUL NOT AND SWAP1 DUP4 PUSH1 0x3 DUP2 GT ISZERO PUSH2 0x2F7 JUMPI INVALID JUMPDEST MUL OR SWAP1 SSTORE POP TIMESTAMP PUSH1 0x3 DUP2 SWAP1 SSTORE POP JUMPDEST JUMPDEST POP JUMP JUMPDEST PUSH1 0x0 DUP1 PUSH1 0x0 PUSH1 0x3 DUP1 DUP2 GT ISZERO PUSH2 0x319 JUMPI INVALID JUMPDEST PUSH1 0x0 DUP1 SWAP1 SLOAD SWAP1 PUSH2 0x100 EXP SWAP1 DIV PUSH1 0xFF AND PUSH1 0x3 DUP2 GT ISZERO PUSH2 0x333 JUMPI INVALID JUMPDEST EQ ISZERO ISZERO PUSH2 0x33F JUMPI PUSH2 0x3B3 JUMP JUMPDEST PUSH1 0x0 SWAP2 POP PUSH1 0x0 SWAP1 POP JUMPDEST PUSH1 0x2 DUP1 SLOAD SWAP1 POP DUP2 PUSH1 0xFF AND LT ISZERO PUSH2 0x3B2 JUMPI DUP2 PUSH1 0x2 DUP3 PUSH1 0xFF AND DUP2 SLOAD DUP2 LT ISZERO ISZERO PUSH2 0x36B JUMPI INVALID JUMPDEST SWAP1 PUSH1 0x0 MSTORE PUSH1 0x20 PUSH1 0x0 KECCAK256 ADD PUSH1 0x0 ADD SLOAD GT ISZERO PUSH2 0x3A5 JUMPI PUSH1 0x2 DUP2 PUSH1 0xFF AND DUP2 SLOAD DUP2 LT ISZERO ISZERO PUSH2 0x391 JUMPI INVALID JUMPDEST SWAP1 PUSH1 0x0 MSTORE PUSH1 0x20 PUSH1 0x0 KECCAK256 ADD PUSH1 0x0 ADD SLOAD SWAP2 POP DUP1 SWAP3 POP JUMPDEST DUP1 DUP1 PUSH1 0x1 ADD SWAP2 POP POP PUSH2 0x348 JUMP JUMPDEST JUMPDEST POP POP SWAP1 JUMP JUMPDEST PUSH1 0x0 PUSH1 0x2 PUSH1 0x3 DUP2 GT ISZERO PUSH2 0x3C7 JUMPI INVALID JUMPDEST PUSH1 0x0 DUP1 SWAP1 SLOAD SWAP1 PUSH2 0x100 EXP SWAP1 DIV PUSH1 0xFF AND PUSH1 0x3 DUP2 GT ISZERO PUSH2 0x3E1 JUMPI INVALID JUMPDEST EQ ISZERO ISZERO PUSH2 0x3ED JUMPI PUSH2 0x4FA JUMP JUMPDEST PUSH1 0x1 PUSH1 0x0 CALLER PUSH20 0xFFFFFFFFFFFFFFFFFFFFFFFFFFFFFFFFFFFFFFFF AND PUSH20 0xFFFFFFFFFFFFFFFFFFFFFFFFFFFFFFFFFFFFFFFF AND DUP2 MSTORE PUSH1 0x20 ADD SWAP1 DUP2 MSTORE PUSH1 0x20 ADD PUSH1 0x0 KECCAK256 SWAP1 POP DUP1 PUSH1 0x1 ADD PUSH1 0x0 SWAP1 SLOAD SWAP1 PUSH2 0x100 EXP SWAP1 DIV PUSH1 0xFF AND DUP1 PUSH2 0x453 JUMPI POP PUSH1 0x2 DUP1 SLOAD SWAP1 POP DUP3 PUSH1 0xFF AND LT ISZERO JUMPDEST ISZERO PUSH2 0x45D JUMPI PUSH2 0x4FA JUMP JUMPDEST PUSH1 0x1 DUP2 PUSH1 0x1 ADD PUSH1 0x0 PUSH2 0x100 EXP DUP2 SLOAD DUP2 PUSH1 0xFF MUL NOT AND SWAP1 DUP4 ISZERO ISZERO MUL OR SWAP1 SSTORE POP DUP2 DUP2 PUSH1 0x1 ADD PUSH1 0x1 PUSH2 0x100 EXP DUP2 SLOAD DUP2 PUSH1 0xFF MUL NOT AND SWAP1 DUP4 PUSH1 0xFF AND MUL OR SWAP1 SSTORE POP DUP1 PUSH1 0x0 ADD SLOAD PUSH1 0x2 DUP4 PUSH1 0xFF AND DUP2 SLOAD DUP2 LT ISZERO ISZERO PUSH2 0x4AE JUMPI INVALID JUMPDEST SWAP1 PUSH1 0x0 MSTORE PUSH1 0x20 PUSH1 0x0 KECCAK256 ADD PUSH1 0x0 ADD PUSH1 0x0 DUP3 DUP3 SLOAD ADD SWAP3 POP POP DUP2 SWAP1 SSTORE POP PUSH1 0xA PUSH1 0x3 SLOAD ADD TIMESTAMP GT ISZERO PUSH2 0x4F9 JUMPI PUSH1 0x3 PUSH1 0x0 DUP1 PUSH2 0x100 EXP DUP2 SLOAD DUP2 PUSH1 0xFF MUL NOT AND SWAP1 DUP4 PUSH1 0x3 DUP2 GT ISZERO PUSH2 0x4F3 JUMPI INVALID JUMPDEST MUL OR SWAP1 SSTORE POP JUMPDEST JUMPDEST POP POP JUMP JUMPDEST PUSH1 0x0 DUP1 SWAP1 SLOAD SWAP1 PUSH2 0x100 EXP SWAP1 DIV PUSH1 0xFF AND DUP2 JUMP STOP LOG1 PUSH6 0x627A7A723058 KECCAK256 DUP15 0xe7 SWAP10 0xb5 DUP14 0x48 0xdf NOT 0xcd 0xb3 0xfc EQ KECCAK256 0xcf 0xb6 0xc0 0x3f CALLDATACOPY 0xec 0x29 0xe5 0xef BLOCKHASH SWAP16 SWAP6 DUP3 0xbd 0x29 0xd1 0x22 0x22 0xf8 STOP 0x29 "
				},
				"gasEstimates": {
					"creation": {
						"codeDepositCost": "268000",
						"executionCost": "infinite",
						"totalCost": "infinite"
					},
					"external": {
						"register(address)": "82199",
						"stage()": "528",
						"vote(uint8)": "83019",
						"winningProposal()": "infinite"
					}
				},
				"methodIdentifiers": {
					"register(address)": "4420e486",
					"stage()": "c040e6b8",
					"vote(uint8)": "b3f98adc",
					"winningProposal()": "609ff1bd"
				}
			},
			"userdoc": {
				"methods": {
					"register(address)": {
						"notice": "May only be called by $(chairperson)."
					},
					"vote(uint8)": {
						"notice": "Give a single vote to proposal $(toProposal)."
					}
				}
			}
		}
	}
}