{
	"Learning Contrats v0.4.0/BallotWithModifier.sol": {
		"Ballot": {
			"abi": [
				{
					"constant": false,
					"inputs": [
						{
							"name": "toVoter",
							"type": "address"
						}
					],
					"name": "register",
					"outputs": [],
					"payable": false,
					"stateMutability": "nonpayable",
					"type": "function"
				},
				{
					"constant": true,
					"inputs": [],
					"name": "winningProposal",
					"outputs": [
						{
							"name": "_winningProposal",
							"type": "uint8"
						}
					],
					"payable": false,
					"stateMutability": "view",
					"type": "function"
				},
				{
					"constant": false,
					"inputs": [
						{
							"name": "toProposal",
							"type": "uint8"
						}
					],
					"name": "vote",
					"outputs": [],
					"payable": false,
					"stateMutability": "nonpayable",
					"type": "function"
				},
				{
					"constant": true,
					"inputs": [],
					"name": "stage",
					"outputs": [
						{
							"name": "",
							"type": "uint8"
						}
					],
					"payable": false,
					"stateMutability": "view",
					"type": "function"
				},
				{
					"inputs": [
						{
							"name": "_numProposals",
							"type": "uint8"
						}
					],
					"payable": false,
					"stateMutability": "nonpayable",
					"type": "constructor"
				},
				{
					"anonymous": false,
					"inputs": [],
					"name": "votingCompleted",
					"type": "event"
				}
			],
			"devdoc": {
				"methods": {}
			},
			"evm": {
				"assembly": "    /* \"Learning Contrats v0.4.0/BallotWithModifier.sol\":25:2381  contract Ballot {\r... */\n  mstore(0x40, 0x80)\n    /* \"Learning Contrats v0.4.0/BallotWithModifier.sol\":283:293  Stage.Init */\n  0x0\n    /* \"Learning Contrats v0.4.0/BallotWithModifier.sol\":262:293  Stage public stage = Stage.Init */\n  dup1\n  exp(0x100, 0x0)\n  dup2\n  sload\n  dup2\n  0xff\n  mul\n  not\n  and\n  swap1\n  dup4\n  0x3\n  dup2\n  gt\n  iszero\n  tag_1\n  jumpi\n  invalid\ntag_1:\n  mul\n  or\n  swap1\n  sstore\n  pop\n    /* \"Learning Contrats v0.4.0/BallotWithModifier.sol\":642:904  function Ballot(uint8 _numProposals) public  {\r... */\n  callvalue\n    /* \"--CODEGEN--\":8:17   */\n  dup1\n    /* \"--CODEGEN--\":5:7   */\n  iszero\n  tag_2\n  jumpi\n    /* \"--CODEGEN--\":30:31   */\n  0x0\n    /* \"--CODEGEN--\":27:28   */\n  dup1\n    /* \"--CODEGEN--\":20:32   */\n  revert\n    /* \"--CODEGEN--\":5:7   */\ntag_2:\n    /* \"Learning Contrats v0.4.0/BallotWithModifier.sol\":642:904  function Ballot(uint8 _numProposals) public  {\r... */\n  pop\n  mload(0x40)\n  0x20\n  dup1\n  bytecodeSize\n  dup4\n  codecopy\n  dup2\n  add\n  dup1\n  0x40\n  mstore\n  dup2\n  add\n  swap1\n  dup1\n  dup1\n  mload\n  swap1\n  0x20\n  add\n  swap1\n  swap3\n  swap2\n  swap1\n  pop\n  pop\n  pop\n    /* \"Learning Contrats v0.4.0/BallotWithModifier.sol\":712:722  msg.sender */\n  caller\n    /* \"Learning Contrats v0.4.0/BallotWithModifier.sol\":698:709  chairperson */\n  0x0\n  0x1\n    /* \"Learning Contrats v0.4.0/BallotWithModifier.sol\":698:722  chairperson = msg.sender */\n  0x100\n  exp\n  dup2\n  sload\n  dup2\n  0xffffffffffffffffffffffffffffffffffffffff\n  mul\n  not\n  and\n  swap1\n  dup4\n  0xffffffffffffffffffffffffffffffffffffffff\n  and\n  mul\n  or\n  swap1\n  sstore\n  pop\n    /* \"Learning Contrats v0.4.0/BallotWithModifier.sol\":762:763  2 */\n  0x2\n    /* \"Learning Contrats v0.4.0/BallotWithModifier.sol\":733:739  voters */\n  0x1\n    /* \"Learning Contrats v0.4.0/BallotWithModifier.sol\":733:752  voters[chairperson] */\n  0x0\n    /* \"Learning Contrats v0.4.0/BallotWithModifier.sol\":740:751  chairperson */\n  dup1\n  0x1\n  swap1\n  sload\n  swap1\n  0x100\n  exp\n  swap1\n  div\n  0xffffffffffffffffffffffffffffffffffffffff\n  and\n    /* \"Learning Contrats v0.4.0/BallotWithModifier.sol\":733:752  voters[chairperson] */\n  0xffffffffffffffffffffffffffffffffffffffff\n  and\n  0xffffffffffffffffffffffffffffffffffffffff\n  and\n  dup2\n  mstore\n  0x20\n  add\n  swap1\n  dup2\n  mstore\n  0x20\n  add\n  0x0\n  keccak256\n    /* \"Learning Contrats v0.4.0/BallotWithModifier.sol\":733:759  voters[chairperson].weight */\n  0x0\n  add\n    /* \"Learning Contrats v0.4.0/BallotWithModifier.sol\":733:763  voters[chairperson].weight = 2 */\n  dup2\n  swap1\n  sstore\n  pop\n    /* \"Learning Contrats v0.4.0/BallotWithModifier.sol\":829:842  _numProposals */\n  dup1\n    /* \"Learning Contrats v0.4.0/BallotWithModifier.sol\":810:842  proposals.length = _numProposals */\n  0xff\n  and\n    /* \"Learning Contrats v0.4.0/BallotWithModifier.sol\":810:819  proposals */\n  0x2\n    /* \"Learning Contrats v0.4.0/BallotWithModifier.sol\":810:842  proposals.length = _numProposals */\n  dup2\n  tag_5\n  swap2\n  swap1\n  jump\t// in(tag_6)\ntag_5:\n  pop\n    /* \"Learning Contrats v0.4.0/BallotWithModifier.sol\":861:870  Stage.Reg */\n  0x1\n    /* \"Learning Contrats v0.4.0/BallotWithModifier.sol\":853:858  stage */\n  0x0\n  dup1\n    /* \"Learning Contrats v0.4.0/BallotWithModifier.sol\":853:870  stage = Stage.Reg */\n  0x100\n  exp\n  dup2\n  sload\n  dup2\n  0xff\n  mul\n  not\n  and\n  swap1\n  dup4\n  0x3\n  dup2\n  gt\n  iszero\n  tag_7\n  jumpi\n  invalid\ntag_7:\n  mul\n  or\n  swap1\n  sstore\n  pop\n    /* \"Learning Contrats v0.4.0/BallotWithModifier.sol\":893:896  now */\n  timestamp\n    /* \"Learning Contrats v0.4.0/BallotWithModifier.sol\":881:890  startTime */\n  0x3\n    /* \"Learning Contrats v0.4.0/BallotWithModifier.sol\":881:896  startTime = now */\n  dup2\n  swap1\n  sstore\n  pop\n    /* \"Learning Contrats v0.4.0/BallotWithModifier.sol\":642:904  function Ballot(uint8 _numProposals) public  {\r... */\n  pop\n    /* \"Learning Contrats v0.4.0/BallotWithModifier.sol\":25:2381  contract Ballot {\r... */\n  jump(tag_8)\ntag_6:\n  dup2\n  sload\n  dup2\n  dup4\n  sstore\n  dup2\n  dup2\n  gt\n  iszero\n  tag_9\n  jumpi\n  dup2\n  dup4\n  0x0\n  mstore\n  keccak256(0x0, 0x20)\n  swap2\n  dup3\n  add\n  swap2\n  add\n  tag_10\n  swap2\n  swap1\n  jump\t// in(tag_11)\ntag_10:\ntag_9:\n  pop\n  pop\n  pop\n  jump\t// out\ntag_11:\n  tag_12\n  swap2\n  swap1\ntag_13:\n  dup1\n  dup3\n  gt\n  iszero\n  tag_14\n  jumpi\n  0x0\n  dup1\n  dup3\n  add\n  0x0\n  swap1\n  sstore\n  pop\n  0x1\n  add\n  jump(tag_13)\ntag_14:\n  pop\n  swap1\n  jump\ntag_12:\n  swap1\n  jump\t// out\ntag_8:\n  dataSize(sub_0)\n  dup1\n  dataOffset(sub_0)\n  0x0\n  codecopy\n  0x0\n  return\nstop\n\nsub_0: assembly {\n        /* \"Learning Contrats v0.4.0/BallotWithModifier.sol\":25:2381  contract Ballot {\r... */\n      mstore(0x40, 0x80)\n      jumpi(tag_1, lt(calldatasize, 0x4))\n      calldataload(0x0)\n      0x100000000000000000000000000000000000000000000000000000000\n      swap1\n      div\n      0xffffffff\n      and\n      dup1\n      0x4420e486\n      eq\n      tag_2\n      jumpi\n      dup1\n      0x609ff1bd\n      eq\n      tag_3\n      jumpi\n      dup1\n      0xb3f98adc\n      eq\n      tag_4\n      jumpi\n      dup1\n      0xc040e6b8\n      eq\n      tag_5\n      jumpi\n    tag_1:\n      0x0\n      dup1\n      revert\n        /* \"Learning Contrats v0.4.0/BallotWithModifier.sol\":1018:1360  function register(address toVoter) public validStage(Stage.Reg) {\r... */\n    tag_2:\n      callvalue\n        /* \"--CODEGEN--\":8:17   */\n      dup1\n        /* \"--CODEGEN--\":5:7   */\n      iszero\n      tag_6\n      jumpi\n        /* \"--CODEGEN--\":30:31   */\n      0x0\n        /* \"--CODEGEN--\":27:28   */\n      dup1\n        /* \"--CODEGEN--\":20:32   */\n      revert\n        /* \"--CODEGEN--\":5:7   */\n    tag_6:\n        /* \"Learning Contrats v0.4.0/BallotWithModifier.sol\":1018:1360  function register(address toVoter) public validStage(Stage.Reg) {\r... */\n      pop\n      tag_7\n      0x4\n      dup1\n      calldatasize\n      sub\n      dup2\n      add\n      swap1\n      dup1\n      dup1\n      calldataload\n      0xffffffffffffffffffffffffffffffffffffffff\n      and\n      swap1\n      0x20\n      add\n      swap1\n      swap3\n      swap2\n      swap1\n      pop\n      pop\n      pop\n      jump(tag_8)\n    tag_7:\n      stop\n        /* \"Learning Contrats v0.4.0/BallotWithModifier.sol\":1899:2378  function winningProposal() public validStage(Stage.Done) constant returns (uint8 _winningProposal) {\r... */\n    tag_3:\n      callvalue\n        /* \"--CODEGEN--\":8:17   */\n      dup1\n        /* \"--CODEGEN--\":5:7   */\n      iszero\n      tag_9\n      jumpi\n        /* \"--CODEGEN--\":30:31   */\n      0x0\n        /* \"--CODEGEN--\":27:28   */\n      dup1\n        /* \"--CODEGEN--\":20:32   */\n      revert\n        /* \"--CODEGEN--\":5:7   */\n    tag_9:\n        /* \"Learning Contrats v0.4.0/BallotWithModifier.sol\":1899:2378  function winningProposal() public validStage(Stage.Done) constant returns (uint8 _winningProposal) {\r... */\n      pop\n      tag_10\n      jump(tag_11)\n    tag_10:\n      mload(0x40)\n      dup1\n      dup3\n      0xff\n      and\n      0xff\n      and\n      dup2\n      mstore\n      0x20\n      add\n      swap2\n      pop\n      pop\n      mload(0x40)\n      dup1\n      swap2\n      sub\n      swap1\n      return\n        /* \"Learning Contrats v0.4.0/BallotWithModifier.sol\":1423:1891  function vote(uint8 toProposal) public validStage(Stage.Vote)  {\r... */\n    tag_4:\n      callvalue\n        /* \"--CODEGEN--\":8:17   */\n      dup1\n        /* \"--CODEGEN--\":5:7   */\n      iszero\n      tag_12\n      jumpi\n        /* \"--CODEGEN--\":30:31   */\n      0x0\n        /* \"--CODEGEN--\":27:28   */\n      dup1\n        /* \"--CODEGEN--\":20:32   */\n      revert\n        /* \"--CODEGEN--\":5:7   */\n    tag_12:\n        /* \"Learning Contrats v0.4.0/BallotWithModifier.sol\":1423:1891  function vote(uint8 toProposal) public validStage(Stage.Vote)  {\r... */\n      pop\n      tag_13\n      0x4\n      dup1\n      calldatasize\n      sub\n      dup2\n      add\n      swap1\n      dup1\n      dup1\n      calldataload\n      0xff\n      and\n      swap1\n      0x20\n      add\n      swap1\n      swap3\n      swap2\n      swap1\n      pop\n      pop\n      pop\n      jump(tag_14)\n    tag_13:\n      stop\n        /* \"Learning Contrats v0.4.0/BallotWithModifier.sol\":262:293  Stage public stage = Stage.Init */\n    tag_5:\n      callvalue\n        /* \"--CODEGEN--\":8:17   */\n      dup1\n        /* \"--CODEGEN--\":5:7   */\n      iszero\n      tag_15\n      jumpi\n        /* \"--CODEGEN--\":30:31   */\n      0x0\n        /* \"--CODEGEN--\":27:28   */\n      dup1\n        /* \"--CODEGEN--\":20:32   */\n      revert\n        /* \"--CODEGEN--\":5:7   */\n    tag_15:\n        /* \"Learning Contrats v0.4.0/BallotWithModifier.sol\":262:293  Stage public stage = Stage.Init */\n      pop\n      tag_16\n      jump(tag_17)\n    tag_16:\n      mload(0x40)\n      dup1\n      dup3\n      0x3\n      dup2\n      gt\n      iszero\n      tag_18\n      jumpi\n      invalid\n    tag_18:\n      0xff\n      and\n      dup2\n      mstore\n      0x20\n      add\n      swap2\n      pop\n      pop\n      mload(0x40)\n      dup1\n      swap2\n      sub\n      swap1\n      return\n        /* \"Learning Contrats v0.4.0/BallotWithModifier.sol\":1018:1360  function register(address toVoter) public validStage(Stage.Reg) {\r... */\n    tag_8:\n        /* \"Learning Contrats v0.4.0/BallotWithModifier.sol\":1071:1080  Stage.Reg */\n      0x1\n        /* \"Learning Contrats v0.4.0/BallotWithModifier.sol\":533:541  reqStage */\n      dup1\n        /* \"Learning Contrats v0.4.0/BallotWithModifier.sol\":524:541  stage == reqStage */\n      0x3\n      dup2\n      gt\n      iszero\n      tag_20\n      jumpi\n      invalid\n    tag_20:\n        /* \"Learning Contrats v0.4.0/BallotWithModifier.sol\":524:529  stage */\n      0x0\n      dup1\n      swap1\n      sload\n      swap1\n      0x100\n      exp\n      swap1\n      div\n      0xff\n      and\n        /* \"Learning Contrats v0.4.0/BallotWithModifier.sol\":524:541  stage == reqStage */\n      0x3\n      dup2\n      gt\n      iszero\n      tag_21\n      jumpi\n      invalid\n    tag_21:\n      eq\n        /* \"Learning Contrats v0.4.0/BallotWithModifier.sol\":516:542  require(stage == reqStage) */\n      iszero\n      iszero\n      tag_22\n      jumpi\n      0x0\n      dup1\n      revert\n    tag_22:\n        /* \"Learning Contrats v0.4.0/BallotWithModifier.sol\":1156:1167  chairperson */\n      0x0\n      0x1\n      swap1\n      sload\n      swap1\n      0x100\n      exp\n      swap1\n      div\n      0xffffffffffffffffffffffffffffffffffffffff\n      and\n        /* \"Learning Contrats v0.4.0/BallotWithModifier.sol\":1142:1167  msg.sender != chairperson */\n      0xffffffffffffffffffffffffffffffffffffffff\n      and\n        /* \"Learning Contrats v0.4.0/BallotWithModifier.sol\":1142:1152  msg.sender */\n      caller\n        /* \"Learning Contrats v0.4.0/BallotWithModifier.sol\":1142:1167  msg.sender != chairperson */\n      0xffffffffffffffffffffffffffffffffffffffff\n      and\n      eq\n      iszero\n        /* \"Learning Contrats v0.4.0/BallotWithModifier.sol\":1142:1192  msg.sender != chairperson || voters[toVoter].voted */\n      dup1\n      tag_24\n      jumpi\n      pop\n        /* \"Learning Contrats v0.4.0/BallotWithModifier.sol\":1171:1177  voters */\n      0x1\n        /* \"Learning Contrats v0.4.0/BallotWithModifier.sol\":1171:1186  voters[toVoter] */\n      0x0\n        /* \"Learning Contrats v0.4.0/BallotWithModifier.sol\":1178:1185  toVoter */\n      dup4\n        /* \"Learning Contrats v0.4.0/BallotWithModifier.sol\":1171:1186  voters[toVoter] */\n      0xffffffffffffffffffffffffffffffffffffffff\n      and\n      0xffffffffffffffffffffffffffffffffffffffff\n      and\n      dup2\n      mstore\n      0x20\n      add\n      swap1\n      dup2\n      mstore\n      0x20\n      add\n      0x0\n      keccak256\n        /* \"Learning Contrats v0.4.0/BallotWithModifier.sol\":1171:1192  voters[toVoter].voted */\n      0x1\n      add\n      0x0\n      swap1\n      sload\n      swap1\n      0x100\n      exp\n      swap1\n      div\n      0xff\n      and\n        /* \"Learning Contrats v0.4.0/BallotWithModifier.sol\":1142:1192  msg.sender != chairperson || voters[toVoter].voted */\n    tag_24:\n        /* \"Learning Contrats v0.4.0/BallotWithModifier.sol\":1138:1201  if (msg.sender != chairperson || voters[toVoter].voted) return; */\n      iszero\n      tag_25\n      jumpi\n        /* \"Learning Contrats v0.4.0/BallotWithModifier.sol\":1194:1201  return; */\n      jump(tag_23)\n        /* \"Learning Contrats v0.4.0/BallotWithModifier.sol\":1138:1201  if (msg.sender != chairperson || voters[toVoter].voted) return; */\n    tag_25:\n        /* \"Learning Contrats v0.4.0/BallotWithModifier.sol\":1236:1237  1 */\n      0x1\n        /* \"Learning Contrats v0.4.0/BallotWithModifier.sol\":1211:1217  voters */\n      dup1\n        /* \"Learning Contrats v0.4.0/BallotWithModifier.sol\":1211:1226  voters[toVoter] */\n      0x0\n        /* \"Learning Contrats v0.4.0/BallotWithModifier.sol\":1218:1225  toVoter */\n      dup5\n        /* \"Learning Contrats v0.4.0/BallotWithModifier.sol\":1211:1226  voters[toVoter] */\n      0xffffffffffffffffffffffffffffffffffffffff\n      and\n      0xffffffffffffffffffffffffffffffffffffffff\n      and\n      dup2\n      mstore\n      0x20\n      add\n      swap1\n      dup2\n      mstore\n      0x20\n      add\n      0x0\n      keccak256\n        /* \"Learning Contrats v0.4.0/BallotWithModifier.sol\":1211:1233  voters[toVoter].weight */\n      0x0\n      add\n        /* \"Learning Contrats v0.4.0/BallotWithModifier.sol\":1211:1237  voters[toVoter].weight = 1 */\n      dup2\n      swap1\n      sstore\n      pop\n        /* \"Learning Contrats v0.4.0/BallotWithModifier.sol\":1272:1277  false */\n      0x0\n        /* \"Learning Contrats v0.4.0/BallotWithModifier.sol\":1248:1254  voters */\n      0x1\n        /* \"Learning Contrats v0.4.0/BallotWithModifier.sol\":1248:1263  voters[toVoter] */\n      0x0\n        /* \"Learning Contrats v0.4.0/BallotWithModifier.sol\":1255:1262  toVoter */\n      dup5\n        /* \"Learning Contrats v0.4.0/BallotWithModifier.sol\":1248:1263  voters[toVoter] */\n      0xffffffffffffffffffffffffffffffffffffffff\n      and\n      0xffffffffffffffffffffffffffffffffffffffff\n      and\n      dup2\n      mstore\n      0x20\n      add\n      swap1\n      dup2\n      mstore\n      0x20\n      add\n      0x0\n      keccak256\n        /* \"Learning Contrats v0.4.0/BallotWithModifier.sol\":1248:1269  voters[toVoter].voted */\n      0x1\n      add\n      0x0\n        /* \"Learning Contrats v0.4.0/BallotWithModifier.sol\":1248:1277  voters[toVoter].voted = false */\n      0x100\n      exp\n      dup2\n      sload\n      dup2\n      0xff\n      mul\n      not\n      and\n      swap1\n      dup4\n      iszero\n      iszero\n      mul\n      or\n      swap1\n      sstore\n      pop\n        /* \"Learning Contrats v0.4.0/BallotWithModifier.sol\":1310:1320  30 seconds */\n      0x1e\n        /* \"Learning Contrats v0.4.0/BallotWithModifier.sol\":1299:1308  startTime */\n      sload(0x3)\n        /* \"Learning Contrats v0.4.0/BallotWithModifier.sol\":1299:1320  startTime+ 30 seconds */\n      add\n        /* \"Learning Contrats v0.4.0/BallotWithModifier.sol\":1292:1295  now */\n      timestamp\n        /* \"Learning Contrats v0.4.0/BallotWithModifier.sol\":1292:1321  now > (startTime+ 30 seconds) */\n      gt\n        /* \"Learning Contrats v0.4.0/BallotWithModifier.sol\":1288:1345  if (now > (startTime+ 30 seconds)) {stage = Stage.Vote; } */\n      iszero\n      tag_26\n      jumpi\n        /* \"Learning Contrats v0.4.0/BallotWithModifier.sol\":1332:1342  Stage.Vote */\n      0x2\n        /* \"Learning Contrats v0.4.0/BallotWithModifier.sol\":1324:1329  stage */\n      0x0\n      dup1\n        /* \"Learning Contrats v0.4.0/BallotWithModifier.sol\":1324:1342  stage = Stage.Vote */\n      0x100\n      exp\n      dup2\n      sload\n      dup2\n      0xff\n      mul\n      not\n      and\n      swap1\n      dup4\n      0x3\n      dup2\n      gt\n      iszero\n      tag_27\n      jumpi\n      invalid\n    tag_27:\n      mul\n      or\n      swap1\n      sstore\n      pop\n        /* \"Learning Contrats v0.4.0/BallotWithModifier.sol\":1288:1345  if (now > (startTime+ 30 seconds)) {stage = Stage.Vote; } */\n    tag_26:\n        /* \"Learning Contrats v0.4.0/BallotWithModifier.sol\":551:552  _ */\n    tag_23:\n        /* \"Learning Contrats v0.4.0/BallotWithModifier.sol\":1018:1360  function register(address toVoter) public validStage(Stage.Reg) {\r... */\n      pop\n      pop\n      jump\t// out\n        /* \"Learning Contrats v0.4.0/BallotWithModifier.sol\":1899:2378  function winningProposal() public validStage(Stage.Done) constant returns (uint8 _winningProposal) {\r... */\n    tag_11:\n        /* \"Learning Contrats v0.4.0/BallotWithModifier.sol\":1974:1996  uint8 _winningProposal */\n      0x0\n        /* \"Learning Contrats v0.4.0/BallotWithModifier.sol\":2053:2077  uint256 winningVoteCount */\n      dup1\n        /* \"Learning Contrats v0.4.0/BallotWithModifier.sol\":2097:2107  uint8 prop */\n      0x0\n        /* \"Learning Contrats v0.4.0/BallotWithModifier.sol\":1944:1954  Stage.Done */\n      0x3\n        /* \"Learning Contrats v0.4.0/BallotWithModifier.sol\":533:541  reqStage */\n      dup1\n        /* \"Learning Contrats v0.4.0/BallotWithModifier.sol\":524:541  stage == reqStage */\n      0x3\n      dup2\n      gt\n      iszero\n      tag_29\n      jumpi\n      invalid\n    tag_29:\n        /* \"Learning Contrats v0.4.0/BallotWithModifier.sol\":524:529  stage */\n      0x0\n      dup1\n      swap1\n      sload\n      swap1\n      0x100\n      exp\n      swap1\n      div\n      0xff\n      and\n        /* \"Learning Contrats v0.4.0/BallotWithModifier.sol\":524:541  stage == reqStage */\n      0x3\n      dup2\n      gt\n      iszero\n      tag_30\n      jumpi\n      invalid\n    tag_30:\n      eq\n        /* \"Learning Contrats v0.4.0/BallotWithModifier.sol\":516:542  require(stage == reqStage) */\n      iszero\n      iszero\n      tag_31\n      jumpi\n      0x0\n      dup1\n      revert\n    tag_31:\n        /* \"Learning Contrats v0.4.0/BallotWithModifier.sol\":2080:2081  0 */\n      0x0\n        /* \"Learning Contrats v0.4.0/BallotWithModifier.sol\":2053:2081  uint256 winningVoteCount = 0 */\n      swap3\n      pop\n        /* \"Learning Contrats v0.4.0/BallotWithModifier.sol\":2110:2111  0 */\n      0x0\n        /* \"Learning Contrats v0.4.0/BallotWithModifier.sol\":2097:2111  uint8 prop = 0 */\n      swap2\n      pop\n        /* \"Learning Contrats v0.4.0/BallotWithModifier.sol\":2092:2330  for (uint8 prop = 0; prop < proposals.length; prop++)\r... */\n    tag_33:\n        /* \"Learning Contrats v0.4.0/BallotWithModifier.sol\":2120:2129  proposals */\n      0x2\n        /* \"Learning Contrats v0.4.0/BallotWithModifier.sol\":2120:2136  proposals.length */\n      dup1\n      sload\n      swap1\n      pop\n        /* \"Learning Contrats v0.4.0/BallotWithModifier.sol\":2113:2117  prop */\n      dup3\n        /* \"Learning Contrats v0.4.0/BallotWithModifier.sol\":2113:2136  prop < proposals.length */\n      0xff\n      and\n      lt\n        /* \"Learning Contrats v0.4.0/BallotWithModifier.sol\":2092:2330  for (uint8 prop = 0; prop < proposals.length; prop++)\r... */\n      iszero\n      tag_34\n      jumpi\n        /* \"Learning Contrats v0.4.0/BallotWithModifier.sol\":2191:2207  winningVoteCount */\n      dup3\n        /* \"Learning Contrats v0.4.0/BallotWithModifier.sol\":2163:2172  proposals */\n      0x2\n        /* \"Learning Contrats v0.4.0/BallotWithModifier.sol\":2173:2177  prop */\n      dup4\n        /* \"Learning Contrats v0.4.0/BallotWithModifier.sol\":2163:2178  proposals[prop] */\n      0xff\n      and\n      dup2\n      sload\n      dup2\n      lt\n      iszero\n      iszero\n      tag_36\n      jumpi\n      invalid\n    tag_36:\n      swap1\n      0x0\n      mstore\n      keccak256(0x0, 0x20)\n      add\n        /* \"Learning Contrats v0.4.0/BallotWithModifier.sol\":2163:2188  proposals[prop].voteCount */\n      0x0\n      add\n      sload\n        /* \"Learning Contrats v0.4.0/BallotWithModifier.sol\":2163:2207  proposals[prop].voteCount > winningVoteCount */\n      gt\n        /* \"Learning Contrats v0.4.0/BallotWithModifier.sol\":2159:2330  if (proposals[prop].voteCount > winningVoteCount) {\r... */\n      iszero\n      tag_38\n      jumpi\n        /* \"Learning Contrats v0.4.0/BallotWithModifier.sol\":2247:2256  proposals */\n      0x2\n        /* \"Learning Contrats v0.4.0/BallotWithModifier.sol\":2257:2261  prop */\n      dup3\n        /* \"Learning Contrats v0.4.0/BallotWithModifier.sol\":2247:2262  proposals[prop] */\n      0xff\n      and\n      dup2\n      sload\n      dup2\n      lt\n      iszero\n      iszero\n      tag_39\n      jumpi\n      invalid\n    tag_39:\n      swap1\n      0x0\n      mstore\n      keccak256(0x0, 0x20)\n      add\n        /* \"Learning Contrats v0.4.0/BallotWithModifier.sol\":2247:2272  proposals[prop].voteCount */\n      0x0\n      add\n      sload\n        /* \"Learning Contrats v0.4.0/BallotWithModifier.sol\":2228:2272  winningVoteCount = proposals[prop].voteCount */\n      swap3\n      pop\n        /* \"Learning Contrats v0.4.0/BallotWithModifier.sol\":2310:2314  prop */\n      dup2\n        /* \"Learning Contrats v0.4.0/BallotWithModifier.sol\":2291:2314  _winningProposal = prop */\n      swap4\n      pop\n        /* \"Learning Contrats v0.4.0/BallotWithModifier.sol\":2159:2330  if (proposals[prop].voteCount > winningVoteCount) {\r... */\n    tag_38:\n        /* \"Learning Contrats v0.4.0/BallotWithModifier.sol\":2138:2144  prop++ */\n      dup2\n      dup1\n      0x1\n      add\n      swap3\n      pop\n      pop\n        /* \"Learning Contrats v0.4.0/BallotWithModifier.sol\":2092:2330  for (uint8 prop = 0; prop < proposals.length; prop++)\r... */\n      jump(tag_33)\n    tag_34:\n        /* \"Learning Contrats v0.4.0/BallotWithModifier.sol\":2366:2367  0 */\n      0x0\n        /* \"Learning Contrats v0.4.0/BallotWithModifier.sol\":2347:2363  winningVoteCount */\n      dup4\n        /* \"Learning Contrats v0.4.0/BallotWithModifier.sol\":2347:2367  winningVoteCount > 0 */\n      gt\n        /* \"Learning Contrats v0.4.0/BallotWithModifier.sol\":2339:2368  assert (winningVoteCount > 0) */\n      iszero\n      iszero\n      tag_41\n      jumpi\n      invalid\n    tag_41:\n        /* \"Learning Contrats v0.4.0/BallotWithModifier.sol\":1899:2378  function winningProposal() public validStage(Stage.Done) constant returns (uint8 _winningProposal) {\r... */\n      pop\n      pop\n      pop\n      swap1\n      jump\t// out\n        /* \"Learning Contrats v0.4.0/BallotWithModifier.sol\":1423:1891  function vote(uint8 toProposal) public validStage(Stage.Vote)  {\r... */\n    tag_14:\n        /* \"Learning Contrats v0.4.0/BallotWithModifier.sol\":1543:1563  Voter storage sender */\n      0x0\n        /* \"Learning Contrats v0.4.0/BallotWithModifier.sol\":1473:1483  Stage.Vote */\n      0x2\n        /* \"Learning Contrats v0.4.0/BallotWithModifier.sol\":533:541  reqStage */\n      dup1\n        /* \"Learning Contrats v0.4.0/BallotWithModifier.sol\":524:541  stage == reqStage */\n      0x3\n      dup2\n      gt\n      iszero\n      tag_43\n      jumpi\n      invalid\n    tag_43:\n        /* \"Learning Contrats v0.4.0/BallotWithModifier.sol\":524:529  stage */\n      0x0\n      dup1\n      swap1\n      sload\n      swap1\n      0x100\n      exp\n      swap1\n      div\n      0xff\n      and\n        /* \"Learning Contrats v0.4.0/BallotWithModifier.sol\":524:541  stage == reqStage */\n      0x3\n      dup2\n      gt\n      iszero\n      tag_44\n      jumpi\n      invalid\n    tag_44:\n      eq\n        /* \"Learning Contrats v0.4.0/BallotWithModifier.sol\":516:542  require(stage == reqStage) */\n      iszero\n      iszero\n      tag_45\n      jumpi\n      0x0\n      dup1\n      revert\n    tag_45:\n        /* \"Learning Contrats v0.4.0/BallotWithModifier.sol\":1566:1572  voters */\n      0x1\n        /* \"Learning Contrats v0.4.0/BallotWithModifier.sol\":1566:1584  voters[msg.sender] */\n      0x0\n        /* \"Learning Contrats v0.4.0/BallotWithModifier.sol\":1573:1583  msg.sender */\n      caller\n        /* \"Learning Contrats v0.4.0/BallotWithModifier.sol\":1566:1584  voters[msg.sender] */\n      0xffffffffffffffffffffffffffffffffffffffff\n      and\n      0xffffffffffffffffffffffffffffffffffffffff\n      and\n      dup2\n      mstore\n      0x20\n      add\n      swap1\n      dup2\n      mstore\n      0x20\n      add\n      0x0\n      keccak256\n        /* \"Learning Contrats v0.4.0/BallotWithModifier.sol\":1543:1584  Voter storage sender = voters[msg.sender] */\n      swap2\n      pop\n        /* \"Learning Contrats v0.4.0/BallotWithModifier.sol\":1599:1605  sender */\n      dup2\n        /* \"Learning Contrats v0.4.0/BallotWithModifier.sol\":1599:1611  sender.voted */\n      0x1\n      add\n      0x0\n      swap1\n      sload\n      swap1\n      0x100\n      exp\n      swap1\n      div\n      0xff\n      and\n        /* \"Learning Contrats v0.4.0/BallotWithModifier.sol\":1599:1645  sender.voted || toProposal >= proposals.length */\n      dup1\n      tag_47\n      jumpi\n      pop\n        /* \"Learning Contrats v0.4.0/BallotWithModifier.sol\":1629:1638  proposals */\n      0x2\n        /* \"Learning Contrats v0.4.0/BallotWithModifier.sol\":1629:1645  proposals.length */\n      dup1\n      sload\n      swap1\n      pop\n        /* \"Learning Contrats v0.4.0/BallotWithModifier.sol\":1615:1625  toProposal */\n      dup4\n        /* \"Learning Contrats v0.4.0/BallotWithModifier.sol\":1615:1645  toProposal >= proposals.length */\n      0xff\n      and\n      lt\n      iszero\n        /* \"Learning Contrats v0.4.0/BallotWithModifier.sol\":1599:1645  sender.voted || toProposal >= proposals.length */\n    tag_47:\n        /* \"Learning Contrats v0.4.0/BallotWithModifier.sol\":1595:1654  if (sender.voted || toProposal >= proposals.length) return; */\n      iszero\n      tag_48\n      jumpi\n        /* \"Learning Contrats v0.4.0/BallotWithModifier.sol\":1647:1654  return; */\n      jump(tag_46)\n        /* \"Learning Contrats v0.4.0/BallotWithModifier.sol\":1595:1654  if (sender.voted || toProposal >= proposals.length) return; */\n    tag_48:\n        /* \"Learning Contrats v0.4.0/BallotWithModifier.sol\":1679:1683  true */\n      0x1\n        /* \"Learning Contrats v0.4.0/BallotWithModifier.sol\":1664:1670  sender */\n      dup3\n        /* \"Learning Contrats v0.4.0/BallotWithModifier.sol\":1664:1676  sender.voted */\n      0x1\n      add\n      0x0\n        /* \"Learning Contrats v0.4.0/BallotWithModifier.sol\":1664:1683  sender.voted = true */\n      0x100\n      exp\n      dup2\n      sload\n      dup2\n      0xff\n      mul\n      not\n      and\n      swap1\n      dup4\n      iszero\n      iszero\n      mul\n      or\n      swap1\n      sstore\n      pop\n        /* \"Learning Contrats v0.4.0/BallotWithModifier.sol\":1708:1718  toProposal */\n      dup3\n        /* \"Learning Contrats v0.4.0/BallotWithModifier.sol\":1694:1700  sender */\n      dup3\n        /* \"Learning Contrats v0.4.0/BallotWithModifier.sol\":1694:1705  sender.vote */\n      0x1\n      add\n      0x1\n        /* \"Learning Contrats v0.4.0/BallotWithModifier.sol\":1694:1718  sender.vote = toProposal */\n      0x100\n      exp\n      dup2\n      sload\n      dup2\n      0xff\n      mul\n      not\n      and\n      swap1\n      dup4\n      0xff\n      and\n      mul\n      or\n      swap1\n      sstore\n      pop\n        /* \"Learning Contrats v0.4.0/BallotWithModifier.sol\":1767:1773  sender */\n      dup2\n        /* \"Learning Contrats v0.4.0/BallotWithModifier.sol\":1767:1780  sender.weight */\n      0x0\n      add\n      sload\n        /* \"Learning Contrats v0.4.0/BallotWithModifier.sol\":1732:1741  proposals */\n      0x2\n        /* \"Learning Contrats v0.4.0/BallotWithModifier.sol\":1742:1752  toProposal */\n      dup5\n        /* \"Learning Contrats v0.4.0/BallotWithModifier.sol\":1732:1753  proposals[toProposal] */\n      0xff\n      and\n      dup2\n      sload\n      dup2\n      lt\n      iszero\n      iszero\n      tag_49\n      jumpi\n      invalid\n    tag_49:\n      swap1\n      0x0\n      mstore\n      keccak256(0x0, 0x20)\n      add\n        /* \"Learning Contrats v0.4.0/BallotWithModifier.sol\":1732:1763  proposals[toProposal].voteCount */\n      0x0\n      add\n      0x0\n        /* \"Learning Contrats v0.4.0/BallotWithModifier.sol\":1732:1780  proposals[toProposal].voteCount += sender.weight */\n      dup3\n      dup3\n      sload\n      add\n      swap3\n      pop\n      pop\n      dup2\n      swap1\n      sstore\n      pop\n        /* \"Learning Contrats v0.4.0/BallotWithModifier.sol\":1813:1823  30 seconds */\n      0x1e\n        /* \"Learning Contrats v0.4.0/BallotWithModifier.sol\":1802:1811  startTime */\n      sload(0x3)\n        /* \"Learning Contrats v0.4.0/BallotWithModifier.sol\":1802:1823  startTime+ 30 seconds */\n      add\n        /* \"Learning Contrats v0.4.0/BallotWithModifier.sol\":1795:1798  now */\n      timestamp\n        /* \"Learning Contrats v0.4.0/BallotWithModifier.sol\":1795:1824  now > (startTime+ 30 seconds) */\n      gt\n        /* \"Learning Contrats v0.4.0/BallotWithModifier.sol\":1791:1866  if (now > (startTime+ 30 seconds)) {stage = Stage.Done; votingCompleted();} */\n      iszero\n      tag_51\n      jumpi\n        /* \"Learning Contrats v0.4.0/BallotWithModifier.sol\":1835:1845  Stage.Done */\n      0x3\n        /* \"Learning Contrats v0.4.0/BallotWithModifier.sol\":1827:1832  stage */\n      0x0\n      dup1\n        /* \"Learning Contrats v0.4.0/BallotWithModifier.sol\":1827:1845  stage = Stage.Done */\n      0x100\n      exp\n      dup2\n      sload\n      dup2\n      0xff\n      mul\n      not\n      and\n      swap1\n      dup4\n      0x3\n      dup2\n      gt\n      iszero\n      tag_52\n      jumpi\n      invalid\n    tag_52:\n      mul\n      or\n      swap1\n      sstore\n      pop\n        /* \"Learning Contrats v0.4.0/BallotWithModifier.sol\":1847:1864  votingCompleted() */\n      0x6ac0c89219f0135e3a87cecdf1851abced71da933a0a00e1eada0ef035382351\n      mload(0x40)\n      mload(0x40)\n      dup1\n      swap2\n      sub\n      swap1\n      log1\n        /* \"Learning Contrats v0.4.0/BallotWithModifier.sol\":1791:1866  if (now > (startTime+ 30 seconds)) {stage = Stage.Done; votingCompleted();} */\n    tag_51:\n        /* \"Learning Contrats v0.4.0/BallotWithModifier.sol\":551:552  _ */\n    tag_46:\n        /* \"Learning Contrats v0.4.0/BallotWithModifier.sol\":1423:1891  function vote(uint8 toProposal) public validStage(Stage.Vote)  {\r... */\n      pop\n      pop\n      pop\n      jump\t// out\n        /* \"Learning Contrats v0.4.0/BallotWithModifier.sol\":262:293  Stage public stage = Stage.Init */\n    tag_17:\n      0x0\n      dup1\n      swap1\n      sload\n      swap1\n      0x100\n      exp\n      swap1\n      div\n      0xff\n      and\n      dup2\n      jump\t// out\n\n    auxdata: 0xa165627a7a723058204d724d27c3adf8a9eb6ee20dff9c7733d689a67c70dc591d045e974f242a75d50029\n}\n",
				"bytecode": {
					"linkReferences": {},
					"object": "608060405260008060006101000a81548160ff0219169083600381111561002257fe5b021790555034801561003357600080fd5b506040516020806107178339810180604052810190808051906020019092919050505033600060016101000a81548173ffffffffffffffffffffffffffffffffffffffff021916908373ffffffffffffffffffffffffffffffffffffffff1602179055506002600160008060019054906101000a900473ffffffffffffffffffffffffffffffffffffffff1673ffffffffffffffffffffffffffffffffffffffff1673ffffffffffffffffffffffffffffffffffffffff168152602001908152602001600020600001819055508060ff166002816101119190610142565b5060016000806101000a81548160ff0219169083600381111561013057fe5b02179055504260038190555050610195565b81548183558181111561016957818360005260206000209182019101610168919061016e565b5b505050565b61019291905b8082111561018e5760008082016000905550600101610174565b5090565b90565b610573806101a46000396000f300608060405260043610610062576000357c0100000000000000000000000000000000000000000000000000000000900463ffffffff1680634420e48614610067578063609ff1bd146100aa578063b3f98adc146100db578063c040e6b81461010b575b600080fd5b34801561007357600080fd5b506100a8600480360381019080803573ffffffffffffffffffffffffffffffffffffffff169060200190929190505050610144565b005b3480156100b657600080fd5b506100bf610303565b604051808260ff1660ff16815260200191505060405180910390f35b3480156100e757600080fd5b50610109600480360381019080803560ff1690602001909291905050506103c1565b005b34801561011757600080fd5b50610120610535565b6040518082600381111561013057fe5b60ff16815260200191505060405180910390f35b600180600381111561015257fe5b6000809054906101000a900460ff16600381111561016c57fe5b14151561017857600080fd5b600060019054906101000a900473ffffffffffffffffffffffffffffffffffffffff1673ffffffffffffffffffffffffffffffffffffffff163373ffffffffffffffffffffffffffffffffffffffff161415806102215750600160008373ffffffffffffffffffffffffffffffffffffffff1673ffffffffffffffffffffffffffffffffffffffff16815260200190815260200160002060010160009054906101000a900460ff165b1561022b576102ff565b60018060008473ffffffffffffffffffffffffffffffffffffffff1673ffffffffffffffffffffffffffffffffffffffff168152602001908152602001600020600001819055506000600160008473ffffffffffffffffffffffffffffffffffffffff1673ffffffffffffffffffffffffffffffffffffffff16815260200190815260200160002060010160006101000a81548160ff021916908315150217905550601e600354014211156102fe5760026000806101000a81548160ff021916908360038111156102f857fe5b02179055505b5b5050565b6000806000600380600381111561031657fe5b6000809054906101000a900460ff16600381111561033057fe5b14151561033c57600080fd5b60009250600091505b6002805490508260ff1610156103af578260028360ff1681548110151561036857fe5b906000526020600020016000015411156103a25760028260ff1681548110151561038e57fe5b906000526020600020016000015492508193505b8180600101925050610345565b6000831115156103bb57fe5b50505090565b600060028060038111156103d157fe5b6000809054906101000a900460ff1660038111156103eb57fe5b1415156103f757600080fd5b600160003373ffffffffffffffffffffffffffffffffffffffff1673ffffffffffffffffffffffffffffffffffffffff16815260200190815260200160002091508160010160009054906101000a900460ff168061045d57506002805490508360ff1610155b1561046757610530565b60018260010160006101000a81548160ff021916908315150217905550828260010160016101000a81548160ff021916908360ff160217905550816000015460028460ff168154811015156104b857fe5b9060005260206000200160000160008282540192505081905550601e6003540142111561052f5760036000806101000a81548160ff021916908360038111156104fd57fe5b02179055507f6ac0c89219f0135e3a87cecdf1851abced71da933a0a00e1eada0ef03538235160405160405180910390a15b5b505050565b6000809054906101000a900460ff16815600a165627a7a723058204d724d27c3adf8a9eb6ee20dff9c7733d689a67c70dc591d045e974f242a75d50029",
					"opcodes": "PUSH1 0x80 PUSH1 0x40 MSTORE PUSH1 0x0 DUP1 PUSH1 0x0 PUSH2 0x100 EXP DUP2 SLOAD DUP2 PUSH1 0xFF MUL NOT AND SWAP1 DUP4 PUSH1 0x3 DUP2 GT ISZERO PUSH2 0x22 JUMPI INVALID JUMPDEST MUL OR SWAP1 SSTORE POP CALLVALUE DUP1 ISZERO PUSH2 0x33 JUMPI PUSH1 0x0 DUP1 REVERT JUMPDEST POP PUSH1 0x40 MLOAD PUSH1 0x20 DUP1 PUSH2 0x717 DUP4 CODECOPY DUP2 ADD DUP1 PUSH1 0x40 MSTORE DUP2 ADD SWAP1 DUP1 DUP1 MLOAD SWAP1 PUSH1 0x20 ADD SWAP1 SWAP3 SWAP2 SWAP1 POP POP POP CALLER PUSH1 0x0 PUSH1 0x1 PUSH2 0x100 EXP DUP2 SLOAD DUP2 PUSH20 0xFFFFFFFFFFFFFFFFFFFFFFFFFFFFFFFFFFFFFFFF MUL NOT AND SWAP1 DUP4 PUSH20 0xFFFFFFFFFFFFFFFFFFFFFFFFFFFFFFFFFFFFFFFF AND MUL OR SWAP1 SSTORE POP PUSH1 0x2 PUSH1 0x1 PUSH1 0x0 DUP1 PUSH1 0x1 SWAP1 SLOAD SWAP1 PUSH2 0x100 EXP SWAP1 DIV PUSH20 0xFFFFFFFFFFFFFFFFFFFFFFFFFFFFFFFFFFFFFFFF AND PUSH20 0xFFFFFFFFFFFFFFFFFFFFFFFFFFFFFFFFFFFFFFFF AND PUSH20 0xFFFFFFFFFFFFFFFFFFFFFFFFFFFFFFFFFFFFFFFF AND DUP2 MSTORE PUSH1 0x20 ADD SWAP1 DUP2 MSTORE PUSH1 0x20 ADD PUSH1 0x0 KECCAK256 PUSH1 0x0 ADD DUP2 SWAP1 SSTORE POP DUP1 PUSH1 0xFF AND PUSH1 0x2 DUP2 PUSH2 0x111 SWAP2 SWAP1 PUSH2 0x142 JUMP JUMPDEST POP PUSH1 0x1 PUSH1 0x0 DUP1 PUSH2 0x100 EXP DUP2 SLOAD DUP2 PUSH1 0xFF MUL NOT AND SWAP1 DUP4 PUSH1 0x3 DUP2 GT ISZERO PUSH2 0x130 JUMPI INVALID JUMPDEST MUL OR SWAP1 SSTORE POP TIMESTAMP PUSH1 0x3 DUP2 SWAP1 SSTORE POP POP PUSH2 0x195 JUMP JUMPDEST DUP2 SLOAD DUP2 DUP4 SSTORE DUP2 DUP2 GT ISZERO PUSH2 0x169 JUMPI DUP2 DUP4 PUSH1 0x0 MSTORE PUSH1 0x20 PUSH1 0x0 KECCAK256 SWAP2 DUP3 ADD SWAP2 ADD PUSH2 0x168 SWAP2 SWAP1 PUSH2 0x16E JUMP JUMPDEST JUMPDEST POP POP POP JUMP JUMPDEST PUSH2 0x192 SWAP2 SWAP1 JUMPDEST DUP1 DUP3 GT ISZERO PUSH2 0x18E JUMPI PUSH1 0x0 DUP1 DUP3 ADD PUSH1 0x0 SWAP1 SSTORE POP PUSH1 0x1 ADD PUSH2 0x174 JUMP JUMPDEST POP SWAP1 JUMP JUMPDEST SWAP1 JUMP JUMPDEST PUSH2 0x573 DUP1 PUSH2 0x1A4 PUSH1 0x0 CODECOPY PUSH1 0x0 RETURN STOP PUSH1 0x80 PUSH1 0x40 MSTORE PUSH1 0x4 CALLDATASIZE LT PUSH2 0x62 JUMPI PUSH1 0x0 CALLDATALOAD PUSH29 0x100000000000000000000000000000000000000000000000000000000 SWAP1 DIV PUSH4 0xFFFFFFFF AND DUP1 PUSH4 0x4420E486 EQ PUSH2 0x67 JUMPI DUP1 PUSH4 0x609FF1BD EQ PUSH2 0xAA JUMPI DUP1 PUSH4 0xB3F98ADC EQ PUSH2 0xDB JUMPI DUP1 PUSH4 0xC040E6B8 EQ PUSH2 0x10B JUMPI JUMPDEST PUSH1 0x0 DUP1 REVERT JUMPDEST CALLVALUE DUP1 ISZERO PUSH2 0x73 JUMPI PUSH1 0x0 DUP1 REVERT JUMPDEST POP PUSH2 0xA8 PUSH1 0x4 DUP1 CALLDATASIZE SUB DUP2 ADD SWAP1 DUP1 DUP1 CALLDATALOAD PUSH20 0xFFFFFFFFFFFFFFFFFFFFFFFFFFFFFFFFFFFFFFFF AND SWAP1 PUSH1 0x20 ADD SWAP1 SWAP3 SWAP2 SWAP1 POP POP POP PUSH2 0x144 JUMP JUMPDEST STOP JUMPDEST CALLVALUE DUP1 ISZERO PUSH2 0xB6 JUMPI PUSH1 0x0 DUP1 REVERT JUMPDEST POP PUSH2 0xBF PUSH2 0x303 JUMP JUMPDEST PUSH1 0x40 MLOAD DUP1 DUP3 PUSH1 0xFF AND PUSH1 0xFF AND DUP2 MSTORE PUSH1 0x20 ADD SWAP2 POP POP PUSH1 0x40 MLOAD DUP1 SWAP2 SUB SWAP1 RETURN JUMPDEST CALLVALUE DUP1 ISZERO PUSH2 0xE7 JUMPI PUSH1 0x0 DUP1 REVERT JUMPDEST POP PUSH2 0x109 PUSH1 0x4 DUP1 CALLDATASIZE SUB DUP2 ADD SWAP1 DUP1 DUP1 CALLDATALOAD PUSH1 0xFF AND SWAP1 PUSH1 0x20 ADD SWAP1 SWAP3 SWAP2 SWAP1 POP POP POP PUSH2 0x3C1 JUMP JUMPDEST STOP JUMPDEST CALLVALUE DUP1 ISZERO PUSH2 0x117 JUMPI PUSH1 0x0 DUP1 REVERT JUMPDEST POP PUSH2 0x120 PUSH2 0x535 JUMP JUMPDEST PUSH1 0x40 MLOAD DUP1 DUP3 PUSH1 0x3 DUP2 GT ISZERO PUSH2 0x130 JUMPI INVALID JUMPDEST PUSH1 0xFF AND DUP2 MSTORE PUSH1 0x20 ADD SWAP2 POP POP PUSH1 0x40 MLOAD DUP1 SWAP2 SUB SWAP1 RETURN JUMPDEST PUSH1 0x1 DUP1 PUSH1 0x3 DUP2 GT ISZERO PUSH2 0x152 JUMPI INVALID JUMPDEST PUSH1 0x0 DUP1 SWAP1 SLOAD SWAP1 PUSH2 0x100 EXP SWAP1 DIV PUSH1 0xFF AND PUSH1 0x3 DUP2 GT ISZERO PUSH2 0x16C JUMPI INVALID JUMPDEST EQ ISZERO ISZERO PUSH2 0x178 JUMPI PUSH1 0x0 DUP1 REVERT JUMPDEST PUSH1 0x0 PUSH1 0x1 SWAP1 SLOAD SWAP1 PUSH2 0x100 EXP SWAP1 DIV PUSH20 0xFFFFFFFFFFFFFFFFFFFFFFFFFFFFFFFFFFFFFFFF AND PUSH20 0xFFFFFFFFFFFFFFFFFFFFFFFFFFFFFFFFFFFFFFFF AND CALLER PUSH20 0xFFFFFFFFFFFFFFFFFFFFFFFFFFFFFFFFFFFFFFFF AND EQ ISZERO DUP1 PUSH2 0x221 JUMPI POP PUSH1 0x1 PUSH1 0x0 DUP4 PUSH20 0xFFFFFFFFFFFFFFFFFFFFFFFFFFFFFFFFFFFFFFFF AND PUSH20 0xFFFFFFFFFFFFFFFFFFFFFFFFFFFFFFFFFFFFFFFF AND DUP2 MSTORE PUSH1 0x20 ADD SWAP1 DUP2 MSTORE PUSH1 0x20 ADD PUSH1 0x0 KECCAK256 PUSH1 0x1 ADD PUSH1 0x0 SWAP1 SLOAD SWAP1 PUSH2 0x100 EXP SWAP1 DIV PUSH1 0xFF AND JUMPDEST ISZERO PUSH2 0x22B JUMPI PUSH2 0x2FF JUMP JUMPDEST PUSH1 0x1 DUP1 PUSH1 0x0 DUP5 PUSH20 0xFFFFFFFFFFFFFFFFFFFFFFFFFFFFFFFFFFFFFFFF AND PUSH20 0xFFFFFFFFFFFFFFFFFFFFFFFFFFFFFFFFFFFFFFFF AND DUP2 MSTORE PUSH1 0x20 ADD SWAP1 DUP2 MSTORE PUSH1 0x20 ADD PUSH1 0x0 KECCAK256 PUSH1 0x0 ADD DUP2 SWAP1 SSTORE POP PUSH1 0x0 PUSH1 0x1 PUSH1 0x0 DUP5 PUSH20 0xFFFFFFFFFFFFFFFFFFFFFFFFFFFFFFFFFFFFFFFF AND PUSH20 0xFFFFFFFFFFFFFFFFFFFFFFFFFFFFFFFFFFFFFFFF AND DUP2 MSTORE PUSH1 0x20 ADD SWAP1 DUP2 MSTORE PUSH1 0x20 ADD PUSH1 0x0 KECCAK256 PUSH1 0x1 ADD PUSH1 0x0 PUSH2 0x100 EXP DUP2 SLOAD DUP2 PUSH1 0xFF MUL NOT AND SWAP1 DUP4 ISZERO ISZERO MUL OR SWAP1 SSTORE POP PUSH1 0x1E PUSH1 0x3 SLOAD ADD TIMESTAMP GT ISZERO PUSH2 0x2FE JUMPI PUSH1 0x2 PUSH1 0x0 DUP1 PUSH2 0x100 EXP DUP2 SLOAD DUP2 PUSH1 0xFF MUL NOT AND SWAP1 DUP4 PUSH1 0x3 DUP2 GT ISZERO PUSH2 0x2F8 JUMPI INVALID JUMPDEST MUL OR SWAP1 SSTORE POP JUMPDEST JUMPDEST POP POP JUMP JUMPDEST PUSH1 0x0 DUP1 PUSH1 0x0 PUSH1 0x3 DUP1 PUSH1 0x3 DUP2 GT ISZERO PUSH2 0x316 JUMPI INVALID JUMPDEST PUSH1 0x0 DUP1 SWAP1 SLOAD SWAP1 PUSH2 0x100 EXP SWAP1 DIV PUSH1 0xFF AND PUSH1 0x3 DUP2 GT ISZERO PUSH2 0x330 JUMPI INVALID JUMPDEST EQ ISZERO ISZERO PUSH2 0x33C JUMPI PUSH1 0x0 DUP1 REVERT JUMPDEST PUSH1 0x0 SWAP3 POP PUSH1 0x0 SWAP2 POP JUMPDEST PUSH1 0x2 DUP1 SLOAD SWAP1 POP DUP3 PUSH1 0xFF AND LT ISZERO PUSH2 0x3AF JUMPI DUP3 PUSH1 0x2 DUP4 PUSH1 0xFF AND DUP2 SLOAD DUP2 LT ISZERO ISZERO PUSH2 0x368 JUMPI INVALID JUMPDEST SWAP1 PUSH1 0x0 MSTORE PUSH1 0x20 PUSH1 0x0 KECCAK256 ADD PUSH1 0x0 ADD SLOAD GT ISZERO PUSH2 0x3A2 JUMPI PUSH1 0x2 DUP3 PUSH1 0xFF AND DUP2 SLOAD DUP2 LT ISZERO ISZERO PUSH2 0x38E JUMPI INVALID JUMPDEST SWAP1 PUSH1 0x0 MSTORE PUSH1 0x20 PUSH1 0x0 KECCAK256 ADD PUSH1 0x0 ADD SLOAD SWAP3 POP DUP2 SWAP4 POP JUMPDEST DUP2 DUP1 PUSH1 0x1 ADD SWAP3 POP POP PUSH2 0x345 JUMP JUMPDEST PUSH1 0x0 DUP4 GT ISZERO ISZERO PUSH2 0x3BB JUMPI INVALID JUMPDEST POP POP POP SWAP1 JUMP JUMPDEST PUSH1 0x0 PUSH1 0x2 DUP1 PUSH1 0x3 DUP2 GT ISZERO PUSH2 0x3D1 JUMPI INVALID JUMPDEST PUSH1 0x0 DUP1 SWAP1 SLOAD SWAP1 PUSH2 0x100 EXP SWAP1 DIV PUSH1 0xFF AND PUSH1 0x3 DUP2 GT ISZERO PUSH2 0x3EB JUMPI INVALID JUMPDEST EQ ISZERO ISZERO PUSH2 0x3F7 JUMPI PUSH1 0x0 DUP1 REVERT JUMPDEST PUSH1 0x1 PUSH1 0x0 CALLER PUSH20 0xFFFFFFFFFFFFFFFFFFFFFFFFFFFFFFFFFFFFFFFF AND PUSH20 0xFFFFFFFFFFFFFFFFFFFFFFFFFFFFFFFFFFFFFFFF AND DUP2 MSTORE PUSH1 0x20 ADD SWAP1 DUP2 MSTORE PUSH1 0x20 ADD PUSH1 0x0 KECCAK256 SWAP2 POP DUP2 PUSH1 0x1 ADD PUSH1 0x0 SWAP1 SLOAD SWAP1 PUSH2 0x100 EXP SWAP1 DIV PUSH1 0xFF AND DUP1 PUSH2 0x45D JUMPI POP PUSH1 0x2 DUP1 SLOAD SWAP1 POP DUP4 PUSH1 0xFF AND LT ISZERO JUMPDEST ISZERO PUSH2 0x467 JUMPI PUSH2 0x530 JUMP JUMPDEST PUSH1 0x1 DUP3 PUSH1 0x1 ADD PUSH1 0x0 PUSH2 0x100 EXP DUP2 SLOAD DUP2 PUSH1 0xFF MUL NOT AND SWAP1 DUP4 ISZERO ISZERO MUL OR SWAP1 SSTORE POP DUP3 DUP3 PUSH1 0x1 ADD PUSH1 0x1 PUSH2 0x100 EXP DUP2 SLOAD DUP2 PUSH1 0xFF MUL NOT AND SWAP1 DUP4 PUSH1 0xFF AND MUL OR SWAP1 SSTORE POP DUP2 PUSH1 0x0 ADD SLOAD PUSH1 0x2 DUP5 PUSH1 0xFF AND DUP2 SLOAD DUP2 LT ISZERO ISZERO PUSH2 0x4B8 JUMPI INVALID JUMPDEST SWAP1 PUSH1 0x0 MSTORE PUSH1 0x20 PUSH1 0x0 KECCAK256 ADD PUSH1 0x0 ADD PUSH1 0x0 DUP3 DUP3 SLOAD ADD SWAP3 POP POP DUP2 SWAP1 SSTORE POP PUSH1 0x1E PUSH1 0x3 SLOAD ADD TIMESTAMP GT ISZERO PUSH2 0x52F JUMPI PUSH1 0x3 PUSH1 0x0 DUP1 PUSH2 0x100 EXP DUP2 SLOAD DUP2 PUSH1 0xFF MUL NOT AND SWAP1 DUP4 PUSH1 0x3 DUP2 GT ISZERO PUSH2 0x4FD JUMPI INVALID JUMPDEST MUL OR SWAP1 SSTORE POP PUSH32 0x6AC0C89219F0135E3A87CECDF1851ABCED71DA933A0A00E1EADA0EF035382351 PUSH1 0x40 MLOAD PUSH1 0x40 MLOAD DUP1 SWAP2 SUB SWAP1 LOG1 JUMPDEST JUMPDEST POP POP POP JUMP JUMPDEST PUSH1 0x0 DUP1 SWAP1 SLOAD SWAP1 PUSH2 0x100 EXP SWAP1 DIV PUSH1 0xFF AND DUP2 JUMP STOP LOG1 PUSH6 0x627A7A723058 KECCAK256 0x4d PUSH19 0x4D27C3ADF8A9EB6EE20DFF9C7733D689A67C70 0xdc MSIZE SAR DIV 0x5e SWAP8 0x4f 0x24 0x2a PUSH22 0xD5002900000000000000000000000000000000000000 "
				},
				"gasEstimates": {
					"creation": {
						"codeDepositCost": "279000",
						"executionCost": "infinite",
						"totalCost": "infinite"
					},
					"external": {
						"register(address)": "62191",
						"stage()": "528",
						"vote(uint8)": "83801",
						"winningProposal()": "infinite"
					}
				},
				"methodIdentifiers": {
					"register(address)": "4420e486",
					"stage()": "c040e6b8",
					"vote(uint8)": "b3f98adc",
					"winningProposal()": "609ff1bd"
				}
			},
			"userdoc": {
				"methods": {
					"register(address)": {
						"notice": "May only be called by $(chairperson)."
					},
					"vote(uint8)": {
						"notice": "Give a single vote to proposal $(toProposal)."
					}
				}
			}
		}
	}
}