{
	"data": {
		"bytecode": {
			"linkReferences": {},
			"object": "6080604052600560015534801561001557600080fd5b50610665806100256000396000f3fe608060405234801561001057600080fd5b50600436106100415760003560e01c80631d470c43146100465780633bf393431461006457806397cd988114610082575b600080fd5b61004e61008c565b60405161005b9190610223565b60405180910390f35b61006c610092565b6040516100799190610223565b60405180910390f35b61008a610098565b005b60005481565b60015481565b6000738a753747a1fa494ec906ce90e9f37563a8af630e73ffffffffffffffffffffffffffffffffffffffff1663feaf968c6040518163ffffffff1660e01b815260040160a06040518083038186803b1580156100f457600080fd5b505afa158015610108573d6000803e3d6000fd5b505050506040513d601f19601f8201168201806040525081019061012c91906102e7565b5050509150506000738a753747a1fa494ec906ce90e9f37563a8af630e73ffffffffffffffffffffffffffffffffffffffff1663313ce5676040518163ffffffff1660e01b815260040160206040518083038186803b15801561018e57600080fd5b505afa1580156101a2573d6000803e3d6000fd5b505050506040513d601f19601f820116820180604052508101906101c6919061039b565b905080600a6101d5919061052a565b826101e091906105a4565b670de0b6b3a76400006001546101f691906105d5565b61020091906105a4565b6000819055505050565b6000819050919050565b61021d8161020a565b82525050565b60006020820190506102386000830184610214565b92915050565b600080fd5b600069ffffffffffffffffffff82169050919050565b61026281610243565b811461026d57600080fd5b50565b60008151905061027f81610259565b92915050565b6000819050919050565b61029881610285565b81146102a357600080fd5b50565b6000815190506102b58161028f565b92915050565b6102c48161020a565b81146102cf57600080fd5b50565b6000815190506102e1816102bb565b92915050565b600080600080600060a086880312156103035761030261023e565b5b600061031188828901610270565b9550506020610322888289016102a6565b9450506040610333888289016102d2565b9350506060610344888289016102d2565b925050608061035588828901610270565b9150509295509295909350565b600060ff82169050919050565b61037881610362565b811461038357600080fd5b50565b6000815190506103958161036f565b92915050565b6000602082840312156103b1576103b061023e565b5b60006103bf84828501610386565b91505092915050565b7f4e487b7100000000000000000000000000000000000000000000000000000000600052601160045260246000fd5b60008160011c9050919050565b6000808291508390505b600185111561044e5780860481111561042a576104296103c8565b5b60018516156104395780820291505b8081029050610447856103f7565b945061040e565b94509492505050565b6000826104675760019050610523565b816104755760009050610523565b816001811461048b5760028114610495576104c4565b6001915050610523565b60ff8411156104a7576104a66103c8565b5b8360020a9150848211156104be576104bd6103c8565b5b50610523565b5060208310610133831016604e8410600b84101617156104f95782820a9050838111156104f4576104f36103c8565b5b610523565b6105068484846001610404565b9250905081840481111561051d5761051c6103c8565b5b81810290505b9392505050565b60006105358261020a565b915061054083610362565b925061056d7fffffffffffffffffffffffffffffffffffffffffffffffffffffffffffffffff8484610457565b905092915050565b7f4e487b7100000000000000000000000000000000000000000000000000000000600052601260045260246000fd5b60006105af8261020a565b91506105ba8361020a565b9250826105ca576105c9610575565b5b828204905092915050565b60006105e08261020a565b91506105eb8361020a565b9250817fffffffffffffffffffffffffffffffffffffffffffffffffffffffffffffffff0483118215151615610624576106236103c8565b5b82820290509291505056fea2646970667358221220fc0544b9c047ba233e3f8b06243569d167db47a9937587f7cae35a45b86da85564736f6c63430008080033",
			"opcodes": "PUSH1 0x80 PUSH1 0x40 MSTORE PUSH1 0x5 PUSH1 0x1 SSTORE CALLVALUE DUP1 ISZERO PUSH2 0x15 JUMPI PUSH1 0x0 DUP1 REVERT JUMPDEST POP PUSH2 0x665 DUP1 PUSH2 0x25 PUSH1 0x0 CODECOPY PUSH1 0x0 RETURN INVALID PUSH1 0x80 PUSH1 0x40 MSTORE CALLVALUE DUP1 ISZERO PUSH2 0x10 JUMPI PUSH1 0x0 DUP1 REVERT JUMPDEST POP PUSH1 0x4 CALLDATASIZE LT PUSH2 0x41 JUMPI PUSH1 0x0 CALLDATALOAD PUSH1 0xE0 SHR DUP1 PUSH4 0x1D470C43 EQ PUSH2 0x46 JUMPI DUP1 PUSH4 0x3BF39343 EQ PUSH2 0x64 JUMPI DUP1 PUSH4 0x97CD9881 EQ PUSH2 0x82 JUMPI JUMPDEST PUSH1 0x0 DUP1 REVERT JUMPDEST PUSH2 0x4E PUSH2 0x8C JUMP JUMPDEST PUSH1 0x40 MLOAD PUSH2 0x5B SWAP2 SWAP1 PUSH2 0x223 JUMP JUMPDEST PUSH1 0x40 MLOAD DUP1 SWAP2 SUB SWAP1 RETURN JUMPDEST PUSH2 0x6C PUSH2 0x92 JUMP JUMPDEST PUSH1 0x40 MLOAD PUSH2 0x79 SWAP2 SWAP1 PUSH2 0x223 JUMP JUMPDEST PUSH1 0x40 MLOAD DUP1 SWAP2 SUB SWAP1 RETURN JUMPDEST PUSH2 0x8A PUSH2 0x98 JUMP JUMPDEST STOP JUMPDEST PUSH1 0x0 SLOAD DUP2 JUMP JUMPDEST PUSH1 0x1 SLOAD DUP2 JUMP JUMPDEST PUSH1 0x0 PUSH20 0x8A753747A1FA494EC906CE90E9F37563A8AF630E PUSH20 0xFFFFFFFFFFFFFFFFFFFFFFFFFFFFFFFFFFFFFFFF AND PUSH4 0xFEAF968C PUSH1 0x40 MLOAD DUP2 PUSH4 0xFFFFFFFF AND PUSH1 0xE0 SHL DUP2 MSTORE PUSH1 0x4 ADD PUSH1 0xA0 PUSH1 0x40 MLOAD DUP1 DUP4 SUB DUP2 DUP7 DUP1 EXTCODESIZE ISZERO DUP1 ISZERO PUSH2 0xF4 JUMPI PUSH1 0x0 DUP1 REVERT JUMPDEST POP GAS STATICCALL ISZERO DUP1 ISZERO PUSH2 0x108 JUMPI RETURNDATASIZE PUSH1 0x0 DUP1 RETURNDATACOPY RETURNDATASIZE PUSH1 0x0 REVERT JUMPDEST POP POP POP POP PUSH1 0x40 MLOAD RETURNDATASIZE PUSH1 0x1F NOT PUSH1 0x1F DUP3 ADD AND DUP3 ADD DUP1 PUSH1 0x40 MSTORE POP DUP2 ADD SWAP1 PUSH2 0x12C SWAP2 SWAP1 PUSH2 0x2E7 JUMP JUMPDEST POP POP POP SWAP2 POP POP PUSH1 0x0 PUSH20 0x8A753747A1FA494EC906CE90E9F37563A8AF630E PUSH20 0xFFFFFFFFFFFFFFFFFFFFFFFFFFFFFFFFFFFFFFFF AND PUSH4 0x313CE567 PUSH1 0x40 MLOAD DUP2 PUSH4 0xFFFFFFFF AND PUSH1 0xE0 SHL DUP2 MSTORE PUSH1 0x4 ADD PUSH1 0x20 PUSH1 0x40 MLOAD DUP1 DUP4 SUB DUP2 DUP7 DUP1 EXTCODESIZE ISZERO DUP1 ISZERO PUSH2 0x18E JUMPI PUSH1 0x0 DUP1 REVERT JUMPDEST POP GAS STATICCALL ISZERO DUP1 ISZERO PUSH2 0x1A2 JUMPI RETURNDATASIZE PUSH1 0x0 DUP1 RETURNDATACOPY RETURNDATASIZE PUSH1 0x0 REVERT JUMPDEST POP POP POP POP PUSH1 0x40 MLOAD RETURNDATASIZE PUSH1 0x1F NOT PUSH1 0x1F DUP3 ADD AND DUP3 ADD DUP1 PUSH1 0x40 MSTORE POP DUP2 ADD SWAP1 PUSH2 0x1C6 SWAP2 SWAP1 PUSH2 0x39B JUMP JUMPDEST SWAP1 POP DUP1 PUSH1 0xA PUSH2 0x1D5 SWAP2 SWAP1 PUSH2 0x52A JUMP JUMPDEST DUP3 PUSH2 0x1E0 SWAP2 SWAP1 PUSH2 0x5A4 JUMP JUMPDEST PUSH8 0xDE0B6B3A7640000 PUSH1 0x1 SLOAD PUSH2 0x1F6 SWAP2 SWAP1 PUSH2 0x5D5 JUMP JUMPDEST PUSH2 0x200 SWAP2 SWAP1 PUSH2 0x5A4 JUMP JUMPDEST PUSH1 0x0 DUP2 SWAP1 SSTORE POP POP POP JUMP JUMPDEST PUSH1 0x0 DUP2 SWAP1 POP SWAP2 SWAP1 POP JUMP JUMPDEST PUSH2 0x21D DUP2 PUSH2 0x20A JUMP JUMPDEST DUP3 MSTORE POP POP JUMP JUMPDEST PUSH1 0x0 PUSH1 0x20 DUP3 ADD SWAP1 POP PUSH2 0x238 PUSH1 0x0 DUP4 ADD DUP5 PUSH2 0x214 JUMP JUMPDEST SWAP3 SWAP2 POP POP JUMP JUMPDEST PUSH1 0x0 DUP1 REVERT JUMPDEST PUSH1 0x0 PUSH10 0xFFFFFFFFFFFFFFFFFFFF DUP3 AND SWAP1 POP SWAP2 SWAP1 POP JUMP JUMPDEST PUSH2 0x262 DUP2 PUSH2 0x243 JUMP JUMPDEST DUP2 EQ PUSH2 0x26D JUMPI PUSH1 0x0 DUP1 REVERT JUMPDEST POP JUMP JUMPDEST PUSH1 0x0 DUP2 MLOAD SWAP1 POP PUSH2 0x27F DUP2 PUSH2 0x259 JUMP JUMPDEST SWAP3 SWAP2 POP POP JUMP JUMPDEST PUSH1 0x0 DUP2 SWAP1 POP SWAP2 SWAP1 POP JUMP JUMPDEST PUSH2 0x298 DUP2 PUSH2 0x285 JUMP JUMPDEST DUP2 EQ PUSH2 0x2A3 JUMPI PUSH1 0x0 DUP1 REVERT JUMPDEST POP JUMP JUMPDEST PUSH1 0x0 DUP2 MLOAD SWAP1 POP PUSH2 0x2B5 DUP2 PUSH2 0x28F JUMP JUMPDEST SWAP3 SWAP2 POP POP JUMP JUMPDEST PUSH2 0x2C4 DUP2 PUSH2 0x20A JUMP JUMPDEST DUP2 EQ PUSH2 0x2CF JUMPI PUSH1 0x0 DUP1 REVERT JUMPDEST POP JUMP JUMPDEST PUSH1 0x0 DUP2 MLOAD SWAP1 POP PUSH2 0x2E1 DUP2 PUSH2 0x2BB JUMP JUMPDEST SWAP3 SWAP2 POP POP JUMP JUMPDEST PUSH1 0x0 DUP1 PUSH1 0x0 DUP1 PUSH1 0x0 PUSH1 0xA0 DUP7 DUP9 SUB SLT ISZERO PUSH2 0x303 JUMPI PUSH2 0x302 PUSH2 0x23E JUMP JUMPDEST JUMPDEST PUSH1 0x0 PUSH2 0x311 DUP9 DUP3 DUP10 ADD PUSH2 0x270 JUMP JUMPDEST SWAP6 POP POP PUSH1 0x20 PUSH2 0x322 DUP9 DUP3 DUP10 ADD PUSH2 0x2A6 JUMP JUMPDEST SWAP5 POP POP PUSH1 0x40 PUSH2 0x333 DUP9 DUP3 DUP10 ADD PUSH2 0x2D2 JUMP JUMPDEST SWAP4 POP POP PUSH1 0x60 PUSH2 0x344 DUP9 DUP3 DUP10 ADD PUSH2 0x2D2 JUMP JUMPDEST SWAP3 POP POP PUSH1 0x80 PUSH2 0x355 DUP9 DUP3 DUP10 ADD PUSH2 0x270 JUMP JUMPDEST SWAP2 POP POP SWAP3 SWAP6 POP SWAP3 SWAP6 SWAP1 SWAP4 POP JUMP JUMPDEST PUSH1 0x0 PUSH1 0xFF DUP3 AND SWAP1 POP SWAP2 SWAP1 POP JUMP JUMPDEST PUSH2 0x378 DUP2 PUSH2 0x362 JUMP JUMPDEST DUP2 EQ PUSH2 0x383 JUMPI PUSH1 0x0 DUP1 REVERT JUMPDEST POP JUMP JUMPDEST PUSH1 0x0 DUP2 MLOAD SWAP1 POP PUSH2 0x395 DUP2 PUSH2 0x36F JUMP JUMPDEST SWAP3 SWAP2 POP POP JUMP JUMPDEST PUSH1 0x0 PUSH1 0x20 DUP3 DUP5 SUB SLT ISZERO PUSH2 0x3B1 JUMPI PUSH2 0x3B0 PUSH2 0x23E JUMP JUMPDEST JUMPDEST PUSH1 0x0 PUSH2 0x3BF DUP5 DUP3 DUP6 ADD PUSH2 0x386 JUMP JUMPDEST SWAP2 POP POP SWAP3 SWAP2 POP POP JUMP JUMPDEST PUSH32 0x4E487B7100000000000000000000000000000000000000000000000000000000 PUSH1 0x0 MSTORE PUSH1 0x11 PUSH1 0x4 MSTORE PUSH1 0x24 PUSH1 0x0 REVERT JUMPDEST PUSH1 0x0 DUP2 PUSH1 0x1 SHR SWAP1 POP SWAP2 SWAP1 POP JUMP JUMPDEST PUSH1 0x0 DUP1 DUP3 SWAP2 POP DUP4 SWAP1 POP JUMPDEST PUSH1 0x1 DUP6 GT ISZERO PUSH2 0x44E JUMPI DUP1 DUP7 DIV DUP2 GT ISZERO PUSH2 0x42A JUMPI PUSH2 0x429 PUSH2 0x3C8 JUMP JUMPDEST JUMPDEST PUSH1 0x1 DUP6 AND ISZERO PUSH2 0x439 JUMPI DUP1 DUP3 MUL SWAP2 POP JUMPDEST DUP1 DUP2 MUL SWAP1 POP PUSH2 0x447 DUP6 PUSH2 0x3F7 JUMP JUMPDEST SWAP5 POP PUSH2 0x40E JUMP JUMPDEST SWAP5 POP SWAP5 SWAP3 POP POP POP JUMP JUMPDEST PUSH1 0x0 DUP3 PUSH2 0x467 JUMPI PUSH1 0x1 SWAP1 POP PUSH2 0x523 JUMP JUMPDEST DUP2 PUSH2 0x475 JUMPI PUSH1 0x0 SWAP1 POP PUSH2 0x523 JUMP JUMPDEST DUP2 PUSH1 0x1 DUP2 EQ PUSH2 0x48B JUMPI PUSH1 0x2 DUP2 EQ PUSH2 0x495 JUMPI PUSH2 0x4C4 JUMP JUMPDEST PUSH1 0x1 SWAP2 POP POP PUSH2 0x523 JUMP JUMPDEST PUSH1 0xFF DUP5 GT ISZERO PUSH2 0x4A7 JUMPI PUSH2 0x4A6 PUSH2 0x3C8 JUMP JUMPDEST JUMPDEST DUP4 PUSH1 0x2 EXP SWAP2 POP DUP5 DUP3 GT ISZERO PUSH2 0x4BE JUMPI PUSH2 0x4BD PUSH2 0x3C8 JUMP JUMPDEST JUMPDEST POP PUSH2 0x523 JUMP JUMPDEST POP PUSH1 0x20 DUP4 LT PUSH2 0x133 DUP4 LT AND PUSH1 0x4E DUP5 LT PUSH1 0xB DUP5 LT AND OR ISZERO PUSH2 0x4F9 JUMPI DUP3 DUP3 EXP SWAP1 POP DUP4 DUP2 GT ISZERO PUSH2 0x4F4 JUMPI PUSH2 0x4F3 PUSH2 0x3C8 JUMP JUMPDEST JUMPDEST PUSH2 0x523 JUMP JUMPDEST PUSH2 0x506 DUP5 DUP5 DUP5 PUSH1 0x1 PUSH2 0x404 JUMP JUMPDEST SWAP3 POP SWAP1 POP DUP2 DUP5 DIV DUP2 GT ISZERO PUSH2 0x51D JUMPI PUSH2 0x51C PUSH2 0x3C8 JUMP JUMPDEST JUMPDEST DUP2 DUP2 MUL SWAP1 POP JUMPDEST SWAP4 SWAP3 POP POP POP JUMP JUMPDEST PUSH1 0x0 PUSH2 0x535 DUP3 PUSH2 0x20A JUMP JUMPDEST SWAP2 POP PUSH2 0x540 DUP4 PUSH2 0x362 JUMP JUMPDEST SWAP3 POP PUSH2 0x56D PUSH32 0xFFFFFFFFFFFFFFFFFFFFFFFFFFFFFFFFFFFFFFFFFFFFFFFFFFFFFFFFFFFFFFFF DUP5 DUP5 PUSH2 0x457 JUMP JUMPDEST SWAP1 POP SWAP3 SWAP2 POP POP JUMP JUMPDEST PUSH32 0x4E487B7100000000000000000000000000000000000000000000000000000000 PUSH1 0x0 MSTORE PUSH1 0x12 PUSH1 0x4 MSTORE PUSH1 0x24 PUSH1 0x0 REVERT JUMPDEST PUSH1 0x0 PUSH2 0x5AF DUP3 PUSH2 0x20A JUMP JUMPDEST SWAP2 POP PUSH2 0x5BA DUP4 PUSH2 0x20A JUMP JUMPDEST SWAP3 POP DUP3 PUSH2 0x5CA JUMPI PUSH2 0x5C9 PUSH2 0x575 JUMP JUMPDEST JUMPDEST DUP3 DUP3 DIV SWAP1 POP SWAP3 SWAP2 POP POP JUMP JUMPDEST PUSH1 0x0 PUSH2 0x5E0 DUP3 PUSH2 0x20A JUMP JUMPDEST SWAP2 POP PUSH2 0x5EB DUP4 PUSH2 0x20A JUMP JUMPDEST SWAP3 POP DUP2 PUSH32 0xFFFFFFFFFFFFFFFFFFFFFFFFFFFFFFFFFFFFFFFFFFFFFFFFFFFFFFFFFFFFFFFF DIV DUP4 GT DUP3 ISZERO ISZERO AND ISZERO PUSH2 0x624 JUMPI PUSH2 0x623 PUSH2 0x3C8 JUMP JUMPDEST JUMPDEST DUP3 DUP3 MUL SWAP1 POP SWAP3 SWAP2 POP POP JUMP INVALID LOG2 PUSH5 0x6970667358 0x22 SLT KECCAK256 0xFC SDIV DIFFICULTY 0xB9 0xC0 SELFBALANCE 0xBA 0x23 RETURNDATACOPY EXTCODEHASH DUP12 MOD 0x24 CALLDATALOAD PUSH10 0xD167DB47A9937587F7CA 0xE3 GAS GASLIMIT 0xB8 PUSH14 0xA85564736F6C6343000808003300 "
		},
		"gasEstimates": {
			"creation": {
				"codeDepositCost": "327400",
				"executionCost": "22474",
				"totalCost": "349874"
			},
			"external": {
				"MinumToPay()": "2429",
				"WeiYouPay()": "2407",
				"getEthToUSD()": "infinite"
			}
		},
		"methodIdentifiers": {
			"MinumToPay()": "3bf39343",
			"WeiYouPay()": "1d470c43",
			"getEthToUSD()": "97cd9881"
		}
	},
	"abi": [
		{
			"inputs": [],
			"name": "MinumToPay",
			"outputs": [
				{
					"internalType": "uint256",
					"name": "",
					"type": "uint256"
				}
			],
			"stateMutability": "view",
			"type": "function"
		},
		{
			"inputs": [],
			"name": "WeiYouPay",
			"outputs": [
				{
					"internalType": "uint256",
					"name": "",
					"type": "uint256"
				}
			],
			"stateMutability": "view",
			"type": "function"
		},
		{
			"inputs": [],
			"name": "getEthToUSD",
			"outputs": [],
			"stateMutability": "nonpayable",
			"type": "function"
		}
	]
}