{
  "_format": "hh-sol-artifact-1",
  "contractName": "test",
  "sourceName": "contracts/test.sol",
  "abi": [
    {
      "inputs": [
        {
          "internalType": "uint256",
          "name": "x",
          "type": "uint256"
        }
      ],
      "name": "set",
      "outputs": [],
      "stateMutability": "nonpayable",
      "type": "function"
    },
    {
      "inputs": [],
      "name": "storedData",
      "outputs": [
        {
          "internalType": "uint256",
          "name": "",
          "type": "uint256"
        }
      ],
      "stateMutability": "view",
      "type": "function"
    },
    {
      "inputs": [],
      "name": "storedData2",
      "outputs": [
        {
          "internalType": "uint256",
          "name": "",
          "type": "uint256"
        }
      ],
      "stateMutability": "view",
      "type": "function"
    },
    {
      "inputs": [],
      "name": "storedData4",
      "outputs": [
        {
          "internalType": "uint256",
          "name": "",
          "type": "uint256"
        }
      ],
      "stateMutability": "view",
      "type": "function"
    }
  ],
  "bytecode": "0x608060405234801561001057600080fd5b506101ab806100206000396000f3fe608060405234801561001057600080fd5b506004361061004c5760003560e01c80632a1afcd9146100515780633dc269281461006f57806360fe47b11461008d5780636f08d254146100a9575b600080fd5b6100596100c7565b60405161006691906100fc565b60405180910390f35b6100776100cd565b60405161008491906100fc565b60405180910390f35b6100a760048036038101906100a29190610148565b6100d3565b005b6100b16100dd565b6040516100be91906100fc565b60405180910390f35b60005481565b60015481565b8060008190555050565b60025481565b6000819050919050565b6100f6816100e3565b82525050565b600060208201905061011160008301846100ed565b92915050565b600080fd5b610125816100e3565b811461013057600080fd5b50565b6000813590506101428161011c565b92915050565b60006020828403121561015e5761015d610117565b5b600061016c84828501610133565b9150509291505056fea2646970667358221220875732d89a2877710be1a5911941c95a97ab3958489670813e8a7677e3c9c06c64736f6c63430008080033",
  "linkReferences": {},
  "deployedLinkReferences": {}
}